{
  "abi": [
    {
      "inputs": [],
      "stateMutability": "nonpayable",
      "type": "constructor"
    },
    {
      "inputs": [],
      "name": "GetOwner",
      "outputs": [
        {
          "internalType": "address",
          "name": "",
          "type": "address"
        }
      ],
      "stateMutability": "view",
      "type": "function"
    }
  ],
  "bytecode": "6080604052348015600f57600080fd5b50600080546001600160a01b031916331790556094806100306000396000f3fe6080604052348015600f57600080fd5b506004361060285760003560e01c80630ae50a3914602d575b600080fd5b6033604f565b604080516001600160a01b039092168252519081900360200190f35b6000546001600160a01b03169056fea2646970667358221220451847e6101dba01de3ce4de4c5aed6127aa61371eeadb509d73594b4a17aa2664736f6c634300060c0033",
  "bytecodeSha1": "2cee0cb6dcb9154bfff0251475ff827b91650e50",
  "compiler": {
    "evm_version": "istanbul",
    "optimizer": {
      "enabled": true,
      "runs": 200
    },
    "version": "0.6.12+commit.27d51765"
  },
  "contractName": "Ownable",
  "language": "Solidity",
  "natspec": {
    "details": "Contract developed to prevent the improper use of some    functions in our contracts, providing protection to the owner   Description:   Project made for the presentation of a university thesis, based on the studies    and databases of the blockchain to create a game, made to be run on Kovan Test    Blockchain, Local Blockchain and Main Ethereum Blockchain.   Author: https://github.com/simetb",
    "kind": "dev",
    "methods": {
      "GetOwner()": {
        "details": "get the owner of the contract"
      }
    },
    "version": 1
  },
  "opcodes": "PUSH1 0x80 PUSH1 0x40 MSTORE CALLVALUE DUP1 ISZERO PUSH1 0xF JUMPI PUSH1 0x0 DUP1 REVERT JUMPDEST POP PUSH1 0x4 CALLDATASIZE LT PUSH1 0x28 JUMPI PUSH1 0x0 CALLDATALOAD PUSH1 0xE0 SHR DUP1 PUSH4 0xAE50A39 EQ PUSH1 0x2D JUMPI JUMPDEST PUSH1 0x0 DUP1 REVERT JUMPDEST PUSH1 0x33 PUSH1 0x4F JUMP JUMPDEST PUSH1 0x40 DUP1 MLOAD PUSH1 0x1 PUSH1 0x1 PUSH1 0xA0 SHL SUB SWAP1 SWAP3 AND DUP3 MSTORE MLOAD SWAP1 DUP2 SWAP1 SUB PUSH1 0x20 ADD SWAP1 RETURN JUMPDEST PUSH1 0x0 SLOAD PUSH1 0x1 PUSH1 0x1 PUSH1 0xA0 SHL SUB AND SWAP1 JUMP INVALID LOG2 PUSH5 0x6970667358 0x22 SLT KECCAK256 GASLIMIT XOR SELFBALANCE 0xE6 LT SAR 0xBA ADD 0xDE EXTCODECOPY 0xE4 0xDE 0x4C GAS 0xED PUSH2 0x27AA PUSH2 0x371E 0xEA 0xDB POP SWAP14 PUSH20 0x594B4A17AA2664736F6C634300060C0033000000 ",
  "sha1": "98cd6f629e07a7ac24360a0e71f09816743cbd2d",
  "source": "// contracts/StudentsNft.sol\n// SPDX-License-Identifier: MIT\npragma solidity ^0.6.6;\n\n/** \n*   @dev Contract developed to prevent the improper use of some \n*   functions in our contracts, providing protection to the owner\n*\n*   Description:\n*\n*   Project made for the presentation of a university thesis, based on the studies \n*   and databases of the blockchain to create a game, made to be run on Kovan Test \n*   Blockchain, Local Blockchain and Main Ethereum Blockchain.\n*\n*   Author: https://github.com/simetb\n*/\ncontract Ownable{\n    \n    // Contract owner address\n    address private _owner;\n    \n    // First Run `_owner` = msg.sender\n    constructor() public{\n        _owner = msg.sender;\n    }\n\n    /**\n    *   @dev Modifier to protect the functions\n    */\n    modifier OnlyOwner(address caller){\n        require(GetOwner() == caller,\"OWNER: Caller aren`t the Contract Owner!\");\n        _;\n    }\n\n    /** \n    *   @dev get the owner of the contract\n    */\n    function GetOwner() public view returns(address){\n        return(_owner);\n    }\n\n    /**\n    *   @dev Transfer the owner powers\n    *\n    *   Requirements:\n    *\n    * - Just the first owner can call this function\n    */\n    function TransferOwner(address _newOwner) internal OnlyOwner(msg.sender){\n        _owner = _newOwner;\n    }\n}",
  "sourcePath": "contracts/Ownable.sol",
  "type": "contract"
}