{"bytecode":"60056103e08181526454656d697360d81b6104005260c0908152600b6104209081526a4a656b6174686572696e6160a81b6104405260e0526009610460818152682432b93730b73232bd60b91b610480526101005260076104a08181526611d8589c9a595b60ca1b6104c052610120526104e0848152644d6172696160d81b6105005261014052600461052081815263253ab0b760e11b6105405261016052610560818152634d61727560e01b61058052610180526105a08381526829b2b130b9ba34b0b760b91b6105c0526101a0526105e08581526425b2bb34b760d91b610600526101c05261062091825266436172616e666160c81b610640526101e091909152610660848152644a756c696f60d81b610680526102005260066106a08181526529b0b6b6b2b960d11b6106c052610220526106e08581526422b235b0b960d91b61070052610240526008610720818152675175696e7465726f60c01b6107405261026052610760828152654f636861646f60d01b61078052610280526107a0848152684672616e636973636f60b81b6107c0526102a0526107e086815264446965676f60d81b610800526102c0526108208181526721b934b9ba34b0b760c11b610840526102e052610860928352634c75697360e01b61088052610300929092526108a085815264476f63686f60d81b6108c052610320526108e0858152642637b832bd60d91b61090052610340526109209081526513585c98d95b60d21b61094052610360526109609182526825b934b9ba37b332b960b91b61098052610380919091526109a09283526414da5b595d60da1b6109c0526103a092909252610a206040526109e0918252674d616e677569746f60c01b610a00526103c0919091526200029490601090601962000583565b50348015620002a257600080fd5b5060405162005de538038062005de58339818101604052610160811015620002c957600080fd5b5080516020808301516040808501516060860151608087015160a088015160c089015160e08a01516101008b01516101208c0151610140909c01518851808a018a526008815267556a61706973746160c01b818d01528951808b01909a5260048a52630554a41560e41b9b8a019b909b52600080546001600160a01b031916331790559a9b989a96999598949793969295919490939092918c918c918c918c918c918c918c918c918991899190620003886301ffc9a760e01b620004fb565b81516200039d906007906020850190620005e7565b508051620003b3906008906020840190620005e7565b50620003c66380ac58cd60e01b620004fb565b620003d8635b5e139f60e01b620004fb565b620003ea63780e9d6360e01b620004fb565b50506001600160601b0319606092831b811660a052911b16608052601c9590955567016345785d8a0000601d55600e805463ffffffff1916620151801790556000600f819055601793909355601891909155601955601a92909255600c80546001600160a01b039283166001600160a01b03199091161790819055600d88905560408051631639a6f160e01b8152600481018a90523060248201523360448201529051919092169450631639a6f193506064808301939282900301818387803b158015620004b757600080fd5b505af1158015620004cc573d6000803e3d6000fd5b5050506020929092556021555050601f80546001600160a01b0319163317905550620006eb9650505050505050565b6001600160e01b031980821614156200055b576040805162461bcd60e51b815260206004820152601c60248201527f4552433136353a20696e76616c696420696e7465726661636520696400000000604482015290519081900360640190fd5b6001600160e01b0319166000908152600160208190526040909120805460ff19169091179055565b828054828255906000526020600020908101928215620005d5579160200282015b82811115620005d55782518051620005c4918491602090910190620005e7565b5091602001919060010190620005a4565b50620005e392915062000668565b5090565b828054600181600116156101000203166002900490600052602060002090601f016020900481019282601f106200062a57805160ff19168380011785556200065a565b828001600101855582156200065a579182015b828111156200065a5782518255916020019190600101906200063d565b50620005e392915062000689565b80821115620005e35760006200067f8282620006a0565b5060010162000668565b5b80821115620005e357600081556001016200068a565b50805460018160011615610100020316600290046000825580601f10620006c85750620006e8565b601f016020900490600052602060002090810190620006e8919062000689565b50565b60805160601c60a05160601c6156c66200071f600039806131d252806148285250806140e252806147f952506156c66000f3fe6080604052600436106103e25760003560e01c80636c0360eb11610208578063a22cb46511610118578063cd4d6df0116100ab578063e985e9c51161007a578063e985e9c51461104a578063ee7931fb14611085578063eed99c96146110af578063f0e7ee0f146110d9578063f6d0bf2f14611103576103e2565b8063cd4d6df014610f3c578063d2d827dd14610f51578063df3d87501461100b578063e386bcac14611035576103e2565b8063bb0529b9116100e7578063bb0529b914610ebe578063c75f40ce14610ed3578063c87b56dd14610ee8578063cb9a5bab14610f12576103e2565b8063a22cb46514610d3a578063b6e2b39514610d75578063b88d4fde14610da8578063ba75999e14610e7b576103e2565b80638353ffca1161019b57806394985ddd1161016a57806394985ddd14610c8a57806395d89b4114610cba5780639dd3045b14610ccf578063a1567d6a14610d08578063a18baf7b14610d10576103e2565b80638353ffca14610c0a5780638cb1f13914610c365780638cdbc37614610c605780639265203514610c75576103e2565b806370b82622116101d757806370b8262214610ab957806374cde95814610ae357806376c0564714610b065780637dd3bbfb14610b36576103e2565b80636c0360eb14610a395780636fc3eac514610a4e5780636ffe5b0614610a6357806370a0823114610a86576103e2565b806323b872dd116103035780633ac0594a116102965780634fbcd3c6116102655780634fbcd3c6146109885780635482ab28146109b25780635cc92db3146109c75780636352211e146109dc57806368e7a1d914610a06576103e2565b80633ac0594a1461086e57806342842e0e146108985780634f659cc5146108db5780634f6ccce71461095e576103e2565b80632cd3fd70116102d25780632cd3fd70146107b75780632d6d4e86146107e15780632f745c591461080b57806339ef591d14610844576103e2565b806323b872dd146106ff57806325c61ce51461074257806327dd4258146107785780632afabeec146107a2576103e2565b8063095ea7b31161037b57806314704b961161034a57806314704b961461067857806318160ddd146106ab5780631a4ad2c1146106c0578063205b282f146106ea576103e2565b8063095ea7b3146105eb5780630ae50a39146106245780630e8702b61461063957806311f2568514610663576103e2565b80630588fcb0116103b75780630588fcb01461053c57806306370ca51461056657806306fdde0314610590578063081812fc146105a5576103e2565b8062acfda7146103e7578062fc964a146104195780630178de501461045557806301ffc9a7146104f4575b600080fd5b3480156103f357600080fd5b506104176004803603604081101561040a57600080fd5b5080359060200135611118565b005b34801561042557600080fd5b506104436004803603602081101561043c57600080fd5b50356113ba565b60408051918252519081900360200190f35b34801561046157600080fd5b5061047f6004803603602081101561047857600080fd5b50356113c4565b6040805160208082528351818301528351919283929083019185019080838360005b838110156104b95781810151838201526020016104a1565b50505050905090810190601f1680156104e65780820380516001836020036101000a031916815260200191505b509250505060405180910390f35b34801561050057600080fd5b506105286004803603602081101561051757600080fd5b50356001600160e01b0319166113d5565b604080519115158252519081900360200190f35b34801561054857600080fd5b506104176004803603602081101561055f57600080fd5b50356113f4565b34801561057257600080fd5b506104176004803603602081101561058957600080fd5b5035611622565b34801561059c57600080fd5b5061047f61192a565b3480156105b157600080fd5b506105cf600480360360208110156105c857600080fd5b50356119c0565b604080516001600160a01b039092168252519081900360200190f35b3480156105f757600080fd5b506104176004803603604081101561060e57600080fd5b506001600160a01b038135169060200135611a22565b34801561063057600080fd5b506105cf611afd565b34801561064557600080fd5b506104436004803603602081101561065c57600080fd5b5035611b0c565b34801561066f57600080fd5b50610443611b55565b34801561068457600080fd5b506104436004803603602081101561069b57600080fd5b50356001600160a01b0316611b5b565b3480156106b757600080fd5b50610443611b76565b3480156106cc57600080fd5b50610417600480360360208110156106e357600080fd5b5035611b87565b3480156106f657600080fd5b50610443611f23565b34801561070b57600080fd5b506104176004803603606081101561072257600080fd5b506001600160a01b03813581169160208101359091169060400135611f29565b34801561074e57600080fd5b506104176004803603606081101561076557600080fd5b5080359060208101359060400135611f80565b34801561078457600080fd5b506104176004803603602081101561079b57600080fd5b50356124ba565b3480156107ae57600080fd5b5061044361250f565b3480156107c357600080fd5b50610417600480360360208110156107da57600080fd5b5035612515565b3480156107ed57600080fd5b506104176004803603602081101561080457600080fd5b50356125d8565b34801561081757600080fd5b506104436004803603604081101561082e57600080fd5b506001600160a01b03813516906020013561269b565b34801561085057600080fd5b506104436004803603602081101561086757600080fd5b50356126c4565b34801561087a57600080fd5b506104436004803603602081101561089157600080fd5b50356126ec565b3480156108a457600080fd5b50610417600480360360608110156108bb57600080fd5b506001600160a01b038135811691602081013590911690604001356126fe565b3480156108e757600080fd5b5061090e600480360360208110156108fe57600080fd5b50356001600160a01b0316612719565b60408051602080825283518183015283519192839290830191858101910280838360005b8381101561094a578181015183820152602001610932565b505050509050019250505060405180910390f35b34801561096a57600080fd5b506104436004803603602081101561098157600080fd5b503561282e565b34801561099457600080fd5b50610417600480360360208110156109ab57600080fd5b5035612844565b3480156109be57600080fd5b50610443612899565b3480156109d357600080fd5b5061044361289f565b3480156109e857600080fd5b506105cf600480360360208110156109ff57600080fd5b50356128a5565b348015610a1257600080fd5b5061041760048036036020811015610a2957600080fd5b50356001600160a01b03166128cd565b348015610a4557600080fd5b5061047f61293f565b348015610a5a57600080fd5b506104436129a0565b61041760048036036040811015610a7957600080fd5b50803590602001356129a6565b348015610a9257600080fd5b5061044360048036036020811015610aa957600080fd5b50356001600160a01b0316612a96565b348015610ac557600080fd5b5061041760048036036020811015610adc57600080fd5b5035612afe565b61041760048036036040811015610af957600080fd5b5080359060200135612cf1565b348015610b1257600080fd5b5061041760048036036020811015610b2957600080fd5b503563ffffffff16612e61565b348015610b4257600080fd5b50610b6060048036036020811015610b5957600080fd5b5035612ecd565b60405180888152602001878152602001868152602001806020018563ffffffff1681526020018481526020018315158152602001828103825286818151815260200191508051906020019080838360005b83811015610bc9578181015183820152602001610bb1565b50505050905090810190601f168015610bf65780820380516001836020036101000a031916815260200191505b509850505050505050505060405180910390f35b61041760048036036040811015610c2057600080fd5b50803590602001356001600160a01b031661306e565b348015610c4257600080fd5b5061041760048036036020811015610c5957600080fd5b5035613148565b348015610c6c57600080fd5b5061044361319d565b348015610c8157600080fd5b506104436131bb565b348015610c9657600080fd5b5061041760048036036040811015610cad57600080fd5b50803590602001356131c7565b348015610cc657600080fd5b5061047f613252565b348015610cdb57600080fd5b5061041760048036036040811015610cf257600080fd5b506001600160a01b0381351690602001356132b3565b61041761343e565b348015610d1c57600080fd5b5061041760048036036020811015610d3357600080fd5b50356134ec565b348015610d4657600080fd5b5061041760048036036040811015610d5d57600080fd5b506001600160a01b0381351690602001351515613541565b348015610d8157600080fd5b5061044360048036036020811015610d9857600080fd5b50356001600160a01b0316613646565b348015610db457600080fd5b5061041760048036036080811015610dcb57600080fd5b6001600160a01b03823581169260208101359091169160408201359190810190608081016060820135640100000000811115610e0657600080fd5b820183602082011115610e1857600080fd5b80359060200191846001830284011164010000000083111715610e3a57600080fd5b91908080601f0160208091040260200160405190810160405280939291908181526020018383808284376000920191909152509295506136c9945050505050565b348015610e8757600080fd5b5061041760048036036060811015610e9e57600080fd5b506001600160a01b03813581169160208101359091169060400135613727565b348015610eca57600080fd5b506104436138aa565b348015610edf57600080fd5b506104436138b0565b348015610ef457600080fd5b5061047f60048036036020811015610f0b57600080fd5b50356138b6565b348015610f1e57600080fd5b5061044360048036036020811015610f3557600080fd5b5035613b39565b348015610f4857600080fd5b50610443613b4a565b348015610f5d57600080fd5b5061041760048036036040811015610f7457600080fd5b81359190810190604081016020820135640100000000811115610f9657600080fd5b820183602082011115610fa857600080fd5b80359060200191846001830284011164010000000083111715610fca57600080fd5b91908080601f016020809104026020016040519081016040528093929190818152602001838380828437600092019190915250929550613b50945050505050565b34801561101757600080fd5b506105286004803603602081101561102e57600080fd5b5035613b5a565b34801561104157600080fd5b5061090e613b6f565b34801561105657600080fd5b506105286004803603604081101561106d57600080fd5b506001600160a01b0381358116916020013516613c38565b34801561109157600080fd5b50610417600480360360208110156110a857600080fd5b5035613c66565b3480156110bb57600080fd5b50610417600480360360208110156110d257600080fd5b5035613cbb565b3480156110e557600080fd5b506105cf600480360360208110156110fc57600080fd5b5035613d10565b34801561110f57600080fd5b50610417613d2b565b81601360006011838154811061112a57fe5b600091825260208083206008929092029091016005015483528201929092526040019020546001600160a01b031633146111a4576040805162461bcd60e51b81526020600482015260166024820152752a9030b932b713ba103a34329037333a1027bbb732b960511b604482015290519081900360640190fd5b600c5460408051633db1cdbf60e21b8152336004820181905291519192678ac7230489e800009283926001600160a01b039092169163f6c736fc916024808301926020929190829003018186803b1580156111fe57600080fd5b505afa158015611212573d6000803e3d6000fd5b505050506040513d602081101561122857600080fd5b5051101561126e576040805162461bcd60e51b815260206004820152600e60248201526d4e6f7420656e6f75676820554a4760901b604482015290519081900360640190fd5b611280678ac7230489e8000033613d60565b60016011868154811061128f57fe5b906000526020600020906008020160060160006101000a81548160ff02191690831515021790555083601186815481106112c557fe5b6000918252602090912060076008909202010155601f54601180546113139233926001600160a01b0390911691899081106112fc57fe5b906000526020600020906008020160050154613de0565b601f80546001600160a01b039081166000908152601260205260409020805460010190559054601180546000805160206156208339815191529333931691908990811061135c57fe5b906000526020600020906008020160050154678ac7230489e8000060405180856001600160a01b03168152602001846001600160a01b0316815260200183815260200182815260200194505050505060405180910390a15050505050565b602881025b919050565b60606113cf826138b6565b92915050565b6001600160e01b03191660009081526001602052604090205460ff1690565b80601360006011838154811061140657fe5b600091825260208083206008929092029091016005015483528201929092526040019020546001600160a01b03163314611480576040805162461bcd60e51b81526020600482015260166024820152752a9030b932b713ba103a34329037333a1027bbb732b960511b604482015290519081900360640190fd5b816011818154811061148e57fe5b600091825260209091206006600890920201015460ff16156114f3576040805162461bcd60e51b8152602060048201526019602482015278151a194814dd1d59195b9d08185c99481a5b881b585c9ad95d603a1b604482015290519081900360640190fd5b600033905060006011858154811061150757fe5b906000526020600020906008020160050154905061152782600083611af8565b6001600160a01b038216600090815260126020908152604080832080546000190190558383526013909152902080546001600160a01b0319169055601180548690811061157057fe5b60009182526020822060089091020181815560018101829055600281018290559061159e600383018261524f565b5060048101805463ffffffff1916905560006005820181905560068201805460ff191690556007909101556020546115d69033613f2c565b601b805460001901905560208054604080513381526000938101939093528281018490526060830191909152516000805160206156208339815191529181900360800190a15050505050565b80601360006011838154811061163457fe5b600091825260208083206008929092029091016005015483528201929092526040019020546001600160a01b031633146116ae576040805162461bcd60e51b81526020600482015260166024820152752a9030b932b713ba103a34329037333a1027bbb732b960511b604482015290519081900360640190fd5b600c5460408051633db1cdbf60e21b8152336004820181905291519192678ac7230489e800009283926001600160a01b039092169163f6c736fc916024808301926020929190829003018186803b15801561170857600080fd5b505afa15801561171c573d6000803e3d6000fd5b505050506040513d602081101561173257600080fd5b50511015611778576040805162461bcd60e51b815260206004820152600e60248201526d4e6f7420656e6f75676820554a4760901b604482015290519081900360640190fd5b836011818154811061178657fe5b600091825260209091206006600890920201015460ff166117d85760405162461bcd60e51b81526004018080602001828103825260308152602001806154466030913960400191505060405180910390fd5b600060136000601188815481106117eb57fe5b906000526020600020906008020160050154815260200190815260200160002060009054906101000a90046001600160a01b03169050611833678ac7230489e8000082613d60565b601f5460118054611854926001600160a01b03169184918a9081106112fc57fe5b60006011878154811061186357fe5b60009182526020808320600892909202909101600601805460ff191693151593909317909255601f546001600160a01b031681526012909152604090208054600019019055601180546000805160206156208339815191529133918291908a9081106118cb57fe5b906000526020600020906008020160050154678ac7230489e8000060405180856001600160a01b03168152602001846001600160a01b0316815260200183815260200182815260200194505050505060405180910390a1505050505050565b60078054604080516020601f60026000196101006001881615020190951694909404938401819004810282018101909252828152606093909290918301828280156119b65780601f1061198b576101008083540402835291602001916119b6565b820191906000526020600020905b81548152906001019060200180831161199957829003601f168201915b5050505050905090565b60006119cb82613fad565b611a065760405162461bcd60e51b815260040180806020018281038252602c81526020018061554f602c913960400191505060405180910390fd5b506000908152600560205260409020546001600160a01b031690565b6000611a2d826128a5565b9050806001600160a01b0316836001600160a01b03161415611a805760405162461bcd60e51b81526004018080602001828103825260218152602001806155ff6021913960400191505060405180910390fd5b806001600160a01b0316611a92613fba565b6001600160a01b03161480611ab35750611ab381611aae613fba565b613c38565b611aee5760405162461bcd60e51b81526004018080602001828103825260388152602001806154a26038913960400191505060405180910390fd5b611af88383613fbe565b505050565b6000546001600160a01b031690565b6000805b601154811015611b4f5760118181548110611b2757fe5b906000526020600020906008020160050154831415611b475790506113bf565b600101611b10565b50919050565b60185490565b6001600160a01b031660009081526012602052604090205490565b6000611b82600361402c565b905090565b3360118281548110611b9557fe5b600091825260209182902060076008909202010154600c5460408051633db1cdbf60e21b81526001600160a01b038681166004830152915193948594929093169263f6c736fc92602480840193829003018186803b158015611bf657600080fd5b505afa158015611c0a573d6000803e3d6000fd5b505050506040513d6020811015611c2057600080fd5b50511015611c66576040805162461bcd60e51b815260206004820152600e60248201526d4e6f7420656e6f75676820554a4760901b604482015290519081900360640190fd5b8260118181548110611c7457fe5b600091825260209091206006600890920201015460ff16611cc65760405162461bcd60e51b81526004018080602001828103825260308152602001806154466030913960400191505060405180910390fd5b600060118581548110611cd557fe5b906000526020600020906008020160070154905060006013600060118881548110611cfc57fe5b600091825260208083206005600890930201919091015483528201929092526040908101822054600c548251633844b70760e01b815233600482018190526001600160a01b0393841660248301819052604483018990529451949650949190921692633844b70792606480820193929182900301818387803b158015611d8157600080fd5b505af1158015611d95573d6000803e3d6000fd5b50505050600060118881548110611da857fe5b60009182526020822060089190910201600601805460ff1916921515929092179091556011805489908110611dd957fe5b6000918252602090912060076008909202010155601f5460118054611e0e926001600160a01b03169184918b9081106112fc57fe5b601f546001600160a01b03908116600090815260126020526040808220805460001990810190915585841683528183208054909101905591831681529081208054600101905560118054839260139290918b908110611e6957fe5b906000526020600020906008020160050154815260200190815260200160002060006101000a8154816001600160a01b0302191690836001600160a01b03160217905550600080516020615620833981519152818360118a81548110611ecb57fe5b9060005260206000209060080201600501548660405180856001600160a01b03168152602001846001600160a01b0316815260200183815260200182815260200194505050505060405180910390a150505050505050565b60215490565b611f3a611f34613fba565b82614037565b611f755760405162461bcd60e51b81526004018080602001828103825260318152602001806156406031913960400191505060405180910390fd5b611af8838383613de0565b826013600060118381548110611f9257fe5b600091825260208083206008929092029091016005015483528201929092526040019020546001600160a01b0316331461200c576040805162461bcd60e51b81526020600482015260166024820152752a9030b932b713ba103a34329037333a1027bbb732b960511b604482015290519081900360640190fd5b3361201684613b39565b600c5460408051633db1cdbf60e21b81526001600160a01b03858116600483015291518493929092169163f6c736fc91602480820192602092909190829003018186803b15801561206657600080fd5b505afa15801561207a573d6000803e3d6000fd5b505050506040513d602081101561209057600080fd5b505110156120d6576040805162461bcd60e51b815260206004820152600e60248201526d4e6f7420656e6f75676820554a4760901b604482015290519081900360640190fd5b8542601182815481106120e557fe5b600091825260209091206004600890920201015463ffffffff16111561214a576040805162461bcd60e51b815260206004820152601560248201527413195d081c995cdd081e5bdd5c8814dd1d59195b9d605a1b604482015290519081900360640190fd5b866011818154811061215857fe5b600091825260209091206006600890920201015460ff16156121bd576040805162461bcd60e51b8152602060048201526019602482015278151a194814dd1d59195b9d08185c99481a5b881b585c9ad95d603a1b604482015290519081900360640190fd5b600187101580156121cf5750600a8711155b612210576040805162461bcd60e51b815260206004820152600d60248201526c125b9d985b1a590813195d995b609a1b604482015290519081900360640190fd5b60006011898154811061221f57fe5b9060005260206000209060080201600101541161223b57600080fd5b612244866140db565b503360009081526015602052604090205460649006600101612265896141fe565b600061227089613b39565b905061227c8133613d60565b60118a8154811061228957fe5b90600052602060002090600802016001015460118b815481106122a857fe5b9060005260206000209060080201600201548301016122c68a6113ba565b116123cc57600060146122d88b6113ba565b816122df57fe5b0460020290506122ef8b8261424c565b60006122fa8b6126ec565b90506123068133613f2c565b60008c8152601660205260409020805460ff19166001908117909155601180547fc1c89f12581ef4543f5451c1f84ff0ed0bfb24e4a0ae8f507dd335e411d5d05f9291908f90811061235457fe5b90600052602060002090600802016001015460118f8154811061237357fe5b9060005260206000209060080201600201548701016123918e6113ba565b604080519315158452602084019290925282820152606082018590526080820187905260a08201849052519081900360c00190a150506124ae565b6000600a6123d98b6113ba565b816123e057fe5b0460020290506123f08b8261424c565b60008b8152601660205260408120805460ff19169055601180547fc1c89f12581ef4543f5451c1f84ff0ed0bfb24e4a0ae8f507dd335e411d5d05f9291908e90811061243857fe5b90600052602060002090600802016001015460118e8154811061245757fe5b9060005260206000209060080201600201548601016124758d6113ba565b6040805193151584526020840192909252828201526060820184905260808201869052600085900360a0830152519081900360c00190a1505b50505050505050505050565b33806124c4611afd565b6001600160a01b0316146125095760405162461bcd60e51b81526004018080602001828103825260288152602001806153fa6028913960400191505060405180910390fd5b50601755565b601b5490565b600c546040805163a3875caf60e01b81523060048201526024810184905233604482015290516001600160a01b039092169163a3875caf9160648082019260009290919082900301818387803b15801561256e57600080fd5b505af1158015612582573d6000803e3d6000fd5b5050600d8054848103918290556040805182815260208101939093526060838201819052600190840152602d60f81b60808401525190935060008051602061567183398151915292509081900360a00190a15050565b600c5460408051631639a6f160e01b81526004810184905230602482015233604482015290516001600160a01b0390921691631639a6f19160648082019260009290919082900301818387803b15801561263157600080fd5b505af1158015612645573d6000803e3d6000fd5b5050600d8054848101918290556040805182815260208101939093526060838201819052600190840152602b60f81b60808401525190935060008051602061567183398151915292509081900360a00190a15050565b6001600160a01b03821660009081526002602052604081206126bd90836142d2565b9392505050565b6000601182815481106126d357fe5b9060005260206000209060080201600701549050919050565b601a54026801158e460913d000000290565b611af8838383604051806020016040528060008152506136c9565b60606001600160a01b03821661276f576040805162461bcd60e51b81526020600482015260166024820152751059191c995cdcc80c1e0c0b8b8b881a5b9d985b1a5960521b604482015290519081900360640190fd5b6001600160a01b03821660009081526012602052604090205460609067ffffffffffffffff811180156127a157600080fd5b506040519080825280602002602001820160405280156127cb578160200160208202803683370190505b5090506000805b601154811015612825576000818152601360205260409020546001600160a01b038681169116141561281d578083838151811061280b57fe5b60209081029190910101526001909101905b6001016127d2565b50909392505050565b60008061283c6003846142de565b509392505050565b338061284e611afd565b6001600160a01b0316146128935760405162461bcd60e51b81526004018080602001828103825260288152602001806153fa6028913960400191505060405180910390fd5b50601855565b60195490565b60175490565b60006113cf8260405180606001604052806029815260200161550460299139600391906142fa565b33806128d7611afd565b6001600160a01b03161461291c5760405162461bcd60e51b81526004018080602001828103825260288152602001806153fa6028913960400191505060405180910390fd5b50600c80546001600160a01b0319166001600160a01b0392909216919091179055565b600a8054604080516020601f60026000196101006001881615020190951694909404938401819004810282018101909252828152606093909290918301828280156119b65780601f1061198b576101008083540402835291602001916119b6565b600d5490565b670de0b6b3a7640000828202043410156129bf57600080fd5b600c5460408051633844b70760e01b81523060048201523360248201526044810185905290516001600160a01b0390921691633844b7079160648082019260009290919082900301818387803b158015612a1857600080fd5b505af1158015612a2c573d6000803e3d6000fd5b5050601e8054340190555050600d8054839003905560408051338152306020820152808201849052670de0b6b3a764000083850204606082015290517f14e1d5b6fd685abd8451960a2579c435ba7a639ec0a19fa1941e72a9f66522859181900360800190a15050565b60006001600160a01b038216612add5760405162461bcd60e51b815260040180806020018281038252602a8152602001806154da602a913960400191505060405180910390fd5b6001600160a01b03821660009081526002602052604090206113cf9061402c565b601754600c5460408051633db1cdbf60e21b81523360048201819052915191939283926001600160a01b039091169163f6c736fc916024808301926020929190829003018186803b158015612b5257600080fd5b505afa158015612b66573d6000803e3d6000fd5b505050506040513d6020811015612b7c57600080fd5b50511015612bc2576040805162461bcd60e51b815260206004820152600e60248201526d4e6f7420656e6f75676820554a4760901b604482015290519081900360640190fd5b612bce60175433613d60565b600f54612bd9615296565b612be38286614307565b336000818152601260209081526040808320805460010190558683526013909152902080546001600160a01b03191682179055909150612c239083614588565b601b8054600101905560608082015182516020808501516040808701518151808501869052918201839052958101869052608080825285519082015284517f319ec0c4f5923a08e9d5fb646ddf9c5ee3d502e7a45118f7ea3ba28312bb55d7969293829160a083019188019080838360005b83811015612cad578181015183820152602001612c95565b50505050905090810190601f168015612cda5780820380516001836020036101000a031916815260200191505b509550505050505060405180910390a15050505050565b600c5460408051633db1cdbf60e21b8152336004820181905291519192859283926001600160a01b039092169163f6c736fc916024808301926020929190829003018186803b158015612d4357600080fd5b505afa158015612d57573d6000803e3d6000fd5b505050506040513d6020811015612d6d57600080fd5b50511015612db3576040805162461bcd60e51b815260206004820152600e60248201526d4e6f7420656e6f75676820554a4760901b604482015290519081900360640190fd5b670de0b6b3a764000084840204612dca8533613d60565b604051339082156108fc029083906000818181858888f19350505050158015612df7573d6000803e3d6000fd5b50601e80548290039055600d80548601905560408051308152336020820152808201879052670de0b6b3a764000086880204606082015290517f14e1d5b6fd685abd8451960a2579c435ba7a639ec0a19fa1941e72a9f66522859181900360800190a15050505050565b3380612e6b611afd565b6001600160a01b031614612eb05760405162461bcd60e51b81526004018080602001828103825260288152602001806153fa6028913960400191505060405180910390fd5b50600e805463ffffffff191663ffffffff92909216919091179055565b60008060006060600080600060118881548110612ee657fe5b90600052602060002090600802016000015460118981548110612f0557fe5b90600052602060002090600802016001015460118a81548110612f2457fe5b90600052602060002090600802016002015460118b81548110612f4357fe5b906000526020600020906008020160030160118c81548110612f6157fe5b906000526020600020906008020160040160009054906101000a900463ffffffff1660118d81548110612f9057fe5b90600052602060002090600802016005015460118e81548110612faf57fe5b600091825260209182902060066008909202010154845460408051601f6002600019600186161561010002019094169390930492830185900485028101850190915281815260ff9092169286919083018282801561304e5780601f106130235761010080835404028352916020019161304e565b820191906000526020600020905b81548152906001019060200180831161303157829003601f168201915b505050505093509650965096509650965096509650919395979092949650565b3380613078611afd565b6001600160a01b0316146130bd5760405162461bcd60e51b81526004018080602001828103825260288152602001806153fa6028913960400191505060405180910390fd5b6040516001600160a01b0383169084156108fc029085906000818181858888f193505050501580156130f3573d6000803e3d6000fd5b50601e8054848103918290556040805182815260208101939093526060838201819052600190840152602d60f81b6080840152519091600080516020615671833981519152919081900360a00190a150505050565b3380613152611afd565b6001600160a01b0316146131975760405162461bcd60e51b81526004018080602001828103825260288152602001806153fa6028913960400191505060405180910390fd5b50602055565b601f546001600160a01b031660009081526012602052604090205490565b600e5463ffffffff1690565b336001600160a01b037f00000000000000000000000000000000000000000000000000000000000000001614613244576040805162461bcd60e51b815260206004820152601f60248201527f4f6e6c7920565246436f6f7264696e61746f722063616e2066756c66696c6c00604482015290519081900360640190fd5b61324e82826145a2565b5050565b60088054604080516020601f60026000196101006001881615020190951694909404938401819004810282018101909252828152606093909290918301828280156119b65780601f1061198b576101008083540402835291602001916119b6565b600c5460408051633db1cdbf60e21b8152336004820181905291519192849283926001600160a01b039092169163f6c736fc916024808301926020929190829003018186803b15801561330557600080fd5b505afa158015613319573d6000803e3d6000fd5b505050506040513d602081101561332f57600080fd5b50511015613375576040805162461bcd60e51b815260206004820152600e60248201526d4e6f7420656e6f75676820554a4760901b604482015290519081900360640190fd5b600c5460408051633844b70760e01b81523360048201526001600160a01b0387811660248301526044820187905291519190921691633844b70791606480830192600092919082900301818387803b1580156133d057600080fd5b505af11580156133e4573d6000803e3d6000fd5b5050604080513381526001600160a01b03881660208201528082018790526000606082015290517f14e1d5b6fd685abd8451960a2579c435ba7a639ec0a19fa1941e72a9f66522859350908190036080019150a150505050565b3380613448611afd565b6001600160a01b03161461348d5760405162461bcd60e51b81526004018080602001828103825260288152602001806153fa6028913960400191505060405180910390fd5b6000341161349a57600080fd5b601e8054348101918290556040805182815260208101939093526060838201819052600190840152602b60f81b6080840152519091600080516020615671833981519152919081900360a00190a15050565b33806134f6611afd565b6001600160a01b03161461353b5760405162461bcd60e51b81526004018080602001828103825260288152602001806153fa6028913960400191505060405180910390fd5b50601a55565b613549613fba565b6001600160a01b0316826001600160a01b031614156135af576040805162461bcd60e51b815260206004820152601960248201527f4552433732313a20617070726f766520746f2063616c6c657200000000000000604482015290519081900360640190fd5b80600660006135bc613fba565b6001600160a01b03908116825260208083019390935260409182016000908120918716808252919093529120805460ff191692151592909217909155613600613fba565b6001600160a01b03167f17307eab39ab6107e8899845ad3d59bd9653f200f220920489ca2b5937696c318360405180821515815260200191505060405180910390a35050565b600c5460408051633db1cdbf60e21b81526001600160a01b0384811660048301529151600093929092169163f6c736fc91602480820192602092909190829003018186803b15801561369757600080fd5b505afa1580156136ab573d6000803e3d6000fd5b505050506040513d60208110156136c157600080fd5b505192915050565b6136da6136d4613fba565b83614037565b6137155760405162461bcd60e51b81526004018080602001828103825260318152602001806156406031913960400191505060405180910390fd5b613721848484846145ca565b50505050565b80601360006011838154811061373957fe5b600091825260208083206008929092029091016005015483528201929092526040019020546001600160a01b031633146137b3576040805162461bcd60e51b81526020600482015260166024820152752a9030b932b713ba103a34329037333a1027bbb732b960511b604482015290519081900360640190fd5b81601181815481106137c157fe5b600091825260209091206006600890920201015460ff1615613826576040805162461bcd60e51b8152602060048201526019602482015278151a194814dd1d59195b9d08185c99481a5b881b585c9ad95d603a1b604482015290519081900360640190fd5b60006011848154811061383557fe5b906000526020600020906008020160050154905061385560215433613d60565b61386086868361461c565b602154604080516001600160a01b03808a168252881660208201528082018490526060810192909252516000805160206156208339815191529181900360800190a1505050505050565b60205490565b601a5490565b60606138c182613fad565b6138fc5760405162461bcd60e51b815260040180806020018281038252602f8152602001806155d0602f913960400191505060405180910390fd5b60008281526009602090815260409182902080548351601f60026000196101006001861615020190931692909204918201849004840281018401909452808452606093928301828280156139915780601f1061396657610100808354040283529160200191613991565b820191906000526020600020905b81548152906001019060200180831161397457829003601f168201915b5050505050905060606139a261293f565b90508051600014156139b6575090506113bf565b815115613a775780826040516020018083805190602001908083835b602083106139f15780518252601f1990920191602091820191016139d2565b51815160209384036101000a600019018019909216911617905285519190930192850191508083835b60208310613a395780518252601f199092019160209182019101613a1a565b6001836020036101000a03801982511681845116808217855250505050505090500192505050604051602081830303815290604052925050506113bf565b80613a8185614679565b6040516020018083805190602001908083835b60208310613ab35780518252601f199092019160209182019101613a94565b51815160209384036101000a600019018019909216911617905285519190930192850191508083835b60208310613afb5780518252601f199092019160209182019101613adc565b6001836020036101000a0380198251168184511680821785525050505050509050019250505060405160208183030381529060405292505050919050565b60195402678ac7230489e800000290565b601e5490565b61324e8282614754565b60009081526016602052604090205460ff1690565b601f546001600160a01b0316600090815260126020526040902054606090819067ffffffffffffffff81118015613ba557600080fd5b50604051908082528060200260200182016040528015613bcf578160200160208202803683370190505b5090506000805b601154811015613c305760118181548110613bed57fe5b600091825260209091206006600890920201015460ff1615613c285780838381518110613c1657fe5b60209081029190910101526001909101905b600101613bd6565b509091505090565b6001600160a01b03918216600090815260066020908152604080832093909416825291909152205460ff1690565b3380613c70611afd565b6001600160a01b031614613cb55760405162461bcd60e51b81526004018080602001828103825260288152602001806153fa6028913960400191505060405180910390fd5b50601955565b3380613cc5611afd565b6001600160a01b031614613d0a5760405162461bcd60e51b81526004018080602001828103825260288152602001806153fa6028913960400191505060405180910390fd5b50602155565b6000908152601360205260409020546001600160a01b031690565b6040805147815290517f9eda563474dcf999b0332c34dedb9066a385693682ea01c43234fa4e95668a0e9181900360200190a1565b600c5460408051633844b70760e01b81526001600160a01b0384811660048301523060248301526044820186905291519190921691633844b70791606480830192600092919082900301818387803b158015613dbb57600080fd5b505af1158015613dcf573d6000803e3d6000fd5b5050600d8054909401909355505050565b826001600160a01b0316613df3826128a5565b6001600160a01b031614613e385760405162461bcd60e51b81526004018080602001828103825260298152602001806155a76029913960400191505060405180910390fd5b6001600160a01b038216613e7d5760405162461bcd60e51b81526004018080602001828103825260248152602001806154226024913960400191505060405180910390fd5b613e88838383611af8565b613e93600082613fbe565b6001600160a01b0383166000908152600260205260409020613eb590826147b7565b506001600160a01b0382166000908152600260205260409020613ed890826147c3565b50613ee5600382846147cf565b5080826001600160a01b0316846001600160a01b03167fddf252ad1be2c89b69c2b068fc378daa952ba7f163c4a11628f55a4df523b3ef60405160405180910390a4505050565b600c5460408051633844b70760e01b81523060048201526001600160a01b0384811660248301526044820186905291519190921691633844b70791606480830192600092919082900301818387803b158015613f8757600080fd5b505af1158015613f9b573d6000803e3d6000fd5b5050600d805494909403909355505050565b60006113cf6003836147e5565b3390565b600081815260056020526040902080546001600160a01b0319166001600160a01b0384169081179091558190613ff3826128a5565b6001600160a01b03167f8c5be1e5ebec7d5bd14f71427d1e84f3dd0314c0f7b2291e5b200ac8c7c3b92560405160405180910390a45050565b60006113cf826147f1565b600061404282613fad565b61407d5760405162461bcd60e51b815260040180806020018281038252602c815260200180615476602c913960400191505060405180910390fd5b6000614088836128a5565b9050806001600160a01b0316846001600160a01b031614806140c35750836001600160a01b03166140b8846119c0565b6001600160a01b0316145b806140d357506140d38185613c38565b949350505050565b6000601d547f00000000000000000000000000000000000000000000000000000000000000006001600160a01b03166370a08231306040518263ffffffff1660e01b815260040180826001600160a01b0316815260200191505060206040518083038186803b15801561414d57600080fd5b505afa158015614161573d6000803e3d6000fd5b505050506040513d602081101561417757600080fd5b505110156141b65760405162461bcd60e51b815260040180806020018281038252602f8152602001806153cb602f913960400191505060405180910390fd5b60006141c6601c54601d546147f5565b600081815260146020908152604080832080546001600160a01b03191633908117909155835260159091529020849055915050919050565b600e546011805463ffffffff9092164201918390811061421a57fe5b906000526020600020906008020160040160006101000a81548163ffffffff021916908363ffffffff16021790555050565b601854810290506000816011848154811061426357fe5b9060005260206000209060080201600101540310156142a55760006011838154811061428b57fe5b90600052602060002090600802016001018190555061324e565b80601183815481106142b357fe5b6000918252602090912060016008909202010180549190910390555050565b60006126bd83836149a0565b60008080806142ed8686614a04565b9097909650945050505050565b60006140d3848484614a7f565b61430f615296565b614318826140db565b50336000908152601560205260408120549060016003830681019190821415614348575060016064830601614367565b816002141561435e575060656064830601614367565b5060c960648306015b6001606460028502060160606010601986068154811061438357fe5b600091825260209182902001805460408051601f60026000196101006001871615020190941693909304928301859004850281018501909152818152928301828280156144115780601f106143e657610100808354040283529160200191614411565b820191906000526020600020905b8154815290600101906020018083116143f457829003601f168201915b50505050509050614420615296565b5060408051610100810182528581526020808201868152928201858152606083018581524263ffffffff16608085015260a084018d9052600060c0850181905260e0850181905260118054600181018255915284517f31ecc21a745e3968a04e9570e4425bc18fa8019c68028196b546d1669c200c68600890920291820190815595517f31ecc21a745e3968a04e9570e4425bc18fa8019c68028196b546d1669c200c6982015591517f31ecc21a745e3968a04e9570e4425bc18fa8019c68028196b546d1669c200c6a830155518051939485949093614524937f31ecc21a745e3968a04e9570e4425bc18fa8019c68028196b546d1669c200c6b019201906152e3565b50608082015160048201805463ffffffff191663ffffffff90921691909117905560a0820151600582015560c082015160068201805460ff191691151591909117905560e090910151600790910155600f8054600101905598975050505050505050565b61324e828260405180602001604052806000815250614b49565b6000918252601460209081526040808420546001600160a01b03168452601590915290912055565b6145d5848484613de0565b6145e184848484614b9b565b6137215760405162461bcd60e51b81526004018080602001828103825260328152602001806153996032913960400191505060405180910390fd5b614627838383613de0565b6001600160a01b039283166000908152601260209081526040808320805460001901905593909416808252838220805460010190559181526013909352912080546001600160a01b0319169091179055565b60608161469e57506040805180820190915260018152600360fc1b60208201526113bf565b8160005b81156146b657600101600a820491506146a2565b60608167ffffffffffffffff811180156146cf57600080fd5b506040519080825280601f01601f1916602001820160405280156146fa576020820181803683370190505b50859350905060001982015b831561474b57600a840660300160f81b8282806001900393508151811061472957fe5b60200101906001600160f81b031916908160001a905350600a84049350614706565b50949350505050565b61475d82613fad565b6147985760405162461bcd60e51b815260040180806020018281038252602c81526020018061557b602c913960400191505060405180910390fd5b60008281526009602090815260409091208251611af8928401906152e3565b60006126bd8383614d03565b60006126bd8383614dc9565b60006140d384846001600160a01b038516614e13565b60006126bd8383614eaa565b5490565b60007f00000000000000000000000000000000000000000000000000000000000000006001600160a01b0316634000aea07f00000000000000000000000000000000000000000000000000000000000000008486600060405160200180838152602001828152602001925050506040516020818303038152906040526040518463ffffffff1660e01b815260040180846001600160a01b0316815260200183815260200180602001828103825283818151815260200191508051906020019080838360005b838110156148d25781810151838201526020016148ba565b50505050905090810190601f1680156148ff5780820380516001836020036101000a031916815260200191505b50945050505050602060405180830381600087803b15801561492057600080fd5b505af1158015614934573d6000803e3d6000fd5b505050506040513d602081101561494a57600080fd5b50506000838152600b602052604081205461496a90859083903090614ec2565b6000858152600b6020526040902054909150614987906001614f09565b6000858152600b60205260409020556140d38482614f63565b815460009082106149e25760405162461bcd60e51b81526004018080602001828103825260228152602001806153776022913960400191505060405180910390fd5b8260000182815481106149f157fe5b9060005260206000200154905092915050565b815460009081908310614a485760405162461bcd60e51b815260040180806020018281038252602281526020018061552d6022913960400191505060405180910390fd5b6000846000018481548110614a5957fe5b906000526020600020906002020190508060000154816001015492509250509250929050565b60008281526001840160205260408120548281614b1a5760405162461bcd60e51b81526004018080602001828103825283818151815260200191508051906020019080838360005b83811015614adf578181015183820152602001614ac7565b50505050905090810190601f168015614b0c5780820380516001836020036101000a031916815260200191505b509250505060405180910390fd5b50846000016001820381548110614b2d57fe5b9060005260206000209060020201600101549150509392505050565b614b538383614f8f565b614b606000848484614b9b565b611af85760405162461bcd60e51b81526004018080602001828103825260328152602001806153996032913960400191505060405180910390fd5b6000614baf846001600160a01b03166150bd565b614bbb575060016140d3565b6060614cc9630a85bd0160e11b614bd0613fba565b88878760405160240180856001600160a01b03168152602001846001600160a01b0316815260200183815260200180602001828103825283818151815260200191508051906020019080838360005b83811015614c37578181015183820152602001614c1f565b50505050905090810190601f168015614c645780820380516001836020036101000a031916815260200191505b5095505050505050604051602081830303815290604052906001600160e01b0319166020820180516001600160e01b038381831617835250505050604051806060016040528060328152602001615399603291396001600160a01b03881691906150c3565b90506000818060200190516020811015614ce257600080fd5b50516001600160e01b031916630a85bd0160e11b1492505050949350505050565b60008181526001830160205260408120548015614dbf5783546000198083019190810190600090879083908110614d3657fe5b9060005260206000200154905080876000018481548110614d5357fe5b600091825260208083209091019290925582815260018981019092526040902090840190558654879080614d8357fe5b600190038181906000526020600020016000905590558660010160008781526020019081526020016000206000905560019450505050506113cf565b60009150506113cf565b6000614dd58383614eaa565b614e0b575081546001818101845560008481526020808220909301849055845484825282860190935260409020919091556113cf565b5060006113cf565b600082815260018401602052604081205480614e785750506040805180820182528381526020808201848152865460018181018955600089815284812095516002909302909501918255915190820155865486845281880190925292909120556126bd565b82856000016001830381548110614e8b57fe5b90600052602060002090600202016001018190555060009150506126bd565b60009081526001919091016020526040902054151590565b60408051602080820196909652808201949094526001600160a01b039290921660608401526080808401919091528151808403909101815260a09092019052805191012090565b6000828201838110156126bd576040805162461bcd60e51b815260206004820152601b60248201527f536166654d6174683a206164646974696f6e206f766572666c6f770000000000604482015290519081900360640190fd5b604080516020808201949094528082019290925280518083038201815260609092019052805191012090565b6001600160a01b038216614fea576040805162461bcd60e51b815260206004820181905260248201527f4552433732313a206d696e7420746f20746865207a65726f2061646472657373604482015290519081900360640190fd5b614ff381613fad565b15615045576040805162461bcd60e51b815260206004820152601c60248201527f4552433732313a20746f6b656e20616c7265616479206d696e74656400000000604482015290519081900360640190fd5b61505160008383611af8565b6001600160a01b038216600090815260026020526040902061507390826147c3565b50615080600382846147cf565b5060405181906001600160a01b038416906000907fddf252ad1be2c89b69c2b068fc378daa952ba7f163c4a11628f55a4df523b3ef908290a45050565b3b151590565b60606140d38484600085856150d7856150bd565b615128576040805162461bcd60e51b815260206004820152601d60248201527f416464726573733a2063616c6c20746f206e6f6e2d636f6e7472616374000000604482015290519081900360640190fd5b60006060866001600160a01b031685876040518082805190602001908083835b602083106151675780518252601f199092019160209182019101615148565b6001836020036101000a03801982511681845116808217855250505050505090500191505060006040518083038185875af1925050503d80600081146151c9576040519150601f19603f3d011682016040523d82523d6000602084013e6151ce565b606091505b50915091506151de8282866151e9565b979650505050505050565b606083156151f85750816126bd565b8251156152085782518084602001fd5b60405162461bcd60e51b8152602060048201818152845160248401528451859391928392604401919085019080838360008315614adf578181015183820152602001614ac7565b50805460018160011615610100020316600290046000825580601f106152755750615293565b601f0160209004906000526020600020908101906152939190615361565b50565b60405180610100016040528060008152602001600081526020016000815260200160608152602001600063ffffffff16815260200160008152602001600015158152602001600081525090565b828054600181600116156101000203166002900490600052602060002090601f016020900481019282601f1061532457805160ff1916838001178555615351565b82800160010185558215615351579182015b82811115615351578251825591602001919060010190615336565b5061535d929150615361565b5090565b5b8082111561535d576000815560010161536256fe456e756d657261626c655365743a20696e646578206f7574206f6620626f756e64734552433732313a207472616e7366657220746f206e6f6e20455243373231526563656976657220696d706c656d656e7465724e6f7420656e6f756768204c494e4b202d2066696c6c2074686520636f6e74726163742077697468206661756365744f574e45523a2043616c6c6572206172656e60742074686520436f6e7472616374204f776e6572214552433732313a207472616e7366657220746f20746865207a65726f2061646472657373546865206e66742063616e20626520666f756e64206f72206e6f742065786973742c20747279206c61747465722e2e2e4552433732313a206f70657261746f7220717565727920666f72206e6f6e6578697374656e7420746f6b656e4552433732313a20617070726f76652063616c6c6572206973206e6f74206f776e6572206e6f7220617070726f76656420666f7220616c6c4552433732313a2062616c616e636520717565727920666f7220746865207a65726f20616464726573734552433732313a206f776e657220717565727920666f72206e6f6e6578697374656e7420746f6b656e456e756d657261626c654d61703a20696e646578206f7574206f6620626f756e64734552433732313a20617070726f76656420717565727920666f72206e6f6e6578697374656e7420746f6b656e4552433732314d657461646174613a2055524920736574206f66206e6f6e6578697374656e7420746f6b656e4552433732313a207472616e73666572206f6620746f6b656e2074686174206973206e6f74206f776e4552433732314d657461646174613a2055524920717565727920666f72206e6f6e6578697374656e7420746f6b656e4552433732313a20617070726f76616c20746f2063757272656e74206f776e6572cecf7e435a08b451f0ce02c43069cc2ffe387ec6bea07d3bd3e43ebe9cb915bd4552433732313a207472616e736665722063616c6c6572206973206e6f74206f776e6572206e6f7220617070726f7665647a46268aef02ff13d6a04b832185b855ad147f2d24759aca7f8723a60eecf72ca2646970667358221220580293bccc5d2c89b0844f1949648e11a7a3f9e7f1518f6a2c1c7b2d45445ba364736f6c634300060c0033","bytecodeSha1":"16dfd91d6ea5c95ccedd0c270db559d4361aa936","type":"contract","abi":[{"inputs":[{"internalType":"address","name":"_VRFCoordinator","type":"address"},{"internalType":"address","name":"_linkToken","type":"address"},{"internalType":"bytes32","name":"_keyhash","type":"bytes32"},{"internalType":"address","name":"_tokenAddress","type":"address"},{"internalType":"uint256","name":"_nftPrice","type":"uint256"},{"internalType":"uint256","name":"_wearMultiplicator","type":"uint256"},{"internalType":"uint256","name":"_attackMultiplicator","type":"uint256"},{"internalType":"uint256","name":"_rewardPriceMultiplicator","type":"uint256"},{"internalType":"uint256","name":"tokenPool","type":"uint256"},{"internalType":"uint256","name":"burnReward","type":"uint256"},{"internalType":"uint256","name":"transferPrice","type":"uint256"}],"stateMutability":"nonpayable","type":"constructor","name":"constructor"},{"anonymous":false,"inputs":[{"indexed":true,"internalType":"address","name":"owner","type":"address"},{"indexed":true,"internalType":"address","name":"approved","type":"address"},{"indexed":true,"internalType":"uint256","name":"tokenId","type":"uint256"}],"name":"Approval","type":"event"},{"anonymous":false,"inputs":[{"indexed":true,"internalType":"address","name":"owner","type":"address"},{"indexed":true,"internalType":"address","name":"operator","type":"address"},{"indexed":false,"internalType":"bool","name":"approved","type":"bool"}],"name":"ApprovalForAll","type":"event"},{"anonymous":false,"inputs":[{"indexed":false,"internalType":"uint256","name":"balance","type":"uint256"}],"name":"ContractBalance","type":"event"},{"anonymous":false,"inputs":[{"indexed":false,"internalType":"uint256","name":"bef","type":"uint256"},{"indexed":false,"internalType":"uint256","name":"aft","type":"uint256"},{"indexed":false,"internalType":"string","name":"operation","type":"string"}],"name":"MarketTokenOwnerContract","type":"event"},{"anonymous":false,"inputs":[{"indexed":false,"internalType":"string","name":"name","type":"string"},{"indexed":false,"internalType":"uint256","name":"level","type":"uint256"},{"indexed":false,"internalType":"uint256","name":"intelligenceLevel","type":"uint256"},{"indexed":false,"internalType":"uint256","name":"cheatLevel","type":"uint256"}],"name":"NftCreated","type":"event"},{"anonymous":false,"inputs":[{"indexed":false,"internalType":"address","name":"from","type":"address"},{"indexed":false,"internalType":"address","name":"to","type":"address"},{"indexed":false,"internalType":"uint256","name":"nftId","type":"uint256"},{"indexed":false,"internalType":"uint256","name":"amount","type":"uint256"}],"name":"NftOperation","type":"event"},{"anonymous":false,"inputs":[{"indexed":false,"internalType":"bool","name":"win","type":"bool"},{"indexed":false,"internalType":"uint256","name":"powerCharacter","type":"uint256"},{"indexed":false,"internalType":"uint256","name":"powerLevel","type":"uint256"},{"indexed":false,"internalType":"uint256","name":"wear","type":"uint256"},{"indexed":false,"internalType":"uint256","name":"roll","type":"uint256"},{"indexed":false,"internalType":"uint256","name":"reward","type":"uint256"}],"name":"ResultAttack","type":"event"},{"anonymous":false,"inputs":[{"indexed":false,"internalType":"address","name":"from","type":"address"},{"indexed":false,"internalType":"address","name":"to","type":"address"},{"indexed":false,"internalType":"uint256","name":"amount","type":"uint256"},{"indexed":false,"internalType":"uint256","name":"etherPrice","type":"uint256"}],"name":"TokenOperation","type":"event"},{"anonymous":false,"inputs":[{"indexed":true,"internalType":"address","name":"from","type":"address"},{"indexed":true,"internalType":"address","name":"to","type":"address"},{"indexed":true,"internalType":"uint256","name":"tokenId","type":"uint256"}],"name":"Transfer","type":"event"},{"inputs":[{"internalType":"uint256","name":"studentIndex","type":"uint256"},{"internalType":"uint256","name":"levelNumber","type":"uint256"},{"internalType":"uint256","name":"random","type":"uint256"}],"name":"Attack","outputs":[],"stateMutability":"nonpayable","type":"function"},{"inputs":[{"internalType":"uint256","name":"studentIndex","type":"uint256"}],"name":"BurnNft","outputs":[],"stateMutability":"nonpayable","type":"function"},{"inputs":[{"internalType":"uint256","name":"amount","type":"uint256"}],"name":"BurnTokens","outputs":[],"stateMutability":"nonpayable","type":"function"},{"inputs":[{"internalType":"uint256","name":"studentIndex","type":"uint256"}],"name":"BuyMarket","outputs":[],"stateMutability":"nonpayable","type":"function"},{"inputs":[{"internalType":"uint256","name":"amount","type":"uint256"},{"internalType":"uint256","name":"price","type":"uint256"}],"name":"BuyToken","outputs":[],"stateMutability":"payable","type":"function"},{"inputs":[{"internalType":"uint256","name":"random","type":"uint256"}],"name":"CreateNftStudent","outputs":[],"stateMutability":"nonpayable","type":"function"},{"inputs":[],"name":"GetAttackPriceMultiplicator","outputs":[{"internalType":"uint256","name":"","type":"uint256"}],"stateMutability":"view","type":"function"},{"inputs":[],"name":"GetBurnReward","outputs":[{"internalType":"uint256","name":"","type":"uint256"}],"stateMutability":"view","type":"function"},{"inputs":[],"name":"GetContractBalance","outputs":[],"stateMutability":"nonpayable","type":"function"},{"inputs":[],"name":"GetCoolDownTime","outputs":[{"internalType":"uint256","name":"","type":"uint256"}],"stateMutability":"view","type":"function"},{"inputs":[],"name":"GetLiquidityPool","outputs":[{"internalType":"uint256","name":"","type":"uint256"}],"stateMutability":"view","type":"function"},{"inputs":[],"name":"GetNftPrice","outputs":[{"internalType":"uint256","name":"","type":"uint256"}],"stateMutability":"view","type":"function"},{"inputs":[{"internalType":"address","name":"account","type":"address"}],"name":"GetNumbersNft","outputs":[{"internalType":"uint256","name":"","type":"uint256"}],"stateMutability":"view","type":"function"},{"inputs":[{"internalType":"uint256","name":"studentIndex","type":"uint256"}],"name":"GetOutMarket","outputs":[],"stateMutability":"nonpayable","type":"function"},{"inputs":[],"name":"GetOwner","outputs":[{"internalType":"address","name":"","type":"address"}],"stateMutability":"view","type":"function"},{"inputs":[{"internalType":"uint256","name":"level","type":"uint256"}],"name":"GetPowerLevel","outputs":[{"internalType":"uint256","name":"","type":"uint256"}],"stateMutability":"view","type":"function"},{"inputs":[],"name":"GetRewardMultiplicator","outputs":[{"internalType":"uint256","name":"","type":"uint256"}],"stateMutability":"view","type":"function"},{"inputs":[{"internalType":"uint256","name":"id","type":"uint256"}],"name":"GetStudentIndexById","outputs":[{"internalType":"uint256","name":"","type":"uint256"}],"stateMutability":"view","type":"function"},{"inputs":[{"internalType":"uint256","name":"studentIndex","type":"uint256"}],"name":"GetStudentInfo","outputs":[{"internalType":"uint256","name":"","type":"uint256"},{"internalType":"uint256","name":"","type":"uint256"},{"internalType":"uint256","name":"","type":"uint256"},{"internalType":"string","name":"","type":"string"},{"internalType":"uint32","name":"","type":"uint32"},{"internalType":"uint256","name":"","type":"uint256"},{"internalType":"bool","name":"","type":"bool"}],"stateMutability":"view","type":"function"},{"inputs":[{"internalType":"uint256","name":"studentIndex","type":"uint256"}],"name":"GetStudentPrice","outputs":[{"internalType":"uint256","name":"","type":"uint256"}],"stateMutability":"view","type":"function"},{"inputs":[{"internalType":"address","name":"owner","type":"address"}],"name":"GetStudentsByOwner","outputs":[{"internalType":"uint256[]","name":"","type":"uint256[]"}],"stateMutability":"view","type":"function"},{"inputs":[],"name":"GetStudentsInMarket","outputs":[{"internalType":"uint256[]","name":"","type":"uint256[]"}],"stateMutability":"view","type":"function"},{"inputs":[],"name":"GetTokenPool","outputs":[{"internalType":"uint256","name":"","type":"uint256"}],"stateMutability":"view","type":"function"},{"inputs":[{"internalType":"uint256","name":"studentId","type":"uint256"}],"name":"GetTokenURI","outputs":[{"internalType":"string","name":"","type":"string"}],"stateMutability":"view","type":"function"},{"inputs":[{"internalType":"uint256","name":"level","type":"uint256"}],"name":"GetTotalAttackPrice","outputs":[{"internalType":"uint256","name":"","type":"uint256"}],"stateMutability":"view","type":"function"},{"inputs":[],"name":"GetTotalNftInGame","outputs":[{"internalType":"uint256","name":"","type":"uint256"}],"stateMutability":"view","type":"function"},{"inputs":[],"name":"GetTotalNftInMarket","outputs":[{"internalType":"uint256","name":"","type":"uint256"}],"stateMutability":"view","type":"function"},{"inputs":[],"name":"GetTransferPrice","outputs":[{"internalType":"uint256","name":"","type":"uint256"}],"stateMutability":"view","type":"function"},{"inputs":[],"name":"GetWearMultiplicator","outputs":[{"internalType":"uint256","name":"","type":"uint256"}],"stateMutability":"view","type":"function"},{"inputs":[{"internalType":"uint256","name":"amount","type":"uint256"}],"name":"MintTokens","outputs":[],"stateMutability":"nonpayable","type":"function"},{"inputs":[{"internalType":"uint256","name":"nftId","type":"uint256"}],"name":"NftToOwner","outputs":[{"internalType":"address","name":"","type":"address"}],"stateMutability":"view","type":"function"},{"inputs":[{"internalType":"uint256","name":"studentIndex","type":"uint256"},{"internalType":"uint256","name":"price","type":"uint256"}],"name":"PutInMarket","outputs":[],"stateMutability":"nonpayable","type":"function"},{"inputs":[{"internalType":"uint256","name":"level","type":"uint256"}],"name":"Reward","outputs":[{"internalType":"uint256","name":"","type":"uint256"}],"stateMutability":"view","type":"function"},{"inputs":[{"internalType":"uint256","name":"id","type":"uint256"}],"name":"SeeWin","outputs":[{"internalType":"bool","name":"","type":"bool"}],"stateMutability":"view","type":"function"},{"inputs":[{"internalType":"uint256","name":"amount","type":"uint256"},{"internalType":"uint256","name":"price","type":"uint256"}],"name":"SellToken","outputs":[],"stateMutability":"payable","type":"function"},{"inputs":[{"internalType":"uint256","name":"newAttackMultiplicator","type":"uint256"}],"name":"SetAttackPriceMultiplicator","outputs":[],"stateMutability":"nonpayable","type":"function"},{"inputs":[{"internalType":"uint256","name":"newBurnReward","type":"uint256"}],"name":"SetBurnReward","outputs":[],"stateMutability":"nonpayable","type":"function"},{"inputs":[{"internalType":"uint32","name":"coolDownTime","type":"uint32"}],"name":"SetCoolDownTime","outputs":[],"stateMutability":"nonpayable","type":"function"},{"inputs":[{"internalType":"uint256","name":"newNftPrice","type":"uint256"}],"name":"SetNftPrice","outputs":[],"stateMutability":"nonpayable","type":"function"},{"inputs":[{"internalType":"uint256","name":"newRewardMultiplicator","type":"uint256"}],"name":"SetRewardMultiplicator","outputs":[],"stateMutability":"nonpayable","type":"function"},{"inputs":[{"internalType":"address","name":"newAddress","type":"address"}],"name":"SetTokenERC20Address","outputs":[],"stateMutability":"nonpayable","type":"function"},{"inputs":[{"internalType":"uint256","name":"studentId","type":"uint256"},{"internalType":"string","name":"tokenURI","type":"string"}],"name":"SetTokenURI","outputs":[],"stateMutability":"nonpayable","type":"function"},{"inputs":[{"internalType":"uint256","name":"newTransferPrice","type":"uint256"}],"name":"SetTransferPrice","outputs":[],"stateMutability":"nonpayable","type":"function"},{"inputs":[{"internalType":"uint256","name":"newWearMultiplicator","type":"uint256"}],"name":"SetWearMultiplicator","outputs":[],"stateMutability":"nonpayable","type":"function"},{"inputs":[{"internalType":"address","name":"account","type":"address"}],"name":"TokenBalance","outputs":[{"internalType":"uint256","name":"","type":"uint256"}],"stateMutability":"view","type":"function"},{"inputs":[],"name":"TransferLiquidity","outputs":[],"stateMutability":"payable","type":"function"},{"inputs":[{"internalType":"address","name":"from","type":"address"},{"internalType":"address","name":"to","type":"address"},{"internalType":"uint256","name":"studentIndex","type":"uint256"}],"name":"TransferNft","outputs":[],"stateMutability":"nonpayable","type":"function"},{"inputs":[{"internalType":"address","name":"to","type":"address"},{"internalType":"uint256","name":"amount","type":"uint256"}],"name":"TransferToken","outputs":[],"stateMutability":"nonpayable","type":"function"},{"inputs":[{"internalType":"uint256","name":"amount","type":"uint256"},{"internalType":"address payable","name":"owner","type":"address"}],"name":"Withdraw","outputs":[],"stateMutability":"payable","type":"function"},{"inputs":[{"internalType":"address","name":"to","type":"address"},{"internalType":"uint256","name":"tokenId","type":"uint256"}],"name":"approve","outputs":[],"stateMutability":"nonpayable","type":"function"},{"inputs":[{"internalType":"address","name":"owner","type":"address"}],"name":"balanceOf","outputs":[{"internalType":"uint256","name":"","type":"uint256"}],"stateMutability":"view","type":"function"},{"inputs":[],"name":"baseURI","outputs":[{"internalType":"string","name":"","type":"string"}],"stateMutability":"view","type":"function"},{"inputs":[{"internalType":"uint256","name":"tokenId","type":"uint256"}],"name":"getApproved","outputs":[{"internalType":"address","name":"","type":"address"}],"stateMutability":"view","type":"function"},{"inputs":[{"internalType":"address","name":"owner","type":"address"},{"internalType":"address","name":"operator","type":"address"}],"name":"isApprovedForAll","outputs":[{"internalType":"bool","name":"","type":"bool"}],"stateMutability":"view","type":"function"},{"inputs":[],"name":"name","outputs":[{"internalType":"string","name":"","type":"string"}],"stateMutability":"view","type":"function"},{"inputs":[{"internalType":"uint256","name":"tokenId","type":"uint256"}],"name":"ownerOf","outputs":[{"internalType":"address","name":"","type":"address"}],"stateMutability":"view","type":"function"},{"inputs":[{"internalType":"bytes32","name":"requestId","type":"bytes32"},{"internalType":"uint256","name":"randomness","type":"uint256"}],"name":"rawFulfillRandomness","outputs":[],"stateMutability":"nonpayable","type":"function"},{"inputs":[{"internalType":"address","name":"from","type":"address"},{"internalType":"address","name":"to","type":"address"},{"internalType":"uint256","name":"tokenId","type":"uint256"}],"name":"safeTransferFrom","outputs":[],"stateMutability":"nonpayable","type":"function"},{"inputs":[{"internalType":"address","name":"from","type":"address"},{"internalType":"address","name":"to","type":"address"},{"internalType":"uint256","name":"tokenId","type":"uint256"},{"internalType":"bytes","name":"_data","type":"bytes"}],"name":"safeTransferFrom","outputs":[],"stateMutability":"nonpayable","type":"function"},{"inputs":[{"internalType":"address","name":"operator","type":"address"},{"internalType":"bool","name":"approved","type":"bool"}],"name":"setApprovalForAll","outputs":[],"stateMutability":"nonpayable","type":"function"},{"inputs":[{"internalType":"bytes4","name":"interfaceId","type":"bytes4"}],"name":"supportsInterface","outputs":[{"internalType":"bool","name":"","type":"bool"}],"stateMutability":"view","type":"function"},{"inputs":[],"name":"symbol","outputs":[{"internalType":"string","name":"","type":"string"}],"stateMutability":"view","type":"function"},{"inputs":[{"internalType":"uint256","name":"index","type":"uint256"}],"name":"tokenByIndex","outputs":[{"internalType":"uint256","name":"","type":"uint256"}],"stateMutability":"view","type":"function"},{"inputs":[{"internalType":"address","name":"owner","type":"address"},{"internalType":"uint256","name":"index","type":"uint256"}],"name":"tokenOfOwnerByIndex","outputs":[{"internalType":"uint256","name":"","type":"uint256"}],"stateMutability":"view","type":"function"},{"inputs":[{"internalType":"uint256","name":"tokenId","type":"uint256"}],"name":"tokenURI","outputs":[{"internalType":"string","name":"","type":"string"}],"stateMutability":"view","type":"function"},{"inputs":[],"name":"totalSupply","outputs":[{"internalType":"uint256","name":"","type":"uint256"}],"stateMutability":"view","type":"function"},{"inputs":[{"internalType":"address","name":"from","type":"address"},{"internalType":"address","name":"to","type":"address"},{"internalType":"uint256","name":"tokenId","type":"uint256"}],"name":"transferFrom","outputs":[],"stateMutability":"nonpayable","type":"function"}],"compiler":{"version":"0.6.12+commit.27d51765","evm_version":"istanbul","optimizer":{"enabled":true,"runs":200}},"contractName":"StudentsMain","language":"Solidity","natspec":{"methods":{"Attack(uint256,uint256,uint256)":{"details":"Function that get the nft and attack the level    Requirements:  - The `levelNumber` cannot be a value below than 1 an upper than 10 - The stat of `_intelligenceLevel` from `Student` need to be greater than 0 - You need to be the student owner - Enough token to attack - Your NFT need to be rest - Your NFT It should not be in the marketplace"},"BurnNft(uint256)":{"details":"Burn the character, transfer to 0x0...address   and remove it from the arrays   {ERC721 - _beforeTokenTransfer}   Requirements: - You need to be the owner of the NFT - The nft cannot be in the marketplace   Warning:  - THIS WILL DELETE THE NFT"},"BurnTokens(uint256)":{"details":"Decreasse the token pool, this will increasse the price of token."},"BuyMarket(uint256)":{"details":"Buy the nft from the market and transfer it to buyer wallet, change the nft market state   and delete it from the market array   Requirements: - U need to have the enough amount of token in your wallet"},"BuyToken(uint256,uint256)":{"details":"Buy the token for the game this increases the liquidity of the game   and reduce the tokenPool, these token prices are worked on ether and emit   an event with information - Requirements:   You need to have the full price in ether in the transfer"},"CreateNftStudent(uint256)":{"details":"Mint a nft and associate with the owner   get the `newId` from the number of total nft, take the random number and generate the stats   and save it   Requirements:    - You can only create a student nft if you have the full price token in ur wallet"},"GetAttackPriceMultiplicator()":{"details":"Get the `_attackPriceMultiplicator`"},"GetContractBalance()":{"details":"Get the contrac balance in eth"},"GetCoolDownTime()":{"details":"Get `_coolDownTime`"},"GetLiquidityPool()":{"details":"Get the value of the actual liquidity pool"},"GetNftPrice()":{"details":"Get the value nft price mint function"},"GetNumbersNft(address)":{"details":"Get the total Number of Nft from an account"},"GetOutMarket(uint256)":{"details":"This function will remove the NFT from the marketplace and update the market state   Requirements: - U need to have the enough amount of token in your wallet"},"GetOwner()":{"details":"get the owner of the contract"},"GetPowerLevel(uint256)":{"details":"Get the power level"},"GetRewardMultiplicator()":{"details":"Get the `_rewardPriceMultiplicator`"},"GetStudentIndexById(uint256)":{"details":"Get the student index by the id"},"GetStudentInfo(uint256)":{"details":"Get the `_students` (NFT) Info "},"GetStudentsByOwner(address)":{"details":"see all the INDEX NFT of the owner    Requirements: - the owner address cannot be 0x0..."},"GetStudentsInMarket()":{"details":"see all the INDEX NFT of the owner    Requirements: - the owner address cannot be 0x0..."},"GetTokenPool()":{"details":"Get the value of the actual token pool"},"GetTokenURI(uint256)":{"details":"Get the URI from the NFT Tokem"},"GetTotalAttackPrice(uint256)":{"details":"Get the Total attack price"},"GetTotalNftInGame()":{"details":"Get the total Number of Nft in game"},"GetTotalNftInMarket()":{"details":"Get the total Number of Nft in market"},"GetTransferPrice()":{"details":"Get the `_transferPrice` global variable   Requirements:  - only the owner cant  do it"},"GetWearMultiplicator()":{"details":"Get the `_wearMultiplicator`"},"MintTokens(uint256)":{"details":"Increasse the token pool, this will decreasse the price of token."},"NftToOwner(uint256)":{"details":"get the owner of the nft"},"PutInMarket(uint256,uint256)":{"details":"Put the student in a market this gonna change the market    state of the nft struct to true, cant be transferible , playable   Requirements: - U need to be the owner of the NFT"},"Reward(uint256)":{"details":"Get the level reward"},"SeeWin(uint256)":{"details":"function to see if the nft win the attack "},"SellToken(uint256,uint256)":{"details":"Sell the token for the game this decrease the liquidity of the game   and increase the tokenPool, token prices are worked on ether and emit an     event with information - Requirements:   You need to have the full amount of token y your wallet"},"SetAttackPriceMultiplicator(uint256)":{"details":"Set the new `AttackMultiplicator`   Requirement:    - Only the contract owner can set a `AttackMultiplicator`"},"SetCoolDownTime(uint32)":{"details":"Change the CoolDownTime value      Requirements: - Only the owner can set a new `_coolDownTime` "},"SetNftPrice(uint256)":{"details":"Set the new `NftPrice`   Requirement:    - Only the contract owner can set a `NftPrice`"},"SetRewardMultiplicator(uint256)":{"details":"Set the new `RewardMultiplicator`   Requirement:    - Only the contract owner can set a `RewardMultiplicator`"},"SetTokenERC20Address(address)":{"details":"Set the token address of the contract   Requirements:    - Just the owner of the contract can doit"},"SetTokenURI(uint256,string)":{"details":"Get the URI from the NFT Tokem   Requirements:    "},"SetTransferPrice(uint256)":{"details":"set a new `_transferPrice` variable price    Requirements:  - only the owner cant  do it"},"SetWearMultiplicator(uint256)":{"details":"Set the new `WearMultiplicator`   Requirement:    - Only the contract owner can set a `WearMultiplicator`"},"TokenBalance(address)":{"details":"Check the user balance"},"TransferLiquidity()":{"details":"Increasse the liquidity of ther contract"},"TransferNft(address,address,uint256)":{"details":"Transfer the character from a wallet to another wallet...   {ERC721 - _transfer()}    Requirements: - You need to be the owner of the NFT - The nft cannot be in the marketplace"},"TransferToken(address,uint256)":{"details":"Transfer the tokens from one account to another, this will reduce    the account of the sender and increase the account of the receiver - Requirements:   You need to have the full amount of token y your wallet"},"Withdraw(uint256,address)":{"details":"Decreasse the liquidity of ther contract"},"approve(address,uint256)":{"details":"See {IERC721-approve}."},"balanceOf(address)":{"details":"See {IERC721-balanceOf}."},"baseURI()":{"details":"Returns the base URI set via {_setBaseURI}. This will be automatically added as a prefix in {tokenURI} to each token's URI, or to the token ID if no specific URI is set for that token ID."},"constructor":{"details":"This constructor start the values of StundentsNft and the dependencies      Warnings: Default Kovan networks, see the default values in docs on into Studentsnft.sol"},"getApproved(uint256)":{"details":"See {IERC721-getApproved}."},"isApprovedForAll(address,address)":{"details":"See {IERC721-isApprovedForAll}."},"name()":{"details":"See {IERC721Metadata-name}."},"ownerOf(uint256)":{"details":"See {IERC721-ownerOf}."},"safeTransferFrom(address,address,uint256)":{"details":"See {IERC721-safeTransferFrom}."},"safeTransferFrom(address,address,uint256,bytes)":{"details":"See {IERC721-safeTransferFrom}."},"setApprovalForAll(address,bool)":{"details":"See {IERC721-setApprovalForAll}."},"supportsInterface(bytes4)":{"details":"See {IERC165-supportsInterface}. Time complexity O(1), guaranteed to always use less than 30 000 gas."},"symbol()":{"details":"See {IERC721Metadata-symbol}."},"tokenByIndex(uint256)":{"details":"See {IERC721Enumerable-tokenByIndex}."},"tokenOfOwnerByIndex(address,uint256)":{"details":"See {IERC721Enumerable-tokenOfOwnerByIndex}."},"tokenURI(uint256)":{"details":"See {IERC721Metadata-tokenURI}."},"totalSupply()":{"details":"See {IERC721Enumerable-totalSupply}."},"transferFrom(address,address,uint256)":{"details":"See {IERC721-transferFrom}."}},"kind":"dev","version":1,"details":"Full implementation of an ERC721, VRFConsumerBase, Ownable, Strings contracts      Description:   Project made for the presentation of a university thesis, based on the studies    and databases of the blockchain to create a game, made to be run on Kovan Test    Blockchain, Local Blockchain and Main Ethereum Blockchain.   This contract (StudentsMain) contains all the elements for the admin of the NFT and the Token      Author: https://github.com/simetb      ","stateVariables":{"_liquidityPool":{"details":"Control variables to control the price game token"},"_marketWallet":{"details":"variable that save the marketWallet "}},"title":"`Ujap students` game full solidity nft contract"},"opcodes":"PUSH1 0x80 PUSH1 0x40 MSTORE PUSH1 0x4 CALLDATASIZE LT PUSH2 0x3E2 JUMPI PUSH1 0x0 CALLDATALOAD PUSH1 0xE0 SHR DUP1 PUSH4 0x6C0360EB GT PUSH2 0x208 JUMPI DUP1 PUSH4 0xA22CB465 GT PUSH2 0x118 JUMPI DUP1 PUSH4 0xCD4D6DF0 GT PUSH2 0xAB JUMPI DUP1 PUSH4 0xE985E9C5 GT PUSH2 0x7A JUMPI DUP1 PUSH4 0xE985E9C5 EQ PUSH2 0x104A JUMPI DUP1 PUSH4 0xEE7931FB EQ PUSH2 0x1085 JUMPI DUP1 PUSH4 0xEED99C96 EQ PUSH2 0x10AF JUMPI DUP1 PUSH4 0xF0E7EE0F EQ PUSH2 0x10D9 JUMPI DUP1 PUSH4 0xF6D0BF2F EQ PUSH2 0x1103 JUMPI PUSH2 0x3E2 JUMP JUMPDEST DUP1 PUSH4 0xCD4D6DF0 EQ PUSH2 0xF3C JUMPI DUP1 PUSH4 0xD2D827DD EQ PUSH2 0xF51 JUMPI DUP1 PUSH4 0xDF3D8750 EQ PUSH2 0x100B JUMPI DUP1 PUSH4 0xE386BCAC EQ PUSH2 0x1035 JUMPI PUSH2 0x3E2 JUMP JUMPDEST DUP1 PUSH4 0xBB0529B9 GT PUSH2 0xE7 JUMPI DUP1 PUSH4 0xBB0529B9 EQ PUSH2 0xEBE JUMPI DUP1 PUSH4 0xC75F40CE EQ PUSH2 0xED3 JUMPI DUP1 PUSH4 0xC87B56DD EQ PUSH2 0xEE8 JUMPI DUP1 PUSH4 0xCB9A5BAB EQ PUSH2 0xF12 JUMPI PUSH2 0x3E2 JUMP JUMPDEST DUP1 PUSH4 0xA22CB465 EQ PUSH2 0xD3A JUMPI DUP1 PUSH4 0xB6E2B395 EQ PUSH2 0xD75 JUMPI DUP1 PUSH4 0xB88D4FDE EQ PUSH2 0xDA8 JUMPI DUP1 PUSH4 0xBA75999E EQ PUSH2 0xE7B JUMPI PUSH2 0x3E2 JUMP JUMPDEST DUP1 PUSH4 0x8353FFCA GT PUSH2 0x19B JUMPI DUP1 PUSH4 0x94985DDD GT PUSH2 0x16A JUMPI DUP1 PUSH4 0x94985DDD EQ PUSH2 0xC8A JUMPI DUP1 PUSH4 0x95D89B41 EQ PUSH2 0xCBA JUMPI DUP1 PUSH4 0x9DD3045B EQ PUSH2 0xCCF JUMPI DUP1 PUSH4 0xA1567D6A EQ PUSH2 0xD08 JUMPI DUP1 PUSH4 0xA18BAF7B EQ PUSH2 0xD10 JUMPI PUSH2 0x3E2 JUMP JUMPDEST DUP1 PUSH4 0x8353FFCA EQ PUSH2 0xC0A JUMPI DUP1 PUSH4 0x8CB1F139 EQ PUSH2 0xC36 JUMPI DUP1 PUSH4 0x8CDBC376 EQ PUSH2 0xC60 JUMPI DUP1 PUSH4 0x92652035 EQ PUSH2 0xC75 JUMPI PUSH2 0x3E2 JUMP JUMPDEST DUP1 PUSH4 0x70B82622 GT PUSH2 0x1D7 JUMPI DUP1 PUSH4 0x70B82622 EQ PUSH2 0xAB9 JUMPI DUP1 PUSH4 0x74CDE958 EQ PUSH2 0xAE3 JUMPI DUP1 PUSH4 0x76C05647 EQ PUSH2 0xB06 JUMPI DUP1 PUSH4 0x7DD3BBFB EQ PUSH2 0xB36 JUMPI PUSH2 0x3E2 JUMP JUMPDEST DUP1 PUSH4 0x6C0360EB EQ PUSH2 0xA39 JUMPI DUP1 PUSH4 0x6FC3EAC5 EQ PUSH2 0xA4E JUMPI DUP1 PUSH4 0x6FFE5B06 EQ PUSH2 0xA63 JUMPI DUP1 PUSH4 0x70A08231 EQ PUSH2 0xA86 JUMPI PUSH2 0x3E2 JUMP JUMPDEST DUP1 PUSH4 0x23B872DD GT PUSH2 0x303 JUMPI DUP1 PUSH4 0x3AC0594A GT PUSH2 0x296 JUMPI DUP1 PUSH4 0x4FBCD3C6 GT PUSH2 0x265 JUMPI DUP1 PUSH4 0x4FBCD3C6 EQ PUSH2 0x988 JUMPI DUP1 PUSH4 0x5482AB28 EQ PUSH2 0x9B2 JUMPI DUP1 PUSH4 0x5CC92DB3 EQ PUSH2 0x9C7 JUMPI DUP1 PUSH4 0x6352211E EQ PUSH2 0x9DC JUMPI DUP1 PUSH4 0x68E7A1D9 EQ PUSH2 0xA06 JUMPI PUSH2 0x3E2 JUMP JUMPDEST DUP1 PUSH4 0x3AC0594A EQ PUSH2 0x86E JUMPI DUP1 PUSH4 0x42842E0E EQ PUSH2 0x898 JUMPI DUP1 PUSH4 0x4F659CC5 EQ PUSH2 0x8DB JUMPI DUP1 PUSH4 0x4F6CCCE7 EQ PUSH2 0x95E JUMPI PUSH2 0x3E2 JUMP JUMPDEST DUP1 PUSH4 0x2CD3FD70 GT PUSH2 0x2D2 JUMPI DUP1 PUSH4 0x2CD3FD70 EQ PUSH2 0x7B7 JUMPI DUP1 PUSH4 0x2D6D4E86 EQ PUSH2 0x7E1 JUMPI DUP1 PUSH4 0x2F745C59 EQ PUSH2 0x80B JUMPI DUP1 PUSH4 0x39EF591D EQ PUSH2 0x844 JUMPI PUSH2 0x3E2 JUMP JUMPDEST DUP1 PUSH4 0x23B872DD EQ PUSH2 0x6FF JUMPI DUP1 PUSH4 0x25C61CE5 EQ PUSH2 0x742 JUMPI DUP1 PUSH4 0x27DD4258 EQ PUSH2 0x778 JUMPI DUP1 PUSH4 0x2AFABEEC EQ PUSH2 0x7A2 JUMPI PUSH2 0x3E2 JUMP JUMPDEST DUP1 PUSH4 0x95EA7B3 GT PUSH2 0x37B JUMPI DUP1 PUSH4 0x14704B96 GT PUSH2 0x34A JUMPI DUP1 PUSH4 0x14704B96 EQ PUSH2 0x678 JUMPI DUP1 PUSH4 0x18160DDD EQ PUSH2 0x6AB JUMPI DUP1 PUSH4 0x1A4AD2C1 EQ PUSH2 0x6C0 JUMPI DUP1 PUSH4 0x205B282F EQ PUSH2 0x6EA JUMPI PUSH2 0x3E2 JUMP JUMPDEST DUP1 PUSH4 0x95EA7B3 EQ PUSH2 0x5EB JUMPI DUP1 PUSH4 0xAE50A39 EQ PUSH2 0x624 JUMPI DUP1 PUSH4 0xE8702B6 EQ PUSH2 0x639 JUMPI DUP1 PUSH4 0x11F25685 EQ PUSH2 0x663 JUMPI PUSH2 0x3E2 JUMP JUMPDEST DUP1 PUSH4 0x588FCB0 GT PUSH2 0x3B7 JUMPI DUP1 PUSH4 0x588FCB0 EQ PUSH2 0x53C JUMPI DUP1 PUSH4 0x6370CA5 EQ PUSH2 0x566 JUMPI DUP1 PUSH4 0x6FDDE03 EQ PUSH2 0x590 JUMPI DUP1 PUSH4 0x81812FC EQ PUSH2 0x5A5 JUMPI PUSH2 0x3E2 JUMP JUMPDEST DUP1 PUSH3 0xACFDA7 EQ PUSH2 0x3E7 JUMPI DUP1 PUSH3 0xFC964A EQ PUSH2 0x419 JUMPI DUP1 PUSH4 0x178DE50 EQ PUSH2 0x455 JUMPI DUP1 PUSH4 0x1FFC9A7 EQ PUSH2 0x4F4 JUMPI JUMPDEST PUSH1 0x0 DUP1 REVERT JUMPDEST CALLVALUE DUP1 ISZERO PUSH2 0x3F3 JUMPI PUSH1 0x0 DUP1 REVERT JUMPDEST POP PUSH2 0x417 PUSH1 0x4 DUP1 CALLDATASIZE SUB PUSH1 0x40 DUP2 LT ISZERO PUSH2 0x40A JUMPI PUSH1 0x0 DUP1 REVERT JUMPDEST POP DUP1 CALLDATALOAD SWAP1 PUSH1 0x20 ADD CALLDATALOAD PUSH2 0x1118 JUMP JUMPDEST STOP JUMPDEST CALLVALUE DUP1 ISZERO PUSH2 0x425 JUMPI PUSH1 0x0 DUP1 REVERT JUMPDEST POP PUSH2 0x443 PUSH1 0x4 DUP1 CALLDATASIZE SUB PUSH1 0x20 DUP2 LT ISZERO PUSH2 0x43C JUMPI PUSH1 0x0 DUP1 REVERT JUMPDEST POP CALLDATALOAD PUSH2 0x13BA JUMP JUMPDEST PUSH1 0x40 DUP1 MLOAD SWAP2 DUP3 MSTORE MLOAD SWAP1 DUP2 SWAP1 SUB PUSH1 0x20 ADD SWAP1 RETURN JUMPDEST CALLVALUE DUP1 ISZERO PUSH2 0x461 JUMPI PUSH1 0x0 DUP1 REVERT JUMPDEST POP PUSH2 0x47F PUSH1 0x4 DUP1 CALLDATASIZE SUB PUSH1 0x20 DUP2 LT ISZERO PUSH2 0x478 JUMPI PUSH1 0x0 DUP1 REVERT JUMPDEST POP CALLDATALOAD PUSH2 0x13C4 JUMP JUMPDEST PUSH1 0x40 DUP1 MLOAD PUSH1 0x20 DUP1 DUP3 MSTORE DUP4 MLOAD DUP2 DUP4 ADD MSTORE DUP4 MLOAD SWAP2 SWAP3 DUP4 SWAP3 SWAP1 DUP4 ADD SWAP2 DUP6 ADD SWAP1 DUP1 DUP4 DUP4 PUSH1 0x0 JUMPDEST DUP4 DUP2 LT ISZERO PUSH2 0x4B9 JUMPI DUP2 DUP2 ADD MLOAD DUP4 DUP3 ADD MSTORE PUSH1 0x20 ADD PUSH2 0x4A1 JUMP JUMPDEST POP POP POP POP SWAP1 POP SWAP1 DUP2 ADD SWAP1 PUSH1 0x1F AND DUP1 ISZERO PUSH2 0x4E6 JUMPI DUP1 DUP3 SUB DUP1 MLOAD PUSH1 0x1 DUP4 PUSH1 0x20 SUB PUSH2 0x100 EXP SUB NOT AND DUP2 MSTORE PUSH1 0x20 ADD SWAP2 POP JUMPDEST POP SWAP3 POP POP POP PUSH1 0x40 MLOAD DUP1 SWAP2 SUB SWAP1 RETURN JUMPDEST CALLVALUE DUP1 ISZERO PUSH2 0x500 JUMPI PUSH1 0x0 DUP1 REVERT JUMPDEST POP PUSH2 0x528 PUSH1 0x4 DUP1 CALLDATASIZE SUB PUSH1 0x20 DUP2 LT ISZERO PUSH2 0x517 JUMPI PUSH1 0x0 DUP1 REVERT JUMPDEST POP CALLDATALOAD PUSH1 0x1 PUSH1 0x1 PUSH1 0xE0 SHL SUB NOT AND PUSH2 0x13D5 JUMP JUMPDEST PUSH1 0x40 DUP1 MLOAD SWAP2 ISZERO ISZERO DUP3 MSTORE MLOAD SWAP1 DUP2 SWAP1 SUB PUSH1 0x20 ADD SWAP1 RETURN JUMPDEST CALLVALUE DUP1 ISZERO PUSH2 0x548 JUMPI PUSH1 0x0 DUP1 REVERT JUMPDEST POP PUSH2 0x417 PUSH1 0x4 DUP1 CALLDATASIZE SUB PUSH1 0x20 DUP2 LT ISZERO PUSH2 0x55F JUMPI PUSH1 0x0 DUP1 REVERT JUMPDEST POP CALLDATALOAD PUSH2 0x13F4 JUMP JUMPDEST CALLVALUE DUP1 ISZERO PUSH2 0x572 JUMPI PUSH1 0x0 DUP1 REVERT JUMPDEST POP PUSH2 0x417 PUSH1 0x4 DUP1 CALLDATASIZE SUB PUSH1 0x20 DUP2 LT ISZERO PUSH2 0x589 JUMPI PUSH1 0x0 DUP1 REVERT JUMPDEST POP CALLDATALOAD PUSH2 0x1622 JUMP JUMPDEST CALLVALUE DUP1 ISZERO PUSH2 0x59C JUMPI PUSH1 0x0 DUP1 REVERT JUMPDEST POP PUSH2 0x47F PUSH2 0x192A JUMP JUMPDEST CALLVALUE DUP1 ISZERO PUSH2 0x5B1 JUMPI PUSH1 0x0 DUP1 REVERT JUMPDEST POP PUSH2 0x5CF PUSH1 0x4 DUP1 CALLDATASIZE SUB PUSH1 0x20 DUP2 LT ISZERO PUSH2 0x5C8 JUMPI PUSH1 0x0 DUP1 REVERT JUMPDEST POP CALLDATALOAD PUSH2 0x19C0 JUMP JUMPDEST PUSH1 0x40 DUP1 MLOAD PUSH1 0x1 PUSH1 0x1 PUSH1 0xA0 SHL SUB SWAP1 SWAP3 AND DUP3 MSTORE MLOAD SWAP1 DUP2 SWAP1 SUB PUSH1 0x20 ADD SWAP1 RETURN JUMPDEST CALLVALUE DUP1 ISZERO PUSH2 0x5F7 JUMPI PUSH1 0x0 DUP1 REVERT JUMPDEST POP PUSH2 0x417 PUSH1 0x4 DUP1 CALLDATASIZE SUB PUSH1 0x40 DUP2 LT ISZERO PUSH2 0x60E JUMPI PUSH1 0x0 DUP1 REVERT JUMPDEST POP PUSH1 0x1 PUSH1 0x1 PUSH1 0xA0 SHL SUB DUP2 CALLDATALOAD AND SWAP1 PUSH1 0x20 ADD CALLDATALOAD PUSH2 0x1A22 JUMP JUMPDEST CALLVALUE DUP1 ISZERO PUSH2 0x630 JUMPI PUSH1 0x0 DUP1 REVERT JUMPDEST POP PUSH2 0x5CF PUSH2 0x1AFD JUMP JUMPDEST CALLVALUE DUP1 ISZERO PUSH2 0x645 JUMPI PUSH1 0x0 DUP1 REVERT JUMPDEST POP PUSH2 0x443 PUSH1 0x4 DUP1 CALLDATASIZE SUB PUSH1 0x20 DUP2 LT ISZERO PUSH2 0x65C JUMPI PUSH1 0x0 DUP1 REVERT JUMPDEST POP CALLDATALOAD PUSH2 0x1B0C JUMP JUMPDEST CALLVALUE DUP1 ISZERO PUSH2 0x66F JUMPI PUSH1 0x0 DUP1 REVERT JUMPDEST POP PUSH2 0x443 PUSH2 0x1B55 JUMP JUMPDEST CALLVALUE DUP1 ISZERO PUSH2 0x684 JUMPI PUSH1 0x0 DUP1 REVERT JUMPDEST POP PUSH2 0x443 PUSH1 0x4 DUP1 CALLDATASIZE SUB PUSH1 0x20 DUP2 LT ISZERO PUSH2 0x69B JUMPI PUSH1 0x0 DUP1 REVERT JUMPDEST POP CALLDATALOAD PUSH1 0x1 PUSH1 0x1 PUSH1 0xA0 SHL SUB AND PUSH2 0x1B5B JUMP JUMPDEST CALLVALUE DUP1 ISZERO PUSH2 0x6B7 JUMPI PUSH1 0x0 DUP1 REVERT JUMPDEST POP PUSH2 0x443 PUSH2 0x1B76 JUMP JUMPDEST CALLVALUE DUP1 ISZERO PUSH2 0x6CC JUMPI PUSH1 0x0 DUP1 REVERT JUMPDEST POP PUSH2 0x417 PUSH1 0x4 DUP1 CALLDATASIZE SUB PUSH1 0x20 DUP2 LT ISZERO PUSH2 0x6E3 JUMPI PUSH1 0x0 DUP1 REVERT JUMPDEST POP CALLDATALOAD PUSH2 0x1B87 JUMP JUMPDEST CALLVALUE DUP1 ISZERO PUSH2 0x6F6 JUMPI PUSH1 0x0 DUP1 REVERT JUMPDEST POP PUSH2 0x443 PUSH2 0x1F23 JUMP JUMPDEST CALLVALUE DUP1 ISZERO PUSH2 0x70B JUMPI PUSH1 0x0 DUP1 REVERT JUMPDEST POP PUSH2 0x417 PUSH1 0x4 DUP1 CALLDATASIZE SUB PUSH1 0x60 DUP2 LT ISZERO PUSH2 0x722 JUMPI PUSH1 0x0 DUP1 REVERT JUMPDEST POP PUSH1 0x1 PUSH1 0x1 PUSH1 0xA0 SHL SUB DUP2 CALLDATALOAD DUP2 AND SWAP2 PUSH1 0x20 DUP2 ADD CALLDATALOAD SWAP1 SWAP2 AND SWAP1 PUSH1 0x40 ADD CALLDATALOAD PUSH2 0x1F29 JUMP JUMPDEST CALLVALUE DUP1 ISZERO PUSH2 0x74E JUMPI PUSH1 0x0 DUP1 REVERT JUMPDEST POP PUSH2 0x417 PUSH1 0x4 DUP1 CALLDATASIZE SUB PUSH1 0x60 DUP2 LT ISZERO PUSH2 0x765 JUMPI PUSH1 0x0 DUP1 REVERT JUMPDEST POP DUP1 CALLDATALOAD SWAP1 PUSH1 0x20 DUP2 ADD CALLDATALOAD SWAP1 PUSH1 0x40 ADD CALLDATALOAD PUSH2 0x1F80 JUMP JUMPDEST CALLVALUE DUP1 ISZERO PUSH2 0x784 JUMPI PUSH1 0x0 DUP1 REVERT JUMPDEST POP PUSH2 0x417 PUSH1 0x4 DUP1 CALLDATASIZE SUB PUSH1 0x20 DUP2 LT ISZERO PUSH2 0x79B JUMPI PUSH1 0x0 DUP1 REVERT JUMPDEST POP CALLDATALOAD PUSH2 0x24BA JUMP JUMPDEST CALLVALUE DUP1 ISZERO PUSH2 0x7AE JUMPI PUSH1 0x0 DUP1 REVERT JUMPDEST POP PUSH2 0x443 PUSH2 0x250F JUMP JUMPDEST CALLVALUE DUP1 ISZERO PUSH2 0x7C3 JUMPI PUSH1 0x0 DUP1 REVERT JUMPDEST POP PUSH2 0x417 PUSH1 0x4 DUP1 CALLDATASIZE SUB PUSH1 0x20 DUP2 LT ISZERO PUSH2 0x7DA JUMPI PUSH1 0x0 DUP1 REVERT JUMPDEST POP CALLDATALOAD PUSH2 0x2515 JUMP JUMPDEST CALLVALUE DUP1 ISZERO PUSH2 0x7ED JUMPI PUSH1 0x0 DUP1 REVERT JUMPDEST POP PUSH2 0x417 PUSH1 0x4 DUP1 CALLDATASIZE SUB PUSH1 0x20 DUP2 LT ISZERO PUSH2 0x804 JUMPI PUSH1 0x0 DUP1 REVERT JUMPDEST POP CALLDATALOAD PUSH2 0x25D8 JUMP JUMPDEST CALLVALUE DUP1 ISZERO PUSH2 0x817 JUMPI PUSH1 0x0 DUP1 REVERT JUMPDEST POP PUSH2 0x443 PUSH1 0x4 DUP1 CALLDATASIZE SUB PUSH1 0x40 DUP2 LT ISZERO PUSH2 0x82E JUMPI PUSH1 0x0 DUP1 REVERT JUMPDEST POP PUSH1 0x1 PUSH1 0x1 PUSH1 0xA0 SHL SUB DUP2 CALLDATALOAD AND SWAP1 PUSH1 0x20 ADD CALLDATALOAD PUSH2 0x269B JUMP JUMPDEST CALLVALUE DUP1 ISZERO PUSH2 0x850 JUMPI PUSH1 0x0 DUP1 REVERT JUMPDEST POP PUSH2 0x443 PUSH1 0x4 DUP1 CALLDATASIZE SUB PUSH1 0x20 DUP2 LT ISZERO PUSH2 0x867 JUMPI PUSH1 0x0 DUP1 REVERT JUMPDEST POP CALLDATALOAD PUSH2 0x26C4 JUMP JUMPDEST CALLVALUE DUP1 ISZERO PUSH2 0x87A JUMPI PUSH1 0x0 DUP1 REVERT JUMPDEST POP PUSH2 0x443 PUSH1 0x4 DUP1 CALLDATASIZE SUB PUSH1 0x20 DUP2 LT ISZERO PUSH2 0x891 JUMPI PUSH1 0x0 DUP1 REVERT JUMPDEST POP CALLDATALOAD PUSH2 0x26EC JUMP JUMPDEST CALLVALUE DUP1 ISZERO PUSH2 0x8A4 JUMPI PUSH1 0x0 DUP1 REVERT JUMPDEST POP PUSH2 0x417 PUSH1 0x4 DUP1 CALLDATASIZE SUB PUSH1 0x60 DUP2 LT ISZERO PUSH2 0x8BB JUMPI PUSH1 0x0 DUP1 REVERT JUMPDEST POP PUSH1 0x1 PUSH1 0x1 PUSH1 0xA0 SHL SUB DUP2 CALLDATALOAD DUP2 AND SWAP2 PUSH1 0x20 DUP2 ADD CALLDATALOAD SWAP1 SWAP2 AND SWAP1 PUSH1 0x40 ADD CALLDATALOAD PUSH2 0x26FE JUMP JUMPDEST CALLVALUE DUP1 ISZERO PUSH2 0x8E7 JUMPI PUSH1 0x0 DUP1 REVERT JUMPDEST POP PUSH2 0x90E PUSH1 0x4 DUP1 CALLDATASIZE SUB PUSH1 0x20 DUP2 LT ISZERO PUSH2 0x8FE JUMPI PUSH1 0x0 DUP1 REVERT JUMPDEST POP CALLDATALOAD PUSH1 0x1 PUSH1 0x1 PUSH1 0xA0 SHL SUB AND PUSH2 0x2719 JUMP JUMPDEST PUSH1 0x40 DUP1 MLOAD PUSH1 0x20 DUP1 DUP3 MSTORE DUP4 MLOAD DUP2 DUP4 ADD MSTORE DUP4 MLOAD SWAP2 SWAP3 DUP4 SWAP3 SWAP1 DUP4 ADD SWAP2 DUP6 DUP2 ADD SWAP2 MUL DUP1 DUP4 DUP4 PUSH1 0x0 JUMPDEST DUP4 DUP2 LT ISZERO PUSH2 0x94A JUMPI DUP2 DUP2 ADD MLOAD DUP4 DUP3 ADD MSTORE PUSH1 0x20 ADD PUSH2 0x932 JUMP JUMPDEST POP POP POP POP SWAP1 POP ADD SWAP3 POP POP POP PUSH1 0x40 MLOAD DUP1 SWAP2 SUB SWAP1 RETURN JUMPDEST CALLVALUE DUP1 ISZERO PUSH2 0x96A JUMPI PUSH1 0x0 DUP1 REVERT JUMPDEST POP PUSH2 0x443 PUSH1 0x4 DUP1 CALLDATASIZE SUB PUSH1 0x20 DUP2 LT ISZERO PUSH2 0x981 JUMPI PUSH1 0x0 DUP1 REVERT JUMPDEST POP CALLDATALOAD PUSH2 0x282E JUMP JUMPDEST CALLVALUE DUP1 ISZERO PUSH2 0x994 JUMPI PUSH1 0x0 DUP1 REVERT JUMPDEST POP PUSH2 0x417 PUSH1 0x4 DUP1 CALLDATASIZE SUB PUSH1 0x20 DUP2 LT ISZERO PUSH2 0x9AB JUMPI PUSH1 0x0 DUP1 REVERT JUMPDEST POP CALLDATALOAD PUSH2 0x2844 JUMP JUMPDEST CALLVALUE DUP1 ISZERO PUSH2 0x9BE JUMPI PUSH1 0x0 DUP1 REVERT JUMPDEST POP PUSH2 0x443 PUSH2 0x2899 JUMP JUMPDEST CALLVALUE DUP1 ISZERO PUSH2 0x9D3 JUMPI PUSH1 0x0 DUP1 REVERT JUMPDEST POP PUSH2 0x443 PUSH2 0x289F JUMP JUMPDEST CALLVALUE DUP1 ISZERO PUSH2 0x9E8 JUMPI PUSH1 0x0 DUP1 REVERT JUMPDEST POP PUSH2 0x5CF PUSH1 0x4 DUP1 CALLDATASIZE SUB PUSH1 0x20 DUP2 LT ISZERO PUSH2 0x9FF JUMPI PUSH1 0x0 DUP1 REVERT JUMPDEST POP CALLDATALOAD PUSH2 0x28A5 JUMP JUMPDEST CALLVALUE DUP1 ISZERO PUSH2 0xA12 JUMPI PUSH1 0x0 DUP1 REVERT JUMPDEST POP PUSH2 0x417 PUSH1 0x4 DUP1 CALLDATASIZE SUB PUSH1 0x20 DUP2 LT ISZERO PUSH2 0xA29 JUMPI PUSH1 0x0 DUP1 REVERT JUMPDEST POP CALLDATALOAD PUSH1 0x1 PUSH1 0x1 PUSH1 0xA0 SHL SUB AND PUSH2 0x28CD JUMP JUMPDEST CALLVALUE DUP1 ISZERO PUSH2 0xA45 JUMPI PUSH1 0x0 DUP1 REVERT JUMPDEST POP PUSH2 0x47F PUSH2 0x293F JUMP JUMPDEST CALLVALUE DUP1 ISZERO PUSH2 0xA5A JUMPI PUSH1 0x0 DUP1 REVERT JUMPDEST POP PUSH2 0x443 PUSH2 0x29A0 JUMP JUMPDEST PUSH2 0x417 PUSH1 0x4 DUP1 CALLDATASIZE SUB PUSH1 0x40 DUP2 LT ISZERO PUSH2 0xA79 JUMPI PUSH1 0x0 DUP1 REVERT JUMPDEST POP DUP1 CALLDATALOAD SWAP1 PUSH1 0x20 ADD CALLDATALOAD PUSH2 0x29A6 JUMP JUMPDEST CALLVALUE DUP1 ISZERO PUSH2 0xA92 JUMPI PUSH1 0x0 DUP1 REVERT JUMPDEST POP PUSH2 0x443 PUSH1 0x4 DUP1 CALLDATASIZE SUB PUSH1 0x20 DUP2 LT ISZERO PUSH2 0xAA9 JUMPI PUSH1 0x0 DUP1 REVERT JUMPDEST POP CALLDATALOAD PUSH1 0x1 PUSH1 0x1 PUSH1 0xA0 SHL SUB AND PUSH2 0x2A96 JUMP JUMPDEST CALLVALUE DUP1 ISZERO PUSH2 0xAC5 JUMPI PUSH1 0x0 DUP1 REVERT JUMPDEST POP PUSH2 0x417 PUSH1 0x4 DUP1 CALLDATASIZE SUB PUSH1 0x20 DUP2 LT ISZERO PUSH2 0xADC JUMPI PUSH1 0x0 DUP1 REVERT JUMPDEST POP CALLDATALOAD PUSH2 0x2AFE JUMP JUMPDEST PUSH2 0x417 PUSH1 0x4 DUP1 CALLDATASIZE SUB PUSH1 0x40 DUP2 LT ISZERO PUSH2 0xAF9 JUMPI PUSH1 0x0 DUP1 REVERT JUMPDEST POP DUP1 CALLDATALOAD SWAP1 PUSH1 0x20 ADD CALLDATALOAD PUSH2 0x2CF1 JUMP JUMPDEST CALLVALUE DUP1 ISZERO PUSH2 0xB12 JUMPI PUSH1 0x0 DUP1 REVERT JUMPDEST POP PUSH2 0x417 PUSH1 0x4 DUP1 CALLDATASIZE SUB PUSH1 0x20 DUP2 LT ISZERO PUSH2 0xB29 JUMPI PUSH1 0x0 DUP1 REVERT JUMPDEST POP CALLDATALOAD PUSH4 0xFFFFFFFF AND PUSH2 0x2E61 JUMP JUMPDEST CALLVALUE DUP1 ISZERO PUSH2 0xB42 JUMPI PUSH1 0x0 DUP1 REVERT JUMPDEST POP PUSH2 0xB60 PUSH1 0x4 DUP1 CALLDATASIZE SUB PUSH1 0x20 DUP2 LT ISZERO PUSH2 0xB59 JUMPI PUSH1 0x0 DUP1 REVERT JUMPDEST POP CALLDATALOAD PUSH2 0x2ECD JUMP JUMPDEST PUSH1 0x40 MLOAD DUP1 DUP9 DUP2 MSTORE PUSH1 0x20 ADD DUP8 DUP2 MSTORE PUSH1 0x20 ADD DUP7 DUP2 MSTORE PUSH1 0x20 ADD DUP1 PUSH1 0x20 ADD DUP6 PUSH4 0xFFFFFFFF AND DUP2 MSTORE PUSH1 0x20 ADD DUP5 DUP2 MSTORE PUSH1 0x20 ADD DUP4 ISZERO ISZERO DUP2 MSTORE PUSH1 0x20 ADD DUP3 DUP2 SUB DUP3 MSTORE DUP7 DUP2 DUP2 MLOAD DUP2 MSTORE PUSH1 0x20 ADD SWAP2 POP DUP1 MLOAD SWAP1 PUSH1 0x20 ADD SWAP1 DUP1 DUP4 DUP4 PUSH1 0x0 JUMPDEST DUP4 DUP2 LT ISZERO PUSH2 0xBC9 JUMPI DUP2 DUP2 ADD MLOAD DUP4 DUP3 ADD MSTORE PUSH1 0x20 ADD PUSH2 0xBB1 JUMP JUMPDEST POP POP POP POP SWAP1 POP SWAP1 DUP2 ADD SWAP1 PUSH1 0x1F AND DUP1 ISZERO PUSH2 0xBF6 JUMPI DUP1 DUP3 SUB DUP1 MLOAD PUSH1 0x1 DUP4 PUSH1 0x20 SUB PUSH2 0x100 EXP SUB NOT AND DUP2 MSTORE PUSH1 0x20 ADD SWAP2 POP JUMPDEST POP SWAP9 POP POP POP POP POP POP POP POP POP PUSH1 0x40 MLOAD DUP1 SWAP2 SUB SWAP1 RETURN JUMPDEST PUSH2 0x417 PUSH1 0x4 DUP1 CALLDATASIZE SUB PUSH1 0x40 DUP2 LT ISZERO PUSH2 0xC20 JUMPI PUSH1 0x0 DUP1 REVERT JUMPDEST POP DUP1 CALLDATALOAD SWAP1 PUSH1 0x20 ADD CALLDATALOAD PUSH1 0x1 PUSH1 0x1 PUSH1 0xA0 SHL SUB AND PUSH2 0x306E JUMP JUMPDEST CALLVALUE DUP1 ISZERO PUSH2 0xC42 JUMPI PUSH1 0x0 DUP1 REVERT JUMPDEST POP PUSH2 0x417 PUSH1 0x4 DUP1 CALLDATASIZE SUB PUSH1 0x20 DUP2 LT ISZERO PUSH2 0xC59 JUMPI PUSH1 0x0 DUP1 REVERT JUMPDEST POP CALLDATALOAD PUSH2 0x3148 JUMP JUMPDEST CALLVALUE DUP1 ISZERO PUSH2 0xC6C JUMPI PUSH1 0x0 DUP1 REVERT JUMPDEST POP PUSH2 0x443 PUSH2 0x319D JUMP JUMPDEST CALLVALUE DUP1 ISZERO PUSH2 0xC81 JUMPI PUSH1 0x0 DUP1 REVERT JUMPDEST POP PUSH2 0x443 PUSH2 0x31BB JUMP JUMPDEST CALLVALUE DUP1 ISZERO PUSH2 0xC96 JUMPI PUSH1 0x0 DUP1 REVERT JUMPDEST POP PUSH2 0x417 PUSH1 0x4 DUP1 CALLDATASIZE SUB PUSH1 0x40 DUP2 LT ISZERO PUSH2 0xCAD JUMPI PUSH1 0x0 DUP1 REVERT JUMPDEST POP DUP1 CALLDATALOAD SWAP1 PUSH1 0x20 ADD CALLDATALOAD PUSH2 0x31C7 JUMP JUMPDEST CALLVALUE DUP1 ISZERO PUSH2 0xCC6 JUMPI PUSH1 0x0 DUP1 REVERT JUMPDEST POP PUSH2 0x47F PUSH2 0x3252 JUMP JUMPDEST CALLVALUE DUP1 ISZERO PUSH2 0xCDB JUMPI PUSH1 0x0 DUP1 REVERT JUMPDEST POP PUSH2 0x417 PUSH1 0x4 DUP1 CALLDATASIZE SUB PUSH1 0x40 DUP2 LT ISZERO PUSH2 0xCF2 JUMPI PUSH1 0x0 DUP1 REVERT JUMPDEST POP PUSH1 0x1 PUSH1 0x1 PUSH1 0xA0 SHL SUB DUP2 CALLDATALOAD AND SWAP1 PUSH1 0x20 ADD CALLDATALOAD PUSH2 0x32B3 JUMP JUMPDEST PUSH2 0x417 PUSH2 0x343E JUMP JUMPDEST CALLVALUE DUP1 ISZERO PUSH2 0xD1C JUMPI PUSH1 0x0 DUP1 REVERT JUMPDEST POP PUSH2 0x417 PUSH1 0x4 DUP1 CALLDATASIZE SUB PUSH1 0x20 DUP2 LT ISZERO PUSH2 0xD33 JUMPI PUSH1 0x0 DUP1 REVERT JUMPDEST POP CALLDATALOAD PUSH2 0x34EC JUMP JUMPDEST CALLVALUE DUP1 ISZERO PUSH2 0xD46 JUMPI PUSH1 0x0 DUP1 REVERT JUMPDEST POP PUSH2 0x417 PUSH1 0x4 DUP1 CALLDATASIZE SUB PUSH1 0x40 DUP2 LT ISZERO PUSH2 0xD5D JUMPI PUSH1 0x0 DUP1 REVERT JUMPDEST POP PUSH1 0x1 PUSH1 0x1 PUSH1 0xA0 SHL SUB DUP2 CALLDATALOAD AND SWAP1 PUSH1 0x20 ADD CALLDATALOAD ISZERO ISZERO PUSH2 0x3541 JUMP JUMPDEST CALLVALUE DUP1 ISZERO PUSH2 0xD81 JUMPI PUSH1 0x0 DUP1 REVERT JUMPDEST POP PUSH2 0x443 PUSH1 0x4 DUP1 CALLDATASIZE SUB PUSH1 0x20 DUP2 LT ISZERO PUSH2 0xD98 JUMPI PUSH1 0x0 DUP1 REVERT JUMPDEST POP CALLDATALOAD PUSH1 0x1 PUSH1 0x1 PUSH1 0xA0 SHL SUB AND PUSH2 0x3646 JUMP JUMPDEST CALLVALUE DUP1 ISZERO PUSH2 0xDB4 JUMPI PUSH1 0x0 DUP1 REVERT JUMPDEST POP PUSH2 0x417 PUSH1 0x4 DUP1 CALLDATASIZE SUB PUSH1 0x80 DUP2 LT ISZERO PUSH2 0xDCB JUMPI PUSH1 0x0 DUP1 REVERT JUMPDEST PUSH1 0x1 PUSH1 0x1 PUSH1 0xA0 SHL SUB DUP3 CALLDATALOAD DUP2 AND SWAP3 PUSH1 0x20 DUP2 ADD CALLDATALOAD SWAP1 SWAP2 AND SWAP2 PUSH1 0x40 DUP3 ADD CALLDATALOAD SWAP2 SWAP1 DUP2 ADD SWAP1 PUSH1 0x80 DUP2 ADD PUSH1 0x60 DUP3 ADD CALLDATALOAD PUSH5 0x100000000 DUP2 GT ISZERO PUSH2 0xE06 JUMPI PUSH1 0x0 DUP1 REVERT JUMPDEST DUP3 ADD DUP4 PUSH1 0x20 DUP3 ADD GT ISZERO PUSH2 0xE18 JUMPI PUSH1 0x0 DUP1 REVERT JUMPDEST DUP1 CALLDATALOAD SWAP1 PUSH1 0x20 ADD SWAP2 DUP5 PUSH1 0x1 DUP4 MUL DUP5 ADD GT PUSH5 0x100000000 DUP4 GT OR ISZERO PUSH2 0xE3A JUMPI PUSH1 0x0 DUP1 REVERT JUMPDEST SWAP2 SWAP1 DUP1 DUP1 PUSH1 0x1F ADD PUSH1 0x20 DUP1 SWAP2 DIV MUL PUSH1 0x20 ADD PUSH1 0x40 MLOAD SWAP1 DUP2 ADD PUSH1 0x40 MSTORE DUP1 SWAP4 SWAP3 SWAP2 SWAP1 DUP2 DUP2 MSTORE PUSH1 0x20 ADD DUP4 DUP4 DUP1 DUP3 DUP5 CALLDATACOPY PUSH1 0x0 SWAP3 ADD SWAP2 SWAP1 SWAP2 MSTORE POP SWAP3 SWAP6 POP PUSH2 0x36C9 SWAP5 POP POP POP POP POP JUMP JUMPDEST CALLVALUE DUP1 ISZERO PUSH2 0xE87 JUMPI PUSH1 0x0 DUP1 REVERT JUMPDEST POP PUSH2 0x417 PUSH1 0x4 DUP1 CALLDATASIZE SUB PUSH1 0x60 DUP2 LT ISZERO PUSH2 0xE9E JUMPI PUSH1 0x0 DUP1 REVERT JUMPDEST POP PUSH1 0x1 PUSH1 0x1 PUSH1 0xA0 SHL SUB DUP2 CALLDATALOAD DUP2 AND SWAP2 PUSH1 0x20 DUP2 ADD CALLDATALOAD SWAP1 SWAP2 AND SWAP1 PUSH1 0x40 ADD CALLDATALOAD PUSH2 0x3727 JUMP JUMPDEST CALLVALUE DUP1 ISZERO PUSH2 0xECA JUMPI PUSH1 0x0 DUP1 REVERT JUMPDEST POP PUSH2 0x443 PUSH2 0x38AA JUMP JUMPDEST CALLVALUE DUP1 ISZERO PUSH2 0xEDF JUMPI PUSH1 0x0 DUP1 REVERT JUMPDEST POP PUSH2 0x443 PUSH2 0x38B0 JUMP JUMPDEST CALLVALUE DUP1 ISZERO PUSH2 0xEF4 JUMPI PUSH1 0x0 DUP1 REVERT JUMPDEST POP PUSH2 0x47F PUSH1 0x4 DUP1 CALLDATASIZE SUB PUSH1 0x20 DUP2 LT ISZERO PUSH2 0xF0B JUMPI PUSH1 0x0 DUP1 REVERT JUMPDEST POP CALLDATALOAD PUSH2 0x38B6 JUMP JUMPDEST CALLVALUE DUP1 ISZERO PUSH2 0xF1E JUMPI PUSH1 0x0 DUP1 REVERT JUMPDEST POP PUSH2 0x443 PUSH1 0x4 DUP1 CALLDATASIZE SUB PUSH1 0x20 DUP2 LT ISZERO PUSH2 0xF35 JUMPI PUSH1 0x0 DUP1 REVERT JUMPDEST POP CALLDATALOAD PUSH2 0x3B39 JUMP JUMPDEST CALLVALUE DUP1 ISZERO PUSH2 0xF48 JUMPI PUSH1 0x0 DUP1 REVERT JUMPDEST POP PUSH2 0x443 PUSH2 0x3B4A JUMP JUMPDEST CALLVALUE DUP1 ISZERO PUSH2 0xF5D JUMPI PUSH1 0x0 DUP1 REVERT JUMPDEST POP PUSH2 0x417 PUSH1 0x4 DUP1 CALLDATASIZE SUB PUSH1 0x40 DUP2 LT ISZERO PUSH2 0xF74 JUMPI PUSH1 0x0 DUP1 REVERT JUMPDEST DUP2 CALLDATALOAD SWAP2 SWAP1 DUP2 ADD SWAP1 PUSH1 0x40 DUP2 ADD PUSH1 0x20 DUP3 ADD CALLDATALOAD PUSH5 0x100000000 DUP2 GT ISZERO PUSH2 0xF96 JUMPI PUSH1 0x0 DUP1 REVERT JUMPDEST DUP3 ADD DUP4 PUSH1 0x20 DUP3 ADD GT ISZERO PUSH2 0xFA8 JUMPI PUSH1 0x0 DUP1 REVERT JUMPDEST DUP1 CALLDATALOAD SWAP1 PUSH1 0x20 ADD SWAP2 DUP5 PUSH1 0x1 DUP4 MUL DUP5 ADD GT PUSH5 0x100000000 DUP4 GT OR ISZERO PUSH2 0xFCA JUMPI PUSH1 0x0 DUP1 REVERT JUMPDEST SWAP2 SWAP1 DUP1 DUP1 PUSH1 0x1F ADD PUSH1 0x20 DUP1 SWAP2 DIV MUL PUSH1 0x20 ADD PUSH1 0x40 MLOAD SWAP1 DUP2 ADD PUSH1 0x40 MSTORE DUP1 SWAP4 SWAP3 SWAP2 SWAP1 DUP2 DUP2 MSTORE PUSH1 0x20 ADD DUP4 DUP4 DUP1 DUP3 DUP5 CALLDATACOPY PUSH1 0x0 SWAP3 ADD SWAP2 SWAP1 SWAP2 MSTORE POP SWAP3 SWAP6 POP PUSH2 0x3B50 SWAP5 POP POP POP POP POP JUMP JUMPDEST CALLVALUE DUP1 ISZERO PUSH2 0x1017 JUMPI PUSH1 0x0 DUP1 REVERT JUMPDEST POP PUSH2 0x528 PUSH1 0x4 DUP1 CALLDATASIZE SUB PUSH1 0x20 DUP2 LT ISZERO PUSH2 0x102E JUMPI PUSH1 0x0 DUP1 REVERT JUMPDEST POP CALLDATALOAD PUSH2 0x3B5A JUMP JUMPDEST CALLVALUE DUP1 ISZERO PUSH2 0x1041 JUMPI PUSH1 0x0 DUP1 REVERT JUMPDEST POP PUSH2 0x90E PUSH2 0x3B6F JUMP JUMPDEST CALLVALUE DUP1 ISZERO PUSH2 0x1056 JUMPI PUSH1 0x0 DUP1 REVERT JUMPDEST POP PUSH2 0x528 PUSH1 0x4 DUP1 CALLDATASIZE SUB PUSH1 0x40 DUP2 LT ISZERO PUSH2 0x106D JUMPI PUSH1 0x0 DUP1 REVERT JUMPDEST POP PUSH1 0x1 PUSH1 0x1 PUSH1 0xA0 SHL SUB DUP2 CALLDATALOAD DUP2 AND SWAP2 PUSH1 0x20 ADD CALLDATALOAD AND PUSH2 0x3C38 JUMP JUMPDEST CALLVALUE DUP1 ISZERO PUSH2 0x1091 JUMPI PUSH1 0x0 DUP1 REVERT JUMPDEST POP PUSH2 0x417 PUSH1 0x4 DUP1 CALLDATASIZE SUB PUSH1 0x20 DUP2 LT ISZERO PUSH2 0x10A8 JUMPI PUSH1 0x0 DUP1 REVERT JUMPDEST POP CALLDATALOAD PUSH2 0x3C66 JUMP JUMPDEST CALLVALUE DUP1 ISZERO PUSH2 0x10BB JUMPI PUSH1 0x0 DUP1 REVERT JUMPDEST POP PUSH2 0x417 PUSH1 0x4 DUP1 CALLDATASIZE SUB PUSH1 0x20 DUP2 LT ISZERO PUSH2 0x10D2 JUMPI PUSH1 0x0 DUP1 REVERT JUMPDEST POP CALLDATALOAD PUSH2 0x3CBB JUMP JUMPDEST CALLVALUE DUP1 ISZERO PUSH2 0x10E5 JUMPI PUSH1 0x0 DUP1 REVERT JUMPDEST POP PUSH2 0x5CF PUSH1 0x4 DUP1 CALLDATASIZE SUB PUSH1 0x20 DUP2 LT ISZERO PUSH2 0x10FC JUMPI PUSH1 0x0 DUP1 REVERT JUMPDEST POP CALLDATALOAD PUSH2 0x3D10 JUMP JUMPDEST CALLVALUE DUP1 ISZERO PUSH2 0x110F JUMPI PUSH1 0x0 DUP1 REVERT JUMPDEST POP PUSH2 0x417 PUSH2 0x3D2B JUMP JUMPDEST DUP2 PUSH1 0x13 PUSH1 0x0 PUSH1 0x11 DUP4 DUP2 SLOAD DUP2 LT PUSH2 0x112A JUMPI INVALID JUMPDEST PUSH1 0x0 SWAP2 DUP3 MSTORE PUSH1 0x20 DUP1 DUP4 KECCAK256 PUSH1 0x8 SWAP3 SWAP1 SWAP3 MUL SWAP1 SWAP2 ADD PUSH1 0x5 ADD SLOAD DUP4 MSTORE DUP3 ADD SWAP3 SWAP1 SWAP3 MSTORE PUSH1 0x40 ADD SWAP1 KECCAK256 SLOAD PUSH1 0x1 PUSH1 0x1 PUSH1 0xA0 SHL SUB AND CALLER EQ PUSH2 0x11A4 JUMPI PUSH1 0x40 DUP1 MLOAD PUSH3 0x461BCD PUSH1 0xE5 SHL DUP2 MSTORE PUSH1 0x20 PUSH1 0x4 DUP3 ADD MSTORE PUSH1 0x16 PUSH1 0x24 DUP3 ADD MSTORE PUSH22 0x2A9030B932B713BA103A34329037333A1027BBB732B9 PUSH1 0x51 SHL PUSH1 0x44 DUP3 ADD MSTORE SWAP1 MLOAD SWAP1 DUP2 SWAP1 SUB PUSH1 0x64 ADD SWAP1 REVERT JUMPDEST PUSH1 0xC SLOAD PUSH1 0x40 DUP1 MLOAD PUSH4 0x3DB1CDBF PUSH1 0xE2 SHL DUP2 MSTORE CALLER PUSH1 0x4 DUP3 ADD DUP2 SWAP1 MSTORE SWAP2 MLOAD SWAP2 SWAP3 PUSH8 0x8AC7230489E80000 SWAP3 DUP4 SWAP3 PUSH1 0x1 PUSH1 0x1 PUSH1 0xA0 SHL SUB SWAP1 SWAP3 AND SWAP2 PUSH4 0xF6C736FC SWAP2 PUSH1 0x24 DUP1 DUP4 ADD SWAP3 PUSH1 0x20 SWAP3 SWAP2 SWAP1 DUP3 SWAP1 SUB ADD DUP2 DUP7 DUP1 EXTCODESIZE ISZERO DUP1 ISZERO PUSH2 0x11FE JUMPI PUSH1 0x0 DUP1 REVERT JUMPDEST POP GAS STATICCALL ISZERO DUP1 ISZERO PUSH2 0x1212 JUMPI RETURNDATASIZE PUSH1 0x0 DUP1 RETURNDATACOPY RETURNDATASIZE PUSH1 0x0 REVERT JUMPDEST POP POP POP POP PUSH1 0x40 MLOAD RETURNDATASIZE PUSH1 0x20 DUP2 LT ISZERO PUSH2 0x1228 JUMPI PUSH1 0x0 DUP1 REVERT JUMPDEST POP MLOAD LT ISZERO PUSH2 0x126E JUMPI PUSH1 0x40 DUP1 MLOAD PUSH3 0x461BCD PUSH1 0xE5 SHL DUP2 MSTORE PUSH1 0x20 PUSH1 0x4 DUP3 ADD MSTORE PUSH1 0xE PUSH1 0x24 DUP3 ADD MSTORE PUSH14 0x4E6F7420656E6F75676820554A47 PUSH1 0x90 SHL PUSH1 0x44 DUP3 ADD MSTORE SWAP1 MLOAD SWAP1 DUP2 SWAP1 SUB PUSH1 0x64 ADD SWAP1 REVERT JUMPDEST PUSH2 0x1280 PUSH8 0x8AC7230489E80000 CALLER PUSH2 0x3D60 JUMP JUMPDEST PUSH1 0x1 PUSH1 0x11 DUP7 DUP2 SLOAD DUP2 LT PUSH2 0x128F JUMPI INVALID JUMPDEST SWAP1 PUSH1 0x0 MSTORE PUSH1 0x20 PUSH1 0x0 KECCAK256 SWAP1 PUSH1 0x8 MUL ADD PUSH1 0x6 ADD PUSH1 0x0 PUSH2 0x100 EXP DUP2 SLOAD DUP2 PUSH1 0xFF MUL NOT AND SWAP1 DUP4 ISZERO ISZERO MUL OR SWAP1 SSTORE POP DUP4 PUSH1 0x11 DUP7 DUP2 SLOAD DUP2 LT PUSH2 0x12C5 JUMPI INVALID JUMPDEST PUSH1 0x0 SWAP2 DUP3 MSTORE PUSH1 0x20 SWAP1 SWAP2 KECCAK256 PUSH1 0x7 PUSH1 0x8 SWAP1 SWAP3 MUL ADD ADD SSTORE PUSH1 0x1F SLOAD PUSH1 0x11 DUP1 SLOAD PUSH2 0x1313 SWAP3 CALLER SWAP3 PUSH1 0x1 PUSH1 0x1 PUSH1 0xA0 SHL SUB SWAP1 SWAP2 AND SWAP2 DUP10 SWAP1 DUP2 LT PUSH2 0x12FC JUMPI INVALID JUMPDEST SWAP1 PUSH1 0x0 MSTORE PUSH1 0x20 PUSH1 0x0 KECCAK256 SWAP1 PUSH1 0x8 MUL ADD PUSH1 0x5 ADD SLOAD PUSH2 0x3DE0 JUMP JUMPDEST PUSH1 0x1F DUP1 SLOAD PUSH1 0x1 PUSH1 0x1 PUSH1 0xA0 SHL SUB SWAP1 DUP2 AND PUSH1 0x0 SWAP1 DUP2 MSTORE PUSH1 0x12 PUSH1 0x20 MSTORE PUSH1 0x40 SWAP1 KECCAK256 DUP1 SLOAD PUSH1 0x1 ADD SWAP1 SSTORE SWAP1 SLOAD PUSH1 0x11 DUP1 SLOAD PUSH1 0x0 DUP1 MLOAD PUSH1 0x20 PUSH2 0x5620 DUP4 CODECOPY DUP2 MLOAD SWAP2 MSTORE SWAP4 CALLER SWAP4 AND SWAP2 SWAP1 DUP10 SWAP1 DUP2 LT PUSH2 0x135C JUMPI INVALID JUMPDEST SWAP1 PUSH1 0x0 MSTORE PUSH1 0x20 PUSH1 0x0 KECCAK256 SWAP1 PUSH1 0x8 MUL ADD PUSH1 0x5 ADD SLOAD PUSH8 0x8AC7230489E80000 PUSH1 0x40 MLOAD DUP1 DUP6 PUSH1 0x1 PUSH1 0x1 PUSH1 0xA0 SHL SUB AND DUP2 MSTORE PUSH1 0x20 ADD DUP5 PUSH1 0x1 PUSH1 0x1 PUSH1 0xA0 SHL SUB AND DUP2 MSTORE PUSH1 0x20 ADD DUP4 DUP2 MSTORE PUSH1 0x20 ADD DUP3 DUP2 MSTORE PUSH1 0x20 ADD SWAP5 POP POP POP POP POP PUSH1 0x40 MLOAD DUP1 SWAP2 SUB SWAP1 LOG1 POP POP POP POP POP JUMP JUMPDEST PUSH1 0x28 DUP2 MUL JUMPDEST SWAP2 SWAP1 POP JUMP JUMPDEST PUSH1 0x60 PUSH2 0x13CF DUP3 PUSH2 0x38B6 JUMP JUMPDEST SWAP3 SWAP2 POP POP JUMP JUMPDEST PUSH1 0x1 PUSH1 0x1 PUSH1 0xE0 SHL SUB NOT AND PUSH1 0x0 SWAP1 DUP2 MSTORE PUSH1 0x1 PUSH1 0x20 MSTORE PUSH1 0x40 SWAP1 KECCAK256 SLOAD PUSH1 0xFF AND SWAP1 JUMP JUMPDEST DUP1 PUSH1 0x13 PUSH1 0x0 PUSH1 0x11 DUP4 DUP2 SLOAD DUP2 LT PUSH2 0x1406 JUMPI INVALID JUMPDEST PUSH1 0x0 SWAP2 DUP3 MSTORE PUSH1 0x20 DUP1 DUP4 KECCAK256 PUSH1 0x8 SWAP3 SWAP1 SWAP3 MUL SWAP1 SWAP2 ADD PUSH1 0x5 ADD SLOAD DUP4 MSTORE DUP3 ADD SWAP3 SWAP1 SWAP3 MSTORE PUSH1 0x40 ADD SWAP1 KECCAK256 SLOAD PUSH1 0x1 PUSH1 0x1 PUSH1 0xA0 SHL SUB AND CALLER EQ PUSH2 0x1480 JUMPI PUSH1 0x40 DUP1 MLOAD PUSH3 0x461BCD PUSH1 0xE5 SHL DUP2 MSTORE PUSH1 0x20 PUSH1 0x4 DUP3 ADD MSTORE PUSH1 0x16 PUSH1 0x24 DUP3 ADD MSTORE PUSH22 0x2A9030B932B713BA103A34329037333A1027BBB732B9 PUSH1 0x51 SHL PUSH1 0x44 DUP3 ADD MSTORE SWAP1 MLOAD SWAP1 DUP2 SWAP1 SUB PUSH1 0x64 ADD SWAP1 REVERT JUMPDEST DUP2 PUSH1 0x11 DUP2 DUP2 SLOAD DUP2 LT PUSH2 0x148E JUMPI INVALID JUMPDEST PUSH1 0x0 SWAP2 DUP3 MSTORE PUSH1 0x20 SWAP1 SWAP2 KECCAK256 PUSH1 0x6 PUSH1 0x8 SWAP1 SWAP3 MUL ADD ADD SLOAD PUSH1 0xFF AND ISZERO PUSH2 0x14F3 JUMPI PUSH1 0x40 DUP1 MLOAD PUSH3 0x461BCD PUSH1 0xE5 SHL DUP2 MSTORE PUSH1 0x20 PUSH1 0x4 DUP3 ADD MSTORE PUSH1 0x19 PUSH1 0x24 DUP3 ADD MSTORE PUSH25 0x151A194814DD1D59195B9D08185C99481A5B881B585C9AD95D PUSH1 0x3A SHL PUSH1 0x44 DUP3 ADD MSTORE SWAP1 MLOAD SWAP1 DUP2 SWAP1 SUB PUSH1 0x64 ADD SWAP1 REVERT JUMPDEST PUSH1 0x0 CALLER SWAP1 POP PUSH1 0x0 PUSH1 0x11 DUP6 DUP2 SLOAD DUP2 LT PUSH2 0x1507 JUMPI INVALID JUMPDEST SWAP1 PUSH1 0x0 MSTORE PUSH1 0x20 PUSH1 0x0 KECCAK256 SWAP1 PUSH1 0x8 MUL ADD PUSH1 0x5 ADD SLOAD SWAP1 POP PUSH2 0x1527 DUP3 PUSH1 0x0 DUP4 PUSH2 0x1AF8 JUMP JUMPDEST PUSH1 0x1 PUSH1 0x1 PUSH1 0xA0 SHL SUB DUP3 AND PUSH1 0x0 SWAP1 DUP2 MSTORE PUSH1 0x12 PUSH1 0x20 SWAP1 DUP2 MSTORE PUSH1 0x40 DUP1 DUP4 KECCAK256 DUP1 SLOAD PUSH1 0x0 NOT ADD SWAP1 SSTORE DUP4 DUP4 MSTORE PUSH1 0x13 SWAP1 SWAP2 MSTORE SWAP1 KECCAK256 DUP1 SLOAD PUSH1 0x1 PUSH1 0x1 PUSH1 0xA0 SHL SUB NOT AND SWAP1 SSTORE PUSH1 0x11 DUP1 SLOAD DUP7 SWAP1 DUP2 LT PUSH2 0x1570 JUMPI INVALID JUMPDEST PUSH1 0x0 SWAP2 DUP3 MSTORE PUSH1 0x20 DUP3 KECCAK256 PUSH1 0x8 SWAP1 SWAP2 MUL ADD DUP2 DUP2 SSTORE PUSH1 0x1 DUP2 ADD DUP3 SWAP1 SSTORE PUSH1 0x2 DUP2 ADD DUP3 SWAP1 SSTORE SWAP1 PUSH2 0x159E PUSH1 0x3 DUP4 ADD DUP3 PUSH2 0x524F JUMP JUMPDEST POP PUSH1 0x4 DUP2 ADD DUP1 SLOAD PUSH4 0xFFFFFFFF NOT AND SWAP1 SSTORE PUSH1 0x0 PUSH1 0x5 DUP3 ADD DUP2 SWAP1 SSTORE PUSH1 0x6 DUP3 ADD DUP1 SLOAD PUSH1 0xFF NOT AND SWAP1 SSTORE PUSH1 0x7 SWAP1 SWAP2 ADD SSTORE PUSH1 0x20 SLOAD PUSH2 0x15D6 SWAP1 CALLER PUSH2 0x3F2C JUMP JUMPDEST PUSH1 0x1B DUP1 SLOAD PUSH1 0x0 NOT ADD SWAP1 SSTORE PUSH1 0x20 DUP1 SLOAD PUSH1 0x40 DUP1 MLOAD CALLER DUP2 MSTORE PUSH1 0x0 SWAP4 DUP2 ADD SWAP4 SWAP1 SWAP4 MSTORE DUP3 DUP2 ADD DUP5 SWAP1 MSTORE PUSH1 0x60 DUP4 ADD SWAP2 SWAP1 SWAP2 MSTORE MLOAD PUSH1 0x0 DUP1 MLOAD PUSH1 0x20 PUSH2 0x5620 DUP4 CODECOPY DUP2 MLOAD SWAP2 MSTORE SWAP2 DUP2 SWAP1 SUB PUSH1 0x80 ADD SWAP1 LOG1 POP POP POP POP POP JUMP JUMPDEST DUP1 PUSH1 0x13 PUSH1 0x0 PUSH1 0x11 DUP4 DUP2 SLOAD DUP2 LT PUSH2 0x1634 JUMPI INVALID JUMPDEST PUSH1 0x0 SWAP2 DUP3 MSTORE PUSH1 0x20 DUP1 DUP4 KECCAK256 PUSH1 0x8 SWAP3 SWAP1 SWAP3 MUL SWAP1 SWAP2 ADD PUSH1 0x5 ADD SLOAD DUP4 MSTORE DUP3 ADD SWAP3 SWAP1 SWAP3 MSTORE PUSH1 0x40 ADD SWAP1 KECCAK256 SLOAD PUSH1 0x1 PUSH1 0x1 PUSH1 0xA0 SHL SUB AND CALLER EQ PUSH2 0x16AE JUMPI PUSH1 0x40 DUP1 MLOAD PUSH3 0x461BCD PUSH1 0xE5 SHL DUP2 MSTORE PUSH1 0x20 PUSH1 0x4 DUP3 ADD MSTORE PUSH1 0x16 PUSH1 0x24 DUP3 ADD MSTORE PUSH22 0x2A9030B932B713BA103A34329037333A1027BBB732B9 PUSH1 0x51 SHL PUSH1 0x44 DUP3 ADD MSTORE SWAP1 MLOAD SWAP1 DUP2 SWAP1 SUB PUSH1 0x64 ADD SWAP1 REVERT JUMPDEST PUSH1 0xC SLOAD PUSH1 0x40 DUP1 MLOAD PUSH4 0x3DB1CDBF PUSH1 0xE2 SHL DUP2 MSTORE CALLER PUSH1 0x4 DUP3 ADD DUP2 SWAP1 MSTORE SWAP2 MLOAD SWAP2 SWAP3 PUSH8 0x8AC7230489E80000 SWAP3 DUP4 SWAP3 PUSH1 0x1 PUSH1 0x1 PUSH1 0xA0 SHL SUB SWAP1 SWAP3 AND SWAP2 PUSH4 0xF6C736FC SWAP2 PUSH1 0x24 DUP1 DUP4 ADD SWAP3 PUSH1 0x20 SWAP3 SWAP2 SWAP1 DUP3 SWAP1 SUB ADD DUP2 DUP7 DUP1 EXTCODESIZE ISZERO DUP1 ISZERO PUSH2 0x1708 JUMPI PUSH1 0x0 DUP1 REVERT JUMPDEST POP GAS STATICCALL ISZERO DUP1 ISZERO PUSH2 0x171C JUMPI RETURNDATASIZE PUSH1 0x0 DUP1 RETURNDATACOPY RETURNDATASIZE PUSH1 0x0 REVERT JUMPDEST POP POP POP POP PUSH1 0x40 MLOAD RETURNDATASIZE PUSH1 0x20 DUP2 LT ISZERO PUSH2 0x1732 JUMPI PUSH1 0x0 DUP1 REVERT JUMPDEST POP MLOAD LT ISZERO PUSH2 0x1778 JUMPI PUSH1 0x40 DUP1 MLOAD PUSH3 0x461BCD PUSH1 0xE5 SHL DUP2 MSTORE PUSH1 0x20 PUSH1 0x4 DUP3 ADD MSTORE PUSH1 0xE PUSH1 0x24 DUP3 ADD MSTORE PUSH14 0x4E6F7420656E6F75676820554A47 PUSH1 0x90 SHL PUSH1 0x44 DUP3 ADD MSTORE SWAP1 MLOAD SWAP1 DUP2 SWAP1 SUB PUSH1 0x64 ADD SWAP1 REVERT JUMPDEST DUP4 PUSH1 0x11 DUP2 DUP2 SLOAD DUP2 LT PUSH2 0x1786 JUMPI INVALID JUMPDEST PUSH1 0x0 SWAP2 DUP3 MSTORE PUSH1 0x20 SWAP1 SWAP2 KECCAK256 PUSH1 0x6 PUSH1 0x8 SWAP1 SWAP3 MUL ADD ADD SLOAD PUSH1 0xFF AND PUSH2 0x17D8 JUMPI PUSH1 0x40 MLOAD PUSH3 0x461BCD PUSH1 0xE5 SHL DUP2 MSTORE PUSH1 0x4 ADD DUP1 DUP1 PUSH1 0x20 ADD DUP3 DUP2 SUB DUP3 MSTORE PUSH1 0x30 DUP2 MSTORE PUSH1 0x20 ADD DUP1 PUSH2 0x5446 PUSH1 0x30 SWAP2 CODECOPY PUSH1 0x40 ADD SWAP2 POP POP PUSH1 0x40 MLOAD DUP1 SWAP2 SUB SWAP1 REVERT JUMPDEST PUSH1 0x0 PUSH1 0x13 PUSH1 0x0 PUSH1 0x11 DUP9 DUP2 SLOAD DUP2 LT PUSH2 0x17EB JUMPI INVALID JUMPDEST SWAP1 PUSH1 0x0 MSTORE PUSH1 0x20 PUSH1 0x0 KECCAK256 SWAP1 PUSH1 0x8 MUL ADD PUSH1 0x5 ADD SLOAD DUP2 MSTORE PUSH1 0x20 ADD SWAP1 DUP2 MSTORE PUSH1 0x20 ADD PUSH1 0x0 KECCAK256 PUSH1 0x0 SWAP1 SLOAD SWAP1 PUSH2 0x100 EXP SWAP1 DIV PUSH1 0x1 PUSH1 0x1 PUSH1 0xA0 SHL SUB AND SWAP1 POP PUSH2 0x1833 PUSH8 0x8AC7230489E80000 DUP3 PUSH2 0x3D60 JUMP JUMPDEST PUSH1 0x1F SLOAD PUSH1 0x11 DUP1 SLOAD PUSH2 0x1854 SWAP3 PUSH1 0x1 PUSH1 0x1 PUSH1 0xA0 SHL SUB AND SWAP2 DUP5 SWAP2 DUP11 SWAP1 DUP2 LT PUSH2 0x12FC JUMPI INVALID JUMPDEST PUSH1 0x0 PUSH1 0x11 DUP8 DUP2 SLOAD DUP2 LT PUSH2 0x1863 JUMPI INVALID JUMPDEST PUSH1 0x0 SWAP2 DUP3 MSTORE PUSH1 0x20 DUP1 DUP4 KECCAK256 PUSH1 0x8 SWAP3 SWAP1 SWAP3 MUL SWAP1 SWAP2 ADD PUSH1 0x6 ADD DUP1 SLOAD PUSH1 0xFF NOT AND SWAP4 ISZERO ISZERO SWAP4 SWAP1 SWAP4 OR SWAP1 SWAP3 SSTORE PUSH1 0x1F SLOAD PUSH1 0x1 PUSH1 0x1 PUSH1 0xA0 SHL SUB AND DUP2 MSTORE PUSH1 0x12 SWAP1 SWAP2 MSTORE PUSH1 0x40 SWAP1 KECCAK256 DUP1 SLOAD PUSH1 0x0 NOT ADD SWAP1 SSTORE PUSH1 0x11 DUP1 SLOAD PUSH1 0x0 DUP1 MLOAD PUSH1 0x20 PUSH2 0x5620 DUP4 CODECOPY DUP2 MLOAD SWAP2 MSTORE SWAP2 CALLER SWAP2 DUP3 SWAP2 SWAP1 DUP11 SWAP1 DUP2 LT PUSH2 0x18CB JUMPI INVALID JUMPDEST SWAP1 PUSH1 0x0 MSTORE PUSH1 0x20 PUSH1 0x0 KECCAK256 SWAP1 PUSH1 0x8 MUL ADD PUSH1 0x5 ADD SLOAD PUSH8 0x8AC7230489E80000 PUSH1 0x40 MLOAD DUP1 DUP6 PUSH1 0x1 PUSH1 0x1 PUSH1 0xA0 SHL SUB AND DUP2 MSTORE PUSH1 0x20 ADD DUP5 PUSH1 0x1 PUSH1 0x1 PUSH1 0xA0 SHL SUB AND DUP2 MSTORE PUSH1 0x20 ADD DUP4 DUP2 MSTORE PUSH1 0x20 ADD DUP3 DUP2 MSTORE PUSH1 0x20 ADD SWAP5 POP POP POP POP POP PUSH1 0x40 MLOAD DUP1 SWAP2 SUB SWAP1 LOG1 POP POP POP POP POP POP JUMP JUMPDEST PUSH1 0x7 DUP1 SLOAD PUSH1 0x40 DUP1 MLOAD PUSH1 0x20 PUSH1 0x1F PUSH1 0x2 PUSH1 0x0 NOT PUSH2 0x100 PUSH1 0x1 DUP9 AND ISZERO MUL ADD SWAP1 SWAP6 AND SWAP5 SWAP1 SWAP5 DIV SWAP4 DUP5 ADD DUP2 SWAP1 DIV DUP2 MUL DUP3 ADD DUP2 ADD SWAP1 SWAP3 MSTORE DUP3 DUP2 MSTORE PUSH1 0x60 SWAP4 SWAP1 SWAP3 SWAP1 SWAP2 DUP4 ADD DUP3 DUP3 DUP1 ISZERO PUSH2 0x19B6 JUMPI DUP1 PUSH1 0x1F LT PUSH2 0x198B JUMPI PUSH2 0x100 DUP1 DUP4 SLOAD DIV MUL DUP4 MSTORE SWAP2 PUSH1 0x20 ADD SWAP2 PUSH2 0x19B6 JUMP JUMPDEST DUP3 ADD SWAP2 SWAP1 PUSH1 0x0 MSTORE PUSH1 0x20 PUSH1 0x0 KECCAK256 SWAP1 JUMPDEST DUP2 SLOAD DUP2 MSTORE SWAP1 PUSH1 0x1 ADD SWAP1 PUSH1 0x20 ADD DUP1 DUP4 GT PUSH2 0x1999 JUMPI DUP3 SWAP1 SUB PUSH1 0x1F AND DUP3 ADD SWAP2 JUMPDEST POP POP POP POP POP SWAP1 POP SWAP1 JUMP JUMPDEST PUSH1 0x0 PUSH2 0x19CB DUP3 PUSH2 0x3FAD JUMP JUMPDEST PUSH2 0x1A06 JUMPI PUSH1 0x40 MLOAD PUSH3 0x461BCD PUSH1 0xE5 SHL DUP2 MSTORE PUSH1 0x4 ADD DUP1 DUP1 PUSH1 0x20 ADD DUP3 DUP2 SUB DUP3 MSTORE PUSH1 0x2C DUP2 MSTORE PUSH1 0x20 ADD DUP1 PUSH2 0x554F PUSH1 0x2C SWAP2 CODECOPY PUSH1 0x40 ADD SWAP2 POP POP PUSH1 0x40 MLOAD DUP1 SWAP2 SUB SWAP1 REVERT JUMPDEST POP PUSH1 0x0 SWAP1 DUP2 MSTORE PUSH1 0x5 PUSH1 0x20 MSTORE PUSH1 0x40 SWAP1 KECCAK256 SLOAD PUSH1 0x1 PUSH1 0x1 PUSH1 0xA0 SHL SUB AND SWAP1 JUMP JUMPDEST PUSH1 0x0 PUSH2 0x1A2D DUP3 PUSH2 0x28A5 JUMP JUMPDEST SWAP1 POP DUP1 PUSH1 0x1 PUSH1 0x1 PUSH1 0xA0 SHL SUB AND DUP4 PUSH1 0x1 PUSH1 0x1 PUSH1 0xA0 SHL SUB AND EQ ISZERO PUSH2 0x1A80 JUMPI PUSH1 0x40 MLOAD PUSH3 0x461BCD PUSH1 0xE5 SHL DUP2 MSTORE PUSH1 0x4 ADD DUP1 DUP1 PUSH1 0x20 ADD DUP3 DUP2 SUB DUP3 MSTORE PUSH1 0x21 DUP2 MSTORE PUSH1 0x20 ADD DUP1 PUSH2 0x55FF PUSH1 0x21 SWAP2 CODECOPY PUSH1 0x40 ADD SWAP2 POP POP PUSH1 0x40 MLOAD DUP1 SWAP2 SUB SWAP1 REVERT JUMPDEST DUP1 PUSH1 0x1 PUSH1 0x1 PUSH1 0xA0 SHL SUB AND PUSH2 0x1A92 PUSH2 0x3FBA JUMP JUMPDEST PUSH1 0x1 PUSH1 0x1 PUSH1 0xA0 SHL SUB AND EQ DUP1 PUSH2 0x1AB3 JUMPI POP PUSH2 0x1AB3 DUP2 PUSH2 0x1AAE PUSH2 0x3FBA JUMP JUMPDEST PUSH2 0x3C38 JUMP JUMPDEST PUSH2 0x1AEE JUMPI PUSH1 0x40 MLOAD PUSH3 0x461BCD PUSH1 0xE5 SHL DUP2 MSTORE PUSH1 0x4 ADD DUP1 DUP1 PUSH1 0x20 ADD DUP3 DUP2 SUB DUP3 MSTORE PUSH1 0x38 DUP2 MSTORE PUSH1 0x20 ADD DUP1 PUSH2 0x54A2 PUSH1 0x38 SWAP2 CODECOPY PUSH1 0x40 ADD SWAP2 POP POP PUSH1 0x40 MLOAD DUP1 SWAP2 SUB SWAP1 REVERT JUMPDEST PUSH2 0x1AF8 DUP4 DUP4 PUSH2 0x3FBE JUMP JUMPDEST POP POP POP JUMP JUMPDEST PUSH1 0x0 SLOAD PUSH1 0x1 PUSH1 0x1 PUSH1 0xA0 SHL SUB AND SWAP1 JUMP JUMPDEST PUSH1 0x0 DUP1 JUMPDEST PUSH1 0x11 SLOAD DUP2 LT ISZERO PUSH2 0x1B4F JUMPI PUSH1 0x11 DUP2 DUP2 SLOAD DUP2 LT PUSH2 0x1B27 JUMPI INVALID JUMPDEST SWAP1 PUSH1 0x0 MSTORE PUSH1 0x20 PUSH1 0x0 KECCAK256 SWAP1 PUSH1 0x8 MUL ADD PUSH1 0x5 ADD SLOAD DUP4 EQ ISZERO PUSH2 0x1B47 JUMPI SWAP1 POP PUSH2 0x13BF JUMP JUMPDEST PUSH1 0x1 ADD PUSH2 0x1B10 JUMP JUMPDEST POP SWAP2 SWAP1 POP JUMP JUMPDEST PUSH1 0x18 SLOAD SWAP1 JUMP JUMPDEST PUSH1 0x1 PUSH1 0x1 PUSH1 0xA0 SHL SUB AND PUSH1 0x0 SWAP1 DUP2 MSTORE PUSH1 0x12 PUSH1 0x20 MSTORE PUSH1 0x40 SWAP1 KECCAK256 SLOAD SWAP1 JUMP JUMPDEST PUSH1 0x0 PUSH2 0x1B82 PUSH1 0x3 PUSH2 0x402C JUMP JUMPDEST SWAP1 POP SWAP1 JUMP JUMPDEST CALLER PUSH1 0x11 DUP3 DUP2 SLOAD DUP2 LT PUSH2 0x1B95 JUMPI INVALID JUMPDEST PUSH1 0x0 SWAP2 DUP3 MSTORE PUSH1 0x20 SWAP2 DUP3 SWAP1 KECCAK256 PUSH1 0x7 PUSH1 0x8 SWAP1 SWAP3 MUL ADD ADD SLOAD PUSH1 0xC SLOAD PUSH1 0x40 DUP1 MLOAD PUSH4 0x3DB1CDBF PUSH1 0xE2 SHL DUP2 MSTORE PUSH1 0x1 PUSH1 0x1 PUSH1 0xA0 SHL SUB DUP7 DUP2 AND PUSH1 0x4 DUP4 ADD MSTORE SWAP2 MLOAD SWAP4 SWAP5 DUP6 SWAP5 SWAP3 SWAP1 SWAP4 AND SWAP3 PUSH4 0xF6C736FC SWAP3 PUSH1 0x24 DUP1 DUP5 ADD SWAP4 DUP3 SWAP1 SUB ADD DUP2 DUP7 DUP1 EXTCODESIZE ISZERO DUP1 ISZERO PUSH2 0x1BF6 JUMPI PUSH1 0x0 DUP1 REVERT JUMPDEST POP GAS STATICCALL ISZERO DUP1 ISZERO PUSH2 0x1C0A JUMPI RETURNDATASIZE PUSH1 0x0 DUP1 RETURNDATACOPY RETURNDATASIZE PUSH1 0x0 REVERT JUMPDEST POP POP POP POP PUSH1 0x40 MLOAD RETURNDATASIZE PUSH1 0x20 DUP2 LT ISZERO PUSH2 0x1C20 JUMPI PUSH1 0x0 DUP1 REVERT JUMPDEST POP MLOAD LT ISZERO PUSH2 0x1C66 JUMPI PUSH1 0x40 DUP1 MLOAD PUSH3 0x461BCD PUSH1 0xE5 SHL DUP2 MSTORE PUSH1 0x20 PUSH1 0x4 DUP3 ADD MSTORE PUSH1 0xE PUSH1 0x24 DUP3 ADD MSTORE PUSH14 0x4E6F7420656E6F75676820554A47 PUSH1 0x90 SHL PUSH1 0x44 DUP3 ADD MSTORE SWAP1 MLOAD SWAP1 DUP2 SWAP1 SUB PUSH1 0x64 ADD SWAP1 REVERT JUMPDEST DUP3 PUSH1 0x11 DUP2 DUP2 SLOAD DUP2 LT PUSH2 0x1C74 JUMPI INVALID JUMPDEST PUSH1 0x0 SWAP2 DUP3 MSTORE PUSH1 0x20 SWAP1 SWAP2 KECCAK256 PUSH1 0x6 PUSH1 0x8 SWAP1 SWAP3 MUL ADD ADD SLOAD PUSH1 0xFF AND PUSH2 0x1CC6 JUMPI PUSH1 0x40 MLOAD PUSH3 0x461BCD PUSH1 0xE5 SHL DUP2 MSTORE PUSH1 0x4 ADD DUP1 DUP1 PUSH1 0x20 ADD DUP3 DUP2 SUB DUP3 MSTORE PUSH1 0x30 DUP2 MSTORE PUSH1 0x20 ADD DUP1 PUSH2 0x5446 PUSH1 0x30 SWAP2 CODECOPY PUSH1 0x40 ADD SWAP2 POP POP PUSH1 0x40 MLOAD DUP1 SWAP2 SUB SWAP1 REVERT JUMPDEST PUSH1 0x0 PUSH1 0x11 DUP6 DUP2 SLOAD DUP2 LT PUSH2 0x1CD5 JUMPI INVALID JUMPDEST SWAP1 PUSH1 0x0 MSTORE PUSH1 0x20 PUSH1 0x0 KECCAK256 SWAP1 PUSH1 0x8 MUL ADD PUSH1 0x7 ADD SLOAD SWAP1 POP PUSH1 0x0 PUSH1 0x13 PUSH1 0x0 PUSH1 0x11 DUP9 DUP2 SLOAD DUP2 LT PUSH2 0x1CFC JUMPI INVALID JUMPDEST PUSH1 0x0 SWAP2 DUP3 MSTORE PUSH1 0x20 DUP1 DUP4 KECCAK256 PUSH1 0x5 PUSH1 0x8 SWAP1 SWAP4 MUL ADD SWAP2 SWAP1 SWAP2 ADD SLOAD DUP4 MSTORE DUP3 ADD SWAP3 SWAP1 SWAP3 MSTORE PUSH1 0x40 SWAP1 DUP2 ADD DUP3 KECCAK256 SLOAD PUSH1 0xC SLOAD DUP3 MLOAD PUSH4 0x3844B707 PUSH1 0xE0 SHL DUP2 MSTORE CALLER PUSH1 0x4 DUP3 ADD DUP2 SWAP1 MSTORE PUSH1 0x1 PUSH1 0x1 PUSH1 0xA0 SHL SUB SWAP4 DUP5 AND PUSH1 0x24 DUP4 ADD DUP2 SWAP1 MSTORE PUSH1 0x44 DUP4 ADD DUP10 SWAP1 MSTORE SWAP5 MLOAD SWAP5 SWAP7 POP SWAP5 SWAP2 SWAP1 SWAP3 AND SWAP3 PUSH4 0x3844B707 SWAP3 PUSH1 0x64 DUP1 DUP3 ADD SWAP4 SWAP3 SWAP2 DUP3 SWAP1 SUB ADD DUP2 DUP4 DUP8 DUP1 EXTCODESIZE ISZERO DUP1 ISZERO PUSH2 0x1D81 JUMPI PUSH1 0x0 DUP1 REVERT JUMPDEST POP GAS CALL ISZERO DUP1 ISZERO PUSH2 0x1D95 JUMPI RETURNDATASIZE PUSH1 0x0 DUP1 RETURNDATACOPY RETURNDATASIZE PUSH1 0x0 REVERT JUMPDEST POP POP POP POP PUSH1 0x0 PUSH1 0x11 DUP9 DUP2 SLOAD DUP2 LT PUSH2 0x1DA8 JUMPI INVALID JUMPDEST PUSH1 0x0 SWAP2 DUP3 MSTORE PUSH1 0x20 DUP3 KECCAK256 PUSH1 0x8 SWAP2 SWAP1 SWAP2 MUL ADD PUSH1 0x6 ADD DUP1 SLOAD PUSH1 0xFF NOT AND SWAP3 ISZERO ISZERO SWAP3 SWAP1 SWAP3 OR SWAP1 SWAP2 SSTORE PUSH1 0x11 DUP1 SLOAD DUP10 SWAP1 DUP2 LT PUSH2 0x1DD9 JUMPI INVALID JUMPDEST PUSH1 0x0 SWAP2 DUP3 MSTORE PUSH1 0x20 SWAP1 SWAP2 KECCAK256 PUSH1 0x7 PUSH1 0x8 SWAP1 SWAP3 MUL ADD ADD SSTORE PUSH1 0x1F SLOAD PUSH1 0x11 DUP1 SLOAD PUSH2 0x1E0E SWAP3 PUSH1 0x1 PUSH1 0x1 PUSH1 0xA0 SHL SUB AND SWAP2 DUP5 SWAP2 DUP12 SWAP1 DUP2 LT PUSH2 0x12FC JUMPI INVALID JUMPDEST PUSH1 0x1F SLOAD PUSH1 0x1 PUSH1 0x1 PUSH1 0xA0 SHL SUB SWAP1 DUP2 AND PUSH1 0x0 SWAP1 DUP2 MSTORE PUSH1 0x12 PUSH1 0x20 MSTORE PUSH1 0x40 DUP1 DUP3 KECCAK256 DUP1 SLOAD PUSH1 0x0 NOT SWAP1 DUP2 ADD SWAP1 SWAP2 SSTORE DUP6 DUP5 AND DUP4 MSTORE DUP2 DUP4 KECCAK256 DUP1 SLOAD SWAP1 SWAP2 ADD SWAP1 SSTORE SWAP2 DUP4 AND DUP2 MSTORE SWAP1 DUP2 KECCAK256 DUP1 SLOAD PUSH1 0x1 ADD SWAP1 SSTORE PUSH1 0x11 DUP1 SLOAD DUP4 SWAP3 PUSH1 0x13 SWAP3 SWAP1 SWAP2 DUP12 SWAP1 DUP2 LT PUSH2 0x1E69 JUMPI INVALID JUMPDEST SWAP1 PUSH1 0x0 MSTORE PUSH1 0x20 PUSH1 0x0 KECCAK256 SWAP1 PUSH1 0x8 MUL ADD PUSH1 0x5 ADD SLOAD DUP2 MSTORE PUSH1 0x20 ADD SWAP1 DUP2 MSTORE PUSH1 0x20 ADD PUSH1 0x0 KECCAK256 PUSH1 0x0 PUSH2 0x100 EXP DUP2 SLOAD DUP2 PUSH1 0x1 PUSH1 0x1 PUSH1 0xA0 SHL SUB MUL NOT AND SWAP1 DUP4 PUSH1 0x1 PUSH1 0x1 PUSH1 0xA0 SHL SUB AND MUL OR SWAP1 SSTORE POP PUSH1 0x0 DUP1 MLOAD PUSH1 0x20 PUSH2 0x5620 DUP4 CODECOPY DUP2 MLOAD SWAP2 MSTORE DUP2 DUP4 PUSH1 0x11 DUP11 DUP2 SLOAD DUP2 LT PUSH2 0x1ECB JUMPI INVALID JUMPDEST SWAP1 PUSH1 0x0 MSTORE PUSH1 0x20 PUSH1 0x0 KECCAK256 SWAP1 PUSH1 0x8 MUL ADD PUSH1 0x5 ADD SLOAD DUP7 PUSH1 0x40 MLOAD DUP1 DUP6 PUSH1 0x1 PUSH1 0x1 PUSH1 0xA0 SHL SUB AND DUP2 MSTORE PUSH1 0x20 ADD DUP5 PUSH1 0x1 PUSH1 0x1 PUSH1 0xA0 SHL SUB AND DUP2 MSTORE PUSH1 0x20 ADD DUP4 DUP2 MSTORE PUSH1 0x20 ADD DUP3 DUP2 MSTORE PUSH1 0x20 ADD SWAP5 POP POP POP POP POP PUSH1 0x40 MLOAD DUP1 SWAP2 SUB SWAP1 LOG1 POP POP POP POP POP POP POP JUMP JUMPDEST PUSH1 0x21 SLOAD SWAP1 JUMP JUMPDEST PUSH2 0x1F3A PUSH2 0x1F34 PUSH2 0x3FBA JUMP JUMPDEST DUP3 PUSH2 0x4037 JUMP JUMPDEST PUSH2 0x1F75 JUMPI PUSH1 0x40 MLOAD PUSH3 0x461BCD PUSH1 0xE5 SHL DUP2 MSTORE PUSH1 0x4 ADD DUP1 DUP1 PUSH1 0x20 ADD DUP3 DUP2 SUB DUP3 MSTORE PUSH1 0x31 DUP2 MSTORE PUSH1 0x20 ADD DUP1 PUSH2 0x5640 PUSH1 0x31 SWAP2 CODECOPY PUSH1 0x40 ADD SWAP2 POP POP PUSH1 0x40 MLOAD DUP1 SWAP2 SUB SWAP1 REVERT JUMPDEST PUSH2 0x1AF8 DUP4 DUP4 DUP4 PUSH2 0x3DE0 JUMP JUMPDEST DUP3 PUSH1 0x13 PUSH1 0x0 PUSH1 0x11 DUP4 DUP2 SLOAD DUP2 LT PUSH2 0x1F92 JUMPI INVALID JUMPDEST PUSH1 0x0 SWAP2 DUP3 MSTORE PUSH1 0x20 DUP1 DUP4 KECCAK256 PUSH1 0x8 SWAP3 SWAP1 SWAP3 MUL SWAP1 SWAP2 ADD PUSH1 0x5 ADD SLOAD DUP4 MSTORE DUP3 ADD SWAP3 SWAP1 SWAP3 MSTORE PUSH1 0x40 ADD SWAP1 KECCAK256 SLOAD PUSH1 0x1 PUSH1 0x1 PUSH1 0xA0 SHL SUB AND CALLER EQ PUSH2 0x200C JUMPI PUSH1 0x40 DUP1 MLOAD PUSH3 0x461BCD PUSH1 0xE5 SHL DUP2 MSTORE PUSH1 0x20 PUSH1 0x4 DUP3 ADD MSTORE PUSH1 0x16 PUSH1 0x24 DUP3 ADD MSTORE PUSH22 0x2A9030B932B713BA103A34329037333A1027BBB732B9 PUSH1 0x51 SHL PUSH1 0x44 DUP3 ADD MSTORE SWAP1 MLOAD SWAP1 DUP2 SWAP1 SUB PUSH1 0x64 ADD SWAP1 REVERT JUMPDEST CALLER PUSH2 0x2016 DUP5 PUSH2 0x3B39 JUMP JUMPDEST PUSH1 0xC SLOAD PUSH1 0x40 DUP1 MLOAD PUSH4 0x3DB1CDBF PUSH1 0xE2 SHL DUP2 MSTORE PUSH1 0x1 PUSH1 0x1 PUSH1 0xA0 SHL SUB DUP6 DUP2 AND PUSH1 0x4 DUP4 ADD MSTORE SWAP2 MLOAD DUP5 SWAP4 SWAP3 SWAP1 SWAP3 AND SWAP2 PUSH4 0xF6C736FC SWAP2 PUSH1 0x24 DUP1 DUP3 ADD SWAP3 PUSH1 0x20 SWAP3 SWAP1 SWAP2 SWAP1 DUP3 SWAP1 SUB ADD DUP2 DUP7 DUP1 EXTCODESIZE ISZERO DUP1 ISZERO PUSH2 0x2066 JUMPI PUSH1 0x0 DUP1 REVERT JUMPDEST POP GAS STATICCALL ISZERO DUP1 ISZERO PUSH2 0x207A JUMPI RETURNDATASIZE PUSH1 0x0 DUP1 RETURNDATACOPY RETURNDATASIZE PUSH1 0x0 REVERT JUMPDEST POP POP POP POP PUSH1 0x40 MLOAD RETURNDATASIZE PUSH1 0x20 DUP2 LT ISZERO PUSH2 0x2090 JUMPI PUSH1 0x0 DUP1 REVERT JUMPDEST POP MLOAD LT ISZERO PUSH2 0x20D6 JUMPI PUSH1 0x40 DUP1 MLOAD PUSH3 0x461BCD PUSH1 0xE5 SHL DUP2 MSTORE PUSH1 0x20 PUSH1 0x4 DUP3 ADD MSTORE PUSH1 0xE PUSH1 0x24 DUP3 ADD MSTORE PUSH14 0x4E6F7420656E6F75676820554A47 PUSH1 0x90 SHL PUSH1 0x44 DUP3 ADD MSTORE SWAP1 MLOAD SWAP1 DUP2 SWAP1 SUB PUSH1 0x64 ADD SWAP1 REVERT JUMPDEST DUP6 TIMESTAMP PUSH1 0x11 DUP3 DUP2 SLOAD DUP2 LT PUSH2 0x20E5 JUMPI INVALID JUMPDEST PUSH1 0x0 SWAP2 DUP3 MSTORE PUSH1 0x20 SWAP1 SWAP2 KECCAK256 PUSH1 0x4 PUSH1 0x8 SWAP1 SWAP3 MUL ADD ADD SLOAD PUSH4 0xFFFFFFFF AND GT ISZERO PUSH2 0x214A JUMPI PUSH1 0x40 DUP1 MLOAD PUSH3 0x461BCD PUSH1 0xE5 SHL DUP2 MSTORE PUSH1 0x20 PUSH1 0x4 DUP3 ADD MSTORE PUSH1 0x15 PUSH1 0x24 DUP3 ADD MSTORE PUSH21 0x13195D081C995CDD081E5BDD5C8814DD1D59195B9D PUSH1 0x5A SHL PUSH1 0x44 DUP3 ADD MSTORE SWAP1 MLOAD SWAP1 DUP2 SWAP1 SUB PUSH1 0x64 ADD SWAP1 REVERT JUMPDEST DUP7 PUSH1 0x11 DUP2 DUP2 SLOAD DUP2 LT PUSH2 0x2158 JUMPI INVALID JUMPDEST PUSH1 0x0 SWAP2 DUP3 MSTORE PUSH1 0x20 SWAP1 SWAP2 KECCAK256 PUSH1 0x6 PUSH1 0x8 SWAP1 SWAP3 MUL ADD ADD SLOAD PUSH1 0xFF AND ISZERO PUSH2 0x21BD JUMPI PUSH1 0x40 DUP1 MLOAD PUSH3 0x461BCD PUSH1 0xE5 SHL DUP2 MSTORE PUSH1 0x20 PUSH1 0x4 DUP3 ADD MSTORE PUSH1 0x19 PUSH1 0x24 DUP3 ADD MSTORE PUSH25 0x151A194814DD1D59195B9D08185C99481A5B881B585C9AD95D PUSH1 0x3A SHL PUSH1 0x44 DUP3 ADD MSTORE SWAP1 MLOAD SWAP1 DUP2 SWAP1 SUB PUSH1 0x64 ADD SWAP1 REVERT JUMPDEST PUSH1 0x1 DUP8 LT ISZERO DUP1 ISZERO PUSH2 0x21CF JUMPI POP PUSH1 0xA DUP8 GT ISZERO JUMPDEST PUSH2 0x2210 JUMPI PUSH1 0x40 DUP1 MLOAD PUSH3 0x461BCD PUSH1 0xE5 SHL DUP2 MSTORE PUSH1 0x20 PUSH1 0x4 DUP3 ADD MSTORE PUSH1 0xD PUSH1 0x24 DUP3 ADD MSTORE PUSH13 0x125B9D985B1A590813195D995B PUSH1 0x9A SHL PUSH1 0x44 DUP3 ADD MSTORE SWAP1 MLOAD SWAP1 DUP2 SWAP1 SUB PUSH1 0x64 ADD SWAP1 REVERT JUMPDEST PUSH1 0x0 PUSH1 0x11 DUP10 DUP2 SLOAD DUP2 LT PUSH2 0x221F JUMPI INVALID JUMPDEST SWAP1 PUSH1 0x0 MSTORE PUSH1 0x20 PUSH1 0x0 KECCAK256 SWAP1 PUSH1 0x8 MUL ADD PUSH1 0x1 ADD SLOAD GT PUSH2 0x223B JUMPI PUSH1 0x0 DUP1 REVERT JUMPDEST PUSH2 0x2244 DUP7 PUSH2 0x40DB JUMP JUMPDEST POP CALLER PUSH1 0x0 SWAP1 DUP2 MSTORE PUSH1 0x15 PUSH1 0x20 MSTORE PUSH1 0x40 SWAP1 KECCAK256 SLOAD PUSH1 0x64 SWAP1 MOD PUSH1 0x1 ADD PUSH2 0x2265 DUP10 PUSH2 0x41FE JUMP JUMPDEST PUSH1 0x0 PUSH2 0x2270 DUP10 PUSH2 0x3B39 JUMP JUMPDEST SWAP1 POP PUSH2 0x227C DUP2 CALLER PUSH2 0x3D60 JUMP JUMPDEST PUSH1 0x11 DUP11 DUP2 SLOAD DUP2 LT PUSH2 0x2289 JUMPI INVALID JUMPDEST SWAP1 PUSH1 0x0 MSTORE PUSH1 0x20 PUSH1 0x0 KECCAK256 SWAP1 PUSH1 0x8 MUL ADD PUSH1 0x1 ADD SLOAD PUSH1 0x11 DUP12 DUP2 SLOAD DUP2 LT PUSH2 0x22A8 JUMPI INVALID JUMPDEST SWAP1 PUSH1 0x0 MSTORE PUSH1 0x20 PUSH1 0x0 KECCAK256 SWAP1 PUSH1 0x8 MUL ADD PUSH1 0x2 ADD SLOAD DUP4 ADD ADD PUSH2 0x22C6 DUP11 PUSH2 0x13BA JUMP JUMPDEST GT PUSH2 0x23CC JUMPI PUSH1 0x0 PUSH1 0x14 PUSH2 0x22D8 DUP12 PUSH2 0x13BA JUMP JUMPDEST DUP2 PUSH2 0x22DF JUMPI INVALID JUMPDEST DIV PUSH1 0x2 MUL SWAP1 POP PUSH2 0x22EF DUP12 DUP3 PUSH2 0x424C JUMP JUMPDEST PUSH1 0x0 PUSH2 0x22FA DUP12 PUSH2 0x26EC JUMP JUMPDEST SWAP1 POP PUSH2 0x2306 DUP2 CALLER PUSH2 0x3F2C JUMP JUMPDEST PUSH1 0x0 DUP13 DUP2 MSTORE PUSH1 0x16 PUSH1 0x20 MSTORE PUSH1 0x40 SWAP1 KECCAK256 DUP1 SLOAD PUSH1 0xFF NOT AND PUSH1 0x1 SWAP1 DUP2 OR SWAP1 SWAP2 SSTORE PUSH1 0x11 DUP1 SLOAD PUSH32 0xC1C89F12581EF4543F5451C1F84FF0ED0BFB24E4A0AE8F507DD335E411D5D05F SWAP3 SWAP2 SWAP1 DUP16 SWAP1 DUP2 LT PUSH2 0x2354 JUMPI INVALID JUMPDEST SWAP1 PUSH1 0x0 MSTORE PUSH1 0x20 PUSH1 0x0 KECCAK256 SWAP1 PUSH1 0x8 MUL ADD PUSH1 0x1 ADD SLOAD PUSH1 0x11 DUP16 DUP2 SLOAD DUP2 LT PUSH2 0x2373 JUMPI INVALID JUMPDEST SWAP1 PUSH1 0x0 MSTORE PUSH1 0x20 PUSH1 0x0 KECCAK256 SWAP1 PUSH1 0x8 MUL ADD PUSH1 0x2 ADD SLOAD DUP8 ADD ADD PUSH2 0x2391 DUP15 PUSH2 0x13BA JUMP JUMPDEST PUSH1 0x40 DUP1 MLOAD SWAP4 ISZERO ISZERO DUP5 MSTORE PUSH1 0x20 DUP5 ADD SWAP3 SWAP1 SWAP3 MSTORE DUP3 DUP3 ADD MSTORE PUSH1 0x60 DUP3 ADD DUP6 SWAP1 MSTORE PUSH1 0x80 DUP3 ADD DUP8 SWAP1 MSTORE PUSH1 0xA0 DUP3 ADD DUP5 SWAP1 MSTORE MLOAD SWAP1 DUP2 SWAP1 SUB PUSH1 0xC0 ADD SWAP1 LOG1 POP POP PUSH2 0x24AE JUMP JUMPDEST PUSH1 0x0 PUSH1 0xA PUSH2 0x23D9 DUP12 PUSH2 0x13BA JUMP JUMPDEST DUP2 PUSH2 0x23E0 JUMPI INVALID JUMPDEST DIV PUSH1 0x2 MUL SWAP1 POP PUSH2 0x23F0 DUP12 DUP3 PUSH2 0x424C JUMP JUMPDEST PUSH1 0x0 DUP12 DUP2 MSTORE PUSH1 0x16 PUSH1 0x20 MSTORE PUSH1 0x40 DUP2 KECCAK256 DUP1 SLOAD PUSH1 0xFF NOT AND SWAP1 SSTORE PUSH1 0x11 DUP1 SLOAD PUSH32 0xC1C89F12581EF4543F5451C1F84FF0ED0BFB24E4A0AE8F507DD335E411D5D05F SWAP3 SWAP2 SWAP1 DUP15 SWAP1 DUP2 LT PUSH2 0x2438 JUMPI INVALID JUMPDEST SWAP1 PUSH1 0x0 MSTORE PUSH1 0x20 PUSH1 0x0 KECCAK256 SWAP1 PUSH1 0x8 MUL ADD PUSH1 0x1 ADD SLOAD PUSH1 0x11 DUP15 DUP2 SLOAD DUP2 LT PUSH2 0x2457 JUMPI INVALID JUMPDEST SWAP1 PUSH1 0x0 MSTORE PUSH1 0x20 PUSH1 0x0 KECCAK256 SWAP1 PUSH1 0x8 MUL ADD PUSH1 0x2 ADD SLOAD DUP7 ADD ADD PUSH2 0x2475 DUP14 PUSH2 0x13BA JUMP JUMPDEST PUSH1 0x40 DUP1 MLOAD SWAP4 ISZERO ISZERO DUP5 MSTORE PUSH1 0x20 DUP5 ADD SWAP3 SWAP1 SWAP3 MSTORE DUP3 DUP3 ADD MSTORE PUSH1 0x60 DUP3 ADD DUP5 SWAP1 MSTORE PUSH1 0x80 DUP3 ADD DUP7 SWAP1 MSTORE PUSH1 0x0 DUP6 SWAP1 SUB PUSH1 0xA0 DUP4 ADD MSTORE MLOAD SWAP1 DUP2 SWAP1 SUB PUSH1 0xC0 ADD SWAP1 LOG1 POP JUMPDEST POP POP POP POP POP POP POP POP POP POP JUMP JUMPDEST CALLER DUP1 PUSH2 0x24C4 PUSH2 0x1AFD JUMP JUMPDEST PUSH1 0x1 PUSH1 0x1 PUSH1 0xA0 SHL SUB AND EQ PUSH2 0x2509 JUMPI PUSH1 0x40 MLOAD PUSH3 0x461BCD PUSH1 0xE5 SHL DUP2 MSTORE PUSH1 0x4 ADD DUP1 DUP1 PUSH1 0x20 ADD DUP3 DUP2 SUB DUP3 MSTORE PUSH1 0x28 DUP2 MSTORE PUSH1 0x20 ADD DUP1 PUSH2 0x53FA PUSH1 0x28 SWAP2 CODECOPY PUSH1 0x40 ADD SWAP2 POP POP PUSH1 0x40 MLOAD DUP1 SWAP2 SUB SWAP1 REVERT JUMPDEST POP PUSH1 0x17 SSTORE JUMP JUMPDEST PUSH1 0x1B SLOAD SWAP1 JUMP JUMPDEST PUSH1 0xC SLOAD PUSH1 0x40 DUP1 MLOAD PUSH4 0xA3875CAF PUSH1 0xE0 SHL DUP2 MSTORE ADDRESS PUSH1 0x4 DUP3 ADD MSTORE PUSH1 0x24 DUP2 ADD DUP5 SWAP1 MSTORE CALLER PUSH1 0x44 DUP3 ADD MSTORE SWAP1 MLOAD PUSH1 0x1 PUSH1 0x1 PUSH1 0xA0 SHL SUB SWAP1 SWAP3 AND SWAP2 PUSH4 0xA3875CAF SWAP2 PUSH1 0x64 DUP1 DUP3 ADD SWAP3 PUSH1 0x0 SWAP3 SWAP1 SWAP2 SWAP1 DUP3 SWAP1 SUB ADD DUP2 DUP4 DUP8 DUP1 EXTCODESIZE ISZERO DUP1 ISZERO PUSH2 0x256E JUMPI PUSH1 0x0 DUP1 REVERT JUMPDEST POP GAS CALL ISZERO DUP1 ISZERO PUSH2 0x2582 JUMPI RETURNDATASIZE PUSH1 0x0 DUP1 RETURNDATACOPY RETURNDATASIZE PUSH1 0x0 REVERT JUMPDEST POP POP PUSH1 0xD DUP1 SLOAD DUP5 DUP2 SUB SWAP2 DUP3 SWAP1 SSTORE PUSH1 0x40 DUP1 MLOAD DUP3 DUP2 MSTORE PUSH1 0x20 DUP2 ADD SWAP4 SWAP1 SWAP4 MSTORE PUSH1 0x60 DUP4 DUP3 ADD DUP2 SWAP1 MSTORE PUSH1 0x1 SWAP1 DUP5 ADD MSTORE PUSH1 0x2D PUSH1 0xF8 SHL PUSH1 0x80 DUP5 ADD MSTORE MLOAD SWAP1 SWAP4 POP PUSH1 0x0 DUP1 MLOAD PUSH1 0x20 PUSH2 0x5671 DUP4 CODECOPY DUP2 MLOAD SWAP2 MSTORE SWAP3 POP SWAP1 DUP2 SWAP1 SUB PUSH1 0xA0 ADD SWAP1 LOG1 POP POP JUMP JUMPDEST PUSH1 0xC SLOAD PUSH1 0x40 DUP1 MLOAD PUSH4 0x1639A6F1 PUSH1 0xE0 SHL DUP2 MSTORE PUSH1 0x4 DUP2 ADD DUP5 SWAP1 MSTORE ADDRESS PUSH1 0x24 DUP3 ADD MSTORE CALLER PUSH1 0x44 DUP3 ADD MSTORE SWAP1 MLOAD PUSH1 0x1 PUSH1 0x1 PUSH1 0xA0 SHL SUB SWAP1 SWAP3 AND SWAP2 PUSH4 0x1639A6F1 SWAP2 PUSH1 0x64 DUP1 DUP3 ADD SWAP3 PUSH1 0x0 SWAP3 SWAP1 SWAP2 SWAP1 DUP3 SWAP1 SUB ADD DUP2 DUP4 DUP8 DUP1 EXTCODESIZE ISZERO DUP1 ISZERO PUSH2 0x2631 JUMPI PUSH1 0x0 DUP1 REVERT JUMPDEST POP GAS CALL ISZERO DUP1 ISZERO PUSH2 0x2645 JUMPI RETURNDATASIZE PUSH1 0x0 DUP1 RETURNDATACOPY RETURNDATASIZE PUSH1 0x0 REVERT JUMPDEST POP POP PUSH1 0xD DUP1 SLOAD DUP5 DUP2 ADD SWAP2 DUP3 SWAP1 SSTORE PUSH1 0x40 DUP1 MLOAD DUP3 DUP2 MSTORE PUSH1 0x20 DUP2 ADD SWAP4 SWAP1 SWAP4 MSTORE PUSH1 0x60 DUP4 DUP3 ADD DUP2 SWAP1 MSTORE PUSH1 0x1 SWAP1 DUP5 ADD MSTORE PUSH1 0x2B PUSH1 0xF8 SHL PUSH1 0x80 DUP5 ADD MSTORE MLOAD SWAP1 SWAP4 POP PUSH1 0x0 DUP1 MLOAD PUSH1 0x20 PUSH2 0x5671 DUP4 CODECOPY DUP2 MLOAD SWAP2 MSTORE SWAP3 POP SWAP1 DUP2 SWAP1 SUB PUSH1 0xA0 ADD SWAP1 LOG1 POP POP JUMP JUMPDEST PUSH1 0x1 PUSH1 0x1 PUSH1 0xA0 SHL SUB DUP3 AND PUSH1 0x0 SWAP1 DUP2 MSTORE PUSH1 0x2 PUSH1 0x20 MSTORE PUSH1 0x40 DUP2 KECCAK256 PUSH2 0x26BD SWAP1 DUP4 PUSH2 0x42D2 JUMP JUMPDEST SWAP4 SWAP3 POP POP POP JUMP JUMPDEST PUSH1 0x0 PUSH1 0x11 DUP3 DUP2 SLOAD DUP2 LT PUSH2 0x26D3 JUMPI INVALID JUMPDEST SWAP1 PUSH1 0x0 MSTORE PUSH1 0x20 PUSH1 0x0 KECCAK256 SWAP1 PUSH1 0x8 MUL ADD PUSH1 0x7 ADD SLOAD SWAP1 POP SWAP2 SWAP1 POP JUMP JUMPDEST PUSH1 0x1A SLOAD MUL PUSH9 0x1158E460913D00000 MUL SWAP1 JUMP JUMPDEST PUSH2 0x1AF8 DUP4 DUP4 DUP4 PUSH1 0x40 MLOAD DUP1 PUSH1 0x20 ADD PUSH1 0x40 MSTORE DUP1 PUSH1 0x0 DUP2 MSTORE POP PUSH2 0x36C9 JUMP JUMPDEST PUSH1 0x60 PUSH1 0x1 PUSH1 0x1 PUSH1 0xA0 SHL SUB DUP3 AND PUSH2 0x276F JUMPI PUSH1 0x40 DUP1 MLOAD PUSH3 0x461BCD PUSH1 0xE5 SHL DUP2 MSTORE PUSH1 0x20 PUSH1 0x4 DUP3 ADD MSTORE PUSH1 0x16 PUSH1 0x24 DUP3 ADD MSTORE PUSH22 0x1059191C995CDCC80C1E0C0B8B8B881A5B9D985B1A59 PUSH1 0x52 SHL PUSH1 0x44 DUP3 ADD MSTORE SWAP1 MLOAD SWAP1 DUP2 SWAP1 SUB PUSH1 0x64 ADD SWAP1 REVERT JUMPDEST PUSH1 0x1 PUSH1 0x1 PUSH1 0xA0 SHL SUB DUP3 AND PUSH1 0x0 SWAP1 DUP2 MSTORE PUSH1 0x12 PUSH1 0x20 MSTORE PUSH1 0x40 SWAP1 KECCAK256 SLOAD PUSH1 0x60 SWAP1 PUSH8 0xFFFFFFFFFFFFFFFF DUP2 GT DUP1 ISZERO PUSH2 0x27A1 JUMPI PUSH1 0x0 DUP1 REVERT JUMPDEST POP PUSH1 0x40 MLOAD SWAP1 DUP1 DUP3 MSTORE DUP1 PUSH1 0x20 MUL PUSH1 0x20 ADD DUP3 ADD PUSH1 0x40 MSTORE DUP1 ISZERO PUSH2 0x27CB JUMPI DUP2 PUSH1 0x20 ADD PUSH1 0x20 DUP3 MUL DUP1 CALLDATASIZE DUP4 CALLDATACOPY ADD SWAP1 POP JUMPDEST POP SWAP1 POP PUSH1 0x0 DUP1 JUMPDEST PUSH1 0x11 SLOAD DUP2 LT ISZERO PUSH2 0x2825 JUMPI PUSH1 0x0 DUP2 DUP2 MSTORE PUSH1 0x13 PUSH1 0x20 MSTORE PUSH1 0x40 SWAP1 KECCAK256 SLOAD PUSH1 0x1 PUSH1 0x1 PUSH1 0xA0 SHL SUB DUP7 DUP2 AND SWAP2 AND EQ ISZERO PUSH2 0x281D JUMPI DUP1 DUP4 DUP4 DUP2 MLOAD DUP2 LT PUSH2 0x280B JUMPI INVALID JUMPDEST PUSH1 0x20 SWAP1 DUP2 MUL SWAP2 SWAP1 SWAP2 ADD ADD MSTORE PUSH1 0x1 SWAP1 SWAP2 ADD SWAP1 JUMPDEST PUSH1 0x1 ADD PUSH2 0x27D2 JUMP JUMPDEST POP SWAP1 SWAP4 SWAP3 POP POP POP JUMP JUMPDEST PUSH1 0x0 DUP1 PUSH2 0x283C PUSH1 0x3 DUP5 PUSH2 0x42DE JUMP JUMPDEST POP SWAP4 SWAP3 POP POP POP JUMP JUMPDEST CALLER DUP1 PUSH2 0x284E PUSH2 0x1AFD JUMP JUMPDEST PUSH1 0x1 PUSH1 0x1 PUSH1 0xA0 SHL SUB AND EQ PUSH2 0x2893 JUMPI PUSH1 0x40 MLOAD PUSH3 0x461BCD PUSH1 0xE5 SHL DUP2 MSTORE PUSH1 0x4 ADD DUP1 DUP1 PUSH1 0x20 ADD DUP3 DUP2 SUB DUP3 MSTORE PUSH1 0x28 DUP2 MSTORE PUSH1 0x20 ADD DUP1 PUSH2 0x53FA PUSH1 0x28 SWAP2 CODECOPY PUSH1 0x40 ADD SWAP2 POP POP PUSH1 0x40 MLOAD DUP1 SWAP2 SUB SWAP1 REVERT JUMPDEST POP PUSH1 0x18 SSTORE JUMP JUMPDEST PUSH1 0x19 SLOAD SWAP1 JUMP JUMPDEST PUSH1 0x17 SLOAD SWAP1 JUMP JUMPDEST PUSH1 0x0 PUSH2 0x13CF DUP3 PUSH1 0x40 MLOAD DUP1 PUSH1 0x60 ADD PUSH1 0x40 MSTORE DUP1 PUSH1 0x29 DUP2 MSTORE PUSH1 0x20 ADD PUSH2 0x5504 PUSH1 0x29 SWAP2 CODECOPY PUSH1 0x3 SWAP2 SWAP1 PUSH2 0x42FA JUMP JUMPDEST CALLER DUP1 PUSH2 0x28D7 PUSH2 0x1AFD JUMP JUMPDEST PUSH1 0x1 PUSH1 0x1 PUSH1 0xA0 SHL SUB AND EQ PUSH2 0x291C JUMPI PUSH1 0x40 MLOAD PUSH3 0x461BCD PUSH1 0xE5 SHL DUP2 MSTORE PUSH1 0x4 ADD DUP1 DUP1 PUSH1 0x20 ADD DUP3 DUP2 SUB DUP3 MSTORE PUSH1 0x28 DUP2 MSTORE PUSH1 0x20 ADD DUP1 PUSH2 0x53FA PUSH1 0x28 SWAP2 CODECOPY PUSH1 0x40 ADD SWAP2 POP POP PUSH1 0x40 MLOAD DUP1 SWAP2 SUB SWAP1 REVERT JUMPDEST POP PUSH1 0xC DUP1 SLOAD PUSH1 0x1 PUSH1 0x1 PUSH1 0xA0 SHL SUB NOT AND PUSH1 0x1 PUSH1 0x1 PUSH1 0xA0 SHL SUB SWAP3 SWAP1 SWAP3 AND SWAP2 SWAP1 SWAP2 OR SWAP1 SSTORE JUMP JUMPDEST PUSH1 0xA DUP1 SLOAD PUSH1 0x40 DUP1 MLOAD PUSH1 0x20 PUSH1 0x1F PUSH1 0x2 PUSH1 0x0 NOT PUSH2 0x100 PUSH1 0x1 DUP9 AND ISZERO MUL ADD SWAP1 SWAP6 AND SWAP5 SWAP1 SWAP5 DIV SWAP4 DUP5 ADD DUP2 SWAP1 DIV DUP2 MUL DUP3 ADD DUP2 ADD SWAP1 SWAP3 MSTORE DUP3 DUP2 MSTORE PUSH1 0x60 SWAP4 SWAP1 SWAP3 SWAP1 SWAP2 DUP4 ADD DUP3 DUP3 DUP1 ISZERO PUSH2 0x19B6 JUMPI DUP1 PUSH1 0x1F LT PUSH2 0x198B JUMPI PUSH2 0x100 DUP1 DUP4 SLOAD DIV MUL DUP4 MSTORE SWAP2 PUSH1 0x20 ADD SWAP2 PUSH2 0x19B6 JUMP JUMPDEST PUSH1 0xD SLOAD SWAP1 JUMP JUMPDEST PUSH8 0xDE0B6B3A7640000 DUP3 DUP3 MUL DIV CALLVALUE LT ISZERO PUSH2 0x29BF JUMPI PUSH1 0x0 DUP1 REVERT JUMPDEST PUSH1 0xC SLOAD PUSH1 0x40 DUP1 MLOAD PUSH4 0x3844B707 PUSH1 0xE0 SHL DUP2 MSTORE ADDRESS PUSH1 0x4 DUP3 ADD MSTORE CALLER PUSH1 0x24 DUP3 ADD MSTORE PUSH1 0x44 DUP2 ADD DUP6 SWAP1 MSTORE SWAP1 MLOAD PUSH1 0x1 PUSH1 0x1 PUSH1 0xA0 SHL SUB SWAP1 SWAP3 AND SWAP2 PUSH4 0x3844B707 SWAP2 PUSH1 0x64 DUP1 DUP3 ADD SWAP3 PUSH1 0x0 SWAP3 SWAP1 SWAP2 SWAP1 DUP3 SWAP1 SUB ADD DUP2 DUP4 DUP8 DUP1 EXTCODESIZE ISZERO DUP1 ISZERO PUSH2 0x2A18 JUMPI PUSH1 0x0 DUP1 REVERT JUMPDEST POP GAS CALL ISZERO DUP1 ISZERO PUSH2 0x2A2C JUMPI RETURNDATASIZE PUSH1 0x0 DUP1 RETURNDATACOPY RETURNDATASIZE PUSH1 0x0 REVERT JUMPDEST POP POP PUSH1 0x1E DUP1 SLOAD CALLVALUE ADD SWAP1 SSTORE POP POP PUSH1 0xD DUP1 SLOAD DUP4 SWAP1 SUB SWAP1 SSTORE PUSH1 0x40 DUP1 MLOAD CALLER DUP2 MSTORE ADDRESS PUSH1 0x20 DUP3 ADD MSTORE DUP1 DUP3 ADD DUP5 SWAP1 MSTORE PUSH8 0xDE0B6B3A7640000 DUP4 DUP6 MUL DIV PUSH1 0x60 DUP3 ADD MSTORE SWAP1 MLOAD PUSH32 0x14E1D5B6FD685ABD8451960A2579C435BA7A639EC0A19FA1941E72A9F6652285 SWAP2 DUP2 SWAP1 SUB PUSH1 0x80 ADD SWAP1 LOG1 POP POP JUMP JUMPDEST PUSH1 0x0 PUSH1 0x1 PUSH1 0x1 PUSH1 0xA0 SHL SUB DUP3 AND PUSH2 0x2ADD JUMPI PUSH1 0x40 MLOAD PUSH3 0x461BCD PUSH1 0xE5 SHL DUP2 MSTORE PUSH1 0x4 ADD DUP1 DUP1 PUSH1 0x20 ADD DUP3 DUP2 SUB DUP3 MSTORE PUSH1 0x2A DUP2 MSTORE PUSH1 0x20 ADD DUP1 PUSH2 0x54DA PUSH1 0x2A SWAP2 CODECOPY PUSH1 0x40 ADD SWAP2 POP POP PUSH1 0x40 MLOAD DUP1 SWAP2 SUB SWAP1 REVERT JUMPDEST PUSH1 0x1 PUSH1 0x1 PUSH1 0xA0 SHL SUB DUP3 AND PUSH1 0x0 SWAP1 DUP2 MSTORE PUSH1 0x2 PUSH1 0x20 MSTORE PUSH1 0x40 SWAP1 KECCAK256 PUSH2 0x13CF SWAP1 PUSH2 0x402C JUMP JUMPDEST PUSH1 0x17 SLOAD PUSH1 0xC SLOAD PUSH1 0x40 DUP1 MLOAD PUSH4 0x3DB1CDBF PUSH1 0xE2 SHL DUP2 MSTORE CALLER PUSH1 0x4 DUP3 ADD DUP2 SWAP1 MSTORE SWAP2 MLOAD SWAP2 SWAP4 SWAP3 DUP4 SWAP3 PUSH1 0x1 PUSH1 0x1 PUSH1 0xA0 SHL SUB SWAP1 SWAP2 AND SWAP2 PUSH4 0xF6C736FC SWAP2 PUSH1 0x24 DUP1 DUP4 ADD SWAP3 PUSH1 0x20 SWAP3 SWAP2 SWAP1 DUP3 SWAP1 SUB ADD DUP2 DUP7 DUP1 EXTCODESIZE ISZERO DUP1 ISZERO PUSH2 0x2B52 JUMPI PUSH1 0x0 DUP1 REVERT JUMPDEST POP GAS STATICCALL ISZERO DUP1 ISZERO PUSH2 0x2B66 JUMPI RETURNDATASIZE PUSH1 0x0 DUP1 RETURNDATACOPY RETURNDATASIZE PUSH1 0x0 REVERT JUMPDEST POP POP POP POP PUSH1 0x40 MLOAD RETURNDATASIZE PUSH1 0x20 DUP2 LT ISZERO PUSH2 0x2B7C JUMPI PUSH1 0x0 DUP1 REVERT JUMPDEST POP MLOAD LT ISZERO PUSH2 0x2BC2 JUMPI PUSH1 0x40 DUP1 MLOAD PUSH3 0x461BCD PUSH1 0xE5 SHL DUP2 MSTORE PUSH1 0x20 PUSH1 0x4 DUP3 ADD MSTORE PUSH1 0xE PUSH1 0x24 DUP3 ADD MSTORE PUSH14 0x4E6F7420656E6F75676820554A47 PUSH1 0x90 SHL PUSH1 0x44 DUP3 ADD MSTORE SWAP1 MLOAD SWAP1 DUP2 SWAP1 SUB PUSH1 0x64 ADD SWAP1 REVERT JUMPDEST PUSH2 0x2BCE PUSH1 0x17 SLOAD CALLER PUSH2 0x3D60 JUMP JUMPDEST PUSH1 0xF SLOAD PUSH2 0x2BD9 PUSH2 0x5296 JUMP JUMPDEST PUSH2 0x2BE3 DUP3 DUP7 PUSH2 0x4307 JUMP JUMPDEST CALLER PUSH1 0x0 DUP2 DUP2 MSTORE PUSH1 0x12 PUSH1 0x20 SWAP1 DUP2 MSTORE PUSH1 0x40 DUP1 DUP4 KECCAK256 DUP1 SLOAD PUSH1 0x1 ADD SWAP1 SSTORE DUP7 DUP4 MSTORE PUSH1 0x13 SWAP1 SWAP2 MSTORE SWAP1 KECCAK256 DUP1 SLOAD PUSH1 0x1 PUSH1 0x1 PUSH1 0xA0 SHL SUB NOT AND DUP3 OR SWAP1 SSTORE SWAP1 SWAP2 POP PUSH2 0x2C23 SWAP1 DUP4 PUSH2 0x4588 JUMP JUMPDEST PUSH1 0x1B DUP1 SLOAD PUSH1 0x1 ADD SWAP1 SSTORE PUSH1 0x60 DUP1 DUP3 ADD MLOAD DUP3 MLOAD PUSH1 0x20 DUP1 DUP6 ADD MLOAD PUSH1 0x40 DUP1 DUP8 ADD MLOAD DUP2 MLOAD DUP1 DUP6 ADD DUP7 SWAP1 MSTORE SWAP2 DUP3 ADD DUP4 SWAP1 MSTORE SWAP6 DUP2 ADD DUP7 SWAP1 MSTORE PUSH1 0x80 DUP1 DUP3 MSTORE DUP6 MLOAD SWAP1 DUP3 ADD MSTORE DUP5 MLOAD PUSH32 0x319EC0C4F5923A08E9D5FB646DDF9C5EE3D502E7A45118F7EA3BA28312BB55D7 SWAP7 SWAP3 SWAP4 DUP3 SWAP2 PUSH1 0xA0 DUP4 ADD SWAP2 DUP9 ADD SWAP1 DUP1 DUP4 DUP4 PUSH1 0x0 JUMPDEST DUP4 DUP2 LT ISZERO PUSH2 0x2CAD JUMPI DUP2 DUP2 ADD MLOAD DUP4 DUP3 ADD MSTORE PUSH1 0x20 ADD PUSH2 0x2C95 JUMP JUMPDEST POP POP POP POP SWAP1 POP SWAP1 DUP2 ADD SWAP1 PUSH1 0x1F AND DUP1 ISZERO PUSH2 0x2CDA JUMPI DUP1 DUP3 SUB DUP1 MLOAD PUSH1 0x1 DUP4 PUSH1 0x20 SUB PUSH2 0x100 EXP SUB NOT AND DUP2 MSTORE PUSH1 0x20 ADD SWAP2 POP JUMPDEST POP SWAP6 POP POP POP POP POP POP PUSH1 0x40 MLOAD DUP1 SWAP2 SUB SWAP1 LOG1 POP POP POP POP POP JUMP JUMPDEST PUSH1 0xC SLOAD PUSH1 0x40 DUP1 MLOAD PUSH4 0x3DB1CDBF PUSH1 0xE2 SHL DUP2 MSTORE CALLER PUSH1 0x4 DUP3 ADD DUP2 SWAP1 MSTORE SWAP2 MLOAD SWAP2 SWAP3 DUP6 SWAP3 DUP4 SWAP3 PUSH1 0x1 PUSH1 0x1 PUSH1 0xA0 SHL SUB SWAP1 SWAP3 AND SWAP2 PUSH4 0xF6C736FC SWAP2 PUSH1 0x24 DUP1 DUP4 ADD SWAP3 PUSH1 0x20 SWAP3 SWAP2 SWAP1 DUP3 SWAP1 SUB ADD DUP2 DUP7 DUP1 EXTCODESIZE ISZERO DUP1 ISZERO PUSH2 0x2D43 JUMPI PUSH1 0x0 DUP1 REVERT JUMPDEST POP GAS STATICCALL ISZERO DUP1 ISZERO PUSH2 0x2D57 JUMPI RETURNDATASIZE PUSH1 0x0 DUP1 RETURNDATACOPY RETURNDATASIZE PUSH1 0x0 REVERT JUMPDEST POP POP POP POP PUSH1 0x40 MLOAD RETURNDATASIZE PUSH1 0x20 DUP2 LT ISZERO PUSH2 0x2D6D JUMPI PUSH1 0x0 DUP1 REVERT JUMPDEST POP MLOAD LT ISZERO PUSH2 0x2DB3 JUMPI PUSH1 0x40 DUP1 MLOAD PUSH3 0x461BCD PUSH1 0xE5 SHL DUP2 MSTORE PUSH1 0x20 PUSH1 0x4 DUP3 ADD MSTORE PUSH1 0xE PUSH1 0x24 DUP3 ADD MSTORE PUSH14 0x4E6F7420656E6F75676820554A47 PUSH1 0x90 SHL PUSH1 0x44 DUP3 ADD MSTORE SWAP1 MLOAD SWAP1 DUP2 SWAP1 SUB PUSH1 0x64 ADD SWAP1 REVERT JUMPDEST PUSH8 0xDE0B6B3A7640000 DUP5 DUP5 MUL DIV PUSH2 0x2DCA DUP6 CALLER PUSH2 0x3D60 JUMP JUMPDEST PUSH1 0x40 MLOAD CALLER SWAP1 DUP3 ISZERO PUSH2 0x8FC MUL SWAP1 DUP4 SWAP1 PUSH1 0x0 DUP2 DUP2 DUP2 DUP6 DUP9 DUP9 CALL SWAP4 POP POP POP POP ISZERO DUP1 ISZERO PUSH2 0x2DF7 JUMPI RETURNDATASIZE PUSH1 0x0 DUP1 RETURNDATACOPY RETURNDATASIZE PUSH1 0x0 REVERT JUMPDEST POP PUSH1 0x1E DUP1 SLOAD DUP3 SWAP1 SUB SWAP1 SSTORE PUSH1 0xD DUP1 SLOAD DUP7 ADD SWAP1 SSTORE PUSH1 0x40 DUP1 MLOAD ADDRESS DUP2 MSTORE CALLER PUSH1 0x20 DUP3 ADD MSTORE DUP1 DUP3 ADD DUP8 SWAP1 MSTORE PUSH8 0xDE0B6B3A7640000 DUP7 DUP9 MUL DIV PUSH1 0x60 DUP3 ADD MSTORE SWAP1 MLOAD PUSH32 0x14E1D5B6FD685ABD8451960A2579C435BA7A639EC0A19FA1941E72A9F6652285 SWAP2 DUP2 SWAP1 SUB PUSH1 0x80 ADD SWAP1 LOG1 POP POP POP POP POP JUMP JUMPDEST CALLER DUP1 PUSH2 0x2E6B PUSH2 0x1AFD JUMP JUMPDEST PUSH1 0x1 PUSH1 0x1 PUSH1 0xA0 SHL SUB AND EQ PUSH2 0x2EB0 JUMPI PUSH1 0x40 MLOAD PUSH3 0x461BCD PUSH1 0xE5 SHL DUP2 MSTORE PUSH1 0x4 ADD DUP1 DUP1 PUSH1 0x20 ADD DUP3 DUP2 SUB DUP3 MSTORE PUSH1 0x28 DUP2 MSTORE PUSH1 0x20 ADD DUP1 PUSH2 0x53FA PUSH1 0x28 SWAP2 CODECOPY PUSH1 0x40 ADD SWAP2 POP POP PUSH1 0x40 MLOAD DUP1 SWAP2 SUB SWAP1 REVERT JUMPDEST POP PUSH1 0xE DUP1 SLOAD PUSH4 0xFFFFFFFF NOT AND PUSH4 0xFFFFFFFF SWAP3 SWAP1 SWAP3 AND SWAP2 SWAP1 SWAP2 OR SWAP1 SSTORE JUMP JUMPDEST PUSH1 0x0 DUP1 PUSH1 0x0 PUSH1 0x60 PUSH1 0x0 DUP1 PUSH1 0x0 PUSH1 0x11 DUP9 DUP2 SLOAD DUP2 LT PUSH2 0x2EE6 JUMPI INVALID JUMPDEST SWAP1 PUSH1 0x0 MSTORE PUSH1 0x20 PUSH1 0x0 KECCAK256 SWAP1 PUSH1 0x8 MUL ADD PUSH1 0x0 ADD SLOAD PUSH1 0x11 DUP10 DUP2 SLOAD DUP2 LT PUSH2 0x2F05 JUMPI INVALID JUMPDEST SWAP1 PUSH1 0x0 MSTORE PUSH1 0x20 PUSH1 0x0 KECCAK256 SWAP1 PUSH1 0x8 MUL ADD PUSH1 0x1 ADD SLOAD PUSH1 0x11 DUP11 DUP2 SLOAD DUP2 LT PUSH2 0x2F24 JUMPI INVALID JUMPDEST SWAP1 PUSH1 0x0 MSTORE PUSH1 0x20 PUSH1 0x0 KECCAK256 SWAP1 PUSH1 0x8 MUL ADD PUSH1 0x2 ADD SLOAD PUSH1 0x11 DUP12 DUP2 SLOAD DUP2 LT PUSH2 0x2F43 JUMPI INVALID JUMPDEST SWAP1 PUSH1 0x0 MSTORE PUSH1 0x20 PUSH1 0x0 KECCAK256 SWAP1 PUSH1 0x8 MUL ADD PUSH1 0x3 ADD PUSH1 0x11 DUP13 DUP2 SLOAD DUP2 LT PUSH2 0x2F61 JUMPI INVALID JUMPDEST SWAP1 PUSH1 0x0 MSTORE PUSH1 0x20 PUSH1 0x0 KECCAK256 SWAP1 PUSH1 0x8 MUL ADD PUSH1 0x4 ADD PUSH1 0x0 SWAP1 SLOAD SWAP1 PUSH2 0x100 EXP SWAP1 DIV PUSH4 0xFFFFFFFF AND PUSH1 0x11 DUP14 DUP2 SLOAD DUP2 LT PUSH2 0x2F90 JUMPI INVALID JUMPDEST SWAP1 PUSH1 0x0 MSTORE PUSH1 0x20 PUSH1 0x0 KECCAK256 SWAP1 PUSH1 0x8 MUL ADD PUSH1 0x5 ADD SLOAD PUSH1 0x11 DUP15 DUP2 SLOAD DUP2 LT PUSH2 0x2FAF JUMPI INVALID JUMPDEST PUSH1 0x0 SWAP2 DUP3 MSTORE PUSH1 0x20 SWAP2 DUP3 SWAP1 KECCAK256 PUSH1 0x6 PUSH1 0x8 SWAP1 SWAP3 MUL ADD ADD SLOAD DUP5 SLOAD PUSH1 0x40 DUP1 MLOAD PUSH1 0x1F PUSH1 0x2 PUSH1 0x0 NOT PUSH1 0x1 DUP7 AND ISZERO PUSH2 0x100 MUL ADD SWAP1 SWAP5 AND SWAP4 SWAP1 SWAP4 DIV SWAP3 DUP4 ADD DUP6 SWAP1 DIV DUP6 MUL DUP2 ADD DUP6 ADD SWAP1 SWAP2 MSTORE DUP2 DUP2 MSTORE PUSH1 0xFF SWAP1 SWAP3 AND SWAP3 DUP7 SWAP2 SWAP1 DUP4 ADD DUP3 DUP3 DUP1 ISZERO PUSH2 0x304E JUMPI DUP1 PUSH1 0x1F LT PUSH2 0x3023 JUMPI PUSH2 0x100 DUP1 DUP4 SLOAD DIV MUL DUP4 MSTORE SWAP2 PUSH1 0x20 ADD SWAP2 PUSH2 0x304E JUMP JUMPDEST DUP3 ADD SWAP2 SWAP1 PUSH1 0x0 MSTORE PUSH1 0x20 PUSH1 0x0 KECCAK256 SWAP1 JUMPDEST DUP2 SLOAD DUP2 MSTORE SWAP1 PUSH1 0x1 ADD SWAP1 PUSH1 0x20 ADD DUP1 DUP4 GT PUSH2 0x3031 JUMPI DUP3 SWAP1 SUB PUSH1 0x1F AND DUP3 ADD SWAP2 JUMPDEST POP POP POP POP POP SWAP4 POP SWAP7 POP SWAP7 POP SWAP7 POP SWAP7 POP SWAP7 POP SWAP7 POP SWAP7 POP SWAP2 SWAP4 SWAP6 SWAP8 SWAP1 SWAP3 SWAP5 SWAP7 POP JUMP JUMPDEST CALLER DUP1 PUSH2 0x3078 PUSH2 0x1AFD JUMP JUMPDEST PUSH1 0x1 PUSH1 0x1 PUSH1 0xA0 SHL SUB AND EQ PUSH2 0x30BD JUMPI PUSH1 0x40 MLOAD PUSH3 0x461BCD PUSH1 0xE5 SHL DUP2 MSTORE PUSH1 0x4 ADD DUP1 DUP1 PUSH1 0x20 ADD DUP3 DUP2 SUB DUP3 MSTORE PUSH1 0x28 DUP2 MSTORE PUSH1 0x20 ADD DUP1 PUSH2 0x53FA PUSH1 0x28 SWAP2 CODECOPY PUSH1 0x40 ADD SWAP2 POP POP PUSH1 0x40 MLOAD DUP1 SWAP2 SUB SWAP1 REVERT JUMPDEST PUSH1 0x40 MLOAD PUSH1 0x1 PUSH1 0x1 PUSH1 0xA0 SHL SUB DUP4 AND SWAP1 DUP5 ISZERO PUSH2 0x8FC MUL SWAP1 DUP6 SWAP1 PUSH1 0x0 DUP2 DUP2 DUP2 DUP6 DUP9 DUP9 CALL SWAP4 POP POP POP POP ISZERO DUP1 ISZERO PUSH2 0x30F3 JUMPI RETURNDATASIZE PUSH1 0x0 DUP1 RETURNDATACOPY RETURNDATASIZE PUSH1 0x0 REVERT JUMPDEST POP PUSH1 0x1E DUP1 SLOAD DUP5 DUP2 SUB SWAP2 DUP3 SWAP1 SSTORE PUSH1 0x40 DUP1 MLOAD DUP3 DUP2 MSTORE PUSH1 0x20 DUP2 ADD SWAP4 SWAP1 SWAP4 MSTORE PUSH1 0x60 DUP4 DUP3 ADD DUP2 SWAP1 MSTORE PUSH1 0x1 SWAP1 DUP5 ADD MSTORE PUSH1 0x2D PUSH1 0xF8 SHL PUSH1 0x80 DUP5 ADD MSTORE MLOAD SWAP1 SWAP2 PUSH1 0x0 DUP1 MLOAD PUSH1 0x20 PUSH2 0x5671 DUP4 CODECOPY DUP2 MLOAD SWAP2 MSTORE SWAP2 SWAP1 DUP2 SWAP1 SUB PUSH1 0xA0 ADD SWAP1 LOG1 POP POP POP POP JUMP JUMPDEST CALLER DUP1 PUSH2 0x3152 PUSH2 0x1AFD JUMP JUMPDEST PUSH1 0x1 PUSH1 0x1 PUSH1 0xA0 SHL SUB AND EQ PUSH2 0x3197 JUMPI PUSH1 0x40 MLOAD PUSH3 0x461BCD PUSH1 0xE5 SHL DUP2 MSTORE PUSH1 0x4 ADD DUP1 DUP1 PUSH1 0x20 ADD DUP3 DUP2 SUB DUP3 MSTORE PUSH1 0x28 DUP2 MSTORE PUSH1 0x20 ADD DUP1 PUSH2 0x53FA PUSH1 0x28 SWAP2 CODECOPY PUSH1 0x40 ADD SWAP2 POP POP PUSH1 0x40 MLOAD DUP1 SWAP2 SUB SWAP1 REVERT JUMPDEST POP PUSH1 0x20 SSTORE JUMP JUMPDEST PUSH1 0x1F SLOAD PUSH1 0x1 PUSH1 0x1 PUSH1 0xA0 SHL SUB AND PUSH1 0x0 SWAP1 DUP2 MSTORE PUSH1 0x12 PUSH1 0x20 MSTORE PUSH1 0x40 SWAP1 KECCAK256 SLOAD SWAP1 JUMP JUMPDEST PUSH1 0xE SLOAD PUSH4 0xFFFFFFFF AND SWAP1 JUMP JUMPDEST CALLER PUSH1 0x1 PUSH1 0x1 PUSH1 0xA0 SHL SUB PUSH32 0x0 AND EQ PUSH2 0x3244 JUMPI PUSH1 0x40 DUP1 MLOAD PUSH3 0x461BCD PUSH1 0xE5 SHL DUP2 MSTORE PUSH1 0x20 PUSH1 0x4 DUP3 ADD MSTORE PUSH1 0x1F PUSH1 0x24 DUP3 ADD MSTORE PUSH32 0x4F6E6C7920565246436F6F7264696E61746F722063616E2066756C66696C6C00 PUSH1 0x44 DUP3 ADD MSTORE SWAP1 MLOAD SWAP1 DUP2 SWAP1 SUB PUSH1 0x64 ADD SWAP1 REVERT JUMPDEST PUSH2 0x324E DUP3 DUP3 PUSH2 0x45A2 JUMP JUMPDEST POP POP JUMP JUMPDEST PUSH1 0x8 DUP1 SLOAD PUSH1 0x40 DUP1 MLOAD PUSH1 0x20 PUSH1 0x1F PUSH1 0x2 PUSH1 0x0 NOT PUSH2 0x100 PUSH1 0x1 DUP9 AND ISZERO MUL ADD SWAP1 SWAP6 AND SWAP5 SWAP1 SWAP5 DIV SWAP4 DUP5 ADD DUP2 SWAP1 DIV DUP2 MUL DUP3 ADD DUP2 ADD SWAP1 SWAP3 MSTORE DUP3 DUP2 MSTORE PUSH1 0x60 SWAP4 SWAP1 SWAP3 SWAP1 SWAP2 DUP4 ADD DUP3 DUP3 DUP1 ISZERO PUSH2 0x19B6 JUMPI DUP1 PUSH1 0x1F LT PUSH2 0x198B JUMPI PUSH2 0x100 DUP1 DUP4 SLOAD DIV MUL DUP4 MSTORE SWAP2 PUSH1 0x20 ADD SWAP2 PUSH2 0x19B6 JUMP JUMPDEST PUSH1 0xC SLOAD PUSH1 0x40 DUP1 MLOAD PUSH4 0x3DB1CDBF PUSH1 0xE2 SHL DUP2 MSTORE CALLER PUSH1 0x4 DUP3 ADD DUP2 SWAP1 MSTORE SWAP2 MLOAD SWAP2 SWAP3 DUP5 SWAP3 DUP4 SWAP3 PUSH1 0x1 PUSH1 0x1 PUSH1 0xA0 SHL SUB SWAP1 SWAP3 AND SWAP2 PUSH4 0xF6C736FC SWAP2 PUSH1 0x24 DUP1 DUP4 ADD SWAP3 PUSH1 0x20 SWAP3 SWAP2 SWAP1 DUP3 SWAP1 SUB ADD DUP2 DUP7 DUP1 EXTCODESIZE ISZERO DUP1 ISZERO PUSH2 0x3305 JUMPI PUSH1 0x0 DUP1 REVERT JUMPDEST POP GAS STATICCALL ISZERO DUP1 ISZERO PUSH2 0x3319 JUMPI RETURNDATASIZE PUSH1 0x0 DUP1 RETURNDATACOPY RETURNDATASIZE PUSH1 0x0 REVERT JUMPDEST POP POP POP POP PUSH1 0x40 MLOAD RETURNDATASIZE PUSH1 0x20 DUP2 LT ISZERO PUSH2 0x332F JUMPI PUSH1 0x0 DUP1 REVERT JUMPDEST POP MLOAD LT ISZERO PUSH2 0x3375 JUMPI PUSH1 0x40 DUP1 MLOAD PUSH3 0x461BCD PUSH1 0xE5 SHL DUP2 MSTORE PUSH1 0x20 PUSH1 0x4 DUP3 ADD MSTORE PUSH1 0xE PUSH1 0x24 DUP3 ADD MSTORE PUSH14 0x4E6F7420656E6F75676820554A47 PUSH1 0x90 SHL PUSH1 0x44 DUP3 ADD MSTORE SWAP1 MLOAD SWAP1 DUP2 SWAP1 SUB PUSH1 0x64 ADD SWAP1 REVERT JUMPDEST PUSH1 0xC SLOAD PUSH1 0x40 DUP1 MLOAD PUSH4 0x3844B707 PUSH1 0xE0 SHL DUP2 MSTORE CALLER PUSH1 0x4 DUP3 ADD MSTORE PUSH1 0x1 PUSH1 0x1 PUSH1 0xA0 SHL SUB DUP8 DUP2 AND PUSH1 0x24 DUP4 ADD MSTORE PUSH1 0x44 DUP3 ADD DUP8 SWAP1 MSTORE SWAP2 MLOAD SWAP2 SWAP1 SWAP3 AND SWAP2 PUSH4 0x3844B707 SWAP2 PUSH1 0x64 DUP1 DUP4 ADD SWAP3 PUSH1 0x0 SWAP3 SWAP2 SWAP1 DUP3 SWAP1 SUB ADD DUP2 DUP4 DUP8 DUP1 EXTCODESIZE ISZERO DUP1 ISZERO PUSH2 0x33D0 JUMPI PUSH1 0x0 DUP1 REVERT JUMPDEST POP GAS CALL ISZERO DUP1 ISZERO PUSH2 0x33E4 JUMPI RETURNDATASIZE PUSH1 0x0 DUP1 RETURNDATACOPY RETURNDATASIZE PUSH1 0x0 REVERT JUMPDEST POP POP PUSH1 0x40 DUP1 MLOAD CALLER DUP2 MSTORE PUSH1 0x1 PUSH1 0x1 PUSH1 0xA0 SHL SUB DUP9 AND PUSH1 0x20 DUP3 ADD MSTORE DUP1 DUP3 ADD DUP8 SWAP1 MSTORE PUSH1 0x0 PUSH1 0x60 DUP3 ADD MSTORE SWAP1 MLOAD PUSH32 0x14E1D5B6FD685ABD8451960A2579C435BA7A639EC0A19FA1941E72A9F6652285 SWAP4 POP SWAP1 DUP2 SWAP1 SUB PUSH1 0x80 ADD SWAP2 POP LOG1 POP POP POP POP JUMP JUMPDEST CALLER DUP1 PUSH2 0x3448 PUSH2 0x1AFD JUMP JUMPDEST PUSH1 0x1 PUSH1 0x1 PUSH1 0xA0 SHL SUB AND EQ PUSH2 0x348D JUMPI PUSH1 0x40 MLOAD PUSH3 0x461BCD PUSH1 0xE5 SHL DUP2 MSTORE PUSH1 0x4 ADD DUP1 DUP1 PUSH1 0x20 ADD DUP3 DUP2 SUB DUP3 MSTORE PUSH1 0x28 DUP2 MSTORE PUSH1 0x20 ADD DUP1 PUSH2 0x53FA PUSH1 0x28 SWAP2 CODECOPY PUSH1 0x40 ADD SWAP2 POP POP PUSH1 0x40 MLOAD DUP1 SWAP2 SUB SWAP1 REVERT JUMPDEST PUSH1 0x0 CALLVALUE GT PUSH2 0x349A JUMPI PUSH1 0x0 DUP1 REVERT JUMPDEST PUSH1 0x1E DUP1 SLOAD CALLVALUE DUP2 ADD SWAP2 DUP3 SWAP1 SSTORE PUSH1 0x40 DUP1 MLOAD DUP3 DUP2 MSTORE PUSH1 0x20 DUP2 ADD SWAP4 SWAP1 SWAP4 MSTORE PUSH1 0x60 DUP4 DUP3 ADD DUP2 SWAP1 MSTORE PUSH1 0x1 SWAP1 DUP5 ADD MSTORE PUSH1 0x2B PUSH1 0xF8 SHL PUSH1 0x80 DUP5 ADD MSTORE MLOAD SWAP1 SWAP2 PUSH1 0x0 DUP1 MLOAD PUSH1 0x20 PUSH2 0x5671 DUP4 CODECOPY DUP2 MLOAD SWAP2 MSTORE SWAP2 SWAP1 DUP2 SWAP1 SUB PUSH1 0xA0 ADD SWAP1 LOG1 POP POP JUMP JUMPDEST CALLER DUP1 PUSH2 0x34F6 PUSH2 0x1AFD JUMP JUMPDEST PUSH1 0x1 PUSH1 0x1 PUSH1 0xA0 SHL SUB AND EQ PUSH2 0x353B JUMPI PUSH1 0x40 MLOAD PUSH3 0x461BCD PUSH1 0xE5 SHL DUP2 MSTORE PUSH1 0x4 ADD DUP1 DUP1 PUSH1 0x20 ADD DUP3 DUP2 SUB DUP3 MSTORE PUSH1 0x28 DUP2 MSTORE PUSH1 0x20 ADD DUP1 PUSH2 0x53FA PUSH1 0x28 SWAP2 CODECOPY PUSH1 0x40 ADD SWAP2 POP POP PUSH1 0x40 MLOAD DUP1 SWAP2 SUB SWAP1 REVERT JUMPDEST POP PUSH1 0x1A SSTORE JUMP JUMPDEST PUSH2 0x3549 PUSH2 0x3FBA JUMP JUMPDEST PUSH1 0x1 PUSH1 0x1 PUSH1 0xA0 SHL SUB AND DUP3 PUSH1 0x1 PUSH1 0x1 PUSH1 0xA0 SHL SUB AND EQ ISZERO PUSH2 0x35AF JUMPI PUSH1 0x40 DUP1 MLOAD PUSH3 0x461BCD PUSH1 0xE5 SHL DUP2 MSTORE PUSH1 0x20 PUSH1 0x4 DUP3 ADD MSTORE PUSH1 0x19 PUSH1 0x24 DUP3 ADD MSTORE PUSH32 0x4552433732313A20617070726F766520746F2063616C6C657200000000000000 PUSH1 0x44 DUP3 ADD MSTORE SWAP1 MLOAD SWAP1 DUP2 SWAP1 SUB PUSH1 0x64 ADD SWAP1 REVERT JUMPDEST DUP1 PUSH1 0x6 PUSH1 0x0 PUSH2 0x35BC PUSH2 0x3FBA JUMP JUMPDEST PUSH1 0x1 PUSH1 0x1 PUSH1 0xA0 SHL SUB SWAP1 DUP2 AND DUP3 MSTORE PUSH1 0x20 DUP1 DUP4 ADD SWAP4 SWAP1 SWAP4 MSTORE PUSH1 0x40 SWAP2 DUP3 ADD PUSH1 0x0 SWAP1 DUP2 KECCAK256 SWAP2 DUP8 AND DUP1 DUP3 MSTORE SWAP2 SWAP1 SWAP4 MSTORE SWAP2 KECCAK256 DUP1 SLOAD PUSH1 0xFF NOT AND SWAP3 ISZERO ISZERO SWAP3 SWAP1 SWAP3 OR SWAP1 SWAP2 SSTORE PUSH2 0x3600 PUSH2 0x3FBA JUMP JUMPDEST PUSH1 0x1 PUSH1 0x1 PUSH1 0xA0 SHL SUB AND PUSH32 0x17307EAB39AB6107E8899845AD3D59BD9653F200F220920489CA2B5937696C31 DUP4 PUSH1 0x40 MLOAD DUP1 DUP3 ISZERO ISZERO DUP2 MSTORE PUSH1 0x20 ADD SWAP2 POP POP PUSH1 0x40 MLOAD DUP1 SWAP2 SUB SWAP1 LOG3 POP POP JUMP JUMPDEST PUSH1 0xC SLOAD PUSH1 0x40 DUP1 MLOAD PUSH4 0x3DB1CDBF PUSH1 0xE2 SHL DUP2 MSTORE PUSH1 0x1 PUSH1 0x1 PUSH1 0xA0 SHL SUB DUP5 DUP2 AND PUSH1 0x4 DUP4 ADD MSTORE SWAP2 MLOAD PUSH1 0x0 SWAP4 SWAP3 SWAP1 SWAP3 AND SWAP2 PUSH4 0xF6C736FC SWAP2 PUSH1 0x24 DUP1 DUP3 ADD SWAP3 PUSH1 0x20 SWAP3 SWAP1 SWAP2 SWAP1 DUP3 SWAP1 SUB ADD DUP2 DUP7 DUP1 EXTCODESIZE ISZERO DUP1 ISZERO PUSH2 0x3697 JUMPI PUSH1 0x0 DUP1 REVERT JUMPDEST POP GAS STATICCALL ISZERO DUP1 ISZERO PUSH2 0x36AB JUMPI RETURNDATASIZE PUSH1 0x0 DUP1 RETURNDATACOPY RETURNDATASIZE PUSH1 0x0 REVERT JUMPDEST POP POP POP POP PUSH1 0x40 MLOAD RETURNDATASIZE PUSH1 0x20 DUP2 LT ISZERO PUSH2 0x36C1 JUMPI PUSH1 0x0 DUP1 REVERT JUMPDEST POP MLOAD SWAP3 SWAP2 POP POP JUMP JUMPDEST PUSH2 0x36DA PUSH2 0x36D4 PUSH2 0x3FBA JUMP JUMPDEST DUP4 PUSH2 0x4037 JUMP JUMPDEST PUSH2 0x3715 JUMPI PUSH1 0x40 MLOAD PUSH3 0x461BCD PUSH1 0xE5 SHL DUP2 MSTORE PUSH1 0x4 ADD DUP1 DUP1 PUSH1 0x20 ADD DUP3 DUP2 SUB DUP3 MSTORE PUSH1 0x31 DUP2 MSTORE PUSH1 0x20 ADD DUP1 PUSH2 0x5640 PUSH1 0x31 SWAP2 CODECOPY PUSH1 0x40 ADD SWAP2 POP POP PUSH1 0x40 MLOAD DUP1 SWAP2 SUB SWAP1 REVERT JUMPDEST PUSH2 0x3721 DUP5 DUP5 DUP5 DUP5 PUSH2 0x45CA JUMP JUMPDEST POP POP POP POP JUMP JUMPDEST DUP1 PUSH1 0x13 PUSH1 0x0 PUSH1 0x11 DUP4 DUP2 SLOAD DUP2 LT PUSH2 0x3739 JUMPI INVALID JUMPDEST PUSH1 0x0 SWAP2 DUP3 MSTORE PUSH1 0x20 DUP1 DUP4 KECCAK256 PUSH1 0x8 SWAP3 SWAP1 SWAP3 MUL SWAP1 SWAP2 ADD PUSH1 0x5 ADD SLOAD DUP4 MSTORE DUP3 ADD SWAP3 SWAP1 SWAP3 MSTORE PUSH1 0x40 ADD SWAP1 KECCAK256 SLOAD PUSH1 0x1 PUSH1 0x1 PUSH1 0xA0 SHL SUB AND CALLER EQ PUSH2 0x37B3 JUMPI PUSH1 0x40 DUP1 MLOAD PUSH3 0x461BCD PUSH1 0xE5 SHL DUP2 MSTORE PUSH1 0x20 PUSH1 0x4 DUP3 ADD MSTORE PUSH1 0x16 PUSH1 0x24 DUP3 ADD MSTORE PUSH22 0x2A9030B932B713BA103A34329037333A1027BBB732B9 PUSH1 0x51 SHL PUSH1 0x44 DUP3 ADD MSTORE SWAP1 MLOAD SWAP1 DUP2 SWAP1 SUB PUSH1 0x64 ADD SWAP1 REVERT JUMPDEST DUP2 PUSH1 0x11 DUP2 DUP2 SLOAD DUP2 LT PUSH2 0x37C1 JUMPI INVALID JUMPDEST PUSH1 0x0 SWAP2 DUP3 MSTORE PUSH1 0x20 SWAP1 SWAP2 KECCAK256 PUSH1 0x6 PUSH1 0x8 SWAP1 SWAP3 MUL ADD ADD SLOAD PUSH1 0xFF AND ISZERO PUSH2 0x3826 JUMPI PUSH1 0x40 DUP1 MLOAD PUSH3 0x461BCD PUSH1 0xE5 SHL DUP2 MSTORE PUSH1 0x20 PUSH1 0x4 DUP3 ADD MSTORE PUSH1 0x19 PUSH1 0x24 DUP3 ADD MSTORE PUSH25 0x151A194814DD1D59195B9D08185C99481A5B881B585C9AD95D PUSH1 0x3A SHL PUSH1 0x44 DUP3 ADD MSTORE SWAP1 MLOAD SWAP1 DUP2 SWAP1 SUB PUSH1 0x64 ADD SWAP1 REVERT JUMPDEST PUSH1 0x0 PUSH1 0x11 DUP5 DUP2 SLOAD DUP2 LT PUSH2 0x3835 JUMPI INVALID JUMPDEST SWAP1 PUSH1 0x0 MSTORE PUSH1 0x20 PUSH1 0x0 KECCAK256 SWAP1 PUSH1 0x8 MUL ADD PUSH1 0x5 ADD SLOAD SWAP1 POP PUSH2 0x3855 PUSH1 0x21 SLOAD CALLER PUSH2 0x3D60 JUMP JUMPDEST PUSH2 0x3860 DUP7 DUP7 DUP4 PUSH2 0x461C JUMP JUMPDEST PUSH1 0x21 SLOAD PUSH1 0x40 DUP1 MLOAD PUSH1 0x1 PUSH1 0x1 PUSH1 0xA0 SHL SUB DUP1 DUP11 AND DUP3 MSTORE DUP9 AND PUSH1 0x20 DUP3 ADD MSTORE DUP1 DUP3 ADD DUP5 SWAP1 MSTORE PUSH1 0x60 DUP2 ADD SWAP3 SWAP1 SWAP3 MSTORE MLOAD PUSH1 0x0 DUP1 MLOAD PUSH1 0x20 PUSH2 0x5620 DUP4 CODECOPY DUP2 MLOAD SWAP2 MSTORE SWAP2 DUP2 SWAP1 SUB PUSH1 0x80 ADD SWAP1 LOG1 POP POP POP POP POP POP JUMP JUMPDEST PUSH1 0x20 SLOAD SWAP1 JUMP JUMPDEST PUSH1 0x1A SLOAD SWAP1 JUMP JUMPDEST PUSH1 0x60 PUSH2 0x38C1 DUP3 PUSH2 0x3FAD JUMP JUMPDEST PUSH2 0x38FC JUMPI PUSH1 0x40 MLOAD PUSH3 0x461BCD PUSH1 0xE5 SHL DUP2 MSTORE PUSH1 0x4 ADD DUP1 DUP1 PUSH1 0x20 ADD DUP3 DUP2 SUB DUP3 MSTORE PUSH1 0x2F DUP2 MSTORE PUSH1 0x20 ADD DUP1 PUSH2 0x55D0 PUSH1 0x2F SWAP2 CODECOPY PUSH1 0x40 ADD SWAP2 POP POP PUSH1 0x40 MLOAD DUP1 SWAP2 SUB SWAP1 REVERT JUMPDEST PUSH1 0x0 DUP3 DUP2 MSTORE PUSH1 0x9 PUSH1 0x20 SWAP1 DUP2 MSTORE PUSH1 0x40 SWAP2 DUP3 SWAP1 KECCAK256 DUP1 SLOAD DUP4 MLOAD PUSH1 0x1F PUSH1 0x2 PUSH1 0x0 NOT PUSH2 0x100 PUSH1 0x1 DUP7 AND ISZERO MUL ADD SWAP1 SWAP4 AND SWAP3 SWAP1 SWAP3 DIV SWAP2 DUP3 ADD DUP5 SWAP1 DIV DUP5 MUL DUP2 ADD DUP5 ADD SWAP1 SWAP5 MSTORE DUP1 DUP5 MSTORE PUSH1 0x60 SWAP4 SWAP3 DUP4 ADD DUP3 DUP3 DUP1 ISZERO PUSH2 0x3991 JUMPI DUP1 PUSH1 0x1F LT PUSH2 0x3966 JUMPI PUSH2 0x100 DUP1 DUP4 SLOAD DIV MUL DUP4 MSTORE SWAP2 PUSH1 0x20 ADD SWAP2 PUSH2 0x3991 JUMP JUMPDEST DUP3 ADD SWAP2 SWAP1 PUSH1 0x0 MSTORE PUSH1 0x20 PUSH1 0x0 KECCAK256 SWAP1 JUMPDEST DUP2 SLOAD DUP2 MSTORE SWAP1 PUSH1 0x1 ADD SWAP1 PUSH1 0x20 ADD DUP1 DUP4 GT PUSH2 0x3974 JUMPI DUP3 SWAP1 SUB PUSH1 0x1F AND DUP3 ADD SWAP2 JUMPDEST POP POP POP POP POP SWAP1 POP PUSH1 0x60 PUSH2 0x39A2 PUSH2 0x293F JUMP JUMPDEST SWAP1 POP DUP1 MLOAD PUSH1 0x0 EQ ISZERO PUSH2 0x39B6 JUMPI POP SWAP1 POP PUSH2 0x13BF JUMP JUMPDEST DUP2 MLOAD ISZERO PUSH2 0x3A77 JUMPI DUP1 DUP3 PUSH1 0x40 MLOAD PUSH1 0x20 ADD DUP1 DUP4 DUP1 MLOAD SWAP1 PUSH1 0x20 ADD SWAP1 DUP1 DUP4 DUP4 JUMPDEST PUSH1 0x20 DUP4 LT PUSH2 0x39F1 JUMPI DUP1 MLOAD DUP3 MSTORE PUSH1 0x1F NOT SWAP1 SWAP3 ADD SWAP2 PUSH1 0x20 SWAP2 DUP3 ADD SWAP2 ADD PUSH2 0x39D2 JUMP JUMPDEST MLOAD DUP2 MLOAD PUSH1 0x20 SWAP4 DUP5 SUB PUSH2 0x100 EXP PUSH1 0x0 NOT ADD DUP1 NOT SWAP1 SWAP3 AND SWAP2 AND OR SWAP1 MSTORE DUP6 MLOAD SWAP2 SWAP1 SWAP4 ADD SWAP3 DUP6 ADD SWAP2 POP DUP1 DUP4 DUP4 JUMPDEST PUSH1 0x20 DUP4 LT PUSH2 0x3A39 JUMPI DUP1 MLOAD DUP3 MSTORE PUSH1 0x1F NOT SWAP1 SWAP3 ADD SWAP2 PUSH1 0x20 SWAP2 DUP3 ADD SWAP2 ADD PUSH2 0x3A1A JUMP JUMPDEST PUSH1 0x1 DUP4 PUSH1 0x20 SUB PUSH2 0x100 EXP SUB DUP1 NOT DUP3 MLOAD AND DUP2 DUP5 MLOAD AND DUP1 DUP3 OR DUP6 MSTORE POP POP POP POP POP POP SWAP1 POP ADD SWAP3 POP POP POP PUSH1 0x40 MLOAD PUSH1 0x20 DUP2 DUP4 SUB SUB DUP2 MSTORE SWAP1 PUSH1 0x40 MSTORE SWAP3 POP POP POP PUSH2 0x13BF JUMP JUMPDEST DUP1 PUSH2 0x3A81 DUP6 PUSH2 0x4679 JUMP JUMPDEST PUSH1 0x40 MLOAD PUSH1 0x20 ADD DUP1 DUP4 DUP1 MLOAD SWAP1 PUSH1 0x20 ADD SWAP1 DUP1 DUP4 DUP4 JUMPDEST PUSH1 0x20 DUP4 LT PUSH2 0x3AB3 JUMPI DUP1 MLOAD DUP3 MSTORE PUSH1 0x1F NOT SWAP1 SWAP3 ADD SWAP2 PUSH1 0x20 SWAP2 DUP3 ADD SWAP2 ADD PUSH2 0x3A94 JUMP JUMPDEST MLOAD DUP2 MLOAD PUSH1 0x20 SWAP4 DUP5 SUB PUSH2 0x100 EXP PUSH1 0x0 NOT ADD DUP1 NOT SWAP1 SWAP3 AND SWAP2 AND OR SWAP1 MSTORE DUP6 MLOAD SWAP2 SWAP1 SWAP4 ADD SWAP3 DUP6 ADD SWAP2 POP DUP1 DUP4 DUP4 JUMPDEST PUSH1 0x20 DUP4 LT PUSH2 0x3AFB JUMPI DUP1 MLOAD DUP3 MSTORE PUSH1 0x1F NOT SWAP1 SWAP3 ADD SWAP2 PUSH1 0x20 SWAP2 DUP3 ADD SWAP2 ADD PUSH2 0x3ADC JUMP JUMPDEST PUSH1 0x1 DUP4 PUSH1 0x20 SUB PUSH2 0x100 EXP SUB DUP1 NOT DUP3 MLOAD AND DUP2 DUP5 MLOAD AND DUP1 DUP3 OR DUP6 MSTORE POP POP POP POP POP POP SWAP1 POP ADD SWAP3 POP POP POP PUSH1 0x40 MLOAD PUSH1 0x20 DUP2 DUP4 SUB SUB DUP2 MSTORE SWAP1 PUSH1 0x40 MSTORE SWAP3 POP POP POP SWAP2 SWAP1 POP JUMP JUMPDEST PUSH1 0x19 SLOAD MUL PUSH8 0x8AC7230489E80000 MUL SWAP1 JUMP JUMPDEST PUSH1 0x1E SLOAD SWAP1 JUMP JUMPDEST PUSH2 0x324E DUP3 DUP3 PUSH2 0x4754 JUMP JUMPDEST PUSH1 0x0 SWAP1 DUP2 MSTORE PUSH1 0x16 PUSH1 0x20 MSTORE PUSH1 0x40 SWAP1 KECCAK256 SLOAD PUSH1 0xFF AND SWAP1 JUMP JUMPDEST PUSH1 0x1F SLOAD PUSH1 0x1 PUSH1 0x1 PUSH1 0xA0 SHL SUB AND PUSH1 0x0 SWAP1 DUP2 MSTORE PUSH1 0x12 PUSH1 0x20 MSTORE PUSH1 0x40 SWAP1 KECCAK256 SLOAD PUSH1 0x60 SWAP1 DUP2 SWAP1 PUSH8 0xFFFFFFFFFFFFFFFF DUP2 GT DUP1 ISZERO PUSH2 0x3BA5 JUMPI PUSH1 0x0 DUP1 REVERT JUMPDEST POP PUSH1 0x40 MLOAD SWAP1 DUP1 DUP3 MSTORE DUP1 PUSH1 0x20 MUL PUSH1 0x20 ADD DUP3 ADD PUSH1 0x40 MSTORE DUP1 ISZERO PUSH2 0x3BCF JUMPI DUP2 PUSH1 0x20 ADD PUSH1 0x20 DUP3 MUL DUP1 CALLDATASIZE DUP4 CALLDATACOPY ADD SWAP1 POP JUMPDEST POP SWAP1 POP PUSH1 0x0 DUP1 JUMPDEST PUSH1 0x11 SLOAD DUP2 LT ISZERO PUSH2 0x3C30 JUMPI PUSH1 0x11 DUP2 DUP2 SLOAD DUP2 LT PUSH2 0x3BED JUMPI INVALID JUMPDEST PUSH1 0x0 SWAP2 DUP3 MSTORE PUSH1 0x20 SWAP1 SWAP2 KECCAK256 PUSH1 0x6 PUSH1 0x8 SWAP1 SWAP3 MUL ADD ADD SLOAD PUSH1 0xFF AND ISZERO PUSH2 0x3C28 JUMPI DUP1 DUP4 DUP4 DUP2 MLOAD DUP2 LT PUSH2 0x3C16 JUMPI INVALID JUMPDEST PUSH1 0x20 SWAP1 DUP2 MUL SWAP2 SWAP1 SWAP2 ADD ADD MSTORE PUSH1 0x1 SWAP1 SWAP2 ADD SWAP1 JUMPDEST PUSH1 0x1 ADD PUSH2 0x3BD6 JUMP JUMPDEST POP SWAP1 SWAP2 POP POP SWAP1 JUMP JUMPDEST PUSH1 0x1 PUSH1 0x1 PUSH1 0xA0 SHL SUB SWAP2 DUP3 AND PUSH1 0x0 SWAP1 DUP2 MSTORE PUSH1 0x6 PUSH1 0x20 SWAP1 DUP2 MSTORE PUSH1 0x40 DUP1 DUP4 KECCAK256 SWAP4 SWAP1 SWAP5 AND DUP3 MSTORE SWAP2 SWAP1 SWAP2 MSTORE KECCAK256 SLOAD PUSH1 0xFF AND SWAP1 JUMP JUMPDEST CALLER DUP1 PUSH2 0x3C70 PUSH2 0x1AFD JUMP JUMPDEST PUSH1 0x1 PUSH1 0x1 PUSH1 0xA0 SHL SUB AND EQ PUSH2 0x3CB5 JUMPI PUSH1 0x40 MLOAD PUSH3 0x461BCD PUSH1 0xE5 SHL DUP2 MSTORE PUSH1 0x4 ADD DUP1 DUP1 PUSH1 0x20 ADD DUP3 DUP2 SUB DUP3 MSTORE PUSH1 0x28 DUP2 MSTORE PUSH1 0x20 ADD DUP1 PUSH2 0x53FA PUSH1 0x28 SWAP2 CODECOPY PUSH1 0x40 ADD SWAP2 POP POP PUSH1 0x40 MLOAD DUP1 SWAP2 SUB SWAP1 REVERT JUMPDEST POP PUSH1 0x19 SSTORE JUMP JUMPDEST CALLER DUP1 PUSH2 0x3CC5 PUSH2 0x1AFD JUMP JUMPDEST PUSH1 0x1 PUSH1 0x1 PUSH1 0xA0 SHL SUB AND EQ PUSH2 0x3D0A JUMPI PUSH1 0x40 MLOAD PUSH3 0x461BCD PUSH1 0xE5 SHL DUP2 MSTORE PUSH1 0x4 ADD DUP1 DUP1 PUSH1 0x20 ADD DUP3 DUP2 SUB DUP3 MSTORE PUSH1 0x28 DUP2 MSTORE PUSH1 0x20 ADD DUP1 PUSH2 0x53FA PUSH1 0x28 SWAP2 CODECOPY PUSH1 0x40 ADD SWAP2 POP POP PUSH1 0x40 MLOAD DUP1 SWAP2 SUB SWAP1 REVERT JUMPDEST POP PUSH1 0x21 SSTORE JUMP JUMPDEST PUSH1 0x0 SWAP1 DUP2 MSTORE PUSH1 0x13 PUSH1 0x20 MSTORE PUSH1 0x40 SWAP1 KECCAK256 SLOAD PUSH1 0x1 PUSH1 0x1 PUSH1 0xA0 SHL SUB AND SWAP1 JUMP JUMPDEST PUSH1 0x40 DUP1 MLOAD SELFBALANCE DUP2 MSTORE SWAP1 MLOAD PUSH32 0x9EDA563474DCF999B0332C34DEDB9066A385693682EA01C43234FA4E95668A0E SWAP2 DUP2 SWAP1 SUB PUSH1 0x20 ADD SWAP1 LOG1 JUMP JUMPDEST PUSH1 0xC SLOAD PUSH1 0x40 DUP1 MLOAD PUSH4 0x3844B707 PUSH1 0xE0 SHL DUP2 MSTORE PUSH1 0x1 PUSH1 0x1 PUSH1 0xA0 SHL SUB DUP5 DUP2 AND PUSH1 0x4 DUP4 ADD MSTORE ADDRESS PUSH1 0x24 DUP4 ADD MSTORE PUSH1 0x44 DUP3 ADD DUP7 SWAP1 MSTORE SWAP2 MLOAD SWAP2 SWAP1 SWAP3 AND SWAP2 PUSH4 0x3844B707 SWAP2 PUSH1 0x64 DUP1 DUP4 ADD SWAP3 PUSH1 0x0 SWAP3 SWAP2 SWAP1 DUP3 SWAP1 SUB ADD DUP2 DUP4 DUP8 DUP1 EXTCODESIZE ISZERO DUP1 ISZERO PUSH2 0x3DBB JUMPI PUSH1 0x0 DUP1 REVERT JUMPDEST POP GAS CALL ISZERO DUP1 ISZERO PUSH2 0x3DCF JUMPI RETURNDATASIZE PUSH1 0x0 DUP1 RETURNDATACOPY RETURNDATASIZE PUSH1 0x0 REVERT JUMPDEST POP POP PUSH1 0xD DUP1 SLOAD SWAP1 SWAP5 ADD SWAP1 SWAP4 SSTORE POP POP POP JUMP JUMPDEST DUP3 PUSH1 0x1 PUSH1 0x1 PUSH1 0xA0 SHL SUB AND PUSH2 0x3DF3 DUP3 PUSH2 0x28A5 JUMP JUMPDEST PUSH1 0x1 PUSH1 0x1 PUSH1 0xA0 SHL SUB AND EQ PUSH2 0x3E38 JUMPI PUSH1 0x40 MLOAD PUSH3 0x461BCD PUSH1 0xE5 SHL DUP2 MSTORE PUSH1 0x4 ADD DUP1 DUP1 PUSH1 0x20 ADD DUP3 DUP2 SUB DUP3 MSTORE PUSH1 0x29 DUP2 MSTORE PUSH1 0x20 ADD DUP1 PUSH2 0x55A7 PUSH1 0x29 SWAP2 CODECOPY PUSH1 0x40 ADD SWAP2 POP POP PUSH1 0x40 MLOAD DUP1 SWAP2 SUB SWAP1 REVERT JUMPDEST PUSH1 0x1 PUSH1 0x1 PUSH1 0xA0 SHL SUB DUP3 AND PUSH2 0x3E7D JUMPI PUSH1 0x40 MLOAD PUSH3 0x461BCD PUSH1 0xE5 SHL DUP2 MSTORE PUSH1 0x4 ADD DUP1 DUP1 PUSH1 0x20 ADD DUP3 DUP2 SUB DUP3 MSTORE PUSH1 0x24 DUP2 MSTORE PUSH1 0x20 ADD DUP1 PUSH2 0x5422 PUSH1 0x24 SWAP2 CODECOPY PUSH1 0x40 ADD SWAP2 POP POP PUSH1 0x40 MLOAD DUP1 SWAP2 SUB SWAP1 REVERT JUMPDEST PUSH2 0x3E88 DUP4 DUP4 DUP4 PUSH2 0x1AF8 JUMP JUMPDEST PUSH2 0x3E93 PUSH1 0x0 DUP3 PUSH2 0x3FBE JUMP JUMPDEST PUSH1 0x1 PUSH1 0x1 PUSH1 0xA0 SHL SUB DUP4 AND PUSH1 0x0 SWAP1 DUP2 MSTORE PUSH1 0x2 PUSH1 0x20 MSTORE PUSH1 0x40 SWAP1 KECCAK256 PUSH2 0x3EB5 SWAP1 DUP3 PUSH2 0x47B7 JUMP JUMPDEST POP PUSH1 0x1 PUSH1 0x1 PUSH1 0xA0 SHL SUB DUP3 AND PUSH1 0x0 SWAP1 DUP2 MSTORE PUSH1 0x2 PUSH1 0x20 MSTORE PUSH1 0x40 SWAP1 KECCAK256 PUSH2 0x3ED8 SWAP1 DUP3 PUSH2 0x47C3 JUMP JUMPDEST POP PUSH2 0x3EE5 PUSH1 0x3 DUP3 DUP5 PUSH2 0x47CF JUMP JUMPDEST POP DUP1 DUP3 PUSH1 0x1 PUSH1 0x1 PUSH1 0xA0 SHL SUB AND DUP5 PUSH1 0x1 PUSH1 0x1 PUSH1 0xA0 SHL SUB AND PUSH32 0xDDF252AD1BE2C89B69C2B068FC378DAA952BA7F163C4A11628F55A4DF523B3EF PUSH1 0x40 MLOAD PUSH1 0x40 MLOAD DUP1 SWAP2 SUB SWAP1 LOG4 POP POP POP JUMP JUMPDEST PUSH1 0xC SLOAD PUSH1 0x40 DUP1 MLOAD PUSH4 0x3844B707 PUSH1 0xE0 SHL DUP2 MSTORE ADDRESS PUSH1 0x4 DUP3 ADD MSTORE PUSH1 0x1 PUSH1 0x1 PUSH1 0xA0 SHL SUB DUP5 DUP2 AND PUSH1 0x24 DUP4 ADD MSTORE PUSH1 0x44 DUP3 ADD DUP7 SWAP1 MSTORE SWAP2 MLOAD SWAP2 SWAP1 SWAP3 AND SWAP2 PUSH4 0x3844B707 SWAP2 PUSH1 0x64 DUP1 DUP4 ADD SWAP3 PUSH1 0x0 SWAP3 SWAP2 SWAP1 DUP3 SWAP1 SUB ADD DUP2 DUP4 DUP8 DUP1 EXTCODESIZE ISZERO DUP1 ISZERO PUSH2 0x3F87 JUMPI PUSH1 0x0 DUP1 REVERT JUMPDEST POP GAS CALL ISZERO DUP1 ISZERO PUSH2 0x3F9B JUMPI RETURNDATASIZE PUSH1 0x0 DUP1 RETURNDATACOPY RETURNDATASIZE PUSH1 0x0 REVERT JUMPDEST POP POP PUSH1 0xD DUP1 SLOAD SWAP5 SWAP1 SWAP5 SUB SWAP1 SWAP4 SSTORE POP POP POP JUMP JUMPDEST PUSH1 0x0 PUSH2 0x13CF PUSH1 0x3 DUP4 PUSH2 0x47E5 JUMP JUMPDEST CALLER SWAP1 JUMP JUMPDEST PUSH1 0x0 DUP2 DUP2 MSTORE PUSH1 0x5 PUSH1 0x20 MSTORE PUSH1 0x40 SWAP1 KECCAK256 DUP1 SLOAD PUSH1 0x1 PUSH1 0x1 PUSH1 0xA0 SHL SUB NOT AND PUSH1 0x1 PUSH1 0x1 PUSH1 0xA0 SHL SUB DUP5 AND SWAP1 DUP2 OR SWAP1 SWAP2 SSTORE DUP2 SWAP1 PUSH2 0x3FF3 DUP3 PUSH2 0x28A5 JUMP JUMPDEST PUSH1 0x1 PUSH1 0x1 PUSH1 0xA0 SHL SUB AND PUSH32 0x8C5BE1E5EBEC7D5BD14F71427D1E84F3DD0314C0F7B2291E5B200AC8C7C3B925 PUSH1 0x40 MLOAD PUSH1 0x40 MLOAD DUP1 SWAP2 SUB SWAP1 LOG4 POP POP JUMP JUMPDEST PUSH1 0x0 PUSH2 0x13CF DUP3 PUSH2 0x47F1 JUMP JUMPDEST PUSH1 0x0 PUSH2 0x4042 DUP3 PUSH2 0x3FAD JUMP JUMPDEST PUSH2 0x407D JUMPI PUSH1 0x40 MLOAD PUSH3 0x461BCD PUSH1 0xE5 SHL DUP2 MSTORE PUSH1 0x4 ADD DUP1 DUP1 PUSH1 0x20 ADD DUP3 DUP2 SUB DUP3 MSTORE PUSH1 0x2C DUP2 MSTORE PUSH1 0x20 ADD DUP1 PUSH2 0x5476 PUSH1 0x2C SWAP2 CODECOPY PUSH1 0x40 ADD SWAP2 POP POP PUSH1 0x40 MLOAD DUP1 SWAP2 SUB SWAP1 REVERT JUMPDEST PUSH1 0x0 PUSH2 0x4088 DUP4 PUSH2 0x28A5 JUMP JUMPDEST SWAP1 POP DUP1 PUSH1 0x1 PUSH1 0x1 PUSH1 0xA0 SHL SUB AND DUP5 PUSH1 0x1 PUSH1 0x1 PUSH1 0xA0 SHL SUB AND EQ DUP1 PUSH2 0x40C3 JUMPI POP DUP4 PUSH1 0x1 PUSH1 0x1 PUSH1 0xA0 SHL SUB AND PUSH2 0x40B8 DUP5 PUSH2 0x19C0 JUMP JUMPDEST PUSH1 0x1 PUSH1 0x1 PUSH1 0xA0 SHL SUB AND EQ JUMPDEST DUP1 PUSH2 0x40D3 JUMPI POP PUSH2 0x40D3 DUP2 DUP6 PUSH2 0x3C38 JUMP JUMPDEST SWAP5 SWAP4 POP POP POP POP JUMP JUMPDEST PUSH1 0x0 PUSH1 0x1D SLOAD PUSH32 0x0 PUSH1 0x1 PUSH1 0x1 PUSH1 0xA0 SHL SUB AND PUSH4 0x70A08231 ADDRESS PUSH1 0x40 MLOAD DUP3 PUSH4 0xFFFFFFFF AND PUSH1 0xE0 SHL DUP2 MSTORE PUSH1 0x4 ADD DUP1 DUP3 PUSH1 0x1 PUSH1 0x1 PUSH1 0xA0 SHL SUB AND DUP2 MSTORE PUSH1 0x20 ADD SWAP2 POP POP PUSH1 0x20 PUSH1 0x40 MLOAD DUP1 DUP4 SUB DUP2 DUP7 DUP1 EXTCODESIZE ISZERO DUP1 ISZERO PUSH2 0x414D JUMPI PUSH1 0x0 DUP1 REVERT JUMPDEST POP GAS STATICCALL ISZERO DUP1 ISZERO PUSH2 0x4161 JUMPI RETURNDATASIZE PUSH1 0x0 DUP1 RETURNDATACOPY RETURNDATASIZE PUSH1 0x0 REVERT JUMPDEST POP POP POP POP PUSH1 0x40 MLOAD RETURNDATASIZE PUSH1 0x20 DUP2 LT ISZERO PUSH2 0x4177 JUMPI PUSH1 0x0 DUP1 REVERT JUMPDEST POP MLOAD LT ISZERO PUSH2 0x41B6 JUMPI PUSH1 0x40 MLOAD PUSH3 0x461BCD PUSH1 0xE5 SHL DUP2 MSTORE PUSH1 0x4 ADD DUP1 DUP1 PUSH1 0x20 ADD DUP3 DUP2 SUB DUP3 MSTORE PUSH1 0x2F DUP2 MSTORE PUSH1 0x20 ADD DUP1 PUSH2 0x53CB PUSH1 0x2F SWAP2 CODECOPY PUSH1 0x40 ADD SWAP2 POP POP PUSH1 0x40 MLOAD DUP1 SWAP2 SUB SWAP1 REVERT JUMPDEST PUSH1 0x0 PUSH2 0x41C6 PUSH1 0x1C SLOAD PUSH1 0x1D SLOAD PUSH2 0x47F5 JUMP JUMPDEST PUSH1 0x0 DUP2 DUP2 MSTORE PUSH1 0x14 PUSH1 0x20 SWAP1 DUP2 MSTORE PUSH1 0x40 DUP1 DUP4 KECCAK256 DUP1 SLOAD PUSH1 0x1 PUSH1 0x1 PUSH1 0xA0 SHL SUB NOT AND CALLER SWAP1 DUP2 OR SWAP1 SWAP2 SSTORE DUP4 MSTORE PUSH1 0x15 SWAP1 SWAP2 MSTORE SWAP1 KECCAK256 DUP5 SWAP1 SSTORE SWAP2 POP POP SWAP2 SWAP1 POP JUMP JUMPDEST PUSH1 0xE SLOAD PUSH1 0x11 DUP1 SLOAD PUSH4 0xFFFFFFFF SWAP1 SWAP3 AND TIMESTAMP ADD SWAP2 DUP4 SWAP1 DUP2 LT PUSH2 0x421A JUMPI INVALID JUMPDEST SWAP1 PUSH1 0x0 MSTORE PUSH1 0x20 PUSH1 0x0 KECCAK256 SWAP1 PUSH1 0x8 MUL ADD PUSH1 0x4 ADD PUSH1 0x0 PUSH2 0x100 EXP DUP2 SLOAD DUP2 PUSH4 0xFFFFFFFF MUL NOT AND SWAP1 DUP4 PUSH4 0xFFFFFFFF AND MUL OR SWAP1 SSTORE POP POP JUMP JUMPDEST PUSH1 0x18 SLOAD DUP2 MUL SWAP1 POP PUSH1 0x0 DUP2 PUSH1 0x11 DUP5 DUP2 SLOAD DUP2 LT PUSH2 0x4263 JUMPI INVALID JUMPDEST SWAP1 PUSH1 0x0 MSTORE PUSH1 0x20 PUSH1 0x0 KECCAK256 SWAP1 PUSH1 0x8 MUL ADD PUSH1 0x1 ADD SLOAD SUB LT ISZERO PUSH2 0x42A5 JUMPI PUSH1 0x0 PUSH1 0x11 DUP4 DUP2 SLOAD DUP2 LT PUSH2 0x428B JUMPI INVALID JUMPDEST SWAP1 PUSH1 0x0 MSTORE PUSH1 0x20 PUSH1 0x0 KECCAK256 SWAP1 PUSH1 0x8 MUL ADD PUSH1 0x1 ADD DUP2 SWAP1 SSTORE POP PUSH2 0x324E JUMP JUMPDEST DUP1 PUSH1 0x11 DUP4 DUP2 SLOAD DUP2 LT PUSH2 0x42B3 JUMPI INVALID JUMPDEST PUSH1 0x0 SWAP2 DUP3 MSTORE PUSH1 0x20 SWAP1 SWAP2 KECCAK256 PUSH1 0x1 PUSH1 0x8 SWAP1 SWAP3 MUL ADD ADD DUP1 SLOAD SWAP2 SWAP1 SWAP2 SUB SWAP1 SSTORE POP POP JUMP JUMPDEST PUSH1 0x0 PUSH2 0x26BD DUP4 DUP4 PUSH2 0x49A0 JUMP JUMPDEST PUSH1 0x0 DUP1 DUP1 DUP1 PUSH2 0x42ED DUP7 DUP7 PUSH2 0x4A04 JUMP JUMPDEST SWAP1 SWAP8 SWAP1 SWAP7 POP SWAP5 POP POP POP POP POP JUMP JUMPDEST PUSH1 0x0 PUSH2 0x40D3 DUP5 DUP5 DUP5 PUSH2 0x4A7F JUMP JUMPDEST PUSH2 0x430F PUSH2 0x5296 JUMP JUMPDEST PUSH2 0x4318 DUP3 PUSH2 0x40DB JUMP JUMPDEST POP CALLER PUSH1 0x0 SWAP1 DUP2 MSTORE PUSH1 0x15 PUSH1 0x20 MSTORE PUSH1 0x40 DUP2 KECCAK256 SLOAD SWAP1 PUSH1 0x1 PUSH1 0x3 DUP4 MOD DUP2 ADD SWAP2 SWAP1 DUP3 EQ ISZERO PUSH2 0x4348 JUMPI POP PUSH1 0x1 PUSH1 0x64 DUP4 MOD ADD PUSH2 0x4367 JUMP JUMPDEST DUP2 PUSH1 0x2 EQ ISZERO PUSH2 0x435E JUMPI POP PUSH1 0x65 PUSH1 0x64 DUP4 MOD ADD PUSH2 0x4367 JUMP JUMPDEST POP PUSH1 0xC9 PUSH1 0x64 DUP4 MOD ADD JUMPDEST PUSH1 0x1 PUSH1 0x64 PUSH1 0x2 DUP6 MUL MOD ADD PUSH1 0x60 PUSH1 0x10 PUSH1 0x19 DUP7 MOD DUP2 SLOAD DUP2 LT PUSH2 0x4383 JUMPI INVALID JUMPDEST PUSH1 0x0 SWAP2 DUP3 MSTORE PUSH1 0x20 SWAP2 DUP3 SWAP1 KECCAK256 ADD DUP1 SLOAD PUSH1 0x40 DUP1 MLOAD PUSH1 0x1F PUSH1 0x2 PUSH1 0x0 NOT PUSH2 0x100 PUSH1 0x1 DUP8 AND ISZERO MUL ADD SWAP1 SWAP5 AND SWAP4 SWAP1 SWAP4 DIV SWAP3 DUP4 ADD DUP6 SWAP1 DIV DUP6 MUL DUP2 ADD DUP6 ADD SWAP1 SWAP2 MSTORE DUP2 DUP2 MSTORE SWAP3 DUP4 ADD DUP3 DUP3 DUP1 ISZERO PUSH2 0x4411 JUMPI DUP1 PUSH1 0x1F LT PUSH2 0x43E6 JUMPI PUSH2 0x100 DUP1 DUP4 SLOAD DIV MUL DUP4 MSTORE SWAP2 PUSH1 0x20 ADD SWAP2 PUSH2 0x4411 JUMP JUMPDEST DUP3 ADD SWAP2 SWAP1 PUSH1 0x0 MSTORE PUSH1 0x20 PUSH1 0x0 KECCAK256 SWAP1 JUMPDEST DUP2 SLOAD DUP2 MSTORE SWAP1 PUSH1 0x1 ADD SWAP1 PUSH1 0x20 ADD DUP1 DUP4 GT PUSH2 0x43F4 JUMPI DUP3 SWAP1 SUB PUSH1 0x1F AND DUP3 ADD SWAP2 JUMPDEST POP POP POP POP POP SWAP1 POP PUSH2 0x4420 PUSH2 0x5296 JUMP JUMPDEST POP PUSH1 0x40 DUP1 MLOAD PUSH2 0x100 DUP2 ADD DUP3 MSTORE DUP6 DUP2 MSTORE PUSH1 0x20 DUP1 DUP3 ADD DUP7 DUP2 MSTORE SWAP3 DUP3 ADD DUP6 DUP2 MSTORE PUSH1 0x60 DUP4 ADD DUP6 DUP2 MSTORE TIMESTAMP PUSH4 0xFFFFFFFF AND PUSH1 0x80 DUP6 ADD MSTORE PUSH1 0xA0 DUP5 ADD DUP14 SWAP1 MSTORE PUSH1 0x0 PUSH1 0xC0 DUP6 ADD DUP2 SWAP1 MSTORE PUSH1 0xE0 DUP6 ADD DUP2 SWAP1 MSTORE PUSH1 0x11 DUP1 SLOAD PUSH1 0x1 DUP2 ADD DUP3 SSTORE SWAP2 MSTORE DUP5 MLOAD PUSH32 0x31ECC21A745E3968A04E9570E4425BC18FA8019C68028196B546D1669C200C68 PUSH1 0x8 SWAP1 SWAP3 MUL SWAP2 DUP3 ADD SWAP1 DUP2 SSTORE SWAP6 MLOAD PUSH32 0x31ECC21A745E3968A04E9570E4425BC18FA8019C68028196B546D1669C200C69 DUP3 ADD SSTORE SWAP2 MLOAD PUSH32 0x31ECC21A745E3968A04E9570E4425BC18FA8019C68028196B546D1669C200C6A DUP4 ADD SSTORE MLOAD DUP1 MLOAD SWAP4 SWAP5 DUP6 SWAP5 SWAP1 SWAP4 PUSH2 0x4524 SWAP4 PUSH32 0x31ECC21A745E3968A04E9570E4425BC18FA8019C68028196B546D1669C200C6B ADD SWAP3 ADD SWAP1 PUSH2 0x52E3 JUMP JUMPDEST POP PUSH1 0x80 DUP3 ADD MLOAD PUSH1 0x4 DUP3 ADD DUP1 SLOAD PUSH4 0xFFFFFFFF NOT AND PUSH4 0xFFFFFFFF SWAP1 SWAP3 AND SWAP2 SWAP1 SWAP2 OR SWAP1 SSTORE PUSH1 0xA0 DUP3 ADD MLOAD PUSH1 0x5 DUP3 ADD SSTORE PUSH1 0xC0 DUP3 ADD MLOAD PUSH1 0x6 DUP3 ADD DUP1 SLOAD PUSH1 0xFF NOT AND SWAP2 ISZERO ISZERO SWAP2 SWAP1 SWAP2 OR SWAP1 SSTORE PUSH1 0xE0 SWAP1 SWAP2 ADD MLOAD PUSH1 0x7 SWAP1 SWAP2 ADD SSTORE PUSH1 0xF DUP1 SLOAD PUSH1 0x1 ADD SWAP1 SSTORE SWAP9 SWAP8 POP POP POP POP POP POP POP POP JUMP JUMPDEST PUSH2 0x324E DUP3 DUP3 PUSH1 0x40 MLOAD DUP1 PUSH1 0x20 ADD PUSH1 0x40 MSTORE DUP1 PUSH1 0x0 DUP2 MSTORE POP PUSH2 0x4B49 JUMP JUMPDEST PUSH1 0x0 SWAP2 DUP3 MSTORE PUSH1 0x14 PUSH1 0x20 SWAP1 DUP2 MSTORE PUSH1 0x40 DUP1 DUP5 KECCAK256 SLOAD PUSH1 0x1 PUSH1 0x1 PUSH1 0xA0 SHL SUB AND DUP5 MSTORE PUSH1 0x15 SWAP1 SWAP2 MSTORE SWAP1 SWAP2 KECCAK256 SSTORE JUMP JUMPDEST PUSH2 0x45D5 DUP5 DUP5 DUP5 PUSH2 0x3DE0 JUMP JUMPDEST PUSH2 0x45E1 DUP5 DUP5 DUP5 DUP5 PUSH2 0x4B9B JUMP JUMPDEST PUSH2 0x3721 JUMPI PUSH1 0x40 MLOAD PUSH3 0x461BCD PUSH1 0xE5 SHL DUP2 MSTORE PUSH1 0x4 ADD DUP1 DUP1 PUSH1 0x20 ADD DUP3 DUP2 SUB DUP3 MSTORE PUSH1 0x32 DUP2 MSTORE PUSH1 0x20 ADD DUP1 PUSH2 0x5399 PUSH1 0x32 SWAP2 CODECOPY PUSH1 0x40 ADD SWAP2 POP POP PUSH1 0x40 MLOAD DUP1 SWAP2 SUB SWAP1 REVERT JUMPDEST PUSH2 0x4627 DUP4 DUP4 DUP4 PUSH2 0x3DE0 JUMP JUMPDEST PUSH1 0x1 PUSH1 0x1 PUSH1 0xA0 SHL SUB SWAP3 DUP4 AND PUSH1 0x0 SWAP1 DUP2 MSTORE PUSH1 0x12 PUSH1 0x20 SWAP1 DUP2 MSTORE PUSH1 0x40 DUP1 DUP4 KECCAK256 DUP1 SLOAD PUSH1 0x0 NOT ADD SWAP1 SSTORE SWAP4 SWAP1 SWAP5 AND DUP1 DUP3 MSTORE DUP4 DUP3 KECCAK256 DUP1 SLOAD PUSH1 0x1 ADD SWAP1 SSTORE SWAP2 DUP2 MSTORE PUSH1 0x13 SWAP1 SWAP4 MSTORE SWAP2 KECCAK256 DUP1 SLOAD PUSH1 0x1 PUSH1 0x1 PUSH1 0xA0 SHL SUB NOT AND SWAP1 SWAP2 OR SWAP1 SSTORE JUMP JUMPDEST PUSH1 0x60 DUP2 PUSH2 0x469E JUMPI POP PUSH1 0x40 DUP1 MLOAD DUP1 DUP3 ADD SWAP1 SWAP2 MSTORE PUSH1 0x1 DUP2 MSTORE PUSH1 0x3 PUSH1 0xFC SHL PUSH1 0x20 DUP3 ADD MSTORE PUSH2 0x13BF JUMP JUMPDEST DUP2 PUSH1 0x0 JUMPDEST DUP2 ISZERO PUSH2 0x46B6 JUMPI PUSH1 0x1 ADD PUSH1 0xA DUP3 DIV SWAP2 POP PUSH2 0x46A2 JUMP JUMPDEST PUSH1 0x60 DUP2 PUSH8 0xFFFFFFFFFFFFFFFF DUP2 GT DUP1 ISZERO PUSH2 0x46CF JUMPI PUSH1 0x0 DUP1 REVERT JUMPDEST POP PUSH1 0x40 MLOAD SWAP1 DUP1 DUP3 MSTORE DUP1 PUSH1 0x1F ADD PUSH1 0x1F NOT AND PUSH1 0x20 ADD DUP3 ADD PUSH1 0x40 MSTORE DUP1 ISZERO PUSH2 0x46FA JUMPI PUSH1 0x20 DUP3 ADD DUP2 DUP1 CALLDATASIZE DUP4 CALLDATACOPY ADD SWAP1 POP JUMPDEST POP DUP6 SWAP4 POP SWAP1 POP PUSH1 0x0 NOT DUP3 ADD JUMPDEST DUP4 ISZERO PUSH2 0x474B JUMPI PUSH1 0xA DUP5 MOD PUSH1 0x30 ADD PUSH1 0xF8 SHL DUP3 DUP3 DUP1 PUSH1 0x1 SWAP1 SUB SWAP4 POP DUP2 MLOAD DUP2 LT PUSH2 0x4729 JUMPI INVALID JUMPDEST PUSH1 0x20 ADD ADD SWAP1 PUSH1 0x1 PUSH1 0x1 PUSH1 0xF8 SHL SUB NOT AND SWAP1 DUP2 PUSH1 0x0 BYTE SWAP1 MSTORE8 POP PUSH1 0xA DUP5 DIV SWAP4 POP PUSH2 0x4706 JUMP JUMPDEST POP SWAP5 SWAP4 POP POP POP POP JUMP JUMPDEST PUSH2 0x475D DUP3 PUSH2 0x3FAD JUMP JUMPDEST PUSH2 0x4798 JUMPI PUSH1 0x40 MLOAD PUSH3 0x461BCD PUSH1 0xE5 SHL DUP2 MSTORE PUSH1 0x4 ADD DUP1 DUP1 PUSH1 0x20 ADD DUP3 DUP2 SUB DUP3 MSTORE PUSH1 0x2C DUP2 MSTORE PUSH1 0x20 ADD DUP1 PUSH2 0x557B PUSH1 0x2C SWAP2 CODECOPY PUSH1 0x40 ADD SWAP2 POP POP PUSH1 0x40 MLOAD DUP1 SWAP2 SUB SWAP1 REVERT JUMPDEST PUSH1 0x0 DUP3 DUP2 MSTORE PUSH1 0x9 PUSH1 0x20 SWAP1 DUP2 MSTORE PUSH1 0x40 SWAP1 SWAP2 KECCAK256 DUP3 MLOAD PUSH2 0x1AF8 SWAP3 DUP5 ADD SWAP1 PUSH2 0x52E3 JUMP JUMPDEST PUSH1 0x0 PUSH2 0x26BD DUP4 DUP4 PUSH2 0x4D03 JUMP JUMPDEST PUSH1 0x0 PUSH2 0x26BD DUP4 DUP4 PUSH2 0x4DC9 JUMP JUMPDEST PUSH1 0x0 PUSH2 0x40D3 DUP5 DUP5 PUSH1 0x1 PUSH1 0x1 PUSH1 0xA0 SHL SUB DUP6 AND PUSH2 0x4E13 JUMP JUMPDEST PUSH1 0x0 PUSH2 0x26BD DUP4 DUP4 PUSH2 0x4EAA JUMP JUMPDEST SLOAD SWAP1 JUMP JUMPDEST PUSH1 0x0 PUSH32 0x0 PUSH1 0x1 PUSH1 0x1 PUSH1 0xA0 SHL SUB AND PUSH4 0x4000AEA0 PUSH32 0x0 DUP5 DUP7 PUSH1 0x0 PUSH1 0x40 MLOAD PUSH1 0x20 ADD DUP1 DUP4 DUP2 MSTORE PUSH1 0x20 ADD DUP3 DUP2 MSTORE PUSH1 0x20 ADD SWAP3 POP POP POP PUSH1 0x40 MLOAD PUSH1 0x20 DUP2 DUP4 SUB SUB DUP2 MSTORE SWAP1 PUSH1 0x40 MSTORE PUSH1 0x40 MLOAD DUP5 PUSH4 0xFFFFFFFF AND PUSH1 0xE0 SHL DUP2 MSTORE PUSH1 0x4 ADD DUP1 DUP5 PUSH1 0x1 PUSH1 0x1 PUSH1 0xA0 SHL SUB AND DUP2 MSTORE PUSH1 0x20 ADD DUP4 DUP2 MSTORE PUSH1 0x20 ADD DUP1 PUSH1 0x20 ADD DUP3 DUP2 SUB DUP3 MSTORE DUP4 DUP2 DUP2 MLOAD DUP2 MSTORE PUSH1 0x20 ADD SWAP2 POP DUP1 MLOAD SWAP1 PUSH1 0x20 ADD SWAP1 DUP1 DUP4 DUP4 PUSH1 0x0 JUMPDEST DUP4 DUP2 LT ISZERO PUSH2 0x48D2 JUMPI DUP2 DUP2 ADD MLOAD DUP4 DUP3 ADD MSTORE PUSH1 0x20 ADD PUSH2 0x48BA JUMP JUMPDEST POP POP POP POP SWAP1 POP SWAP1 DUP2 ADD SWAP1 PUSH1 0x1F AND DUP1 ISZERO PUSH2 0x48FF JUMPI DUP1 DUP3 SUB DUP1 MLOAD PUSH1 0x1 DUP4 PUSH1 0x20 SUB PUSH2 0x100 EXP SUB NOT AND DUP2 MSTORE PUSH1 0x20 ADD SWAP2 POP JUMPDEST POP SWAP5 POP POP POP POP POP PUSH1 0x20 PUSH1 0x40 MLOAD DUP1 DUP4 SUB DUP2 PUSH1 0x0 DUP8 DUP1 EXTCODESIZE ISZERO DUP1 ISZERO PUSH2 0x4920 JUMPI PUSH1 0x0 DUP1 REVERT JUMPDEST POP GAS CALL ISZERO DUP1 ISZERO PUSH2 0x4934 JUMPI RETURNDATASIZE PUSH1 0x0 DUP1 RETURNDATACOPY RETURNDATASIZE PUSH1 0x0 REVERT JUMPDEST POP POP POP POP PUSH1 0x40 MLOAD RETURNDATASIZE PUSH1 0x20 DUP2 LT ISZERO PUSH2 0x494A JUMPI PUSH1 0x0 DUP1 REVERT JUMPDEST POP POP PUSH1 0x0 DUP4 DUP2 MSTORE PUSH1 0xB PUSH1 0x20 MSTORE PUSH1 0x40 DUP2 KECCAK256 SLOAD PUSH2 0x496A SWAP1 DUP6 SWAP1 DUP4 SWAP1 ADDRESS SWAP1 PUSH2 0x4EC2 JUMP JUMPDEST PUSH1 0x0 DUP6 DUP2 MSTORE PUSH1 0xB PUSH1 0x20 MSTORE PUSH1 0x40 SWAP1 KECCAK256 SLOAD SWAP1 SWAP2 POP PUSH2 0x4987 SWAP1 PUSH1 0x1 PUSH2 0x4F09 JUMP JUMPDEST PUSH1 0x0 DUP6 DUP2 MSTORE PUSH1 0xB PUSH1 0x20 MSTORE PUSH1 0x40 SWAP1 KECCAK256 SSTORE PUSH2 0x40D3 DUP5 DUP3 PUSH2 0x4F63 JUMP JUMPDEST DUP2 SLOAD PUSH1 0x0 SWAP1 DUP3 LT PUSH2 0x49E2 JUMPI PUSH1 0x40 MLOAD PUSH3 0x461BCD PUSH1 0xE5 SHL DUP2 MSTORE PUSH1 0x4 ADD DUP1 DUP1 PUSH1 0x20 ADD DUP3 DUP2 SUB DUP3 MSTORE PUSH1 0x22 DUP2 MSTORE PUSH1 0x20 ADD DUP1 PUSH2 0x5377 PUSH1 0x22 SWAP2 CODECOPY PUSH1 0x40 ADD SWAP2 POP POP PUSH1 0x40 MLOAD DUP1 SWAP2 SUB SWAP1 REVERT JUMPDEST DUP3 PUSH1 0x0 ADD DUP3 DUP2 SLOAD DUP2 LT PUSH2 0x49F1 JUMPI INVALID JUMPDEST SWAP1 PUSH1 0x0 MSTORE PUSH1 0x20 PUSH1 0x0 KECCAK256 ADD SLOAD SWAP1 POP SWAP3 SWAP2 POP POP JUMP JUMPDEST DUP2 SLOAD PUSH1 0x0 SWAP1 DUP2 SWAP1 DUP4 LT PUSH2 0x4A48 JUMPI PUSH1 0x40 MLOAD PUSH3 0x461BCD PUSH1 0xE5 SHL DUP2 MSTORE PUSH1 0x4 ADD DUP1 DUP1 PUSH1 0x20 ADD DUP3 DUP2 SUB DUP3 MSTORE PUSH1 0x22 DUP2 MSTORE PUSH1 0x20 ADD DUP1 PUSH2 0x552D PUSH1 0x22 SWAP2 CODECOPY PUSH1 0x40 ADD SWAP2 POP POP PUSH1 0x40 MLOAD DUP1 SWAP2 SUB SWAP1 REVERT JUMPDEST PUSH1 0x0 DUP5 PUSH1 0x0 ADD DUP5 DUP2 SLOAD DUP2 LT PUSH2 0x4A59 JUMPI INVALID JUMPDEST SWAP1 PUSH1 0x0 MSTORE PUSH1 0x20 PUSH1 0x0 KECCAK256 SWAP1 PUSH1 0x2 MUL ADD SWAP1 POP DUP1 PUSH1 0x0 ADD SLOAD DUP2 PUSH1 0x1 ADD SLOAD SWAP3 POP SWAP3 POP POP SWAP3 POP SWAP3 SWAP1 POP JUMP JUMPDEST PUSH1 0x0 DUP3 DUP2 MSTORE PUSH1 0x1 DUP5 ADD PUSH1 0x20 MSTORE PUSH1 0x40 DUP2 KECCAK256 SLOAD DUP3 DUP2 PUSH2 0x4B1A JUMPI PUSH1 0x40 MLOAD PUSH3 0x461BCD PUSH1 0xE5 SHL DUP2 MSTORE PUSH1 0x4 ADD DUP1 DUP1 PUSH1 0x20 ADD DUP3 DUP2 SUB DUP3 MSTORE DUP4 DUP2 DUP2 MLOAD DUP2 MSTORE PUSH1 0x20 ADD SWAP2 POP DUP1 MLOAD SWAP1 PUSH1 0x20 ADD SWAP1 DUP1 DUP4 DUP4 PUSH1 0x0 JUMPDEST DUP4 DUP2 LT ISZERO PUSH2 0x4ADF JUMPI DUP2 DUP2 ADD MLOAD DUP4 DUP3 ADD MSTORE PUSH1 0x20 ADD PUSH2 0x4AC7 JUMP JUMPDEST POP POP POP POP SWAP1 POP SWAP1 DUP2 ADD SWAP1 PUSH1 0x1F AND DUP1 ISZERO PUSH2 0x4B0C JUMPI DUP1 DUP3 SUB DUP1 MLOAD PUSH1 0x1 DUP4 PUSH1 0x20 SUB PUSH2 0x100 EXP SUB NOT AND DUP2 MSTORE PUSH1 0x20 ADD SWAP2 POP JUMPDEST POP SWAP3 POP POP POP PUSH1 0x40 MLOAD DUP1 SWAP2 SUB SWAP1 REVERT JUMPDEST POP DUP5 PUSH1 0x0 ADD PUSH1 0x1 DUP3 SUB DUP2 SLOAD DUP2 LT PUSH2 0x4B2D JUMPI INVALID JUMPDEST SWAP1 PUSH1 0x0 MSTORE PUSH1 0x20 PUSH1 0x0 KECCAK256 SWAP1 PUSH1 0x2 MUL ADD PUSH1 0x1 ADD SLOAD SWAP2 POP POP SWAP4 SWAP3 POP POP POP JUMP JUMPDEST PUSH2 0x4B53 DUP4 DUP4 PUSH2 0x4F8F JUMP JUMPDEST PUSH2 0x4B60 PUSH1 0x0 DUP5 DUP5 DUP5 PUSH2 0x4B9B JUMP JUMPDEST PUSH2 0x1AF8 JUMPI PUSH1 0x40 MLOAD PUSH3 0x461BCD PUSH1 0xE5 SHL DUP2 MSTORE PUSH1 0x4 ADD DUP1 DUP1 PUSH1 0x20 ADD DUP3 DUP2 SUB DUP3 MSTORE PUSH1 0x32 DUP2 MSTORE PUSH1 0x20 ADD DUP1 PUSH2 0x5399 PUSH1 0x32 SWAP2 CODECOPY PUSH1 0x40 ADD SWAP2 POP POP PUSH1 0x40 MLOAD DUP1 SWAP2 SUB SWAP1 REVERT JUMPDEST PUSH1 0x0 PUSH2 0x4BAF DUP5 PUSH1 0x1 PUSH1 0x1 PUSH1 0xA0 SHL SUB AND PUSH2 0x50BD JUMP JUMPDEST PUSH2 0x4BBB JUMPI POP PUSH1 0x1 PUSH2 0x40D3 JUMP JUMPDEST PUSH1 0x60 PUSH2 0x4CC9 PUSH4 0xA85BD01 PUSH1 0xE1 SHL PUSH2 0x4BD0 PUSH2 0x3FBA JUMP JUMPDEST DUP9 DUP8 DUP8 PUSH1 0x40 MLOAD PUSH1 0x24 ADD DUP1 DUP6 PUSH1 0x1 PUSH1 0x1 PUSH1 0xA0 SHL SUB AND DUP2 MSTORE PUSH1 0x20 ADD DUP5 PUSH1 0x1 PUSH1 0x1 PUSH1 0xA0 SHL SUB AND DUP2 MSTORE PUSH1 0x20 ADD DUP4 DUP2 MSTORE PUSH1 0x20 ADD DUP1 PUSH1 0x20 ADD DUP3 DUP2 SUB DUP3 MSTORE DUP4 DUP2 DUP2 MLOAD DUP2 MSTORE PUSH1 0x20 ADD SWAP2 POP DUP1 MLOAD SWAP1 PUSH1 0x20 ADD SWAP1 DUP1 DUP4 DUP4 PUSH1 0x0 JUMPDEST DUP4 DUP2 LT ISZERO PUSH2 0x4C37 JUMPI DUP2 DUP2 ADD MLOAD DUP4 DUP3 ADD MSTORE PUSH1 0x20 ADD PUSH2 0x4C1F JUMP JUMPDEST POP POP POP POP SWAP1 POP SWAP1 DUP2 ADD SWAP1 PUSH1 0x1F AND DUP1 ISZERO PUSH2 0x4C64 JUMPI DUP1 DUP3 SUB DUP1 MLOAD PUSH1 0x1 DUP4 PUSH1 0x20 SUB PUSH2 0x100 EXP SUB NOT AND DUP2 MSTORE PUSH1 0x20 ADD SWAP2 POP JUMPDEST POP SWAP6 POP POP POP POP POP POP PUSH1 0x40 MLOAD PUSH1 0x20 DUP2 DUP4 SUB SUB DUP2 MSTORE SWAP1 PUSH1 0x40 MSTORE SWAP1 PUSH1 0x1 PUSH1 0x1 PUSH1 0xE0 SHL SUB NOT AND PUSH1 0x20 DUP3 ADD DUP1 MLOAD PUSH1 0x1 PUSH1 0x1 PUSH1 0xE0 SHL SUB DUP4 DUP2 DUP4 AND OR DUP4 MSTORE POP POP POP POP PUSH1 0x40 MLOAD DUP1 PUSH1 0x60 ADD PUSH1 0x40 MSTORE DUP1 PUSH1 0x32 DUP2 MSTORE PUSH1 0x20 ADD PUSH2 0x5399 PUSH1 0x32 SWAP2 CODECOPY PUSH1 0x1 PUSH1 0x1 PUSH1 0xA0 SHL SUB DUP9 AND SWAP2 SWAP1 PUSH2 0x50C3 JUMP JUMPDEST SWAP1 POP PUSH1 0x0 DUP2 DUP1 PUSH1 0x20 ADD SWAP1 MLOAD PUSH1 0x20 DUP2 LT ISZERO PUSH2 0x4CE2 JUMPI PUSH1 0x0 DUP1 REVERT JUMPDEST POP MLOAD PUSH1 0x1 PUSH1 0x1 PUSH1 0xE0 SHL SUB NOT AND PUSH4 0xA85BD01 PUSH1 0xE1 SHL EQ SWAP3 POP POP POP SWAP5 SWAP4 POP POP POP POP JUMP JUMPDEST PUSH1 0x0 DUP2 DUP2 MSTORE PUSH1 0x1 DUP4 ADD PUSH1 0x20 MSTORE PUSH1 0x40 DUP2 KECCAK256 SLOAD DUP1 ISZERO PUSH2 0x4DBF JUMPI DUP4 SLOAD PUSH1 0x0 NOT DUP1 DUP4 ADD SWAP2 SWAP1 DUP2 ADD SWAP1 PUSH1 0x0 SWAP1 DUP8 SWAP1 DUP4 SWAP1 DUP2 LT PUSH2 0x4D36 JUMPI INVALID JUMPDEST SWAP1 PUSH1 0x0 MSTORE PUSH1 0x20 PUSH1 0x0 KECCAK256 ADD SLOAD SWAP1 POP DUP1 DUP8 PUSH1 0x0 ADD DUP5 DUP2 SLOAD DUP2 LT PUSH2 0x4D53 JUMPI INVALID JUMPDEST PUSH1 0x0 SWAP2 DUP3 MSTORE PUSH1 0x20 DUP1 DUP4 KECCAK256 SWAP1 SWAP2 ADD SWAP3 SWAP1 SWAP3 SSTORE DUP3 DUP2 MSTORE PUSH1 0x1 DUP10 DUP2 ADD SWAP1 SWAP3 MSTORE PUSH1 0x40 SWAP1 KECCAK256 SWAP1 DUP5 ADD SWAP1 SSTORE DUP7 SLOAD DUP8 SWAP1 DUP1 PUSH2 0x4D83 JUMPI INVALID JUMPDEST PUSH1 0x1 SWAP1 SUB DUP2 DUP2 SWAP1 PUSH1 0x0 MSTORE PUSH1 0x20 PUSH1 0x0 KECCAK256 ADD PUSH1 0x0 SWAP1 SSTORE SWAP1 SSTORE DUP7 PUSH1 0x1 ADD PUSH1 0x0 DUP8 DUP2 MSTORE PUSH1 0x20 ADD SWAP1 DUP2 MSTORE PUSH1 0x20 ADD PUSH1 0x0 KECCAK256 PUSH1 0x0 SWAP1 SSTORE PUSH1 0x1 SWAP5 POP POP POP POP POP PUSH2 0x13CF JUMP JUMPDEST PUSH1 0x0 SWAP2 POP POP PUSH2 0x13CF JUMP JUMPDEST PUSH1 0x0 PUSH2 0x4DD5 DUP4 DUP4 PUSH2 0x4EAA JUMP JUMPDEST PUSH2 0x4E0B JUMPI POP DUP2 SLOAD PUSH1 0x1 DUP2 DUP2 ADD DUP5 SSTORE PUSH1 0x0 DUP5 DUP2 MSTORE PUSH1 0x20 DUP1 DUP3 KECCAK256 SWAP1 SWAP4 ADD DUP5 SWAP1 SSTORE DUP5 SLOAD DUP5 DUP3 MSTORE DUP3 DUP7 ADD SWAP1 SWAP4 MSTORE PUSH1 0x40 SWAP1 KECCAK256 SWAP2 SWAP1 SWAP2 SSTORE PUSH2 0x13CF JUMP JUMPDEST POP PUSH1 0x0 PUSH2 0x13CF JUMP JUMPDEST PUSH1 0x0 DUP3 DUP2 MSTORE PUSH1 0x1 DUP5 ADD PUSH1 0x20 MSTORE PUSH1 0x40 DUP2 KECCAK256 SLOAD DUP1 PUSH2 0x4E78 JUMPI POP POP PUSH1 0x40 DUP1 MLOAD DUP1 DUP3 ADD DUP3 MSTORE DUP4 DUP2 MSTORE PUSH1 0x20 DUP1 DUP3 ADD DUP5 DUP2 MSTORE DUP7 SLOAD PUSH1 0x1 DUP2 DUP2 ADD DUP10 SSTORE PUSH1 0x0 DUP10 DUP2 MSTORE DUP5 DUP2 KECCAK256 SWAP6 MLOAD PUSH1 0x2 SWAP1 SWAP4 MUL SWAP1 SWAP6 ADD SWAP2 DUP3 SSTORE SWAP2 MLOAD SWAP1 DUP3 ADD SSTORE DUP7 SLOAD DUP7 DUP5 MSTORE DUP2 DUP9 ADD SWAP1 SWAP3 MSTORE SWAP3 SWAP1 SWAP2 KECCAK256 SSTORE PUSH2 0x26BD JUMP JUMPDEST DUP3 DUP6 PUSH1 0x0 ADD PUSH1 0x1 DUP4 SUB DUP2 SLOAD DUP2 LT PUSH2 0x4E8B JUMPI INVALID JUMPDEST SWAP1 PUSH1 0x0 MSTORE PUSH1 0x20 PUSH1 0x0 KECCAK256 SWAP1 PUSH1 0x2 MUL ADD PUSH1 0x1 ADD DUP2 SWAP1 SSTORE POP PUSH1 0x0 SWAP2 POP POP PUSH2 0x26BD JUMP JUMPDEST PUSH1 0x0 SWAP1 DUP2 MSTORE PUSH1 0x1 SWAP2 SWAP1 SWAP2 ADD PUSH1 0x20 MSTORE PUSH1 0x40 SWAP1 KECCAK256 SLOAD ISZERO ISZERO SWAP1 JUMP JUMPDEST PUSH1 0x40 DUP1 MLOAD PUSH1 0x20 DUP1 DUP3 ADD SWAP7 SWAP1 SWAP7 MSTORE DUP1 DUP3 ADD SWAP5 SWAP1 SWAP5 MSTORE PUSH1 0x1 PUSH1 0x1 PUSH1 0xA0 SHL SUB SWAP3 SWAP1 SWAP3 AND PUSH1 0x60 DUP5 ADD MSTORE PUSH1 0x80 DUP1 DUP5 ADD SWAP2 SWAP1 SWAP2 MSTORE DUP2 MLOAD DUP1 DUP5 SUB SWAP1 SWAP2 ADD DUP2 MSTORE PUSH1 0xA0 SWAP1 SWAP3 ADD SWAP1 MSTORE DUP1 MLOAD SWAP2 ADD KECCAK256 SWAP1 JUMP JUMPDEST PUSH1 0x0 DUP3 DUP3 ADD DUP4 DUP2 LT ISZERO PUSH2 0x26BD JUMPI PUSH1 0x40 DUP1 MLOAD PUSH3 0x461BCD PUSH1 0xE5 SHL DUP2 MSTORE PUSH1 0x20 PUSH1 0x4 DUP3 ADD MSTORE PUSH1 0x1B PUSH1 0x24 DUP3 ADD MSTORE PUSH32 0x536166654D6174683A206164646974696F6E206F766572666C6F770000000000 PUSH1 0x44 DUP3 ADD MSTORE SWAP1 MLOAD SWAP1 DUP2 SWAP1 SUB PUSH1 0x64 ADD SWAP1 REVERT JUMPDEST PUSH1 0x40 DUP1 MLOAD PUSH1 0x20 DUP1 DUP3 ADD SWAP5 SWAP1 SWAP5 MSTORE DUP1 DUP3 ADD SWAP3 SWAP1 SWAP3 MSTORE DUP1 MLOAD DUP1 DUP4 SUB DUP3 ADD DUP2 MSTORE PUSH1 0x60 SWAP1 SWAP3 ADD SWAP1 MSTORE DUP1 MLOAD SWAP2 ADD KECCAK256 SWAP1 JUMP JUMPDEST PUSH1 0x1 PUSH1 0x1 PUSH1 0xA0 SHL SUB DUP3 AND PUSH2 0x4FEA JUMPI PUSH1 0x40 DUP1 MLOAD PUSH3 0x461BCD PUSH1 0xE5 SHL DUP2 MSTORE PUSH1 0x20 PUSH1 0x4 DUP3 ADD DUP2 SWAP1 MSTORE PUSH1 0x24 DUP3 ADD MSTORE PUSH32 0x4552433732313A206D696E7420746F20746865207A65726F2061646472657373 PUSH1 0x44 DUP3 ADD MSTORE SWAP1 MLOAD SWAP1 DUP2 SWAP1 SUB PUSH1 0x64 ADD SWAP1 REVERT JUMPDEST PUSH2 0x4FF3 DUP2 PUSH2 0x3FAD JUMP JUMPDEST ISZERO PUSH2 0x5045 JUMPI PUSH1 0x40 DUP1 MLOAD PUSH3 0x461BCD PUSH1 0xE5 SHL DUP2 MSTORE PUSH1 0x20 PUSH1 0x4 DUP3 ADD MSTORE PUSH1 0x1C PUSH1 0x24 DUP3 ADD MSTORE PUSH32 0x4552433732313A20746F6B656E20616C7265616479206D696E74656400000000 PUSH1 0x44 DUP3 ADD MSTORE SWAP1 MLOAD SWAP1 DUP2 SWAP1 SUB PUSH1 0x64 ADD SWAP1 REVERT JUMPDEST PUSH2 0x5051 PUSH1 0x0 DUP4 DUP4 PUSH2 0x1AF8 JUMP JUMPDEST PUSH1 0x1 PUSH1 0x1 PUSH1 0xA0 SHL SUB DUP3 AND PUSH1 0x0 SWAP1 DUP2 MSTORE PUSH1 0x2 PUSH1 0x20 MSTORE PUSH1 0x40 SWAP1 KECCAK256 PUSH2 0x5073 SWAP1 DUP3 PUSH2 0x47C3 JUMP JUMPDEST POP PUSH2 0x5080 PUSH1 0x3 DUP3 DUP5 PUSH2 0x47CF JUMP JUMPDEST POP PUSH1 0x40 MLOAD DUP2 SWAP1 PUSH1 0x1 PUSH1 0x1 PUSH1 0xA0 SHL SUB DUP5 AND SWAP1 PUSH1 0x0 SWAP1 PUSH32 0xDDF252AD1BE2C89B69C2B068FC378DAA952BA7F163C4A11628F55A4DF523B3EF SWAP1 DUP3 SWAP1 LOG4 POP POP JUMP JUMPDEST EXTCODESIZE ISZERO ISZERO SWAP1 JUMP JUMPDEST PUSH1 0x60 PUSH2 0x40D3 DUP5 DUP5 PUSH1 0x0 DUP6 DUP6 PUSH2 0x50D7 DUP6 PUSH2 0x50BD JUMP JUMPDEST PUSH2 0x5128 JUMPI PUSH1 0x40 DUP1 MLOAD PUSH3 0x461BCD PUSH1 0xE5 SHL DUP2 MSTORE PUSH1 0x20 PUSH1 0x4 DUP3 ADD MSTORE PUSH1 0x1D PUSH1 0x24 DUP3 ADD MSTORE PUSH32 0x416464726573733A2063616C6C20746F206E6F6E2D636F6E7472616374000000 PUSH1 0x44 DUP3 ADD MSTORE SWAP1 MLOAD SWAP1 DUP2 SWAP1 SUB PUSH1 0x64 ADD SWAP1 REVERT JUMPDEST PUSH1 0x0 PUSH1 0x60 DUP7 PUSH1 0x1 PUSH1 0x1 PUSH1 0xA0 SHL SUB AND DUP6 DUP8 PUSH1 0x40 MLOAD DUP1 DUP3 DUP1 MLOAD SWAP1 PUSH1 0x20 ADD SWAP1 DUP1 DUP4 DUP4 JUMPDEST PUSH1 0x20 DUP4 LT PUSH2 0x5167 JUMPI DUP1 MLOAD DUP3 MSTORE PUSH1 0x1F NOT SWAP1 SWAP3 ADD SWAP2 PUSH1 0x20 SWAP2 DUP3 ADD SWAP2 ADD PUSH2 0x5148 JUMP JUMPDEST PUSH1 0x1 DUP4 PUSH1 0x20 SUB PUSH2 0x100 EXP SUB DUP1 NOT DUP3 MLOAD AND DUP2 DUP5 MLOAD AND DUP1 DUP3 OR DUP6 MSTORE POP POP POP POP POP POP SWAP1 POP ADD SWAP2 POP POP PUSH1 0x0 PUSH1 0x40 MLOAD DUP1 DUP4 SUB DUP2 DUP6 DUP8 GAS CALL SWAP3 POP POP POP RETURNDATASIZE DUP1 PUSH1 0x0 DUP2 EQ PUSH2 0x51C9 JUMPI PUSH1 0x40 MLOAD SWAP2 POP PUSH1 0x1F NOT PUSH1 0x3F RETURNDATASIZE ADD AND DUP3 ADD PUSH1 0x40 MSTORE RETURNDATASIZE DUP3 MSTORE RETURNDATASIZE PUSH1 0x0 PUSH1 0x20 DUP5 ADD RETURNDATACOPY PUSH2 0x51CE JUMP JUMPDEST PUSH1 0x60 SWAP2 POP JUMPDEST POP SWAP2 POP SWAP2 POP PUSH2 0x51DE DUP3 DUP3 DUP7 PUSH2 0x51E9 JUMP JUMPDEST SWAP8 SWAP7 POP POP POP POP POP POP POP JUMP JUMPDEST PUSH1 0x60 DUP4 ISZERO PUSH2 0x51F8 JUMPI POP DUP2 PUSH2 0x26BD JUMP JUMPDEST DUP3 MLOAD ISZERO PUSH2 0x5208 JUMPI DUP3 MLOAD DUP1 DUP5 PUSH1 0x20 ADD REVERT JUMPDEST PUSH1 0x40 MLOAD PUSH3 0x461BCD PUSH1 0xE5 SHL DUP2 MSTORE PUSH1 0x20 PUSH1 0x4 DUP3 ADD DUP2 DUP2 MSTORE DUP5 MLOAD PUSH1 0x24 DUP5 ADD MSTORE DUP5 MLOAD DUP6 SWAP4 SWAP2 SWAP3 DUP4 SWAP3 PUSH1 0x44 ADD SWAP2 SWAP1 DUP6 ADD SWAP1 DUP1 DUP4 DUP4 PUSH1 0x0 DUP4 ISZERO PUSH2 0x4ADF JUMPI DUP2 DUP2 ADD MLOAD DUP4 DUP3 ADD MSTORE PUSH1 0x20 ADD PUSH2 0x4AC7 JUMP JUMPDEST POP DUP1 SLOAD PUSH1 0x1 DUP2 PUSH1 0x1 AND ISZERO PUSH2 0x100 MUL SUB AND PUSH1 0x2 SWAP1 DIV PUSH1 0x0 DUP3 SSTORE DUP1 PUSH1 0x1F LT PUSH2 0x5275 JUMPI POP PUSH2 0x5293 JUMP JUMPDEST PUSH1 0x1F ADD PUSH1 0x20 SWAP1 DIV SWAP1 PUSH1 0x0 MSTORE PUSH1 0x20 PUSH1 0x0 KECCAK256 SWAP1 DUP2 ADD SWAP1 PUSH2 0x5293 SWAP2 SWAP1 PUSH2 0x5361 JUMP JUMPDEST POP JUMP JUMPDEST PUSH1 0x40 MLOAD DUP1 PUSH2 0x100 ADD PUSH1 0x40 MSTORE DUP1 PUSH1 0x0 DUP2 MSTORE PUSH1 0x20 ADD PUSH1 0x0 DUP2 MSTORE PUSH1 0x20 ADD PUSH1 0x0 DUP2 MSTORE PUSH1 0x20 ADD PUSH1 0x60 DUP2 MSTORE PUSH1 0x20 ADD PUSH1 0x0 PUSH4 0xFFFFFFFF AND DUP2 MSTORE PUSH1 0x20 ADD PUSH1 0x0 DUP2 MSTORE PUSH1 0x20 ADD PUSH1 0x0 ISZERO ISZERO DUP2 MSTORE PUSH1 0x20 ADD PUSH1 0x0 DUP2 MSTORE POP SWAP1 JUMP JUMPDEST DUP3 DUP1 SLOAD PUSH1 0x1 DUP2 PUSH1 0x1 AND ISZERO PUSH2 0x100 MUL SUB AND PUSH1 0x2 SWAP1 DIV SWAP1 PUSH1 0x0 MSTORE PUSH1 0x20 PUSH1 0x0 KECCAK256 SWAP1 PUSH1 0x1F ADD PUSH1 0x20 SWAP1 DIV DUP2 ADD SWAP3 DUP3 PUSH1 0x1F LT PUSH2 0x5324 JUMPI DUP1 MLOAD PUSH1 0xFF NOT AND DUP4 DUP1 ADD OR DUP6 SSTORE PUSH2 0x5351 JUMP JUMPDEST DUP3 DUP1 ADD PUSH1 0x1 ADD DUP6 SSTORE DUP3 ISZERO PUSH2 0x5351 JUMPI SWAP2 DUP3 ADD JUMPDEST DUP3 DUP2 GT ISZERO PUSH2 0x5351 JUMPI DUP3 MLOAD DUP3 SSTORE SWAP2 PUSH1 0x20 ADD SWAP2 SWAP1 PUSH1 0x1 ADD SWAP1 PUSH2 0x5336 JUMP JUMPDEST POP PUSH2 0x535D SWAP3 SWAP2 POP PUSH2 0x5361 JUMP JUMPDEST POP SWAP1 JUMP JUMPDEST JUMPDEST DUP1 DUP3 GT ISZERO PUSH2 0x535D JUMPI PUSH1 0x0 DUP2 SSTORE PUSH1 0x1 ADD PUSH2 0x5362 JUMP INVALID GASLIMIT PUSH15 0x756D657261626C655365743A20696E PUSH5 0x6578206F75 PUSH21 0x206F6620626F756E64734552433732313A20747261 PUSH15 0x7366657220746F206E6F6E20455243 CALLDATACOPY ORIGIN BALANCE MSTORE PUSH6 0x636569766572 KECCAK256 PUSH10 0x6D706C656D656E746572 0x4E PUSH16 0x7420656E6F756768204C494E4B202D20 PUSH7 0x696C6C20746865 KECCAK256 PUSH4 0x6F6E7472 PUSH2 0x6374 KECCAK256 PUSH24 0x697468206661756365744F574E45523A2043616C6C657220 PUSH2 0x7265 PUSH15 0x60742074686520436F6E7472616374 KECCAK256 0x4F PUSH24 0x6E6572214552433732313A207472616E7366657220746F20 PUSH21 0x6865207A65726F2061646472657373546865206E66 PUSH21 0x2063616E20626520666F756E64206F72206E6F7420 PUSH6 0x786973742C20 PUSH21 0x7279206C61747465722E2E2E4552433732313A206F PUSH17 0x657261746F7220717565727920666F7220 PUSH15 0x6F6E6578697374656E7420746F6B65 PUSH15 0x4552433732313A20617070726F7665 KECCAK256 PUSH4 0x616C6C65 PUSH19 0x206973206E6F74206F776E6572206E6F722061 PUSH17 0x70726F76656420666F7220616C6C455243 CALLDATACOPY ORIGIN BALANCE GASPRICE KECCAK256 PUSH3 0x616C61 PUSH15 0x636520717565727920666F72207468 PUSH6 0x207A65726F20 PUSH2 0x6464 PUSH19 0x6573734552433732313A206F776E6572207175 PUSH6 0x727920666F72 KECCAK256 PUSH15 0x6F6E6578697374656E7420746F6B65 PUSH15 0x456E756D657261626C654D61703A20 PUSH10 0x6E646578206F7574206F PUSH7 0x20626F756E6473 GASLIMIT MSTORE NUMBER CALLDATACOPY ORIGIN BALANCE GASPRICE KECCAK256 PUSH2 0x7070 PUSH19 0x6F76656420717565727920666F72206E6F6E65 PUSH25 0x697374656E7420746F6B656E4552433732314D657461646174 PUSH2 0x3A20 SSTORE MSTORE 0x49 KECCAK256 PUSH20 0x6574206F66206E6F6E6578697374656E7420746F PUSH12 0x656E4552433732313A207472 PUSH2 0x6E73 PUSH7 0x6572206F662074 PUSH16 0x6B656E2074686174206973206E6F7420 PUSH16 0x776E4552433732314D65746164617461 GASPRICE KECCAK256 SSTORE MSTORE 0x49 KECCAK256 PUSH18 0x7565727920666F72206E6F6E657869737465 PUSH15 0x7420746F6B656E4552433732313A20 PUSH2 0x7070 PUSH19 0x6F76616C20746F2063757272656E74206F776E PUSH6 0x72CECF7E435A ADDMOD 0xB4 MLOAD CREATE 0xCE MUL 0xC4 ADDRESS PUSH10 0xCC2FFE387EC6BEA07D3B 0xD3 0xE4 RETURNDATACOPY 0xBE SWAP13 0xB9 ISZERO 0xBD GASLIMIT MSTORE NUMBER CALLDATACOPY ORIGIN BALANCE GASPRICE KECCAK256 PUSH21 0x72616E736665722063616C6C6572206973206E6F74 KECCAK256 PUSH16 0x776E6572206E6F7220617070726F7665 PUSH5 0x7A46268AEF MUL SELFDESTRUCT SGT 0xD6 LOG0 0x4B DUP4 0x21 DUP6 0xB8 SSTORE 0xAD EQ PUSH32 0x2D24759ACA7F8723A60EECF72CA2646970667358221220580293BCCC5D2C89B0 DUP5 0x4F NOT 0x49 PUSH5 0x8E11A7A3F9 0xE7 CALL MLOAD DUP16 PUSH11 0x2C1C7B2D45445BA364736F PUSH13 0x634300060C0033000000000000 ","sha1":"856f24b82a624234c17ed0f14ffd94954e133bd5","source":"// contracts/StudentsNft.sol\n// SPDX-License-Identifier: MIT\npragma solidity ^0.6.6;\n\nimport \"./StudentsNft.sol\";\nimport \"./Ownable.sol\";\n\n/**\n*   @title `Ujap students` game full solidity nft contract\n*   @dev Full implementation of an ERC721, VRFConsumerBase, Ownable, Strings contracts\n*   \n*   Description:\n*\n*   Project made for the presentation of a university thesis, based on the studies \n*   and databases of the blockchain to create a game, made to be run on Kovan Test \n*   Blockchain, Local Blockchain and Main Ethereum Blockchain.\n*\n*   This contract (StudentsMain) contains all the elements for the admin of the NFT and the Token\n*   \n*   Author: https://github.com/simetb\n*   \n*   \n*/\ncontract StudentsMain is StudentsNft{\n\n    /** \n    *   @dev Events of the contract to js\n    */\n    event TokenOperation(address from,address to, uint256 amount, uint256 etherPrice);\n\n    event MarketTokenOwnerContract(uint256 bef, uint256 aft, string operation);\n\n    event NftOperation(address from, address to, uint256 nftId, uint256 amount);\n\n    event ContractBalance(uint256 balance);\n    /** \n    *   @dev Control variables to control the price game token\n    */\n    // Amount of money(ether) in the contract\n    uint256 private _liquidityPool;\n\n    /**\n    * @dev variable that save the marketWallet \n    */\n    address private _marketWallet;\n\n    // The reward token amount that you get for burn ur nft\n    uint256 private _burnReward;\n    // The price token amount that you use it in a transfer \n    uint256 private _transferPrice;\n\n    /**\n    *   @dev This constructor start the values of StundentsNft and the dependencies\n    *   \n    *   Warnings: Default Kovan networks, see the default values in docs on into Studentsnft.sol\n    */\n    constructor (\n        address _VRFCoordinator, \n        address _linkToken, \n        bytes32 _keyhash, \n        address _tokenAddress,\n        uint256 _nftPrice,\n        uint256 _wearMultiplicator,\n        uint256 _attackMultiplicator,\n        uint256 _rewardPriceMultiplicator,\n        uint256 tokenPool,\n        uint256 burnReward,\n        uint256 transferPrice\n        ) public\n    StudentsNft(_VRFCoordinator, _linkToken,_keyhash,_tokenAddress,_nftPrice,\n    _wearMultiplicator,_attackMultiplicator,_rewardPriceMultiplicator)\n    {\n\n        // TokenPool Initialization   \n        _tokenPool = tokenPool;\n        _tokenUJG.MintToken(tokenPool, address(this),msg.sender);\n\n        //  Price variables initialization\n        _burnReward = burnReward;\n        _transferPrice = transferPrice;\n\n        // MarketWallet\n        _marketWallet = msg.sender;\n    }\n\n    /** \n    *   Check if the actual nft exist in market\n    */\n    modifier MarketExist(uint256 studentIndex){\n        require(_students[studentIndex].market,\"The nft can be found or not exist, try latter...\");\n        _;\n    }\n\n    /** \n    *   @dev Set the token address of the contract\n    *\n    *   Requirements:\n    *   \n    * - Just the owner of the contract can doit\n    */\n    function SetTokenERC20Address(address newAddress) external OnlyOwner(msg.sender){\n        _tokenUJG = TokenUJG(newAddress);\n    }\n\n    /**\n    *  @dev Burn the character, transfer to 0x0...address\n    *   and remove it from the arrays \n    *  {ERC721 - _beforeTokenTransfer}\n    *\n    *   Requirements:\n    *\n    * - You need to be the owner of the NFT\n    * - The nft cannot be in the marketplace\n    *\n    *   Warning:\n    * \n    * - THIS WILL DELETE THE NFT\n    */\n    function BurnNft(uint256 studentIndex) \n    external \n    OnlyOwnerOf(studentIndex)\n    InMarket(studentIndex){\n        address owner = msg.sender;\n\n        uint256 studentId = _students[studentIndex].id;\n\n        _beforeTokenTransfer(owner, address(0), studentId);\n\n        _nftOwnerCount[owner] -= 1;\n        delete _nftToOwner[studentId];\n        delete _students[studentIndex];\n\n        _transferContractToUser(_burnReward, msg.sender);\n        _nftsInGame--;\n        emit NftOperation(msg.sender, address(0), studentId, _burnReward);\n    }\n\n    function GetBurnReward() public view returns(uint256){\n        return(_burnReward);\n    }\n\n    function SetBurnReward(uint256 newBurnReward) public OnlyOwner(msg.sender){\n        _burnReward = newBurnReward;\n    }\n\n    /**\n    *   @dev Transfer the character from a wallet to another wallet...\n    *   {ERC721 - _transfer()} \n    *\n    *   Requirements:\n    *\n    * - You need to be the owner of the NFT\n    * - The nft cannot be in the marketplace\n    */\n    function TransferNft(address from, address to, uint256 studentIndex) public \n    OnlyOwnerOf(studentIndex)\n    InMarket(studentIndex)\n    {\n        uint256 studentId =  _students[studentIndex].id;\n        _transferUserToContract(_transferPrice, msg.sender);\n        _transferLogic(from, to, studentId);\n        emit NftOperation(from, to, studentId, _transferPrice);\n    }\n    \n    /** \n    *   @dev Get the `_transferPrice` global variable\n    *\n    *   Requirements: \n    *\n    * - only the owner cant  do it\n    */\n    function GetTransferPrice() \n    public\n    view \n    returns(uint256){return(_transferPrice);}\n\n    /** \n    *   @dev set a new `_transferPrice` variable price \n    *\n    *   Requirements: \n    *\n    * - only the owner cant  do it\n    */\n    function SetTransferPrice(uint256 newTransferPrice) \n    public \n    OnlyOwner(msg.sender){_transferPrice = newTransferPrice;}\n\n    /** \n    *   @dev got all the logic of {ERC721 - _transfer()} to simplify the code\n    */\n    function _transferLogic(address from, address to, uint256 studentId) internal{\n        _transfer(from,to,studentId);\n\n        _nftOwnerCount[from] -=1;\n\n        _nftOwnerCount[to] +=1;\n\n        _nftToOwner[studentId] = to;\n    }\n\n    /**\n    *   @dev see all the INDEX NFT of the owner \n    *\n    *   Requirements:\n    * - the owner address cannot be 0x0...\n    */\n    function GetStudentsByOwner(address owner) public view returns(uint256[] memory){\n        require(owner != address(0),\"Address 0x0... invalid\");\n\n        uint256[] memory result = new uint256[](_nftOwnerCount[owner]);\n\n        uint256 counter = 0;\n\n        for (uint i = 0; i < _students.length; i++){\n\n            if(_nftToOwner[i] == owner){\n                result[counter] = i;\n                counter++;\n            }\n\n        }\n        return result;\n    }\n\n    /** \n    *   @dev Get the `_students` (NFT) Info \n    *\n    */\n    function GetStudentInfo(uint256 studentIndex) \n    public \n    view \n    returns(\n        uint256,\n        uint256,\n        uint256,\n        string memory,\n        uint32,\n        uint256,\n        bool\n        ){\n        return(\n            _students[studentIndex].level,\n            _students[studentIndex].intelligenceLevel,\n            _students[studentIndex].cheatLevel,\n            _students[studentIndex].name,\n            _students[studentIndex].attackTime,\n            _students[studentIndex].id,\n            _students[studentIndex].market\n        );\n    }\n\n    function GetStudentPrice(uint256 studentIndex)\n    public\n    view\n    returns(uint256){return(_students[studentIndex].price);}\n\n\n    /** \n    *   @dev Get the URI from the NFT Tokem\n    */\n    function GetTokenURI(uint256 studentId) \n    public \n    view \n    returns(string memory)\n    {return tokenURI(studentId);}\n\n    /** \n    *   @dev Get the URI from the NFT Tokem\n    *\n    *   Requirements: \n    *   \n    */\n    function SetTokenURI(uint256 studentId, string memory tokenURI) \n    public \n   {_setTokenURI(studentId, tokenURI);}\n\n    /** \n    *   @dev Get the total Number of Nft from an account\n    */\n    function GetNumbersNft(address account) \n    public \n    view \n    returns(uint256){return(_nftOwnerCount[account]);}\n\n    /** \n    *   @dev Get the total Number of Nft in game\n    */\n    function GetTotalNftInGame() \n    public \n    view \n    returns(uint256){return(_nftsInGame);}\n\n    /** \n    *   @dev Get the total Number of Nft in market\n    */\n    function GetTotalNftInMarket() \n    public \n    view \n    returns(uint256){return(_nftOwnerCount[_marketWallet]);}\n\n\n    /** \n    *   @dev Get the student index by the id\n    */\n    function GetStudentIndexById(uint256 id)\n    public \n    view \n    returns(uint256){\n        for (uint256 i = 0; i < _students.length; i++) {\n            if(id == _students[i].id){\n                return(i);\n            }\n        }\n    }\n\n    /**\n    *   @dev see all the INDEX NFT of the owner \n    *\n    *   Requirements:\n    * - the owner address cannot be 0x0...\n    */\n    function GetStudentsInMarket() \n    public \n    view \n    returns(uint256[] memory){\n        uint256[] memory result = new uint256[](_nftOwnerCount[_marketWallet]);\n\n        uint256 counter = 0;\n\n        for (uint i = 0; i < _students.length; i++){\n\n            if(_students[i].market){\n                result[counter] = i;\n                counter++;\n            }\n\n        }\n        return result;\n    }\n\n    /**\n    *   @dev Put the student in a market this gonna change the market \n    *   state of the nft struct to true, cant be transferible , playable\n    *\n    *   Requirements:\n    *\n    * - U need to be the owner of the NFT\n    */\n    function PutInMarket(uint256 studentIndex, uint256 price) \n    public \n    OnlyOwnerOf(studentIndex)\n    EnoughToken(msg.sender, 10 * 1 ether){\n        _transferUserToContract(10 * 1 ether, msg.sender);\n        \n        _students[studentIndex].market = true;\n\n        _students[studentIndex].price = price;\n\n        _transfer(msg.sender, _marketWallet, _students[studentIndex].id);\n\n        _nftOwnerCount[_marketWallet] +=1;\n        \n        emit NftOperation(msg.sender, _marketWallet, _students[studentIndex].id, 10 * 1 ether);\n    }\n\n    /** \n    *   @dev Buy the nft from the market and transfer it to buyer wallet, change the nft market state\n    *   and delete it from the market array\n    *\n    *   Requirements:\n    *\n    * - U need to have the enough amount of token in your wallet\n    */\n    function BuyMarket(uint256 studentIndex) \n    public \n    EnoughToken(msg.sender,_students[studentIndex].price)\n    MarketExist(studentIndex){\n        uint256 amount = _students[studentIndex].price;\n\n        address owner = _nftToOwner[_students[studentIndex].id];\n    \n        address buyer = msg.sender;\n        \n        _tokenUJG.TransferToken(buyer, owner, amount);\n\n        _students[studentIndex].market = false;\n\n        _students[studentIndex].price = 0;\n\n        _transfer(_marketWallet, buyer, _students[studentIndex].id);\n\n        _nftOwnerCount[_marketWallet]-=1;\n        \n        _nftOwnerCount[owner] -=1;\n        \n        _nftOwnerCount[buyer] +=1;\n\n        _nftToOwner[_students[studentIndex].id] = buyer;\n\n        emit NftOperation(buyer, owner, _students[studentIndex].id, amount);\n    }\n\n    /** \n    *   @dev This function will remove the NFT from the marketplace and update the market state\n    *\n    *   Requirements:\n    *\n    * - U need to have the enough amount of token in your wallet\n    */\n    function GetOutMarket(uint256 studentIndex) \n    public \n    OnlyOwnerOf(studentIndex)\n    EnoughToken(msg.sender, 10 * 1 ether)\n    MarketExist(studentIndex){\n        \n        address owner = _nftToOwner[_students[studentIndex].id];\n\n        _transferUserToContract(10 * 1 ether, owner);\n        \n        _transfer(_marketWallet, owner, _students[studentIndex].id);\n\n        _students[studentIndex].market = false;\n\n        _nftOwnerCount[_marketWallet] -=1;\n\n        emit NftOperation(msg.sender, msg.sender, _students[studentIndex].id, 10 * 1 ether);\n    }\n\n    /**\n    *   @dev Buy the token for the game this increases the liquidity of the game\n    *   and reduce the tokenPool, these token prices are worked on ether and emit\n    *   an event with information\n    *\n    * - Requirements:\n    *\n    *   You need to have the full price in ether in the transfer\n    */\n    function BuyToken(uint256 amount, uint256 price) external payable{\n        require(msg.value >= ((amount * price)/1 ether));\n        \n        _tokenUJG.TransferToken(address(this), msg.sender, amount);\n       \n        _liquidityPool += msg.value;\n        \n        _tokenPool -= amount;\n        \n        emit TokenOperation(msg.sender,address(this), amount, (amount * price)/ 1 ether);\n    }\n\n    /**\n    *   @dev Sell the token for the game this decrease the liquidity of the game\n    *   and increase the tokenPool, token prices are worked on ether and emit an\n    *     event with information\n    *\n    * - Requirements:\n    *\n    *   You need to have the full amount of token y your wallet\n    */\n    function SellToken(uint256 amount,uint256 price) external payable EnoughToken(msg.sender, amount){\n        uint256 total = ((price * amount)/1 ether);\n        \n        _transferUserToContract(amount, msg.sender);\n        \n        msg.sender.transfer(total);\n        \n        _liquidityPool -= total;\n\n        _tokenPool +=amount;\n        \n        emit TokenOperation(address(this),msg.sender, amount,  (amount * price)/ 1 ether);\n    }\n\n    /**\n    *   @dev Transfer the tokens from one account to another, this will reduce \n    *   the account of the sender and increase the account of the receiver\n    *\n    * - Requirements:\n    *\n    *   You need to have the full amount of token y your wallet\n    */\n    function TransferToken(address to,uint256 amount) public EnoughToken(msg.sender, amount){\n        _tokenUJG.TransferToken(msg.sender,to,amount);\n        emit TokenOperation(msg.sender,to,amount,0);\n    }\n\n    /** \n    *   @dev Get the value of the actual liquidity pool\n    */\n    function GetLiquidityPool() \n    public \n    view\n    returns(uint256){return(_liquidityPool);}\n\n    /** \n    *   @dev Get the value of the actual token pool\n    */\n    function GetTokenPool() \n    public\n    view \n    returns(uint256){return(_tokenPool);}\n\n    /** \n    *   @dev Increasse the liquidity of ther contract\n    */\n    function TransferLiquidity() public payable OnlyOwner(msg.sender){\n        require(msg.value > 0);\n        \n        uint256 bef = _liquidityPool;\n        \n        _liquidityPool += msg.value;\n        \n        emit MarketTokenOwnerContract(bef,_liquidityPool,\"+\");\n    }\n\n    /** \n    *   @dev Decreasse the liquidity of ther contract\n    */\n    function Withdraw(uint256 amount, address payable owner) public payable OnlyOwner(msg.sender){\n        \n        owner.transfer(amount);\n        \n        uint256 bef = _liquidityPool;\n        \n        _liquidityPool -= amount;\n        \n        emit MarketTokenOwnerContract(bef,_liquidityPool,\"-\");\n    }\n\n    /** \n    *   @dev Get the contrac balance in eth\n    */\n    function GetContractBalance() \n    public {emit ContractBalance(address(this).balance);}\n\n    /** \n    *   @dev Increasse the token pool, this will decreasse the price of token.\n    */\n    function MintTokens(uint256 amount) public{\n        \n        _tokenUJG.MintToken(amount,address(this),msg.sender);\n        \n        uint256 bef = _tokenPool;\n        \n        _tokenPool += amount;\n        \n        emit MarketTokenOwnerContract(bef,_tokenPool,\"+\");\n    }\n\n    /** \n    *   @dev Decreasse the token pool, this will increasse the price of token.\n    */\n    function BurnTokens(uint256 amount) public{\n        _tokenUJG.BurnToken(address(this), amount, msg.sender);\n        uint256 bef = _tokenPool;\n        _tokenPool -= amount;\n        emit MarketTokenOwnerContract(bef,_tokenPool,\"-\");\n    }\n\n    /** \n    *   @dev Check the user balance\n    */\n    function TokenBalance(address account)\n    public\n    view\n    returns(uint256){return(_tokenUJG.GetTokenBalance(account));}\n\n\n    /** \n    *   @dev get the owner of the nft\n    */\n    function NftToOwner(uint256 nftId) public view returns(address){\n        address owner = _nftToOwner[nftId];\n        return(owner);\n    }\n}","sourcePath":"contracts/StudentsMain.sol","deployment":{"address":"0xB919F16cbbEc6DDe4a88d7D36Ee8F5bDc8675da8","chainid":"5777","blockHeight":4}}