{
  "abi": [
    {
      "inputs": [
        {
          "internalType": "address",
          "name": "_VRFCoordinator",
          "type": "address"
        },
        {
          "internalType": "address",
          "name": "_linkToken",
          "type": "address"
        },
        {
          "internalType": "bytes32",
          "name": "_keyhash",
          "type": "bytes32"
        },
        {
          "internalType": "address",
          "name": "_tokenAddress",
          "type": "address"
        },
        {
          "internalType": "uint256",
          "name": "nftPrice",
          "type": "uint256"
        },
        {
          "internalType": "uint256",
          "name": "wearMultiplicator",
          "type": "uint256"
        },
        {
          "internalType": "uint256",
          "name": "attackMultiplicator",
          "type": "uint256"
        },
        {
          "internalType": "uint256",
          "name": "rewardPriceMultiplicator",
          "type": "uint256"
        }
      ],
      "stateMutability": "nonpayable",
      "type": "constructor"
    },
    {
      "anonymous": false,
      "inputs": [
        {
          "indexed": true,
          "internalType": "address",
          "name": "owner",
          "type": "address"
        },
        {
          "indexed": true,
          "internalType": "address",
          "name": "approved",
          "type": "address"
        },
        {
          "indexed": true,
          "internalType": "uint256",
          "name": "tokenId",
          "type": "uint256"
        }
      ],
      "name": "Approval",
      "type": "event"
    },
    {
      "anonymous": false,
      "inputs": [
        {
          "indexed": true,
          "internalType": "address",
          "name": "owner",
          "type": "address"
        },
        {
          "indexed": true,
          "internalType": "address",
          "name": "operator",
          "type": "address"
        },
        {
          "indexed": false,
          "internalType": "bool",
          "name": "approved",
          "type": "bool"
        }
      ],
      "name": "ApprovalForAll",
      "type": "event"
    },
    {
      "anonymous": false,
      "inputs": [
        {
          "indexed": false,
          "internalType": "string",
          "name": "name",
          "type": "string"
        },
        {
          "indexed": false,
          "internalType": "uint256",
          "name": "level",
          "type": "uint256"
        },
        {
          "indexed": false,
          "internalType": "uint256",
          "name": "intelligenceLevel",
          "type": "uint256"
        },
        {
          "indexed": false,
          "internalType": "uint256",
          "name": "cheatLevel",
          "type": "uint256"
        }
      ],
      "name": "NftCreated",
      "type": "event"
    },
    {
      "anonymous": false,
      "inputs": [
        {
          "indexed": false,
          "internalType": "bool",
          "name": "win",
          "type": "bool"
        },
        {
          "indexed": false,
          "internalType": "uint256",
          "name": "powerCharacter",
          "type": "uint256"
        },
        {
          "indexed": false,
          "internalType": "uint256",
          "name": "powerLevel",
          "type": "uint256"
        },
        {
          "indexed": false,
          "internalType": "uint256",
          "name": "wear",
          "type": "uint256"
        },
        {
          "indexed": false,
          "internalType": "uint256",
          "name": "roll",
          "type": "uint256"
        },
        {
          "indexed": false,
          "internalType": "uint256",
          "name": "reward",
          "type": "uint256"
        }
      ],
      "name": "ResultAttack",
      "type": "event"
    },
    {
      "anonymous": false,
      "inputs": [
        {
          "indexed": true,
          "internalType": "address",
          "name": "from",
          "type": "address"
        },
        {
          "indexed": true,
          "internalType": "address",
          "name": "to",
          "type": "address"
        },
        {
          "indexed": true,
          "internalType": "uint256",
          "name": "tokenId",
          "type": "uint256"
        }
      ],
      "name": "Transfer",
      "type": "event"
    },
    {
      "inputs": [
        {
          "internalType": "uint256",
          "name": "studentIndex",
          "type": "uint256"
        },
        {
          "internalType": "uint256",
          "name": "levelNumber",
          "type": "uint256"
        },
        {
          "internalType": "uint256",
          "name": "random",
          "type": "uint256"
        }
      ],
      "name": "Attack",
      "outputs": [],
      "stateMutability": "nonpayable",
      "type": "function"
    },
    {
      "inputs": [
        {
          "internalType": "uint256",
          "name": "random",
          "type": "uint256"
        }
      ],
      "name": "CreateNftStudent",
      "outputs": [],
      "stateMutability": "nonpayable",
      "type": "function"
    },
    {
      "inputs": [],
      "name": "GetAttackPriceMultiplicator",
      "outputs": [
        {
          "internalType": "uint256",
          "name": "",
          "type": "uint256"
        }
      ],
      "stateMutability": "view",
      "type": "function"
    },
    {
      "inputs": [],
      "name": "GetCoolDownTime",
      "outputs": [
        {
          "internalType": "uint256",
          "name": "",
          "type": "uint256"
        }
      ],
      "stateMutability": "view",
      "type": "function"
    },
    {
      "inputs": [],
      "name": "GetNftPrice",
      "outputs": [
        {
          "internalType": "uint256",
          "name": "",
          "type": "uint256"
        }
      ],
      "stateMutability": "view",
      "type": "function"
    },
    {
      "inputs": [],
      "name": "GetOwner",
      "outputs": [
        {
          "internalType": "address",
          "name": "",
          "type": "address"
        }
      ],
      "stateMutability": "view",
      "type": "function"
    },
    {
      "inputs": [
        {
          "internalType": "uint256",
          "name": "level",
          "type": "uint256"
        }
      ],
      "name": "GetPowerLevel",
      "outputs": [
        {
          "internalType": "uint256",
          "name": "",
          "type": "uint256"
        }
      ],
      "stateMutability": "view",
      "type": "function"
    },
    {
      "inputs": [],
      "name": "GetRewardMultiplicator",
      "outputs": [
        {
          "internalType": "uint256",
          "name": "",
          "type": "uint256"
        }
      ],
      "stateMutability": "view",
      "type": "function"
    },
    {
      "inputs": [
        {
          "internalType": "uint256",
          "name": "level",
          "type": "uint256"
        }
      ],
      "name": "GetTotalAttackPrice",
      "outputs": [
        {
          "internalType": "uint256",
          "name": "",
          "type": "uint256"
        }
      ],
      "stateMutability": "view",
      "type": "function"
    },
    {
      "inputs": [],
      "name": "GetWearMultiplicator",
      "outputs": [
        {
          "internalType": "uint256",
          "name": "",
          "type": "uint256"
        }
      ],
      "stateMutability": "view",
      "type": "function"
    },
    {
      "inputs": [
        {
          "internalType": "uint256",
          "name": "level",
          "type": "uint256"
        }
      ],
      "name": "Reward",
      "outputs": [
        {
          "internalType": "uint256",
          "name": "",
          "type": "uint256"
        }
      ],
      "stateMutability": "view",
      "type": "function"
    },
    {
      "inputs": [
        {
          "internalType": "uint256",
          "name": "newAttackMultiplicator",
          "type": "uint256"
        }
      ],
      "name": "SetAttackPriceMultiplicator",
      "outputs": [],
      "stateMutability": "nonpayable",
      "type": "function"
    },
    {
      "inputs": [
        {
          "internalType": "uint32",
          "name": "coolDownTime",
          "type": "uint32"
        }
      ],
      "name": "SetCoolDownTime",
      "outputs": [],
      "stateMutability": "nonpayable",
      "type": "function"
    },
    {
      "inputs": [
        {
          "internalType": "uint256",
          "name": "newNftPrice",
          "type": "uint256"
        }
      ],
      "name": "SetNftPrice",
      "outputs": [],
      "stateMutability": "nonpayable",
      "type": "function"
    },
    {
      "inputs": [
        {
          "internalType": "uint256",
          "name": "newRewardMultiplicator",
          "type": "uint256"
        }
      ],
      "name": "SetRewardMultiplicator",
      "outputs": [],
      "stateMutability": "nonpayable",
      "type": "function"
    },
    {
      "inputs": [
        {
          "internalType": "uint256",
          "name": "newWearMultiplicator",
          "type": "uint256"
        }
      ],
      "name": "SetWearMultiplicator",
      "outputs": [],
      "stateMutability": "nonpayable",
      "type": "function"
    },
    {
      "inputs": [
        {
          "internalType": "address",
          "name": "to",
          "type": "address"
        },
        {
          "internalType": "uint256",
          "name": "tokenId",
          "type": "uint256"
        }
      ],
      "name": "approve",
      "outputs": [],
      "stateMutability": "nonpayable",
      "type": "function"
    },
    {
      "inputs": [
        {
          "internalType": "address",
          "name": "owner",
          "type": "address"
        }
      ],
      "name": "balanceOf",
      "outputs": [
        {
          "internalType": "uint256",
          "name": "",
          "type": "uint256"
        }
      ],
      "stateMutability": "view",
      "type": "function"
    },
    {
      "inputs": [],
      "name": "baseURI",
      "outputs": [
        {
          "internalType": "string",
          "name": "",
          "type": "string"
        }
      ],
      "stateMutability": "view",
      "type": "function"
    },
    {
      "inputs": [
        {
          "internalType": "uint256",
          "name": "tokenId",
          "type": "uint256"
        }
      ],
      "name": "getApproved",
      "outputs": [
        {
          "internalType": "address",
          "name": "",
          "type": "address"
        }
      ],
      "stateMutability": "view",
      "type": "function"
    },
    {
      "inputs": [
        {
          "internalType": "address",
          "name": "owner",
          "type": "address"
        },
        {
          "internalType": "address",
          "name": "operator",
          "type": "address"
        }
      ],
      "name": "isApprovedForAll",
      "outputs": [
        {
          "internalType": "bool",
          "name": "",
          "type": "bool"
        }
      ],
      "stateMutability": "view",
      "type": "function"
    },
    {
      "inputs": [],
      "name": "name",
      "outputs": [
        {
          "internalType": "string",
          "name": "",
          "type": "string"
        }
      ],
      "stateMutability": "view",
      "type": "function"
    },
    {
      "inputs": [
        {
          "internalType": "uint256",
          "name": "tokenId",
          "type": "uint256"
        }
      ],
      "name": "ownerOf",
      "outputs": [
        {
          "internalType": "address",
          "name": "",
          "type": "address"
        }
      ],
      "stateMutability": "view",
      "type": "function"
    },
    {
      "inputs": [
        {
          "internalType": "bytes32",
          "name": "requestId",
          "type": "bytes32"
        },
        {
          "internalType": "uint256",
          "name": "randomness",
          "type": "uint256"
        }
      ],
      "name": "rawFulfillRandomness",
      "outputs": [],
      "stateMutability": "nonpayable",
      "type": "function"
    },
    {
      "inputs": [
        {
          "internalType": "address",
          "name": "from",
          "type": "address"
        },
        {
          "internalType": "address",
          "name": "to",
          "type": "address"
        },
        {
          "internalType": "uint256",
          "name": "tokenId",
          "type": "uint256"
        }
      ],
      "name": "safeTransferFrom",
      "outputs": [],
      "stateMutability": "nonpayable",
      "type": "function"
    },
    {
      "inputs": [
        {
          "internalType": "address",
          "name": "from",
          "type": "address"
        },
        {
          "internalType": "address",
          "name": "to",
          "type": "address"
        },
        {
          "internalType": "uint256",
          "name": "tokenId",
          "type": "uint256"
        },
        {
          "internalType": "bytes",
          "name": "_data",
          "type": "bytes"
        }
      ],
      "name": "safeTransferFrom",
      "outputs": [],
      "stateMutability": "nonpayable",
      "type": "function"
    },
    {
      "inputs": [
        {
          "internalType": "address",
          "name": "operator",
          "type": "address"
        },
        {
          "internalType": "bool",
          "name": "approved",
          "type": "bool"
        }
      ],
      "name": "setApprovalForAll",
      "outputs": [],
      "stateMutability": "nonpayable",
      "type": "function"
    },
    {
      "inputs": [
        {
          "internalType": "bytes4",
          "name": "interfaceId",
          "type": "bytes4"
        }
      ],
      "name": "supportsInterface",
      "outputs": [
        {
          "internalType": "bool",
          "name": "",
          "type": "bool"
        }
      ],
      "stateMutability": "view",
      "type": "function"
    },
    {
      "inputs": [],
      "name": "symbol",
      "outputs": [
        {
          "internalType": "string",
          "name": "",
          "type": "string"
        }
      ],
      "stateMutability": "view",
      "type": "function"
    },
    {
      "inputs": [
        {
          "internalType": "uint256",
          "name": "index",
          "type": "uint256"
        }
      ],
      "name": "tokenByIndex",
      "outputs": [
        {
          "internalType": "uint256",
          "name": "",
          "type": "uint256"
        }
      ],
      "stateMutability": "view",
      "type": "function"
    },
    {
      "inputs": [
        {
          "internalType": "address",
          "name": "owner",
          "type": "address"
        },
        {
          "internalType": "uint256",
          "name": "index",
          "type": "uint256"
        }
      ],
      "name": "tokenOfOwnerByIndex",
      "outputs": [
        {
          "internalType": "uint256",
          "name": "",
          "type": "uint256"
        }
      ],
      "stateMutability": "view",
      "type": "function"
    },
    {
      "inputs": [
        {
          "internalType": "uint256",
          "name": "tokenId",
          "type": "uint256"
        }
      ],
      "name": "tokenURI",
      "outputs": [
        {
          "internalType": "string",
          "name": "",
          "type": "string"
        }
      ],
      "stateMutability": "view",
      "type": "function"
    },
    {
      "inputs": [],
      "name": "totalSupply",
      "outputs": [
        {
          "internalType": "uint256",
          "name": "",
          "type": "uint256"
        }
      ],
      "stateMutability": "view",
      "type": "function"
    },
    {
      "inputs": [
        {
          "internalType": "address",
          "name": "from",
          "type": "address"
        },
        {
          "internalType": "address",
          "name": "to",
          "type": "address"
        },
        {
          "internalType": "uint256",
          "name": "tokenId",
          "type": "uint256"
        }
      ],
      "name": "transferFrom",
      "outputs": [],
      "stateMutability": "nonpayable",
      "type": "function"
    }
  ],
  "bytecode": "60056103e08181526454656d697360d81b6104005260c0908152600b6104209081526a4a656b6174686572696e6160a81b6104405260e0526009610460818152682432b93730b73232bd60b91b610480526101005260076104a08181526611d8589c9a595b60ca1b6104c052610120526104e0848152644d6172696160d81b6105005261014052600461052081815263253ab0b760e11b6105405261016052610560818152634d61727560e01b61058052610180526105a08381526829b2b130b9ba34b0b760b91b6105c0526101a0526105e08581526425b2bb34b760d91b610600526101c05261062091825266436172616e666160c81b610640526101e091909152610660848152644a756c696f60d81b610680526102005260066106a08181526529b0b6b6b2b960d11b6106c052610220526106e08581526422b235b0b960d91b61070052610240526008610720818152675175696e7465726f60c01b6107405261026052610760828152654f636861646f60d01b61078052610280526107a0848152684672616e636973636f60b81b6107c0526102a0526107e086815264446965676f60d81b610800526102c0526108208181526721b934b9ba34b0b760c11b610840526102e052610860928352634c75697360e01b61088052610300929092526108a085815264476f63686f60d81b6108c052610320526108e0858152642637b832bd60d91b61090052610340526109209081526513585c98d95b60d21b61094052610360526109609182526825b934b9ba37b332b960b91b61098052610380919091526109a09283526414da5b595d60da1b6109c0526103a092909252610a206040526109e0918252674d616e677569746f60c01b610a00526103c09190915262000294906010906019620004ca565b50348015620002a257600080fd5b5060405162003706380380620037068339818101604052610100811015620002c957600080fd5b5080516020808301516040808501516060860151608087015160a088015160c089015160e090990151855180870187526008815267556a61706973746160c01b818a0152865180880190975260048752630554a41560e41b98870198909852600080546001600160a01b03191633179055979895979396929591949093919289918991906200035f6301ffc9a760e01b62000442565b8151620003749060079060208501906200052e565b5080516200038a9060089060208401906200052e565b506200039d6380ac58cd60e01b62000442565b620003af635b5e139f60e01b62000442565b620003c163780e9d6360e01b62000442565b50506001600160601b0319606092831b811660a052911b16608052601a9590955567016345785d8a0000601b55600e805463ffffffff1916620151801790556000600f55601692909255601755601855601991909155600c80546001600160a01b03929092166001600160a01b031990921691909117905550620006329050565b6001600160e01b03198082161415620004a2576040805162461bcd60e51b815260206004820152601c60248201527f4552433136353a20696e76616c696420696e7465726661636520696400000000604482015290519081900360640190fd5b6001600160e01b0319166000908152600160208190526040909120805460ff19169091179055565b8280548282559060005260206000209081019282156200051c579160200282015b828111156200051c57825180516200050b9184916020909101906200052e565b5091602001919060010190620004eb565b506200052a929150620005af565b5090565b828054600181600116156101000203166002900490600052602060002090601f016020900481019282601f106200057157805160ff1916838001178555620005a1565b82800160010185558215620005a1579182015b82811115620005a157825182559160200191906001019062000584565b506200052a929150620005d0565b808211156200052a576000620005c68282620005e7565b50600101620005af565b5b808211156200052a5760008155600101620005d1565b50805460018160011615610100020316600290046000825580601f106200060f57506200062f565b601f0160209004906000526020600020908101906200062f9190620005d0565b50565b60805160601c60a05160601c6130a0620006666000398061133752806122ed525080611b6e52806122be52506130a06000f3fe608060405234801561001057600080fd5b50600436106102055760003560e01c80635cc92db31161011a57806395d89b41116100ad578063c75f40ce1161007c578063c75f40ce14610684578063c87b56dd1461068c578063cb9a5bab146106a9578063e985e9c5146106c6578063ee7931fb146106f457610205565b806395d89b411461056b578063a18baf7b14610573578063a22cb46514610590578063b88d4fde146105be57610205565b806370b82622116100e957806370b826221461050057806376c056471461051d578063926520351461054057806394985ddd1461054857610205565b80635cc92db3146104ad5780636352211e146104b55780636c0360eb146104d257806370a08231146104da57610205565b806323b872dd1161019d5780633ac0594a1161016c5780633ac0594a1461041857806342842e0e146104355780634f6ccce71461046b5780634fbcd3c6146104885780635482ab28146104a557610205565b806323b872dd1461037057806325c61ce5146103a657806327dd4258146103cf5780632f745c59146103ec57610205565b8063095ea7b3116101d9578063095ea7b31461032a5780630ae50a391461035857806311f256851461036057806318160ddd1461036857610205565b8062fc964a1461020a57806301ffc9a71461023957806306fdde0314610274578063081812fc146102f1575b600080fd5b6102276004803603602081101561022057600080fd5b5035610711565b60408051918252519081900360200190f35b6102606004803603602081101561024f57600080fd5b50356001600160e01b03191661071b565b604080519115158252519081900360200190f35b61027c61073a565b6040805160208082528351818301528351919283929083019185019080838360005b838110156102b657818101518382015260200161029e565b50505050905090810190601f1680156102e35780820380516001836020036101000a031916815260200191505b509250505060405180910390f35b61030e6004803603602081101561030757600080fd5b50356107d0565b604080516001600160a01b039092168252519081900360200190f35b6103566004803603604081101561034057600080fd5b506001600160a01b038135169060200135610832565b005b61030e61090d565b61022761091c565b610227610922565b6103566004803603606081101561038657600080fd5b506001600160a01b03813581169160208101359091169060400135610933565b610356600480360360608110156103bc57600080fd5b508035906020810135906040013561098a565b610356600480360360208110156103e557600080fd5b5035610eb2565b6102276004803603604081101561040257600080fd5b506001600160a01b038135169060200135610f07565b6102276004803603602081101561042e57600080fd5b5035610f32565b6103566004803603606081101561044b57600080fd5b506001600160a01b03813581169160208101359091169060400135610f44565b6102276004803603602081101561048157600080fd5b5035610f5f565b6103566004803603602081101561049e57600080fd5b5035610f75565b610227610fca565b610227610fd0565b61030e600480360360208110156104cb57600080fd5b5035610fd6565b61027c610ffe565b610227600480360360208110156104f057600080fd5b50356001600160a01b031661105f565b6103566004803603602081101561051657600080fd5b50356110c7565b6103566004803603602081101561053357600080fd5b503563ffffffff166112b4565b610227611320565b6103566004803603604081101561055e57600080fd5b508035906020013561132c565b61027c6113b7565b6103566004803603602081101561058957600080fd5b5035611418565b610356600480360360408110156105a657600080fd5b506001600160a01b038135169060200135151561146d565b610356600480360360808110156105d457600080fd5b6001600160a01b0382358116926020810135909116916040820135919081019060808101606082013564010000000081111561060f57600080fd5b82018360208201111561062157600080fd5b8035906020019184600183028401116401000000008311171561064357600080fd5b91908080601f016020809104026020016040519081016040528093929190818152602001838380828437600092019190915250929550611572945050505050565b6102276115d0565b61027c600480360360208110156106a257600080fd5b50356115d6565b610227600480360360208110156106bf57600080fd5b5035611859565b610260600480360360408110156106dc57600080fd5b506001600160a01b038135811691602001351661186a565b6103566004803603602081101561070a57600080fd5b5035611898565b602881025b919050565b6001600160e01b03191660009081526001602052604090205460ff1690565b60078054604080516020601f60026000196101006001881615020190951694909404938401819004810282018101909252828152606093909290918301828280156107c65780601f1061079b576101008083540402835291602001916107c6565b820191906000526020600020905b8154815290600101906020018083116107a957829003601f168201915b5050505050905090565b60006107db826118ed565b6108165760405162461bcd60e51b815260040180806020018281038252602c815260200180612f95602c913960400191505060405180910390fd5b506000908152600560205260409020546001600160a01b031690565b600061083d82610fd6565b9050806001600160a01b0316836001600160a01b031614156108905760405162461bcd60e51b81526004018080602001828103825260218152602001806130196021913960400191505060405180910390fd5b806001600160a01b03166108a26118fa565b6001600160a01b031614806108c357506108c3816108be6118fa565b61186a565b6108fe5760405162461bcd60e51b8152600401808060200182810382526038815260200180612ee86038913960400191505060405180910390fd5b61090883836118fe565b505050565b6000546001600160a01b031690565b60175490565b600061092e600361196c565b905090565b61094461093e6118fa565b82611977565b61097f5760405162461bcd60e51b815260040180806020018281038252603181526020018061303a6031913960400191505060405180910390fd5b610908838383611a1b565b82601360006011838154811061099c57fe5b600091825260208083206007929092029091016005015483528201929092526040019020546001600160a01b03163314610a16576040805162461bcd60e51b81526020600482015260166024820152752a9030b932b713ba103a34329037333a1027bbb732b960511b604482015290519081900360640190fd5b33610a2084611859565b600c5460408051633db1cdbf60e21b81526001600160a01b03858116600483015291518493929092169163f6c736fc91602480820192602092909190829003018186803b158015610a7057600080fd5b505afa158015610a84573d6000803e3d6000fd5b505050506040513d6020811015610a9a57600080fd5b50511015610ae0576040805162461bcd60e51b815260206004820152600e60248201526d4e6f7420656e6f75676820554a4760901b604482015290519081900360640190fd5b854260118281548110610aef57fe5b600091825260209091206004600790920201015463ffffffff161115610b54576040805162461bcd60e51b815260206004820152601560248201527413195d081c995cdd081e5bdd5c8814dd1d59195b9d605a1b604482015290519081900360640190fd5b8660118181548110610b6257fe5b600091825260209091206006600790920201015460ff1615610bcb576040805162461bcd60e51b815260206004820152601960248201527f5468652053747564656e742061726520696e206d61726b657400000000000000604482015290519081900360640190fd5b60018710158015610bdd5750600a8711155b610c1e576040805162461bcd60e51b815260206004820152600d60248201526c125b9d985b1a590813195d995b609a1b604482015290519081900360640190fd5b610c26612d14565b60118981548110610c3357fe5b90600052602060002090600702016040518060e0016040529081600082015481526020016001820154815260200160028201548152602001600382018054600181600116156101000203166002900480601f016020809104026020016040519081016040528092919081815260200182805460018160011615610100020316600290048015610d035780601f10610cd857610100808354040283529160200191610d03565b820191906000526020600020905b815481529060010190602001808311610ce657829003601f168201915b5050509183525050600482015463ffffffff166020808301919091526005830154604083015260069092015460ff161515606090910152810151909150610d4957600080fd5b610d5287611b67565b506000610d5e89610711565b33600090815260156020526040812054919250906064900660010190506000836020015184604001518301019050610d958c611c8a565b6000610da08c611859565b9050610dac8133611cd8565b818411610e385760026014850402610dc48e82611d58565b6000610dcf8e610f32565b9050610ddb8133611dde565b604080516001815260208101869052808201889052606081018490526080810187905260a0810183905290517fc1c89f12581ef4543f5451c1f84ff0ed0bfb24e4a0ae8f507dd335e411d5d05f9181900360c00190a15050610ea3565b6002600a850402610e498e82611d58565b60408051600080825260208201869052818301889052606082018490526080820187905284900360a082015290517fc1c89f12581ef4543f5451c1f84ff0ed0bfb24e4a0ae8f507dd335e411d5d05f9181900360c00190a1505b50505050505050505050505050565b3380610ebc61090d565b6001600160a01b031614610f015760405162461bcd60e51b8152600401808060200182810382526028815260200180612e706028913960400191505060405180910390fd5b50601655565b6001600160a01b0382166000908152600260205260408120610f299083611e5f565b90505b92915050565b601954026801158e460913d000000290565b61090883838360405180602001604052806000815250611572565b600080610f6d600384611e6b565b509392505050565b3380610f7f61090d565b6001600160a01b031614610fc45760405162461bcd60e51b8152600401808060200182810382526028815260200180612e706028913960400191505060405180910390fd5b50601755565b60185490565b60165490565b6000610f2c82604051806060016040528060298152602001612f4a6029913960039190611e87565b600a8054604080516020601f60026000196101006001881615020190951694909404938401819004810282018101909252828152606093909290918301828280156107c65780601f1061079b576101008083540402835291602001916107c6565b60006001600160a01b0382166110a65760405162461bcd60e51b815260040180806020018281038252602a815260200180612f20602a913960400191505060405180910390fd5b6001600160a01b0382166000908152600260205260409020610f2c9061196c565b601654600c5460408051633db1cdbf60e21b81523360048201819052915191939283926001600160a01b039091169163f6c736fc916024808301926020929190829003018186803b15801561111b57600080fd5b505afa15801561112f573d6000803e3d6000fd5b505050506040513d602081101561114557600080fd5b5051101561118b576040805162461bcd60e51b815260206004820152600e60248201526d4e6f7420656e6f75676820554a4760901b604482015290519081900360640190fd5b61119760165433611cd8565b600f546111a2612d14565b6111ac8286611e9e565b336000818152601260209081526040808320805460010190558683526013909152902080546001600160a01b031916821790559091506111ec908361210d565b7f319ec0c4f5923a08e9d5fb646ddf9c5ee3d502e7a45118f7ea3ba28312bb55d781606001518260000151836020015184604001516040518080602001858152602001848152602001838152602001828103825286818151815260200191508051906020019080838360005b83811015611270578181015183820152602001611258565b50505050905090810190601f16801561129d5780820380516001836020036101000a031916815260200191505b509550505050505060405180910390a15050505050565b33806112be61090d565b6001600160a01b0316146113035760405162461bcd60e51b8152600401808060200182810382526028815260200180612e706028913960400191505060405180910390fd5b50600e805463ffffffff191663ffffffff92909216919091179055565b600e5463ffffffff1690565b336001600160a01b037f000000000000000000000000000000000000000000000000000000000000000016146113a9576040805162461bcd60e51b815260206004820152601f60248201527f4f6e6c7920565246436f6f7264696e61746f722063616e2066756c66696c6c00604482015290519081900360640190fd5b6113b38282612127565b5050565b60088054604080516020601f60026000196101006001881615020190951694909404938401819004810282018101909252828152606093909290918301828280156107c65780601f1061079b576101008083540402835291602001916107c6565b338061142261090d565b6001600160a01b0316146114675760405162461bcd60e51b8152600401808060200182810382526028815260200180612e706028913960400191505060405180910390fd5b50601955565b6114756118fa565b6001600160a01b0316826001600160a01b031614156114db576040805162461bcd60e51b815260206004820152601960248201527f4552433732313a20617070726f766520746f2063616c6c657200000000000000604482015290519081900360640190fd5b80600660006114e86118fa565b6001600160a01b03908116825260208083019390935260409182016000908120918716808252919093529120805460ff19169215159290921790915561152c6118fa565b6001600160a01b03167f17307eab39ab6107e8899845ad3d59bd9653f200f220920489ca2b5937696c318360405180821515815260200191505060405180910390a35050565b61158361157d6118fa565b83611977565b6115be5760405162461bcd60e51b815260040180806020018281038252603181526020018061303a6031913960400191505060405180910390fd5b6115ca8484848461214f565b50505050565b60195490565b60606115e1826118ed565b61161c5760405162461bcd60e51b815260040180806020018281038252602f815260200180612fea602f913960400191505060405180910390fd5b60008281526009602090815260409182902080548351601f60026000196101006001861615020190931692909204918201849004840281018401909452808452606093928301828280156116b15780601f10611686576101008083540402835291602001916116b1565b820191906000526020600020905b81548152906001019060200180831161169457829003601f168201915b5050505050905060606116c2610ffe565b90508051600014156116d657509050610716565b8151156117975780826040516020018083805190602001908083835b602083106117115780518252601f1990920191602091820191016116f2565b51815160209384036101000a600019018019909216911617905285519190930192850191508083835b602083106117595780518252601f19909201916020918201910161173a565b6001836020036101000a0380198251168184511680821785525050505050509050019250505060405160208183030381529060405292505050610716565b806117a1856121a1565b6040516020018083805190602001908083835b602083106117d35780518252601f1990920191602091820191016117b4565b51815160209384036101000a600019018019909216911617905285519190930192850191508083835b6020831061181b5780518252601f1990920191602091820191016117fc565b6001836020036101000a0380198251168184511680821785525050505050509050019250505060405160208183030381529060405292505050919050565b60185402678ac7230489e800000290565b6001600160a01b03918216600090815260066020908152604080832093909416825291909152205460ff1690565b33806118a261090d565b6001600160a01b0316146118e75760405162461bcd60e51b8152600401808060200182810382526028815260200180612e706028913960400191505060405180910390fd5b50601855565b6000610f2c60038361227c565b3390565b600081815260056020526040902080546001600160a01b0319166001600160a01b038416908117909155819061193382610fd6565b6001600160a01b03167f8c5be1e5ebec7d5bd14f71427d1e84f3dd0314c0f7b2291e5b200ac8c7c3b92560405160405180910390a45050565b6000610f2c82612288565b6000611982826118ed565b6119bd5760405162461bcd60e51b815260040180806020018281038252602c815260200180612ebc602c913960400191505060405180910390fd5b60006119c883610fd6565b9050806001600160a01b0316846001600160a01b03161480611a035750836001600160a01b03166119f8846107d0565b6001600160a01b0316145b80611a135750611a13818561186a565b949350505050565b826001600160a01b0316611a2e82610fd6565b6001600160a01b031614611a735760405162461bcd60e51b8152600401808060200182810382526029815260200180612fc16029913960400191505060405180910390fd5b6001600160a01b038216611ab85760405162461bcd60e51b8152600401808060200182810382526024815260200180612e986024913960400191505060405180910390fd5b611ac3838383610908565b611ace6000826118fe565b6001600160a01b0383166000908152600260205260409020611af0908261228c565b506001600160a01b0382166000908152600260205260409020611b139082612298565b50611b20600382846122a4565b5080826001600160a01b0316846001600160a01b03167fddf252ad1be2c89b69c2b068fc378daa952ba7f163c4a11628f55a4df523b3ef60405160405180910390a4505050565b6000601b547f00000000000000000000000000000000000000000000000000000000000000006001600160a01b03166370a08231306040518263ffffffff1660e01b815260040180826001600160a01b0316815260200191505060206040518083038186803b158015611bd957600080fd5b505afa158015611bed573d6000803e3d6000fd5b505050506040513d6020811015611c0357600080fd5b50511015611c425760405162461bcd60e51b815260040180806020018281038252602f815260200180612e41602f913960400191505060405180910390fd5b6000611c52601a54601b546122ba565b600081815260146020908152604080832080546001600160a01b03191633908117909155835260159091529020849055915050919050565b600e546011805463ffffffff90921642019183908110611ca657fe5b906000526020600020906007020160040160006101000a81548163ffffffff021916908363ffffffff16021790555050565b600c5460408051633844b70760e01b81526001600160a01b0384811660048301523060248301526044820186905291519190921691633844b70791606480830192600092919082900301818387803b158015611d3357600080fd5b505af1158015611d47573d6000803e3d6000fd5b5050600d8054909401909355505050565b6017548102905060008160118481548110611d6f57fe5b906000526020600020906007020160010154031015611db157600060118381548110611d9757fe5b9060005260206000209060070201600101819055506113b3565b8060118381548110611dbf57fe5b6000918252602090912060016007909202010180549190910390555050565b600c5460408051633844b70760e01b81523060048201526001600160a01b0384811660248301526044820186905291519190921691633844b70791606480830192600092919082900301818387803b158015611e3957600080fd5b505af1158015611e4d573d6000803e3d6000fd5b5050600d805494909403909355505050565b6000610f298383612465565b6000808080611e7a86866124c9565b9097909650945050505050565b6000611e94848484612544565b90505b9392505050565b611ea6612d14565b611eaf82611b67565b50336000908152601560205260408120549060016003830681019190821415611edf575060016064830601611efe565b8160021415611ef5575060656064830601611efe565b5060c960648306015b60016064600285020601606060106019860681548110611f1a57fe5b600091825260209182902001805460408051601f6002600019610100600187161502019094169390930492830185900485028101850190915281815292830182828015611fa85780601f10611f7d57610100808354040283529160200191611fa8565b820191906000526020600020905b815481529060010190602001808311611f8b57829003601f168201915b50505050509050611fb7612d14565b506040805160e0810182528581526020808201868152928201858152606083018581524263ffffffff16608085015260a084018d9052600060c0850181905260118054600181018255915284517f31ecc21a745e3968a04e9570e4425bc18fa8019c68028196b546d1669c200c68600790920291820190815595517f31ecc21a745e3968a04e9570e4425bc18fa8019c68028196b546d1669c200c6982015591517f31ecc21a745e3968a04e9570e4425bc18fa8019c68028196b546d1669c200c6a8301555180519394859490936120b3937f31ecc21a745e3968a04e9570e4425bc18fa8019c68028196b546d1669c200c6b01920190612d59565b50608082015160048201805463ffffffff191663ffffffff90921691909117905560a0820151600582015560c0909101516006909101805460ff1916911515919091179055600f8054600101905598975050505050505050565b6113b382826040518060200160405280600081525061260e565b6000918252601460209081526040808420546001600160a01b03168452601590915290912055565b61215a848484611a1b565b61216684848484612660565b6115ca5760405162461bcd60e51b8152600401808060200182810382526032815260200180612e0f6032913960400191505060405180910390fd5b6060816121c657506040805180820190915260018152600360fc1b6020820152610716565b8160005b81156121de57600101600a820491506121ca565b60608167ffffffffffffffff811180156121f757600080fd5b506040519080825280601f01601f191660200182016040528015612222576020820181803683370190505b50859350905060001982015b831561227357600a840660300160f81b8282806001900393508151811061225157fe5b60200101906001600160f81b031916908160001a905350600a8404935061222e565b50949350505050565b6000610f2983836127c8565b5490565b6000610f2983836127e0565b6000610f2983836128a6565b6000611e9484846001600160a01b0385166128f0565b60007f00000000000000000000000000000000000000000000000000000000000000006001600160a01b0316634000aea07f00000000000000000000000000000000000000000000000000000000000000008486600060405160200180838152602001828152602001925050506040516020818303038152906040526040518463ffffffff1660e01b815260040180846001600160a01b0316815260200183815260200180602001828103825283818151815260200191508051906020019080838360005b8381101561239757818101518382015260200161237f565b50505050905090810190601f1680156123c45780820380516001836020036101000a031916815260200191505b50945050505050602060405180830381600087803b1580156123e557600080fd5b505af11580156123f9573d6000803e3d6000fd5b505050506040513d602081101561240f57600080fd5b50506000838152600b602052604081205461242f90859083903090612987565b6000858152600b602052604090205490915061244c9060016129ce565b6000858152600b6020526040902055611a138482612a28565b815460009082106124a75760405162461bcd60e51b8152600401808060200182810382526022815260200180612ded6022913960400191505060405180910390fd5b8260000182815481106124b657fe5b9060005260206000200154905092915050565b81546000908190831061250d5760405162461bcd60e51b8152600401808060200182810382526022815260200180612f736022913960400191505060405180910390fd5b600084600001848154811061251e57fe5b906000526020600020906002020190508060000154816001015492509250509250929050565b600082815260018401602052604081205482816125df5760405162461bcd60e51b81526004018080602001828103825283818151815260200191508051906020019080838360005b838110156125a457818101518382015260200161258c565b50505050905090810190601f1680156125d15780820380516001836020036101000a031916815260200191505b509250505060405180910390fd5b508460000160018203815481106125f257fe5b9060005260206000209060020201600101549150509392505050565b6126188383612a54565b6126256000848484612660565b6109085760405162461bcd60e51b8152600401808060200182810382526032815260200180612e0f6032913960400191505060405180910390fd5b6000612674846001600160a01b0316612b82565b61268057506001611a13565b606061278e630a85bd0160e11b6126956118fa565b88878760405160240180856001600160a01b03168152602001846001600160a01b0316815260200183815260200180602001828103825283818151815260200191508051906020019080838360005b838110156126fc5781810151838201526020016126e4565b50505050905090810190601f1680156127295780820380516001836020036101000a031916815260200191505b5095505050505050604051602081830303815290604052906001600160e01b0319166020820180516001600160e01b038381831617835250505050604051806060016040528060328152602001612e0f603291396001600160a01b0388169190612b88565b905060008180602001905160208110156127a757600080fd5b50516001600160e01b031916630a85bd0160e11b1492505050949350505050565b60009081526001919091016020526040902054151590565b6000818152600183016020526040812054801561289c578354600019808301919081019060009087908390811061281357fe5b906000526020600020015490508087600001848154811061283057fe5b60009182526020808320909101929092558281526001898101909252604090209084019055865487908061286057fe5b60019003818190600052602060002001600090559055866001016000878152602001908152602001600020600090556001945050505050610f2c565b6000915050610f2c565b60006128b283836127c8565b6128e857508154600181810184556000848152602080822090930184905584548482528286019093526040902091909155610f2c565b506000610f2c565b600082815260018401602052604081205480612955575050604080518082018252838152602080820184815286546001818101895560008981528481209551600290930290950191825591519082015586548684528188019092529290912055611e97565b8285600001600183038154811061296857fe5b9060005260206000209060020201600101819055506000915050611e97565b60408051602080820196909652808201949094526001600160a01b039290921660608401526080808401919091528151808403909101815260a09092019052805191012090565b600082820183811015610f29576040805162461bcd60e51b815260206004820152601b60248201527f536166654d6174683a206164646974696f6e206f766572666c6f770000000000604482015290519081900360640190fd5b604080516020808201949094528082019290925280518083038201815260609092019052805191012090565b6001600160a01b038216612aaf576040805162461bcd60e51b815260206004820181905260248201527f4552433732313a206d696e7420746f20746865207a65726f2061646472657373604482015290519081900360640190fd5b612ab8816118ed565b15612b0a576040805162461bcd60e51b815260206004820152601c60248201527f4552433732313a20746f6b656e20616c7265616479206d696e74656400000000604482015290519081900360640190fd5b612b1660008383610908565b6001600160a01b0382166000908152600260205260409020612b389082612298565b50612b45600382846122a4565b5060405181906001600160a01b038416906000907fddf252ad1be2c89b69c2b068fc378daa952ba7f163c4a11628f55a4df523b3ef908290a45050565b3b151590565b6060611e94848460008585612b9c85612b82565b612bed576040805162461bcd60e51b815260206004820152601d60248201527f416464726573733a2063616c6c20746f206e6f6e2d636f6e7472616374000000604482015290519081900360640190fd5b60006060866001600160a01b031685876040518082805190602001908083835b60208310612c2c5780518252601f199092019160209182019101612c0d565b6001836020036101000a03801982511681845116808217855250505050505090500191505060006040518083038185875af1925050503d8060008114612c8e576040519150601f19603f3d011682016040523d82523d6000602084013e612c93565b606091505b5091509150612ca3828286612cae565b979650505050505050565b60608315612cbd575081611e97565b825115612ccd5782518084602001fd5b60405162461bcd60e51b81526020600482018181528451602484015284518593919283926044019190850190808383600083156125a457818101518382015260200161258c565b6040518060e0016040528060008152602001600081526020016000815260200160608152602001600063ffffffff168152602001600081526020016000151581525090565b828054600181600116156101000203166002900490600052602060002090601f016020900481019282601f10612d9a57805160ff1916838001178555612dc7565b82800160010185558215612dc7579182015b82811115612dc7578251825591602001919060010190612dac565b50612dd3929150612dd7565b5090565b5b80821115612dd35760008155600101612dd856fe456e756d657261626c655365743a20696e646578206f7574206f6620626f756e64734552433732313a207472616e7366657220746f206e6f6e20455243373231526563656976657220696d706c656d656e7465724e6f7420656e6f756768204c494e4b202d2066696c6c2074686520636f6e74726163742077697468206661756365744f574e45523a2043616c6c6572206172656e60742074686520436f6e7472616374204f776e6572214552433732313a207472616e7366657220746f20746865207a65726f20616464726573734552433732313a206f70657261746f7220717565727920666f72206e6f6e6578697374656e7420746f6b656e4552433732313a20617070726f76652063616c6c6572206973206e6f74206f776e6572206e6f7220617070726f76656420666f7220616c6c4552433732313a2062616c616e636520717565727920666f7220746865207a65726f20616464726573734552433732313a206f776e657220717565727920666f72206e6f6e6578697374656e7420746f6b656e456e756d657261626c654d61703a20696e646578206f7574206f6620626f756e64734552433732313a20617070726f76656420717565727920666f72206e6f6e6578697374656e7420746f6b656e4552433732313a207472616e73666572206f6620746f6b656e2074686174206973206e6f74206f776e4552433732314d657461646174613a2055524920717565727920666f72206e6f6e6578697374656e7420746f6b656e4552433732313a20617070726f76616c20746f2063757272656e74206f776e65724552433732313a207472616e736665722063616c6c6572206973206e6f74206f776e6572206e6f7220617070726f766564a26469706673582212207a1d2f1b28316f776e78b3a0927ac529812edb8ad2c3ed65cdc91ae4390b12ff64736f6c634300060c0033",
  "bytecodeSha1": "f1a627c61a0965b4c242b1b23d569bbf68bcdea7",
  "compiler": {
    "evm_version": "istanbul",
    "optimizer": {
      "enabled": true,
      "runs": 200
    },
    "version": "0.6.12+commit.27d51765"
  },
  "contractName": "StudentsNft",
  "language": "Solidity",
  "natspec": {
    "details": "Full implementation of an ERC721, VRFConsumerBase, Ownable, Strings contracts      Description:   Project made for the presentation of a university thesis, based on the studies    and databases of the blockchain to create a game, made to be run on Kovan Test    Blockchain, Local Blockchain and Main Ethereum Blockchain.   This contract (StudentsNft) contains all the elements for the construction and operation of the NFT      Author: https://github.com/simetb      ",
    "kind": "dev",
    "methods": {
      "Attack(uint256,uint256,uint256)": {
        "details": "Function that get the nft and attack the level    Requirements:  - The `levelNumber` cannot be a value below than 1 an upper than 10 - The stat of `_intelligenceLevel` from `Student` need to be greater than 0 - You need to be the student owner - Enough token to attack - Your NFT need to be rest - Your NFT It should not be in the marketplace"
      },
      "CreateNftStudent(uint256)": {
        "details": "Mint a nft and associate with the owner   get the `newId` from the number of total nft, take the random number and generate the stats   and save it   Requirements:    - You can only create a student nft if you have the full price token in ur wallet"
      },
      "GetAttackPriceMultiplicator()": {
        "details": "Get the `_attackPriceMultiplicator`"
      },
      "GetCoolDownTime()": {
        "details": "Get `_coolDownTime`"
      },
      "GetNftPrice()": {
        "details": "Get the value nft price mint function"
      },
      "GetOwner()": {
        "details": "get the owner of the contract"
      },
      "GetPowerLevel(uint256)": {
        "details": "Get the power level"
      },
      "GetRewardMultiplicator()": {
        "details": "Get the `_rewardPriceMultiplicator`"
      },
      "GetTotalAttackPrice(uint256)": {
        "details": "Get the Total attack price"
      },
      "GetWearMultiplicator()": {
        "details": "Get the `_wearMultiplicator`"
      },
      "Reward(uint256)": {
        "details": "Get the level reward"
      },
      "SetAttackPriceMultiplicator(uint256)": {
        "details": "Set the new `AttackMultiplicator`   Requirement:    - Only the contract owner can set a `AttackMultiplicator`"
      },
      "SetCoolDownTime(uint32)": {
        "details": "Change the CoolDownTime value      Requirements: - Only the owner can set a new `_coolDownTime` "
      },
      "SetNftPrice(uint256)": {
        "details": "Set the new `NftPrice`   Requirement:    - Only the contract owner can set a `NftPrice`"
      },
      "SetRewardMultiplicator(uint256)": {
        "details": "Set the new `RewardMultiplicator`   Requirement:    - Only the contract owner can set a `RewardMultiplicator`"
      },
      "SetWearMultiplicator(uint256)": {
        "details": "Set the new `WearMultiplicator`   Requirement:    - Only the contract owner can set a `WearMultiplicator`"
      },
      "approve(address,uint256)": {
        "details": "See {IERC721-approve}."
      },
      "balanceOf(address)": {
        "details": "See {IERC721-balanceOf}."
      },
      "baseURI()": {
        "details": "Returns the base URI set via {_setBaseURI}. This will be automatically added as a prefix in {tokenURI} to each token's URI, or to the token ID if no specific URI is set for that token ID."
      },
      "getApproved(uint256)": {
        "details": "See {IERC721-getApproved}."
      },
      "isApprovedForAll(address,address)": {
        "details": "See {IERC721-isApprovedForAll}."
      },
      "name()": {
        "details": "See {IERC721Metadata-name}."
      },
      "ownerOf(uint256)": {
        "details": "See {IERC721-ownerOf}."
      },
      "safeTransferFrom(address,address,uint256)": {
        "details": "See {IERC721-safeTransferFrom}."
      },
      "safeTransferFrom(address,address,uint256,bytes)": {
        "details": "See {IERC721-safeTransferFrom}."
      },
      "setApprovalForAll(address,bool)": {
        "details": "See {IERC721-setApprovalForAll}."
      },
      "supportsInterface(bytes4)": {
        "details": "See {IERC165-supportsInterface}. Time complexity O(1), guaranteed to always use less than 30 000 gas."
      },
      "symbol()": {
        "details": "See {IERC721Metadata-symbol}."
      },
      "tokenByIndex(uint256)": {
        "details": "See {IERC721Enumerable-tokenByIndex}."
      },
      "tokenOfOwnerByIndex(address,uint256)": {
        "details": "See {IERC721Enumerable-tokenOfOwnerByIndex}."
      },
      "tokenURI(uint256)": {
        "details": "See {IERC721Metadata-tokenURI}."
      },
      "totalSupply()": {
        "details": "See {IERC721Enumerable-totalSupply}."
      },
      "transferFrom(address,address,uint256)": {
        "details": "See {IERC721-transferFrom}."
      }
    },
    "stateVariables": {
      "_nftOwnerCount": {
        "details": "Variable mapping for the correct control and distribution of prizes and NFT"
      },
      "_nftPrice": {
        "details": "The control variables are used to adjust the prices,    prizes and consequences that the nfts bring if necessary."
      },
      "keyhash": {
        "details": "Kovan Default Blockhain Implementation   `_keyhash` kovan default = 0x6c3699283bda56ad74f6b855546325b68d482e983852a7a82979cc4807b641f4   `_fee` kovan default = 100000000000000000   `_VRFCoordinator` = 0xdD3782915140c8f3b190B5D67eAc6dc5760C46E9   `_linkToken` = 0xa36085F69e2889c224210F603D836748e7dC0088"
      }
    },
    "title": "`Ujap students` game full solidity nft contract",
    "version": 1
  },
  "opcodes": "PUSH1 0x80 PUSH1 0x40 MSTORE CALLVALUE DUP1 ISZERO PUSH2 0x10 JUMPI PUSH1 0x0 DUP1 REVERT JUMPDEST POP PUSH1 0x4 CALLDATASIZE LT PUSH2 0x205 JUMPI PUSH1 0x0 CALLDATALOAD PUSH1 0xE0 SHR DUP1 PUSH4 0x5CC92DB3 GT PUSH2 0x11A JUMPI DUP1 PUSH4 0x95D89B41 GT PUSH2 0xAD JUMPI DUP1 PUSH4 0xC75F40CE GT PUSH2 0x7C JUMPI DUP1 PUSH4 0xC75F40CE EQ PUSH2 0x684 JUMPI DUP1 PUSH4 0xC87B56DD EQ PUSH2 0x68C JUMPI DUP1 PUSH4 0xCB9A5BAB EQ PUSH2 0x6A9 JUMPI DUP1 PUSH4 0xE985E9C5 EQ PUSH2 0x6C6 JUMPI DUP1 PUSH4 0xEE7931FB EQ PUSH2 0x6F4 JUMPI PUSH2 0x205 JUMP JUMPDEST DUP1 PUSH4 0x95D89B41 EQ PUSH2 0x56B JUMPI DUP1 PUSH4 0xA18BAF7B EQ PUSH2 0x573 JUMPI DUP1 PUSH4 0xA22CB465 EQ PUSH2 0x590 JUMPI DUP1 PUSH4 0xB88D4FDE EQ PUSH2 0x5BE JUMPI PUSH2 0x205 JUMP JUMPDEST DUP1 PUSH4 0x70B82622 GT PUSH2 0xE9 JUMPI DUP1 PUSH4 0x70B82622 EQ PUSH2 0x500 JUMPI DUP1 PUSH4 0x76C05647 EQ PUSH2 0x51D JUMPI DUP1 PUSH4 0x92652035 EQ PUSH2 0x540 JUMPI DUP1 PUSH4 0x94985DDD EQ PUSH2 0x548 JUMPI PUSH2 0x205 JUMP JUMPDEST DUP1 PUSH4 0x5CC92DB3 EQ PUSH2 0x4AD JUMPI DUP1 PUSH4 0x6352211E EQ PUSH2 0x4B5 JUMPI DUP1 PUSH4 0x6C0360EB EQ PUSH2 0x4D2 JUMPI DUP1 PUSH4 0x70A08231 EQ PUSH2 0x4DA JUMPI PUSH2 0x205 JUMP JUMPDEST DUP1 PUSH4 0x23B872DD GT PUSH2 0x19D JUMPI DUP1 PUSH4 0x3AC0594A GT PUSH2 0x16C JUMPI DUP1 PUSH4 0x3AC0594A EQ PUSH2 0x418 JUMPI DUP1 PUSH4 0x42842E0E EQ PUSH2 0x435 JUMPI DUP1 PUSH4 0x4F6CCCE7 EQ PUSH2 0x46B JUMPI DUP1 PUSH4 0x4FBCD3C6 EQ PUSH2 0x488 JUMPI DUP1 PUSH4 0x5482AB28 EQ PUSH2 0x4A5 JUMPI PUSH2 0x205 JUMP JUMPDEST DUP1 PUSH4 0x23B872DD EQ PUSH2 0x370 JUMPI DUP1 PUSH4 0x25C61CE5 EQ PUSH2 0x3A6 JUMPI DUP1 PUSH4 0x27DD4258 EQ PUSH2 0x3CF JUMPI DUP1 PUSH4 0x2F745C59 EQ PUSH2 0x3EC JUMPI PUSH2 0x205 JUMP JUMPDEST DUP1 PUSH4 0x95EA7B3 GT PUSH2 0x1D9 JUMPI DUP1 PUSH4 0x95EA7B3 EQ PUSH2 0x32A JUMPI DUP1 PUSH4 0xAE50A39 EQ PUSH2 0x358 JUMPI DUP1 PUSH4 0x11F25685 EQ PUSH2 0x360 JUMPI DUP1 PUSH4 0x18160DDD EQ PUSH2 0x368 JUMPI PUSH2 0x205 JUMP JUMPDEST DUP1 PUSH3 0xFC964A EQ PUSH2 0x20A JUMPI DUP1 PUSH4 0x1FFC9A7 EQ PUSH2 0x239 JUMPI DUP1 PUSH4 0x6FDDE03 EQ PUSH2 0x274 JUMPI DUP1 PUSH4 0x81812FC EQ PUSH2 0x2F1 JUMPI JUMPDEST PUSH1 0x0 DUP1 REVERT JUMPDEST PUSH2 0x227 PUSH1 0x4 DUP1 CALLDATASIZE SUB PUSH1 0x20 DUP2 LT ISZERO PUSH2 0x220 JUMPI PUSH1 0x0 DUP1 REVERT JUMPDEST POP CALLDATALOAD PUSH2 0x711 JUMP JUMPDEST PUSH1 0x40 DUP1 MLOAD SWAP2 DUP3 MSTORE MLOAD SWAP1 DUP2 SWAP1 SUB PUSH1 0x20 ADD SWAP1 RETURN JUMPDEST PUSH2 0x260 PUSH1 0x4 DUP1 CALLDATASIZE SUB PUSH1 0x20 DUP2 LT ISZERO PUSH2 0x24F JUMPI PUSH1 0x0 DUP1 REVERT JUMPDEST POP CALLDATALOAD PUSH1 0x1 PUSH1 0x1 PUSH1 0xE0 SHL SUB NOT AND PUSH2 0x71B JUMP JUMPDEST PUSH1 0x40 DUP1 MLOAD SWAP2 ISZERO ISZERO DUP3 MSTORE MLOAD SWAP1 DUP2 SWAP1 SUB PUSH1 0x20 ADD SWAP1 RETURN JUMPDEST PUSH2 0x27C PUSH2 0x73A JUMP JUMPDEST PUSH1 0x40 DUP1 MLOAD PUSH1 0x20 DUP1 DUP3 MSTORE DUP4 MLOAD DUP2 DUP4 ADD MSTORE DUP4 MLOAD SWAP2 SWAP3 DUP4 SWAP3 SWAP1 DUP4 ADD SWAP2 DUP6 ADD SWAP1 DUP1 DUP4 DUP4 PUSH1 0x0 JUMPDEST DUP4 DUP2 LT ISZERO PUSH2 0x2B6 JUMPI DUP2 DUP2 ADD MLOAD DUP4 DUP3 ADD MSTORE PUSH1 0x20 ADD PUSH2 0x29E JUMP JUMPDEST POP POP POP POP SWAP1 POP SWAP1 DUP2 ADD SWAP1 PUSH1 0x1F AND DUP1 ISZERO PUSH2 0x2E3 JUMPI DUP1 DUP3 SUB DUP1 MLOAD PUSH1 0x1 DUP4 PUSH1 0x20 SUB PUSH2 0x100 EXP SUB NOT AND DUP2 MSTORE PUSH1 0x20 ADD SWAP2 POP JUMPDEST POP SWAP3 POP POP POP PUSH1 0x40 MLOAD DUP1 SWAP2 SUB SWAP1 RETURN JUMPDEST PUSH2 0x30E PUSH1 0x4 DUP1 CALLDATASIZE SUB PUSH1 0x20 DUP2 LT ISZERO PUSH2 0x307 JUMPI PUSH1 0x0 DUP1 REVERT JUMPDEST POP CALLDATALOAD PUSH2 0x7D0 JUMP JUMPDEST PUSH1 0x40 DUP1 MLOAD PUSH1 0x1 PUSH1 0x1 PUSH1 0xA0 SHL SUB SWAP1 SWAP3 AND DUP3 MSTORE MLOAD SWAP1 DUP2 SWAP1 SUB PUSH1 0x20 ADD SWAP1 RETURN JUMPDEST PUSH2 0x356 PUSH1 0x4 DUP1 CALLDATASIZE SUB PUSH1 0x40 DUP2 LT ISZERO PUSH2 0x340 JUMPI PUSH1 0x0 DUP1 REVERT JUMPDEST POP PUSH1 0x1 PUSH1 0x1 PUSH1 0xA0 SHL SUB DUP2 CALLDATALOAD AND SWAP1 PUSH1 0x20 ADD CALLDATALOAD PUSH2 0x832 JUMP JUMPDEST STOP JUMPDEST PUSH2 0x30E PUSH2 0x90D JUMP JUMPDEST PUSH2 0x227 PUSH2 0x91C JUMP JUMPDEST PUSH2 0x227 PUSH2 0x922 JUMP JUMPDEST PUSH2 0x356 PUSH1 0x4 DUP1 CALLDATASIZE SUB PUSH1 0x60 DUP2 LT ISZERO PUSH2 0x386 JUMPI PUSH1 0x0 DUP1 REVERT JUMPDEST POP PUSH1 0x1 PUSH1 0x1 PUSH1 0xA0 SHL SUB DUP2 CALLDATALOAD DUP2 AND SWAP2 PUSH1 0x20 DUP2 ADD CALLDATALOAD SWAP1 SWAP2 AND SWAP1 PUSH1 0x40 ADD CALLDATALOAD PUSH2 0x933 JUMP JUMPDEST PUSH2 0x356 PUSH1 0x4 DUP1 CALLDATASIZE SUB PUSH1 0x60 DUP2 LT ISZERO PUSH2 0x3BC JUMPI PUSH1 0x0 DUP1 REVERT JUMPDEST POP DUP1 CALLDATALOAD SWAP1 PUSH1 0x20 DUP2 ADD CALLDATALOAD SWAP1 PUSH1 0x40 ADD CALLDATALOAD PUSH2 0x98A JUMP JUMPDEST PUSH2 0x356 PUSH1 0x4 DUP1 CALLDATASIZE SUB PUSH1 0x20 DUP2 LT ISZERO PUSH2 0x3E5 JUMPI PUSH1 0x0 DUP1 REVERT JUMPDEST POP CALLDATALOAD PUSH2 0xEB2 JUMP JUMPDEST PUSH2 0x227 PUSH1 0x4 DUP1 CALLDATASIZE SUB PUSH1 0x40 DUP2 LT ISZERO PUSH2 0x402 JUMPI PUSH1 0x0 DUP1 REVERT JUMPDEST POP PUSH1 0x1 PUSH1 0x1 PUSH1 0xA0 SHL SUB DUP2 CALLDATALOAD AND SWAP1 PUSH1 0x20 ADD CALLDATALOAD PUSH2 0xF07 JUMP JUMPDEST PUSH2 0x227 PUSH1 0x4 DUP1 CALLDATASIZE SUB PUSH1 0x20 DUP2 LT ISZERO PUSH2 0x42E JUMPI PUSH1 0x0 DUP1 REVERT JUMPDEST POP CALLDATALOAD PUSH2 0xF32 JUMP JUMPDEST PUSH2 0x356 PUSH1 0x4 DUP1 CALLDATASIZE SUB PUSH1 0x60 DUP2 LT ISZERO PUSH2 0x44B JUMPI PUSH1 0x0 DUP1 REVERT JUMPDEST POP PUSH1 0x1 PUSH1 0x1 PUSH1 0xA0 SHL SUB DUP2 CALLDATALOAD DUP2 AND SWAP2 PUSH1 0x20 DUP2 ADD CALLDATALOAD SWAP1 SWAP2 AND SWAP1 PUSH1 0x40 ADD CALLDATALOAD PUSH2 0xF44 JUMP JUMPDEST PUSH2 0x227 PUSH1 0x4 DUP1 CALLDATASIZE SUB PUSH1 0x20 DUP2 LT ISZERO PUSH2 0x481 JUMPI PUSH1 0x0 DUP1 REVERT JUMPDEST POP CALLDATALOAD PUSH2 0xF5F JUMP JUMPDEST PUSH2 0x356 PUSH1 0x4 DUP1 CALLDATASIZE SUB PUSH1 0x20 DUP2 LT ISZERO PUSH2 0x49E JUMPI PUSH1 0x0 DUP1 REVERT JUMPDEST POP CALLDATALOAD PUSH2 0xF75 JUMP JUMPDEST PUSH2 0x227 PUSH2 0xFCA JUMP JUMPDEST PUSH2 0x227 PUSH2 0xFD0 JUMP JUMPDEST PUSH2 0x30E PUSH1 0x4 DUP1 CALLDATASIZE SUB PUSH1 0x20 DUP2 LT ISZERO PUSH2 0x4CB JUMPI PUSH1 0x0 DUP1 REVERT JUMPDEST POP CALLDATALOAD PUSH2 0xFD6 JUMP JUMPDEST PUSH2 0x27C PUSH2 0xFFE JUMP JUMPDEST PUSH2 0x227 PUSH1 0x4 DUP1 CALLDATASIZE SUB PUSH1 0x20 DUP2 LT ISZERO PUSH2 0x4F0 JUMPI PUSH1 0x0 DUP1 REVERT JUMPDEST POP CALLDATALOAD PUSH1 0x1 PUSH1 0x1 PUSH1 0xA0 SHL SUB AND PUSH2 0x105F JUMP JUMPDEST PUSH2 0x356 PUSH1 0x4 DUP1 CALLDATASIZE SUB PUSH1 0x20 DUP2 LT ISZERO PUSH2 0x516 JUMPI PUSH1 0x0 DUP1 REVERT JUMPDEST POP CALLDATALOAD PUSH2 0x10C7 JUMP JUMPDEST PUSH2 0x356 PUSH1 0x4 DUP1 CALLDATASIZE SUB PUSH1 0x20 DUP2 LT ISZERO PUSH2 0x533 JUMPI PUSH1 0x0 DUP1 REVERT JUMPDEST POP CALLDATALOAD PUSH4 0xFFFFFFFF AND PUSH2 0x12B4 JUMP JUMPDEST PUSH2 0x227 PUSH2 0x1320 JUMP JUMPDEST PUSH2 0x356 PUSH1 0x4 DUP1 CALLDATASIZE SUB PUSH1 0x40 DUP2 LT ISZERO PUSH2 0x55E JUMPI PUSH1 0x0 DUP1 REVERT JUMPDEST POP DUP1 CALLDATALOAD SWAP1 PUSH1 0x20 ADD CALLDATALOAD PUSH2 0x132C JUMP JUMPDEST PUSH2 0x27C PUSH2 0x13B7 JUMP JUMPDEST PUSH2 0x356 PUSH1 0x4 DUP1 CALLDATASIZE SUB PUSH1 0x20 DUP2 LT ISZERO PUSH2 0x589 JUMPI PUSH1 0x0 DUP1 REVERT JUMPDEST POP CALLDATALOAD PUSH2 0x1418 JUMP JUMPDEST PUSH2 0x356 PUSH1 0x4 DUP1 CALLDATASIZE SUB PUSH1 0x40 DUP2 LT ISZERO PUSH2 0x5A6 JUMPI PUSH1 0x0 DUP1 REVERT JUMPDEST POP PUSH1 0x1 PUSH1 0x1 PUSH1 0xA0 SHL SUB DUP2 CALLDATALOAD AND SWAP1 PUSH1 0x20 ADD CALLDATALOAD ISZERO ISZERO PUSH2 0x146D JUMP JUMPDEST PUSH2 0x356 PUSH1 0x4 DUP1 CALLDATASIZE SUB PUSH1 0x80 DUP2 LT ISZERO PUSH2 0x5D4 JUMPI PUSH1 0x0 DUP1 REVERT JUMPDEST PUSH1 0x1 PUSH1 0x1 PUSH1 0xA0 SHL SUB DUP3 CALLDATALOAD DUP2 AND SWAP3 PUSH1 0x20 DUP2 ADD CALLDATALOAD SWAP1 SWAP2 AND SWAP2 PUSH1 0x40 DUP3 ADD CALLDATALOAD SWAP2 SWAP1 DUP2 ADD SWAP1 PUSH1 0x80 DUP2 ADD PUSH1 0x60 DUP3 ADD CALLDATALOAD PUSH5 0x100000000 DUP2 GT ISZERO PUSH2 0x60F JUMPI PUSH1 0x0 DUP1 REVERT JUMPDEST DUP3 ADD DUP4 PUSH1 0x20 DUP3 ADD GT ISZERO PUSH2 0x621 JUMPI PUSH1 0x0 DUP1 REVERT JUMPDEST DUP1 CALLDATALOAD SWAP1 PUSH1 0x20 ADD SWAP2 DUP5 PUSH1 0x1 DUP4 MUL DUP5 ADD GT PUSH5 0x100000000 DUP4 GT OR ISZERO PUSH2 0x643 JUMPI PUSH1 0x0 DUP1 REVERT JUMPDEST SWAP2 SWAP1 DUP1 DUP1 PUSH1 0x1F ADD PUSH1 0x20 DUP1 SWAP2 DIV MUL PUSH1 0x20 ADD PUSH1 0x40 MLOAD SWAP1 DUP2 ADD PUSH1 0x40 MSTORE DUP1 SWAP4 SWAP3 SWAP2 SWAP1 DUP2 DUP2 MSTORE PUSH1 0x20 ADD DUP4 DUP4 DUP1 DUP3 DUP5 CALLDATACOPY PUSH1 0x0 SWAP3 ADD SWAP2 SWAP1 SWAP2 MSTORE POP SWAP3 SWAP6 POP PUSH2 0x1572 SWAP5 POP POP POP POP POP JUMP JUMPDEST PUSH2 0x227 PUSH2 0x15D0 JUMP JUMPDEST PUSH2 0x27C PUSH1 0x4 DUP1 CALLDATASIZE SUB PUSH1 0x20 DUP2 LT ISZERO PUSH2 0x6A2 JUMPI PUSH1 0x0 DUP1 REVERT JUMPDEST POP CALLDATALOAD PUSH2 0x15D6 JUMP JUMPDEST PUSH2 0x227 PUSH1 0x4 DUP1 CALLDATASIZE SUB PUSH1 0x20 DUP2 LT ISZERO PUSH2 0x6BF JUMPI PUSH1 0x0 DUP1 REVERT JUMPDEST POP CALLDATALOAD PUSH2 0x1859 JUMP JUMPDEST PUSH2 0x260 PUSH1 0x4 DUP1 CALLDATASIZE SUB PUSH1 0x40 DUP2 LT ISZERO PUSH2 0x6DC JUMPI PUSH1 0x0 DUP1 REVERT JUMPDEST POP PUSH1 0x1 PUSH1 0x1 PUSH1 0xA0 SHL SUB DUP2 CALLDATALOAD DUP2 AND SWAP2 PUSH1 0x20 ADD CALLDATALOAD AND PUSH2 0x186A JUMP JUMPDEST PUSH2 0x356 PUSH1 0x4 DUP1 CALLDATASIZE SUB PUSH1 0x20 DUP2 LT ISZERO PUSH2 0x70A JUMPI PUSH1 0x0 DUP1 REVERT JUMPDEST POP CALLDATALOAD PUSH2 0x1898 JUMP JUMPDEST PUSH1 0x28 DUP2 MUL JUMPDEST SWAP2 SWAP1 POP JUMP JUMPDEST PUSH1 0x1 PUSH1 0x1 PUSH1 0xE0 SHL SUB NOT AND PUSH1 0x0 SWAP1 DUP2 MSTORE PUSH1 0x1 PUSH1 0x20 MSTORE PUSH1 0x40 SWAP1 KECCAK256 SLOAD PUSH1 0xFF AND SWAP1 JUMP JUMPDEST PUSH1 0x7 DUP1 SLOAD PUSH1 0x40 DUP1 MLOAD PUSH1 0x20 PUSH1 0x1F PUSH1 0x2 PUSH1 0x0 NOT PUSH2 0x100 PUSH1 0x1 DUP9 AND ISZERO MUL ADD SWAP1 SWAP6 AND SWAP5 SWAP1 SWAP5 DIV SWAP4 DUP5 ADD DUP2 SWAP1 DIV DUP2 MUL DUP3 ADD DUP2 ADD SWAP1 SWAP3 MSTORE DUP3 DUP2 MSTORE PUSH1 0x60 SWAP4 SWAP1 SWAP3 SWAP1 SWAP2 DUP4 ADD DUP3 DUP3 DUP1 ISZERO PUSH2 0x7C6 JUMPI DUP1 PUSH1 0x1F LT PUSH2 0x79B JUMPI PUSH2 0x100 DUP1 DUP4 SLOAD DIV MUL DUP4 MSTORE SWAP2 PUSH1 0x20 ADD SWAP2 PUSH2 0x7C6 JUMP JUMPDEST DUP3 ADD SWAP2 SWAP1 PUSH1 0x0 MSTORE PUSH1 0x20 PUSH1 0x0 KECCAK256 SWAP1 JUMPDEST DUP2 SLOAD DUP2 MSTORE SWAP1 PUSH1 0x1 ADD SWAP1 PUSH1 0x20 ADD DUP1 DUP4 GT PUSH2 0x7A9 JUMPI DUP3 SWAP1 SUB PUSH1 0x1F AND DUP3 ADD SWAP2 JUMPDEST POP POP POP POP POP SWAP1 POP SWAP1 JUMP JUMPDEST PUSH1 0x0 PUSH2 0x7DB DUP3 PUSH2 0x18ED JUMP JUMPDEST PUSH2 0x816 JUMPI PUSH1 0x40 MLOAD PUSH3 0x461BCD PUSH1 0xE5 SHL DUP2 MSTORE PUSH1 0x4 ADD DUP1 DUP1 PUSH1 0x20 ADD DUP3 DUP2 SUB DUP3 MSTORE PUSH1 0x2C DUP2 MSTORE PUSH1 0x20 ADD DUP1 PUSH2 0x2F95 PUSH1 0x2C SWAP2 CODECOPY PUSH1 0x40 ADD SWAP2 POP POP PUSH1 0x40 MLOAD DUP1 SWAP2 SUB SWAP1 REVERT JUMPDEST POP PUSH1 0x0 SWAP1 DUP2 MSTORE PUSH1 0x5 PUSH1 0x20 MSTORE PUSH1 0x40 SWAP1 KECCAK256 SLOAD PUSH1 0x1 PUSH1 0x1 PUSH1 0xA0 SHL SUB AND SWAP1 JUMP JUMPDEST PUSH1 0x0 PUSH2 0x83D DUP3 PUSH2 0xFD6 JUMP JUMPDEST SWAP1 POP DUP1 PUSH1 0x1 PUSH1 0x1 PUSH1 0xA0 SHL SUB AND DUP4 PUSH1 0x1 PUSH1 0x1 PUSH1 0xA0 SHL SUB AND EQ ISZERO PUSH2 0x890 JUMPI PUSH1 0x40 MLOAD PUSH3 0x461BCD PUSH1 0xE5 SHL DUP2 MSTORE PUSH1 0x4 ADD DUP1 DUP1 PUSH1 0x20 ADD DUP3 DUP2 SUB DUP3 MSTORE PUSH1 0x21 DUP2 MSTORE PUSH1 0x20 ADD DUP1 PUSH2 0x3019 PUSH1 0x21 SWAP2 CODECOPY PUSH1 0x40 ADD SWAP2 POP POP PUSH1 0x40 MLOAD DUP1 SWAP2 SUB SWAP1 REVERT JUMPDEST DUP1 PUSH1 0x1 PUSH1 0x1 PUSH1 0xA0 SHL SUB AND PUSH2 0x8A2 PUSH2 0x18FA JUMP JUMPDEST PUSH1 0x1 PUSH1 0x1 PUSH1 0xA0 SHL SUB AND EQ DUP1 PUSH2 0x8C3 JUMPI POP PUSH2 0x8C3 DUP2 PUSH2 0x8BE PUSH2 0x18FA JUMP JUMPDEST PUSH2 0x186A JUMP JUMPDEST PUSH2 0x8FE JUMPI PUSH1 0x40 MLOAD PUSH3 0x461BCD PUSH1 0xE5 SHL DUP2 MSTORE PUSH1 0x4 ADD DUP1 DUP1 PUSH1 0x20 ADD DUP3 DUP2 SUB DUP3 MSTORE PUSH1 0x38 DUP2 MSTORE PUSH1 0x20 ADD DUP1 PUSH2 0x2EE8 PUSH1 0x38 SWAP2 CODECOPY PUSH1 0x40 ADD SWAP2 POP POP PUSH1 0x40 MLOAD DUP1 SWAP2 SUB SWAP1 REVERT JUMPDEST PUSH2 0x908 DUP4 DUP4 PUSH2 0x18FE JUMP JUMPDEST POP POP POP JUMP JUMPDEST PUSH1 0x0 SLOAD PUSH1 0x1 PUSH1 0x1 PUSH1 0xA0 SHL SUB AND SWAP1 JUMP JUMPDEST PUSH1 0x17 SLOAD SWAP1 JUMP JUMPDEST PUSH1 0x0 PUSH2 0x92E PUSH1 0x3 PUSH2 0x196C JUMP JUMPDEST SWAP1 POP SWAP1 JUMP JUMPDEST PUSH2 0x944 PUSH2 0x93E PUSH2 0x18FA JUMP JUMPDEST DUP3 PUSH2 0x1977 JUMP JUMPDEST PUSH2 0x97F JUMPI PUSH1 0x40 MLOAD PUSH3 0x461BCD PUSH1 0xE5 SHL DUP2 MSTORE PUSH1 0x4 ADD DUP1 DUP1 PUSH1 0x20 ADD DUP3 DUP2 SUB DUP3 MSTORE PUSH1 0x31 DUP2 MSTORE PUSH1 0x20 ADD DUP1 PUSH2 0x303A PUSH1 0x31 SWAP2 CODECOPY PUSH1 0x40 ADD SWAP2 POP POP PUSH1 0x40 MLOAD DUP1 SWAP2 SUB SWAP1 REVERT JUMPDEST PUSH2 0x908 DUP4 DUP4 DUP4 PUSH2 0x1A1B JUMP JUMPDEST DUP3 PUSH1 0x13 PUSH1 0x0 PUSH1 0x11 DUP4 DUP2 SLOAD DUP2 LT PUSH2 0x99C JUMPI INVALID JUMPDEST PUSH1 0x0 SWAP2 DUP3 MSTORE PUSH1 0x20 DUP1 DUP4 KECCAK256 PUSH1 0x7 SWAP3 SWAP1 SWAP3 MUL SWAP1 SWAP2 ADD PUSH1 0x5 ADD SLOAD DUP4 MSTORE DUP3 ADD SWAP3 SWAP1 SWAP3 MSTORE PUSH1 0x40 ADD SWAP1 KECCAK256 SLOAD PUSH1 0x1 PUSH1 0x1 PUSH1 0xA0 SHL SUB AND CALLER EQ PUSH2 0xA16 JUMPI PUSH1 0x40 DUP1 MLOAD PUSH3 0x461BCD PUSH1 0xE5 SHL DUP2 MSTORE PUSH1 0x20 PUSH1 0x4 DUP3 ADD MSTORE PUSH1 0x16 PUSH1 0x24 DUP3 ADD MSTORE PUSH22 0x2A9030B932B713BA103A34329037333A1027BBB732B9 PUSH1 0x51 SHL PUSH1 0x44 DUP3 ADD MSTORE SWAP1 MLOAD SWAP1 DUP2 SWAP1 SUB PUSH1 0x64 ADD SWAP1 REVERT JUMPDEST CALLER PUSH2 0xA20 DUP5 PUSH2 0x1859 JUMP JUMPDEST PUSH1 0xC SLOAD PUSH1 0x40 DUP1 MLOAD PUSH4 0x3DB1CDBF PUSH1 0xE2 SHL DUP2 MSTORE PUSH1 0x1 PUSH1 0x1 PUSH1 0xA0 SHL SUB DUP6 DUP2 AND PUSH1 0x4 DUP4 ADD MSTORE SWAP2 MLOAD DUP5 SWAP4 SWAP3 SWAP1 SWAP3 AND SWAP2 PUSH4 0xF6C736FC SWAP2 PUSH1 0x24 DUP1 DUP3 ADD SWAP3 PUSH1 0x20 SWAP3 SWAP1 SWAP2 SWAP1 DUP3 SWAP1 SUB ADD DUP2 DUP7 DUP1 EXTCODESIZE ISZERO DUP1 ISZERO PUSH2 0xA70 JUMPI PUSH1 0x0 DUP1 REVERT JUMPDEST POP GAS STATICCALL ISZERO DUP1 ISZERO PUSH2 0xA84 JUMPI RETURNDATASIZE PUSH1 0x0 DUP1 RETURNDATACOPY RETURNDATASIZE PUSH1 0x0 REVERT JUMPDEST POP POP POP POP PUSH1 0x40 MLOAD RETURNDATASIZE PUSH1 0x20 DUP2 LT ISZERO PUSH2 0xA9A JUMPI PUSH1 0x0 DUP1 REVERT JUMPDEST POP MLOAD LT ISZERO PUSH2 0xAE0 JUMPI PUSH1 0x40 DUP1 MLOAD PUSH3 0x461BCD PUSH1 0xE5 SHL DUP2 MSTORE PUSH1 0x20 PUSH1 0x4 DUP3 ADD MSTORE PUSH1 0xE PUSH1 0x24 DUP3 ADD MSTORE PUSH14 0x4E6F7420656E6F75676820554A47 PUSH1 0x90 SHL PUSH1 0x44 DUP3 ADD MSTORE SWAP1 MLOAD SWAP1 DUP2 SWAP1 SUB PUSH1 0x64 ADD SWAP1 REVERT JUMPDEST DUP6 TIMESTAMP PUSH1 0x11 DUP3 DUP2 SLOAD DUP2 LT PUSH2 0xAEF JUMPI INVALID JUMPDEST PUSH1 0x0 SWAP2 DUP3 MSTORE PUSH1 0x20 SWAP1 SWAP2 KECCAK256 PUSH1 0x4 PUSH1 0x7 SWAP1 SWAP3 MUL ADD ADD SLOAD PUSH4 0xFFFFFFFF AND GT ISZERO PUSH2 0xB54 JUMPI PUSH1 0x40 DUP1 MLOAD PUSH3 0x461BCD PUSH1 0xE5 SHL DUP2 MSTORE PUSH1 0x20 PUSH1 0x4 DUP3 ADD MSTORE PUSH1 0x15 PUSH1 0x24 DUP3 ADD MSTORE PUSH21 0x13195D081C995CDD081E5BDD5C8814DD1D59195B9D PUSH1 0x5A SHL PUSH1 0x44 DUP3 ADD MSTORE SWAP1 MLOAD SWAP1 DUP2 SWAP1 SUB PUSH1 0x64 ADD SWAP1 REVERT JUMPDEST DUP7 PUSH1 0x11 DUP2 DUP2 SLOAD DUP2 LT PUSH2 0xB62 JUMPI INVALID JUMPDEST PUSH1 0x0 SWAP2 DUP3 MSTORE PUSH1 0x20 SWAP1 SWAP2 KECCAK256 PUSH1 0x6 PUSH1 0x7 SWAP1 SWAP3 MUL ADD ADD SLOAD PUSH1 0xFF AND ISZERO PUSH2 0xBCB JUMPI PUSH1 0x40 DUP1 MLOAD PUSH3 0x461BCD PUSH1 0xE5 SHL DUP2 MSTORE PUSH1 0x20 PUSH1 0x4 DUP3 ADD MSTORE PUSH1 0x19 PUSH1 0x24 DUP3 ADD MSTORE PUSH32 0x5468652053747564656E742061726520696E206D61726B657400000000000000 PUSH1 0x44 DUP3 ADD MSTORE SWAP1 MLOAD SWAP1 DUP2 SWAP1 SUB PUSH1 0x64 ADD SWAP1 REVERT JUMPDEST PUSH1 0x1 DUP8 LT ISZERO DUP1 ISZERO PUSH2 0xBDD JUMPI POP PUSH1 0xA DUP8 GT ISZERO JUMPDEST PUSH2 0xC1E JUMPI PUSH1 0x40 DUP1 MLOAD PUSH3 0x461BCD PUSH1 0xE5 SHL DUP2 MSTORE PUSH1 0x20 PUSH1 0x4 DUP3 ADD MSTORE PUSH1 0xD PUSH1 0x24 DUP3 ADD MSTORE PUSH13 0x125B9D985B1A590813195D995B PUSH1 0x9A SHL PUSH1 0x44 DUP3 ADD MSTORE SWAP1 MLOAD SWAP1 DUP2 SWAP1 SUB PUSH1 0x64 ADD SWAP1 REVERT JUMPDEST PUSH2 0xC26 PUSH2 0x2D14 JUMP JUMPDEST PUSH1 0x11 DUP10 DUP2 SLOAD DUP2 LT PUSH2 0xC33 JUMPI INVALID JUMPDEST SWAP1 PUSH1 0x0 MSTORE PUSH1 0x20 PUSH1 0x0 KECCAK256 SWAP1 PUSH1 0x7 MUL ADD PUSH1 0x40 MLOAD DUP1 PUSH1 0xE0 ADD PUSH1 0x40 MSTORE SWAP1 DUP2 PUSH1 0x0 DUP3 ADD SLOAD DUP2 MSTORE PUSH1 0x20 ADD PUSH1 0x1 DUP3 ADD SLOAD DUP2 MSTORE PUSH1 0x20 ADD PUSH1 0x2 DUP3 ADD SLOAD DUP2 MSTORE PUSH1 0x20 ADD PUSH1 0x3 DUP3 ADD DUP1 SLOAD PUSH1 0x1 DUP2 PUSH1 0x1 AND ISZERO PUSH2 0x100 MUL SUB AND PUSH1 0x2 SWAP1 DIV DUP1 PUSH1 0x1F ADD PUSH1 0x20 DUP1 SWAP2 DIV MUL PUSH1 0x20 ADD PUSH1 0x40 MLOAD SWAP1 DUP2 ADD PUSH1 0x40 MSTORE DUP1 SWAP3 SWAP2 SWAP1 DUP2 DUP2 MSTORE PUSH1 0x20 ADD DUP3 DUP1 SLOAD PUSH1 0x1 DUP2 PUSH1 0x1 AND ISZERO PUSH2 0x100 MUL SUB AND PUSH1 0x2 SWAP1 DIV DUP1 ISZERO PUSH2 0xD03 JUMPI DUP1 PUSH1 0x1F LT PUSH2 0xCD8 JUMPI PUSH2 0x100 DUP1 DUP4 SLOAD DIV MUL DUP4 MSTORE SWAP2 PUSH1 0x20 ADD SWAP2 PUSH2 0xD03 JUMP JUMPDEST DUP3 ADD SWAP2 SWAP1 PUSH1 0x0 MSTORE PUSH1 0x20 PUSH1 0x0 KECCAK256 SWAP1 JUMPDEST DUP2 SLOAD DUP2 MSTORE SWAP1 PUSH1 0x1 ADD SWAP1 PUSH1 0x20 ADD DUP1 DUP4 GT PUSH2 0xCE6 JUMPI DUP3 SWAP1 SUB PUSH1 0x1F AND DUP3 ADD SWAP2 JUMPDEST POP POP POP SWAP2 DUP4 MSTORE POP POP PUSH1 0x4 DUP3 ADD SLOAD PUSH4 0xFFFFFFFF AND PUSH1 0x20 DUP1 DUP4 ADD SWAP2 SWAP1 SWAP2 MSTORE PUSH1 0x5 DUP4 ADD SLOAD PUSH1 0x40 DUP4 ADD MSTORE PUSH1 0x6 SWAP1 SWAP3 ADD SLOAD PUSH1 0xFF AND ISZERO ISZERO PUSH1 0x60 SWAP1 SWAP2 ADD MSTORE DUP2 ADD MLOAD SWAP1 SWAP2 POP PUSH2 0xD49 JUMPI PUSH1 0x0 DUP1 REVERT JUMPDEST PUSH2 0xD52 DUP8 PUSH2 0x1B67 JUMP JUMPDEST POP PUSH1 0x0 PUSH2 0xD5E DUP10 PUSH2 0x711 JUMP JUMPDEST CALLER PUSH1 0x0 SWAP1 DUP2 MSTORE PUSH1 0x15 PUSH1 0x20 MSTORE PUSH1 0x40 DUP2 KECCAK256 SLOAD SWAP2 SWAP3 POP SWAP1 PUSH1 0x64 SWAP1 MOD PUSH1 0x1 ADD SWAP1 POP PUSH1 0x0 DUP4 PUSH1 0x20 ADD MLOAD DUP5 PUSH1 0x40 ADD MLOAD DUP4 ADD ADD SWAP1 POP PUSH2 0xD95 DUP13 PUSH2 0x1C8A JUMP JUMPDEST PUSH1 0x0 PUSH2 0xDA0 DUP13 PUSH2 0x1859 JUMP JUMPDEST SWAP1 POP PUSH2 0xDAC DUP2 CALLER PUSH2 0x1CD8 JUMP JUMPDEST DUP2 DUP5 GT PUSH2 0xE38 JUMPI PUSH1 0x2 PUSH1 0x14 DUP6 DIV MUL PUSH2 0xDC4 DUP15 DUP3 PUSH2 0x1D58 JUMP JUMPDEST PUSH1 0x0 PUSH2 0xDCF DUP15 PUSH2 0xF32 JUMP JUMPDEST SWAP1 POP PUSH2 0xDDB DUP2 CALLER PUSH2 0x1DDE JUMP JUMPDEST PUSH1 0x40 DUP1 MLOAD PUSH1 0x1 DUP2 MSTORE PUSH1 0x20 DUP2 ADD DUP7 SWAP1 MSTORE DUP1 DUP3 ADD DUP9 SWAP1 MSTORE PUSH1 0x60 DUP2 ADD DUP5 SWAP1 MSTORE PUSH1 0x80 DUP2 ADD DUP8 SWAP1 MSTORE PUSH1 0xA0 DUP2 ADD DUP4 SWAP1 MSTORE SWAP1 MLOAD PUSH32 0xC1C89F12581EF4543F5451C1F84FF0ED0BFB24E4A0AE8F507DD335E411D5D05F SWAP2 DUP2 SWAP1 SUB PUSH1 0xC0 ADD SWAP1 LOG1 POP POP PUSH2 0xEA3 JUMP JUMPDEST PUSH1 0x2 PUSH1 0xA DUP6 DIV MUL PUSH2 0xE49 DUP15 DUP3 PUSH2 0x1D58 JUMP JUMPDEST PUSH1 0x40 DUP1 MLOAD PUSH1 0x0 DUP1 DUP3 MSTORE PUSH1 0x20 DUP3 ADD DUP7 SWAP1 MSTORE DUP2 DUP4 ADD DUP9 SWAP1 MSTORE PUSH1 0x60 DUP3 ADD DUP5 SWAP1 MSTORE PUSH1 0x80 DUP3 ADD DUP8 SWAP1 MSTORE DUP5 SWAP1 SUB PUSH1 0xA0 DUP3 ADD MSTORE SWAP1 MLOAD PUSH32 0xC1C89F12581EF4543F5451C1F84FF0ED0BFB24E4A0AE8F507DD335E411D5D05F SWAP2 DUP2 SWAP1 SUB PUSH1 0xC0 ADD SWAP1 LOG1 POP JUMPDEST POP POP POP POP POP POP POP POP POP POP POP POP POP JUMP JUMPDEST CALLER DUP1 PUSH2 0xEBC PUSH2 0x90D JUMP JUMPDEST PUSH1 0x1 PUSH1 0x1 PUSH1 0xA0 SHL SUB AND EQ PUSH2 0xF01 JUMPI PUSH1 0x40 MLOAD PUSH3 0x461BCD PUSH1 0xE5 SHL DUP2 MSTORE PUSH1 0x4 ADD DUP1 DUP1 PUSH1 0x20 ADD DUP3 DUP2 SUB DUP3 MSTORE PUSH1 0x28 DUP2 MSTORE PUSH1 0x20 ADD DUP1 PUSH2 0x2E70 PUSH1 0x28 SWAP2 CODECOPY PUSH1 0x40 ADD SWAP2 POP POP PUSH1 0x40 MLOAD DUP1 SWAP2 SUB SWAP1 REVERT JUMPDEST POP PUSH1 0x16 SSTORE JUMP JUMPDEST PUSH1 0x1 PUSH1 0x1 PUSH1 0xA0 SHL SUB DUP3 AND PUSH1 0x0 SWAP1 DUP2 MSTORE PUSH1 0x2 PUSH1 0x20 MSTORE PUSH1 0x40 DUP2 KECCAK256 PUSH2 0xF29 SWAP1 DUP4 PUSH2 0x1E5F JUMP JUMPDEST SWAP1 POP JUMPDEST SWAP3 SWAP2 POP POP JUMP JUMPDEST PUSH1 0x19 SLOAD MUL PUSH9 0x1158E460913D00000 MUL SWAP1 JUMP JUMPDEST PUSH2 0x908 DUP4 DUP4 DUP4 PUSH1 0x40 MLOAD DUP1 PUSH1 0x20 ADD PUSH1 0x40 MSTORE DUP1 PUSH1 0x0 DUP2 MSTORE POP PUSH2 0x1572 JUMP JUMPDEST PUSH1 0x0 DUP1 PUSH2 0xF6D PUSH1 0x3 DUP5 PUSH2 0x1E6B JUMP JUMPDEST POP SWAP4 SWAP3 POP POP POP JUMP JUMPDEST CALLER DUP1 PUSH2 0xF7F PUSH2 0x90D JUMP JUMPDEST PUSH1 0x1 PUSH1 0x1 PUSH1 0xA0 SHL SUB AND EQ PUSH2 0xFC4 JUMPI PUSH1 0x40 MLOAD PUSH3 0x461BCD PUSH1 0xE5 SHL DUP2 MSTORE PUSH1 0x4 ADD DUP1 DUP1 PUSH1 0x20 ADD DUP3 DUP2 SUB DUP3 MSTORE PUSH1 0x28 DUP2 MSTORE PUSH1 0x20 ADD DUP1 PUSH2 0x2E70 PUSH1 0x28 SWAP2 CODECOPY PUSH1 0x40 ADD SWAP2 POP POP PUSH1 0x40 MLOAD DUP1 SWAP2 SUB SWAP1 REVERT JUMPDEST POP PUSH1 0x17 SSTORE JUMP JUMPDEST PUSH1 0x18 SLOAD SWAP1 JUMP JUMPDEST PUSH1 0x16 SLOAD SWAP1 JUMP JUMPDEST PUSH1 0x0 PUSH2 0xF2C DUP3 PUSH1 0x40 MLOAD DUP1 PUSH1 0x60 ADD PUSH1 0x40 MSTORE DUP1 PUSH1 0x29 DUP2 MSTORE PUSH1 0x20 ADD PUSH2 0x2F4A PUSH1 0x29 SWAP2 CODECOPY PUSH1 0x3 SWAP2 SWAP1 PUSH2 0x1E87 JUMP JUMPDEST PUSH1 0xA DUP1 SLOAD PUSH1 0x40 DUP1 MLOAD PUSH1 0x20 PUSH1 0x1F PUSH1 0x2 PUSH1 0x0 NOT PUSH2 0x100 PUSH1 0x1 DUP9 AND ISZERO MUL ADD SWAP1 SWAP6 AND SWAP5 SWAP1 SWAP5 DIV SWAP4 DUP5 ADD DUP2 SWAP1 DIV DUP2 MUL DUP3 ADD DUP2 ADD SWAP1 SWAP3 MSTORE DUP3 DUP2 MSTORE PUSH1 0x60 SWAP4 SWAP1 SWAP3 SWAP1 SWAP2 DUP4 ADD DUP3 DUP3 DUP1 ISZERO PUSH2 0x7C6 JUMPI DUP1 PUSH1 0x1F LT PUSH2 0x79B JUMPI PUSH2 0x100 DUP1 DUP4 SLOAD DIV MUL DUP4 MSTORE SWAP2 PUSH1 0x20 ADD SWAP2 PUSH2 0x7C6 JUMP JUMPDEST PUSH1 0x0 PUSH1 0x1 PUSH1 0x1 PUSH1 0xA0 SHL SUB DUP3 AND PUSH2 0x10A6 JUMPI PUSH1 0x40 MLOAD PUSH3 0x461BCD PUSH1 0xE5 SHL DUP2 MSTORE PUSH1 0x4 ADD DUP1 DUP1 PUSH1 0x20 ADD DUP3 DUP2 SUB DUP3 MSTORE PUSH1 0x2A DUP2 MSTORE PUSH1 0x20 ADD DUP1 PUSH2 0x2F20 PUSH1 0x2A SWAP2 CODECOPY PUSH1 0x40 ADD SWAP2 POP POP PUSH1 0x40 MLOAD DUP1 SWAP2 SUB SWAP1 REVERT JUMPDEST PUSH1 0x1 PUSH1 0x1 PUSH1 0xA0 SHL SUB DUP3 AND PUSH1 0x0 SWAP1 DUP2 MSTORE PUSH1 0x2 PUSH1 0x20 MSTORE PUSH1 0x40 SWAP1 KECCAK256 PUSH2 0xF2C SWAP1 PUSH2 0x196C JUMP JUMPDEST PUSH1 0x16 SLOAD PUSH1 0xC SLOAD PUSH1 0x40 DUP1 MLOAD PUSH4 0x3DB1CDBF PUSH1 0xE2 SHL DUP2 MSTORE CALLER PUSH1 0x4 DUP3 ADD DUP2 SWAP1 MSTORE SWAP2 MLOAD SWAP2 SWAP4 SWAP3 DUP4 SWAP3 PUSH1 0x1 PUSH1 0x1 PUSH1 0xA0 SHL SUB SWAP1 SWAP2 AND SWAP2 PUSH4 0xF6C736FC SWAP2 PUSH1 0x24 DUP1 DUP4 ADD SWAP3 PUSH1 0x20 SWAP3 SWAP2 SWAP1 DUP3 SWAP1 SUB ADD DUP2 DUP7 DUP1 EXTCODESIZE ISZERO DUP1 ISZERO PUSH2 0x111B JUMPI PUSH1 0x0 DUP1 REVERT JUMPDEST POP GAS STATICCALL ISZERO DUP1 ISZERO PUSH2 0x112F JUMPI RETURNDATASIZE PUSH1 0x0 DUP1 RETURNDATACOPY RETURNDATASIZE PUSH1 0x0 REVERT JUMPDEST POP POP POP POP PUSH1 0x40 MLOAD RETURNDATASIZE PUSH1 0x20 DUP2 LT ISZERO PUSH2 0x1145 JUMPI PUSH1 0x0 DUP1 REVERT JUMPDEST POP MLOAD LT ISZERO PUSH2 0x118B JUMPI PUSH1 0x40 DUP1 MLOAD PUSH3 0x461BCD PUSH1 0xE5 SHL DUP2 MSTORE PUSH1 0x20 PUSH1 0x4 DUP3 ADD MSTORE PUSH1 0xE PUSH1 0x24 DUP3 ADD MSTORE PUSH14 0x4E6F7420656E6F75676820554A47 PUSH1 0x90 SHL PUSH1 0x44 DUP3 ADD MSTORE SWAP1 MLOAD SWAP1 DUP2 SWAP1 SUB PUSH1 0x64 ADD SWAP1 REVERT JUMPDEST PUSH2 0x1197 PUSH1 0x16 SLOAD CALLER PUSH2 0x1CD8 JUMP JUMPDEST PUSH1 0xF SLOAD PUSH2 0x11A2 PUSH2 0x2D14 JUMP JUMPDEST PUSH2 0x11AC DUP3 DUP7 PUSH2 0x1E9E JUMP JUMPDEST CALLER PUSH1 0x0 DUP2 DUP2 MSTORE PUSH1 0x12 PUSH1 0x20 SWAP1 DUP2 MSTORE PUSH1 0x40 DUP1 DUP4 KECCAK256 DUP1 SLOAD PUSH1 0x1 ADD SWAP1 SSTORE DUP7 DUP4 MSTORE PUSH1 0x13 SWAP1 SWAP2 MSTORE SWAP1 KECCAK256 DUP1 SLOAD PUSH1 0x1 PUSH1 0x1 PUSH1 0xA0 SHL SUB NOT AND DUP3 OR SWAP1 SSTORE SWAP1 SWAP2 POP PUSH2 0x11EC SWAP1 DUP4 PUSH2 0x210D JUMP JUMPDEST PUSH32 0x319EC0C4F5923A08E9D5FB646DDF9C5EE3D502E7A45118F7EA3BA28312BB55D7 DUP2 PUSH1 0x60 ADD MLOAD DUP3 PUSH1 0x0 ADD MLOAD DUP4 PUSH1 0x20 ADD MLOAD DUP5 PUSH1 0x40 ADD MLOAD PUSH1 0x40 MLOAD DUP1 DUP1 PUSH1 0x20 ADD DUP6 DUP2 MSTORE PUSH1 0x20 ADD DUP5 DUP2 MSTORE PUSH1 0x20 ADD DUP4 DUP2 MSTORE PUSH1 0x20 ADD DUP3 DUP2 SUB DUP3 MSTORE DUP7 DUP2 DUP2 MLOAD DUP2 MSTORE PUSH1 0x20 ADD SWAP2 POP DUP1 MLOAD SWAP1 PUSH1 0x20 ADD SWAP1 DUP1 DUP4 DUP4 PUSH1 0x0 JUMPDEST DUP4 DUP2 LT ISZERO PUSH2 0x1270 JUMPI DUP2 DUP2 ADD MLOAD DUP4 DUP3 ADD MSTORE PUSH1 0x20 ADD PUSH2 0x1258 JUMP JUMPDEST POP POP POP POP SWAP1 POP SWAP1 DUP2 ADD SWAP1 PUSH1 0x1F AND DUP1 ISZERO PUSH2 0x129D JUMPI DUP1 DUP3 SUB DUP1 MLOAD PUSH1 0x1 DUP4 PUSH1 0x20 SUB PUSH2 0x100 EXP SUB NOT AND DUP2 MSTORE PUSH1 0x20 ADD SWAP2 POP JUMPDEST POP SWAP6 POP POP POP POP POP POP PUSH1 0x40 MLOAD DUP1 SWAP2 SUB SWAP1 LOG1 POP POP POP POP POP JUMP JUMPDEST CALLER DUP1 PUSH2 0x12BE PUSH2 0x90D JUMP JUMPDEST PUSH1 0x1 PUSH1 0x1 PUSH1 0xA0 SHL SUB AND EQ PUSH2 0x1303 JUMPI PUSH1 0x40 MLOAD PUSH3 0x461BCD PUSH1 0xE5 SHL DUP2 MSTORE PUSH1 0x4 ADD DUP1 DUP1 PUSH1 0x20 ADD DUP3 DUP2 SUB DUP3 MSTORE PUSH1 0x28 DUP2 MSTORE PUSH1 0x20 ADD DUP1 PUSH2 0x2E70 PUSH1 0x28 SWAP2 CODECOPY PUSH1 0x40 ADD SWAP2 POP POP PUSH1 0x40 MLOAD DUP1 SWAP2 SUB SWAP1 REVERT JUMPDEST POP PUSH1 0xE DUP1 SLOAD PUSH4 0xFFFFFFFF NOT AND PUSH4 0xFFFFFFFF SWAP3 SWAP1 SWAP3 AND SWAP2 SWAP1 SWAP2 OR SWAP1 SSTORE JUMP JUMPDEST PUSH1 0xE SLOAD PUSH4 0xFFFFFFFF AND SWAP1 JUMP JUMPDEST CALLER PUSH1 0x1 PUSH1 0x1 PUSH1 0xA0 SHL SUB PUSH32 0x0 AND EQ PUSH2 0x13A9 JUMPI PUSH1 0x40 DUP1 MLOAD PUSH3 0x461BCD PUSH1 0xE5 SHL DUP2 MSTORE PUSH1 0x20 PUSH1 0x4 DUP3 ADD MSTORE PUSH1 0x1F PUSH1 0x24 DUP3 ADD MSTORE PUSH32 0x4F6E6C7920565246436F6F7264696E61746F722063616E2066756C66696C6C00 PUSH1 0x44 DUP3 ADD MSTORE SWAP1 MLOAD SWAP1 DUP2 SWAP1 SUB PUSH1 0x64 ADD SWAP1 REVERT JUMPDEST PUSH2 0x13B3 DUP3 DUP3 PUSH2 0x2127 JUMP JUMPDEST POP POP JUMP JUMPDEST PUSH1 0x8 DUP1 SLOAD PUSH1 0x40 DUP1 MLOAD PUSH1 0x20 PUSH1 0x1F PUSH1 0x2 PUSH1 0x0 NOT PUSH2 0x100 PUSH1 0x1 DUP9 AND ISZERO MUL ADD SWAP1 SWAP6 AND SWAP5 SWAP1 SWAP5 DIV SWAP4 DUP5 ADD DUP2 SWAP1 DIV DUP2 MUL DUP3 ADD DUP2 ADD SWAP1 SWAP3 MSTORE DUP3 DUP2 MSTORE PUSH1 0x60 SWAP4 SWAP1 SWAP3 SWAP1 SWAP2 DUP4 ADD DUP3 DUP3 DUP1 ISZERO PUSH2 0x7C6 JUMPI DUP1 PUSH1 0x1F LT PUSH2 0x79B JUMPI PUSH2 0x100 DUP1 DUP4 SLOAD DIV MUL DUP4 MSTORE SWAP2 PUSH1 0x20 ADD SWAP2 PUSH2 0x7C6 JUMP JUMPDEST CALLER DUP1 PUSH2 0x1422 PUSH2 0x90D JUMP JUMPDEST PUSH1 0x1 PUSH1 0x1 PUSH1 0xA0 SHL SUB AND EQ PUSH2 0x1467 JUMPI PUSH1 0x40 MLOAD PUSH3 0x461BCD PUSH1 0xE5 SHL DUP2 MSTORE PUSH1 0x4 ADD DUP1 DUP1 PUSH1 0x20 ADD DUP3 DUP2 SUB DUP3 MSTORE PUSH1 0x28 DUP2 MSTORE PUSH1 0x20 ADD DUP1 PUSH2 0x2E70 PUSH1 0x28 SWAP2 CODECOPY PUSH1 0x40 ADD SWAP2 POP POP PUSH1 0x40 MLOAD DUP1 SWAP2 SUB SWAP1 REVERT JUMPDEST POP PUSH1 0x19 SSTORE JUMP JUMPDEST PUSH2 0x1475 PUSH2 0x18FA JUMP JUMPDEST PUSH1 0x1 PUSH1 0x1 PUSH1 0xA0 SHL SUB AND DUP3 PUSH1 0x1 PUSH1 0x1 PUSH1 0xA0 SHL SUB AND EQ ISZERO PUSH2 0x14DB JUMPI PUSH1 0x40 DUP1 MLOAD PUSH3 0x461BCD PUSH1 0xE5 SHL DUP2 MSTORE PUSH1 0x20 PUSH1 0x4 DUP3 ADD MSTORE PUSH1 0x19 PUSH1 0x24 DUP3 ADD MSTORE PUSH32 0x4552433732313A20617070726F766520746F2063616C6C657200000000000000 PUSH1 0x44 DUP3 ADD MSTORE SWAP1 MLOAD SWAP1 DUP2 SWAP1 SUB PUSH1 0x64 ADD SWAP1 REVERT JUMPDEST DUP1 PUSH1 0x6 PUSH1 0x0 PUSH2 0x14E8 PUSH2 0x18FA JUMP JUMPDEST PUSH1 0x1 PUSH1 0x1 PUSH1 0xA0 SHL SUB SWAP1 DUP2 AND DUP3 MSTORE PUSH1 0x20 DUP1 DUP4 ADD SWAP4 SWAP1 SWAP4 MSTORE PUSH1 0x40 SWAP2 DUP3 ADD PUSH1 0x0 SWAP1 DUP2 KECCAK256 SWAP2 DUP8 AND DUP1 DUP3 MSTORE SWAP2 SWAP1 SWAP4 MSTORE SWAP2 KECCAK256 DUP1 SLOAD PUSH1 0xFF NOT AND SWAP3 ISZERO ISZERO SWAP3 SWAP1 SWAP3 OR SWAP1 SWAP2 SSTORE PUSH2 0x152C PUSH2 0x18FA JUMP JUMPDEST PUSH1 0x1 PUSH1 0x1 PUSH1 0xA0 SHL SUB AND PUSH32 0x17307EAB39AB6107E8899845AD3D59BD9653F200F220920489CA2B5937696C31 DUP4 PUSH1 0x40 MLOAD DUP1 DUP3 ISZERO ISZERO DUP2 MSTORE PUSH1 0x20 ADD SWAP2 POP POP PUSH1 0x40 MLOAD DUP1 SWAP2 SUB SWAP1 LOG3 POP POP JUMP JUMPDEST PUSH2 0x1583 PUSH2 0x157D PUSH2 0x18FA JUMP JUMPDEST DUP4 PUSH2 0x1977 JUMP JUMPDEST PUSH2 0x15BE JUMPI PUSH1 0x40 MLOAD PUSH3 0x461BCD PUSH1 0xE5 SHL DUP2 MSTORE PUSH1 0x4 ADD DUP1 DUP1 PUSH1 0x20 ADD DUP3 DUP2 SUB DUP3 MSTORE PUSH1 0x31 DUP2 MSTORE PUSH1 0x20 ADD DUP1 PUSH2 0x303A PUSH1 0x31 SWAP2 CODECOPY PUSH1 0x40 ADD SWAP2 POP POP PUSH1 0x40 MLOAD DUP1 SWAP2 SUB SWAP1 REVERT JUMPDEST PUSH2 0x15CA DUP5 DUP5 DUP5 DUP5 PUSH2 0x214F JUMP JUMPDEST POP POP POP POP JUMP JUMPDEST PUSH1 0x19 SLOAD SWAP1 JUMP JUMPDEST PUSH1 0x60 PUSH2 0x15E1 DUP3 PUSH2 0x18ED JUMP JUMPDEST PUSH2 0x161C JUMPI PUSH1 0x40 MLOAD PUSH3 0x461BCD PUSH1 0xE5 SHL DUP2 MSTORE PUSH1 0x4 ADD DUP1 DUP1 PUSH1 0x20 ADD DUP3 DUP2 SUB DUP3 MSTORE PUSH1 0x2F DUP2 MSTORE PUSH1 0x20 ADD DUP1 PUSH2 0x2FEA PUSH1 0x2F SWAP2 CODECOPY PUSH1 0x40 ADD SWAP2 POP POP PUSH1 0x40 MLOAD DUP1 SWAP2 SUB SWAP1 REVERT JUMPDEST PUSH1 0x0 DUP3 DUP2 MSTORE PUSH1 0x9 PUSH1 0x20 SWAP1 DUP2 MSTORE PUSH1 0x40 SWAP2 DUP3 SWAP1 KECCAK256 DUP1 SLOAD DUP4 MLOAD PUSH1 0x1F PUSH1 0x2 PUSH1 0x0 NOT PUSH2 0x100 PUSH1 0x1 DUP7 AND ISZERO MUL ADD SWAP1 SWAP4 AND SWAP3 SWAP1 SWAP3 DIV SWAP2 DUP3 ADD DUP5 SWAP1 DIV DUP5 MUL DUP2 ADD DUP5 ADD SWAP1 SWAP5 MSTORE DUP1 DUP5 MSTORE PUSH1 0x60 SWAP4 SWAP3 DUP4 ADD DUP3 DUP3 DUP1 ISZERO PUSH2 0x16B1 JUMPI DUP1 PUSH1 0x1F LT PUSH2 0x1686 JUMPI PUSH2 0x100 DUP1 DUP4 SLOAD DIV MUL DUP4 MSTORE SWAP2 PUSH1 0x20 ADD SWAP2 PUSH2 0x16B1 JUMP JUMPDEST DUP3 ADD SWAP2 SWAP1 PUSH1 0x0 MSTORE PUSH1 0x20 PUSH1 0x0 KECCAK256 SWAP1 JUMPDEST DUP2 SLOAD DUP2 MSTORE SWAP1 PUSH1 0x1 ADD SWAP1 PUSH1 0x20 ADD DUP1 DUP4 GT PUSH2 0x1694 JUMPI DUP3 SWAP1 SUB PUSH1 0x1F AND DUP3 ADD SWAP2 JUMPDEST POP POP POP POP POP SWAP1 POP PUSH1 0x60 PUSH2 0x16C2 PUSH2 0xFFE JUMP JUMPDEST SWAP1 POP DUP1 MLOAD PUSH1 0x0 EQ ISZERO PUSH2 0x16D6 JUMPI POP SWAP1 POP PUSH2 0x716 JUMP JUMPDEST DUP2 MLOAD ISZERO PUSH2 0x1797 JUMPI DUP1 DUP3 PUSH1 0x40 MLOAD PUSH1 0x20 ADD DUP1 DUP4 DUP1 MLOAD SWAP1 PUSH1 0x20 ADD SWAP1 DUP1 DUP4 DUP4 JUMPDEST PUSH1 0x20 DUP4 LT PUSH2 0x1711 JUMPI DUP1 MLOAD DUP3 MSTORE PUSH1 0x1F NOT SWAP1 SWAP3 ADD SWAP2 PUSH1 0x20 SWAP2 DUP3 ADD SWAP2 ADD PUSH2 0x16F2 JUMP JUMPDEST MLOAD DUP2 MLOAD PUSH1 0x20 SWAP4 DUP5 SUB PUSH2 0x100 EXP PUSH1 0x0 NOT ADD DUP1 NOT SWAP1 SWAP3 AND SWAP2 AND OR SWAP1 MSTORE DUP6 MLOAD SWAP2 SWAP1 SWAP4 ADD SWAP3 DUP6 ADD SWAP2 POP DUP1 DUP4 DUP4 JUMPDEST PUSH1 0x20 DUP4 LT PUSH2 0x1759 JUMPI DUP1 MLOAD DUP3 MSTORE PUSH1 0x1F NOT SWAP1 SWAP3 ADD SWAP2 PUSH1 0x20 SWAP2 DUP3 ADD SWAP2 ADD PUSH2 0x173A JUMP JUMPDEST PUSH1 0x1 DUP4 PUSH1 0x20 SUB PUSH2 0x100 EXP SUB DUP1 NOT DUP3 MLOAD AND DUP2 DUP5 MLOAD AND DUP1 DUP3 OR DUP6 MSTORE POP POP POP POP POP POP SWAP1 POP ADD SWAP3 POP POP POP PUSH1 0x40 MLOAD PUSH1 0x20 DUP2 DUP4 SUB SUB DUP2 MSTORE SWAP1 PUSH1 0x40 MSTORE SWAP3 POP POP POP PUSH2 0x716 JUMP JUMPDEST DUP1 PUSH2 0x17A1 DUP6 PUSH2 0x21A1 JUMP JUMPDEST PUSH1 0x40 MLOAD PUSH1 0x20 ADD DUP1 DUP4 DUP1 MLOAD SWAP1 PUSH1 0x20 ADD SWAP1 DUP1 DUP4 DUP4 JUMPDEST PUSH1 0x20 DUP4 LT PUSH2 0x17D3 JUMPI DUP1 MLOAD DUP3 MSTORE PUSH1 0x1F NOT SWAP1 SWAP3 ADD SWAP2 PUSH1 0x20 SWAP2 DUP3 ADD SWAP2 ADD PUSH2 0x17B4 JUMP JUMPDEST MLOAD DUP2 MLOAD PUSH1 0x20 SWAP4 DUP5 SUB PUSH2 0x100 EXP PUSH1 0x0 NOT ADD DUP1 NOT SWAP1 SWAP3 AND SWAP2 AND OR SWAP1 MSTORE DUP6 MLOAD SWAP2 SWAP1 SWAP4 ADD SWAP3 DUP6 ADD SWAP2 POP DUP1 DUP4 DUP4 JUMPDEST PUSH1 0x20 DUP4 LT PUSH2 0x181B JUMPI DUP1 MLOAD DUP3 MSTORE PUSH1 0x1F NOT SWAP1 SWAP3 ADD SWAP2 PUSH1 0x20 SWAP2 DUP3 ADD SWAP2 ADD PUSH2 0x17FC JUMP JUMPDEST PUSH1 0x1 DUP4 PUSH1 0x20 SUB PUSH2 0x100 EXP SUB DUP1 NOT DUP3 MLOAD AND DUP2 DUP5 MLOAD AND DUP1 DUP3 OR DUP6 MSTORE POP POP POP POP POP POP SWAP1 POP ADD SWAP3 POP POP POP PUSH1 0x40 MLOAD PUSH1 0x20 DUP2 DUP4 SUB SUB DUP2 MSTORE SWAP1 PUSH1 0x40 MSTORE SWAP3 POP POP POP SWAP2 SWAP1 POP JUMP JUMPDEST PUSH1 0x18 SLOAD MUL PUSH8 0x8AC7230489E80000 MUL SWAP1 JUMP JUMPDEST PUSH1 0x1 PUSH1 0x1 PUSH1 0xA0 SHL SUB SWAP2 DUP3 AND PUSH1 0x0 SWAP1 DUP2 MSTORE PUSH1 0x6 PUSH1 0x20 SWAP1 DUP2 MSTORE PUSH1 0x40 DUP1 DUP4 KECCAK256 SWAP4 SWAP1 SWAP5 AND DUP3 MSTORE SWAP2 SWAP1 SWAP2 MSTORE KECCAK256 SLOAD PUSH1 0xFF AND SWAP1 JUMP JUMPDEST CALLER DUP1 PUSH2 0x18A2 PUSH2 0x90D JUMP JUMPDEST PUSH1 0x1 PUSH1 0x1 PUSH1 0xA0 SHL SUB AND EQ PUSH2 0x18E7 JUMPI PUSH1 0x40 MLOAD PUSH3 0x461BCD PUSH1 0xE5 SHL DUP2 MSTORE PUSH1 0x4 ADD DUP1 DUP1 PUSH1 0x20 ADD DUP3 DUP2 SUB DUP3 MSTORE PUSH1 0x28 DUP2 MSTORE PUSH1 0x20 ADD DUP1 PUSH2 0x2E70 PUSH1 0x28 SWAP2 CODECOPY PUSH1 0x40 ADD SWAP2 POP POP PUSH1 0x40 MLOAD DUP1 SWAP2 SUB SWAP1 REVERT JUMPDEST POP PUSH1 0x18 SSTORE JUMP JUMPDEST PUSH1 0x0 PUSH2 0xF2C PUSH1 0x3 DUP4 PUSH2 0x227C JUMP JUMPDEST CALLER SWAP1 JUMP JUMPDEST PUSH1 0x0 DUP2 DUP2 MSTORE PUSH1 0x5 PUSH1 0x20 MSTORE PUSH1 0x40 SWAP1 KECCAK256 DUP1 SLOAD PUSH1 0x1 PUSH1 0x1 PUSH1 0xA0 SHL SUB NOT AND PUSH1 0x1 PUSH1 0x1 PUSH1 0xA0 SHL SUB DUP5 AND SWAP1 DUP2 OR SWAP1 SWAP2 SSTORE DUP2 SWAP1 PUSH2 0x1933 DUP3 PUSH2 0xFD6 JUMP JUMPDEST PUSH1 0x1 PUSH1 0x1 PUSH1 0xA0 SHL SUB AND PUSH32 0x8C5BE1E5EBEC7D5BD14F71427D1E84F3DD0314C0F7B2291E5B200AC8C7C3B925 PUSH1 0x40 MLOAD PUSH1 0x40 MLOAD DUP1 SWAP2 SUB SWAP1 LOG4 POP POP JUMP JUMPDEST PUSH1 0x0 PUSH2 0xF2C DUP3 PUSH2 0x2288 JUMP JUMPDEST PUSH1 0x0 PUSH2 0x1982 DUP3 PUSH2 0x18ED JUMP JUMPDEST PUSH2 0x19BD JUMPI PUSH1 0x40 MLOAD PUSH3 0x461BCD PUSH1 0xE5 SHL DUP2 MSTORE PUSH1 0x4 ADD DUP1 DUP1 PUSH1 0x20 ADD DUP3 DUP2 SUB DUP3 MSTORE PUSH1 0x2C DUP2 MSTORE PUSH1 0x20 ADD DUP1 PUSH2 0x2EBC PUSH1 0x2C SWAP2 CODECOPY PUSH1 0x40 ADD SWAP2 POP POP PUSH1 0x40 MLOAD DUP1 SWAP2 SUB SWAP1 REVERT JUMPDEST PUSH1 0x0 PUSH2 0x19C8 DUP4 PUSH2 0xFD6 JUMP JUMPDEST SWAP1 POP DUP1 PUSH1 0x1 PUSH1 0x1 PUSH1 0xA0 SHL SUB AND DUP5 PUSH1 0x1 PUSH1 0x1 PUSH1 0xA0 SHL SUB AND EQ DUP1 PUSH2 0x1A03 JUMPI POP DUP4 PUSH1 0x1 PUSH1 0x1 PUSH1 0xA0 SHL SUB AND PUSH2 0x19F8 DUP5 PUSH2 0x7D0 JUMP JUMPDEST PUSH1 0x1 PUSH1 0x1 PUSH1 0xA0 SHL SUB AND EQ JUMPDEST DUP1 PUSH2 0x1A13 JUMPI POP PUSH2 0x1A13 DUP2 DUP6 PUSH2 0x186A JUMP JUMPDEST SWAP5 SWAP4 POP POP POP POP JUMP JUMPDEST DUP3 PUSH1 0x1 PUSH1 0x1 PUSH1 0xA0 SHL SUB AND PUSH2 0x1A2E DUP3 PUSH2 0xFD6 JUMP JUMPDEST PUSH1 0x1 PUSH1 0x1 PUSH1 0xA0 SHL SUB AND EQ PUSH2 0x1A73 JUMPI PUSH1 0x40 MLOAD PUSH3 0x461BCD PUSH1 0xE5 SHL DUP2 MSTORE PUSH1 0x4 ADD DUP1 DUP1 PUSH1 0x20 ADD DUP3 DUP2 SUB DUP3 MSTORE PUSH1 0x29 DUP2 MSTORE PUSH1 0x20 ADD DUP1 PUSH2 0x2FC1 PUSH1 0x29 SWAP2 CODECOPY PUSH1 0x40 ADD SWAP2 POP POP PUSH1 0x40 MLOAD DUP1 SWAP2 SUB SWAP1 REVERT JUMPDEST PUSH1 0x1 PUSH1 0x1 PUSH1 0xA0 SHL SUB DUP3 AND PUSH2 0x1AB8 JUMPI PUSH1 0x40 MLOAD PUSH3 0x461BCD PUSH1 0xE5 SHL DUP2 MSTORE PUSH1 0x4 ADD DUP1 DUP1 PUSH1 0x20 ADD DUP3 DUP2 SUB DUP3 MSTORE PUSH1 0x24 DUP2 MSTORE PUSH1 0x20 ADD DUP1 PUSH2 0x2E98 PUSH1 0x24 SWAP2 CODECOPY PUSH1 0x40 ADD SWAP2 POP POP PUSH1 0x40 MLOAD DUP1 SWAP2 SUB SWAP1 REVERT JUMPDEST PUSH2 0x1AC3 DUP4 DUP4 DUP4 PUSH2 0x908 JUMP JUMPDEST PUSH2 0x1ACE PUSH1 0x0 DUP3 PUSH2 0x18FE JUMP JUMPDEST PUSH1 0x1 PUSH1 0x1 PUSH1 0xA0 SHL SUB DUP4 AND PUSH1 0x0 SWAP1 DUP2 MSTORE PUSH1 0x2 PUSH1 0x20 MSTORE PUSH1 0x40 SWAP1 KECCAK256 PUSH2 0x1AF0 SWAP1 DUP3 PUSH2 0x228C JUMP JUMPDEST POP PUSH1 0x1 PUSH1 0x1 PUSH1 0xA0 SHL SUB DUP3 AND PUSH1 0x0 SWAP1 DUP2 MSTORE PUSH1 0x2 PUSH1 0x20 MSTORE PUSH1 0x40 SWAP1 KECCAK256 PUSH2 0x1B13 SWAP1 DUP3 PUSH2 0x2298 JUMP JUMPDEST POP PUSH2 0x1B20 PUSH1 0x3 DUP3 DUP5 PUSH2 0x22A4 JUMP JUMPDEST POP DUP1 DUP3 PUSH1 0x1 PUSH1 0x1 PUSH1 0xA0 SHL SUB AND DUP5 PUSH1 0x1 PUSH1 0x1 PUSH1 0xA0 SHL SUB AND PUSH32 0xDDF252AD1BE2C89B69C2B068FC378DAA952BA7F163C4A11628F55A4DF523B3EF PUSH1 0x40 MLOAD PUSH1 0x40 MLOAD DUP1 SWAP2 SUB SWAP1 LOG4 POP POP POP JUMP JUMPDEST PUSH1 0x0 PUSH1 0x1B SLOAD PUSH32 0x0 PUSH1 0x1 PUSH1 0x1 PUSH1 0xA0 SHL SUB AND PUSH4 0x70A08231 ADDRESS PUSH1 0x40 MLOAD DUP3 PUSH4 0xFFFFFFFF AND PUSH1 0xE0 SHL DUP2 MSTORE PUSH1 0x4 ADD DUP1 DUP3 PUSH1 0x1 PUSH1 0x1 PUSH1 0xA0 SHL SUB AND DUP2 MSTORE PUSH1 0x20 ADD SWAP2 POP POP PUSH1 0x20 PUSH1 0x40 MLOAD DUP1 DUP4 SUB DUP2 DUP7 DUP1 EXTCODESIZE ISZERO DUP1 ISZERO PUSH2 0x1BD9 JUMPI PUSH1 0x0 DUP1 REVERT JUMPDEST POP GAS STATICCALL ISZERO DUP1 ISZERO PUSH2 0x1BED JUMPI RETURNDATASIZE PUSH1 0x0 DUP1 RETURNDATACOPY RETURNDATASIZE PUSH1 0x0 REVERT JUMPDEST POP POP POP POP PUSH1 0x40 MLOAD RETURNDATASIZE PUSH1 0x20 DUP2 LT ISZERO PUSH2 0x1C03 JUMPI PUSH1 0x0 DUP1 REVERT JUMPDEST POP MLOAD LT ISZERO PUSH2 0x1C42 JUMPI PUSH1 0x40 MLOAD PUSH3 0x461BCD PUSH1 0xE5 SHL DUP2 MSTORE PUSH1 0x4 ADD DUP1 DUP1 PUSH1 0x20 ADD DUP3 DUP2 SUB DUP3 MSTORE PUSH1 0x2F DUP2 MSTORE PUSH1 0x20 ADD DUP1 PUSH2 0x2E41 PUSH1 0x2F SWAP2 CODECOPY PUSH1 0x40 ADD SWAP2 POP POP PUSH1 0x40 MLOAD DUP1 SWAP2 SUB SWAP1 REVERT JUMPDEST PUSH1 0x0 PUSH2 0x1C52 PUSH1 0x1A SLOAD PUSH1 0x1B SLOAD PUSH2 0x22BA JUMP JUMPDEST PUSH1 0x0 DUP2 DUP2 MSTORE PUSH1 0x14 PUSH1 0x20 SWAP1 DUP2 MSTORE PUSH1 0x40 DUP1 DUP4 KECCAK256 DUP1 SLOAD PUSH1 0x1 PUSH1 0x1 PUSH1 0xA0 SHL SUB NOT AND CALLER SWAP1 DUP2 OR SWAP1 SWAP2 SSTORE DUP4 MSTORE PUSH1 0x15 SWAP1 SWAP2 MSTORE SWAP1 KECCAK256 DUP5 SWAP1 SSTORE SWAP2 POP POP SWAP2 SWAP1 POP JUMP JUMPDEST PUSH1 0xE SLOAD PUSH1 0x11 DUP1 SLOAD PUSH4 0xFFFFFFFF SWAP1 SWAP3 AND TIMESTAMP ADD SWAP2 DUP4 SWAP1 DUP2 LT PUSH2 0x1CA6 JUMPI INVALID JUMPDEST SWAP1 PUSH1 0x0 MSTORE PUSH1 0x20 PUSH1 0x0 KECCAK256 SWAP1 PUSH1 0x7 MUL ADD PUSH1 0x4 ADD PUSH1 0x0 PUSH2 0x100 EXP DUP2 SLOAD DUP2 PUSH4 0xFFFFFFFF MUL NOT AND SWAP1 DUP4 PUSH4 0xFFFFFFFF AND MUL OR SWAP1 SSTORE POP POP JUMP JUMPDEST PUSH1 0xC SLOAD PUSH1 0x40 DUP1 MLOAD PUSH4 0x3844B707 PUSH1 0xE0 SHL DUP2 MSTORE PUSH1 0x1 PUSH1 0x1 PUSH1 0xA0 SHL SUB DUP5 DUP2 AND PUSH1 0x4 DUP4 ADD MSTORE ADDRESS PUSH1 0x24 DUP4 ADD MSTORE PUSH1 0x44 DUP3 ADD DUP7 SWAP1 MSTORE SWAP2 MLOAD SWAP2 SWAP1 SWAP3 AND SWAP2 PUSH4 0x3844B707 SWAP2 PUSH1 0x64 DUP1 DUP4 ADD SWAP3 PUSH1 0x0 SWAP3 SWAP2 SWAP1 DUP3 SWAP1 SUB ADD DUP2 DUP4 DUP8 DUP1 EXTCODESIZE ISZERO DUP1 ISZERO PUSH2 0x1D33 JUMPI PUSH1 0x0 DUP1 REVERT JUMPDEST POP GAS CALL ISZERO DUP1 ISZERO PUSH2 0x1D47 JUMPI RETURNDATASIZE PUSH1 0x0 DUP1 RETURNDATACOPY RETURNDATASIZE PUSH1 0x0 REVERT JUMPDEST POP POP PUSH1 0xD DUP1 SLOAD SWAP1 SWAP5 ADD SWAP1 SWAP4 SSTORE POP POP POP JUMP JUMPDEST PUSH1 0x17 SLOAD DUP2 MUL SWAP1 POP PUSH1 0x0 DUP2 PUSH1 0x11 DUP5 DUP2 SLOAD DUP2 LT PUSH2 0x1D6F JUMPI INVALID JUMPDEST SWAP1 PUSH1 0x0 MSTORE PUSH1 0x20 PUSH1 0x0 KECCAK256 SWAP1 PUSH1 0x7 MUL ADD PUSH1 0x1 ADD SLOAD SUB LT ISZERO PUSH2 0x1DB1 JUMPI PUSH1 0x0 PUSH1 0x11 DUP4 DUP2 SLOAD DUP2 LT PUSH2 0x1D97 JUMPI INVALID JUMPDEST SWAP1 PUSH1 0x0 MSTORE PUSH1 0x20 PUSH1 0x0 KECCAK256 SWAP1 PUSH1 0x7 MUL ADD PUSH1 0x1 ADD DUP2 SWAP1 SSTORE POP PUSH2 0x13B3 JUMP JUMPDEST DUP1 PUSH1 0x11 DUP4 DUP2 SLOAD DUP2 LT PUSH2 0x1DBF JUMPI INVALID JUMPDEST PUSH1 0x0 SWAP2 DUP3 MSTORE PUSH1 0x20 SWAP1 SWAP2 KECCAK256 PUSH1 0x1 PUSH1 0x7 SWAP1 SWAP3 MUL ADD ADD DUP1 SLOAD SWAP2 SWAP1 SWAP2 SUB SWAP1 SSTORE POP POP JUMP JUMPDEST PUSH1 0xC SLOAD PUSH1 0x40 DUP1 MLOAD PUSH4 0x3844B707 PUSH1 0xE0 SHL DUP2 MSTORE ADDRESS PUSH1 0x4 DUP3 ADD MSTORE PUSH1 0x1 PUSH1 0x1 PUSH1 0xA0 SHL SUB DUP5 DUP2 AND PUSH1 0x24 DUP4 ADD MSTORE PUSH1 0x44 DUP3 ADD DUP7 SWAP1 MSTORE SWAP2 MLOAD SWAP2 SWAP1 SWAP3 AND SWAP2 PUSH4 0x3844B707 SWAP2 PUSH1 0x64 DUP1 DUP4 ADD SWAP3 PUSH1 0x0 SWAP3 SWAP2 SWAP1 DUP3 SWAP1 SUB ADD DUP2 DUP4 DUP8 DUP1 EXTCODESIZE ISZERO DUP1 ISZERO PUSH2 0x1E39 JUMPI PUSH1 0x0 DUP1 REVERT JUMPDEST POP GAS CALL ISZERO DUP1 ISZERO PUSH2 0x1E4D JUMPI RETURNDATASIZE PUSH1 0x0 DUP1 RETURNDATACOPY RETURNDATASIZE PUSH1 0x0 REVERT JUMPDEST POP POP PUSH1 0xD DUP1 SLOAD SWAP5 SWAP1 SWAP5 SUB SWAP1 SWAP4 SSTORE POP POP POP JUMP JUMPDEST PUSH1 0x0 PUSH2 0xF29 DUP4 DUP4 PUSH2 0x2465 JUMP JUMPDEST PUSH1 0x0 DUP1 DUP1 DUP1 PUSH2 0x1E7A DUP7 DUP7 PUSH2 0x24C9 JUMP JUMPDEST SWAP1 SWAP8 SWAP1 SWAP7 POP SWAP5 POP POP POP POP POP JUMP JUMPDEST PUSH1 0x0 PUSH2 0x1E94 DUP5 DUP5 DUP5 PUSH2 0x2544 JUMP JUMPDEST SWAP1 POP JUMPDEST SWAP4 SWAP3 POP POP POP JUMP JUMPDEST PUSH2 0x1EA6 PUSH2 0x2D14 JUMP JUMPDEST PUSH2 0x1EAF DUP3 PUSH2 0x1B67 JUMP JUMPDEST POP CALLER PUSH1 0x0 SWAP1 DUP2 MSTORE PUSH1 0x15 PUSH1 0x20 MSTORE PUSH1 0x40 DUP2 KECCAK256 SLOAD SWAP1 PUSH1 0x1 PUSH1 0x3 DUP4 MOD DUP2 ADD SWAP2 SWAP1 DUP3 EQ ISZERO PUSH2 0x1EDF JUMPI POP PUSH1 0x1 PUSH1 0x64 DUP4 MOD ADD PUSH2 0x1EFE JUMP JUMPDEST DUP2 PUSH1 0x2 EQ ISZERO PUSH2 0x1EF5 JUMPI POP PUSH1 0x65 PUSH1 0x64 DUP4 MOD ADD PUSH2 0x1EFE JUMP JUMPDEST POP PUSH1 0xC9 PUSH1 0x64 DUP4 MOD ADD JUMPDEST PUSH1 0x1 PUSH1 0x64 PUSH1 0x2 DUP6 MUL MOD ADD PUSH1 0x60 PUSH1 0x10 PUSH1 0x19 DUP7 MOD DUP2 SLOAD DUP2 LT PUSH2 0x1F1A JUMPI INVALID JUMPDEST PUSH1 0x0 SWAP2 DUP3 MSTORE PUSH1 0x20 SWAP2 DUP3 SWAP1 KECCAK256 ADD DUP1 SLOAD PUSH1 0x40 DUP1 MLOAD PUSH1 0x1F PUSH1 0x2 PUSH1 0x0 NOT PUSH2 0x100 PUSH1 0x1 DUP8 AND ISZERO MUL ADD SWAP1 SWAP5 AND SWAP4 SWAP1 SWAP4 DIV SWAP3 DUP4 ADD DUP6 SWAP1 DIV DUP6 MUL DUP2 ADD DUP6 ADD SWAP1 SWAP2 MSTORE DUP2 DUP2 MSTORE SWAP3 DUP4 ADD DUP3 DUP3 DUP1 ISZERO PUSH2 0x1FA8 JUMPI DUP1 PUSH1 0x1F LT PUSH2 0x1F7D JUMPI PUSH2 0x100 DUP1 DUP4 SLOAD DIV MUL DUP4 MSTORE SWAP2 PUSH1 0x20 ADD SWAP2 PUSH2 0x1FA8 JUMP JUMPDEST DUP3 ADD SWAP2 SWAP1 PUSH1 0x0 MSTORE PUSH1 0x20 PUSH1 0x0 KECCAK256 SWAP1 JUMPDEST DUP2 SLOAD DUP2 MSTORE SWAP1 PUSH1 0x1 ADD SWAP1 PUSH1 0x20 ADD DUP1 DUP4 GT PUSH2 0x1F8B JUMPI DUP3 SWAP1 SUB PUSH1 0x1F AND DUP3 ADD SWAP2 JUMPDEST POP POP POP POP POP SWAP1 POP PUSH2 0x1FB7 PUSH2 0x2D14 JUMP JUMPDEST POP PUSH1 0x40 DUP1 MLOAD PUSH1 0xE0 DUP2 ADD DUP3 MSTORE DUP6 DUP2 MSTORE PUSH1 0x20 DUP1 DUP3 ADD DUP7 DUP2 MSTORE SWAP3 DUP3 ADD DUP6 DUP2 MSTORE PUSH1 0x60 DUP4 ADD DUP6 DUP2 MSTORE TIMESTAMP PUSH4 0xFFFFFFFF AND PUSH1 0x80 DUP6 ADD MSTORE PUSH1 0xA0 DUP5 ADD DUP14 SWAP1 MSTORE PUSH1 0x0 PUSH1 0xC0 DUP6 ADD DUP2 SWAP1 MSTORE PUSH1 0x11 DUP1 SLOAD PUSH1 0x1 DUP2 ADD DUP3 SSTORE SWAP2 MSTORE DUP5 MLOAD PUSH32 0x31ECC21A745E3968A04E9570E4425BC18FA8019C68028196B546D1669C200C68 PUSH1 0x7 SWAP1 SWAP3 MUL SWAP2 DUP3 ADD SWAP1 DUP2 SSTORE SWAP6 MLOAD PUSH32 0x31ECC21A745E3968A04E9570E4425BC18FA8019C68028196B546D1669C200C69 DUP3 ADD SSTORE SWAP2 MLOAD PUSH32 0x31ECC21A745E3968A04E9570E4425BC18FA8019C68028196B546D1669C200C6A DUP4 ADD SSTORE MLOAD DUP1 MLOAD SWAP4 SWAP5 DUP6 SWAP5 SWAP1 SWAP4 PUSH2 0x20B3 SWAP4 PUSH32 0x31ECC21A745E3968A04E9570E4425BC18FA8019C68028196B546D1669C200C6B ADD SWAP3 ADD SWAP1 PUSH2 0x2D59 JUMP JUMPDEST POP PUSH1 0x80 DUP3 ADD MLOAD PUSH1 0x4 DUP3 ADD DUP1 SLOAD PUSH4 0xFFFFFFFF NOT AND PUSH4 0xFFFFFFFF SWAP1 SWAP3 AND SWAP2 SWAP1 SWAP2 OR SWAP1 SSTORE PUSH1 0xA0 DUP3 ADD MLOAD PUSH1 0x5 DUP3 ADD SSTORE PUSH1 0xC0 SWAP1 SWAP2 ADD MLOAD PUSH1 0x6 SWAP1 SWAP2 ADD DUP1 SLOAD PUSH1 0xFF NOT AND SWAP2 ISZERO ISZERO SWAP2 SWAP1 SWAP2 OR SWAP1 SSTORE PUSH1 0xF DUP1 SLOAD PUSH1 0x1 ADD SWAP1 SSTORE SWAP9 SWAP8 POP POP POP POP POP POP POP POP JUMP JUMPDEST PUSH2 0x13B3 DUP3 DUP3 PUSH1 0x40 MLOAD DUP1 PUSH1 0x20 ADD PUSH1 0x40 MSTORE DUP1 PUSH1 0x0 DUP2 MSTORE POP PUSH2 0x260E JUMP JUMPDEST PUSH1 0x0 SWAP2 DUP3 MSTORE PUSH1 0x14 PUSH1 0x20 SWAP1 DUP2 MSTORE PUSH1 0x40 DUP1 DUP5 KECCAK256 SLOAD PUSH1 0x1 PUSH1 0x1 PUSH1 0xA0 SHL SUB AND DUP5 MSTORE PUSH1 0x15 SWAP1 SWAP2 MSTORE SWAP1 SWAP2 KECCAK256 SSTORE JUMP JUMPDEST PUSH2 0x215A DUP5 DUP5 DUP5 PUSH2 0x1A1B JUMP JUMPDEST PUSH2 0x2166 DUP5 DUP5 DUP5 DUP5 PUSH2 0x2660 JUMP JUMPDEST PUSH2 0x15CA JUMPI PUSH1 0x40 MLOAD PUSH3 0x461BCD PUSH1 0xE5 SHL DUP2 MSTORE PUSH1 0x4 ADD DUP1 DUP1 PUSH1 0x20 ADD DUP3 DUP2 SUB DUP3 MSTORE PUSH1 0x32 DUP2 MSTORE PUSH1 0x20 ADD DUP1 PUSH2 0x2E0F PUSH1 0x32 SWAP2 CODECOPY PUSH1 0x40 ADD SWAP2 POP POP PUSH1 0x40 MLOAD DUP1 SWAP2 SUB SWAP1 REVERT JUMPDEST PUSH1 0x60 DUP2 PUSH2 0x21C6 JUMPI POP PUSH1 0x40 DUP1 MLOAD DUP1 DUP3 ADD SWAP1 SWAP2 MSTORE PUSH1 0x1 DUP2 MSTORE PUSH1 0x3 PUSH1 0xFC SHL PUSH1 0x20 DUP3 ADD MSTORE PUSH2 0x716 JUMP JUMPDEST DUP2 PUSH1 0x0 JUMPDEST DUP2 ISZERO PUSH2 0x21DE JUMPI PUSH1 0x1 ADD PUSH1 0xA DUP3 DIV SWAP2 POP PUSH2 0x21CA JUMP JUMPDEST PUSH1 0x60 DUP2 PUSH8 0xFFFFFFFFFFFFFFFF DUP2 GT DUP1 ISZERO PUSH2 0x21F7 JUMPI PUSH1 0x0 DUP1 REVERT JUMPDEST POP PUSH1 0x40 MLOAD SWAP1 DUP1 DUP3 MSTORE DUP1 PUSH1 0x1F ADD PUSH1 0x1F NOT AND PUSH1 0x20 ADD DUP3 ADD PUSH1 0x40 MSTORE DUP1 ISZERO PUSH2 0x2222 JUMPI PUSH1 0x20 DUP3 ADD DUP2 DUP1 CALLDATASIZE DUP4 CALLDATACOPY ADD SWAP1 POP JUMPDEST POP DUP6 SWAP4 POP SWAP1 POP PUSH1 0x0 NOT DUP3 ADD JUMPDEST DUP4 ISZERO PUSH2 0x2273 JUMPI PUSH1 0xA DUP5 MOD PUSH1 0x30 ADD PUSH1 0xF8 SHL DUP3 DUP3 DUP1 PUSH1 0x1 SWAP1 SUB SWAP4 POP DUP2 MLOAD DUP2 LT PUSH2 0x2251 JUMPI INVALID JUMPDEST PUSH1 0x20 ADD ADD SWAP1 PUSH1 0x1 PUSH1 0x1 PUSH1 0xF8 SHL SUB NOT AND SWAP1 DUP2 PUSH1 0x0 BYTE SWAP1 MSTORE8 POP PUSH1 0xA DUP5 DIV SWAP4 POP PUSH2 0x222E JUMP JUMPDEST POP SWAP5 SWAP4 POP POP POP POP JUMP JUMPDEST PUSH1 0x0 PUSH2 0xF29 DUP4 DUP4 PUSH2 0x27C8 JUMP JUMPDEST SLOAD SWAP1 JUMP JUMPDEST PUSH1 0x0 PUSH2 0xF29 DUP4 DUP4 PUSH2 0x27E0 JUMP JUMPDEST PUSH1 0x0 PUSH2 0xF29 DUP4 DUP4 PUSH2 0x28A6 JUMP JUMPDEST PUSH1 0x0 PUSH2 0x1E94 DUP5 DUP5 PUSH1 0x1 PUSH1 0x1 PUSH1 0xA0 SHL SUB DUP6 AND PUSH2 0x28F0 JUMP JUMPDEST PUSH1 0x0 PUSH32 0x0 PUSH1 0x1 PUSH1 0x1 PUSH1 0xA0 SHL SUB AND PUSH4 0x4000AEA0 PUSH32 0x0 DUP5 DUP7 PUSH1 0x0 PUSH1 0x40 MLOAD PUSH1 0x20 ADD DUP1 DUP4 DUP2 MSTORE PUSH1 0x20 ADD DUP3 DUP2 MSTORE PUSH1 0x20 ADD SWAP3 POP POP POP PUSH1 0x40 MLOAD PUSH1 0x20 DUP2 DUP4 SUB SUB DUP2 MSTORE SWAP1 PUSH1 0x40 MSTORE PUSH1 0x40 MLOAD DUP5 PUSH4 0xFFFFFFFF AND PUSH1 0xE0 SHL DUP2 MSTORE PUSH1 0x4 ADD DUP1 DUP5 PUSH1 0x1 PUSH1 0x1 PUSH1 0xA0 SHL SUB AND DUP2 MSTORE PUSH1 0x20 ADD DUP4 DUP2 MSTORE PUSH1 0x20 ADD DUP1 PUSH1 0x20 ADD DUP3 DUP2 SUB DUP3 MSTORE DUP4 DUP2 DUP2 MLOAD DUP2 MSTORE PUSH1 0x20 ADD SWAP2 POP DUP1 MLOAD SWAP1 PUSH1 0x20 ADD SWAP1 DUP1 DUP4 DUP4 PUSH1 0x0 JUMPDEST DUP4 DUP2 LT ISZERO PUSH2 0x2397 JUMPI DUP2 DUP2 ADD MLOAD DUP4 DUP3 ADD MSTORE PUSH1 0x20 ADD PUSH2 0x237F JUMP JUMPDEST POP POP POP POP SWAP1 POP SWAP1 DUP2 ADD SWAP1 PUSH1 0x1F AND DUP1 ISZERO PUSH2 0x23C4 JUMPI DUP1 DUP3 SUB DUP1 MLOAD PUSH1 0x1 DUP4 PUSH1 0x20 SUB PUSH2 0x100 EXP SUB NOT AND DUP2 MSTORE PUSH1 0x20 ADD SWAP2 POP JUMPDEST POP SWAP5 POP POP POP POP POP PUSH1 0x20 PUSH1 0x40 MLOAD DUP1 DUP4 SUB DUP2 PUSH1 0x0 DUP8 DUP1 EXTCODESIZE ISZERO DUP1 ISZERO PUSH2 0x23E5 JUMPI PUSH1 0x0 DUP1 REVERT JUMPDEST POP GAS CALL ISZERO DUP1 ISZERO PUSH2 0x23F9 JUMPI RETURNDATASIZE PUSH1 0x0 DUP1 RETURNDATACOPY RETURNDATASIZE PUSH1 0x0 REVERT JUMPDEST POP POP POP POP PUSH1 0x40 MLOAD RETURNDATASIZE PUSH1 0x20 DUP2 LT ISZERO PUSH2 0x240F JUMPI PUSH1 0x0 DUP1 REVERT JUMPDEST POP POP PUSH1 0x0 DUP4 DUP2 MSTORE PUSH1 0xB PUSH1 0x20 MSTORE PUSH1 0x40 DUP2 KECCAK256 SLOAD PUSH2 0x242F SWAP1 DUP6 SWAP1 DUP4 SWAP1 ADDRESS SWAP1 PUSH2 0x2987 JUMP JUMPDEST PUSH1 0x0 DUP6 DUP2 MSTORE PUSH1 0xB PUSH1 0x20 MSTORE PUSH1 0x40 SWAP1 KECCAK256 SLOAD SWAP1 SWAP2 POP PUSH2 0x244C SWAP1 PUSH1 0x1 PUSH2 0x29CE JUMP JUMPDEST PUSH1 0x0 DUP6 DUP2 MSTORE PUSH1 0xB PUSH1 0x20 MSTORE PUSH1 0x40 SWAP1 KECCAK256 SSTORE PUSH2 0x1A13 DUP5 DUP3 PUSH2 0x2A28 JUMP JUMPDEST DUP2 SLOAD PUSH1 0x0 SWAP1 DUP3 LT PUSH2 0x24A7 JUMPI PUSH1 0x40 MLOAD PUSH3 0x461BCD PUSH1 0xE5 SHL DUP2 MSTORE PUSH1 0x4 ADD DUP1 DUP1 PUSH1 0x20 ADD DUP3 DUP2 SUB DUP3 MSTORE PUSH1 0x22 DUP2 MSTORE PUSH1 0x20 ADD DUP1 PUSH2 0x2DED PUSH1 0x22 SWAP2 CODECOPY PUSH1 0x40 ADD SWAP2 POP POP PUSH1 0x40 MLOAD DUP1 SWAP2 SUB SWAP1 REVERT JUMPDEST DUP3 PUSH1 0x0 ADD DUP3 DUP2 SLOAD DUP2 LT PUSH2 0x24B6 JUMPI INVALID JUMPDEST SWAP1 PUSH1 0x0 MSTORE PUSH1 0x20 PUSH1 0x0 KECCAK256 ADD SLOAD SWAP1 POP SWAP3 SWAP2 POP POP JUMP JUMPDEST DUP2 SLOAD PUSH1 0x0 SWAP1 DUP2 SWAP1 DUP4 LT PUSH2 0x250D JUMPI PUSH1 0x40 MLOAD PUSH3 0x461BCD PUSH1 0xE5 SHL DUP2 MSTORE PUSH1 0x4 ADD DUP1 DUP1 PUSH1 0x20 ADD DUP3 DUP2 SUB DUP3 MSTORE PUSH1 0x22 DUP2 MSTORE PUSH1 0x20 ADD DUP1 PUSH2 0x2F73 PUSH1 0x22 SWAP2 CODECOPY PUSH1 0x40 ADD SWAP2 POP POP PUSH1 0x40 MLOAD DUP1 SWAP2 SUB SWAP1 REVERT JUMPDEST PUSH1 0x0 DUP5 PUSH1 0x0 ADD DUP5 DUP2 SLOAD DUP2 LT PUSH2 0x251E JUMPI INVALID JUMPDEST SWAP1 PUSH1 0x0 MSTORE PUSH1 0x20 PUSH1 0x0 KECCAK256 SWAP1 PUSH1 0x2 MUL ADD SWAP1 POP DUP1 PUSH1 0x0 ADD SLOAD DUP2 PUSH1 0x1 ADD SLOAD SWAP3 POP SWAP3 POP POP SWAP3 POP SWAP3 SWAP1 POP JUMP JUMPDEST PUSH1 0x0 DUP3 DUP2 MSTORE PUSH1 0x1 DUP5 ADD PUSH1 0x20 MSTORE PUSH1 0x40 DUP2 KECCAK256 SLOAD DUP3 DUP2 PUSH2 0x25DF JUMPI PUSH1 0x40 MLOAD PUSH3 0x461BCD PUSH1 0xE5 SHL DUP2 MSTORE PUSH1 0x4 ADD DUP1 DUP1 PUSH1 0x20 ADD DUP3 DUP2 SUB DUP3 MSTORE DUP4 DUP2 DUP2 MLOAD DUP2 MSTORE PUSH1 0x20 ADD SWAP2 POP DUP1 MLOAD SWAP1 PUSH1 0x20 ADD SWAP1 DUP1 DUP4 DUP4 PUSH1 0x0 JUMPDEST DUP4 DUP2 LT ISZERO PUSH2 0x25A4 JUMPI DUP2 DUP2 ADD MLOAD DUP4 DUP3 ADD MSTORE PUSH1 0x20 ADD PUSH2 0x258C JUMP JUMPDEST POP POP POP POP SWAP1 POP SWAP1 DUP2 ADD SWAP1 PUSH1 0x1F AND DUP1 ISZERO PUSH2 0x25D1 JUMPI DUP1 DUP3 SUB DUP1 MLOAD PUSH1 0x1 DUP4 PUSH1 0x20 SUB PUSH2 0x100 EXP SUB NOT AND DUP2 MSTORE PUSH1 0x20 ADD SWAP2 POP JUMPDEST POP SWAP3 POP POP POP PUSH1 0x40 MLOAD DUP1 SWAP2 SUB SWAP1 REVERT JUMPDEST POP DUP5 PUSH1 0x0 ADD PUSH1 0x1 DUP3 SUB DUP2 SLOAD DUP2 LT PUSH2 0x25F2 JUMPI INVALID JUMPDEST SWAP1 PUSH1 0x0 MSTORE PUSH1 0x20 PUSH1 0x0 KECCAK256 SWAP1 PUSH1 0x2 MUL ADD PUSH1 0x1 ADD SLOAD SWAP2 POP POP SWAP4 SWAP3 POP POP POP JUMP JUMPDEST PUSH2 0x2618 DUP4 DUP4 PUSH2 0x2A54 JUMP JUMPDEST PUSH2 0x2625 PUSH1 0x0 DUP5 DUP5 DUP5 PUSH2 0x2660 JUMP JUMPDEST PUSH2 0x908 JUMPI PUSH1 0x40 MLOAD PUSH3 0x461BCD PUSH1 0xE5 SHL DUP2 MSTORE PUSH1 0x4 ADD DUP1 DUP1 PUSH1 0x20 ADD DUP3 DUP2 SUB DUP3 MSTORE PUSH1 0x32 DUP2 MSTORE PUSH1 0x20 ADD DUP1 PUSH2 0x2E0F PUSH1 0x32 SWAP2 CODECOPY PUSH1 0x40 ADD SWAP2 POP POP PUSH1 0x40 MLOAD DUP1 SWAP2 SUB SWAP1 REVERT JUMPDEST PUSH1 0x0 PUSH2 0x2674 DUP5 PUSH1 0x1 PUSH1 0x1 PUSH1 0xA0 SHL SUB AND PUSH2 0x2B82 JUMP JUMPDEST PUSH2 0x2680 JUMPI POP PUSH1 0x1 PUSH2 0x1A13 JUMP JUMPDEST PUSH1 0x60 PUSH2 0x278E PUSH4 0xA85BD01 PUSH1 0xE1 SHL PUSH2 0x2695 PUSH2 0x18FA JUMP JUMPDEST DUP9 DUP8 DUP8 PUSH1 0x40 MLOAD PUSH1 0x24 ADD DUP1 DUP6 PUSH1 0x1 PUSH1 0x1 PUSH1 0xA0 SHL SUB AND DUP2 MSTORE PUSH1 0x20 ADD DUP5 PUSH1 0x1 PUSH1 0x1 PUSH1 0xA0 SHL SUB AND DUP2 MSTORE PUSH1 0x20 ADD DUP4 DUP2 MSTORE PUSH1 0x20 ADD DUP1 PUSH1 0x20 ADD DUP3 DUP2 SUB DUP3 MSTORE DUP4 DUP2 DUP2 MLOAD DUP2 MSTORE PUSH1 0x20 ADD SWAP2 POP DUP1 MLOAD SWAP1 PUSH1 0x20 ADD SWAP1 DUP1 DUP4 DUP4 PUSH1 0x0 JUMPDEST DUP4 DUP2 LT ISZERO PUSH2 0x26FC JUMPI DUP2 DUP2 ADD MLOAD DUP4 DUP3 ADD MSTORE PUSH1 0x20 ADD PUSH2 0x26E4 JUMP JUMPDEST POP POP POP POP SWAP1 POP SWAP1 DUP2 ADD SWAP1 PUSH1 0x1F AND DUP1 ISZERO PUSH2 0x2729 JUMPI DUP1 DUP3 SUB DUP1 MLOAD PUSH1 0x1 DUP4 PUSH1 0x20 SUB PUSH2 0x100 EXP SUB NOT AND DUP2 MSTORE PUSH1 0x20 ADD SWAP2 POP JUMPDEST POP SWAP6 POP POP POP POP POP POP PUSH1 0x40 MLOAD PUSH1 0x20 DUP2 DUP4 SUB SUB DUP2 MSTORE SWAP1 PUSH1 0x40 MSTORE SWAP1 PUSH1 0x1 PUSH1 0x1 PUSH1 0xE0 SHL SUB NOT AND PUSH1 0x20 DUP3 ADD DUP1 MLOAD PUSH1 0x1 PUSH1 0x1 PUSH1 0xE0 SHL SUB DUP4 DUP2 DUP4 AND OR DUP4 MSTORE POP POP POP POP PUSH1 0x40 MLOAD DUP1 PUSH1 0x60 ADD PUSH1 0x40 MSTORE DUP1 PUSH1 0x32 DUP2 MSTORE PUSH1 0x20 ADD PUSH2 0x2E0F PUSH1 0x32 SWAP2 CODECOPY PUSH1 0x1 PUSH1 0x1 PUSH1 0xA0 SHL SUB DUP9 AND SWAP2 SWAP1 PUSH2 0x2B88 JUMP JUMPDEST SWAP1 POP PUSH1 0x0 DUP2 DUP1 PUSH1 0x20 ADD SWAP1 MLOAD PUSH1 0x20 DUP2 LT ISZERO PUSH2 0x27A7 JUMPI PUSH1 0x0 DUP1 REVERT JUMPDEST POP MLOAD PUSH1 0x1 PUSH1 0x1 PUSH1 0xE0 SHL SUB NOT AND PUSH4 0xA85BD01 PUSH1 0xE1 SHL EQ SWAP3 POP POP POP SWAP5 SWAP4 POP POP POP POP JUMP JUMPDEST PUSH1 0x0 SWAP1 DUP2 MSTORE PUSH1 0x1 SWAP2 SWAP1 SWAP2 ADD PUSH1 0x20 MSTORE PUSH1 0x40 SWAP1 KECCAK256 SLOAD ISZERO ISZERO SWAP1 JUMP JUMPDEST PUSH1 0x0 DUP2 DUP2 MSTORE PUSH1 0x1 DUP4 ADD PUSH1 0x20 MSTORE PUSH1 0x40 DUP2 KECCAK256 SLOAD DUP1 ISZERO PUSH2 0x289C JUMPI DUP4 SLOAD PUSH1 0x0 NOT DUP1 DUP4 ADD SWAP2 SWAP1 DUP2 ADD SWAP1 PUSH1 0x0 SWAP1 DUP8 SWAP1 DUP4 SWAP1 DUP2 LT PUSH2 0x2813 JUMPI INVALID JUMPDEST SWAP1 PUSH1 0x0 MSTORE PUSH1 0x20 PUSH1 0x0 KECCAK256 ADD SLOAD SWAP1 POP DUP1 DUP8 PUSH1 0x0 ADD DUP5 DUP2 SLOAD DUP2 LT PUSH2 0x2830 JUMPI INVALID JUMPDEST PUSH1 0x0 SWAP2 DUP3 MSTORE PUSH1 0x20 DUP1 DUP4 KECCAK256 SWAP1 SWAP2 ADD SWAP3 SWAP1 SWAP3 SSTORE DUP3 DUP2 MSTORE PUSH1 0x1 DUP10 DUP2 ADD SWAP1 SWAP3 MSTORE PUSH1 0x40 SWAP1 KECCAK256 SWAP1 DUP5 ADD SWAP1 SSTORE DUP7 SLOAD DUP8 SWAP1 DUP1 PUSH2 0x2860 JUMPI INVALID JUMPDEST PUSH1 0x1 SWAP1 SUB DUP2 DUP2 SWAP1 PUSH1 0x0 MSTORE PUSH1 0x20 PUSH1 0x0 KECCAK256 ADD PUSH1 0x0 SWAP1 SSTORE SWAP1 SSTORE DUP7 PUSH1 0x1 ADD PUSH1 0x0 DUP8 DUP2 MSTORE PUSH1 0x20 ADD SWAP1 DUP2 MSTORE PUSH1 0x20 ADD PUSH1 0x0 KECCAK256 PUSH1 0x0 SWAP1 SSTORE PUSH1 0x1 SWAP5 POP POP POP POP POP PUSH2 0xF2C JUMP JUMPDEST PUSH1 0x0 SWAP2 POP POP PUSH2 0xF2C JUMP JUMPDEST PUSH1 0x0 PUSH2 0x28B2 DUP4 DUP4 PUSH2 0x27C8 JUMP JUMPDEST PUSH2 0x28E8 JUMPI POP DUP2 SLOAD PUSH1 0x1 DUP2 DUP2 ADD DUP5 SSTORE PUSH1 0x0 DUP5 DUP2 MSTORE PUSH1 0x20 DUP1 DUP3 KECCAK256 SWAP1 SWAP4 ADD DUP5 SWAP1 SSTORE DUP5 SLOAD DUP5 DUP3 MSTORE DUP3 DUP7 ADD SWAP1 SWAP4 MSTORE PUSH1 0x40 SWAP1 KECCAK256 SWAP2 SWAP1 SWAP2 SSTORE PUSH2 0xF2C JUMP JUMPDEST POP PUSH1 0x0 PUSH2 0xF2C JUMP JUMPDEST PUSH1 0x0 DUP3 DUP2 MSTORE PUSH1 0x1 DUP5 ADD PUSH1 0x20 MSTORE PUSH1 0x40 DUP2 KECCAK256 SLOAD DUP1 PUSH2 0x2955 JUMPI POP POP PUSH1 0x40 DUP1 MLOAD DUP1 DUP3 ADD DUP3 MSTORE DUP4 DUP2 MSTORE PUSH1 0x20 DUP1 DUP3 ADD DUP5 DUP2 MSTORE DUP7 SLOAD PUSH1 0x1 DUP2 DUP2 ADD DUP10 SSTORE PUSH1 0x0 DUP10 DUP2 MSTORE DUP5 DUP2 KECCAK256 SWAP6 MLOAD PUSH1 0x2 SWAP1 SWAP4 MUL SWAP1 SWAP6 ADD SWAP2 DUP3 SSTORE SWAP2 MLOAD SWAP1 DUP3 ADD SSTORE DUP7 SLOAD DUP7 DUP5 MSTORE DUP2 DUP9 ADD SWAP1 SWAP3 MSTORE SWAP3 SWAP1 SWAP2 KECCAK256 SSTORE PUSH2 0x1E97 JUMP JUMPDEST DUP3 DUP6 PUSH1 0x0 ADD PUSH1 0x1 DUP4 SUB DUP2 SLOAD DUP2 LT PUSH2 0x2968 JUMPI INVALID JUMPDEST SWAP1 PUSH1 0x0 MSTORE PUSH1 0x20 PUSH1 0x0 KECCAK256 SWAP1 PUSH1 0x2 MUL ADD PUSH1 0x1 ADD DUP2 SWAP1 SSTORE POP PUSH1 0x0 SWAP2 POP POP PUSH2 0x1E97 JUMP JUMPDEST PUSH1 0x40 DUP1 MLOAD PUSH1 0x20 DUP1 DUP3 ADD SWAP7 SWAP1 SWAP7 MSTORE DUP1 DUP3 ADD SWAP5 SWAP1 SWAP5 MSTORE PUSH1 0x1 PUSH1 0x1 PUSH1 0xA0 SHL SUB SWAP3 SWAP1 SWAP3 AND PUSH1 0x60 DUP5 ADD MSTORE PUSH1 0x80 DUP1 DUP5 ADD SWAP2 SWAP1 SWAP2 MSTORE DUP2 MLOAD DUP1 DUP5 SUB SWAP1 SWAP2 ADD DUP2 MSTORE PUSH1 0xA0 SWAP1 SWAP3 ADD SWAP1 MSTORE DUP1 MLOAD SWAP2 ADD KECCAK256 SWAP1 JUMP JUMPDEST PUSH1 0x0 DUP3 DUP3 ADD DUP4 DUP2 LT ISZERO PUSH2 0xF29 JUMPI PUSH1 0x40 DUP1 MLOAD PUSH3 0x461BCD PUSH1 0xE5 SHL DUP2 MSTORE PUSH1 0x20 PUSH1 0x4 DUP3 ADD MSTORE PUSH1 0x1B PUSH1 0x24 DUP3 ADD MSTORE PUSH32 0x536166654D6174683A206164646974696F6E206F766572666C6F770000000000 PUSH1 0x44 DUP3 ADD MSTORE SWAP1 MLOAD SWAP1 DUP2 SWAP1 SUB PUSH1 0x64 ADD SWAP1 REVERT JUMPDEST PUSH1 0x40 DUP1 MLOAD PUSH1 0x20 DUP1 DUP3 ADD SWAP5 SWAP1 SWAP5 MSTORE DUP1 DUP3 ADD SWAP3 SWAP1 SWAP3 MSTORE DUP1 MLOAD DUP1 DUP4 SUB DUP3 ADD DUP2 MSTORE PUSH1 0x60 SWAP1 SWAP3 ADD SWAP1 MSTORE DUP1 MLOAD SWAP2 ADD KECCAK256 SWAP1 JUMP JUMPDEST PUSH1 0x1 PUSH1 0x1 PUSH1 0xA0 SHL SUB DUP3 AND PUSH2 0x2AAF JUMPI PUSH1 0x40 DUP1 MLOAD PUSH3 0x461BCD PUSH1 0xE5 SHL DUP2 MSTORE PUSH1 0x20 PUSH1 0x4 DUP3 ADD DUP2 SWAP1 MSTORE PUSH1 0x24 DUP3 ADD MSTORE PUSH32 0x4552433732313A206D696E7420746F20746865207A65726F2061646472657373 PUSH1 0x44 DUP3 ADD MSTORE SWAP1 MLOAD SWAP1 DUP2 SWAP1 SUB PUSH1 0x64 ADD SWAP1 REVERT JUMPDEST PUSH2 0x2AB8 DUP2 PUSH2 0x18ED JUMP JUMPDEST ISZERO PUSH2 0x2B0A JUMPI PUSH1 0x40 DUP1 MLOAD PUSH3 0x461BCD PUSH1 0xE5 SHL DUP2 MSTORE PUSH1 0x20 PUSH1 0x4 DUP3 ADD MSTORE PUSH1 0x1C PUSH1 0x24 DUP3 ADD MSTORE PUSH32 0x4552433732313A20746F6B656E20616C7265616479206D696E74656400000000 PUSH1 0x44 DUP3 ADD MSTORE SWAP1 MLOAD SWAP1 DUP2 SWAP1 SUB PUSH1 0x64 ADD SWAP1 REVERT JUMPDEST PUSH2 0x2B16 PUSH1 0x0 DUP4 DUP4 PUSH2 0x908 JUMP JUMPDEST PUSH1 0x1 PUSH1 0x1 PUSH1 0xA0 SHL SUB DUP3 AND PUSH1 0x0 SWAP1 DUP2 MSTORE PUSH1 0x2 PUSH1 0x20 MSTORE PUSH1 0x40 SWAP1 KECCAK256 PUSH2 0x2B38 SWAP1 DUP3 PUSH2 0x2298 JUMP JUMPDEST POP PUSH2 0x2B45 PUSH1 0x3 DUP3 DUP5 PUSH2 0x22A4 JUMP JUMPDEST POP PUSH1 0x40 MLOAD DUP2 SWAP1 PUSH1 0x1 PUSH1 0x1 PUSH1 0xA0 SHL SUB DUP5 AND SWAP1 PUSH1 0x0 SWAP1 PUSH32 0xDDF252AD1BE2C89B69C2B068FC378DAA952BA7F163C4A11628F55A4DF523B3EF SWAP1 DUP3 SWAP1 LOG4 POP POP JUMP JUMPDEST EXTCODESIZE ISZERO ISZERO SWAP1 JUMP JUMPDEST PUSH1 0x60 PUSH2 0x1E94 DUP5 DUP5 PUSH1 0x0 DUP6 DUP6 PUSH2 0x2B9C DUP6 PUSH2 0x2B82 JUMP JUMPDEST PUSH2 0x2BED JUMPI PUSH1 0x40 DUP1 MLOAD PUSH3 0x461BCD PUSH1 0xE5 SHL DUP2 MSTORE PUSH1 0x20 PUSH1 0x4 DUP3 ADD MSTORE PUSH1 0x1D PUSH1 0x24 DUP3 ADD MSTORE PUSH32 0x416464726573733A2063616C6C20746F206E6F6E2D636F6E7472616374000000 PUSH1 0x44 DUP3 ADD MSTORE SWAP1 MLOAD SWAP1 DUP2 SWAP1 SUB PUSH1 0x64 ADD SWAP1 REVERT JUMPDEST PUSH1 0x0 PUSH1 0x60 DUP7 PUSH1 0x1 PUSH1 0x1 PUSH1 0xA0 SHL SUB AND DUP6 DUP8 PUSH1 0x40 MLOAD DUP1 DUP3 DUP1 MLOAD SWAP1 PUSH1 0x20 ADD SWAP1 DUP1 DUP4 DUP4 JUMPDEST PUSH1 0x20 DUP4 LT PUSH2 0x2C2C JUMPI DUP1 MLOAD DUP3 MSTORE PUSH1 0x1F NOT SWAP1 SWAP3 ADD SWAP2 PUSH1 0x20 SWAP2 DUP3 ADD SWAP2 ADD PUSH2 0x2C0D JUMP JUMPDEST PUSH1 0x1 DUP4 PUSH1 0x20 SUB PUSH2 0x100 EXP SUB DUP1 NOT DUP3 MLOAD AND DUP2 DUP5 MLOAD AND DUP1 DUP3 OR DUP6 MSTORE POP POP POP POP POP POP SWAP1 POP ADD SWAP2 POP POP PUSH1 0x0 PUSH1 0x40 MLOAD DUP1 DUP4 SUB DUP2 DUP6 DUP8 GAS CALL SWAP3 POP POP POP RETURNDATASIZE DUP1 PUSH1 0x0 DUP2 EQ PUSH2 0x2C8E JUMPI PUSH1 0x40 MLOAD SWAP2 POP PUSH1 0x1F NOT PUSH1 0x3F RETURNDATASIZE ADD AND DUP3 ADD PUSH1 0x40 MSTORE RETURNDATASIZE DUP3 MSTORE RETURNDATASIZE PUSH1 0x0 PUSH1 0x20 DUP5 ADD RETURNDATACOPY PUSH2 0x2C93 JUMP JUMPDEST PUSH1 0x60 SWAP2 POP JUMPDEST POP SWAP2 POP SWAP2 POP PUSH2 0x2CA3 DUP3 DUP3 DUP7 PUSH2 0x2CAE JUMP JUMPDEST SWAP8 SWAP7 POP POP POP POP POP POP POP JUMP JUMPDEST PUSH1 0x60 DUP4 ISZERO PUSH2 0x2CBD JUMPI POP DUP2 PUSH2 0x1E97 JUMP JUMPDEST DUP3 MLOAD ISZERO PUSH2 0x2CCD JUMPI DUP3 MLOAD DUP1 DUP5 PUSH1 0x20 ADD REVERT JUMPDEST PUSH1 0x40 MLOAD PUSH3 0x461BCD PUSH1 0xE5 SHL DUP2 MSTORE PUSH1 0x20 PUSH1 0x4 DUP3 ADD DUP2 DUP2 MSTORE DUP5 MLOAD PUSH1 0x24 DUP5 ADD MSTORE DUP5 MLOAD DUP6 SWAP4 SWAP2 SWAP3 DUP4 SWAP3 PUSH1 0x44 ADD SWAP2 SWAP1 DUP6 ADD SWAP1 DUP1 DUP4 DUP4 PUSH1 0x0 DUP4 ISZERO PUSH2 0x25A4 JUMPI DUP2 DUP2 ADD MLOAD DUP4 DUP3 ADD MSTORE PUSH1 0x20 ADD PUSH2 0x258C JUMP JUMPDEST PUSH1 0x40 MLOAD DUP1 PUSH1 0xE0 ADD PUSH1 0x40 MSTORE DUP1 PUSH1 0x0 DUP2 MSTORE PUSH1 0x20 ADD PUSH1 0x0 DUP2 MSTORE PUSH1 0x20 ADD PUSH1 0x0 DUP2 MSTORE PUSH1 0x20 ADD PUSH1 0x60 DUP2 MSTORE PUSH1 0x20 ADD PUSH1 0x0 PUSH4 0xFFFFFFFF AND DUP2 MSTORE PUSH1 0x20 ADD PUSH1 0x0 DUP2 MSTORE PUSH1 0x20 ADD PUSH1 0x0 ISZERO ISZERO DUP2 MSTORE POP SWAP1 JUMP JUMPDEST DUP3 DUP1 SLOAD PUSH1 0x1 DUP2 PUSH1 0x1 AND ISZERO PUSH2 0x100 MUL SUB AND PUSH1 0x2 SWAP1 DIV SWAP1 PUSH1 0x0 MSTORE PUSH1 0x20 PUSH1 0x0 KECCAK256 SWAP1 PUSH1 0x1F ADD PUSH1 0x20 SWAP1 DIV DUP2 ADD SWAP3 DUP3 PUSH1 0x1F LT PUSH2 0x2D9A JUMPI DUP1 MLOAD PUSH1 0xFF NOT AND DUP4 DUP1 ADD OR DUP6 SSTORE PUSH2 0x2DC7 JUMP JUMPDEST DUP3 DUP1 ADD PUSH1 0x1 ADD DUP6 SSTORE DUP3 ISZERO PUSH2 0x2DC7 JUMPI SWAP2 DUP3 ADD JUMPDEST DUP3 DUP2 GT ISZERO PUSH2 0x2DC7 JUMPI DUP3 MLOAD DUP3 SSTORE SWAP2 PUSH1 0x20 ADD SWAP2 SWAP1 PUSH1 0x1 ADD SWAP1 PUSH2 0x2DAC JUMP JUMPDEST POP PUSH2 0x2DD3 SWAP3 SWAP2 POP PUSH2 0x2DD7 JUMP JUMPDEST POP SWAP1 JUMP JUMPDEST JUMPDEST DUP1 DUP3 GT ISZERO PUSH2 0x2DD3 JUMPI PUSH1 0x0 DUP2 SSTORE PUSH1 0x1 ADD PUSH2 0x2DD8 JUMP INVALID GASLIMIT PUSH15 0x756D657261626C655365743A20696E PUSH5 0x6578206F75 PUSH21 0x206F6620626F756E64734552433732313A20747261 PUSH15 0x7366657220746F206E6F6E20455243 CALLDATACOPY ORIGIN BALANCE MSTORE PUSH6 0x636569766572 KECCAK256 PUSH10 0x6D706C656D656E746572 0x4E PUSH16 0x7420656E6F756768204C494E4B202D20 PUSH7 0x696C6C20746865 KECCAK256 PUSH4 0x6F6E7472 PUSH2 0x6374 KECCAK256 PUSH24 0x697468206661756365744F574E45523A2043616C6C657220 PUSH2 0x7265 PUSH15 0x60742074686520436F6E7472616374 KECCAK256 0x4F PUSH24 0x6E6572214552433732313A207472616E7366657220746F20 PUSH21 0x6865207A65726F2061646472657373455243373231 GASPRICE KECCAK256 PUSH16 0x70657261746F7220717565727920666F PUSH19 0x206E6F6E6578697374656E7420746F6B656E45 MSTORE NUMBER CALLDATACOPY ORIGIN BALANCE GASPRICE KECCAK256 PUSH2 0x7070 PUSH19 0x6F76652063616C6C6572206973206E6F74206F PUSH24 0x6E6572206E6F7220617070726F76656420666F7220616C6C GASLIMIT MSTORE NUMBER CALLDATACOPY ORIGIN BALANCE GASPRICE KECCAK256 PUSH3 0x616C61 PUSH15 0x636520717565727920666F72207468 PUSH6 0x207A65726F20 PUSH2 0x6464 PUSH19 0x6573734552433732313A206F776E6572207175 PUSH6 0x727920666F72 KECCAK256 PUSH15 0x6F6E6578697374656E7420746F6B65 PUSH15 0x456E756D657261626C654D61703A20 PUSH10 0x6E646578206F7574206F PUSH7 0x20626F756E6473 GASLIMIT MSTORE NUMBER CALLDATACOPY ORIGIN BALANCE GASPRICE KECCAK256 PUSH2 0x7070 PUSH19 0x6F76656420717565727920666F72206E6F6E65 PUSH25 0x697374656E7420746F6B656E4552433732313A207472616E73 PUSH7 0x6572206F662074 PUSH16 0x6B656E2074686174206973206E6F7420 PUSH16 0x776E4552433732314D65746164617461 GASPRICE KECCAK256 SSTORE MSTORE 0x49 KECCAK256 PUSH18 0x7565727920666F72206E6F6E657869737465 PUSH15 0x7420746F6B656E4552433732313A20 PUSH2 0x7070 PUSH19 0x6F76616C20746F2063757272656E74206F776E PUSH6 0x724552433732 BALANCE GASPRICE KECCAK256 PUSH21 0x72616E736665722063616C6C6572206973206E6F74 KECCAK256 PUSH16 0x776E6572206E6F7220617070726F7665 PUSH5 0xA264697066 PUSH20 0x582212207A1D2F1B28316F776E78B3A0927AC529 DUP2 0x2E 0xDB DUP11 0xD2 0xC3 0xED PUSH6 0xCDC91AE4390B SLT SELFDESTRUCT PUSH5 0x736F6C6343 STOP MOD 0xC STOP CALLER ",
  "sha1": "d2c70e8f2cf91adfcd77acfbb89ef49b4036d524",
  "source": "// contracts/StudentsNft.sol\n// SPDX-License-Identifier: MIT\npragma solidity ^0.6.6;\n\nimport \"@openzeppelin/contracts/token/ERC721/ERC721.sol\";\nimport \"@chainlink/contracts/src/v0.6/VRFConsumerBase.sol\";\nimport \"@openzeppelin/contracts/utils/Strings.sol\";\nimport \"@openzeppelin/contracts/token/ERC20/ERC20.sol\";\nimport \"./TokenUJG.sol\";\nimport \"./Ownable.sol\";\n\n/**\n*   @title `Ujap students` game full solidity nft contract\n*   @dev Full implementation of an ERC721, VRFConsumerBase, Ownable, Strings contracts\n*   \n*   Description:\n*\n*   Project made for the presentation of a university thesis, based on the studies \n*   and databases of the blockchain to create a game, made to be run on Kovan Test \n*   Blockchain, Local Blockchain and Main Ethereum Blockchain.\n*\n*   This contract (StudentsNft) contains all the elements for the construction and operation of the NFT\n*   \n*   Author: https://github.com/simetb\n*   \n*   \n*/\n\ncontract StudentsNft is Ownable,ERC721, VRFConsumerBase{\n    \n    // Token Contract\n    TokenUJG internal _tokenUJG;\n\n    // Amount of tokens in contract\n    uint256 internal _tokenPool;\n\n    /**\n    *   @dev Data nft structure to the game\n    *   `level` character level\n    *   `intelligenceLevel` intelligence character stat\n    *   `cheatLevel` cheat character stat\n    *   `attackTime` is the rest time that take the nft for his next attack round\n    *   `random` selected randomly\n    *   `id` The NFT Id\n    *   `win` To check if the nft recently win\n    *   `market` To check if the nft is in the market \n    *   \n    *   `intelligenceLevel`, `cheatLevel` & `name` are selected randomly\n    *\n    *   Requirements:\n    * - `level` stat cannot be zero and this just can take 3 values (1,2,3) \n    * - `intelligenceLevel` stat cannot be zero and the final value deppend of the `level` stat\n    *   but this is just a buff MIN value 1, Max value 300\n    * - `cheatLevel` stat cannot be zero MIN value 1, MAX value 100\n    */\n    struct Student{\n        uint256 level;\n        uint256 intelligenceLevel;\n        uint256 cheatLevel;\n        string name;\n        uint32 attackTime;\n        uint256 id;\n        bool market;\n    }\n\n    // Cooldown Attack of the NFT\n    uint32 internal _coolDownTime;\n\n    // Id of the NFT\n    uint256 private _nftId;\n\n    // Random Nft Names\n    string[] private _names  = [\"Temis\", \"Jekatherina\", \"Hernandez\",\"Gabriel\",\"Maria\",\"Juan\",\"Maru\",\n           \"Sebastian\", \"Kevin\", \"Caranfa\", \"Julio\", \"Sammer\", \"Edkar\",\n           \"Quintero\", \"Ochado\", \"Francisco\", \"Diego\", \"Cristian\", \"Luis\",\n           \"Gocho\", \"Lopez\" , \"Marcel\" , \"Kristofer\" , \"Simet\" , \"Manguito\"];\n\n    // Array that save all the characters\n    Student[] internal _students;\n    \n    /** \n    *   @dev Variable mapping for the correct control and distribution of prizes and NFT\n    */\n    // Mapping from the owner to the amount of nft students\n    mapping(address => uint256) internal _nftOwnerCount;\n    \n    // Mapping from the owner to the nft\n    mapping(uint256 => address ) internal _nftToOwner;\n\n    // User that request of the random\n    mapping(bytes32 => address) private _requestToSender;\n\n    //  Data random number from the user\n    mapping(address => uint256) internal _userRandomNumber;\n\n    /** \n    *   @dev Events that are used to deploy events in js with the contract\n    */\n    // Event that get the result of the Attack\n    event ResultAttack(bool win, uint256 powerCharacter, uint256 powerLevel, uint256 wear, uint256 roll, uint256 reward);\n\n    // Evemt that get the created nft and their stats\n    event NftCreated(string name, uint256 level, uint256 intelligenceLevel, uint256 cheatLevel); \n\n    /** \n    *   @dev The control variables are used to adjust the prices, \n    *   prizes and consequences that the nfts bring if necessary.\n    */\n    // Control the price for the NFT mint function \n    uint256 private _nftPrice;\n\n    // Control Wear Variable\n    uint256 private _wearMultiplicator;\n\n    // Control Attack Variable\n    uint256 private _attackPriceMultiplicator;\n\n    // Control Reward Variables\n    uint256 private _rewardPriceMultiplicator;\n    \n    /**\n    *   @dev Kovan Default Blockhain Implementation\n    *   `_keyhash` kovan default = 0x6c3699283bda56ad74f6b855546325b68d482e983852a7a82979cc4807b641f4\n    *   `_fee` kovan default = 100000000000000000\n    *   `_VRFCoordinator` = 0xdD3782915140c8f3b190B5D67eAc6dc5760C46E9\n    *   `_linkToken` = 0xa36085F69e2889c224210F603D836748e7dC0088\n    */\n    bytes32 internal keyhash;\n\n    uint256 internal fee;\n    \n    constructor(\n        address _VRFCoordinator, \n        address _linkToken, \n        bytes32 _keyhash,  \n        address _tokenAddress,\n        uint256 nftPrice,\n        uint256 wearMultiplicator,\n        uint256 attackMultiplicator,\n        uint256 rewardPriceMultiplicator\n    ) public \n    Ownable()\n    VRFConsumerBase(_VRFCoordinator, _linkToken) \n    ERC721(\"Ujapista\",\"UJAP\")\n    {\n        // Randomness Variables\n        keyhash = _keyhash;\n        fee = 0.1 * 10**18;\n\n        // Nft Variables\n        _coolDownTime = 1 days;\n        _nftId = 0;\n        _nftPrice = nftPrice;\n        _wearMultiplicator = wearMultiplicator;\n        _attackPriceMultiplicator = attackMultiplicator;\n        _rewardPriceMultiplicator = rewardPriceMultiplicator;\n\n        // Token Contract Initialization\n        _tokenUJG = TokenUJG(_tokenAddress);\n\n    }\n\n    /**\n    *   @dev Just the owner of the nft: `StudentIndex.id` can interact with the function    \n    */\n    modifier OnlyOwnerOf(uint256 studentIndex) {\n        require(msg.sender == _nftToOwner[_students[studentIndex].id],\"U aren't the nft Owner\");\n        _;\n    }\n\n    /**\n    *   @dev Checking the enough UJG Token balance of the account     \n    */\n    modifier EnoughToken(address account, uint256 amount){\n        require(_tokenUJG.GetTokenBalance(account) >= amount,\"Not enough UJG\");\n        _;\n    }\n\n    /**\n    *   @dev Check the attacktime status \n    */\n    modifier AttackReady(uint256 studentIndex){\n        require(_students[studentIndex].attackTime <= now, \"Let rest your Student\");\n        _;\n    }\n\n    /**\n    *   @dev Check the market student status \n    */\n    modifier InMarket(uint256 studentIndex){\n        require(!(_students[studentIndex].market), \"The Student are in market\");\n        _;\n    }\n\n    /** \n    *   @dev Transfer function for token payments within the game  `USER TO CONTRACT`\n    */\n    function _transferUserToContract(uint256 amount, address from) internal{\n        _tokenUJG.TransferToken(from,address(this), amount);\n        _tokenPool += amount;\n    }\n\n    /** \n    *   @dev Transfer function for token payments within the game  `CONTRACT TO USER`\n    */\n    function _transferContractToUser(uint256 amount, address to) internal{\n        _tokenUJG.TransferToken(address(this),to, amount);\n        _tokenPool -= amount;\n    }\n\n    /** \n    *   @dev Set the new `RewardMultiplicator`\n    *\n    *   Requirement:\n    *   \n    * - Only the contract owner can set a `RewardMultiplicator`\n    */\n    function SetRewardMultiplicator(uint256 newRewardMultiplicator) \n    public \n    OnlyOwner(msg.sender){\n        _rewardPriceMultiplicator = newRewardMultiplicator;\n    }\n\n    /** \n    *   @dev Get the `_rewardPriceMultiplicator`\n    */\n    function GetRewardMultiplicator() \n    public \n    view\n    returns(uint256)\n    {return(_rewardPriceMultiplicator);}\n\n    /**\n    *   @dev Set the new `WearMultiplicator`\n    *\n    *   Requirement:\n    *   \n    * - Only the contract owner can set a `WearMultiplicator`\n    */\n    function SetWearMultiplicator(uint256 newWearMultiplicator) \n    public \n    OnlyOwner(msg.sender){\n        _wearMultiplicator = newWearMultiplicator;\n    }\n\n    /** \n    *   @dev Get the `_wearMultiplicator`\n    */\n    function GetWearMultiplicator()\n    public \n    view\n    returns(uint256)\n    {return(_wearMultiplicator);}\n\n    /**\n    *   @dev Set the new `AttackMultiplicator`\n    *\n    *   Requirement:\n    *   \n    * - Only the contract owner can set a `AttackMultiplicator`\n    */\n    function SetAttackPriceMultiplicator(uint256 newAttackMultiplicator) \n    public \n    OnlyOwner(msg.sender){\n        _attackPriceMultiplicator = newAttackMultiplicator;\n    }\n\n    /** \n    *   @dev Get the `_attackPriceMultiplicator`\n    */\n    function GetAttackPriceMultiplicator() \n    public \n    view\n    returns(uint256)\n    {return (_attackPriceMultiplicator);}\n\n    /**\n    *   @dev Set the new `NftPrice`\n    *\n    *   Requirement:\n    *   \n    * - Only the contract owner can set a `NftPrice`\n    */\n    function SetNftPrice(uint256 newNftPrice) \n    public \n    OnlyOwner(msg.sender){\n        _nftPrice = newNftPrice;\n    }\n\n    /**\n    *   @dev Get the value nft price mint function\n    */\n    function GetNftPrice()\n    public\n    view \n    returns(uint256){return(_nftPrice);}\n\n    /**\n    *   @dev Get the Total attack price\n    */\n    function GetTotalAttackPrice(uint256 level)\n    public\n    view\n    returns(uint256){return(10 * level * _attackPriceMultiplicator * 1 ether);}\n\n    /** \n    *   @dev Get the power level\n    */\n    function GetPowerLevel(uint256 level)\n    public\n    view\n    returns(uint256){return(level * 40);}\n    \n    /** \n    *   @dev Get the level reward\n    */\n    function Reward(uint256 level) \n    public \n    view\n    returns(uint256){return(20 * level * _rewardPriceMultiplicator * 1 ether);}\n    /**\n    *   @dev Change the CoolDownTime value\n    *   \n    *   Requirements:\n    *\n    * - Only the owner can set a new `_coolDownTime` \n    */\n    function SetCoolDownTime(uint32 coolDownTime) \n    public \n    OnlyOwner(msg.sender){\n        _coolDownTime = coolDownTime;\n    }\n\n    /**\n    *   @dev Get `_coolDownTime`\n    */\n    function GetCoolDownTime()\n    public\n    view\n    returns(uint256){return(_coolDownTime);}\n\n    /**\n    *   @dev Restart the character Cooldown attack\n    */\n    function _triggerCooldown(uint256 _StudentIndex) \n    internal {\n        _students[_StudentIndex].attackTime = uint32(now + _coolDownTime);\n    }\n\n    /**\n    *   @dev Get request {VRFConsumerBase - requestRandomness}\n    *   Kovan LinktToken Faucet: https://faucets.chain.link\n    *\n    *   Requirements:\n    *\n    * - Min user Link token balance 0.1\n    *\n    *   CAMMELCASE EXCEPTION FUNCTION\n    */\n    function requestRandomness(uint256 randomNumber) \n    internal \n    returns (bytes32) {\n        require(LINK.balanceOf(address(this)) >= fee, \"Not enough LINK - fill the contract with faucet\");       \n\n        bytes32 requestId = requestRandomness(keyhash, fee);\n\n        _requestToSender[requestId] = msg.sender;\n\n        // TEST LOCAL BLOCKCHAIN //\n        _userRandomNumber[msg.sender] = randomNumber;\n\n        return requestId;\n    }\n\n    /**\n    *   @dev Save the random number `userRandomNumber`\n    *   internal override {VRFConsumerBase - fulfillRandomness}\n    *   CAMMELCASE EXCEPTION FUNCTION\n    */\n    function fulfillRandomness(bytes32 requestId, uint256 randomNumber) \n    internal \n    override {\n        _userRandomNumber[_requestToSender[requestId]] = randomNumber;\n    }\n\n    /**\n    *   @dev function that wear the nft \n    */\n    function _wear(uint256 studentIndex, uint256 wearIntelligence) \n    internal{\n        wearIntelligence = wearIntelligence * _wearMultiplicator;\n        if (((_students[studentIndex].intelligenceLevel) - wearIntelligence) < 0){\n            _students[studentIndex].intelligenceLevel = 0;\n        }else{\n            _students[studentIndex].intelligenceLevel -= wearIntelligence;\n        }\n    }\n\n    /**\n    *   @dev Mint a nft and associate with the owner\n    *   get the `newId` from the number of total nft, take the random number and generate the stats\n    *   and save it\n    *\n    *   Requirements:\n    *   \n    * - You can only create a student nft if you have the full price token in ur wallet\n    */\n    function CreateNftStudent(uint256 random) \n    public \n    EnoughToken(msg.sender,_nftPrice){\n\n        _transferUserToContract(_nftPrice, msg.sender);\n\n        uint256 newId = _nftId; // New Nft Id\n\n        Student memory student =  _generatingStats(newId,random);\n        /**\n        *   @dev Increase the `_nftOwnerCount` because we got a new nft\n        *   associated the mapping with `newId`: NftId with the owner\n        *   _safeMint function call\n        *\n        *   Requirements:\n        * - github {ERC720 - _safeMint}\n        */\n        _nftOwnerCount[msg.sender]++;\n\n        _nftToOwner[newId] = msg.sender;\n\n        _safeMint(msg.sender, newId);\n\n        emit NftCreated(student.name,student.level,student.intelligenceLevel,student.cheatLevel);\n    }\n\n    /**\n    *   @dev Function that get the nft and attack the level\n    * \n    *   Requirements:\n    * \n    * - The `levelNumber` cannot be a value below than 1 an upper than 10\n    * - The stat of `_intelligenceLevel` from `Student` need to be greater than 0\n    * - You need to be the student owner\n    * - Enough token to attack\n    * - Your NFT need to be rest\n    * - Your NFT It should not be in the marketplace\n    */\n    function Attack(uint256 studentIndex, uint256 levelNumber, uint256 random) \n    external \n    OnlyOwnerOf(studentIndex) \n    EnoughToken(msg.sender, GetTotalAttackPrice(levelNumber))\n    AttackReady(studentIndex)\n    InMarket(studentIndex)\n    {\n        require((levelNumber >= 1 && levelNumber <= 10), \"Invalid Level\");\n\n        Student memory student = _students[studentIndex];\n\n        require(student.intelligenceLevel > 0);\n\n        requestRandomness(random);\n\n        /**\n        *   @dev `basePowerLevel` MIN value 40 and MAX value 400\n        *   your stats and your random roll going to be evaluated\n        *   if win ur wear it`s gonna be minus than if u losse, you request a random number,\n        *   after that, thath go to trigger the cooldown function   \n        */\n\n        uint256 basePowerLevel = GetPowerLevel(levelNumber);\n\n        uint256 roll = (_userRandomNumber[msg.sender] % 100) + 1 ; \n\n        uint256 totalAttackPower = roll + student.cheatLevel + student.intelligenceLevel;\n\n        _triggerCooldown(studentIndex);\n\n        uint256 attackPrice = GetTotalAttackPrice(levelNumber);\n\n        _transferUserToContract(attackPrice, msg.sender);\n\n        if( basePowerLevel <= totalAttackPower){\n            uint256 wear = (basePowerLevel/20)*2;\n            _wear(studentIndex,wear);\n            uint256 reward = Reward(levelNumber);\n            _transferContractToUser(reward, msg.sender);\n            emit ResultAttack(true, totalAttackPower, basePowerLevel,wear,roll,reward);\n    \n        }else{\n            uint256 wear = (basePowerLevel/10)*2;\n            _wear(studentIndex,wear);\n            emit ResultAttack(false, totalAttackPower, basePowerLevel,wear,roll,-attackPrice);\n        }\n\n    }\n\n    /**\n    *   @dev generating the random stats for the nft and save it in the contract  \n    */\n    function _generatingStats(uint256 newId, uint256 random)\n    internal\n    returns(Student memory){\n        requestRandomness(random);\n\n        uint256 randomNumber = _userRandomNumber[msg.sender];\n\n        // Generating character stats...\n        uint256 level = (randomNumber % 3) + 1;\n       \n        uint256 intelligenceLevel = 0;\n        if(level == 1){\n            intelligenceLevel = (randomNumber % 100) + 1;\n        }else if(level == 2){\n            intelligenceLevel = (randomNumber % 100) + 101;\n        }else{\n            intelligenceLevel = (randomNumber % 100) + 201;\n        }\n        \n        //uint256 cheatLevel = ((randomNumber / 2) % 100) + 1;\n        uint256 cheatLevel = ((randomNumber * 2) % 100) + 1;\n        string memory name = _names[randomNumber % 25];\n\n        Student memory character =  Student(level,intelligenceLevel,cheatLevel,name,uint32 (now),newId,false);\n        // Saving the character...\n        _students.push(character);\n        _nftId+=1;\n        return(character);\n    }\n\n}",
  "sourcePath": "contracts/StudentsNft.sol",
  "type": "contract"
}