{
  "abi": [
    {
      "inputs": [
        {
          "internalType": "address",
          "name": "_VRFCoordinator",
          "type": "address"
        },
        {
          "internalType": "address",
          "name": "_linkToken",
          "type": "address"
        },
        {
          "internalType": "bytes32",
          "name": "_keyhash",
          "type": "bytes32"
        },
        {
          "internalType": "address",
          "name": "_tokenAddress",
          "type": "address"
        },
        {
          "internalType": "uint256",
          "name": "nftPrice",
          "type": "uint256"
        },
        {
          "internalType": "uint256",
          "name": "wearMultiplicator",
          "type": "uint256"
        },
        {
          "internalType": "uint256",
          "name": "attackMultiplicator",
          "type": "uint256"
        },
        {
          "internalType": "uint256",
          "name": "rewardPriceMultiplicator",
          "type": "uint256"
        }
      ],
      "stateMutability": "nonpayable",
      "type": "constructor"
    },
    {
      "anonymous": false,
      "inputs": [
        {
          "indexed": true,
          "internalType": "address",
          "name": "owner",
          "type": "address"
        },
        {
          "indexed": true,
          "internalType": "address",
          "name": "approved",
          "type": "address"
        },
        {
          "indexed": true,
          "internalType": "uint256",
          "name": "tokenId",
          "type": "uint256"
        }
      ],
      "name": "Approval",
      "type": "event"
    },
    {
      "anonymous": false,
      "inputs": [
        {
          "indexed": true,
          "internalType": "address",
          "name": "owner",
          "type": "address"
        },
        {
          "indexed": true,
          "internalType": "address",
          "name": "operator",
          "type": "address"
        },
        {
          "indexed": false,
          "internalType": "bool",
          "name": "approved",
          "type": "bool"
        }
      ],
      "name": "ApprovalForAll",
      "type": "event"
    },
    {
      "anonymous": false,
      "inputs": [
        {
          "indexed": false,
          "internalType": "string",
          "name": "name",
          "type": "string"
        },
        {
          "indexed": false,
          "internalType": "uint256",
          "name": "level",
          "type": "uint256"
        },
        {
          "indexed": false,
          "internalType": "uint256",
          "name": "intelligenceLevel",
          "type": "uint256"
        },
        {
          "indexed": false,
          "internalType": "uint256",
          "name": "cheatLevel",
          "type": "uint256"
        }
      ],
      "name": "NftCreated",
      "type": "event"
    },
    {
      "anonymous": false,
      "inputs": [
        {
          "indexed": false,
          "internalType": "bool",
          "name": "win",
          "type": "bool"
        },
        {
          "indexed": false,
          "internalType": "uint256",
          "name": "powerCharacter",
          "type": "uint256"
        },
        {
          "indexed": false,
          "internalType": "uint256",
          "name": "powerLevel",
          "type": "uint256"
        },
        {
          "indexed": false,
          "internalType": "uint256",
          "name": "wear",
          "type": "uint256"
        },
        {
          "indexed": false,
          "internalType": "uint256",
          "name": "roll",
          "type": "uint256"
        },
        {
          "indexed": false,
          "internalType": "uint256",
          "name": "reward",
          "type": "uint256"
        }
      ],
      "name": "ResultAttack",
      "type": "event"
    },
    {
      "anonymous": false,
      "inputs": [
        {
          "indexed": true,
          "internalType": "address",
          "name": "from",
          "type": "address"
        },
        {
          "indexed": true,
          "internalType": "address",
          "name": "to",
          "type": "address"
        },
        {
          "indexed": true,
          "internalType": "uint256",
          "name": "tokenId",
          "type": "uint256"
        }
      ],
      "name": "Transfer",
      "type": "event"
    },
    {
      "inputs": [
        {
          "internalType": "uint256",
          "name": "studentIndex",
          "type": "uint256"
        },
        {
          "internalType": "uint256",
          "name": "levelNumber",
          "type": "uint256"
        }
      ],
      "name": "Attack",
      "outputs": [],
      "stateMutability": "nonpayable",
      "type": "function"
    },
    {
      "inputs": [],
      "name": "CreateNftStudent",
      "outputs": [],
      "stateMutability": "nonpayable",
      "type": "function"
    },
    {
      "inputs": [],
      "name": "GetAttackPriceMultiplicator",
      "outputs": [
        {
          "internalType": "uint256",
          "name": "",
          "type": "uint256"
        }
      ],
      "stateMutability": "view",
      "type": "function"
    },
    {
      "inputs": [],
      "name": "GetCoolDownTime",
      "outputs": [
        {
          "internalType": "uint256",
          "name": "",
          "type": "uint256"
        }
      ],
      "stateMutability": "view",
      "type": "function"
    },
    {
      "inputs": [],
      "name": "GetNftPrice",
      "outputs": [
        {
          "internalType": "uint256",
          "name": "",
          "type": "uint256"
        }
      ],
      "stateMutability": "view",
      "type": "function"
    },
    {
      "inputs": [],
      "name": "GetOwner",
      "outputs": [
        {
          "internalType": "address",
          "name": "",
          "type": "address"
        }
      ],
      "stateMutability": "view",
      "type": "function"
    },
    {
      "inputs": [
        {
          "internalType": "uint256",
          "name": "level",
          "type": "uint256"
        }
      ],
      "name": "GetPowerLevel",
      "outputs": [
        {
          "internalType": "uint256",
          "name": "",
          "type": "uint256"
        }
      ],
      "stateMutability": "view",
      "type": "function"
    },
    {
      "inputs": [],
      "name": "GetRewardMultiplicator",
      "outputs": [
        {
          "internalType": "uint256",
          "name": "",
          "type": "uint256"
        }
      ],
      "stateMutability": "view",
      "type": "function"
    },
    {
      "inputs": [
        {
          "internalType": "uint256",
          "name": "level",
          "type": "uint256"
        }
      ],
      "name": "GetTotalAttackPrice",
      "outputs": [
        {
          "internalType": "uint256",
          "name": "",
          "type": "uint256"
        }
      ],
      "stateMutability": "view",
      "type": "function"
    },
    {
      "inputs": [],
      "name": "GetWearMultiplicator",
      "outputs": [
        {
          "internalType": "uint256",
          "name": "",
          "type": "uint256"
        }
      ],
      "stateMutability": "view",
      "type": "function"
    },
    {
      "inputs": [
        {
          "internalType": "uint256",
          "name": "level",
          "type": "uint256"
        }
      ],
      "name": "Reward",
      "outputs": [
        {
          "internalType": "uint256",
          "name": "",
          "type": "uint256"
        }
      ],
      "stateMutability": "view",
      "type": "function"
    },
    {
      "inputs": [
        {
          "internalType": "uint256",
          "name": "newAttackMultiplicator",
          "type": "uint256"
        }
      ],
      "name": "SetAttackPriceMultiplicator",
      "outputs": [],
      "stateMutability": "nonpayable",
      "type": "function"
    },
    {
      "inputs": [
        {
          "internalType": "uint32",
          "name": "coolDownTime",
          "type": "uint32"
        }
      ],
      "name": "SetCoolDownTime",
      "outputs": [],
      "stateMutability": "nonpayable",
      "type": "function"
    },
    {
      "inputs": [
        {
          "internalType": "uint256",
          "name": "newNftPrice",
          "type": "uint256"
        }
      ],
      "name": "SetNftPrice",
      "outputs": [],
      "stateMutability": "nonpayable",
      "type": "function"
    },
    {
      "inputs": [
        {
          "internalType": "uint256",
          "name": "newRewardMultiplicator",
          "type": "uint256"
        }
      ],
      "name": "SetRewardMultiplicator",
      "outputs": [],
      "stateMutability": "nonpayable",
      "type": "function"
    },
    {
      "inputs": [
        {
          "internalType": "uint256",
          "name": "newWearMultiplicator",
          "type": "uint256"
        }
      ],
      "name": "SetWearMultiplicator",
      "outputs": [],
      "stateMutability": "nonpayable",
      "type": "function"
    },
    {
      "inputs": [
        {
          "internalType": "address",
          "name": "to",
          "type": "address"
        },
        {
          "internalType": "uint256",
          "name": "tokenId",
          "type": "uint256"
        }
      ],
      "name": "approve",
      "outputs": [],
      "stateMutability": "nonpayable",
      "type": "function"
    },
    {
      "inputs": [
        {
          "internalType": "address",
          "name": "owner",
          "type": "address"
        }
      ],
      "name": "balanceOf",
      "outputs": [
        {
          "internalType": "uint256",
          "name": "",
          "type": "uint256"
        }
      ],
      "stateMutability": "view",
      "type": "function"
    },
    {
      "inputs": [],
      "name": "baseURI",
      "outputs": [
        {
          "internalType": "string",
          "name": "",
          "type": "string"
        }
      ],
      "stateMutability": "view",
      "type": "function"
    },
    {
      "inputs": [
        {
          "internalType": "uint256",
          "name": "tokenId",
          "type": "uint256"
        }
      ],
      "name": "getApproved",
      "outputs": [
        {
          "internalType": "address",
          "name": "",
          "type": "address"
        }
      ],
      "stateMutability": "view",
      "type": "function"
    },
    {
      "inputs": [
        {
          "internalType": "address",
          "name": "owner",
          "type": "address"
        },
        {
          "internalType": "address",
          "name": "operator",
          "type": "address"
        }
      ],
      "name": "isApprovedForAll",
      "outputs": [
        {
          "internalType": "bool",
          "name": "",
          "type": "bool"
        }
      ],
      "stateMutability": "view",
      "type": "function"
    },
    {
      "inputs": [],
      "name": "name",
      "outputs": [
        {
          "internalType": "string",
          "name": "",
          "type": "string"
        }
      ],
      "stateMutability": "view",
      "type": "function"
    },
    {
      "inputs": [
        {
          "internalType": "uint256",
          "name": "tokenId",
          "type": "uint256"
        }
      ],
      "name": "ownerOf",
      "outputs": [
        {
          "internalType": "address",
          "name": "",
          "type": "address"
        }
      ],
      "stateMutability": "view",
      "type": "function"
    },
    {
      "inputs": [
        {
          "internalType": "bytes32",
          "name": "requestId",
          "type": "bytes32"
        },
        {
          "internalType": "uint256",
          "name": "randomness",
          "type": "uint256"
        }
      ],
      "name": "rawFulfillRandomness",
      "outputs": [],
      "stateMutability": "nonpayable",
      "type": "function"
    },
    {
      "inputs": [
        {
          "internalType": "address",
          "name": "from",
          "type": "address"
        },
        {
          "internalType": "address",
          "name": "to",
          "type": "address"
        },
        {
          "internalType": "uint256",
          "name": "tokenId",
          "type": "uint256"
        }
      ],
      "name": "safeTransferFrom",
      "outputs": [],
      "stateMutability": "nonpayable",
      "type": "function"
    },
    {
      "inputs": [
        {
          "internalType": "address",
          "name": "from",
          "type": "address"
        },
        {
          "internalType": "address",
          "name": "to",
          "type": "address"
        },
        {
          "internalType": "uint256",
          "name": "tokenId",
          "type": "uint256"
        },
        {
          "internalType": "bytes",
          "name": "_data",
          "type": "bytes"
        }
      ],
      "name": "safeTransferFrom",
      "outputs": [],
      "stateMutability": "nonpayable",
      "type": "function"
    },
    {
      "inputs": [
        {
          "internalType": "address",
          "name": "operator",
          "type": "address"
        },
        {
          "internalType": "bool",
          "name": "approved",
          "type": "bool"
        }
      ],
      "name": "setApprovalForAll",
      "outputs": [],
      "stateMutability": "nonpayable",
      "type": "function"
    },
    {
      "inputs": [
        {
          "internalType": "bytes4",
          "name": "interfaceId",
          "type": "bytes4"
        }
      ],
      "name": "supportsInterface",
      "outputs": [
        {
          "internalType": "bool",
          "name": "",
          "type": "bool"
        }
      ],
      "stateMutability": "view",
      "type": "function"
    },
    {
      "inputs": [],
      "name": "symbol",
      "outputs": [
        {
          "internalType": "string",
          "name": "",
          "type": "string"
        }
      ],
      "stateMutability": "view",
      "type": "function"
    },
    {
      "inputs": [
        {
          "internalType": "uint256",
          "name": "index",
          "type": "uint256"
        }
      ],
      "name": "tokenByIndex",
      "outputs": [
        {
          "internalType": "uint256",
          "name": "",
          "type": "uint256"
        }
      ],
      "stateMutability": "view",
      "type": "function"
    },
    {
      "inputs": [
        {
          "internalType": "address",
          "name": "owner",
          "type": "address"
        },
        {
          "internalType": "uint256",
          "name": "index",
          "type": "uint256"
        }
      ],
      "name": "tokenOfOwnerByIndex",
      "outputs": [
        {
          "internalType": "uint256",
          "name": "",
          "type": "uint256"
        }
      ],
      "stateMutability": "view",
      "type": "function"
    },
    {
      "inputs": [
        {
          "internalType": "uint256",
          "name": "tokenId",
          "type": "uint256"
        }
      ],
      "name": "tokenURI",
      "outputs": [
        {
          "internalType": "string",
          "name": "",
          "type": "string"
        }
      ],
      "stateMutability": "view",
      "type": "function"
    },
    {
      "inputs": [],
      "name": "totalSupply",
      "outputs": [
        {
          "internalType": "uint256",
          "name": "",
          "type": "uint256"
        }
      ],
      "stateMutability": "view",
      "type": "function"
    },
    {
      "inputs": [
        {
          "internalType": "address",
          "name": "from",
          "type": "address"
        },
        {
          "internalType": "address",
          "name": "to",
          "type": "address"
        },
        {
          "internalType": "uint256",
          "name": "tokenId",
          "type": "uint256"
        }
      ],
      "name": "transferFrom",
      "outputs": [],
      "stateMutability": "nonpayable",
      "type": "function"
    }
  ],
  "bytecode": "60056103e08181526454656d697360d81b6104005260c0908152600b6104209081526a4a656b6174686572696e6160a81b6104405260e0526009610460818152682432b93730b73232bd60b91b610480526101005260076104a08181526611d8589c9a595b60ca1b6104c052610120526104e0848152644d6172696160d81b6105005261014052600461052081815263253ab0b760e11b6105405261016052610560818152634d61727560e01b61058052610180526105a08381526829b2b130b9ba34b0b760b91b6105c0526101a0526105e08581526425b2bb34b760d91b610600526101c05261062091825266436172616e666160c81b610640526101e091909152610660848152644a756c696f60d81b610680526102005260066106a08181526529b0b6b6b2b960d11b6106c052610220526106e08581526422b235b0b960d91b61070052610240526008610720818152675175696e7465726f60c01b6107405261026052610760828152654f636861646f60d01b61078052610280526107a0848152684672616e636973636f60b81b6107c0526102a0526107e086815264446965676f60d81b610800526102c0526108208181526721b934b9ba34b0b760c11b610840526102e052610860928352634c75697360e01b61088052610300929092526108a085815264476f63686f60d81b6108c052610320526108e0858152642637b832bd60d91b61090052610340526109209081526513585c98d95b60d21b61094052610360526109609182526825b934b9ba37b332b960b91b61098052610380919091526109a09283526414da5b595d60da1b6109c0526103a092909252610a206040526109e0918252674d616e677569746f60c01b610a00526103c09190915262000294906010906019620004ca565b50348015620002a257600080fd5b5060405162003753380380620037538339818101604052610100811015620002c957600080fd5b5080516020808301516040808501516060860151608087015160a088015160c089015160e090990151855180870187526008815267556a61706973746160c01b818a0152865180880190975260048752630554a41560e41b98870198909852600080546001600160a01b03191633179055979895979396929591949093919289918991906200035f6301ffc9a760e01b62000442565b8151620003749060079060208501906200052e565b5080516200038a9060089060208401906200052e565b506200039d6380ac58cd60e01b62000442565b620003af635b5e139f60e01b62000442565b620003c163780e9d6360e01b62000442565b50506001600160601b0319606092831b811660a052911b16608052601a9590955567016345785d8a0000601b55600e805463ffffffff1916620151801790556000600f55601692909255601755601855601991909155600c80546001600160a01b03929092166001600160a01b031990921691909117905550620006329050565b6001600160e01b03198082161415620004a2576040805162461bcd60e51b815260206004820152601c60248201527f4552433136353a20696e76616c696420696e7465726661636520696400000000604482015290519081900360640190fd5b6001600160e01b0319166000908152600160208190526040909120805460ff19169091179055565b8280548282559060005260206000209081019282156200051c579160200282015b828111156200051c57825180516200050b9184916020909101906200052e565b5091602001919060010190620004eb565b506200052a929150620005af565b5090565b828054600181600116156101000203166002900490600052602060002090601f016020900481019282601f106200057157805160ff1916838001178555620005a1565b82800160010185558215620005a1579182015b82811115620005a157825182559160200191906001019062000584565b506200052a929150620005d0565b808211156200052a576000620005c68282620005e7565b50600101620005af565b5b808211156200052a5760008155600101620005d1565b50805460018160011615610100020316600290046000825580601f106200060f57506200062f565b601f0160209004906000526020600020908101906200062f9190620005d0565b50565b60805160601c60a05160601c6130ed620006666000398061112d5280612478525080611b8e528061244952506130ed6000f3fe608060405234801561001057600080fd5b50600436106102055760003560e01c80636352211e1161011a578063a18baf7b116100ad578063c87b56dd1161007c578063c87b56dd14610669578063cb9a5bab14610686578063e985e9c5146106a3578063ee7931fb146106d1578063f7c03e5d146106ee57610205565b8063a18baf7b14610550578063a22cb4651461056d578063b88d4fde1461059b578063c75f40ce1461066157610205565b806376c05647116100e957806376c05647146104fa578063926520351461051d57806394985ddd1461052557806395d89b411461054857610205565b80636352211e1461048c5780636c0360eb146104a957806370a08231146104b1578063722bf249146104d757610205565b806323b872dd1161019d57806342842e0e1161016c57806342842e0e1461040c5780634f6ccce7146104425780634fbcd3c61461045f5780635482ab281461047c5780635cc92db31461048457610205565b806323b872dd1461037057806327dd4258146103a65780632f745c59146103c35780633ac0594a146103ef57610205565b8063095ea7b3116101d9578063095ea7b31461032a5780630ae50a391461035857806311f256851461036057806318160ddd1461036857610205565b8062fc964a1461020a57806301ffc9a71461023957806306fdde0314610274578063081812fc146102f1575b600080fd5b6102276004803603602081101561022057600080fd5b50356106f6565b60408051918252519081900360200190f35b6102606004803603602081101561024f57600080fd5b50356001600160e01b031916610700565b604080519115158252519081900360200190f35b61027c61071f565b6040805160208082528351818301528351919283929083019185019080838360005b838110156102b657818101518382015260200161029e565b50505050905090810190601f1680156102e35780820380516001836020036101000a031916815260200191505b509250505060405180910390f35b61030e6004803603602081101561030757600080fd5b50356107b5565b604080516001600160a01b039092168252519081900360200190f35b6103566004803603604081101561034057600080fd5b506001600160a01b038135169060200135610817565b005b61030e6108f2565b610227610901565b610227610907565b6103566004803603606081101561038657600080fd5b506001600160a01b03813581169160208101359091169060400135610918565b610356600480360360208110156103bc57600080fd5b503561096f565b610227600480360360408110156103d957600080fd5b506001600160a01b0381351690602001356109c4565b6102276004803603602081101561040557600080fd5b50356109ef565b6103566004803603606081101561042257600080fd5b506001600160a01b03813581169160208101359091169060400135610a01565b6102276004803603602081101561045857600080fd5b5035610a1c565b6103566004803603602081101561047557600080fd5b5035610a32565b610227610a87565b610227610a8d565b61030e600480360360208110156104a257600080fd5b5035610a93565b61027c610abb565b610227600480360360208110156104c757600080fd5b50356001600160a01b0316610b1c565b610356600480360360408110156104ed57600080fd5b5080359060200135610b84565b6103566004803603602081101561051057600080fd5b503563ffffffff166110aa565b610227611116565b6103566004803603604081101561053b57600080fd5b5080359060200135611122565b61027c6111ad565b6103566004803603602081101561056657600080fd5b503561120e565b6103566004803603604081101561058357600080fd5b506001600160a01b0381351690602001351515611263565b610356600480360360808110156105b157600080fd5b6001600160a01b038235811692602081013590911691604082013591908101906080810160608201356401000000008111156105ec57600080fd5b8201836020820111156105fe57600080fd5b8035906020019184600183028401116401000000008311171561062057600080fd5b91908080601f016020809104026020016040519081016040528093929190818152602001838380828437600092019190915250929550611368945050505050565b6102276113c6565b61027c6004803603602081101561067f57600080fd5b50356113cc565b6102276004803603602081101561069c57600080fd5b503561164f565b610260600480360360408110156106b957600080fd5b506001600160a01b0381358116916020013516611660565b610356600480360360208110156106e757600080fd5b503561168e565b6103566116e3565b602881025b919050565b6001600160e01b03191660009081526001602052604090205460ff1690565b60078054604080516020601f60026000196101006001881615020190951694909404938401819004810282018101909252828152606093909290918301828280156107ab5780601f10610780576101008083540402835291602001916107ab565b820191906000526020600020905b81548152906001019060200180831161078e57829003601f168201915b5050505050905090565b60006107c0826118ce565b6107fb5760405162461bcd60e51b815260040180806020018281038252602c815260200180612fe2602c913960400191505060405180910390fd5b506000908152600560205260409020546001600160a01b031690565b600061082282610a93565b9050806001600160a01b0316836001600160a01b031614156108755760405162461bcd60e51b81526004018080602001828103825260218152602001806130666021913960400191505060405180910390fd5b806001600160a01b03166108876118db565b6001600160a01b031614806108a857506108a8816108a36118db565b611660565b6108e35760405162461bcd60e51b8152600401808060200182810382526038815260200180612f356038913960400191505060405180910390fd5b6108ed83836118df565b505050565b6000546001600160a01b031690565b60175490565b6000610913600361194d565b905090565b6109296109236118db565b82611958565b6109645760405162461bcd60e51b81526004018080602001828103825260318152602001806130876031913960400191505060405180910390fd5b6108ed8383836119fc565b33806109796108f2565b6001600160a01b0316146109be5760405162461bcd60e51b8152600401808060200182810382526028815260200180612e976028913960400191505060405180910390fd5b50601655565b6001600160a01b03821660009081526002602052604081206109e69083611b48565b90505b92915050565b601954026801158e460913d000000290565b6108ed83838360405180602001604052806000815250611368565b600080610a2a600384611b54565b509392505050565b3380610a3c6108f2565b6001600160a01b031614610a815760405162461bcd60e51b8152600401808060200182810382526028815260200180612e976028913960400191505060405180910390fd5b50601755565b60185490565b60165490565b60006109e982604051806060016040528060298152602001612f976029913960039190611b70565b600a8054604080516020601f60026000196101006001881615020190951694909404938401819004810282018101909252828152606093909290918301828280156107ab5780601f10610780576101008083540402835291602001916107ab565b60006001600160a01b038216610b635760405162461bcd60e51b815260040180806020018281038252602a815260200180612f6d602a913960400191505060405180910390fd5b6001600160a01b03821660009081526002602052604090206109e99061194d565b816013600060118381548110610b9657fe5b600091825260208083206007929092029091016005015483528201929092526040019020546001600160a01b03163314610c10576040805162461bcd60e51b81526020600482015260166024820152752a9030b932b713ba103a34329037333a1027bbb732b960511b604482015290519081900360640190fd5b33610c1a8361164f565b600c5460408051633db1cdbf60e21b81526001600160a01b03858116600483015291518493929092169163f6c736fc91602480820192602092909190829003018186803b158015610c6a57600080fd5b505afa158015610c7e573d6000803e3d6000fd5b505050506040513d6020811015610c9457600080fd5b50511015610cda576040805162461bcd60e51b815260206004820152600e60248201526d4e6f7420656e6f75676820554a4760901b604482015290519081900360640190fd5b844260118281548110610ce957fe5b600091825260209091206004600790920201015463ffffffff161115610d4e576040805162461bcd60e51b815260206004820152601560248201527413195d081c995cdd081e5bdd5c8814dd1d59195b9d605a1b604482015290519081900360640190fd5b8560118181548110610d5c57fe5b600091825260209091206006600790920201015460ff1615610dc5576040805162461bcd60e51b815260206004820152601960248201527f5468652053747564656e742061726520696e206d61726b657400000000000000604482015290519081900360640190fd5b60018610158015610dd75750600a8611155b610e18576040805162461bcd60e51b815260206004820152600d60248201526c125b9d985b1a590813195d995b609a1b604482015290519081900360640190fd5b610e20612d3b565b60118881548110610e2d57fe5b90600052602060002090600702016040518060e0016040529081600082015481526020016001820154815260200160028201548152602001600382018054600181600116156101000203166002900480601f016020809104026020016040519081016040528092919081815260200182805460018160011615610100020316600290048015610efd5780601f10610ed257610100808354040283529160200191610efd565b820191906000526020600020905b815481529060010190602001808311610ee057829003601f168201915b5050509183525050600482015463ffffffff166020808301919091526005830154604083015260069092015460ff161515606090910152810151909150610f4357600080fd5b610f4b611b87565b506000610f57886106f6565b33600090815260156020526040812054919250906064900660010190506000836020015184604001518301019050610f8e8b611cad565b6000610f998b61164f565b9050610fa58133611cfb565b8184116110315760026014850402610fbd8d82611d7b565b6000610fc88d6109ef565b9050610fd48133611e01565b604080516001815260208101869052808201889052606081018490526080810187905260a0810183905290517fc1c89f12581ef4543f5451c1f84ff0ed0bfb24e4a0ae8f507dd335e411d5d05f9181900360c00190a1505061109c565b6002600a8504026110428d82611d7b565b60408051600080825260208201869052818301889052606082018490526080820187905284900360a082015290517fc1c89f12581ef4543f5451c1f84ff0ed0bfb24e4a0ae8f507dd335e411d5d05f9181900360c00190a1505b505050505050505050505050565b33806110b46108f2565b6001600160a01b0316146110f95760405162461bcd60e51b8152600401808060200182810382526028815260200180612e976028913960400191505060405180910390fd5b50600e805463ffffffff191663ffffffff92909216919091179055565b600e5463ffffffff1690565b336001600160a01b037f0000000000000000000000000000000000000000000000000000000000000000161461119f576040805162461bcd60e51b815260206004820152601f60248201527f4f6e6c7920565246436f6f7264696e61746f722063616e2066756c66696c6c00604482015290519081900360640190fd5b6111a98282611e82565b5050565b60088054604080516020601f60026000196101006001881615020190951694909404938401819004810282018101909252828152606093909290918301828280156107ab5780601f10610780576101008083540402835291602001916107ab565b33806112186108f2565b6001600160a01b03161461125d5760405162461bcd60e51b8152600401808060200182810382526028815260200180612e976028913960400191505060405180910390fd5b50601955565b61126b6118db565b6001600160a01b0316826001600160a01b031614156112d1576040805162461bcd60e51b815260206004820152601960248201527f4552433732313a20617070726f766520746f2063616c6c657200000000000000604482015290519081900360640190fd5b80600660006112de6118db565b6001600160a01b03908116825260208083019390935260409182016000908120918716808252919093529120805460ff1916921515929092179091556113226118db565b6001600160a01b03167f17307eab39ab6107e8899845ad3d59bd9653f200f220920489ca2b5937696c318360405180821515815260200191505060405180910390a35050565b6113796113736118db565b83611958565b6113b45760405162461bcd60e51b81526004018080602001828103825260318152602001806130876031913960400191505060405180910390fd5b6113c084848484611eaa565b50505050565b60195490565b60606113d7826118ce565b6114125760405162461bcd60e51b815260040180806020018281038252602f815260200180613037602f913960400191505060405180910390fd5b60008281526009602090815260409182902080548351601f60026000196101006001861615020190931692909204918201849004840281018401909452808452606093928301828280156114a75780601f1061147c576101008083540402835291602001916114a7565b820191906000526020600020905b81548152906001019060200180831161148a57829003601f168201915b5050505050905060606114b8610abb565b90508051600014156114cc575090506106fb565b81511561158d5780826040516020018083805190602001908083835b602083106115075780518252601f1990920191602091820191016114e8565b51815160209384036101000a600019018019909216911617905285519190930192850191508083835b6020831061154f5780518252601f199092019160209182019101611530565b6001836020036101000a03801982511681845116808217855250505050505090500192505050604051602081830303815290604052925050506106fb565b8061159785611efc565b6040516020018083805190602001908083835b602083106115c95780518252601f1990920191602091820191016115aa565b51815160209384036101000a600019018019909216911617905285519190930192850191508083835b602083106116115780518252601f1990920191602091820191016115f2565b6001836020036101000a0380198251168184511680821785525050505050509050019250505060405160208183030381529060405292505050919050565b60185402678ac7230489e800000290565b6001600160a01b03918216600090815260066020908152604080832093909416825291909152205460ff1690565b33806116986108f2565b6001600160a01b0316146116dd5760405162461bcd60e51b8152600401808060200182810382526028815260200180612e976028913960400191505060405180910390fd5b50601855565b601654600c5460408051633db1cdbf60e21b81523360048201819052915191939283926001600160a01b039091169163f6c736fc916024808301926020929190829003018186803b15801561173757600080fd5b505afa15801561174b573d6000803e3d6000fd5b505050506040513d602081101561176157600080fd5b505110156117a7576040805162461bcd60e51b815260206004820152600e60248201526d4e6f7420656e6f75676820554a4760901b604482015290519081900360640190fd5b6117b360165433611cfb565b600f546117be612d3b565b6117c782611fd7565b336000818152601260209081526040808320805460010190558683526013909152902080546001600160a01b031916821790559091506118079083612244565b7f319ec0c4f5923a08e9d5fb646ddf9c5ee3d502e7a45118f7ea3ba28312bb55d781606001518260000151836020015184604001516040518080602001858152602001848152602001838152602001828103825286818151815260200191508051906020019080838360005b8381101561188b578181015183820152602001611873565b50505050905090810190601f1680156118b85780820380516001836020036101000a031916815260200191505b509550505050505060405180910390a150505050565b60006109e960038361225e565b3390565b600081815260056020526040902080546001600160a01b0319166001600160a01b038416908117909155819061191482610a93565b6001600160a01b03167f8c5be1e5ebec7d5bd14f71427d1e84f3dd0314c0f7b2291e5b200ac8c7c3b92560405160405180910390a45050565b60006109e98261226a565b6000611963826118ce565b61199e5760405162461bcd60e51b815260040180806020018281038252602c815260200180612f09602c913960400191505060405180910390fd5b60006119a983610a93565b9050806001600160a01b0316846001600160a01b031614806119e45750836001600160a01b03166119d9846107b5565b6001600160a01b0316145b806119f457506119f48185611660565b949350505050565b826001600160a01b0316611a0f82610a93565b6001600160a01b031614611a545760405162461bcd60e51b815260040180806020018281038252602981526020018061300e6029913960400191505060405180910390fd5b6001600160a01b038216611a995760405162461bcd60e51b8152600401808060200182810382526024815260200180612ebf6024913960400191505060405180910390fd5b611aa48383836108ed565b611aaf6000826118df565b6001600160a01b0383166000908152600260205260409020611ad1908261226e565b506001600160a01b0382166000908152600260205260409020611af4908261227a565b50611b0160038284612286565b5080826001600160a01b0316846001600160a01b03167fddf252ad1be2c89b69c2b068fc378daa952ba7f163c4a11628f55a4df523b3ef60405160405180910390a4505050565b60006109e6838361229c565b6000808080611b638686612300565b9097909650945050505050565b6000611b7d84848461237b565b90505b9392505050565b6000601b547f00000000000000000000000000000000000000000000000000000000000000006001600160a01b03166370a08231306040518263ffffffff1660e01b815260040180826001600160a01b0316815260200191505060206040518083038186803b158015611bf957600080fd5b505afa158015611c0d573d6000803e3d6000fd5b505050506040513d6020811015611c2357600080fd5b50511015611c625760405162461bcd60e51b815260040180806020018281038252602f815260200180612e68602f913960400191505060405180910390fd5b6000611c72601a54601b54612445565b600081815260146020908152604080832080546001600160a01b031916339081179091558352601590915290206464ae71f0f0905591505090565b600e546011805463ffffffff90921642019183908110611cc957fe5b906000526020600020906007020160040160006101000a81548163ffffffff021916908363ffffffff16021790555050565b600c5460408051633844b70760e01b81526001600160a01b0384811660048301523060248301526044820186905291519190921691633844b70791606480830192600092919082900301818387803b158015611d5657600080fd5b505af1158015611d6a573d6000803e3d6000fd5b5050600d8054909401909355505050565b6017548102905060008160118481548110611d9257fe5b906000526020600020906007020160010154031015611dd457600060118381548110611dba57fe5b9060005260206000209060070201600101819055506111a9565b8060118381548110611de257fe5b6000918252602090912060016007909202010180549190910390555050565b600c5460408051633844b70760e01b81523060048201526001600160a01b0384811660248301526044820186905291519190921691633844b70791606480830192600092919082900301818387803b158015611e5c57600080fd5b505af1158015611e70573d6000803e3d6000fd5b5050600d805494909403909355505050565b6000918252601460209081526040808420546001600160a01b03168452601590915290912055565b611eb58484846119fc565b611ec1848484846125f0565b6113c05760405162461bcd60e51b8152600401808060200182810382526032815260200180612e366032913960400191505060405180910390fd5b606081611f2157506040805180820190915260018152600360fc1b60208201526106fb565b8160005b8115611f3957600101600a82049150611f25565b60608167ffffffffffffffff81118015611f5257600080fd5b506040519080825280601f01601f191660200182016040528015611f7d576020820181803683370190505b50859350905060001982015b8315611fce57600a840660300160f81b82828060019003935081518110611fac57fe5b60200101906001600160f81b031916908160001a905350600a84049350611f89565b50949350505050565b611fdf612d3b565b611fe7611b87565b50336000908152601560205260408120549060016003830681019190821415612017575060016064830601612036565b816002141561202d575060656064830601612036565b5060c960648306015b6001606460328502060160606010601986068154811061205257fe5b600091825260209182902001805460408051601f60026000196101006001871615020190941693909304928301859004850281018501909152818152928301828280156120e05780601f106120b5576101008083540402835291602001916120e0565b820191906000526020600020905b8154815290600101906020018083116120c357829003601f168201915b505050505090506120ef612d3b565b506040805160e0810182528581526020808201868152928201858152606083018581524263ffffffff16608085015260a084018c9052600060c0850181905260118054600181018255915284517f31ecc21a745e3968a04e9570e4425bc18fa8019c68028196b546d1669c200c68600790920291820190815595517f31ecc21a745e3968a04e9570e4425bc18fa8019c68028196b546d1669c200c6982015591517f31ecc21a745e3968a04e9570e4425bc18fa8019c68028196b546d1669c200c6a8301555180519394859490936121eb937f31ecc21a745e3968a04e9570e4425bc18fa8019c68028196b546d1669c200c6b01920190612d80565b50608082015160048201805463ffffffff191663ffffffff90921691909117905560a0820151600582015560c0909101516006909101805460ff1916911515919091179055600f80546001019055979650505050505050565b6111a9828260405180602001604052806000815250612758565b60006109e683836127aa565b5490565b60006109e683836127c2565b60006109e68383612888565b6000611b7d84846001600160a01b0385166128d2565b815460009082106122de5760405162461bcd60e51b8152600401808060200182810382526022815260200180612e146022913960400191505060405180910390fd5b8260000182815481106122ed57fe5b9060005260206000200154905092915050565b8154600090819083106123445760405162461bcd60e51b8152600401808060200182810382526022815260200180612fc06022913960400191505060405180910390fd5b600084600001848154811061235557fe5b906000526020600020906002020190508060000154816001015492509250509250929050565b600082815260018401602052604081205482816124165760405162461bcd60e51b81526004018080602001828103825283818151815260200191508051906020019080838360005b838110156123db5781810151838201526020016123c3565b50505050905090810190601f1680156124085780820380516001836020036101000a031916815260200191505b509250505060405180910390fd5b5084600001600182038154811061242957fe5b9060005260206000209060020201600101549150509392505050565b60007f00000000000000000000000000000000000000000000000000000000000000006001600160a01b0316634000aea07f00000000000000000000000000000000000000000000000000000000000000008486600060405160200180838152602001828152602001925050506040516020818303038152906040526040518463ffffffff1660e01b815260040180846001600160a01b0316815260200183815260200180602001828103825283818151815260200191508051906020019080838360005b8381101561252257818101518382015260200161250a565b50505050905090810190601f16801561254f5780820380516001836020036101000a031916815260200191505b50945050505050602060405180830381600087803b15801561257057600080fd5b505af1158015612584573d6000803e3d6000fd5b505050506040513d602081101561259a57600080fd5b50506000838152600b60205260408120546125ba90859083903090612969565b6000858152600b60205260409020549091506125d79060016129b0565b6000858152600b60205260409020556119f48482612a0a565b6000612604846001600160a01b0316612a36565b612610575060016119f4565b606061271e630a85bd0160e11b6126256118db565b88878760405160240180856001600160a01b03168152602001846001600160a01b0316815260200183815260200180602001828103825283818151815260200191508051906020019080838360005b8381101561268c578181015183820152602001612674565b50505050905090810190601f1680156126b95780820380516001836020036101000a031916815260200191505b5095505050505050604051602081830303815290604052906001600160e01b0319166020820180516001600160e01b038381831617835250505050604051806060016040528060328152602001612e36603291396001600160a01b0388169190612a3c565b9050600081806020019051602081101561273757600080fd5b50516001600160e01b031916630a85bd0160e11b1492505050949350505050565b6127628383612a4b565b61276f60008484846125f0565b6108ed5760405162461bcd60e51b8152600401808060200182810382526032815260200180612e366032913960400191505060405180910390fd5b60009081526001919091016020526040902054151590565b6000818152600183016020526040812054801561287e57835460001980830191908101906000908790839081106127f557fe5b906000526020600020015490508087600001848154811061281257fe5b60009182526020808320909101929092558281526001898101909252604090209084019055865487908061284257fe5b600190038181906000526020600020016000905590558660010160008781526020019081526020016000206000905560019450505050506109e9565b60009150506109e9565b600061289483836127aa565b6128ca575081546001818101845560008481526020808220909301849055845484825282860190935260409020919091556109e9565b5060006109e9565b600082815260018401602052604081205480612937575050604080518082018252838152602080820184815286546001818101895560008981528481209551600290930290950191825591519082015586548684528188019092529290912055611b80565b8285600001600183038154811061294a57fe5b9060005260206000209060020201600101819055506000915050611b80565b60408051602080820196909652808201949094526001600160a01b039290921660608401526080808401919091528151808403909101815260a09092019052805191012090565b6000828201838110156109e6576040805162461bcd60e51b815260206004820152601b60248201527f536166654d6174683a206164646974696f6e206f766572666c6f770000000000604482015290519081900360640190fd5b604080516020808201949094528082019290925280518083038201815260609092019052805191012090565b3b151590565b6060611b7d8484600085612b79565b6001600160a01b038216612aa6576040805162461bcd60e51b815260206004820181905260248201527f4552433732313a206d696e7420746f20746865207a65726f2061646472657373604482015290519081900360640190fd5b612aaf816118ce565b15612b01576040805162461bcd60e51b815260206004820152601c60248201527f4552433732313a20746f6b656e20616c7265616479206d696e74656400000000604482015290519081900360640190fd5b612b0d600083836108ed565b6001600160a01b0382166000908152600260205260409020612b2f908261227a565b50612b3c60038284612286565b5060405181906001600160a01b038416906000907fddf252ad1be2c89b69c2b068fc378daa952ba7f163c4a11628f55a4df523b3ef908290a45050565b606082471015612bba5760405162461bcd60e51b8152600401808060200182810382526026815260200180612ee36026913960400191505060405180910390fd5b612bc385612a36565b612c14576040805162461bcd60e51b815260206004820152601d60248201527f416464726573733a2063616c6c20746f206e6f6e2d636f6e7472616374000000604482015290519081900360640190fd5b60006060866001600160a01b031685876040518082805190602001908083835b60208310612c535780518252601f199092019160209182019101612c34565b6001836020036101000a03801982511681845116808217855250505050505090500191505060006040518083038185875af1925050503d8060008114612cb5576040519150601f19603f3d011682016040523d82523d6000602084013e612cba565b606091505b5091509150612cca828286612cd5565b979650505050505050565b60608315612ce4575081611b80565b825115612cf45782518084602001fd5b60405162461bcd60e51b81526020600482018181528451602484015284518593919283926044019190850190808383600083156123db5781810151838201526020016123c3565b6040518060e0016040528060008152602001600081526020016000815260200160608152602001600063ffffffff168152602001600081526020016000151581525090565b828054600181600116156101000203166002900490600052602060002090601f016020900481019282601f10612dc157805160ff1916838001178555612dee565b82800160010185558215612dee579182015b82811115612dee578251825591602001919060010190612dd3565b50612dfa929150612dfe565b5090565b5b80821115612dfa5760008155600101612dff56fe456e756d657261626c655365743a20696e646578206f7574206f6620626f756e64734552433732313a207472616e7366657220746f206e6f6e20455243373231526563656976657220696d706c656d656e7465724e6f7420656e6f756768204c494e4b202d2066696c6c2074686520636f6e74726163742077697468206661756365744f574e45523a2043616c6c6572206172656e60742074686520436f6e7472616374204f776e6572214552433732313a207472616e7366657220746f20746865207a65726f2061646472657373416464726573733a20696e73756666696369656e742062616c616e636520666f722063616c6c4552433732313a206f70657261746f7220717565727920666f72206e6f6e6578697374656e7420746f6b656e4552433732313a20617070726f76652063616c6c6572206973206e6f74206f776e6572206e6f7220617070726f76656420666f7220616c6c4552433732313a2062616c616e636520717565727920666f7220746865207a65726f20616464726573734552433732313a206f776e657220717565727920666f72206e6f6e6578697374656e7420746f6b656e456e756d657261626c654d61703a20696e646578206f7574206f6620626f756e64734552433732313a20617070726f76656420717565727920666f72206e6f6e6578697374656e7420746f6b656e4552433732313a207472616e73666572206f6620746f6b656e2074686174206973206e6f74206f776e4552433732314d657461646174613a2055524920717565727920666f72206e6f6e6578697374656e7420746f6b656e4552433732313a20617070726f76616c20746f2063757272656e74206f776e65724552433732313a207472616e736665722063616c6c6572206973206e6f74206f776e6572206e6f7220617070726f766564a264697066735822122007c3831f8f68adf0e6b1288d9e7d1928ef512b4f7482d2c05c622f22297e2ece64736f6c634300060c0033",
  "bytecodeSha1": "cf8e743e35b186474b2d814be04c628ccdcc696a",
  "compiler": {
    "evm_version": "istanbul",
    "optimizer": {
      "enabled": true,
      "runs": 200
    },
    "version": "0.6.12+commit.27d51765"
  },
  "contractName": "StudentsNft",
  "language": "Solidity",
  "natspec": {
    "details": "Full implementation of an ERC721, VRFConsumerBase, Ownable, Strings contracts      Description:   Project made for the presentation of a university thesis, based on the studies    and databases of the blockchain to create a game, made to be run on Kovan Test    Blockchain, Local Blockchain and Main Ethereum Blockchain.   This contract (StudentsNft) contains all the elements for the construction and operation of the NFT      Author: https://github.com/simetb      ",
    "kind": "dev",
    "methods": {
      "Attack(uint256,uint256)": {
        "details": "Function that get the nft and attack the level    Requirements:  - The `levelNumber` cannot be a value below than 1 an upper than 10 - The stat of `_intelligenceLevel` from `Student` need to be greater than 0 - You need to be the student owner - Enough token to attack - Your NFT need to be rest - Your NFT It should not be in the marketplace"
      },
      "CreateNftStudent()": {
        "details": "Mint a nft and associate with the owner   get the `newId` from the number of total nft, take the random number and generate the stats   and save it   Requirements:    - You can only create a student nft if you have the full price token in ur wallet"
      },
      "GetAttackPriceMultiplicator()": {
        "details": "Get the `_attackPriceMultiplicator`"
      },
      "GetCoolDownTime()": {
        "details": "Get `_coolDownTime`"
      },
      "GetNftPrice()": {
        "details": "Get the value nft price mint function"
      },
      "GetOwner()": {
        "details": "get the owner of the contract"
      },
      "GetPowerLevel(uint256)": {
        "details": "Get the power level"
      },
      "GetRewardMultiplicator()": {
        "details": "Get the `_rewardPriceMultiplicator`"
      },
      "GetTotalAttackPrice(uint256)": {
        "details": "Get the Total attack price"
      },
      "GetWearMultiplicator()": {
        "details": "Get the `_wearMultiplicator`"
      },
      "Reward(uint256)": {
        "details": "Get the level reward"
      },
      "SetAttackPriceMultiplicator(uint256)": {
        "details": "Set the new `AttackMultiplicator`   Requirement:    - Only the contract owner can set a `AttackMultiplicator`"
      },
      "SetCoolDownTime(uint32)": {
        "details": "Change the CoolDownTime value      Requirements: - Only the owner can set a new `_coolDownTime` "
      },
      "SetNftPrice(uint256)": {
        "details": "Set the new `NftPrice`   Requirement:    - Only the contract owner can set a `NftPrice`"
      },
      "SetRewardMultiplicator(uint256)": {
        "details": "Set the new `RewardMultiplicator`   Requirement:    - Only the contract owner can set a `RewardMultiplicator`"
      },
      "SetWearMultiplicator(uint256)": {
        "details": "Set the new `WearMultiplicator`   Requirement:    - Only the contract owner can set a `WearMultiplicator`"
      },
      "approve(address,uint256)": {
        "details": "See {IERC721-approve}."
      },
      "balanceOf(address)": {
        "details": "See {IERC721-balanceOf}."
      },
      "baseURI()": {
        "details": "Returns the base URI set via {_setBaseURI}. This will be automatically added as a prefix in {tokenURI} to each token's URI, or to the token ID if no specific URI is set for that token ID."
      },
      "getApproved(uint256)": {
        "details": "See {IERC721-getApproved}."
      },
      "isApprovedForAll(address,address)": {
        "details": "See {IERC721-isApprovedForAll}."
      },
      "name()": {
        "details": "See {IERC721Metadata-name}."
      },
      "ownerOf(uint256)": {
        "details": "See {IERC721-ownerOf}."
      },
      "safeTransferFrom(address,address,uint256)": {
        "details": "See {IERC721-safeTransferFrom}."
      },
      "safeTransferFrom(address,address,uint256,bytes)": {
        "details": "See {IERC721-safeTransferFrom}."
      },
      "setApprovalForAll(address,bool)": {
        "details": "See {IERC721-setApprovalForAll}."
      },
      "supportsInterface(bytes4)": {
        "details": "See {IERC165-supportsInterface}. Time complexity O(1), guaranteed to always use less than 30 000 gas."
      },
      "symbol()": {
        "details": "See {IERC721Metadata-symbol}."
      },
      "tokenByIndex(uint256)": {
        "details": "See {IERC721Enumerable-tokenByIndex}."
      },
      "tokenOfOwnerByIndex(address,uint256)": {
        "details": "See {IERC721Enumerable-tokenOfOwnerByIndex}."
      },
      "tokenURI(uint256)": {
        "details": "See {IERC721Metadata-tokenURI}."
      },
      "totalSupply()": {
        "details": "See {IERC721Enumerable-totalSupply}."
      },
      "transferFrom(address,address,uint256)": {
        "details": "See {IERC721-transferFrom}."
      }
    },
    "stateVariables": {
      "_nftOwnerCount": {
        "details": "Variable mapping for the correct control and distribution of prizes and NFT"
      },
      "_nftPrice": {
        "details": "The control variables are used to adjust the prices,    prizes and consequences that the nfts bring if necessary."
      },
      "keyhash": {
        "details": "Kovan Default Blockhain Implementation   `_keyhash` kovan default = 0x6c3699283bda56ad74f6b855546325b68d482e983852a7a82979cc4807b641f4   `_fee` kovan default = 100000000000000000   `_VRFCoordinator` = 0xdD3782915140c8f3b190B5D67eAc6dc5760C46E9   `_linkToken` = 0xa36085F69e2889c224210F603D836748e7dC0088"
      }
    },
    "title": "`Ujap students` game full solidity nft contract",
    "version": 1
  },
  "opcodes": "PUSH1 0x80 PUSH1 0x40 MSTORE CALLVALUE DUP1 ISZERO PUSH2 0x10 JUMPI PUSH1 0x0 DUP1 REVERT JUMPDEST POP PUSH1 0x4 CALLDATASIZE LT PUSH2 0x205 JUMPI PUSH1 0x0 CALLDATALOAD PUSH1 0xE0 SHR DUP1 PUSH4 0x6352211E GT PUSH2 0x11A JUMPI DUP1 PUSH4 0xA18BAF7B GT PUSH2 0xAD JUMPI DUP1 PUSH4 0xC87B56DD GT PUSH2 0x7C JUMPI DUP1 PUSH4 0xC87B56DD EQ PUSH2 0x669 JUMPI DUP1 PUSH4 0xCB9A5BAB EQ PUSH2 0x686 JUMPI DUP1 PUSH4 0xE985E9C5 EQ PUSH2 0x6A3 JUMPI DUP1 PUSH4 0xEE7931FB EQ PUSH2 0x6D1 JUMPI DUP1 PUSH4 0xF7C03E5D EQ PUSH2 0x6EE JUMPI PUSH2 0x205 JUMP JUMPDEST DUP1 PUSH4 0xA18BAF7B EQ PUSH2 0x550 JUMPI DUP1 PUSH4 0xA22CB465 EQ PUSH2 0x56D JUMPI DUP1 PUSH4 0xB88D4FDE EQ PUSH2 0x59B JUMPI DUP1 PUSH4 0xC75F40CE EQ PUSH2 0x661 JUMPI PUSH2 0x205 JUMP JUMPDEST DUP1 PUSH4 0x76C05647 GT PUSH2 0xE9 JUMPI DUP1 PUSH4 0x76C05647 EQ PUSH2 0x4FA JUMPI DUP1 PUSH4 0x92652035 EQ PUSH2 0x51D JUMPI DUP1 PUSH4 0x94985DDD EQ PUSH2 0x525 JUMPI DUP1 PUSH4 0x95D89B41 EQ PUSH2 0x548 JUMPI PUSH2 0x205 JUMP JUMPDEST DUP1 PUSH4 0x6352211E EQ PUSH2 0x48C JUMPI DUP1 PUSH4 0x6C0360EB EQ PUSH2 0x4A9 JUMPI DUP1 PUSH4 0x70A08231 EQ PUSH2 0x4B1 JUMPI DUP1 PUSH4 0x722BF249 EQ PUSH2 0x4D7 JUMPI PUSH2 0x205 JUMP JUMPDEST DUP1 PUSH4 0x23B872DD GT PUSH2 0x19D JUMPI DUP1 PUSH4 0x42842E0E GT PUSH2 0x16C JUMPI DUP1 PUSH4 0x42842E0E EQ PUSH2 0x40C JUMPI DUP1 PUSH4 0x4F6CCCE7 EQ PUSH2 0x442 JUMPI DUP1 PUSH4 0x4FBCD3C6 EQ PUSH2 0x45F JUMPI DUP1 PUSH4 0x5482AB28 EQ PUSH2 0x47C JUMPI DUP1 PUSH4 0x5CC92DB3 EQ PUSH2 0x484 JUMPI PUSH2 0x205 JUMP JUMPDEST DUP1 PUSH4 0x23B872DD EQ PUSH2 0x370 JUMPI DUP1 PUSH4 0x27DD4258 EQ PUSH2 0x3A6 JUMPI DUP1 PUSH4 0x2F745C59 EQ PUSH2 0x3C3 JUMPI DUP1 PUSH4 0x3AC0594A EQ PUSH2 0x3EF JUMPI PUSH2 0x205 JUMP JUMPDEST DUP1 PUSH4 0x95EA7B3 GT PUSH2 0x1D9 JUMPI DUP1 PUSH4 0x95EA7B3 EQ PUSH2 0x32A JUMPI DUP1 PUSH4 0xAE50A39 EQ PUSH2 0x358 JUMPI DUP1 PUSH4 0x11F25685 EQ PUSH2 0x360 JUMPI DUP1 PUSH4 0x18160DDD EQ PUSH2 0x368 JUMPI PUSH2 0x205 JUMP JUMPDEST DUP1 PUSH3 0xFC964A EQ PUSH2 0x20A JUMPI DUP1 PUSH4 0x1FFC9A7 EQ PUSH2 0x239 JUMPI DUP1 PUSH4 0x6FDDE03 EQ PUSH2 0x274 JUMPI DUP1 PUSH4 0x81812FC EQ PUSH2 0x2F1 JUMPI JUMPDEST PUSH1 0x0 DUP1 REVERT JUMPDEST PUSH2 0x227 PUSH1 0x4 DUP1 CALLDATASIZE SUB PUSH1 0x20 DUP2 LT ISZERO PUSH2 0x220 JUMPI PUSH1 0x0 DUP1 REVERT JUMPDEST POP CALLDATALOAD PUSH2 0x6F6 JUMP JUMPDEST PUSH1 0x40 DUP1 MLOAD SWAP2 DUP3 MSTORE MLOAD SWAP1 DUP2 SWAP1 SUB PUSH1 0x20 ADD SWAP1 RETURN JUMPDEST PUSH2 0x260 PUSH1 0x4 DUP1 CALLDATASIZE SUB PUSH1 0x20 DUP2 LT ISZERO PUSH2 0x24F JUMPI PUSH1 0x0 DUP1 REVERT JUMPDEST POP CALLDATALOAD PUSH1 0x1 PUSH1 0x1 PUSH1 0xE0 SHL SUB NOT AND PUSH2 0x700 JUMP JUMPDEST PUSH1 0x40 DUP1 MLOAD SWAP2 ISZERO ISZERO DUP3 MSTORE MLOAD SWAP1 DUP2 SWAP1 SUB PUSH1 0x20 ADD SWAP1 RETURN JUMPDEST PUSH2 0x27C PUSH2 0x71F JUMP JUMPDEST PUSH1 0x40 DUP1 MLOAD PUSH1 0x20 DUP1 DUP3 MSTORE DUP4 MLOAD DUP2 DUP4 ADD MSTORE DUP4 MLOAD SWAP2 SWAP3 DUP4 SWAP3 SWAP1 DUP4 ADD SWAP2 DUP6 ADD SWAP1 DUP1 DUP4 DUP4 PUSH1 0x0 JUMPDEST DUP4 DUP2 LT ISZERO PUSH2 0x2B6 JUMPI DUP2 DUP2 ADD MLOAD DUP4 DUP3 ADD MSTORE PUSH1 0x20 ADD PUSH2 0x29E JUMP JUMPDEST POP POP POP POP SWAP1 POP SWAP1 DUP2 ADD SWAP1 PUSH1 0x1F AND DUP1 ISZERO PUSH2 0x2E3 JUMPI DUP1 DUP3 SUB DUP1 MLOAD PUSH1 0x1 DUP4 PUSH1 0x20 SUB PUSH2 0x100 EXP SUB NOT AND DUP2 MSTORE PUSH1 0x20 ADD SWAP2 POP JUMPDEST POP SWAP3 POP POP POP PUSH1 0x40 MLOAD DUP1 SWAP2 SUB SWAP1 RETURN JUMPDEST PUSH2 0x30E PUSH1 0x4 DUP1 CALLDATASIZE SUB PUSH1 0x20 DUP2 LT ISZERO PUSH2 0x307 JUMPI PUSH1 0x0 DUP1 REVERT JUMPDEST POP CALLDATALOAD PUSH2 0x7B5 JUMP JUMPDEST PUSH1 0x40 DUP1 MLOAD PUSH1 0x1 PUSH1 0x1 PUSH1 0xA0 SHL SUB SWAP1 SWAP3 AND DUP3 MSTORE MLOAD SWAP1 DUP2 SWAP1 SUB PUSH1 0x20 ADD SWAP1 RETURN JUMPDEST PUSH2 0x356 PUSH1 0x4 DUP1 CALLDATASIZE SUB PUSH1 0x40 DUP2 LT ISZERO PUSH2 0x340 JUMPI PUSH1 0x0 DUP1 REVERT JUMPDEST POP PUSH1 0x1 PUSH1 0x1 PUSH1 0xA0 SHL SUB DUP2 CALLDATALOAD AND SWAP1 PUSH1 0x20 ADD CALLDATALOAD PUSH2 0x817 JUMP JUMPDEST STOP JUMPDEST PUSH2 0x30E PUSH2 0x8F2 JUMP JUMPDEST PUSH2 0x227 PUSH2 0x901 JUMP JUMPDEST PUSH2 0x227 PUSH2 0x907 JUMP JUMPDEST PUSH2 0x356 PUSH1 0x4 DUP1 CALLDATASIZE SUB PUSH1 0x60 DUP2 LT ISZERO PUSH2 0x386 JUMPI PUSH1 0x0 DUP1 REVERT JUMPDEST POP PUSH1 0x1 PUSH1 0x1 PUSH1 0xA0 SHL SUB DUP2 CALLDATALOAD DUP2 AND SWAP2 PUSH1 0x20 DUP2 ADD CALLDATALOAD SWAP1 SWAP2 AND SWAP1 PUSH1 0x40 ADD CALLDATALOAD PUSH2 0x918 JUMP JUMPDEST PUSH2 0x356 PUSH1 0x4 DUP1 CALLDATASIZE SUB PUSH1 0x20 DUP2 LT ISZERO PUSH2 0x3BC JUMPI PUSH1 0x0 DUP1 REVERT JUMPDEST POP CALLDATALOAD PUSH2 0x96F JUMP JUMPDEST PUSH2 0x227 PUSH1 0x4 DUP1 CALLDATASIZE SUB PUSH1 0x40 DUP2 LT ISZERO PUSH2 0x3D9 JUMPI PUSH1 0x0 DUP1 REVERT JUMPDEST POP PUSH1 0x1 PUSH1 0x1 PUSH1 0xA0 SHL SUB DUP2 CALLDATALOAD AND SWAP1 PUSH1 0x20 ADD CALLDATALOAD PUSH2 0x9C4 JUMP JUMPDEST PUSH2 0x227 PUSH1 0x4 DUP1 CALLDATASIZE SUB PUSH1 0x20 DUP2 LT ISZERO PUSH2 0x405 JUMPI PUSH1 0x0 DUP1 REVERT JUMPDEST POP CALLDATALOAD PUSH2 0x9EF JUMP JUMPDEST PUSH2 0x356 PUSH1 0x4 DUP1 CALLDATASIZE SUB PUSH1 0x60 DUP2 LT ISZERO PUSH2 0x422 JUMPI PUSH1 0x0 DUP1 REVERT JUMPDEST POP PUSH1 0x1 PUSH1 0x1 PUSH1 0xA0 SHL SUB DUP2 CALLDATALOAD DUP2 AND SWAP2 PUSH1 0x20 DUP2 ADD CALLDATALOAD SWAP1 SWAP2 AND SWAP1 PUSH1 0x40 ADD CALLDATALOAD PUSH2 0xA01 JUMP JUMPDEST PUSH2 0x227 PUSH1 0x4 DUP1 CALLDATASIZE SUB PUSH1 0x20 DUP2 LT ISZERO PUSH2 0x458 JUMPI PUSH1 0x0 DUP1 REVERT JUMPDEST POP CALLDATALOAD PUSH2 0xA1C JUMP JUMPDEST PUSH2 0x356 PUSH1 0x4 DUP1 CALLDATASIZE SUB PUSH1 0x20 DUP2 LT ISZERO PUSH2 0x475 JUMPI PUSH1 0x0 DUP1 REVERT JUMPDEST POP CALLDATALOAD PUSH2 0xA32 JUMP JUMPDEST PUSH2 0x227 PUSH2 0xA87 JUMP JUMPDEST PUSH2 0x227 PUSH2 0xA8D JUMP JUMPDEST PUSH2 0x30E PUSH1 0x4 DUP1 CALLDATASIZE SUB PUSH1 0x20 DUP2 LT ISZERO PUSH2 0x4A2 JUMPI PUSH1 0x0 DUP1 REVERT JUMPDEST POP CALLDATALOAD PUSH2 0xA93 JUMP JUMPDEST PUSH2 0x27C PUSH2 0xABB JUMP JUMPDEST PUSH2 0x227 PUSH1 0x4 DUP1 CALLDATASIZE SUB PUSH1 0x20 DUP2 LT ISZERO PUSH2 0x4C7 JUMPI PUSH1 0x0 DUP1 REVERT JUMPDEST POP CALLDATALOAD PUSH1 0x1 PUSH1 0x1 PUSH1 0xA0 SHL SUB AND PUSH2 0xB1C JUMP JUMPDEST PUSH2 0x356 PUSH1 0x4 DUP1 CALLDATASIZE SUB PUSH1 0x40 DUP2 LT ISZERO PUSH2 0x4ED JUMPI PUSH1 0x0 DUP1 REVERT JUMPDEST POP DUP1 CALLDATALOAD SWAP1 PUSH1 0x20 ADD CALLDATALOAD PUSH2 0xB84 JUMP JUMPDEST PUSH2 0x356 PUSH1 0x4 DUP1 CALLDATASIZE SUB PUSH1 0x20 DUP2 LT ISZERO PUSH2 0x510 JUMPI PUSH1 0x0 DUP1 REVERT JUMPDEST POP CALLDATALOAD PUSH4 0xFFFFFFFF AND PUSH2 0x10AA JUMP JUMPDEST PUSH2 0x227 PUSH2 0x1116 JUMP JUMPDEST PUSH2 0x356 PUSH1 0x4 DUP1 CALLDATASIZE SUB PUSH1 0x40 DUP2 LT ISZERO PUSH2 0x53B JUMPI PUSH1 0x0 DUP1 REVERT JUMPDEST POP DUP1 CALLDATALOAD SWAP1 PUSH1 0x20 ADD CALLDATALOAD PUSH2 0x1122 JUMP JUMPDEST PUSH2 0x27C PUSH2 0x11AD JUMP JUMPDEST PUSH2 0x356 PUSH1 0x4 DUP1 CALLDATASIZE SUB PUSH1 0x20 DUP2 LT ISZERO PUSH2 0x566 JUMPI PUSH1 0x0 DUP1 REVERT JUMPDEST POP CALLDATALOAD PUSH2 0x120E JUMP JUMPDEST PUSH2 0x356 PUSH1 0x4 DUP1 CALLDATASIZE SUB PUSH1 0x40 DUP2 LT ISZERO PUSH2 0x583 JUMPI PUSH1 0x0 DUP1 REVERT JUMPDEST POP PUSH1 0x1 PUSH1 0x1 PUSH1 0xA0 SHL SUB DUP2 CALLDATALOAD AND SWAP1 PUSH1 0x20 ADD CALLDATALOAD ISZERO ISZERO PUSH2 0x1263 JUMP JUMPDEST PUSH2 0x356 PUSH1 0x4 DUP1 CALLDATASIZE SUB PUSH1 0x80 DUP2 LT ISZERO PUSH2 0x5B1 JUMPI PUSH1 0x0 DUP1 REVERT JUMPDEST PUSH1 0x1 PUSH1 0x1 PUSH1 0xA0 SHL SUB DUP3 CALLDATALOAD DUP2 AND SWAP3 PUSH1 0x20 DUP2 ADD CALLDATALOAD SWAP1 SWAP2 AND SWAP2 PUSH1 0x40 DUP3 ADD CALLDATALOAD SWAP2 SWAP1 DUP2 ADD SWAP1 PUSH1 0x80 DUP2 ADD PUSH1 0x60 DUP3 ADD CALLDATALOAD PUSH5 0x100000000 DUP2 GT ISZERO PUSH2 0x5EC JUMPI PUSH1 0x0 DUP1 REVERT JUMPDEST DUP3 ADD DUP4 PUSH1 0x20 DUP3 ADD GT ISZERO PUSH2 0x5FE JUMPI PUSH1 0x0 DUP1 REVERT JUMPDEST DUP1 CALLDATALOAD SWAP1 PUSH1 0x20 ADD SWAP2 DUP5 PUSH1 0x1 DUP4 MUL DUP5 ADD GT PUSH5 0x100000000 DUP4 GT OR ISZERO PUSH2 0x620 JUMPI PUSH1 0x0 DUP1 REVERT JUMPDEST SWAP2 SWAP1 DUP1 DUP1 PUSH1 0x1F ADD PUSH1 0x20 DUP1 SWAP2 DIV MUL PUSH1 0x20 ADD PUSH1 0x40 MLOAD SWAP1 DUP2 ADD PUSH1 0x40 MSTORE DUP1 SWAP4 SWAP3 SWAP2 SWAP1 DUP2 DUP2 MSTORE PUSH1 0x20 ADD DUP4 DUP4 DUP1 DUP3 DUP5 CALLDATACOPY PUSH1 0x0 SWAP3 ADD SWAP2 SWAP1 SWAP2 MSTORE POP SWAP3 SWAP6 POP PUSH2 0x1368 SWAP5 POP POP POP POP POP JUMP JUMPDEST PUSH2 0x227 PUSH2 0x13C6 JUMP JUMPDEST PUSH2 0x27C PUSH1 0x4 DUP1 CALLDATASIZE SUB PUSH1 0x20 DUP2 LT ISZERO PUSH2 0x67F JUMPI PUSH1 0x0 DUP1 REVERT JUMPDEST POP CALLDATALOAD PUSH2 0x13CC JUMP JUMPDEST PUSH2 0x227 PUSH1 0x4 DUP1 CALLDATASIZE SUB PUSH1 0x20 DUP2 LT ISZERO PUSH2 0x69C JUMPI PUSH1 0x0 DUP1 REVERT JUMPDEST POP CALLDATALOAD PUSH2 0x164F JUMP JUMPDEST PUSH2 0x260 PUSH1 0x4 DUP1 CALLDATASIZE SUB PUSH1 0x40 DUP2 LT ISZERO PUSH2 0x6B9 JUMPI PUSH1 0x0 DUP1 REVERT JUMPDEST POP PUSH1 0x1 PUSH1 0x1 PUSH1 0xA0 SHL SUB DUP2 CALLDATALOAD DUP2 AND SWAP2 PUSH1 0x20 ADD CALLDATALOAD AND PUSH2 0x1660 JUMP JUMPDEST PUSH2 0x356 PUSH1 0x4 DUP1 CALLDATASIZE SUB PUSH1 0x20 DUP2 LT ISZERO PUSH2 0x6E7 JUMPI PUSH1 0x0 DUP1 REVERT JUMPDEST POP CALLDATALOAD PUSH2 0x168E JUMP JUMPDEST PUSH2 0x356 PUSH2 0x16E3 JUMP JUMPDEST PUSH1 0x28 DUP2 MUL JUMPDEST SWAP2 SWAP1 POP JUMP JUMPDEST PUSH1 0x1 PUSH1 0x1 PUSH1 0xE0 SHL SUB NOT AND PUSH1 0x0 SWAP1 DUP2 MSTORE PUSH1 0x1 PUSH1 0x20 MSTORE PUSH1 0x40 SWAP1 KECCAK256 SLOAD PUSH1 0xFF AND SWAP1 JUMP JUMPDEST PUSH1 0x7 DUP1 SLOAD PUSH1 0x40 DUP1 MLOAD PUSH1 0x20 PUSH1 0x1F PUSH1 0x2 PUSH1 0x0 NOT PUSH2 0x100 PUSH1 0x1 DUP9 AND ISZERO MUL ADD SWAP1 SWAP6 AND SWAP5 SWAP1 SWAP5 DIV SWAP4 DUP5 ADD DUP2 SWAP1 DIV DUP2 MUL DUP3 ADD DUP2 ADD SWAP1 SWAP3 MSTORE DUP3 DUP2 MSTORE PUSH1 0x60 SWAP4 SWAP1 SWAP3 SWAP1 SWAP2 DUP4 ADD DUP3 DUP3 DUP1 ISZERO PUSH2 0x7AB JUMPI DUP1 PUSH1 0x1F LT PUSH2 0x780 JUMPI PUSH2 0x100 DUP1 DUP4 SLOAD DIV MUL DUP4 MSTORE SWAP2 PUSH1 0x20 ADD SWAP2 PUSH2 0x7AB JUMP JUMPDEST DUP3 ADD SWAP2 SWAP1 PUSH1 0x0 MSTORE PUSH1 0x20 PUSH1 0x0 KECCAK256 SWAP1 JUMPDEST DUP2 SLOAD DUP2 MSTORE SWAP1 PUSH1 0x1 ADD SWAP1 PUSH1 0x20 ADD DUP1 DUP4 GT PUSH2 0x78E JUMPI DUP3 SWAP1 SUB PUSH1 0x1F AND DUP3 ADD SWAP2 JUMPDEST POP POP POP POP POP SWAP1 POP SWAP1 JUMP JUMPDEST PUSH1 0x0 PUSH2 0x7C0 DUP3 PUSH2 0x18CE JUMP JUMPDEST PUSH2 0x7FB JUMPI PUSH1 0x40 MLOAD PUSH3 0x461BCD PUSH1 0xE5 SHL DUP2 MSTORE PUSH1 0x4 ADD DUP1 DUP1 PUSH1 0x20 ADD DUP3 DUP2 SUB DUP3 MSTORE PUSH1 0x2C DUP2 MSTORE PUSH1 0x20 ADD DUP1 PUSH2 0x2FE2 PUSH1 0x2C SWAP2 CODECOPY PUSH1 0x40 ADD SWAP2 POP POP PUSH1 0x40 MLOAD DUP1 SWAP2 SUB SWAP1 REVERT JUMPDEST POP PUSH1 0x0 SWAP1 DUP2 MSTORE PUSH1 0x5 PUSH1 0x20 MSTORE PUSH1 0x40 SWAP1 KECCAK256 SLOAD PUSH1 0x1 PUSH1 0x1 PUSH1 0xA0 SHL SUB AND SWAP1 JUMP JUMPDEST PUSH1 0x0 PUSH2 0x822 DUP3 PUSH2 0xA93 JUMP JUMPDEST SWAP1 POP DUP1 PUSH1 0x1 PUSH1 0x1 PUSH1 0xA0 SHL SUB AND DUP4 PUSH1 0x1 PUSH1 0x1 PUSH1 0xA0 SHL SUB AND EQ ISZERO PUSH2 0x875 JUMPI PUSH1 0x40 MLOAD PUSH3 0x461BCD PUSH1 0xE5 SHL DUP2 MSTORE PUSH1 0x4 ADD DUP1 DUP1 PUSH1 0x20 ADD DUP3 DUP2 SUB DUP3 MSTORE PUSH1 0x21 DUP2 MSTORE PUSH1 0x20 ADD DUP1 PUSH2 0x3066 PUSH1 0x21 SWAP2 CODECOPY PUSH1 0x40 ADD SWAP2 POP POP PUSH1 0x40 MLOAD DUP1 SWAP2 SUB SWAP1 REVERT JUMPDEST DUP1 PUSH1 0x1 PUSH1 0x1 PUSH1 0xA0 SHL SUB AND PUSH2 0x887 PUSH2 0x18DB JUMP JUMPDEST PUSH1 0x1 PUSH1 0x1 PUSH1 0xA0 SHL SUB AND EQ DUP1 PUSH2 0x8A8 JUMPI POP PUSH2 0x8A8 DUP2 PUSH2 0x8A3 PUSH2 0x18DB JUMP JUMPDEST PUSH2 0x1660 JUMP JUMPDEST PUSH2 0x8E3 JUMPI PUSH1 0x40 MLOAD PUSH3 0x461BCD PUSH1 0xE5 SHL DUP2 MSTORE PUSH1 0x4 ADD DUP1 DUP1 PUSH1 0x20 ADD DUP3 DUP2 SUB DUP3 MSTORE PUSH1 0x38 DUP2 MSTORE PUSH1 0x20 ADD DUP1 PUSH2 0x2F35 PUSH1 0x38 SWAP2 CODECOPY PUSH1 0x40 ADD SWAP2 POP POP PUSH1 0x40 MLOAD DUP1 SWAP2 SUB SWAP1 REVERT JUMPDEST PUSH2 0x8ED DUP4 DUP4 PUSH2 0x18DF JUMP JUMPDEST POP POP POP JUMP JUMPDEST PUSH1 0x0 SLOAD PUSH1 0x1 PUSH1 0x1 PUSH1 0xA0 SHL SUB AND SWAP1 JUMP JUMPDEST PUSH1 0x17 SLOAD SWAP1 JUMP JUMPDEST PUSH1 0x0 PUSH2 0x913 PUSH1 0x3 PUSH2 0x194D JUMP JUMPDEST SWAP1 POP SWAP1 JUMP JUMPDEST PUSH2 0x929 PUSH2 0x923 PUSH2 0x18DB JUMP JUMPDEST DUP3 PUSH2 0x1958 JUMP JUMPDEST PUSH2 0x964 JUMPI PUSH1 0x40 MLOAD PUSH3 0x461BCD PUSH1 0xE5 SHL DUP2 MSTORE PUSH1 0x4 ADD DUP1 DUP1 PUSH1 0x20 ADD DUP3 DUP2 SUB DUP3 MSTORE PUSH1 0x31 DUP2 MSTORE PUSH1 0x20 ADD DUP1 PUSH2 0x3087 PUSH1 0x31 SWAP2 CODECOPY PUSH1 0x40 ADD SWAP2 POP POP PUSH1 0x40 MLOAD DUP1 SWAP2 SUB SWAP1 REVERT JUMPDEST PUSH2 0x8ED DUP4 DUP4 DUP4 PUSH2 0x19FC JUMP JUMPDEST CALLER DUP1 PUSH2 0x979 PUSH2 0x8F2 JUMP JUMPDEST PUSH1 0x1 PUSH1 0x1 PUSH1 0xA0 SHL SUB AND EQ PUSH2 0x9BE JUMPI PUSH1 0x40 MLOAD PUSH3 0x461BCD PUSH1 0xE5 SHL DUP2 MSTORE PUSH1 0x4 ADD DUP1 DUP1 PUSH1 0x20 ADD DUP3 DUP2 SUB DUP3 MSTORE PUSH1 0x28 DUP2 MSTORE PUSH1 0x20 ADD DUP1 PUSH2 0x2E97 PUSH1 0x28 SWAP2 CODECOPY PUSH1 0x40 ADD SWAP2 POP POP PUSH1 0x40 MLOAD DUP1 SWAP2 SUB SWAP1 REVERT JUMPDEST POP PUSH1 0x16 SSTORE JUMP JUMPDEST PUSH1 0x1 PUSH1 0x1 PUSH1 0xA0 SHL SUB DUP3 AND PUSH1 0x0 SWAP1 DUP2 MSTORE PUSH1 0x2 PUSH1 0x20 MSTORE PUSH1 0x40 DUP2 KECCAK256 PUSH2 0x9E6 SWAP1 DUP4 PUSH2 0x1B48 JUMP JUMPDEST SWAP1 POP JUMPDEST SWAP3 SWAP2 POP POP JUMP JUMPDEST PUSH1 0x19 SLOAD MUL PUSH9 0x1158E460913D00000 MUL SWAP1 JUMP JUMPDEST PUSH2 0x8ED DUP4 DUP4 DUP4 PUSH1 0x40 MLOAD DUP1 PUSH1 0x20 ADD PUSH1 0x40 MSTORE DUP1 PUSH1 0x0 DUP2 MSTORE POP PUSH2 0x1368 JUMP JUMPDEST PUSH1 0x0 DUP1 PUSH2 0xA2A PUSH1 0x3 DUP5 PUSH2 0x1B54 JUMP JUMPDEST POP SWAP4 SWAP3 POP POP POP JUMP JUMPDEST CALLER DUP1 PUSH2 0xA3C PUSH2 0x8F2 JUMP JUMPDEST PUSH1 0x1 PUSH1 0x1 PUSH1 0xA0 SHL SUB AND EQ PUSH2 0xA81 JUMPI PUSH1 0x40 MLOAD PUSH3 0x461BCD PUSH1 0xE5 SHL DUP2 MSTORE PUSH1 0x4 ADD DUP1 DUP1 PUSH1 0x20 ADD DUP3 DUP2 SUB DUP3 MSTORE PUSH1 0x28 DUP2 MSTORE PUSH1 0x20 ADD DUP1 PUSH2 0x2E97 PUSH1 0x28 SWAP2 CODECOPY PUSH1 0x40 ADD SWAP2 POP POP PUSH1 0x40 MLOAD DUP1 SWAP2 SUB SWAP1 REVERT JUMPDEST POP PUSH1 0x17 SSTORE JUMP JUMPDEST PUSH1 0x18 SLOAD SWAP1 JUMP JUMPDEST PUSH1 0x16 SLOAD SWAP1 JUMP JUMPDEST PUSH1 0x0 PUSH2 0x9E9 DUP3 PUSH1 0x40 MLOAD DUP1 PUSH1 0x60 ADD PUSH1 0x40 MSTORE DUP1 PUSH1 0x29 DUP2 MSTORE PUSH1 0x20 ADD PUSH2 0x2F97 PUSH1 0x29 SWAP2 CODECOPY PUSH1 0x3 SWAP2 SWAP1 PUSH2 0x1B70 JUMP JUMPDEST PUSH1 0xA DUP1 SLOAD PUSH1 0x40 DUP1 MLOAD PUSH1 0x20 PUSH1 0x1F PUSH1 0x2 PUSH1 0x0 NOT PUSH2 0x100 PUSH1 0x1 DUP9 AND ISZERO MUL ADD SWAP1 SWAP6 AND SWAP5 SWAP1 SWAP5 DIV SWAP4 DUP5 ADD DUP2 SWAP1 DIV DUP2 MUL DUP3 ADD DUP2 ADD SWAP1 SWAP3 MSTORE DUP3 DUP2 MSTORE PUSH1 0x60 SWAP4 SWAP1 SWAP3 SWAP1 SWAP2 DUP4 ADD DUP3 DUP3 DUP1 ISZERO PUSH2 0x7AB JUMPI DUP1 PUSH1 0x1F LT PUSH2 0x780 JUMPI PUSH2 0x100 DUP1 DUP4 SLOAD DIV MUL DUP4 MSTORE SWAP2 PUSH1 0x20 ADD SWAP2 PUSH2 0x7AB JUMP JUMPDEST PUSH1 0x0 PUSH1 0x1 PUSH1 0x1 PUSH1 0xA0 SHL SUB DUP3 AND PUSH2 0xB63 JUMPI PUSH1 0x40 MLOAD PUSH3 0x461BCD PUSH1 0xE5 SHL DUP2 MSTORE PUSH1 0x4 ADD DUP1 DUP1 PUSH1 0x20 ADD DUP3 DUP2 SUB DUP3 MSTORE PUSH1 0x2A DUP2 MSTORE PUSH1 0x20 ADD DUP1 PUSH2 0x2F6D PUSH1 0x2A SWAP2 CODECOPY PUSH1 0x40 ADD SWAP2 POP POP PUSH1 0x40 MLOAD DUP1 SWAP2 SUB SWAP1 REVERT JUMPDEST PUSH1 0x1 PUSH1 0x1 PUSH1 0xA0 SHL SUB DUP3 AND PUSH1 0x0 SWAP1 DUP2 MSTORE PUSH1 0x2 PUSH1 0x20 MSTORE PUSH1 0x40 SWAP1 KECCAK256 PUSH2 0x9E9 SWAP1 PUSH2 0x194D JUMP JUMPDEST DUP2 PUSH1 0x13 PUSH1 0x0 PUSH1 0x11 DUP4 DUP2 SLOAD DUP2 LT PUSH2 0xB96 JUMPI INVALID JUMPDEST PUSH1 0x0 SWAP2 DUP3 MSTORE PUSH1 0x20 DUP1 DUP4 KECCAK256 PUSH1 0x7 SWAP3 SWAP1 SWAP3 MUL SWAP1 SWAP2 ADD PUSH1 0x5 ADD SLOAD DUP4 MSTORE DUP3 ADD SWAP3 SWAP1 SWAP3 MSTORE PUSH1 0x40 ADD SWAP1 KECCAK256 SLOAD PUSH1 0x1 PUSH1 0x1 PUSH1 0xA0 SHL SUB AND CALLER EQ PUSH2 0xC10 JUMPI PUSH1 0x40 DUP1 MLOAD PUSH3 0x461BCD PUSH1 0xE5 SHL DUP2 MSTORE PUSH1 0x20 PUSH1 0x4 DUP3 ADD MSTORE PUSH1 0x16 PUSH1 0x24 DUP3 ADD MSTORE PUSH22 0x2A9030B932B713BA103A34329037333A1027BBB732B9 PUSH1 0x51 SHL PUSH1 0x44 DUP3 ADD MSTORE SWAP1 MLOAD SWAP1 DUP2 SWAP1 SUB PUSH1 0x64 ADD SWAP1 REVERT JUMPDEST CALLER PUSH2 0xC1A DUP4 PUSH2 0x164F JUMP JUMPDEST PUSH1 0xC SLOAD PUSH1 0x40 DUP1 MLOAD PUSH4 0x3DB1CDBF PUSH1 0xE2 SHL DUP2 MSTORE PUSH1 0x1 PUSH1 0x1 PUSH1 0xA0 SHL SUB DUP6 DUP2 AND PUSH1 0x4 DUP4 ADD MSTORE SWAP2 MLOAD DUP5 SWAP4 SWAP3 SWAP1 SWAP3 AND SWAP2 PUSH4 0xF6C736FC SWAP2 PUSH1 0x24 DUP1 DUP3 ADD SWAP3 PUSH1 0x20 SWAP3 SWAP1 SWAP2 SWAP1 DUP3 SWAP1 SUB ADD DUP2 DUP7 DUP1 EXTCODESIZE ISZERO DUP1 ISZERO PUSH2 0xC6A JUMPI PUSH1 0x0 DUP1 REVERT JUMPDEST POP GAS STATICCALL ISZERO DUP1 ISZERO PUSH2 0xC7E JUMPI RETURNDATASIZE PUSH1 0x0 DUP1 RETURNDATACOPY RETURNDATASIZE PUSH1 0x0 REVERT JUMPDEST POP POP POP POP PUSH1 0x40 MLOAD RETURNDATASIZE PUSH1 0x20 DUP2 LT ISZERO PUSH2 0xC94 JUMPI PUSH1 0x0 DUP1 REVERT JUMPDEST POP MLOAD LT ISZERO PUSH2 0xCDA JUMPI PUSH1 0x40 DUP1 MLOAD PUSH3 0x461BCD PUSH1 0xE5 SHL DUP2 MSTORE PUSH1 0x20 PUSH1 0x4 DUP3 ADD MSTORE PUSH1 0xE PUSH1 0x24 DUP3 ADD MSTORE PUSH14 0x4E6F7420656E6F75676820554A47 PUSH1 0x90 SHL PUSH1 0x44 DUP3 ADD MSTORE SWAP1 MLOAD SWAP1 DUP2 SWAP1 SUB PUSH1 0x64 ADD SWAP1 REVERT JUMPDEST DUP5 TIMESTAMP PUSH1 0x11 DUP3 DUP2 SLOAD DUP2 LT PUSH2 0xCE9 JUMPI INVALID JUMPDEST PUSH1 0x0 SWAP2 DUP3 MSTORE PUSH1 0x20 SWAP1 SWAP2 KECCAK256 PUSH1 0x4 PUSH1 0x7 SWAP1 SWAP3 MUL ADD ADD SLOAD PUSH4 0xFFFFFFFF AND GT ISZERO PUSH2 0xD4E JUMPI PUSH1 0x40 DUP1 MLOAD PUSH3 0x461BCD PUSH1 0xE5 SHL DUP2 MSTORE PUSH1 0x20 PUSH1 0x4 DUP3 ADD MSTORE PUSH1 0x15 PUSH1 0x24 DUP3 ADD MSTORE PUSH21 0x13195D081C995CDD081E5BDD5C8814DD1D59195B9D PUSH1 0x5A SHL PUSH1 0x44 DUP3 ADD MSTORE SWAP1 MLOAD SWAP1 DUP2 SWAP1 SUB PUSH1 0x64 ADD SWAP1 REVERT JUMPDEST DUP6 PUSH1 0x11 DUP2 DUP2 SLOAD DUP2 LT PUSH2 0xD5C JUMPI INVALID JUMPDEST PUSH1 0x0 SWAP2 DUP3 MSTORE PUSH1 0x20 SWAP1 SWAP2 KECCAK256 PUSH1 0x6 PUSH1 0x7 SWAP1 SWAP3 MUL ADD ADD SLOAD PUSH1 0xFF AND ISZERO PUSH2 0xDC5 JUMPI PUSH1 0x40 DUP1 MLOAD PUSH3 0x461BCD PUSH1 0xE5 SHL DUP2 MSTORE PUSH1 0x20 PUSH1 0x4 DUP3 ADD MSTORE PUSH1 0x19 PUSH1 0x24 DUP3 ADD MSTORE PUSH32 0x5468652053747564656E742061726520696E206D61726B657400000000000000 PUSH1 0x44 DUP3 ADD MSTORE SWAP1 MLOAD SWAP1 DUP2 SWAP1 SUB PUSH1 0x64 ADD SWAP1 REVERT JUMPDEST PUSH1 0x1 DUP7 LT ISZERO DUP1 ISZERO PUSH2 0xDD7 JUMPI POP PUSH1 0xA DUP7 GT ISZERO JUMPDEST PUSH2 0xE18 JUMPI PUSH1 0x40 DUP1 MLOAD PUSH3 0x461BCD PUSH1 0xE5 SHL DUP2 MSTORE PUSH1 0x20 PUSH1 0x4 DUP3 ADD MSTORE PUSH1 0xD PUSH1 0x24 DUP3 ADD MSTORE PUSH13 0x125B9D985B1A590813195D995B PUSH1 0x9A SHL PUSH1 0x44 DUP3 ADD MSTORE SWAP1 MLOAD SWAP1 DUP2 SWAP1 SUB PUSH1 0x64 ADD SWAP1 REVERT JUMPDEST PUSH2 0xE20 PUSH2 0x2D3B JUMP JUMPDEST PUSH1 0x11 DUP9 DUP2 SLOAD DUP2 LT PUSH2 0xE2D JUMPI INVALID JUMPDEST SWAP1 PUSH1 0x0 MSTORE PUSH1 0x20 PUSH1 0x0 KECCAK256 SWAP1 PUSH1 0x7 MUL ADD PUSH1 0x40 MLOAD DUP1 PUSH1 0xE0 ADD PUSH1 0x40 MSTORE SWAP1 DUP2 PUSH1 0x0 DUP3 ADD SLOAD DUP2 MSTORE PUSH1 0x20 ADD PUSH1 0x1 DUP3 ADD SLOAD DUP2 MSTORE PUSH1 0x20 ADD PUSH1 0x2 DUP3 ADD SLOAD DUP2 MSTORE PUSH1 0x20 ADD PUSH1 0x3 DUP3 ADD DUP1 SLOAD PUSH1 0x1 DUP2 PUSH1 0x1 AND ISZERO PUSH2 0x100 MUL SUB AND PUSH1 0x2 SWAP1 DIV DUP1 PUSH1 0x1F ADD PUSH1 0x20 DUP1 SWAP2 DIV MUL PUSH1 0x20 ADD PUSH1 0x40 MLOAD SWAP1 DUP2 ADD PUSH1 0x40 MSTORE DUP1 SWAP3 SWAP2 SWAP1 DUP2 DUP2 MSTORE PUSH1 0x20 ADD DUP3 DUP1 SLOAD PUSH1 0x1 DUP2 PUSH1 0x1 AND ISZERO PUSH2 0x100 MUL SUB AND PUSH1 0x2 SWAP1 DIV DUP1 ISZERO PUSH2 0xEFD JUMPI DUP1 PUSH1 0x1F LT PUSH2 0xED2 JUMPI PUSH2 0x100 DUP1 DUP4 SLOAD DIV MUL DUP4 MSTORE SWAP2 PUSH1 0x20 ADD SWAP2 PUSH2 0xEFD JUMP JUMPDEST DUP3 ADD SWAP2 SWAP1 PUSH1 0x0 MSTORE PUSH1 0x20 PUSH1 0x0 KECCAK256 SWAP1 JUMPDEST DUP2 SLOAD DUP2 MSTORE SWAP1 PUSH1 0x1 ADD SWAP1 PUSH1 0x20 ADD DUP1 DUP4 GT PUSH2 0xEE0 JUMPI DUP3 SWAP1 SUB PUSH1 0x1F AND DUP3 ADD SWAP2 JUMPDEST POP POP POP SWAP2 DUP4 MSTORE POP POP PUSH1 0x4 DUP3 ADD SLOAD PUSH4 0xFFFFFFFF AND PUSH1 0x20 DUP1 DUP4 ADD SWAP2 SWAP1 SWAP2 MSTORE PUSH1 0x5 DUP4 ADD SLOAD PUSH1 0x40 DUP4 ADD MSTORE PUSH1 0x6 SWAP1 SWAP3 ADD SLOAD PUSH1 0xFF AND ISZERO ISZERO PUSH1 0x60 SWAP1 SWAP2 ADD MSTORE DUP2 ADD MLOAD SWAP1 SWAP2 POP PUSH2 0xF43 JUMPI PUSH1 0x0 DUP1 REVERT JUMPDEST PUSH2 0xF4B PUSH2 0x1B87 JUMP JUMPDEST POP PUSH1 0x0 PUSH2 0xF57 DUP9 PUSH2 0x6F6 JUMP JUMPDEST CALLER PUSH1 0x0 SWAP1 DUP2 MSTORE PUSH1 0x15 PUSH1 0x20 MSTORE PUSH1 0x40 DUP2 KECCAK256 SLOAD SWAP2 SWAP3 POP SWAP1 PUSH1 0x64 SWAP1 MOD PUSH1 0x1 ADD SWAP1 POP PUSH1 0x0 DUP4 PUSH1 0x20 ADD MLOAD DUP5 PUSH1 0x40 ADD MLOAD DUP4 ADD ADD SWAP1 POP PUSH2 0xF8E DUP12 PUSH2 0x1CAD JUMP JUMPDEST PUSH1 0x0 PUSH2 0xF99 DUP12 PUSH2 0x164F JUMP JUMPDEST SWAP1 POP PUSH2 0xFA5 DUP2 CALLER PUSH2 0x1CFB JUMP JUMPDEST DUP2 DUP5 GT PUSH2 0x1031 JUMPI PUSH1 0x2 PUSH1 0x14 DUP6 DIV MUL PUSH2 0xFBD DUP14 DUP3 PUSH2 0x1D7B JUMP JUMPDEST PUSH1 0x0 PUSH2 0xFC8 DUP14 PUSH2 0x9EF JUMP JUMPDEST SWAP1 POP PUSH2 0xFD4 DUP2 CALLER PUSH2 0x1E01 JUMP JUMPDEST PUSH1 0x40 DUP1 MLOAD PUSH1 0x1 DUP2 MSTORE PUSH1 0x20 DUP2 ADD DUP7 SWAP1 MSTORE DUP1 DUP3 ADD DUP9 SWAP1 MSTORE PUSH1 0x60 DUP2 ADD DUP5 SWAP1 MSTORE PUSH1 0x80 DUP2 ADD DUP8 SWAP1 MSTORE PUSH1 0xA0 DUP2 ADD DUP4 SWAP1 MSTORE SWAP1 MLOAD PUSH32 0xC1C89F12581EF4543F5451C1F84FF0ED0BFB24E4A0AE8F507DD335E411D5D05F SWAP2 DUP2 SWAP1 SUB PUSH1 0xC0 ADD SWAP1 LOG1 POP POP PUSH2 0x109C JUMP JUMPDEST PUSH1 0x2 PUSH1 0xA DUP6 DIV MUL PUSH2 0x1042 DUP14 DUP3 PUSH2 0x1D7B JUMP JUMPDEST PUSH1 0x40 DUP1 MLOAD PUSH1 0x0 DUP1 DUP3 MSTORE PUSH1 0x20 DUP3 ADD DUP7 SWAP1 MSTORE DUP2 DUP4 ADD DUP9 SWAP1 MSTORE PUSH1 0x60 DUP3 ADD DUP5 SWAP1 MSTORE PUSH1 0x80 DUP3 ADD DUP8 SWAP1 MSTORE DUP5 SWAP1 SUB PUSH1 0xA0 DUP3 ADD MSTORE SWAP1 MLOAD PUSH32 0xC1C89F12581EF4543F5451C1F84FF0ED0BFB24E4A0AE8F507DD335E411D5D05F SWAP2 DUP2 SWAP1 SUB PUSH1 0xC0 ADD SWAP1 LOG1 POP JUMPDEST POP POP POP POP POP POP POP POP POP POP POP POP JUMP JUMPDEST CALLER DUP1 PUSH2 0x10B4 PUSH2 0x8F2 JUMP JUMPDEST PUSH1 0x1 PUSH1 0x1 PUSH1 0xA0 SHL SUB AND EQ PUSH2 0x10F9 JUMPI PUSH1 0x40 MLOAD PUSH3 0x461BCD PUSH1 0xE5 SHL DUP2 MSTORE PUSH1 0x4 ADD DUP1 DUP1 PUSH1 0x20 ADD DUP3 DUP2 SUB DUP3 MSTORE PUSH1 0x28 DUP2 MSTORE PUSH1 0x20 ADD DUP1 PUSH2 0x2E97 PUSH1 0x28 SWAP2 CODECOPY PUSH1 0x40 ADD SWAP2 POP POP PUSH1 0x40 MLOAD DUP1 SWAP2 SUB SWAP1 REVERT JUMPDEST POP PUSH1 0xE DUP1 SLOAD PUSH4 0xFFFFFFFF NOT AND PUSH4 0xFFFFFFFF SWAP3 SWAP1 SWAP3 AND SWAP2 SWAP1 SWAP2 OR SWAP1 SSTORE JUMP JUMPDEST PUSH1 0xE SLOAD PUSH4 0xFFFFFFFF AND SWAP1 JUMP JUMPDEST CALLER PUSH1 0x1 PUSH1 0x1 PUSH1 0xA0 SHL SUB PUSH32 0x0 AND EQ PUSH2 0x119F JUMPI PUSH1 0x40 DUP1 MLOAD PUSH3 0x461BCD PUSH1 0xE5 SHL DUP2 MSTORE PUSH1 0x20 PUSH1 0x4 DUP3 ADD MSTORE PUSH1 0x1F PUSH1 0x24 DUP3 ADD MSTORE PUSH32 0x4F6E6C7920565246436F6F7264696E61746F722063616E2066756C66696C6C00 PUSH1 0x44 DUP3 ADD MSTORE SWAP1 MLOAD SWAP1 DUP2 SWAP1 SUB PUSH1 0x64 ADD SWAP1 REVERT JUMPDEST PUSH2 0x11A9 DUP3 DUP3 PUSH2 0x1E82 JUMP JUMPDEST POP POP JUMP JUMPDEST PUSH1 0x8 DUP1 SLOAD PUSH1 0x40 DUP1 MLOAD PUSH1 0x20 PUSH1 0x1F PUSH1 0x2 PUSH1 0x0 NOT PUSH2 0x100 PUSH1 0x1 DUP9 AND ISZERO MUL ADD SWAP1 SWAP6 AND SWAP5 SWAP1 SWAP5 DIV SWAP4 DUP5 ADD DUP2 SWAP1 DIV DUP2 MUL DUP3 ADD DUP2 ADD SWAP1 SWAP3 MSTORE DUP3 DUP2 MSTORE PUSH1 0x60 SWAP4 SWAP1 SWAP3 SWAP1 SWAP2 DUP4 ADD DUP3 DUP3 DUP1 ISZERO PUSH2 0x7AB JUMPI DUP1 PUSH1 0x1F LT PUSH2 0x780 JUMPI PUSH2 0x100 DUP1 DUP4 SLOAD DIV MUL DUP4 MSTORE SWAP2 PUSH1 0x20 ADD SWAP2 PUSH2 0x7AB JUMP JUMPDEST CALLER DUP1 PUSH2 0x1218 PUSH2 0x8F2 JUMP JUMPDEST PUSH1 0x1 PUSH1 0x1 PUSH1 0xA0 SHL SUB AND EQ PUSH2 0x125D JUMPI PUSH1 0x40 MLOAD PUSH3 0x461BCD PUSH1 0xE5 SHL DUP2 MSTORE PUSH1 0x4 ADD DUP1 DUP1 PUSH1 0x20 ADD DUP3 DUP2 SUB DUP3 MSTORE PUSH1 0x28 DUP2 MSTORE PUSH1 0x20 ADD DUP1 PUSH2 0x2E97 PUSH1 0x28 SWAP2 CODECOPY PUSH1 0x40 ADD SWAP2 POP POP PUSH1 0x40 MLOAD DUP1 SWAP2 SUB SWAP1 REVERT JUMPDEST POP PUSH1 0x19 SSTORE JUMP JUMPDEST PUSH2 0x126B PUSH2 0x18DB JUMP JUMPDEST PUSH1 0x1 PUSH1 0x1 PUSH1 0xA0 SHL SUB AND DUP3 PUSH1 0x1 PUSH1 0x1 PUSH1 0xA0 SHL SUB AND EQ ISZERO PUSH2 0x12D1 JUMPI PUSH1 0x40 DUP1 MLOAD PUSH3 0x461BCD PUSH1 0xE5 SHL DUP2 MSTORE PUSH1 0x20 PUSH1 0x4 DUP3 ADD MSTORE PUSH1 0x19 PUSH1 0x24 DUP3 ADD MSTORE PUSH32 0x4552433732313A20617070726F766520746F2063616C6C657200000000000000 PUSH1 0x44 DUP3 ADD MSTORE SWAP1 MLOAD SWAP1 DUP2 SWAP1 SUB PUSH1 0x64 ADD SWAP1 REVERT JUMPDEST DUP1 PUSH1 0x6 PUSH1 0x0 PUSH2 0x12DE PUSH2 0x18DB JUMP JUMPDEST PUSH1 0x1 PUSH1 0x1 PUSH1 0xA0 SHL SUB SWAP1 DUP2 AND DUP3 MSTORE PUSH1 0x20 DUP1 DUP4 ADD SWAP4 SWAP1 SWAP4 MSTORE PUSH1 0x40 SWAP2 DUP3 ADD PUSH1 0x0 SWAP1 DUP2 KECCAK256 SWAP2 DUP8 AND DUP1 DUP3 MSTORE SWAP2 SWAP1 SWAP4 MSTORE SWAP2 KECCAK256 DUP1 SLOAD PUSH1 0xFF NOT AND SWAP3 ISZERO ISZERO SWAP3 SWAP1 SWAP3 OR SWAP1 SWAP2 SSTORE PUSH2 0x1322 PUSH2 0x18DB JUMP JUMPDEST PUSH1 0x1 PUSH1 0x1 PUSH1 0xA0 SHL SUB AND PUSH32 0x17307EAB39AB6107E8899845AD3D59BD9653F200F220920489CA2B5937696C31 DUP4 PUSH1 0x40 MLOAD DUP1 DUP3 ISZERO ISZERO DUP2 MSTORE PUSH1 0x20 ADD SWAP2 POP POP PUSH1 0x40 MLOAD DUP1 SWAP2 SUB SWAP1 LOG3 POP POP JUMP JUMPDEST PUSH2 0x1379 PUSH2 0x1373 PUSH2 0x18DB JUMP JUMPDEST DUP4 PUSH2 0x1958 JUMP JUMPDEST PUSH2 0x13B4 JUMPI PUSH1 0x40 MLOAD PUSH3 0x461BCD PUSH1 0xE5 SHL DUP2 MSTORE PUSH1 0x4 ADD DUP1 DUP1 PUSH1 0x20 ADD DUP3 DUP2 SUB DUP3 MSTORE PUSH1 0x31 DUP2 MSTORE PUSH1 0x20 ADD DUP1 PUSH2 0x3087 PUSH1 0x31 SWAP2 CODECOPY PUSH1 0x40 ADD SWAP2 POP POP PUSH1 0x40 MLOAD DUP1 SWAP2 SUB SWAP1 REVERT JUMPDEST PUSH2 0x13C0 DUP5 DUP5 DUP5 DUP5 PUSH2 0x1EAA JUMP JUMPDEST POP POP POP POP JUMP JUMPDEST PUSH1 0x19 SLOAD SWAP1 JUMP JUMPDEST PUSH1 0x60 PUSH2 0x13D7 DUP3 PUSH2 0x18CE JUMP JUMPDEST PUSH2 0x1412 JUMPI PUSH1 0x40 MLOAD PUSH3 0x461BCD PUSH1 0xE5 SHL DUP2 MSTORE PUSH1 0x4 ADD DUP1 DUP1 PUSH1 0x20 ADD DUP3 DUP2 SUB DUP3 MSTORE PUSH1 0x2F DUP2 MSTORE PUSH1 0x20 ADD DUP1 PUSH2 0x3037 PUSH1 0x2F SWAP2 CODECOPY PUSH1 0x40 ADD SWAP2 POP POP PUSH1 0x40 MLOAD DUP1 SWAP2 SUB SWAP1 REVERT JUMPDEST PUSH1 0x0 DUP3 DUP2 MSTORE PUSH1 0x9 PUSH1 0x20 SWAP1 DUP2 MSTORE PUSH1 0x40 SWAP2 DUP3 SWAP1 KECCAK256 DUP1 SLOAD DUP4 MLOAD PUSH1 0x1F PUSH1 0x2 PUSH1 0x0 NOT PUSH2 0x100 PUSH1 0x1 DUP7 AND ISZERO MUL ADD SWAP1 SWAP4 AND SWAP3 SWAP1 SWAP3 DIV SWAP2 DUP3 ADD DUP5 SWAP1 DIV DUP5 MUL DUP2 ADD DUP5 ADD SWAP1 SWAP5 MSTORE DUP1 DUP5 MSTORE PUSH1 0x60 SWAP4 SWAP3 DUP4 ADD DUP3 DUP3 DUP1 ISZERO PUSH2 0x14A7 JUMPI DUP1 PUSH1 0x1F LT PUSH2 0x147C JUMPI PUSH2 0x100 DUP1 DUP4 SLOAD DIV MUL DUP4 MSTORE SWAP2 PUSH1 0x20 ADD SWAP2 PUSH2 0x14A7 JUMP JUMPDEST DUP3 ADD SWAP2 SWAP1 PUSH1 0x0 MSTORE PUSH1 0x20 PUSH1 0x0 KECCAK256 SWAP1 JUMPDEST DUP2 SLOAD DUP2 MSTORE SWAP1 PUSH1 0x1 ADD SWAP1 PUSH1 0x20 ADD DUP1 DUP4 GT PUSH2 0x148A JUMPI DUP3 SWAP1 SUB PUSH1 0x1F AND DUP3 ADD SWAP2 JUMPDEST POP POP POP POP POP SWAP1 POP PUSH1 0x60 PUSH2 0x14B8 PUSH2 0xABB JUMP JUMPDEST SWAP1 POP DUP1 MLOAD PUSH1 0x0 EQ ISZERO PUSH2 0x14CC JUMPI POP SWAP1 POP PUSH2 0x6FB JUMP JUMPDEST DUP2 MLOAD ISZERO PUSH2 0x158D JUMPI DUP1 DUP3 PUSH1 0x40 MLOAD PUSH1 0x20 ADD DUP1 DUP4 DUP1 MLOAD SWAP1 PUSH1 0x20 ADD SWAP1 DUP1 DUP4 DUP4 JUMPDEST PUSH1 0x20 DUP4 LT PUSH2 0x1507 JUMPI DUP1 MLOAD DUP3 MSTORE PUSH1 0x1F NOT SWAP1 SWAP3 ADD SWAP2 PUSH1 0x20 SWAP2 DUP3 ADD SWAP2 ADD PUSH2 0x14E8 JUMP JUMPDEST MLOAD DUP2 MLOAD PUSH1 0x20 SWAP4 DUP5 SUB PUSH2 0x100 EXP PUSH1 0x0 NOT ADD DUP1 NOT SWAP1 SWAP3 AND SWAP2 AND OR SWAP1 MSTORE DUP6 MLOAD SWAP2 SWAP1 SWAP4 ADD SWAP3 DUP6 ADD SWAP2 POP DUP1 DUP4 DUP4 JUMPDEST PUSH1 0x20 DUP4 LT PUSH2 0x154F JUMPI DUP1 MLOAD DUP3 MSTORE PUSH1 0x1F NOT SWAP1 SWAP3 ADD SWAP2 PUSH1 0x20 SWAP2 DUP3 ADD SWAP2 ADD PUSH2 0x1530 JUMP JUMPDEST PUSH1 0x1 DUP4 PUSH1 0x20 SUB PUSH2 0x100 EXP SUB DUP1 NOT DUP3 MLOAD AND DUP2 DUP5 MLOAD AND DUP1 DUP3 OR DUP6 MSTORE POP POP POP POP POP POP SWAP1 POP ADD SWAP3 POP POP POP PUSH1 0x40 MLOAD PUSH1 0x20 DUP2 DUP4 SUB SUB DUP2 MSTORE SWAP1 PUSH1 0x40 MSTORE SWAP3 POP POP POP PUSH2 0x6FB JUMP JUMPDEST DUP1 PUSH2 0x1597 DUP6 PUSH2 0x1EFC JUMP JUMPDEST PUSH1 0x40 MLOAD PUSH1 0x20 ADD DUP1 DUP4 DUP1 MLOAD SWAP1 PUSH1 0x20 ADD SWAP1 DUP1 DUP4 DUP4 JUMPDEST PUSH1 0x20 DUP4 LT PUSH2 0x15C9 JUMPI DUP1 MLOAD DUP3 MSTORE PUSH1 0x1F NOT SWAP1 SWAP3 ADD SWAP2 PUSH1 0x20 SWAP2 DUP3 ADD SWAP2 ADD PUSH2 0x15AA JUMP JUMPDEST MLOAD DUP2 MLOAD PUSH1 0x20 SWAP4 DUP5 SUB PUSH2 0x100 EXP PUSH1 0x0 NOT ADD DUP1 NOT SWAP1 SWAP3 AND SWAP2 AND OR SWAP1 MSTORE DUP6 MLOAD SWAP2 SWAP1 SWAP4 ADD SWAP3 DUP6 ADD SWAP2 POP DUP1 DUP4 DUP4 JUMPDEST PUSH1 0x20 DUP4 LT PUSH2 0x1611 JUMPI DUP1 MLOAD DUP3 MSTORE PUSH1 0x1F NOT SWAP1 SWAP3 ADD SWAP2 PUSH1 0x20 SWAP2 DUP3 ADD SWAP2 ADD PUSH2 0x15F2 JUMP JUMPDEST PUSH1 0x1 DUP4 PUSH1 0x20 SUB PUSH2 0x100 EXP SUB DUP1 NOT DUP3 MLOAD AND DUP2 DUP5 MLOAD AND DUP1 DUP3 OR DUP6 MSTORE POP POP POP POP POP POP SWAP1 POP ADD SWAP3 POP POP POP PUSH1 0x40 MLOAD PUSH1 0x20 DUP2 DUP4 SUB SUB DUP2 MSTORE SWAP1 PUSH1 0x40 MSTORE SWAP3 POP POP POP SWAP2 SWAP1 POP JUMP JUMPDEST PUSH1 0x18 SLOAD MUL PUSH8 0x8AC7230489E80000 MUL SWAP1 JUMP JUMPDEST PUSH1 0x1 PUSH1 0x1 PUSH1 0xA0 SHL SUB SWAP2 DUP3 AND PUSH1 0x0 SWAP1 DUP2 MSTORE PUSH1 0x6 PUSH1 0x20 SWAP1 DUP2 MSTORE PUSH1 0x40 DUP1 DUP4 KECCAK256 SWAP4 SWAP1 SWAP5 AND DUP3 MSTORE SWAP2 SWAP1 SWAP2 MSTORE KECCAK256 SLOAD PUSH1 0xFF AND SWAP1 JUMP JUMPDEST CALLER DUP1 PUSH2 0x1698 PUSH2 0x8F2 JUMP JUMPDEST PUSH1 0x1 PUSH1 0x1 PUSH1 0xA0 SHL SUB AND EQ PUSH2 0x16DD JUMPI PUSH1 0x40 MLOAD PUSH3 0x461BCD PUSH1 0xE5 SHL DUP2 MSTORE PUSH1 0x4 ADD DUP1 DUP1 PUSH1 0x20 ADD DUP3 DUP2 SUB DUP3 MSTORE PUSH1 0x28 DUP2 MSTORE PUSH1 0x20 ADD DUP1 PUSH2 0x2E97 PUSH1 0x28 SWAP2 CODECOPY PUSH1 0x40 ADD SWAP2 POP POP PUSH1 0x40 MLOAD DUP1 SWAP2 SUB SWAP1 REVERT JUMPDEST POP PUSH1 0x18 SSTORE JUMP JUMPDEST PUSH1 0x16 SLOAD PUSH1 0xC SLOAD PUSH1 0x40 DUP1 MLOAD PUSH4 0x3DB1CDBF PUSH1 0xE2 SHL DUP2 MSTORE CALLER PUSH1 0x4 DUP3 ADD DUP2 SWAP1 MSTORE SWAP2 MLOAD SWAP2 SWAP4 SWAP3 DUP4 SWAP3 PUSH1 0x1 PUSH1 0x1 PUSH1 0xA0 SHL SUB SWAP1 SWAP2 AND SWAP2 PUSH4 0xF6C736FC SWAP2 PUSH1 0x24 DUP1 DUP4 ADD SWAP3 PUSH1 0x20 SWAP3 SWAP2 SWAP1 DUP3 SWAP1 SUB ADD DUP2 DUP7 DUP1 EXTCODESIZE ISZERO DUP1 ISZERO PUSH2 0x1737 JUMPI PUSH1 0x0 DUP1 REVERT JUMPDEST POP GAS STATICCALL ISZERO DUP1 ISZERO PUSH2 0x174B JUMPI RETURNDATASIZE PUSH1 0x0 DUP1 RETURNDATACOPY RETURNDATASIZE PUSH1 0x0 REVERT JUMPDEST POP POP POP POP PUSH1 0x40 MLOAD RETURNDATASIZE PUSH1 0x20 DUP2 LT ISZERO PUSH2 0x1761 JUMPI PUSH1 0x0 DUP1 REVERT JUMPDEST POP MLOAD LT ISZERO PUSH2 0x17A7 JUMPI PUSH1 0x40 DUP1 MLOAD PUSH3 0x461BCD PUSH1 0xE5 SHL DUP2 MSTORE PUSH1 0x20 PUSH1 0x4 DUP3 ADD MSTORE PUSH1 0xE PUSH1 0x24 DUP3 ADD MSTORE PUSH14 0x4E6F7420656E6F75676820554A47 PUSH1 0x90 SHL PUSH1 0x44 DUP3 ADD MSTORE SWAP1 MLOAD SWAP1 DUP2 SWAP1 SUB PUSH1 0x64 ADD SWAP1 REVERT JUMPDEST PUSH2 0x17B3 PUSH1 0x16 SLOAD CALLER PUSH2 0x1CFB JUMP JUMPDEST PUSH1 0xF SLOAD PUSH2 0x17BE PUSH2 0x2D3B JUMP JUMPDEST PUSH2 0x17C7 DUP3 PUSH2 0x1FD7 JUMP JUMPDEST CALLER PUSH1 0x0 DUP2 DUP2 MSTORE PUSH1 0x12 PUSH1 0x20 SWAP1 DUP2 MSTORE PUSH1 0x40 DUP1 DUP4 KECCAK256 DUP1 SLOAD PUSH1 0x1 ADD SWAP1 SSTORE DUP7 DUP4 MSTORE PUSH1 0x13 SWAP1 SWAP2 MSTORE SWAP1 KECCAK256 DUP1 SLOAD PUSH1 0x1 PUSH1 0x1 PUSH1 0xA0 SHL SUB NOT AND DUP3 OR SWAP1 SSTORE SWAP1 SWAP2 POP PUSH2 0x1807 SWAP1 DUP4 PUSH2 0x2244 JUMP JUMPDEST PUSH32 0x319EC0C4F5923A08E9D5FB646DDF9C5EE3D502E7A45118F7EA3BA28312BB55D7 DUP2 PUSH1 0x60 ADD MLOAD DUP3 PUSH1 0x0 ADD MLOAD DUP4 PUSH1 0x20 ADD MLOAD DUP5 PUSH1 0x40 ADD MLOAD PUSH1 0x40 MLOAD DUP1 DUP1 PUSH1 0x20 ADD DUP6 DUP2 MSTORE PUSH1 0x20 ADD DUP5 DUP2 MSTORE PUSH1 0x20 ADD DUP4 DUP2 MSTORE PUSH1 0x20 ADD DUP3 DUP2 SUB DUP3 MSTORE DUP7 DUP2 DUP2 MLOAD DUP2 MSTORE PUSH1 0x20 ADD SWAP2 POP DUP1 MLOAD SWAP1 PUSH1 0x20 ADD SWAP1 DUP1 DUP4 DUP4 PUSH1 0x0 JUMPDEST DUP4 DUP2 LT ISZERO PUSH2 0x188B JUMPI DUP2 DUP2 ADD MLOAD DUP4 DUP3 ADD MSTORE PUSH1 0x20 ADD PUSH2 0x1873 JUMP JUMPDEST POP POP POP POP SWAP1 POP SWAP1 DUP2 ADD SWAP1 PUSH1 0x1F AND DUP1 ISZERO PUSH2 0x18B8 JUMPI DUP1 DUP3 SUB DUP1 MLOAD PUSH1 0x1 DUP4 PUSH1 0x20 SUB PUSH2 0x100 EXP SUB NOT AND DUP2 MSTORE PUSH1 0x20 ADD SWAP2 POP JUMPDEST POP SWAP6 POP POP POP POP POP POP PUSH1 0x40 MLOAD DUP1 SWAP2 SUB SWAP1 LOG1 POP POP POP POP JUMP JUMPDEST PUSH1 0x0 PUSH2 0x9E9 PUSH1 0x3 DUP4 PUSH2 0x225E JUMP JUMPDEST CALLER SWAP1 JUMP JUMPDEST PUSH1 0x0 DUP2 DUP2 MSTORE PUSH1 0x5 PUSH1 0x20 MSTORE PUSH1 0x40 SWAP1 KECCAK256 DUP1 SLOAD PUSH1 0x1 PUSH1 0x1 PUSH1 0xA0 SHL SUB NOT AND PUSH1 0x1 PUSH1 0x1 PUSH1 0xA0 SHL SUB DUP5 AND SWAP1 DUP2 OR SWAP1 SWAP2 SSTORE DUP2 SWAP1 PUSH2 0x1914 DUP3 PUSH2 0xA93 JUMP JUMPDEST PUSH1 0x1 PUSH1 0x1 PUSH1 0xA0 SHL SUB AND PUSH32 0x8C5BE1E5EBEC7D5BD14F71427D1E84F3DD0314C0F7B2291E5B200AC8C7C3B925 PUSH1 0x40 MLOAD PUSH1 0x40 MLOAD DUP1 SWAP2 SUB SWAP1 LOG4 POP POP JUMP JUMPDEST PUSH1 0x0 PUSH2 0x9E9 DUP3 PUSH2 0x226A JUMP JUMPDEST PUSH1 0x0 PUSH2 0x1963 DUP3 PUSH2 0x18CE JUMP JUMPDEST PUSH2 0x199E JUMPI PUSH1 0x40 MLOAD PUSH3 0x461BCD PUSH1 0xE5 SHL DUP2 MSTORE PUSH1 0x4 ADD DUP1 DUP1 PUSH1 0x20 ADD DUP3 DUP2 SUB DUP3 MSTORE PUSH1 0x2C DUP2 MSTORE PUSH1 0x20 ADD DUP1 PUSH2 0x2F09 PUSH1 0x2C SWAP2 CODECOPY PUSH1 0x40 ADD SWAP2 POP POP PUSH1 0x40 MLOAD DUP1 SWAP2 SUB SWAP1 REVERT JUMPDEST PUSH1 0x0 PUSH2 0x19A9 DUP4 PUSH2 0xA93 JUMP JUMPDEST SWAP1 POP DUP1 PUSH1 0x1 PUSH1 0x1 PUSH1 0xA0 SHL SUB AND DUP5 PUSH1 0x1 PUSH1 0x1 PUSH1 0xA0 SHL SUB AND EQ DUP1 PUSH2 0x19E4 JUMPI POP DUP4 PUSH1 0x1 PUSH1 0x1 PUSH1 0xA0 SHL SUB AND PUSH2 0x19D9 DUP5 PUSH2 0x7B5 JUMP JUMPDEST PUSH1 0x1 PUSH1 0x1 PUSH1 0xA0 SHL SUB AND EQ JUMPDEST DUP1 PUSH2 0x19F4 JUMPI POP PUSH2 0x19F4 DUP2 DUP6 PUSH2 0x1660 JUMP JUMPDEST SWAP5 SWAP4 POP POP POP POP JUMP JUMPDEST DUP3 PUSH1 0x1 PUSH1 0x1 PUSH1 0xA0 SHL SUB AND PUSH2 0x1A0F DUP3 PUSH2 0xA93 JUMP JUMPDEST PUSH1 0x1 PUSH1 0x1 PUSH1 0xA0 SHL SUB AND EQ PUSH2 0x1A54 JUMPI PUSH1 0x40 MLOAD PUSH3 0x461BCD PUSH1 0xE5 SHL DUP2 MSTORE PUSH1 0x4 ADD DUP1 DUP1 PUSH1 0x20 ADD DUP3 DUP2 SUB DUP3 MSTORE PUSH1 0x29 DUP2 MSTORE PUSH1 0x20 ADD DUP1 PUSH2 0x300E PUSH1 0x29 SWAP2 CODECOPY PUSH1 0x40 ADD SWAP2 POP POP PUSH1 0x40 MLOAD DUP1 SWAP2 SUB SWAP1 REVERT JUMPDEST PUSH1 0x1 PUSH1 0x1 PUSH1 0xA0 SHL SUB DUP3 AND PUSH2 0x1A99 JUMPI PUSH1 0x40 MLOAD PUSH3 0x461BCD PUSH1 0xE5 SHL DUP2 MSTORE PUSH1 0x4 ADD DUP1 DUP1 PUSH1 0x20 ADD DUP3 DUP2 SUB DUP3 MSTORE PUSH1 0x24 DUP2 MSTORE PUSH1 0x20 ADD DUP1 PUSH2 0x2EBF PUSH1 0x24 SWAP2 CODECOPY PUSH1 0x40 ADD SWAP2 POP POP PUSH1 0x40 MLOAD DUP1 SWAP2 SUB SWAP1 REVERT JUMPDEST PUSH2 0x1AA4 DUP4 DUP4 DUP4 PUSH2 0x8ED JUMP JUMPDEST PUSH2 0x1AAF PUSH1 0x0 DUP3 PUSH2 0x18DF JUMP JUMPDEST PUSH1 0x1 PUSH1 0x1 PUSH1 0xA0 SHL SUB DUP4 AND PUSH1 0x0 SWAP1 DUP2 MSTORE PUSH1 0x2 PUSH1 0x20 MSTORE PUSH1 0x40 SWAP1 KECCAK256 PUSH2 0x1AD1 SWAP1 DUP3 PUSH2 0x226E JUMP JUMPDEST POP PUSH1 0x1 PUSH1 0x1 PUSH1 0xA0 SHL SUB DUP3 AND PUSH1 0x0 SWAP1 DUP2 MSTORE PUSH1 0x2 PUSH1 0x20 MSTORE PUSH1 0x40 SWAP1 KECCAK256 PUSH2 0x1AF4 SWAP1 DUP3 PUSH2 0x227A JUMP JUMPDEST POP PUSH2 0x1B01 PUSH1 0x3 DUP3 DUP5 PUSH2 0x2286 JUMP JUMPDEST POP DUP1 DUP3 PUSH1 0x1 PUSH1 0x1 PUSH1 0xA0 SHL SUB AND DUP5 PUSH1 0x1 PUSH1 0x1 PUSH1 0xA0 SHL SUB AND PUSH32 0xDDF252AD1BE2C89B69C2B068FC378DAA952BA7F163C4A11628F55A4DF523B3EF PUSH1 0x40 MLOAD PUSH1 0x40 MLOAD DUP1 SWAP2 SUB SWAP1 LOG4 POP POP POP JUMP JUMPDEST PUSH1 0x0 PUSH2 0x9E6 DUP4 DUP4 PUSH2 0x229C JUMP JUMPDEST PUSH1 0x0 DUP1 DUP1 DUP1 PUSH2 0x1B63 DUP7 DUP7 PUSH2 0x2300 JUMP JUMPDEST SWAP1 SWAP8 SWAP1 SWAP7 POP SWAP5 POP POP POP POP POP JUMP JUMPDEST PUSH1 0x0 PUSH2 0x1B7D DUP5 DUP5 DUP5 PUSH2 0x237B JUMP JUMPDEST SWAP1 POP JUMPDEST SWAP4 SWAP3 POP POP POP JUMP JUMPDEST PUSH1 0x0 PUSH1 0x1B SLOAD PUSH32 0x0 PUSH1 0x1 PUSH1 0x1 PUSH1 0xA0 SHL SUB AND PUSH4 0x70A08231 ADDRESS PUSH1 0x40 MLOAD DUP3 PUSH4 0xFFFFFFFF AND PUSH1 0xE0 SHL DUP2 MSTORE PUSH1 0x4 ADD DUP1 DUP3 PUSH1 0x1 PUSH1 0x1 PUSH1 0xA0 SHL SUB AND DUP2 MSTORE PUSH1 0x20 ADD SWAP2 POP POP PUSH1 0x20 PUSH1 0x40 MLOAD DUP1 DUP4 SUB DUP2 DUP7 DUP1 EXTCODESIZE ISZERO DUP1 ISZERO PUSH2 0x1BF9 JUMPI PUSH1 0x0 DUP1 REVERT JUMPDEST POP GAS STATICCALL ISZERO DUP1 ISZERO PUSH2 0x1C0D JUMPI RETURNDATASIZE PUSH1 0x0 DUP1 RETURNDATACOPY RETURNDATASIZE PUSH1 0x0 REVERT JUMPDEST POP POP POP POP PUSH1 0x40 MLOAD RETURNDATASIZE PUSH1 0x20 DUP2 LT ISZERO PUSH2 0x1C23 JUMPI PUSH1 0x0 DUP1 REVERT JUMPDEST POP MLOAD LT ISZERO PUSH2 0x1C62 JUMPI PUSH1 0x40 MLOAD PUSH3 0x461BCD PUSH1 0xE5 SHL DUP2 MSTORE PUSH1 0x4 ADD DUP1 DUP1 PUSH1 0x20 ADD DUP3 DUP2 SUB DUP3 MSTORE PUSH1 0x2F DUP2 MSTORE PUSH1 0x20 ADD DUP1 PUSH2 0x2E68 PUSH1 0x2F SWAP2 CODECOPY PUSH1 0x40 ADD SWAP2 POP POP PUSH1 0x40 MLOAD DUP1 SWAP2 SUB SWAP1 REVERT JUMPDEST PUSH1 0x0 PUSH2 0x1C72 PUSH1 0x1A SLOAD PUSH1 0x1B SLOAD PUSH2 0x2445 JUMP JUMPDEST PUSH1 0x0 DUP2 DUP2 MSTORE PUSH1 0x14 PUSH1 0x20 SWAP1 DUP2 MSTORE PUSH1 0x40 DUP1 DUP4 KECCAK256 DUP1 SLOAD PUSH1 0x1 PUSH1 0x1 PUSH1 0xA0 SHL SUB NOT AND CALLER SWAP1 DUP2 OR SWAP1 SWAP2 SSTORE DUP4 MSTORE PUSH1 0x15 SWAP1 SWAP2 MSTORE SWAP1 KECCAK256 PUSH5 0x64AE71F0F0 SWAP1 SSTORE SWAP2 POP POP SWAP1 JUMP JUMPDEST PUSH1 0xE SLOAD PUSH1 0x11 DUP1 SLOAD PUSH4 0xFFFFFFFF SWAP1 SWAP3 AND TIMESTAMP ADD SWAP2 DUP4 SWAP1 DUP2 LT PUSH2 0x1CC9 JUMPI INVALID JUMPDEST SWAP1 PUSH1 0x0 MSTORE PUSH1 0x20 PUSH1 0x0 KECCAK256 SWAP1 PUSH1 0x7 MUL ADD PUSH1 0x4 ADD PUSH1 0x0 PUSH2 0x100 EXP DUP2 SLOAD DUP2 PUSH4 0xFFFFFFFF MUL NOT AND SWAP1 DUP4 PUSH4 0xFFFFFFFF AND MUL OR SWAP1 SSTORE POP POP JUMP JUMPDEST PUSH1 0xC SLOAD PUSH1 0x40 DUP1 MLOAD PUSH4 0x3844B707 PUSH1 0xE0 SHL DUP2 MSTORE PUSH1 0x1 PUSH1 0x1 PUSH1 0xA0 SHL SUB DUP5 DUP2 AND PUSH1 0x4 DUP4 ADD MSTORE ADDRESS PUSH1 0x24 DUP4 ADD MSTORE PUSH1 0x44 DUP3 ADD DUP7 SWAP1 MSTORE SWAP2 MLOAD SWAP2 SWAP1 SWAP3 AND SWAP2 PUSH4 0x3844B707 SWAP2 PUSH1 0x64 DUP1 DUP4 ADD SWAP3 PUSH1 0x0 SWAP3 SWAP2 SWAP1 DUP3 SWAP1 SUB ADD DUP2 DUP4 DUP8 DUP1 EXTCODESIZE ISZERO DUP1 ISZERO PUSH2 0x1D56 JUMPI PUSH1 0x0 DUP1 REVERT JUMPDEST POP GAS CALL ISZERO DUP1 ISZERO PUSH2 0x1D6A JUMPI RETURNDATASIZE PUSH1 0x0 DUP1 RETURNDATACOPY RETURNDATASIZE PUSH1 0x0 REVERT JUMPDEST POP POP PUSH1 0xD DUP1 SLOAD SWAP1 SWAP5 ADD SWAP1 SWAP4 SSTORE POP POP POP JUMP JUMPDEST PUSH1 0x17 SLOAD DUP2 MUL SWAP1 POP PUSH1 0x0 DUP2 PUSH1 0x11 DUP5 DUP2 SLOAD DUP2 LT PUSH2 0x1D92 JUMPI INVALID JUMPDEST SWAP1 PUSH1 0x0 MSTORE PUSH1 0x20 PUSH1 0x0 KECCAK256 SWAP1 PUSH1 0x7 MUL ADD PUSH1 0x1 ADD SLOAD SUB LT ISZERO PUSH2 0x1DD4 JUMPI PUSH1 0x0 PUSH1 0x11 DUP4 DUP2 SLOAD DUP2 LT PUSH2 0x1DBA JUMPI INVALID JUMPDEST SWAP1 PUSH1 0x0 MSTORE PUSH1 0x20 PUSH1 0x0 KECCAK256 SWAP1 PUSH1 0x7 MUL ADD PUSH1 0x1 ADD DUP2 SWAP1 SSTORE POP PUSH2 0x11A9 JUMP JUMPDEST DUP1 PUSH1 0x11 DUP4 DUP2 SLOAD DUP2 LT PUSH2 0x1DE2 JUMPI INVALID JUMPDEST PUSH1 0x0 SWAP2 DUP3 MSTORE PUSH1 0x20 SWAP1 SWAP2 KECCAK256 PUSH1 0x1 PUSH1 0x7 SWAP1 SWAP3 MUL ADD ADD DUP1 SLOAD SWAP2 SWAP1 SWAP2 SUB SWAP1 SSTORE POP POP JUMP JUMPDEST PUSH1 0xC SLOAD PUSH1 0x40 DUP1 MLOAD PUSH4 0x3844B707 PUSH1 0xE0 SHL DUP2 MSTORE ADDRESS PUSH1 0x4 DUP3 ADD MSTORE PUSH1 0x1 PUSH1 0x1 PUSH1 0xA0 SHL SUB DUP5 DUP2 AND PUSH1 0x24 DUP4 ADD MSTORE PUSH1 0x44 DUP3 ADD DUP7 SWAP1 MSTORE SWAP2 MLOAD SWAP2 SWAP1 SWAP3 AND SWAP2 PUSH4 0x3844B707 SWAP2 PUSH1 0x64 DUP1 DUP4 ADD SWAP3 PUSH1 0x0 SWAP3 SWAP2 SWAP1 DUP3 SWAP1 SUB ADD DUP2 DUP4 DUP8 DUP1 EXTCODESIZE ISZERO DUP1 ISZERO PUSH2 0x1E5C JUMPI PUSH1 0x0 DUP1 REVERT JUMPDEST POP GAS CALL ISZERO DUP1 ISZERO PUSH2 0x1E70 JUMPI RETURNDATASIZE PUSH1 0x0 DUP1 RETURNDATACOPY RETURNDATASIZE PUSH1 0x0 REVERT JUMPDEST POP POP PUSH1 0xD DUP1 SLOAD SWAP5 SWAP1 SWAP5 SUB SWAP1 SWAP4 SSTORE POP POP POP JUMP JUMPDEST PUSH1 0x0 SWAP2 DUP3 MSTORE PUSH1 0x14 PUSH1 0x20 SWAP1 DUP2 MSTORE PUSH1 0x40 DUP1 DUP5 KECCAK256 SLOAD PUSH1 0x1 PUSH1 0x1 PUSH1 0xA0 SHL SUB AND DUP5 MSTORE PUSH1 0x15 SWAP1 SWAP2 MSTORE SWAP1 SWAP2 KECCAK256 SSTORE JUMP JUMPDEST PUSH2 0x1EB5 DUP5 DUP5 DUP5 PUSH2 0x19FC JUMP JUMPDEST PUSH2 0x1EC1 DUP5 DUP5 DUP5 DUP5 PUSH2 0x25F0 JUMP JUMPDEST PUSH2 0x13C0 JUMPI PUSH1 0x40 MLOAD PUSH3 0x461BCD PUSH1 0xE5 SHL DUP2 MSTORE PUSH1 0x4 ADD DUP1 DUP1 PUSH1 0x20 ADD DUP3 DUP2 SUB DUP3 MSTORE PUSH1 0x32 DUP2 MSTORE PUSH1 0x20 ADD DUP1 PUSH2 0x2E36 PUSH1 0x32 SWAP2 CODECOPY PUSH1 0x40 ADD SWAP2 POP POP PUSH1 0x40 MLOAD DUP1 SWAP2 SUB SWAP1 REVERT JUMPDEST PUSH1 0x60 DUP2 PUSH2 0x1F21 JUMPI POP PUSH1 0x40 DUP1 MLOAD DUP1 DUP3 ADD SWAP1 SWAP2 MSTORE PUSH1 0x1 DUP2 MSTORE PUSH1 0x3 PUSH1 0xFC SHL PUSH1 0x20 DUP3 ADD MSTORE PUSH2 0x6FB JUMP JUMPDEST DUP2 PUSH1 0x0 JUMPDEST DUP2 ISZERO PUSH2 0x1F39 JUMPI PUSH1 0x1 ADD PUSH1 0xA DUP3 DIV SWAP2 POP PUSH2 0x1F25 JUMP JUMPDEST PUSH1 0x60 DUP2 PUSH8 0xFFFFFFFFFFFFFFFF DUP2 GT DUP1 ISZERO PUSH2 0x1F52 JUMPI PUSH1 0x0 DUP1 REVERT JUMPDEST POP PUSH1 0x40 MLOAD SWAP1 DUP1 DUP3 MSTORE DUP1 PUSH1 0x1F ADD PUSH1 0x1F NOT AND PUSH1 0x20 ADD DUP3 ADD PUSH1 0x40 MSTORE DUP1 ISZERO PUSH2 0x1F7D JUMPI PUSH1 0x20 DUP3 ADD DUP2 DUP1 CALLDATASIZE DUP4 CALLDATACOPY ADD SWAP1 POP JUMPDEST POP DUP6 SWAP4 POP SWAP1 POP PUSH1 0x0 NOT DUP3 ADD JUMPDEST DUP4 ISZERO PUSH2 0x1FCE JUMPI PUSH1 0xA DUP5 MOD PUSH1 0x30 ADD PUSH1 0xF8 SHL DUP3 DUP3 DUP1 PUSH1 0x1 SWAP1 SUB SWAP4 POP DUP2 MLOAD DUP2 LT PUSH2 0x1FAC JUMPI INVALID JUMPDEST PUSH1 0x20 ADD ADD SWAP1 PUSH1 0x1 PUSH1 0x1 PUSH1 0xF8 SHL SUB NOT AND SWAP1 DUP2 PUSH1 0x0 BYTE SWAP1 MSTORE8 POP PUSH1 0xA DUP5 DIV SWAP4 POP PUSH2 0x1F89 JUMP JUMPDEST POP SWAP5 SWAP4 POP POP POP POP JUMP JUMPDEST PUSH2 0x1FDF PUSH2 0x2D3B JUMP JUMPDEST PUSH2 0x1FE7 PUSH2 0x1B87 JUMP JUMPDEST POP CALLER PUSH1 0x0 SWAP1 DUP2 MSTORE PUSH1 0x15 PUSH1 0x20 MSTORE PUSH1 0x40 DUP2 KECCAK256 SLOAD SWAP1 PUSH1 0x1 PUSH1 0x3 DUP4 MOD DUP2 ADD SWAP2 SWAP1 DUP3 EQ ISZERO PUSH2 0x2017 JUMPI POP PUSH1 0x1 PUSH1 0x64 DUP4 MOD ADD PUSH2 0x2036 JUMP JUMPDEST DUP2 PUSH1 0x2 EQ ISZERO PUSH2 0x202D JUMPI POP PUSH1 0x65 PUSH1 0x64 DUP4 MOD ADD PUSH2 0x2036 JUMP JUMPDEST POP PUSH1 0xC9 PUSH1 0x64 DUP4 MOD ADD JUMPDEST PUSH1 0x1 PUSH1 0x64 PUSH1 0x32 DUP6 MUL MOD ADD PUSH1 0x60 PUSH1 0x10 PUSH1 0x19 DUP7 MOD DUP2 SLOAD DUP2 LT PUSH2 0x2052 JUMPI INVALID JUMPDEST PUSH1 0x0 SWAP2 DUP3 MSTORE PUSH1 0x20 SWAP2 DUP3 SWAP1 KECCAK256 ADD DUP1 SLOAD PUSH1 0x40 DUP1 MLOAD PUSH1 0x1F PUSH1 0x2 PUSH1 0x0 NOT PUSH2 0x100 PUSH1 0x1 DUP8 AND ISZERO MUL ADD SWAP1 SWAP5 AND SWAP4 SWAP1 SWAP4 DIV SWAP3 DUP4 ADD DUP6 SWAP1 DIV DUP6 MUL DUP2 ADD DUP6 ADD SWAP1 SWAP2 MSTORE DUP2 DUP2 MSTORE SWAP3 DUP4 ADD DUP3 DUP3 DUP1 ISZERO PUSH2 0x20E0 JUMPI DUP1 PUSH1 0x1F LT PUSH2 0x20B5 JUMPI PUSH2 0x100 DUP1 DUP4 SLOAD DIV MUL DUP4 MSTORE SWAP2 PUSH1 0x20 ADD SWAP2 PUSH2 0x20E0 JUMP JUMPDEST DUP3 ADD SWAP2 SWAP1 PUSH1 0x0 MSTORE PUSH1 0x20 PUSH1 0x0 KECCAK256 SWAP1 JUMPDEST DUP2 SLOAD DUP2 MSTORE SWAP1 PUSH1 0x1 ADD SWAP1 PUSH1 0x20 ADD DUP1 DUP4 GT PUSH2 0x20C3 JUMPI DUP3 SWAP1 SUB PUSH1 0x1F AND DUP3 ADD SWAP2 JUMPDEST POP POP POP POP POP SWAP1 POP PUSH2 0x20EF PUSH2 0x2D3B JUMP JUMPDEST POP PUSH1 0x40 DUP1 MLOAD PUSH1 0xE0 DUP2 ADD DUP3 MSTORE DUP6 DUP2 MSTORE PUSH1 0x20 DUP1 DUP3 ADD DUP7 DUP2 MSTORE SWAP3 DUP3 ADD DUP6 DUP2 MSTORE PUSH1 0x60 DUP4 ADD DUP6 DUP2 MSTORE TIMESTAMP PUSH4 0xFFFFFFFF AND PUSH1 0x80 DUP6 ADD MSTORE PUSH1 0xA0 DUP5 ADD DUP13 SWAP1 MSTORE PUSH1 0x0 PUSH1 0xC0 DUP6 ADD DUP2 SWAP1 MSTORE PUSH1 0x11 DUP1 SLOAD PUSH1 0x1 DUP2 ADD DUP3 SSTORE SWAP2 MSTORE DUP5 MLOAD PUSH32 0x31ECC21A745E3968A04E9570E4425BC18FA8019C68028196B546D1669C200C68 PUSH1 0x7 SWAP1 SWAP3 MUL SWAP2 DUP3 ADD SWAP1 DUP2 SSTORE SWAP6 MLOAD PUSH32 0x31ECC21A745E3968A04E9570E4425BC18FA8019C68028196B546D1669C200C69 DUP3 ADD SSTORE SWAP2 MLOAD PUSH32 0x31ECC21A745E3968A04E9570E4425BC18FA8019C68028196B546D1669C200C6A DUP4 ADD SSTORE MLOAD DUP1 MLOAD SWAP4 SWAP5 DUP6 SWAP5 SWAP1 SWAP4 PUSH2 0x21EB SWAP4 PUSH32 0x31ECC21A745E3968A04E9570E4425BC18FA8019C68028196B546D1669C200C6B ADD SWAP3 ADD SWAP1 PUSH2 0x2D80 JUMP JUMPDEST POP PUSH1 0x80 DUP3 ADD MLOAD PUSH1 0x4 DUP3 ADD DUP1 SLOAD PUSH4 0xFFFFFFFF NOT AND PUSH4 0xFFFFFFFF SWAP1 SWAP3 AND SWAP2 SWAP1 SWAP2 OR SWAP1 SSTORE PUSH1 0xA0 DUP3 ADD MLOAD PUSH1 0x5 DUP3 ADD SSTORE PUSH1 0xC0 SWAP1 SWAP2 ADD MLOAD PUSH1 0x6 SWAP1 SWAP2 ADD DUP1 SLOAD PUSH1 0xFF NOT AND SWAP2 ISZERO ISZERO SWAP2 SWAP1 SWAP2 OR SWAP1 SSTORE PUSH1 0xF DUP1 SLOAD PUSH1 0x1 ADD SWAP1 SSTORE SWAP8 SWAP7 POP POP POP POP POP POP POP JUMP JUMPDEST PUSH2 0x11A9 DUP3 DUP3 PUSH1 0x40 MLOAD DUP1 PUSH1 0x20 ADD PUSH1 0x40 MSTORE DUP1 PUSH1 0x0 DUP2 MSTORE POP PUSH2 0x2758 JUMP JUMPDEST PUSH1 0x0 PUSH2 0x9E6 DUP4 DUP4 PUSH2 0x27AA JUMP JUMPDEST SLOAD SWAP1 JUMP JUMPDEST PUSH1 0x0 PUSH2 0x9E6 DUP4 DUP4 PUSH2 0x27C2 JUMP JUMPDEST PUSH1 0x0 PUSH2 0x9E6 DUP4 DUP4 PUSH2 0x2888 JUMP JUMPDEST PUSH1 0x0 PUSH2 0x1B7D DUP5 DUP5 PUSH1 0x1 PUSH1 0x1 PUSH1 0xA0 SHL SUB DUP6 AND PUSH2 0x28D2 JUMP JUMPDEST DUP2 SLOAD PUSH1 0x0 SWAP1 DUP3 LT PUSH2 0x22DE JUMPI PUSH1 0x40 MLOAD PUSH3 0x461BCD PUSH1 0xE5 SHL DUP2 MSTORE PUSH1 0x4 ADD DUP1 DUP1 PUSH1 0x20 ADD DUP3 DUP2 SUB DUP3 MSTORE PUSH1 0x22 DUP2 MSTORE PUSH1 0x20 ADD DUP1 PUSH2 0x2E14 PUSH1 0x22 SWAP2 CODECOPY PUSH1 0x40 ADD SWAP2 POP POP PUSH1 0x40 MLOAD DUP1 SWAP2 SUB SWAP1 REVERT JUMPDEST DUP3 PUSH1 0x0 ADD DUP3 DUP2 SLOAD DUP2 LT PUSH2 0x22ED JUMPI INVALID JUMPDEST SWAP1 PUSH1 0x0 MSTORE PUSH1 0x20 PUSH1 0x0 KECCAK256 ADD SLOAD SWAP1 POP SWAP3 SWAP2 POP POP JUMP JUMPDEST DUP2 SLOAD PUSH1 0x0 SWAP1 DUP2 SWAP1 DUP4 LT PUSH2 0x2344 JUMPI PUSH1 0x40 MLOAD PUSH3 0x461BCD PUSH1 0xE5 SHL DUP2 MSTORE PUSH1 0x4 ADD DUP1 DUP1 PUSH1 0x20 ADD DUP3 DUP2 SUB DUP3 MSTORE PUSH1 0x22 DUP2 MSTORE PUSH1 0x20 ADD DUP1 PUSH2 0x2FC0 PUSH1 0x22 SWAP2 CODECOPY PUSH1 0x40 ADD SWAP2 POP POP PUSH1 0x40 MLOAD DUP1 SWAP2 SUB SWAP1 REVERT JUMPDEST PUSH1 0x0 DUP5 PUSH1 0x0 ADD DUP5 DUP2 SLOAD DUP2 LT PUSH2 0x2355 JUMPI INVALID JUMPDEST SWAP1 PUSH1 0x0 MSTORE PUSH1 0x20 PUSH1 0x0 KECCAK256 SWAP1 PUSH1 0x2 MUL ADD SWAP1 POP DUP1 PUSH1 0x0 ADD SLOAD DUP2 PUSH1 0x1 ADD SLOAD SWAP3 POP SWAP3 POP POP SWAP3 POP SWAP3 SWAP1 POP JUMP JUMPDEST PUSH1 0x0 DUP3 DUP2 MSTORE PUSH1 0x1 DUP5 ADD PUSH1 0x20 MSTORE PUSH1 0x40 DUP2 KECCAK256 SLOAD DUP3 DUP2 PUSH2 0x2416 JUMPI PUSH1 0x40 MLOAD PUSH3 0x461BCD PUSH1 0xE5 SHL DUP2 MSTORE PUSH1 0x4 ADD DUP1 DUP1 PUSH1 0x20 ADD DUP3 DUP2 SUB DUP3 MSTORE DUP4 DUP2 DUP2 MLOAD DUP2 MSTORE PUSH1 0x20 ADD SWAP2 POP DUP1 MLOAD SWAP1 PUSH1 0x20 ADD SWAP1 DUP1 DUP4 DUP4 PUSH1 0x0 JUMPDEST DUP4 DUP2 LT ISZERO PUSH2 0x23DB JUMPI DUP2 DUP2 ADD MLOAD DUP4 DUP3 ADD MSTORE PUSH1 0x20 ADD PUSH2 0x23C3 JUMP JUMPDEST POP POP POP POP SWAP1 POP SWAP1 DUP2 ADD SWAP1 PUSH1 0x1F AND DUP1 ISZERO PUSH2 0x2408 JUMPI DUP1 DUP3 SUB DUP1 MLOAD PUSH1 0x1 DUP4 PUSH1 0x20 SUB PUSH2 0x100 EXP SUB NOT AND DUP2 MSTORE PUSH1 0x20 ADD SWAP2 POP JUMPDEST POP SWAP3 POP POP POP PUSH1 0x40 MLOAD DUP1 SWAP2 SUB SWAP1 REVERT JUMPDEST POP DUP5 PUSH1 0x0 ADD PUSH1 0x1 DUP3 SUB DUP2 SLOAD DUP2 LT PUSH2 0x2429 JUMPI INVALID JUMPDEST SWAP1 PUSH1 0x0 MSTORE PUSH1 0x20 PUSH1 0x0 KECCAK256 SWAP1 PUSH1 0x2 MUL ADD PUSH1 0x1 ADD SLOAD SWAP2 POP POP SWAP4 SWAP3 POP POP POP JUMP JUMPDEST PUSH1 0x0 PUSH32 0x0 PUSH1 0x1 PUSH1 0x1 PUSH1 0xA0 SHL SUB AND PUSH4 0x4000AEA0 PUSH32 0x0 DUP5 DUP7 PUSH1 0x0 PUSH1 0x40 MLOAD PUSH1 0x20 ADD DUP1 DUP4 DUP2 MSTORE PUSH1 0x20 ADD DUP3 DUP2 MSTORE PUSH1 0x20 ADD SWAP3 POP POP POP PUSH1 0x40 MLOAD PUSH1 0x20 DUP2 DUP4 SUB SUB DUP2 MSTORE SWAP1 PUSH1 0x40 MSTORE PUSH1 0x40 MLOAD DUP5 PUSH4 0xFFFFFFFF AND PUSH1 0xE0 SHL DUP2 MSTORE PUSH1 0x4 ADD DUP1 DUP5 PUSH1 0x1 PUSH1 0x1 PUSH1 0xA0 SHL SUB AND DUP2 MSTORE PUSH1 0x20 ADD DUP4 DUP2 MSTORE PUSH1 0x20 ADD DUP1 PUSH1 0x20 ADD DUP3 DUP2 SUB DUP3 MSTORE DUP4 DUP2 DUP2 MLOAD DUP2 MSTORE PUSH1 0x20 ADD SWAP2 POP DUP1 MLOAD SWAP1 PUSH1 0x20 ADD SWAP1 DUP1 DUP4 DUP4 PUSH1 0x0 JUMPDEST DUP4 DUP2 LT ISZERO PUSH2 0x2522 JUMPI DUP2 DUP2 ADD MLOAD DUP4 DUP3 ADD MSTORE PUSH1 0x20 ADD PUSH2 0x250A JUMP JUMPDEST POP POP POP POP SWAP1 POP SWAP1 DUP2 ADD SWAP1 PUSH1 0x1F AND DUP1 ISZERO PUSH2 0x254F JUMPI DUP1 DUP3 SUB DUP1 MLOAD PUSH1 0x1 DUP4 PUSH1 0x20 SUB PUSH2 0x100 EXP SUB NOT AND DUP2 MSTORE PUSH1 0x20 ADD SWAP2 POP JUMPDEST POP SWAP5 POP POP POP POP POP PUSH1 0x20 PUSH1 0x40 MLOAD DUP1 DUP4 SUB DUP2 PUSH1 0x0 DUP8 DUP1 EXTCODESIZE ISZERO DUP1 ISZERO PUSH2 0x2570 JUMPI PUSH1 0x0 DUP1 REVERT JUMPDEST POP GAS CALL ISZERO DUP1 ISZERO PUSH2 0x2584 JUMPI RETURNDATASIZE PUSH1 0x0 DUP1 RETURNDATACOPY RETURNDATASIZE PUSH1 0x0 REVERT JUMPDEST POP POP POP POP PUSH1 0x40 MLOAD RETURNDATASIZE PUSH1 0x20 DUP2 LT ISZERO PUSH2 0x259A JUMPI PUSH1 0x0 DUP1 REVERT JUMPDEST POP POP PUSH1 0x0 DUP4 DUP2 MSTORE PUSH1 0xB PUSH1 0x20 MSTORE PUSH1 0x40 DUP2 KECCAK256 SLOAD PUSH2 0x25BA SWAP1 DUP6 SWAP1 DUP4 SWAP1 ADDRESS SWAP1 PUSH2 0x2969 JUMP JUMPDEST PUSH1 0x0 DUP6 DUP2 MSTORE PUSH1 0xB PUSH1 0x20 MSTORE PUSH1 0x40 SWAP1 KECCAK256 SLOAD SWAP1 SWAP2 POP PUSH2 0x25D7 SWAP1 PUSH1 0x1 PUSH2 0x29B0 JUMP JUMPDEST PUSH1 0x0 DUP6 DUP2 MSTORE PUSH1 0xB PUSH1 0x20 MSTORE PUSH1 0x40 SWAP1 KECCAK256 SSTORE PUSH2 0x19F4 DUP5 DUP3 PUSH2 0x2A0A JUMP JUMPDEST PUSH1 0x0 PUSH2 0x2604 DUP5 PUSH1 0x1 PUSH1 0x1 PUSH1 0xA0 SHL SUB AND PUSH2 0x2A36 JUMP JUMPDEST PUSH2 0x2610 JUMPI POP PUSH1 0x1 PUSH2 0x19F4 JUMP JUMPDEST PUSH1 0x60 PUSH2 0x271E PUSH4 0xA85BD01 PUSH1 0xE1 SHL PUSH2 0x2625 PUSH2 0x18DB JUMP JUMPDEST DUP9 DUP8 DUP8 PUSH1 0x40 MLOAD PUSH1 0x24 ADD DUP1 DUP6 PUSH1 0x1 PUSH1 0x1 PUSH1 0xA0 SHL SUB AND DUP2 MSTORE PUSH1 0x20 ADD DUP5 PUSH1 0x1 PUSH1 0x1 PUSH1 0xA0 SHL SUB AND DUP2 MSTORE PUSH1 0x20 ADD DUP4 DUP2 MSTORE PUSH1 0x20 ADD DUP1 PUSH1 0x20 ADD DUP3 DUP2 SUB DUP3 MSTORE DUP4 DUP2 DUP2 MLOAD DUP2 MSTORE PUSH1 0x20 ADD SWAP2 POP DUP1 MLOAD SWAP1 PUSH1 0x20 ADD SWAP1 DUP1 DUP4 DUP4 PUSH1 0x0 JUMPDEST DUP4 DUP2 LT ISZERO PUSH2 0x268C JUMPI DUP2 DUP2 ADD MLOAD DUP4 DUP3 ADD MSTORE PUSH1 0x20 ADD PUSH2 0x2674 JUMP JUMPDEST POP POP POP POP SWAP1 POP SWAP1 DUP2 ADD SWAP1 PUSH1 0x1F AND DUP1 ISZERO PUSH2 0x26B9 JUMPI DUP1 DUP3 SUB DUP1 MLOAD PUSH1 0x1 DUP4 PUSH1 0x20 SUB PUSH2 0x100 EXP SUB NOT AND DUP2 MSTORE PUSH1 0x20 ADD SWAP2 POP JUMPDEST POP SWAP6 POP POP POP POP POP POP PUSH1 0x40 MLOAD PUSH1 0x20 DUP2 DUP4 SUB SUB DUP2 MSTORE SWAP1 PUSH1 0x40 MSTORE SWAP1 PUSH1 0x1 PUSH1 0x1 PUSH1 0xE0 SHL SUB NOT AND PUSH1 0x20 DUP3 ADD DUP1 MLOAD PUSH1 0x1 PUSH1 0x1 PUSH1 0xE0 SHL SUB DUP4 DUP2 DUP4 AND OR DUP4 MSTORE POP POP POP POP PUSH1 0x40 MLOAD DUP1 PUSH1 0x60 ADD PUSH1 0x40 MSTORE DUP1 PUSH1 0x32 DUP2 MSTORE PUSH1 0x20 ADD PUSH2 0x2E36 PUSH1 0x32 SWAP2 CODECOPY PUSH1 0x1 PUSH1 0x1 PUSH1 0xA0 SHL SUB DUP9 AND SWAP2 SWAP1 PUSH2 0x2A3C JUMP JUMPDEST SWAP1 POP PUSH1 0x0 DUP2 DUP1 PUSH1 0x20 ADD SWAP1 MLOAD PUSH1 0x20 DUP2 LT ISZERO PUSH2 0x2737 JUMPI PUSH1 0x0 DUP1 REVERT JUMPDEST POP MLOAD PUSH1 0x1 PUSH1 0x1 PUSH1 0xE0 SHL SUB NOT AND PUSH4 0xA85BD01 PUSH1 0xE1 SHL EQ SWAP3 POP POP POP SWAP5 SWAP4 POP POP POP POP JUMP JUMPDEST PUSH2 0x2762 DUP4 DUP4 PUSH2 0x2A4B JUMP JUMPDEST PUSH2 0x276F PUSH1 0x0 DUP5 DUP5 DUP5 PUSH2 0x25F0 JUMP JUMPDEST PUSH2 0x8ED JUMPI PUSH1 0x40 MLOAD PUSH3 0x461BCD PUSH1 0xE5 SHL DUP2 MSTORE PUSH1 0x4 ADD DUP1 DUP1 PUSH1 0x20 ADD DUP3 DUP2 SUB DUP3 MSTORE PUSH1 0x32 DUP2 MSTORE PUSH1 0x20 ADD DUP1 PUSH2 0x2E36 PUSH1 0x32 SWAP2 CODECOPY PUSH1 0x40 ADD SWAP2 POP POP PUSH1 0x40 MLOAD DUP1 SWAP2 SUB SWAP1 REVERT JUMPDEST PUSH1 0x0 SWAP1 DUP2 MSTORE PUSH1 0x1 SWAP2 SWAP1 SWAP2 ADD PUSH1 0x20 MSTORE PUSH1 0x40 SWAP1 KECCAK256 SLOAD ISZERO ISZERO SWAP1 JUMP JUMPDEST PUSH1 0x0 DUP2 DUP2 MSTORE PUSH1 0x1 DUP4 ADD PUSH1 0x20 MSTORE PUSH1 0x40 DUP2 KECCAK256 SLOAD DUP1 ISZERO PUSH2 0x287E JUMPI DUP4 SLOAD PUSH1 0x0 NOT DUP1 DUP4 ADD SWAP2 SWAP1 DUP2 ADD SWAP1 PUSH1 0x0 SWAP1 DUP8 SWAP1 DUP4 SWAP1 DUP2 LT PUSH2 0x27F5 JUMPI INVALID JUMPDEST SWAP1 PUSH1 0x0 MSTORE PUSH1 0x20 PUSH1 0x0 KECCAK256 ADD SLOAD SWAP1 POP DUP1 DUP8 PUSH1 0x0 ADD DUP5 DUP2 SLOAD DUP2 LT PUSH2 0x2812 JUMPI INVALID JUMPDEST PUSH1 0x0 SWAP2 DUP3 MSTORE PUSH1 0x20 DUP1 DUP4 KECCAK256 SWAP1 SWAP2 ADD SWAP3 SWAP1 SWAP3 SSTORE DUP3 DUP2 MSTORE PUSH1 0x1 DUP10 DUP2 ADD SWAP1 SWAP3 MSTORE PUSH1 0x40 SWAP1 KECCAK256 SWAP1 DUP5 ADD SWAP1 SSTORE DUP7 SLOAD DUP8 SWAP1 DUP1 PUSH2 0x2842 JUMPI INVALID JUMPDEST PUSH1 0x1 SWAP1 SUB DUP2 DUP2 SWAP1 PUSH1 0x0 MSTORE PUSH1 0x20 PUSH1 0x0 KECCAK256 ADD PUSH1 0x0 SWAP1 SSTORE SWAP1 SSTORE DUP7 PUSH1 0x1 ADD PUSH1 0x0 DUP8 DUP2 MSTORE PUSH1 0x20 ADD SWAP1 DUP2 MSTORE PUSH1 0x20 ADD PUSH1 0x0 KECCAK256 PUSH1 0x0 SWAP1 SSTORE PUSH1 0x1 SWAP5 POP POP POP POP POP PUSH2 0x9E9 JUMP JUMPDEST PUSH1 0x0 SWAP2 POP POP PUSH2 0x9E9 JUMP JUMPDEST PUSH1 0x0 PUSH2 0x2894 DUP4 DUP4 PUSH2 0x27AA JUMP JUMPDEST PUSH2 0x28CA JUMPI POP DUP2 SLOAD PUSH1 0x1 DUP2 DUP2 ADD DUP5 SSTORE PUSH1 0x0 DUP5 DUP2 MSTORE PUSH1 0x20 DUP1 DUP3 KECCAK256 SWAP1 SWAP4 ADD DUP5 SWAP1 SSTORE DUP5 SLOAD DUP5 DUP3 MSTORE DUP3 DUP7 ADD SWAP1 SWAP4 MSTORE PUSH1 0x40 SWAP1 KECCAK256 SWAP2 SWAP1 SWAP2 SSTORE PUSH2 0x9E9 JUMP JUMPDEST POP PUSH1 0x0 PUSH2 0x9E9 JUMP JUMPDEST PUSH1 0x0 DUP3 DUP2 MSTORE PUSH1 0x1 DUP5 ADD PUSH1 0x20 MSTORE PUSH1 0x40 DUP2 KECCAK256 SLOAD DUP1 PUSH2 0x2937 JUMPI POP POP PUSH1 0x40 DUP1 MLOAD DUP1 DUP3 ADD DUP3 MSTORE DUP4 DUP2 MSTORE PUSH1 0x20 DUP1 DUP3 ADD DUP5 DUP2 MSTORE DUP7 SLOAD PUSH1 0x1 DUP2 DUP2 ADD DUP10 SSTORE PUSH1 0x0 DUP10 DUP2 MSTORE DUP5 DUP2 KECCAK256 SWAP6 MLOAD PUSH1 0x2 SWAP1 SWAP4 MUL SWAP1 SWAP6 ADD SWAP2 DUP3 SSTORE SWAP2 MLOAD SWAP1 DUP3 ADD SSTORE DUP7 SLOAD DUP7 DUP5 MSTORE DUP2 DUP9 ADD SWAP1 SWAP3 MSTORE SWAP3 SWAP1 SWAP2 KECCAK256 SSTORE PUSH2 0x1B80 JUMP JUMPDEST DUP3 DUP6 PUSH1 0x0 ADD PUSH1 0x1 DUP4 SUB DUP2 SLOAD DUP2 LT PUSH2 0x294A JUMPI INVALID JUMPDEST SWAP1 PUSH1 0x0 MSTORE PUSH1 0x20 PUSH1 0x0 KECCAK256 SWAP1 PUSH1 0x2 MUL ADD PUSH1 0x1 ADD DUP2 SWAP1 SSTORE POP PUSH1 0x0 SWAP2 POP POP PUSH2 0x1B80 JUMP JUMPDEST PUSH1 0x40 DUP1 MLOAD PUSH1 0x20 DUP1 DUP3 ADD SWAP7 SWAP1 SWAP7 MSTORE DUP1 DUP3 ADD SWAP5 SWAP1 SWAP5 MSTORE PUSH1 0x1 PUSH1 0x1 PUSH1 0xA0 SHL SUB SWAP3 SWAP1 SWAP3 AND PUSH1 0x60 DUP5 ADD MSTORE PUSH1 0x80 DUP1 DUP5 ADD SWAP2 SWAP1 SWAP2 MSTORE DUP2 MLOAD DUP1 DUP5 SUB SWAP1 SWAP2 ADD DUP2 MSTORE PUSH1 0xA0 SWAP1 SWAP3 ADD SWAP1 MSTORE DUP1 MLOAD SWAP2 ADD KECCAK256 SWAP1 JUMP JUMPDEST PUSH1 0x0 DUP3 DUP3 ADD DUP4 DUP2 LT ISZERO PUSH2 0x9E6 JUMPI PUSH1 0x40 DUP1 MLOAD PUSH3 0x461BCD PUSH1 0xE5 SHL DUP2 MSTORE PUSH1 0x20 PUSH1 0x4 DUP3 ADD MSTORE PUSH1 0x1B PUSH1 0x24 DUP3 ADD MSTORE PUSH32 0x536166654D6174683A206164646974696F6E206F766572666C6F770000000000 PUSH1 0x44 DUP3 ADD MSTORE SWAP1 MLOAD SWAP1 DUP2 SWAP1 SUB PUSH1 0x64 ADD SWAP1 REVERT JUMPDEST PUSH1 0x40 DUP1 MLOAD PUSH1 0x20 DUP1 DUP3 ADD SWAP5 SWAP1 SWAP5 MSTORE DUP1 DUP3 ADD SWAP3 SWAP1 SWAP3 MSTORE DUP1 MLOAD DUP1 DUP4 SUB DUP3 ADD DUP2 MSTORE PUSH1 0x60 SWAP1 SWAP3 ADD SWAP1 MSTORE DUP1 MLOAD SWAP2 ADD KECCAK256 SWAP1 JUMP JUMPDEST EXTCODESIZE ISZERO ISZERO SWAP1 JUMP JUMPDEST PUSH1 0x60 PUSH2 0x1B7D DUP5 DUP5 PUSH1 0x0 DUP6 PUSH2 0x2B79 JUMP JUMPDEST PUSH1 0x1 PUSH1 0x1 PUSH1 0xA0 SHL SUB DUP3 AND PUSH2 0x2AA6 JUMPI PUSH1 0x40 DUP1 MLOAD PUSH3 0x461BCD PUSH1 0xE5 SHL DUP2 MSTORE PUSH1 0x20 PUSH1 0x4 DUP3 ADD DUP2 SWAP1 MSTORE PUSH1 0x24 DUP3 ADD MSTORE PUSH32 0x4552433732313A206D696E7420746F20746865207A65726F2061646472657373 PUSH1 0x44 DUP3 ADD MSTORE SWAP1 MLOAD SWAP1 DUP2 SWAP1 SUB PUSH1 0x64 ADD SWAP1 REVERT JUMPDEST PUSH2 0x2AAF DUP2 PUSH2 0x18CE JUMP JUMPDEST ISZERO PUSH2 0x2B01 JUMPI PUSH1 0x40 DUP1 MLOAD PUSH3 0x461BCD PUSH1 0xE5 SHL DUP2 MSTORE PUSH1 0x20 PUSH1 0x4 DUP3 ADD MSTORE PUSH1 0x1C PUSH1 0x24 DUP3 ADD MSTORE PUSH32 0x4552433732313A20746F6B656E20616C7265616479206D696E74656400000000 PUSH1 0x44 DUP3 ADD MSTORE SWAP1 MLOAD SWAP1 DUP2 SWAP1 SUB PUSH1 0x64 ADD SWAP1 REVERT JUMPDEST PUSH2 0x2B0D PUSH1 0x0 DUP4 DUP4 PUSH2 0x8ED JUMP JUMPDEST PUSH1 0x1 PUSH1 0x1 PUSH1 0xA0 SHL SUB DUP3 AND PUSH1 0x0 SWAP1 DUP2 MSTORE PUSH1 0x2 PUSH1 0x20 MSTORE PUSH1 0x40 SWAP1 KECCAK256 PUSH2 0x2B2F SWAP1 DUP3 PUSH2 0x227A JUMP JUMPDEST POP PUSH2 0x2B3C PUSH1 0x3 DUP3 DUP5 PUSH2 0x2286 JUMP JUMPDEST POP PUSH1 0x40 MLOAD DUP2 SWAP1 PUSH1 0x1 PUSH1 0x1 PUSH1 0xA0 SHL SUB DUP5 AND SWAP1 PUSH1 0x0 SWAP1 PUSH32 0xDDF252AD1BE2C89B69C2B068FC378DAA952BA7F163C4A11628F55A4DF523B3EF SWAP1 DUP3 SWAP1 LOG4 POP POP JUMP JUMPDEST PUSH1 0x60 DUP3 SELFBALANCE LT ISZERO PUSH2 0x2BBA JUMPI PUSH1 0x40 MLOAD PUSH3 0x461BCD PUSH1 0xE5 SHL DUP2 MSTORE PUSH1 0x4 ADD DUP1 DUP1 PUSH1 0x20 ADD DUP3 DUP2 SUB DUP3 MSTORE PUSH1 0x26 DUP2 MSTORE PUSH1 0x20 ADD DUP1 PUSH2 0x2EE3 PUSH1 0x26 SWAP2 CODECOPY PUSH1 0x40 ADD SWAP2 POP POP PUSH1 0x40 MLOAD DUP1 SWAP2 SUB SWAP1 REVERT JUMPDEST PUSH2 0x2BC3 DUP6 PUSH2 0x2A36 JUMP JUMPDEST PUSH2 0x2C14 JUMPI PUSH1 0x40 DUP1 MLOAD PUSH3 0x461BCD PUSH1 0xE5 SHL DUP2 MSTORE PUSH1 0x20 PUSH1 0x4 DUP3 ADD MSTORE PUSH1 0x1D PUSH1 0x24 DUP3 ADD MSTORE PUSH32 0x416464726573733A2063616C6C20746F206E6F6E2D636F6E7472616374000000 PUSH1 0x44 DUP3 ADD MSTORE SWAP1 MLOAD SWAP1 DUP2 SWAP1 SUB PUSH1 0x64 ADD SWAP1 REVERT JUMPDEST PUSH1 0x0 PUSH1 0x60 DUP7 PUSH1 0x1 PUSH1 0x1 PUSH1 0xA0 SHL SUB AND DUP6 DUP8 PUSH1 0x40 MLOAD DUP1 DUP3 DUP1 MLOAD SWAP1 PUSH1 0x20 ADD SWAP1 DUP1 DUP4 DUP4 JUMPDEST PUSH1 0x20 DUP4 LT PUSH2 0x2C53 JUMPI DUP1 MLOAD DUP3 MSTORE PUSH1 0x1F NOT SWAP1 SWAP3 ADD SWAP2 PUSH1 0x20 SWAP2 DUP3 ADD SWAP2 ADD PUSH2 0x2C34 JUMP JUMPDEST PUSH1 0x1 DUP4 PUSH1 0x20 SUB PUSH2 0x100 EXP SUB DUP1 NOT DUP3 MLOAD AND DUP2 DUP5 MLOAD AND DUP1 DUP3 OR DUP6 MSTORE POP POP POP POP POP POP SWAP1 POP ADD SWAP2 POP POP PUSH1 0x0 PUSH1 0x40 MLOAD DUP1 DUP4 SUB DUP2 DUP6 DUP8 GAS CALL SWAP3 POP POP POP RETURNDATASIZE DUP1 PUSH1 0x0 DUP2 EQ PUSH2 0x2CB5 JUMPI PUSH1 0x40 MLOAD SWAP2 POP PUSH1 0x1F NOT PUSH1 0x3F RETURNDATASIZE ADD AND DUP3 ADD PUSH1 0x40 MSTORE RETURNDATASIZE DUP3 MSTORE RETURNDATASIZE PUSH1 0x0 PUSH1 0x20 DUP5 ADD RETURNDATACOPY PUSH2 0x2CBA JUMP JUMPDEST PUSH1 0x60 SWAP2 POP JUMPDEST POP SWAP2 POP SWAP2 POP PUSH2 0x2CCA DUP3 DUP3 DUP7 PUSH2 0x2CD5 JUMP JUMPDEST SWAP8 SWAP7 POP POP POP POP POP POP POP JUMP JUMPDEST PUSH1 0x60 DUP4 ISZERO PUSH2 0x2CE4 JUMPI POP DUP2 PUSH2 0x1B80 JUMP JUMPDEST DUP3 MLOAD ISZERO PUSH2 0x2CF4 JUMPI DUP3 MLOAD DUP1 DUP5 PUSH1 0x20 ADD REVERT JUMPDEST PUSH1 0x40 MLOAD PUSH3 0x461BCD PUSH1 0xE5 SHL DUP2 MSTORE PUSH1 0x20 PUSH1 0x4 DUP3 ADD DUP2 DUP2 MSTORE DUP5 MLOAD PUSH1 0x24 DUP5 ADD MSTORE DUP5 MLOAD DUP6 SWAP4 SWAP2 SWAP3 DUP4 SWAP3 PUSH1 0x44 ADD SWAP2 SWAP1 DUP6 ADD SWAP1 DUP1 DUP4 DUP4 PUSH1 0x0 DUP4 ISZERO PUSH2 0x23DB JUMPI DUP2 DUP2 ADD MLOAD DUP4 DUP3 ADD MSTORE PUSH1 0x20 ADD PUSH2 0x23C3 JUMP JUMPDEST PUSH1 0x40 MLOAD DUP1 PUSH1 0xE0 ADD PUSH1 0x40 MSTORE DUP1 PUSH1 0x0 DUP2 MSTORE PUSH1 0x20 ADD PUSH1 0x0 DUP2 MSTORE PUSH1 0x20 ADD PUSH1 0x0 DUP2 MSTORE PUSH1 0x20 ADD PUSH1 0x60 DUP2 MSTORE PUSH1 0x20 ADD PUSH1 0x0 PUSH4 0xFFFFFFFF AND DUP2 MSTORE PUSH1 0x20 ADD PUSH1 0x0 DUP2 MSTORE PUSH1 0x20 ADD PUSH1 0x0 ISZERO ISZERO DUP2 MSTORE POP SWAP1 JUMP JUMPDEST DUP3 DUP1 SLOAD PUSH1 0x1 DUP2 PUSH1 0x1 AND ISZERO PUSH2 0x100 MUL SUB AND PUSH1 0x2 SWAP1 DIV SWAP1 PUSH1 0x0 MSTORE PUSH1 0x20 PUSH1 0x0 KECCAK256 SWAP1 PUSH1 0x1F ADD PUSH1 0x20 SWAP1 DIV DUP2 ADD SWAP3 DUP3 PUSH1 0x1F LT PUSH2 0x2DC1 JUMPI DUP1 MLOAD PUSH1 0xFF NOT AND DUP4 DUP1 ADD OR DUP6 SSTORE PUSH2 0x2DEE JUMP JUMPDEST DUP3 DUP1 ADD PUSH1 0x1 ADD DUP6 SSTORE DUP3 ISZERO PUSH2 0x2DEE JUMPI SWAP2 DUP3 ADD JUMPDEST DUP3 DUP2 GT ISZERO PUSH2 0x2DEE JUMPI DUP3 MLOAD DUP3 SSTORE SWAP2 PUSH1 0x20 ADD SWAP2 SWAP1 PUSH1 0x1 ADD SWAP1 PUSH2 0x2DD3 JUMP JUMPDEST POP PUSH2 0x2DFA SWAP3 SWAP2 POP PUSH2 0x2DFE JUMP JUMPDEST POP SWAP1 JUMP JUMPDEST JUMPDEST DUP1 DUP3 GT ISZERO PUSH2 0x2DFA JUMPI PUSH1 0x0 DUP2 SSTORE PUSH1 0x1 ADD PUSH2 0x2DFF JUMP INVALID GASLIMIT PUSH15 0x756D657261626C655365743A20696E PUSH5 0x6578206F75 PUSH21 0x206F6620626F756E64734552433732313A20747261 PUSH15 0x7366657220746F206E6F6E20455243 CALLDATACOPY ORIGIN BALANCE MSTORE PUSH6 0x636569766572 KECCAK256 PUSH10 0x6D706C656D656E746572 0x4E PUSH16 0x7420656E6F756768204C494E4B202D20 PUSH7 0x696C6C20746865 KECCAK256 PUSH4 0x6F6E7472 PUSH2 0x6374 KECCAK256 PUSH24 0x697468206661756365744F574E45523A2043616C6C657220 PUSH2 0x7265 PUSH15 0x60742074686520436F6E7472616374 KECCAK256 0x4F PUSH24 0x6E6572214552433732313A207472616E7366657220746F20 PUSH21 0x6865207A65726F2061646472657373416464726573 PUSH20 0x3A20696E73756666696369656E742062616C616E PUSH4 0x6520666F PUSH19 0x2063616C6C4552433732313A206F7065726174 PUSH16 0x7220717565727920666F72206E6F6E65 PUSH25 0x697374656E7420746F6B656E4552433732313A20617070726F PUSH23 0x652063616C6C6572206973206E6F74206F776E6572206E PUSH16 0x7220617070726F76656420666F722061 PUSH13 0x6C4552433732313A2062616C61 PUSH15 0x636520717565727920666F72207468 PUSH6 0x207A65726F20 PUSH2 0x6464 PUSH19 0x6573734552433732313A206F776E6572207175 PUSH6 0x727920666F72 KECCAK256 PUSH15 0x6F6E6578697374656E7420746F6B65 PUSH15 0x456E756D657261626C654D61703A20 PUSH10 0x6E646578206F7574206F PUSH7 0x20626F756E6473 GASLIMIT MSTORE NUMBER CALLDATACOPY ORIGIN BALANCE GASPRICE KECCAK256 PUSH2 0x7070 PUSH19 0x6F76656420717565727920666F72206E6F6E65 PUSH25 0x697374656E7420746F6B656E4552433732313A207472616E73 PUSH7 0x6572206F662074 PUSH16 0x6B656E2074686174206973206E6F7420 PUSH16 0x776E4552433732314D65746164617461 GASPRICE KECCAK256 SSTORE MSTORE 0x49 KECCAK256 PUSH18 0x7565727920666F72206E6F6E657869737465 PUSH15 0x7420746F6B656E4552433732313A20 PUSH2 0x7070 PUSH19 0x6F76616C20746F2063757272656E74206F776E PUSH6 0x724552433732 BALANCE GASPRICE KECCAK256 PUSH21 0x72616E736665722063616C6C6572206973206E6F74 KECCAK256 PUSH16 0x776E6572206E6F7220617070726F7665 PUSH5 0xA264697066 PUSH20 0x5822122007C3831F8F68ADF0E6B1288D9E7D1928 0xEF MLOAD 0x2B 0x4F PUSH21 0x82D2C05C622F22297E2ECE64736F6C634300060C00 CALLER ",
  "sha1": "cb162b73db0512113241e82d9fee13ae96834831",
  "source": "// contracts/StudentsNft.sol\n// SPDX-License-Identifier: MIT\npragma solidity ^0.6.6;\n\nimport \"@openzeppelin/contracts/token/ERC721/ERC721.sol\";\nimport \"@chainlink/contracts/src/v0.6/VRFConsumerBase.sol\";\nimport \"@openzeppelin/contracts/utils/Strings.sol\";\nimport \"@openzeppelin/contracts/token/ERC20/ERC20.sol\";\nimport \"./TokenUJG.sol\";\nimport \"./Ownable.sol\";\n\n/**\n*   @title `Ujap students` game full solidity nft contract\n*   @dev Full implementation of an ERC721, VRFConsumerBase, Ownable, Strings contracts\n*   \n*   Description:\n*\n*   Project made for the presentation of a university thesis, based on the studies \n*   and databases of the blockchain to create a game, made to be run on Kovan Test \n*   Blockchain, Local Blockchain and Main Ethereum Blockchain.\n*\n*   This contract (StudentsNft) contains all the elements for the construction and operation of the NFT\n*   \n*   Author: https://github.com/simetb\n*   \n*   \n*/\n\ncontract StudentsNft is Ownable,ERC721, VRFConsumerBase{\n    \n    // Token Contract\n    TokenUJG internal _tokenUJG;\n\n    // Amount of tokens in contract\n    uint256 internal _tokenPool;\n\n    /**\n    *   @dev Data nft structure to the game\n    *   `level` character level\n    *   `intelligenceLevel` intelligence character stat\n    *   `cheatLevel` cheat character stat\n    *   `attackTime` is the rest time that take the nft for his next attack round\n    *   `random` selected randomly\n    *   `id` The NFT Id\n    *   `win` To check if the nft recently win\n    *   `market` To check if the nft is in the market \n    *   \n    *   `intelligenceLevel`, `cheatLevel` & `name` are selected randomly\n    *\n    *   Requirements:\n    * - `level` stat cannot be zero and this just can take 3 values (1,2,3) \n    * - `intelligenceLevel` stat cannot be zero and the final value deppend of the `level` stat\n    *   but this is just a buff MIN value 1, Max value 300\n    * - `cheatLevel` stat cannot be zero MIN value 1, MAX value 100\n    */\n    struct Student{\n        uint256 level;\n        uint256 intelligenceLevel;\n        uint256 cheatLevel;\n        string name;\n        uint32 attackTime;\n        uint256 id;\n        bool market;\n    }\n\n    // Cooldown Attack of the NFT\n    uint32 internal _coolDownTime;\n\n    // Id of the NFT\n    uint256 private _nftId;\n\n    // Random Nft Names\n    string[] private _names  = [\"Temis\", \"Jekatherina\", \"Hernandez\",\"Gabriel\",\"Maria\",\"Juan\",\"Maru\",\n           \"Sebastian\", \"Kevin\", \"Caranfa\", \"Julio\", \"Sammer\", \"Edkar\",\n           \"Quintero\", \"Ochado\", \"Francisco\", \"Diego\", \"Cristian\", \"Luis\",\n           \"Gocho\", \"Lopez\" , \"Marcel\" , \"Kristofer\" , \"Simet\" , \"Manguito\"];\n\n    // Array that save all the characters\n    Student[] internal _students;\n    \n    /** \n    *   @dev Variable mapping for the correct control and distribution of prizes and NFT\n    */\n    // Mapping from the owner to the amount of nft students\n    mapping(address => uint256) internal _nftOwnerCount;\n    \n    // Mapping from the owner to the nft\n    mapping(uint256 => address ) internal _nftToOwner;\n\n    // User that request of the random\n    mapping(bytes32 => address) private _requestToSender;\n\n    //  Data random number from the user\n    mapping(address => uint256) internal _userRandomNumber;\n\n    /** \n    *   @dev Events that are used to deploy events in js with the contract\n    */\n    // Event that get the result of the Attack\n    event ResultAttack(bool win, uint256 powerCharacter, uint256 powerLevel, uint256 wear, uint256 roll, uint256 reward);\n\n    // Evemt that get the created nft and their stats\n    event NftCreated(string name, uint256 level, uint256 intelligenceLevel, uint256 cheatLevel); \n\n    /** \n    *   @dev The control variables are used to adjust the prices, \n    *   prizes and consequences that the nfts bring if necessary.\n    */\n    // Control the price for the NFT mint function \n    uint256 private _nftPrice;\n\n    // Control Wear Variable\n    uint256 private _wearMultiplicator;\n\n    // Control Attack Variable\n    uint256 private _attackPriceMultiplicator;\n\n    // Control Reward Variables\n    uint256 private _rewardPriceMultiplicator;\n    \n    /**\n    *   @dev Kovan Default Blockhain Implementation\n    *   `_keyhash` kovan default = 0x6c3699283bda56ad74f6b855546325b68d482e983852a7a82979cc4807b641f4\n    *   `_fee` kovan default = 100000000000000000\n    *   `_VRFCoordinator` = 0xdD3782915140c8f3b190B5D67eAc6dc5760C46E9\n    *   `_linkToken` = 0xa36085F69e2889c224210F603D836748e7dC0088\n    */\n    bytes32 internal keyhash;\n\n    uint256 internal fee;\n    \n    constructor(\n        address _VRFCoordinator, \n        address _linkToken, \n        bytes32 _keyhash,  \n        address _tokenAddress,\n        uint256 nftPrice,\n        uint256 wearMultiplicator,\n        uint256 attackMultiplicator,\n        uint256 rewardPriceMultiplicator\n    ) public \n    Ownable()\n    VRFConsumerBase(_VRFCoordinator, _linkToken) \n    ERC721(\"Ujapista\",\"UJAP\")\n    {\n        // Randomness Variables\n        keyhash = _keyhash;\n        fee = 0.1 * 10**18;\n\n        // Nft Variables\n        _coolDownTime = 1 days;\n        _nftId = 0;\n        _nftPrice = nftPrice;\n        _wearMultiplicator = wearMultiplicator;\n        _attackPriceMultiplicator = attackMultiplicator;\n        _rewardPriceMultiplicator = rewardPriceMultiplicator;\n\n        // Token Contract Initialization\n        _tokenUJG = TokenUJG(_tokenAddress);\n\n    }\n\n    /**\n    *   @dev Just the owner of the nft: `StudentIndex.id` can interact with the function    \n    */\n    modifier OnlyOwnerOf(uint256 studentIndex) {\n        require(msg.sender == _nftToOwner[_students[studentIndex].id],\"U aren't the nft Owner\");\n        _;\n    }\n\n    /**\n    *   @dev Checking the enough UJG Token balance of the account     \n    */\n    modifier EnoughToken(address account, uint256 amount){\n        require(_tokenUJG.GetTokenBalance(account) >= amount,\"Not enough UJG\");\n        _;\n    }\n\n    /**\n    *   @dev Check the attacktime status \n    */\n    modifier AttackReady(uint256 studentIndex){\n        require(_students[studentIndex].attackTime <= now, \"Let rest your Student\");\n        _;\n    }\n\n    /**\n    *   @dev Check the market student status \n    */\n    modifier InMarket(uint256 studentIndex){\n        require(!(_students[studentIndex].market), \"The Student are in market\");\n        _;\n    }\n\n    /** \n    *   @dev Transfer function for token payments within the game  `USER TO CONTRACT`\n    */\n    function _transferUserToContract(uint256 amount, address from) internal{\n        _tokenUJG.TransferToken(from,address(this), amount);\n        _tokenPool += amount;\n    }\n\n    /** \n    *   @dev Transfer function for token payments within the game  `CONTRACT TO USER`\n    */\n    function _transferContractToUser(uint256 amount, address to) internal{\n        _tokenUJG.TransferToken(address(this),to, amount);\n        _tokenPool -= amount;\n    }\n\n    /** \n    *   @dev Set the new `RewardMultiplicator`\n    *\n    *   Requirement:\n    *   \n    * - Only the contract owner can set a `RewardMultiplicator`\n    */\n    function SetRewardMultiplicator(uint256 newRewardMultiplicator) \n    public \n    OnlyOwner(msg.sender){\n        _rewardPriceMultiplicator = newRewardMultiplicator;\n    }\n\n    /** \n    *   @dev Get the `_rewardPriceMultiplicator`\n    */\n    function GetRewardMultiplicator() \n    public \n    view\n    returns(uint256)\n    {return(_rewardPriceMultiplicator);}\n\n    /**\n    *   @dev Set the new `WearMultiplicator`\n    *\n    *   Requirement:\n    *   \n    * - Only the contract owner can set a `WearMultiplicator`\n    */\n    function SetWearMultiplicator(uint256 newWearMultiplicator) \n    public \n    OnlyOwner(msg.sender){\n        _wearMultiplicator = newWearMultiplicator;\n    }\n\n    /** \n    *   @dev Get the `_wearMultiplicator`\n    */\n    function GetWearMultiplicator()\n    public \n    view\n    returns(uint256)\n    {return(_wearMultiplicator);}\n\n    /**\n    *   @dev Set the new `AttackMultiplicator`\n    *\n    *   Requirement:\n    *   \n    * - Only the contract owner can set a `AttackMultiplicator`\n    */\n    function SetAttackPriceMultiplicator(uint256 newAttackMultiplicator) \n    public \n    OnlyOwner(msg.sender){\n        _attackPriceMultiplicator = newAttackMultiplicator;\n    }\n\n    /** \n    *   @dev Get the `_attackPriceMultiplicator`\n    */\n    function GetAttackPriceMultiplicator() \n    public \n    view\n    returns(uint256)\n    {return (_attackPriceMultiplicator);}\n\n    /**\n    *   @dev Set the new `NftPrice`\n    *\n    *   Requirement:\n    *   \n    * - Only the contract owner can set a `NftPrice`\n    */\n    function SetNftPrice(uint256 newNftPrice) \n    public \n    OnlyOwner(msg.sender){\n        _nftPrice = newNftPrice;\n    }\n\n    /**\n    *   @dev Get the value nft price mint function\n    */\n    function GetNftPrice()\n    public\n    view \n    returns(uint256){return(_nftPrice);}\n\n    /**\n    *   @dev Get the Total attack price\n    */\n    function GetTotalAttackPrice(uint256 level)\n    public\n    view\n    returns(uint256){return(10 * level * _attackPriceMultiplicator * 1 ether);}\n\n    /** \n    *   @dev Get the power level\n    */\n    function GetPowerLevel(uint256 level)\n    public\n    view\n    returns(uint256){return(level * 40);}\n    \n    /** \n    *   @dev Get the level reward\n    */\n    function Reward(uint256 level) \n    public \n    view\n    returns(uint256){return(20 * level * _rewardPriceMultiplicator * 1 ether);}\n    /**\n    *   @dev Change the CoolDownTime value\n    *   \n    *   Requirements:\n    *\n    * - Only the owner can set a new `_coolDownTime` \n    */\n    function SetCoolDownTime(uint32 coolDownTime) \n    public \n    OnlyOwner(msg.sender){\n        _coolDownTime = coolDownTime;\n    }\n\n    /**\n    *   @dev Get `_coolDownTime`\n    */\n    function GetCoolDownTime()\n    public\n    view\n    returns(uint256){return(_coolDownTime);}\n\n    /**\n    *   @dev Restart the character Cooldown attack\n    */\n    function _triggerCooldown(uint256 _StudentIndex) \n    internal {\n        _students[_StudentIndex].attackTime = uint32(now + _coolDownTime);\n    }\n\n    /**\n    *   @dev Get request {VRFConsumerBase - requestRandomness}\n    *   Kovan LinktToken Faucet: https://faucets.chain.link\n    *\n    *   Requirements:\n    *\n    * - Min user Link token balance 0.1\n    *\n    *   CAMMELCASE EXCEPTION FUNCTION\n    */\n    function requestRandomness() \n    internal \n    returns (bytes32) {\n        require(LINK.balanceOf(address(this)) >= fee, \"Not enough LINK - fill the contract with faucet\");       \n\n        bytes32 requestId = requestRandomness(keyhash, fee);\n\n        _requestToSender[requestId] = msg.sender;\n\n        // TEST LOCAL BLOCKCHAIN //\n        _userRandomNumber[msg.sender] = 432423432432;\n\n        return requestId;\n    }\n\n    /**\n    *   @dev Save the random number `userRandomNumber`\n    *   internal override {VRFConsumerBase - fulfillRandomness}\n    *   CAMMELCASE EXCEPTION FUNCTION\n    */\n    function fulfillRandomness(bytes32 requestId, uint256 randomNumber) \n    internal \n    override {\n        _userRandomNumber[_requestToSender[requestId]] = randomNumber;\n    }\n\n    /**\n    *   @dev function that wear the nft \n    */\n    function _wear(uint256 studentIndex, uint256 wearIntelligence) \n    internal{\n        wearIntelligence = wearIntelligence * _wearMultiplicator;\n        if (((_students[studentIndex].intelligenceLevel) - wearIntelligence) < 0){\n            _students[studentIndex].intelligenceLevel = 0;\n        }else{\n            _students[studentIndex].intelligenceLevel -= wearIntelligence;\n        }\n    }\n\n    /**\n    *   @dev Mint a nft and associate with the owner\n    *   get the `newId` from the number of total nft, take the random number and generate the stats\n    *   and save it\n    *\n    *   Requirements:\n    *   \n    * - You can only create a student nft if you have the full price token in ur wallet\n    */\n    function CreateNftStudent() \n    public \n    EnoughToken(msg.sender,_nftPrice){\n\n        _transferUserToContract(_nftPrice, msg.sender);\n\n        uint256 newId = _nftId; // New Nft Id\n\n        Student memory student =  _generatingStats(newId);\n        /**\n        *   @dev Increase the `_nftOwnerCount` because we got a new nft\n        *   associated the mapping with `newId`: NftId with the owner\n        *   _safeMint function call\n        *\n        *   Requirements:\n        * - github {ERC720 - _safeMint}\n        */\n        _nftOwnerCount[msg.sender]++;\n\n        _nftToOwner[newId] = msg.sender;\n\n        _safeMint(msg.sender, newId);\n\n        emit NftCreated(student.name,student.level,student.intelligenceLevel,student.cheatLevel);\n    }\n\n    /**\n    *   @dev Function that get the nft and attack the level\n    * \n    *   Requirements:\n    * \n    * - The `levelNumber` cannot be a value below than 1 an upper than 10\n    * - The stat of `_intelligenceLevel` from `Student` need to be greater than 0\n    * - You need to be the student owner\n    * - Enough token to attack\n    * - Your NFT need to be rest\n    * - Your NFT It should not be in the marketplace\n    */\n    function Attack(uint256 studentIndex, uint256 levelNumber) \n    external \n    OnlyOwnerOf(studentIndex) \n    EnoughToken(msg.sender, GetTotalAttackPrice(levelNumber))\n    AttackReady(studentIndex)\n    InMarket(studentIndex)\n    {\n        require((levelNumber >= 1 && levelNumber <= 10), \"Invalid Level\");\n\n        Student memory student = _students[studentIndex];\n\n        require(student.intelligenceLevel > 0);\n\n        requestRandomness();\n\n        /**\n        *   @dev `basePowerLevel` MIN value 40 and MAX value 400\n        *   your stats and your random roll going to be evaluated\n        *   if win ur wear it`s gonna be minus than if u losse, you request a random number,\n        *   after that, thath go to trigger the cooldown function   \n        */\n\n        uint256 basePowerLevel = GetPowerLevel(levelNumber);\n\n        uint256 roll = (_userRandomNumber[msg.sender] % 100) + 1 ; \n\n        uint256 totalAttackPower = roll + student.cheatLevel + student.intelligenceLevel;\n\n        _triggerCooldown(studentIndex);\n\n        uint256 attackPrice = GetTotalAttackPrice(levelNumber);\n\n        _transferUserToContract(attackPrice, msg.sender);\n\n        if( basePowerLevel <= totalAttackPower){\n            uint256 wear = (basePowerLevel/20)*2;\n            _wear(studentIndex,wear);\n            uint256 reward = Reward(levelNumber);\n            _transferContractToUser(reward, msg.sender);\n            emit ResultAttack(true, totalAttackPower, basePowerLevel,wear,roll,reward);\n    \n        }else{\n            uint256 wear = (basePowerLevel/10)*2;\n            _wear(studentIndex,wear);\n            emit ResultAttack(false, totalAttackPower, basePowerLevel,wear,roll,-attackPrice);\n        }\n\n    }\n\n    /**\n    *   @dev generating the random stats for the nft and save it in the contract  \n    */\n    function _generatingStats(uint256 newId)\n    internal\n    returns(Student memory){\n        requestRandomness();\n\n        uint256 randomNumber = _userRandomNumber[msg.sender];\n\n        // Generating character stats...\n        uint256 level = (randomNumber % 3) + 1;\n       \n        uint256 intelligenceLevel = 0;\n        if(level == 1){\n            intelligenceLevel = (randomNumber % 100) + 1;\n        }else if(level == 2){\n            intelligenceLevel = (randomNumber % 100) + 101;\n        }else{\n            intelligenceLevel = (randomNumber % 100) + 201;\n        }\n        \n        uint256 cheatLevel = ((randomNumber * 50) % 100) + 1;\n        \n        string memory name = _names[randomNumber % 25];\n\n        Student memory character =  Student(level,intelligenceLevel,cheatLevel,name,uint32 (now),newId,false);\n        // Saving the character...\n        _students.push(character);\n        _nftId+=1;\n        return(character);\n    }\n\n}",
  "sourcePath": "contracts/StudentsNft.sol",
  "type": "contract"
}