{
  "abi": [
    {
      "inputs": [
        {
          "internalType": "address",
          "name": "_VRFCoordinator",
          "type": "address"
        },
        {
          "internalType": "address",
          "name": "_linkToken",
          "type": "address"
        },
        {
          "internalType": "bytes32",
          "name": "_keyhash",
          "type": "bytes32"
        },
        {
          "internalType": "address",
          "name": "_tokenAddress",
          "type": "address"
        },
        {
          "internalType": "uint256",
          "name": "_nftPrice",
          "type": "uint256"
        },
        {
          "internalType": "uint256",
          "name": "_wearMultiplicator",
          "type": "uint256"
        },
        {
          "internalType": "uint256",
          "name": "_attackMultiplicator",
          "type": "uint256"
        },
        {
          "internalType": "uint256",
          "name": "_rewardPriceMultiplicator",
          "type": "uint256"
        },
        {
          "internalType": "uint256",
          "name": "tokenPool",
          "type": "uint256"
        },
        {
          "internalType": "uint256",
          "name": "burnReward",
          "type": "uint256"
        },
        {
          "internalType": "uint256",
          "name": "transferPrice",
          "type": "uint256"
        }
      ],
      "stateMutability": "nonpayable",
      "type": "constructor"
    },
    {
      "anonymous": false,
      "inputs": [
        {
          "indexed": true,
          "internalType": "address",
          "name": "owner",
          "type": "address"
        },
        {
          "indexed": true,
          "internalType": "address",
          "name": "approved",
          "type": "address"
        },
        {
          "indexed": true,
          "internalType": "uint256",
          "name": "tokenId",
          "type": "uint256"
        }
      ],
      "name": "Approval",
      "type": "event"
    },
    {
      "anonymous": false,
      "inputs": [
        {
          "indexed": true,
          "internalType": "address",
          "name": "owner",
          "type": "address"
        },
        {
          "indexed": true,
          "internalType": "address",
          "name": "operator",
          "type": "address"
        },
        {
          "indexed": false,
          "internalType": "bool",
          "name": "approved",
          "type": "bool"
        }
      ],
      "name": "ApprovalForAll",
      "type": "event"
    },
    {
      "anonymous": false,
      "inputs": [
        {
          "indexed": false,
          "internalType": "uint256",
          "name": "balance",
          "type": "uint256"
        }
      ],
      "name": "ContractBalance",
      "type": "event"
    },
    {
      "anonymous": false,
      "inputs": [
        {
          "indexed": false,
          "internalType": "uint256",
          "name": "bef",
          "type": "uint256"
        },
        {
          "indexed": false,
          "internalType": "uint256",
          "name": "aft",
          "type": "uint256"
        },
        {
          "indexed": false,
          "internalType": "string",
          "name": "operation",
          "type": "string"
        }
      ],
      "name": "MarketTokenOwnerContract",
      "type": "event"
    },
    {
      "anonymous": false,
      "inputs": [
        {
          "indexed": false,
          "internalType": "string",
          "name": "name",
          "type": "string"
        },
        {
          "indexed": false,
          "internalType": "uint256",
          "name": "level",
          "type": "uint256"
        },
        {
          "indexed": false,
          "internalType": "uint256",
          "name": "intelligenceLevel",
          "type": "uint256"
        },
        {
          "indexed": false,
          "internalType": "uint256",
          "name": "cheatLevel",
          "type": "uint256"
        }
      ],
      "name": "NftCreated",
      "type": "event"
    },
    {
      "anonymous": false,
      "inputs": [
        {
          "indexed": false,
          "internalType": "address",
          "name": "from",
          "type": "address"
        },
        {
          "indexed": false,
          "internalType": "address",
          "name": "to",
          "type": "address"
        },
        {
          "indexed": false,
          "internalType": "uint256",
          "name": "nftId",
          "type": "uint256"
        },
        {
          "indexed": false,
          "internalType": "uint256",
          "name": "amount",
          "type": "uint256"
        }
      ],
      "name": "NftOperation",
      "type": "event"
    },
    {
      "anonymous": false,
      "inputs": [
        {
          "indexed": false,
          "internalType": "bool",
          "name": "win",
          "type": "bool"
        },
        {
          "indexed": false,
          "internalType": "uint256",
          "name": "powerCharacter",
          "type": "uint256"
        },
        {
          "indexed": false,
          "internalType": "uint256",
          "name": "powerLevel",
          "type": "uint256"
        },
        {
          "indexed": false,
          "internalType": "uint256",
          "name": "wear",
          "type": "uint256"
        },
        {
          "indexed": false,
          "internalType": "uint256",
          "name": "roll",
          "type": "uint256"
        },
        {
          "indexed": false,
          "internalType": "uint256",
          "name": "reward",
          "type": "uint256"
        }
      ],
      "name": "ResultAttack",
      "type": "event"
    },
    {
      "anonymous": false,
      "inputs": [
        {
          "indexed": false,
          "internalType": "address",
          "name": "from",
          "type": "address"
        },
        {
          "indexed": false,
          "internalType": "address",
          "name": "to",
          "type": "address"
        },
        {
          "indexed": false,
          "internalType": "uint256",
          "name": "amount",
          "type": "uint256"
        },
        {
          "indexed": false,
          "internalType": "uint256",
          "name": "etherPrice",
          "type": "uint256"
        }
      ],
      "name": "TokenOperation",
      "type": "event"
    },
    {
      "anonymous": false,
      "inputs": [
        {
          "indexed": true,
          "internalType": "address",
          "name": "from",
          "type": "address"
        },
        {
          "indexed": true,
          "internalType": "address",
          "name": "to",
          "type": "address"
        },
        {
          "indexed": true,
          "internalType": "uint256",
          "name": "tokenId",
          "type": "uint256"
        }
      ],
      "name": "Transfer",
      "type": "event"
    },
    {
      "inputs": [
        {
          "internalType": "uint256",
          "name": "studentIndex",
          "type": "uint256"
        },
        {
          "internalType": "uint256",
          "name": "levelNumber",
          "type": "uint256"
        }
      ],
      "name": "Attack",
      "outputs": [],
      "stateMutability": "nonpayable",
      "type": "function"
    },
    {
      "inputs": [
        {
          "internalType": "uint256",
          "name": "studentIndex",
          "type": "uint256"
        }
      ],
      "name": "BurnNft",
      "outputs": [],
      "stateMutability": "nonpayable",
      "type": "function"
    },
    {
      "inputs": [
        {
          "internalType": "uint256",
          "name": "amount",
          "type": "uint256"
        }
      ],
      "name": "BurnTokens",
      "outputs": [],
      "stateMutability": "nonpayable",
      "type": "function"
    },
    {
      "inputs": [
        {
          "internalType": "uint256",
          "name": "marketIndex",
          "type": "uint256"
        }
      ],
      "name": "BuyMarket",
      "outputs": [],
      "stateMutability": "nonpayable",
      "type": "function"
    },
    {
      "inputs": [
        {
          "internalType": "uint256",
          "name": "amount",
          "type": "uint256"
        },
        {
          "internalType": "uint256",
          "name": "price",
          "type": "uint256"
        }
      ],
      "name": "BuyToken",
      "outputs": [],
      "stateMutability": "payable",
      "type": "function"
    },
    {
      "inputs": [],
      "name": "CreateNftStudent",
      "outputs": [],
      "stateMutability": "nonpayable",
      "type": "function"
    },
    {
      "inputs": [],
      "name": "GetAttackPriceMultiplicator",
      "outputs": [
        {
          "internalType": "uint256",
          "name": "",
          "type": "uint256"
        }
      ],
      "stateMutability": "view",
      "type": "function"
    },
    {
      "inputs": [],
      "name": "GetBurnReward",
      "outputs": [
        {
          "internalType": "uint256",
          "name": "",
          "type": "uint256"
        }
      ],
      "stateMutability": "view",
      "type": "function"
    },
    {
      "inputs": [],
      "name": "GetContractBalance",
      "outputs": [],
      "stateMutability": "nonpayable",
      "type": "function"
    },
    {
      "inputs": [],
      "name": "GetCoolDownTime",
      "outputs": [
        {
          "internalType": "uint256",
          "name": "",
          "type": "uint256"
        }
      ],
      "stateMutability": "view",
      "type": "function"
    },
    {
      "inputs": [],
      "name": "GetLiquidityPool",
      "outputs": [
        {
          "internalType": "uint256",
          "name": "",
          "type": "uint256"
        }
      ],
      "stateMutability": "view",
      "type": "function"
    },
    {
      "inputs": [
        {
          "internalType": "uint256",
          "name": "id",
          "type": "uint256"
        }
      ],
      "name": "GetMarketIndexById",
      "outputs": [
        {
          "internalType": "uint256",
          "name": "",
          "type": "uint256"
        }
      ],
      "stateMutability": "view",
      "type": "function"
    },
    {
      "inputs": [
        {
          "internalType": "uint256",
          "name": "marketIndex",
          "type": "uint256"
        }
      ],
      "name": "GetNftInMarket",
      "outputs": [
        {
          "internalType": "uint256",
          "name": "",
          "type": "uint256"
        },
        {
          "internalType": "uint256",
          "name": "",
          "type": "uint256"
        },
        {
          "internalType": "address",
          "name": "",
          "type": "address"
        }
      ],
      "stateMutability": "view",
      "type": "function"
    },
    {
      "inputs": [],
      "name": "GetNftPrice",
      "outputs": [
        {
          "internalType": "uint256",
          "name": "",
          "type": "uint256"
        }
      ],
      "stateMutability": "view",
      "type": "function"
    },
    {
      "inputs": [
        {
          "internalType": "address",
          "name": "account",
          "type": "address"
        }
      ],
      "name": "GetNumbersNft",
      "outputs": [
        {
          "internalType": "uint256",
          "name": "",
          "type": "uint256"
        }
      ],
      "stateMutability": "view",
      "type": "function"
    },
    {
      "inputs": [
        {
          "internalType": "uint256",
          "name": "studentIndex",
          "type": "uint256"
        }
      ],
      "name": "GetOutMarket",
      "outputs": [],
      "stateMutability": "nonpayable",
      "type": "function"
    },
    {
      "inputs": [],
      "name": "GetOwner",
      "outputs": [
        {
          "internalType": "address",
          "name": "",
          "type": "address"
        }
      ],
      "stateMutability": "view",
      "type": "function"
    },
    {
      "inputs": [
        {
          "internalType": "uint256",
          "name": "level",
          "type": "uint256"
        }
      ],
      "name": "GetPowerLevel",
      "outputs": [
        {
          "internalType": "uint256",
          "name": "",
          "type": "uint256"
        }
      ],
      "stateMutability": "view",
      "type": "function"
    },
    {
      "inputs": [],
      "name": "GetRewardMultiplicator",
      "outputs": [
        {
          "internalType": "uint256",
          "name": "",
          "type": "uint256"
        }
      ],
      "stateMutability": "view",
      "type": "function"
    },
    {
      "inputs": [
        {
          "internalType": "uint256",
          "name": "id",
          "type": "uint256"
        }
      ],
      "name": "GetStudentIndexById",
      "outputs": [
        {
          "internalType": "uint256",
          "name": "",
          "type": "uint256"
        }
      ],
      "stateMutability": "view",
      "type": "function"
    },
    {
      "inputs": [
        {
          "internalType": "uint256",
          "name": "studentIndex",
          "type": "uint256"
        }
      ],
      "name": "GetStudentInfo",
      "outputs": [
        {
          "internalType": "uint256",
          "name": "",
          "type": "uint256"
        },
        {
          "internalType": "uint256",
          "name": "",
          "type": "uint256"
        },
        {
          "internalType": "uint256",
          "name": "",
          "type": "uint256"
        },
        {
          "internalType": "string",
          "name": "",
          "type": "string"
        },
        {
          "internalType": "uint32",
          "name": "",
          "type": "uint32"
        },
        {
          "internalType": "uint256",
          "name": "",
          "type": "uint256"
        },
        {
          "internalType": "bool",
          "name": "",
          "type": "bool"
        }
      ],
      "stateMutability": "view",
      "type": "function"
    },
    {
      "inputs": [
        {
          "internalType": "address",
          "name": "owner",
          "type": "address"
        }
      ],
      "name": "GetStudentsByOwner",
      "outputs": [
        {
          "internalType": "uint256[]",
          "name": "",
          "type": "uint256[]"
        }
      ],
      "stateMutability": "view",
      "type": "function"
    },
    {
      "inputs": [],
      "name": "GetTokenPool",
      "outputs": [
        {
          "internalType": "uint256",
          "name": "",
          "type": "uint256"
        }
      ],
      "stateMutability": "view",
      "type": "function"
    },
    {
      "inputs": [
        {
          "internalType": "uint256",
          "name": "studentId",
          "type": "uint256"
        }
      ],
      "name": "GetTokenURI",
      "outputs": [
        {
          "internalType": "string",
          "name": "",
          "type": "string"
        }
      ],
      "stateMutability": "view",
      "type": "function"
    },
    {
      "inputs": [
        {
          "internalType": "uint256",
          "name": "level",
          "type": "uint256"
        }
      ],
      "name": "GetTotalAttackPrice",
      "outputs": [
        {
          "internalType": "uint256",
          "name": "",
          "type": "uint256"
        }
      ],
      "stateMutability": "view",
      "type": "function"
    },
    {
      "inputs": [],
      "name": "GetTotalNftInGame",
      "outputs": [
        {
          "internalType": "uint256",
          "name": "",
          "type": "uint256"
        }
      ],
      "stateMutability": "view",
      "type": "function"
    },
    {
      "inputs": [],
      "name": "GetTotalNftInMarket",
      "outputs": [
        {
          "internalType": "uint256",
          "name": "",
          "type": "uint256"
        }
      ],
      "stateMutability": "view",
      "type": "function"
    },
    {
      "inputs": [],
      "name": "GetTransferPrice",
      "outputs": [
        {
          "internalType": "uint256",
          "name": "",
          "type": "uint256"
        }
      ],
      "stateMutability": "view",
      "type": "function"
    },
    {
      "inputs": [],
      "name": "GetWearMultiplicator",
      "outputs": [
        {
          "internalType": "uint256",
          "name": "",
          "type": "uint256"
        }
      ],
      "stateMutability": "view",
      "type": "function"
    },
    {
      "inputs": [
        {
          "internalType": "uint256",
          "name": "amount",
          "type": "uint256"
        }
      ],
      "name": "MintTokens",
      "outputs": [],
      "stateMutability": "nonpayable",
      "type": "function"
    },
    {
      "inputs": [
        {
          "internalType": "uint256",
          "name": "studentIndex",
          "type": "uint256"
        },
        {
          "internalType": "uint256",
          "name": "price",
          "type": "uint256"
        }
      ],
      "name": "PutInMarket",
      "outputs": [],
      "stateMutability": "nonpayable",
      "type": "function"
    },
    {
      "inputs": [
        {
          "internalType": "uint256",
          "name": "level",
          "type": "uint256"
        }
      ],
      "name": "Reward",
      "outputs": [
        {
          "internalType": "uint256",
          "name": "",
          "type": "uint256"
        }
      ],
      "stateMutability": "view",
      "type": "function"
    },
    {
      "inputs": [
        {
          "internalType": "uint256",
          "name": "amount",
          "type": "uint256"
        },
        {
          "internalType": "uint256",
          "name": "price",
          "type": "uint256"
        }
      ],
      "name": "SellToken",
      "outputs": [],
      "stateMutability": "payable",
      "type": "function"
    },
    {
      "inputs": [
        {
          "internalType": "uint256",
          "name": "newAttackMultiplicator",
          "type": "uint256"
        }
      ],
      "name": "SetAttackPriceMultiplicator",
      "outputs": [],
      "stateMutability": "nonpayable",
      "type": "function"
    },
    {
      "inputs": [
        {
          "internalType": "uint256",
          "name": "newBurnReward",
          "type": "uint256"
        }
      ],
      "name": "SetBurnReward",
      "outputs": [],
      "stateMutability": "nonpayable",
      "type": "function"
    },
    {
      "inputs": [
        {
          "internalType": "uint32",
          "name": "coolDownTime",
          "type": "uint32"
        }
      ],
      "name": "SetCoolDownTime",
      "outputs": [],
      "stateMutability": "nonpayable",
      "type": "function"
    },
    {
      "inputs": [
        {
          "internalType": "uint256",
          "name": "newNftPrice",
          "type": "uint256"
        }
      ],
      "name": "SetNftPrice",
      "outputs": [],
      "stateMutability": "nonpayable",
      "type": "function"
    },
    {
      "inputs": [
        {
          "internalType": "uint256",
          "name": "newRewardMultiplicator",
          "type": "uint256"
        }
      ],
      "name": "SetRewardMultiplicator",
      "outputs": [],
      "stateMutability": "nonpayable",
      "type": "function"
    },
    {
      "inputs": [
        {
          "internalType": "address",
          "name": "newAddress",
          "type": "address"
        }
      ],
      "name": "SetTokenERC20Address",
      "outputs": [],
      "stateMutability": "nonpayable",
      "type": "function"
    },
    {
      "inputs": [
        {
          "internalType": "uint256",
          "name": "studentId",
          "type": "uint256"
        },
        {
          "internalType": "string",
          "name": "tokenURI",
          "type": "string"
        }
      ],
      "name": "SetTokenURI",
      "outputs": [],
      "stateMutability": "nonpayable",
      "type": "function"
    },
    {
      "inputs": [
        {
          "internalType": "uint256",
          "name": "newTransferPrice",
          "type": "uint256"
        }
      ],
      "name": "SetTransferPrice",
      "outputs": [],
      "stateMutability": "nonpayable",
      "type": "function"
    },
    {
      "inputs": [
        {
          "internalType": "uint256",
          "name": "newWearMultiplicator",
          "type": "uint256"
        }
      ],
      "name": "SetWearMultiplicator",
      "outputs": [],
      "stateMutability": "nonpayable",
      "type": "function"
    },
    {
      "inputs": [
        {
          "internalType": "address",
          "name": "account",
          "type": "address"
        }
      ],
      "name": "TokenBalance",
      "outputs": [
        {
          "internalType": "uint256",
          "name": "",
          "type": "uint256"
        }
      ],
      "stateMutability": "view",
      "type": "function"
    },
    {
      "inputs": [],
      "name": "TransferLiquidity",
      "outputs": [],
      "stateMutability": "payable",
      "type": "function"
    },
    {
      "inputs": [
        {
          "internalType": "address",
          "name": "from",
          "type": "address"
        },
        {
          "internalType": "address",
          "name": "to",
          "type": "address"
        },
        {
          "internalType": "uint256",
          "name": "studentIndex",
          "type": "uint256"
        }
      ],
      "name": "TransferNft",
      "outputs": [],
      "stateMutability": "nonpayable",
      "type": "function"
    },
    {
      "inputs": [
        {
          "internalType": "address",
          "name": "to",
          "type": "address"
        },
        {
          "internalType": "uint256",
          "name": "amount",
          "type": "uint256"
        }
      ],
      "name": "TransferToken",
      "outputs": [],
      "stateMutability": "nonpayable",
      "type": "function"
    },
    {
      "inputs": [
        {
          "internalType": "uint256",
          "name": "amount",
          "type": "uint256"
        },
        {
          "internalType": "address payable",
          "name": "owner",
          "type": "address"
        }
      ],
      "name": "Withdraw",
      "outputs": [],
      "stateMutability": "payable",
      "type": "function"
    },
    {
      "inputs": [
        {
          "internalType": "address",
          "name": "to",
          "type": "address"
        },
        {
          "internalType": "uint256",
          "name": "tokenId",
          "type": "uint256"
        }
      ],
      "name": "approve",
      "outputs": [],
      "stateMutability": "nonpayable",
      "type": "function"
    },
    {
      "inputs": [
        {
          "internalType": "address",
          "name": "owner",
          "type": "address"
        }
      ],
      "name": "balanceOf",
      "outputs": [
        {
          "internalType": "uint256",
          "name": "",
          "type": "uint256"
        }
      ],
      "stateMutability": "view",
      "type": "function"
    },
    {
      "inputs": [],
      "name": "baseURI",
      "outputs": [
        {
          "internalType": "string",
          "name": "",
          "type": "string"
        }
      ],
      "stateMutability": "view",
      "type": "function"
    },
    {
      "inputs": [
        {
          "internalType": "uint256",
          "name": "tokenId",
          "type": "uint256"
        }
      ],
      "name": "getApproved",
      "outputs": [
        {
          "internalType": "address",
          "name": "",
          "type": "address"
        }
      ],
      "stateMutability": "view",
      "type": "function"
    },
    {
      "inputs": [
        {
          "internalType": "address",
          "name": "owner",
          "type": "address"
        },
        {
          "internalType": "address",
          "name": "operator",
          "type": "address"
        }
      ],
      "name": "isApprovedForAll",
      "outputs": [
        {
          "internalType": "bool",
          "name": "",
          "type": "bool"
        }
      ],
      "stateMutability": "view",
      "type": "function"
    },
    {
      "inputs": [],
      "name": "name",
      "outputs": [
        {
          "internalType": "string",
          "name": "",
          "type": "string"
        }
      ],
      "stateMutability": "view",
      "type": "function"
    },
    {
      "inputs": [
        {
          "internalType": "uint256",
          "name": "tokenId",
          "type": "uint256"
        }
      ],
      "name": "ownerOf",
      "outputs": [
        {
          "internalType": "address",
          "name": "",
          "type": "address"
        }
      ],
      "stateMutability": "view",
      "type": "function"
    },
    {
      "inputs": [
        {
          "internalType": "bytes32",
          "name": "requestId",
          "type": "bytes32"
        },
        {
          "internalType": "uint256",
          "name": "randomness",
          "type": "uint256"
        }
      ],
      "name": "rawFulfillRandomness",
      "outputs": [],
      "stateMutability": "nonpayable",
      "type": "function"
    },
    {
      "inputs": [
        {
          "internalType": "address",
          "name": "from",
          "type": "address"
        },
        {
          "internalType": "address",
          "name": "to",
          "type": "address"
        },
        {
          "internalType": "uint256",
          "name": "tokenId",
          "type": "uint256"
        }
      ],
      "name": "safeTransferFrom",
      "outputs": [],
      "stateMutability": "nonpayable",
      "type": "function"
    },
    {
      "inputs": [
        {
          "internalType": "address",
          "name": "from",
          "type": "address"
        },
        {
          "internalType": "address",
          "name": "to",
          "type": "address"
        },
        {
          "internalType": "uint256",
          "name": "tokenId",
          "type": "uint256"
        },
        {
          "internalType": "bytes",
          "name": "_data",
          "type": "bytes"
        }
      ],
      "name": "safeTransferFrom",
      "outputs": [],
      "stateMutability": "nonpayable",
      "type": "function"
    },
    {
      "inputs": [
        {
          "internalType": "address",
          "name": "operator",
          "type": "address"
        },
        {
          "internalType": "bool",
          "name": "approved",
          "type": "bool"
        }
      ],
      "name": "setApprovalForAll",
      "outputs": [],
      "stateMutability": "nonpayable",
      "type": "function"
    },
    {
      "inputs": [
        {
          "internalType": "bytes4",
          "name": "interfaceId",
          "type": "bytes4"
        }
      ],
      "name": "supportsInterface",
      "outputs": [
        {
          "internalType": "bool",
          "name": "",
          "type": "bool"
        }
      ],
      "stateMutability": "view",
      "type": "function"
    },
    {
      "inputs": [],
      "name": "symbol",
      "outputs": [
        {
          "internalType": "string",
          "name": "",
          "type": "string"
        }
      ],
      "stateMutability": "view",
      "type": "function"
    },
    {
      "inputs": [
        {
          "internalType": "uint256",
          "name": "index",
          "type": "uint256"
        }
      ],
      "name": "tokenByIndex",
      "outputs": [
        {
          "internalType": "uint256",
          "name": "",
          "type": "uint256"
        }
      ],
      "stateMutability": "view",
      "type": "function"
    },
    {
      "inputs": [
        {
          "internalType": "address",
          "name": "owner",
          "type": "address"
        },
        {
          "internalType": "uint256",
          "name": "index",
          "type": "uint256"
        }
      ],
      "name": "tokenOfOwnerByIndex",
      "outputs": [
        {
          "internalType": "uint256",
          "name": "",
          "type": "uint256"
        }
      ],
      "stateMutability": "view",
      "type": "function"
    },
    {
      "inputs": [
        {
          "internalType": "uint256",
          "name": "tokenId",
          "type": "uint256"
        }
      ],
      "name": "tokenURI",
      "outputs": [
        {
          "internalType": "string",
          "name": "",
          "type": "string"
        }
      ],
      "stateMutability": "view",
      "type": "function"
    },
    {
      "inputs": [],
      "name": "totalSupply",
      "outputs": [
        {
          "internalType": "uint256",
          "name": "",
          "type": "uint256"
        }
      ],
      "stateMutability": "view",
      "type": "function"
    },
    {
      "inputs": [
        {
          "internalType": "address",
          "name": "from",
          "type": "address"
        },
        {
          "internalType": "address",
          "name": "to",
          "type": "address"
        },
        {
          "internalType": "uint256",
          "name": "tokenId",
          "type": "uint256"
        }
      ],
      "name": "transferFrom",
      "outputs": [],
      "stateMutability": "nonpayable",
      "type": "function"
    }
  ],
  "bytecode": "60056103e08181526454656d697360d81b6104005260c0908152600b6104209081526a4a656b6174686572696e6160a81b6104405260e0526009610460818152682432b93730b73232bd60b91b610480526101005260076104a08181526611d8589c9a595b60ca1b6104c052610120526104e0848152644d6172696160d81b6105005261014052600461052081815263253ab0b760e11b6105405261016052610560818152634d61727560e01b61058052610180526105a08381526829b2b130b9ba34b0b760b91b6105c0526101a0526105e08581526425b2bb34b760d91b610600526101c05261062091825266436172616e666160c81b610640526101e091909152610660848152644a756c696f60d81b610680526102005260066106a08181526529b0b6b6b2b960d11b6106c052610220526106e08581526422b235b0b960d91b61070052610240526008610720818152675175696e7465726f60c01b6107405261026052610760828152654f636861646f60d01b61078052610280526107a0848152684672616e636973636f60b81b6107c0526102a0526107e086815264446965676f60d81b610800526102c0526108208181526721b934b9ba34b0b760c11b610840526102e052610860928352634c75697360e01b61088052610300929092526108a085815264476f63686f60d81b6108c052610320526108e0858152642637b832bd60d91b61090052610340526109209081526513585c98d95b60d21b61094052610360526109609182526825b934b9ba37b332b960b91b61098052610380919091526109a09283526414da5b595d60da1b6109c0526103a092909252610a206040526109e0918252674d616e677569746f60c01b610a00526103c0919091526200029490601090601962000571565b50348015620002a257600080fd5b5060405162005dcf38038062005dcf8339818101604052610160811015620002c957600080fd5b5080516020808301516040808501516060860151608087015160a088015160c089015160e08a01516101008b01516101208c0151610140909c01518851808a018a526008815267556a61706973746160c01b818d01528951808b01909a5260048a52630554a41560e41b9b8a019b909b52600080546001600160a01b031916331790559a9b989a96999598949793969295919490939092918c918c918c918c918c918c918c918c918991899190620003886301ffc9a760e01b620004e9565b81516200039d906007906020850190620005d5565b508051620003b3906008906020840190620005d5565b50620003c66380ac58cd60e01b620004e9565b620003d8635b5e139f60e01b620004e9565b620003ea63780e9d6360e01b620004e9565b50506001600160601b0319606092831b811660a052911b16608052601a9590955567016345785d8a0000601b55600e805463ffffffff1916620151801790556000600f819055601693909355601791909155601855601992909255600c80546001600160a01b039283166001600160a01b03199091161790819055600d88905560408051631639a6f160e01b8152600481018a90523060248201523360448201529051919092169450631639a6f193506064808301939282900301818387803b158015620004b757600080fd5b505af1158015620004cc573d6000803e3d6000fd5b505050601e92909255601f5550620006d998505050505050505050565b6001600160e01b0319808216141562000549576040805162461bcd60e51b815260206004820152601c60248201527f4552433136353a20696e76616c696420696e7465726661636520696400000000604482015290519081900360640190fd5b6001600160e01b0319166000908152600160208190526040909120805460ff19169091179055565b828054828255906000526020600020908101928215620005c3579160200282015b82811115620005c35782518051620005b2918491602090910190620005d5565b509160200191906001019062000592565b50620005d192915062000656565b5090565b828054600181600116156101000203166002900490600052602060002090601f016020900481019282601f106200061857805160ff191683800117855562000648565b8280016001018555821562000648579182015b82811115620006485782518255916020019190600101906200062b565b50620005d192915062000677565b80821115620005d15760006200066d82826200068e565b5060010162000656565b5b80821115620005d1576000815560010162000678565b50805460018160011615610100020316600290046000825580601f10620006b65750620006d6565b601f016020900490600052602060002090810190620006d6919062000677565b50565b60805160601c60a05160601c6156c26200070d6000398061303d528061496a52508061411e528061493b52506156c26000f3fe6080604052600436106103cc5760003560e01c80636c0360eb116101fd578063a18baf7b11610118578063cb9a5bab116100ab578063ec5660831161007a578063ec56608314611027578063ee7931fb14611051578063eed99c961461107b578063f6d0bf2f146110a5578063f7c03e5d146110ba576103cc565b8063cb9a5bab14610ef3578063cd4d6df014610f1d578063d2d827dd14610f32578063e985e9c514610fec576103cc565b8063ba75999e116100e7578063ba75999e14610e5c578063bb0529b914610e9f578063c75f40ce14610eb4578063c87b56dd14610ec9576103cc565b8063a18baf7b14610cf1578063a22cb46514610d1b578063b6e2b39514610d56578063b88d4fde14610d89576103cc565b80638353ffca1161019057806394985ddd1161015f57806394985ddd14610c6b57806395d89b4114610c9b5780639dd3045b14610cb0578063a1567d6a14610ce9576103cc565b80638353ffca14610beb5780638cb1f13914610c175780638cdbc37614610c415780639265203514610c56576103cc565b8063722bf249116101cc578063722bf24914610a9457806374cde95814610ac457806376c0564714610ae75780637dd3bbfb14610b17576103cc565b80636c0360eb14610a145780636fc3eac514610a295780636ffe5b0614610a3e57806370a0823114610a61576103cc565b8063205b282f116102ed57806342842e0e116102805780635482ab281161024f5780635482ab281461098d5780635cc92db3146109a25780636352211e146109b757806368e7a1d9146109e1576103cc565b806342842e0e146108735780634f659cc5146108b65780634f6ccce7146109395780634fbcd3c614610963576103cc565b80632cd3fd70116102bc5780632cd3fd70146107bc5780632d6d4e86146107e65780632f745c59146108105780633ac0594a14610849576103cc565b8063205b282f1461072557806323b872dd1461073a57806327dd42581461077d5780632afabeec146107a7576103cc565b8063095ea7b3116103655780631261d018116103345780631261d0181461066257806314704b96146106b357806318160ddd146106e65780631a4ad2c1146106fb576103cc565b8063095ea7b3146105d55780630ae50a391461060e5780630e8702b61461062357806311f256851461064d576103cc565b80630588fcb0116103a15780630588fcb01461052657806306370ca51461055057806306fdde031461057a578063081812fc1461058f576103cc565b8062acfda7146103d1578062fc964a146104035780630178de501461043f57806301ffc9a7146104de575b600080fd5b3480156103dd57600080fd5b50610401600480360360408110156103f457600080fd5b50803590602001356110cf565b005b34801561040f57600080fd5b5061042d6004803603602081101561042657600080fd5b5035611370565b60408051918252519081900360200190f35b34801561044b57600080fd5b506104696004803603602081101561046257600080fd5b503561137a565b6040805160208082528351818301528351919283929083019185019080838360005b838110156104a357818101518382015260200161048b565b50505050905090810190601f1680156104d05780820380516001836020036101000a031916815260200191505b509250505060405180910390f35b3480156104ea57600080fd5b506105126004803603602081101561050157600080fd5b50356001600160e01b0319166113dd565b604080519115158252519081900360200190f35b34801561053257600080fd5b506104016004803603602081101561054957600080fd5b50356113fc565b34801561055c57600080fd5b506104016004803603602081101561057357600080fd5b5035611614565b34801561058657600080fd5b50610469611997565b34801561059b57600080fd5b506105b9600480360360208110156105b257600080fd5b5035611a2d565b604080516001600160a01b039092168252519081900360200190f35b3480156105e157600080fd5b50610401600480360360408110156105f857600080fd5b506001600160a01b038135169060200135611a8f565b34801561061a57600080fd5b506105b9611b6a565b34801561062f57600080fd5b5061042d6004803603602081101561064657600080fd5b5035611b79565b34801561065957600080fd5b5061042d611bbc565b34801561066e57600080fd5b5061068c6004803603602081101561068557600080fd5b5035611bc2565b6040805193845260208401929092526001600160a01b031682820152519081900360600190f35b3480156106bf57600080fd5b5061042d600480360360208110156106d657600080fd5b50356001600160a01b0316611c3d565b3480156106f257600080fd5b5061042d611c58565b34801561070757600080fd5b506104016004803603602081101561071e57600080fd5b5035611c69565b34801561073157600080fd5b5061042d611fd7565b34801561074657600080fd5b506104016004803603606081101561075d57600080fd5b506001600160a01b03813581169160208101359091169060400135611fdd565b34801561078957600080fd5b50610401600480360360208110156107a057600080fd5b5035612034565b3480156107b357600080fd5b5061042d612089565b3480156107c857600080fd5b50610401600480360360208110156107df57600080fd5b503561208f565b3480156107f257600080fd5b506104016004803603602081101561080957600080fd5b5035612152565b34801561081c57600080fd5b5061042d6004803603604081101561083357600080fd5b506001600160a01b038135169060200135612215565b34801561085557600080fd5b5061042d6004803603602081101561086c57600080fd5b5035612240565b34801561087f57600080fd5b506104016004803603606081101561089657600080fd5b506001600160a01b03813581169160208101359091169060400135612252565b3480156108c257600080fd5b506108e9600480360360208110156108d957600080fd5b50356001600160a01b031661226d565b60408051602080825283518183015283519192839290830191858101910280838360005b8381101561092557818101518382015260200161090d565b505050509050019250505060405180910390f35b34801561094557600080fd5b5061042d6004803603602081101561095c57600080fd5b5035612382565b34801561096f57600080fd5b506104016004803603602081101561098657600080fd5b5035612398565b34801561099957600080fd5b5061042d6123ed565b3480156109ae57600080fd5b5061042d6123f3565b3480156109c357600080fd5b506105b9600480360360208110156109da57600080fd5b50356123f9565b3480156109ed57600080fd5b5061040160048036036020811015610a0457600080fd5b50356001600160a01b0316612421565b348015610a2057600080fd5b50610469612493565b348015610a3557600080fd5b5061042d6124f4565b61040160048036036040811015610a5457600080fd5b50803590602001356124fa565b348015610a6d57600080fd5b5061042d60048036036020811015610a8457600080fd5b50356001600160a01b03166125ea565b348015610aa057600080fd5b5061040160048036036040811015610ab757600080fd5b5080359060200135612652565b61040160048036036040811015610ada57600080fd5b5080359060200135612b74565b348015610af357600080fd5b5061040160048036036020811015610b0a57600080fd5b503563ffffffff16612ce4565b348015610b2357600080fd5b50610b4160048036036020811015610b3a57600080fd5b5035612d50565b60405180888152602001878152602001868152602001806020018563ffffffff1681526020018481526020018315158152602001828103825286818151815260200191508051906020019080838360005b83811015610baa578181015183820152602001610b92565b50505050905090810190601f168015610bd75780820380516001836020036101000a031916815260200191505b509850505050505050505060405180910390f35b61040160048036036040811015610c0157600080fd5b50803590602001356001600160a01b0316612ef1565b348015610c2357600080fd5b5061040160048036036020811015610c3a57600080fd5b5035612fcb565b348015610c4d57600080fd5b5061042d613020565b348015610c6257600080fd5b5061042d613026565b348015610c7757600080fd5b5061040160048036036040811015610c8e57600080fd5b5080359060200135613032565b348015610ca757600080fd5b506104696130bd565b348015610cbc57600080fd5b5061040160048036036040811015610cd357600080fd5b506001600160a01b03813516906020013561311e565b6104016132a9565b348015610cfd57600080fd5b5061040160048036036020811015610d1457600080fd5b5035613357565b348015610d2757600080fd5b5061040160048036036040811015610d3e57600080fd5b506001600160a01b03813516906020013515156133ac565b348015610d6257600080fd5b5061042d60048036036020811015610d7957600080fd5b50356001600160a01b03166134b1565b348015610d9557600080fd5b5061040160048036036080811015610dac57600080fd5b6001600160a01b03823581169260208101359091169160408201359190810190608081016060820135640100000000811115610de757600080fd5b820183602082011115610df957600080fd5b80359060200191846001830284011164010000000083111715610e1b57600080fd5b91908080601f016020809104026020016040519081016040528093929190818152602001838380828437600092019190915250929550613534945050505050565b348015610e6857600080fd5b5061040160048036036060811015610e7f57600080fd5b506001600160a01b03813581169160208101359091169060400135613592565b348015610eab57600080fd5b5061042d613715565b348015610ec057600080fd5b5061042d61371b565b348015610ed557600080fd5b5061046960048036036020811015610eec57600080fd5b5035613721565b348015610eff57600080fd5b5061042d60048036036020811015610f1657600080fd5b50356139a4565b348015610f2957600080fd5b5061042d6139b5565b348015610f3e57600080fd5b5061040160048036036040811015610f5557600080fd5b81359190810190604081016020820135640100000000811115610f7757600080fd5b820183602082011115610f8957600080fd5b80359060200191846001830284011164010000000083111715610fab57600080fd5b91908080601f0160208091040260200160405190810160405280939291908181526020018383808284376000920191909152509295506139bb945050505050565b348015610ff857600080fd5b506105126004803603604081101561100f57600080fd5b506001600160a01b03813581169160200135166139c5565b34801561103357600080fd5b5061042d6004803603602081101561104a57600080fd5b50356139f3565b34801561105d57600080fd5b506104016004803603602081101561107457600080fd5b5035613a36565b34801561108757600080fd5b506104016004803603602081101561109e57600080fd5b5035613a8b565b3480156110b157600080fd5b50610401613ae0565b3480156110c657600080fd5b50610401613b15565b8160136000601183815481106110e157fe5b600091825260208083206007929092029091016005015483528201929092526040019020546001600160a01b0316331461115b576040805162461bcd60e51b81526020600482015260166024820152752a9030b932b713ba103a34329037333a1027bbb732b960511b604482015290519081900360640190fd5b600c5460408051633db1cdbf60e21b8152336004820181905291519192678ac7230489e800009283926001600160a01b039092169163f6c736fc916024808301926020929190829003018186803b1580156111b557600080fd5b505afa1580156111c9573d6000803e3d6000fd5b505050506040513d60208110156111df57600080fd5b50511015611225576040805162461bcd60e51b815260206004820152600e60248201526d4e6f7420656e6f75676820554a4760901b604482015290519081900360640190fd5b611237678ac7230489e8000033613d00565b601d60405180606001604052806011888154811061125157fe5b600091825260208083206007929092029091016005015483528281018990523360409384015284546001808201875595835291819020845160039093020191825583015181850155910151600290910180546001600160a01b0319166001600160a01b0390921691909117905560118054879081106112cc57fe5b906000526020600020906007020160060160006101000a81548160ff02191690831515021790555060008051602061561c83398151915233306011888154811061131257fe5b906000526020600020906007020160050154678ac7230489e8000060405180856001600160a01b03168152602001846001600160a01b0316815260200183815260200182815260200194505050505060405180910390a15050505050565b602881025b919050565b60603380611386611b6a565b6001600160a01b0316146113cb5760405162461bcd60e51b81526004018080602001828103825260288152602001806153d06028913960400191505060405180910390fd5b6113d483613721565b91505b50919050565b6001600160e01b03191660009081526001602052604090205460ff1690565b80601360006011838154811061140e57fe5b600091825260208083206007929092029091016005015483528201929092526040019020546001600160a01b03163314611488576040805162461bcd60e51b81526020600482015260166024820152752a9030b932b713ba103a34329037333a1027bbb732b960511b604482015290519081900360640190fd5b816011818154811061149657fe5b600091825260209091206006600790920201015460ff16156114fb576040805162461bcd60e51b8152602060048201526019602482015278151a194814dd1d59195b9d08185c99481a5b881b585c9ad95d603a1b604482015290519081900360640190fd5b600033905060006011858154811061150f57fe5b906000526020600020906007020160050154905061152f82600083611b65565b6001600160a01b038216600090815260126020908152604080832080546000190190558383526013909152902080546001600160a01b0319169055601180548690811061157857fe5b6000918252602082206007909102018181556001810182905560028101829055906115a6600383018261522d565b5060048101805463ffffffff1916905560006005820155600601805460ff19169055601e546115d59033613d80565b601e54604080513381526000602082015280820184905260608101929092525160008051602061561c8339815191529181900360800190a15050505050565b80601360006011838154811061162657fe5b600091825260208083206007929092029091016005015483528201929092526040019020546001600160a01b031633146116a0576040805162461bcd60e51b81526020600482015260166024820152752a9030b932b713ba103a34329037333a1027bbb732b960511b604482015290519081900360640190fd5b600c5460408051633db1cdbf60e21b8152336004820181905291519192678ac7230489e800009283926001600160a01b039092169163f6c736fc916024808301926020929190829003018186803b1580156116fa57600080fd5b505afa15801561170e573d6000803e3d6000fd5b505050506040513d602081101561172457600080fd5b5051101561176a576040805162461bcd60e51b815260206004820152600e60248201526d4e6f7420656e6f75676820554a4760901b604482015290519081900360640190fd5b6011848154811061177757fe5b9060005260206000209060070201600501546000805b601d548110156117ca5782601d82815481106117a557fe5b90600052602060002090600302016000015414156117c257600191505b60010161178d565b50806118075760405162461bcd60e51b815260040180806020018281038252603081526020018061541c6030913960400191505060405180910390fd5b60006011878154811061181657fe5b90600052602060002090600702016005015490506000611835826139f3565b90506000601d828154811061184657fe5b60009182526020909120600260039092020101546001600160a01b03169050611877678ac7230489e8000082613d00565b60006118a0601d848154811061188957fe5b906000526020600020906003020160000154611b79565b90506000601182815481106118b157fe5b906000526020600020906007020160060160006101000a81548160ff021916908315150217905550601d83815481106118e657fe5b600091825260208220600390910201818155600181019190915560020180546001600160a01b0319169055601d805460008051602061561c8339815191529133918291908790811061193457fe5b906000526020600020906003020160000154678ac7230489e8000060405180856001600160a01b03168152602001846001600160a01b0316815260200183815260200182815260200194505050505060405180910390a150505050505050505050565b60078054604080516020601f6002600019610100600188161502019095169490940493840181900481028201810190925282815260609390929091830182828015611a235780601f106119f857610100808354040283529160200191611a23565b820191906000526020600020905b815481529060010190602001808311611a0657829003601f168201915b5050505050905090565b6000611a3882613e01565b611a735760405162461bcd60e51b815260040180806020018281038252602c81526020018061554b602c913960400191505060405180910390fd5b506000908152600560205260409020546001600160a01b031690565b6000611a9a826123f9565b9050806001600160a01b0316836001600160a01b03161415611aed5760405162461bcd60e51b81526004018080602001828103825260218152602001806155fb6021913960400191505060405180910390fd5b806001600160a01b0316611aff613e0e565b6001600160a01b03161480611b205750611b2081611b1b613e0e565b6139c5565b611b5b5760405162461bcd60e51b815260040180806020018281038252603881526020018061549e6038913960400191505060405180910390fd5b611b658383613e12565b505050565b6000546001600160a01b031690565b6000805b6011548110156113d75760118181548110611b9457fe5b906000526020600020906007020160050154831415611bb4579050611375565b600101611b7d565b60175490565b6000806000601d8481548110611bd457fe5b906000526020600020906003020160000154601d8581548110611bf357fe5b906000526020600020906003020160010154601d8681548110611c1257fe5b600091825260209091206002600390920201015491945092506001600160a01b031690509193909250565b6001600160a01b031660009081526012602052604090205490565b6000611c646003613e80565b905090565b33601d8281548110611c7757fe5b600091825260209182902060016003909202010154600c5460408051633db1cdbf60e21b81526001600160a01b038681166004830152915193948594929093169263f6c736fc92602480840193829003018186803b158015611cd857600080fd5b505afa158015611cec573d6000803e3d6000fd5b505050506040513d6020811015611d0257600080fd5b50511015611d48576040805162461bcd60e51b815260206004820152600e60248201526d4e6f7420656e6f75676820554a4760901b604482015290519081900360640190fd5b601d8381548110611d5557fe5b9060005260206000209060030201600001546000805b601d54811015611da85782601d8281548110611d8357fe5b9060005260206000209060030201600001541415611da057600191505b600101611d6b565b5080611de55760405162461bcd60e51b815260040180806020018281038252603081526020018061541c6030913960400191505060405180910390fd5b6000601d8681548110611df457fe5b90600052602060002090600302016001015490506000601d8781548110611e1757fe5b60009182526020822060026003909202010154601d80546001600160a01b039092169350611e49918a90811061188957fe5b600c5460408051633844b70760e01b815233600482018190526001600160a01b038781166024840152604483018990529251949550939190921691633844b70791606480830192600092919082900301818387803b158015611eaa57600080fd5b505af1158015611ebe573d6000803e3d6000fd5b50505050600060118381548110611ed157fe5b906000526020600020906007020160060160006101000a81548160ff021916908315150217905550611f22838260118581548110611f0b57fe5b906000526020600020906007020160050154613e8b565b601d8981548110611f2f57fe5b600091825260208220600390910201818155600181019190915560020180546001600160a01b03191690556011805460008051602061561c83398151915291839186919086908110611f7d57fe5b9060005260206000209060070201600501548760405180856001600160a01b03168152602001846001600160a01b0316815260200183815260200182815260200194505050505060405180910390a1505050505050505050565b601f5490565b611fee611fe8613e0e565b82613ee8565b6120295760405162461bcd60e51b815260040180806020018281038252603181526020018061563c6031913960400191505060405180910390fd5b611b65838383613f8c565b338061203e611b6a565b6001600160a01b0316146120835760405162461bcd60e51b81526004018080602001828103825260288152602001806153d06028913960400191505060405180910390fd5b50601655565b60115490565b600c546040805163a3875caf60e01b81523060048201526024810184905233604482015290516001600160a01b039092169163a3875caf9160648082019260009290919082900301818387803b1580156120e857600080fd5b505af11580156120fc573d6000803e3d6000fd5b5050600d8054848103918290556040805182815260208101939093526060838201819052600190840152602d60f81b60808401525190935060008051602061566d83398151915292509081900360a00190a15050565b600c5460408051631639a6f160e01b81526004810184905230602482015233604482015290516001600160a01b0390921691631639a6f19160648082019260009290919082900301818387803b1580156121ab57600080fd5b505af11580156121bf573d6000803e3d6000fd5b5050600d8054848101918290556040805182815260208101939093526060838201819052600190840152602b60f81b60808401525190935060008051602061566d83398151915292509081900360a00190a15050565b6001600160a01b038216600090815260026020526040812061223790836140d8565b90505b92915050565b601954026801158e460913d000000290565b611b6583838360405180602001604052806000815250613534565b60606001600160a01b0382166122c3576040805162461bcd60e51b81526020600482015260166024820152751059191c995cdcc80c1e0c0b8b8b881a5b9d985b1a5960521b604482015290519081900360640190fd5b6001600160a01b03821660009081526012602052604090205460609067ffffffffffffffff811180156122f557600080fd5b5060405190808252806020026020018201604052801561231f578160200160208202803683370190505b5090506000805b601154811015612379576000818152601360205260409020546001600160a01b0386811691161415612371578083838151811061235f57fe5b60209081029190910101526001909101905b600101612326565b50909392505050565b6000806123906003846140e4565b509392505050565b33806123a2611b6a565b6001600160a01b0316146123e75760405162461bcd60e51b81526004018080602001828103825260288152602001806153d06028913960400191505060405180910390fd5b50601755565b60185490565b60165490565b600061223a826040518060600160405280602981526020016155006029913960039190614100565b338061242b611b6a565b6001600160a01b0316146124705760405162461bcd60e51b81526004018080602001828103825260288152602001806153d06028913960400191505060405180910390fd5b50600c80546001600160a01b0319166001600160a01b0392909216919091179055565b600a8054604080516020601f6002600019610100600188161502019095169490940493840181900481028201810190925282815260609390929091830182828015611a235780601f106119f857610100808354040283529160200191611a23565b600d5490565b670de0b6b3a76400008282020434101561251357600080fd5b600c5460408051633844b70760e01b81523060048201523360248201526044810185905290516001600160a01b0390921691633844b7079160648082019260009290919082900301818387803b15801561256c57600080fd5b505af1158015612580573d6000803e3d6000fd5b5050601c8054340190555050600d8054839003905560408051338152306020820152808201849052670de0b6b3a764000083850204606082015290517f14e1d5b6fd685abd8451960a2579c435ba7a639ec0a19fa1941e72a9f66522859181900360800190a15050565b60006001600160a01b0382166126315760405162461bcd60e51b815260040180806020018281038252602a8152602001806154d6602a913960400191505060405180910390fd5b6001600160a01b038216600090815260026020526040902061223a90613e80565b81601360006011838154811061266457fe5b600091825260208083206007929092029091016005015483528201929092526040019020546001600160a01b031633146126de576040805162461bcd60e51b81526020600482015260166024820152752a9030b932b713ba103a34329037333a1027bbb732b960511b604482015290519081900360640190fd5b336126e8836139a4565b600c5460408051633db1cdbf60e21b81526001600160a01b03858116600483015291518493929092169163f6c736fc91602480820192602092909190829003018186803b15801561273857600080fd5b505afa15801561274c573d6000803e3d6000fd5b505050506040513d602081101561276257600080fd5b505110156127a8576040805162461bcd60e51b815260206004820152600e60248201526d4e6f7420656e6f75676820554a4760901b604482015290519081900360640190fd5b8442601182815481106127b757fe5b600091825260209091206004600790920201015463ffffffff16111561281c576040805162461bcd60e51b815260206004820152601560248201527413195d081c995cdd081e5bdd5c8814dd1d59195b9d605a1b604482015290519081900360640190fd5b856011818154811061282a57fe5b600091825260209091206006600790920201015460ff161561288f576040805162461bcd60e51b8152602060048201526019602482015278151a194814dd1d59195b9d08185c99481a5b881b585c9ad95d603a1b604482015290519081900360640190fd5b600186101580156128a15750600a8611155b6128e2576040805162461bcd60e51b815260206004820152600d60248201526c125b9d985b1a590813195d995b609a1b604482015290519081900360640190fd5b6128ea615274565b601188815481106128f757fe5b90600052602060002090600702016040518060e0016040529081600082015481526020016001820154815260200160028201548152602001600382018054600181600116156101000203166002900480601f0160208091040260200160405190810160405280929190818152602001828054600181600116156101000203166002900480156129c75780601f1061299c576101008083540402835291602001916129c7565b820191906000526020600020905b8154815290600101906020018083116129aa57829003601f168201915b5050509183525050600482015463ffffffff166020808301919091526005830154604083015260069092015460ff161515606090910152810151909150612a0d57600080fd5b612a15614117565b506000612a2188611370565b33600090815260156020526040812054919250906064900660010190506000836020015184604001518301019050612a588b61423d565b6000612a638b6139a4565b9050612a6f8133613d00565b818411612afb5760026014850402612a878d8261428b565b6000612a928d612240565b9050612a9e8133613d80565b604080516001815260208101869052808201889052606081018490526080810187905260a0810183905290517fc1c89f12581ef4543f5451c1f84ff0ed0bfb24e4a0ae8f507dd335e411d5d05f9181900360c00190a15050612b66565b6002600a850402612b0c8d8261428b565b60408051600080825260208201869052818301889052606082018490526080820187905284900360a082015290517fc1c89f12581ef4543f5451c1f84ff0ed0bfb24e4a0ae8f507dd335e411d5d05f9181900360c00190a1505b505050505050505050505050565b600c5460408051633db1cdbf60e21b8152336004820181905291519192859283926001600160a01b039092169163f6c736fc916024808301926020929190829003018186803b158015612bc657600080fd5b505afa158015612bda573d6000803e3d6000fd5b505050506040513d6020811015612bf057600080fd5b50511015612c36576040805162461bcd60e51b815260206004820152600e60248201526d4e6f7420656e6f75676820554a4760901b604482015290519081900360640190fd5b670de0b6b3a764000084840204612c4d8533613d00565b604051339082156108fc029083906000818181858888f19350505050158015612c7a573d6000803e3d6000fd5b50601c80548290039055600d80548601905560408051308152336020820152808201879052670de0b6b3a764000086880204606082015290517f14e1d5b6fd685abd8451960a2579c435ba7a639ec0a19fa1941e72a9f66522859181900360800190a15050505050565b3380612cee611b6a565b6001600160a01b031614612d335760405162461bcd60e51b81526004018080602001828103825260288152602001806153d06028913960400191505060405180910390fd5b50600e805463ffffffff191663ffffffff92909216919091179055565b60008060006060600080600060118881548110612d6957fe5b90600052602060002090600702016000015460118981548110612d8857fe5b90600052602060002090600702016001015460118a81548110612da757fe5b90600052602060002090600702016002015460118b81548110612dc657fe5b906000526020600020906007020160030160118c81548110612de457fe5b906000526020600020906007020160040160009054906101000a900463ffffffff1660118d81548110612e1357fe5b90600052602060002090600702016005015460118e81548110612e3257fe5b600091825260209182902060066007909202010154845460408051601f6002600019600186161561010002019094169390930492830185900485028101850190915281815260ff90921692869190830182828015612ed15780601f10612ea657610100808354040283529160200191612ed1565b820191906000526020600020905b815481529060010190602001808311612eb457829003601f168201915b505050505093509650965096509650965096509650919395979092949650565b3380612efb611b6a565b6001600160a01b031614612f405760405162461bcd60e51b81526004018080602001828103825260288152602001806153d06028913960400191505060405180910390fd5b6040516001600160a01b0383169084156108fc029085906000818181858888f19350505050158015612f76573d6000803e3d6000fd5b50601c8054848103918290556040805182815260208101939093526060838201819052600190840152602d60f81b608084015251909160008051602061566d833981519152919081900360a00190a150505050565b3380612fd5611b6a565b6001600160a01b03161461301a5760405162461bcd60e51b81526004018080602001828103825260288152602001806153d06028913960400191505060405180910390fd5b50601e55565b601d5490565b600e5463ffffffff1690565b336001600160a01b037f000000000000000000000000000000000000000000000000000000000000000016146130af576040805162461bcd60e51b815260206004820152601f60248201527f4f6e6c7920565246436f6f7264696e61746f722063616e2066756c66696c6c00604482015290519081900360640190fd5b6130b98282614311565b5050565b60088054604080516020601f6002600019610100600188161502019095169490940493840181900481028201810190925282815260609390929091830182828015611a235780601f106119f857610100808354040283529160200191611a23565b600c5460408051633db1cdbf60e21b8152336004820181905291519192849283926001600160a01b039092169163f6c736fc916024808301926020929190829003018186803b15801561317057600080fd5b505afa158015613184573d6000803e3d6000fd5b505050506040513d602081101561319a57600080fd5b505110156131e0576040805162461bcd60e51b815260206004820152600e60248201526d4e6f7420656e6f75676820554a4760901b604482015290519081900360640190fd5b600c5460408051633844b70760e01b81523360048201526001600160a01b0387811660248301526044820187905291519190921691633844b70791606480830192600092919082900301818387803b15801561323b57600080fd5b505af115801561324f573d6000803e3d6000fd5b5050604080513381526001600160a01b03881660208201528082018790526000606082015290517f14e1d5b6fd685abd8451960a2579c435ba7a639ec0a19fa1941e72a9f66522859350908190036080019150a150505050565b33806132b3611b6a565b6001600160a01b0316146132f85760405162461bcd60e51b81526004018080602001828103825260288152602001806153d06028913960400191505060405180910390fd5b6000341161330557600080fd5b601c8054348101918290556040805182815260208101939093526060838201819052600190840152602b60f81b608084015251909160008051602061566d833981519152919081900360a00190a15050565b3380613361611b6a565b6001600160a01b0316146133a65760405162461bcd60e51b81526004018080602001828103825260288152602001806153d06028913960400191505060405180910390fd5b50601955565b6133b4613e0e565b6001600160a01b0316826001600160a01b0316141561341a576040805162461bcd60e51b815260206004820152601960248201527f4552433732313a20617070726f766520746f2063616c6c657200000000000000604482015290519081900360640190fd5b8060066000613427613e0e565b6001600160a01b03908116825260208083019390935260409182016000908120918716808252919093529120805460ff19169215159290921790915561346b613e0e565b6001600160a01b03167f17307eab39ab6107e8899845ad3d59bd9653f200f220920489ca2b5937696c318360405180821515815260200191505060405180910390a35050565b600c5460408051633db1cdbf60e21b81526001600160a01b0384811660048301529151600093929092169163f6c736fc91602480820192602092909190829003018186803b15801561350257600080fd5b505afa158015613516573d6000803e3d6000fd5b505050506040513d602081101561352c57600080fd5b505192915050565b61354561353f613e0e565b83613ee8565b6135805760405162461bcd60e51b815260040180806020018281038252603181526020018061563c6031913960400191505060405180910390fd5b61358c84848484614339565b50505050565b8060136000601183815481106135a457fe5b600091825260208083206007929092029091016005015483528201929092526040019020546001600160a01b0316331461361e576040805162461bcd60e51b81526020600482015260166024820152752a9030b932b713ba103a34329037333a1027bbb732b960511b604482015290519081900360640190fd5b816011818154811061362c57fe5b600091825260209091206006600790920201015460ff1615613691576040805162461bcd60e51b8152602060048201526019602482015278151a194814dd1d59195b9d08185c99481a5b881b585c9ad95d603a1b604482015290519081900360640190fd5b6000601184815481106136a057fe5b90600052602060002090600702016005015490506136c0601f5433613d00565b6136cb868683613e8b565b601f54604080516001600160a01b03808a1682528816602082015280820184905260608101929092525160008051602061561c8339815191529181900360800190a1505050505050565b601e5490565b60195490565b606061372c82613e01565b6137675760405162461bcd60e51b815260040180806020018281038252602f8152602001806155cc602f913960400191505060405180910390fd5b60008281526009602090815260409182902080548351601f60026000196101006001861615020190931692909204918201849004840281018401909452808452606093928301828280156137fc5780601f106137d1576101008083540402835291602001916137fc565b820191906000526020600020905b8154815290600101906020018083116137df57829003601f168201915b50505050509050606061380d612493565b905080516000141561382157509050611375565b8151156138e25780826040516020018083805190602001908083835b6020831061385c5780518252601f19909201916020918201910161383d565b51815160209384036101000a600019018019909216911617905285519190930192850191508083835b602083106138a45780518252601f199092019160209182019101613885565b6001836020036101000a0380198251168184511680821785525050505050509050019250505060405160208183030381529060405292505050611375565b806138ec8561438b565b6040516020018083805190602001908083835b6020831061391e5780518252601f1990920191602091820191016138ff565b51815160209384036101000a600019018019909216911617905285519190930192850191508083835b602083106139665780518252601f199092019160209182019101613947565b6001836020036101000a0380198251168184511680821785525050505050509050019250505060405160208183030381529060405292505050919050565b60185402678ac7230489e800000290565b601c5490565b6130b98282614466565b6001600160a01b03918216600090815260066020908152604080832093909416825291909152205460ff1690565b6000805b601d548110156113d757601d8181548110613a0e57fe5b906000526020600020906003020160000154831415613a2e579050611375565b6001016139f7565b3380613a40611b6a565b6001600160a01b031614613a855760405162461bcd60e51b81526004018080602001828103825260288152602001806153d06028913960400191505060405180910390fd5b50601855565b3380613a95611b6a565b6001600160a01b031614613ada5760405162461bcd60e51b81526004018080602001828103825260288152602001806153d06028913960400191505060405180910390fd5b50601f55565b6040805147815290517f9eda563474dcf999b0332c34dedb9066a385693682ea01c43234fa4e95668a0e9181900360200190a1565b601654600c5460408051633db1cdbf60e21b81523360048201819052915191939283926001600160a01b039091169163f6c736fc916024808301926020929190829003018186803b158015613b6957600080fd5b505afa158015613b7d573d6000803e3d6000fd5b505050506040513d6020811015613b9357600080fd5b50511015613bd9576040805162461bcd60e51b815260206004820152600e60248201526d4e6f7420656e6f75676820554a4760901b604482015290519081900360640190fd5b613be560165433613d00565b600f54613bf0615274565b613bf9826144c9565b336000818152601260209081526040808320805460010190558683526013909152902080546001600160a01b03191682179055909150613c399083614736565b7f319ec0c4f5923a08e9d5fb646ddf9c5ee3d502e7a45118f7ea3ba28312bb55d781606001518260000151836020015184604001516040518080602001858152602001848152602001838152602001828103825286818151815260200191508051906020019080838360005b83811015613cbd578181015183820152602001613ca5565b50505050905090810190601f168015613cea5780820380516001836020036101000a031916815260200191505b509550505050505060405180910390a150505050565b600c5460408051633844b70760e01b81526001600160a01b0384811660048301523060248301526044820186905291519190921691633844b70791606480830192600092919082900301818387803b158015613d5b57600080fd5b505af1158015613d6f573d6000803e3d6000fd5b5050600d8054909401909355505050565b600c5460408051633844b70760e01b81523060048201526001600160a01b0384811660248301526044820186905291519190921691633844b70791606480830192600092919082900301818387803b158015613ddb57600080fd5b505af1158015613def573d6000803e3d6000fd5b5050600d805494909403909355505050565b600061223a600383614750565b3390565b600081815260056020526040902080546001600160a01b0319166001600160a01b0384169081179091558190613e47826123f9565b6001600160a01b03167f8c5be1e5ebec7d5bd14f71427d1e84f3dd0314c0f7b2291e5b200ac8c7c3b92560405160405180910390a45050565b600061223a8261475c565b613e96838383613f8c565b6001600160a01b039283166000908152601260209081526040808320805460001901905593909416808252838220805460010190559181526013909352912080546001600160a01b0319169091179055565b6000613ef382613e01565b613f2e5760405162461bcd60e51b815260040180806020018281038252602c815260200180615472602c913960400191505060405180910390fd5b6000613f39836123f9565b9050806001600160a01b0316846001600160a01b03161480613f745750836001600160a01b0316613f6984611a2d565b6001600160a01b0316145b80613f845750613f8481856139c5565b949350505050565b826001600160a01b0316613f9f826123f9565b6001600160a01b031614613fe45760405162461bcd60e51b81526004018080602001828103825260298152602001806155a36029913960400191505060405180910390fd5b6001600160a01b0382166140295760405162461bcd60e51b81526004018080602001828103825260248152602001806153f86024913960400191505060405180910390fd5b614034838383611b65565b61403f600082613e12565b6001600160a01b03831660009081526002602052604090206140619082614760565b506001600160a01b0382166000908152600260205260409020614084908261476c565b5061409160038284614778565b5080826001600160a01b0316846001600160a01b03167fddf252ad1be2c89b69c2b068fc378daa952ba7f163c4a11628f55a4df523b3ef60405160405180910390a4505050565b6000612237838361478e565b60008080806140f386866147f2565b9097909650945050505050565b600061410d84848461486d565b90505b9392505050565b6000601b547f00000000000000000000000000000000000000000000000000000000000000006001600160a01b03166370a08231306040518263ffffffff1660e01b815260040180826001600160a01b0316815260200191505060206040518083038186803b15801561418957600080fd5b505afa15801561419d573d6000803e3d6000fd5b505050506040513d60208110156141b357600080fd5b505110156141f25760405162461bcd60e51b815260040180806020018281038252602f8152602001806153a1602f913960400191505060405180910390fd5b6000614202601a54601b54614937565b600081815260146020908152604080832080546001600160a01b031916339081179091558352601590915290206464ae71f0f0905591505090565b600e546011805463ffffffff9092164201918390811061425957fe5b906000526020600020906007020160040160006101000a81548163ffffffff021916908363ffffffff16021790555050565b60175481029050600081601184815481106142a257fe5b9060005260206000209060070201600101540310156142e4576000601183815481106142ca57fe5b9060005260206000209060070201600101819055506130b9565b80601183815481106142f257fe5b6000918252602090912060016007909202010180549190910390555050565b6000918252601460209081526040808420546001600160a01b03168452601590915290912055565b614344848484613f8c565b61435084848484614ae2565b61358c5760405162461bcd60e51b815260040180806020018281038252603281526020018061536f6032913960400191505060405180910390fd5b6060816143b057506040805180820190915260018152600360fc1b6020820152611375565b8160005b81156143c857600101600a820491506143b4565b60608167ffffffffffffffff811180156143e157600080fd5b506040519080825280601f01601f19166020018201604052801561440c576020820181803683370190505b50859350905060001982015b831561445d57600a840660300160f81b8282806001900393508151811061443b57fe5b60200101906001600160f81b031916908160001a905350600a84049350614418565b50949350505050565b61446f82613e01565b6144aa5760405162461bcd60e51b815260040180806020018281038252602c815260200180615577602c913960400191505060405180910390fd5b60008281526009602090815260409091208251611b65928401906152b9565b6144d1615274565b6144d9614117565b50336000908152601560205260408120549060016003830681019190821415614509575060016064830601614528565b816002141561451f575060656064830601614528565b5060c960648306015b6001606460328502060160606010601986068154811061454457fe5b600091825260209182902001805460408051601f60026000196101006001871615020190941693909304928301859004850281018501909152818152928301828280156145d25780601f106145a7576101008083540402835291602001916145d2565b820191906000526020600020905b8154815290600101906020018083116145b557829003601f168201915b505050505090506145e1615274565b506040805160e0810182528581526020808201868152928201858152606083018581524263ffffffff16608085015260a084018c9052600060c0850181905260118054600181018255915284517f31ecc21a745e3968a04e9570e4425bc18fa8019c68028196b546d1669c200c68600790920291820190815595517f31ecc21a745e3968a04e9570e4425bc18fa8019c68028196b546d1669c200c6982015591517f31ecc21a745e3968a04e9570e4425bc18fa8019c68028196b546d1669c200c6a8301555180519394859490936146dd937f31ecc21a745e3968a04e9570e4425bc18fa8019c68028196b546d1669c200c6b019201906152b9565b50608082015160048201805463ffffffff191663ffffffff90921691909117905560a0820151600582015560c0909101516006909101805460ff1916911515919091179055600f80546001019055979650505050505050565b6130b9828260405180602001604052806000815250614c4a565b60006122378383614c9c565b5490565b60006122378383614cb4565b60006122378383614d7a565b600061410d84846001600160a01b038516614dc4565b815460009082106147d05760405162461bcd60e51b815260040180806020018281038252602281526020018061534d6022913960400191505060405180910390fd5b8260000182815481106147df57fe5b9060005260206000200154905092915050565b8154600090819083106148365760405162461bcd60e51b81526004018080602001828103825260228152602001806155296022913960400191505060405180910390fd5b600084600001848154811061484757fe5b906000526020600020906002020190508060000154816001015492509250509250929050565b600082815260018401602052604081205482816149085760405162461bcd60e51b81526004018080602001828103825283818151815260200191508051906020019080838360005b838110156148cd5781810151838201526020016148b5565b50505050905090810190601f1680156148fa5780820380516001836020036101000a031916815260200191505b509250505060405180910390fd5b5084600001600182038154811061491b57fe5b9060005260206000209060020201600101549150509392505050565b60007f00000000000000000000000000000000000000000000000000000000000000006001600160a01b0316634000aea07f00000000000000000000000000000000000000000000000000000000000000008486600060405160200180838152602001828152602001925050506040516020818303038152906040526040518463ffffffff1660e01b815260040180846001600160a01b0316815260200183815260200180602001828103825283818151815260200191508051906020019080838360005b83811015614a145781810151838201526020016149fc565b50505050905090810190601f168015614a415780820380516001836020036101000a031916815260200191505b50945050505050602060405180830381600087803b158015614a6257600080fd5b505af1158015614a76573d6000803e3d6000fd5b505050506040513d6020811015614a8c57600080fd5b50506000838152600b6020526040812054614aac90859083903090614e5b565b6000858152600b6020526040902054909150614ac9906001614ea2565b6000858152600b6020526040902055613f848482614efc565b6000614af6846001600160a01b0316614f28565b614b0257506001613f84565b6060614c10630a85bd0160e11b614b17613e0e565b88878760405160240180856001600160a01b03168152602001846001600160a01b0316815260200183815260200180602001828103825283818151815260200191508051906020019080838360005b83811015614b7e578181015183820152602001614b66565b50505050905090810190601f168015614bab5780820380516001836020036101000a031916815260200191505b5095505050505050604051602081830303815290604052906001600160e01b0319166020820180516001600160e01b03838183161783525050505060405180606001604052806032815260200161536f603291396001600160a01b0388169190614f2e565b90506000818060200190516020811015614c2957600080fd5b50516001600160e01b031916630a85bd0160e11b1492505050949350505050565b614c548383614f3d565b614c616000848484614ae2565b611b655760405162461bcd60e51b815260040180806020018281038252603281526020018061536f6032913960400191505060405180910390fd5b60009081526001919091016020526040902054151590565b60008181526001830160205260408120548015614d705783546000198083019190810190600090879083908110614ce757fe5b9060005260206000200154905080876000018481548110614d0457fe5b600091825260208083209091019290925582815260018981019092526040902090840190558654879080614d3457fe5b6001900381819060005260206000200160009055905586600101600087815260200190815260200160002060009055600194505050505061223a565b600091505061223a565b6000614d868383614c9c565b614dbc5750815460018181018455600084815260208082209093018490558454848252828601909352604090209190915561223a565b50600061223a565b600082815260018401602052604081205480614e29575050604080518082018252838152602080820184815286546001818101895560008981528481209551600290930290950191825591519082015586548684528188019092529290912055614110565b82856000016001830381548110614e3c57fe5b9060005260206000209060020201600101819055506000915050614110565b60408051602080820196909652808201949094526001600160a01b039290921660608401526080808401919091528151808403909101815260a09092019052805191012090565b600082820183811015612237576040805162461bcd60e51b815260206004820152601b60248201527f536166654d6174683a206164646974696f6e206f766572666c6f770000000000604482015290519081900360640190fd5b604080516020808201949094528082019290925280518083038201815260609092019052805191012090565b3b151590565b606061410d848460008561506b565b6001600160a01b038216614f98576040805162461bcd60e51b815260206004820181905260248201527f4552433732313a206d696e7420746f20746865207a65726f2061646472657373604482015290519081900360640190fd5b614fa181613e01565b15614ff3576040805162461bcd60e51b815260206004820152601c60248201527f4552433732313a20746f6b656e20616c7265616479206d696e74656400000000604482015290519081900360640190fd5b614fff60008383611b65565b6001600160a01b0382166000908152600260205260409020615021908261476c565b5061502e60038284614778565b5060405181906001600160a01b038416906000907fddf252ad1be2c89b69c2b068fc378daa952ba7f163c4a11628f55a4df523b3ef908290a45050565b6060824710156150ac5760405162461bcd60e51b815260040180806020018281038252602681526020018061544c6026913960400191505060405180910390fd5b6150b585614f28565b615106576040805162461bcd60e51b815260206004820152601d60248201527f416464726573733a2063616c6c20746f206e6f6e2d636f6e7472616374000000604482015290519081900360640190fd5b60006060866001600160a01b031685876040518082805190602001908083835b602083106151455780518252601f199092019160209182019101615126565b6001836020036101000a03801982511681845116808217855250505050505090500191505060006040518083038185875af1925050503d80600081146151a7576040519150601f19603f3d011682016040523d82523d6000602084013e6151ac565b606091505b50915091506151bc8282866151c7565b979650505050505050565b606083156151d6575081614110565b8251156151e65782518084602001fd5b60405162461bcd60e51b81526020600482018181528451602484015284518593919283926044019190850190808383600083156148cd5781810151838201526020016148b5565b50805460018160011615610100020316600290046000825580601f106152535750615271565b601f0160209004906000526020600020908101906152719190615337565b50565b6040518060e0016040528060008152602001600081526020016000815260200160608152602001600063ffffffff168152602001600081526020016000151581525090565b828054600181600116156101000203166002900490600052602060002090601f016020900481019282601f106152fa57805160ff1916838001178555615327565b82800160010185558215615327579182015b8281111561532757825182559160200191906001019061530c565b50615333929150615337565b5090565b5b80821115615333576000815560010161533856fe456e756d657261626c655365743a20696e646578206f7574206f6620626f756e64734552433732313a207472616e7366657220746f206e6f6e20455243373231526563656976657220696d706c656d656e7465724e6f7420656e6f756768204c494e4b202d2066696c6c2074686520636f6e74726163742077697468206661756365744f574e45523a2043616c6c6572206172656e60742074686520436f6e7472616374204f776e6572214552433732313a207472616e7366657220746f20746865207a65726f2061646472657373546865206e66742063616e20626520666f756e64206f72206e6f742065786973742c20747279206c61747465722e2e2e416464726573733a20696e73756666696369656e742062616c616e636520666f722063616c6c4552433732313a206f70657261746f7220717565727920666f72206e6f6e6578697374656e7420746f6b656e4552433732313a20617070726f76652063616c6c6572206973206e6f74206f776e6572206e6f7220617070726f76656420666f7220616c6c4552433732313a2062616c616e636520717565727920666f7220746865207a65726f20616464726573734552433732313a206f776e657220717565727920666f72206e6f6e6578697374656e7420746f6b656e456e756d657261626c654d61703a20696e646578206f7574206f6620626f756e64734552433732313a20617070726f76656420717565727920666f72206e6f6e6578697374656e7420746f6b656e4552433732314d657461646174613a2055524920736574206f66206e6f6e6578697374656e7420746f6b656e4552433732313a207472616e73666572206f6620746f6b656e2074686174206973206e6f74206f776e4552433732314d657461646174613a2055524920717565727920666f72206e6f6e6578697374656e7420746f6b656e4552433732313a20617070726f76616c20746f2063757272656e74206f776e6572cecf7e435a08b451f0ce02c43069cc2ffe387ec6bea07d3bd3e43ebe9cb915bd4552433732313a207472616e736665722063616c6c6572206973206e6f74206f776e6572206e6f7220617070726f7665647a46268aef02ff13d6a04b832185b855ad147f2d24759aca7f8723a60eecf72ca26469706673582212209c2e035430a45966fde9b30196825c9802bb04ed5ddd5aacc88c88179735647f64736f6c634300060c0033",
  "bytecodeSha1": "fd334600a3ff2ed404277b95b05599bd26c8b84e",
  "compiler": {
    "evm_version": "istanbul",
    "optimizer": {
      "enabled": true,
      "runs": 200
    },
    "version": "0.6.12+commit.27d51765"
  },
  "contractName": "StudentsMain",
  "language": "Solidity",
  "natspec": {
    "details": "Full implementation of an ERC721, VRFConsumerBase, Ownable, Strings contracts      Description:   Project made for the presentation of a university thesis, based on the studies    and databases of the blockchain to create a game, made to be run on Kovan Test    Blockchain, Local Blockchain and Main Ethereum Blockchain.   This contract (StudentsMain) contains all the elements for the admin of the NFT and the Token      Author: https://github.com/simetb      ",
    "kind": "dev",
    "methods": {
      "Attack(uint256,uint256)": {
        "details": "Function that get the nft and attack the level    Requirements:  - The `levelNumber` cannot be a value below than 1 an upper than 10 - The stat of `_intelligenceLevel` from `Student` need to be greater than 0 - You need to be the student owner - Enough token to attack - Your NFT need to be rest - Your NFT It should not be in the marketplace"
      },
      "BurnNft(uint256)": {
        "details": "Burn the character, transfer to 0x0...address   and remove it from the arrays   {ERC721 - _beforeTokenTransfer}   Requirements: - You need to be the owner of the NFT - The nft cannot be in the marketplace   Warning:  - THIS WILL DELETE THE NFT"
      },
      "BurnTokens(uint256)": {
        "details": "Decreasse the token pool, this will increasse the price of token."
      },
      "BuyMarket(uint256)": {
        "details": "Buy the nft from the market and transfer it to buyer wallet, change the nft market state   and delete it from the market array   Requirements: - U need to have the enough amount of token in your wallet"
      },
      "BuyToken(uint256,uint256)": {
        "details": "Buy the token for the game this increases the liquidity of the game   and reduce the tokenPool, these token prices are worked on ether and emit   an event with information - Requirements:   You need to have the full price in ether in the transfer"
      },
      "CreateNftStudent()": {
        "details": "Mint a nft and associate with the owner   get the `newId` from the number of total nft, take the random number and generate the stats   and save it   Requirements:    - You can only create a student nft if you have the full price token in ur wallet"
      },
      "GetAttackPriceMultiplicator()": {
        "details": "Get the `_attackPriceMultiplicator`"
      },
      "GetContractBalance()": {
        "details": "Get the contrac balance in eth"
      },
      "GetCoolDownTime()": {
        "details": "Get `_coolDownTime`"
      },
      "GetLiquidityPool()": {
        "details": "Get the value of the actual liquidity pool"
      },
      "GetMarketIndexById(uint256)": {
        "details": "Get the student market index by the id"
      },
      "GetNftPrice()": {
        "details": "Get the value nft price mint function"
      },
      "GetNumbersNft(address)": {
        "details": "Get the total Number of Nft from an account"
      },
      "GetOutMarket(uint256)": {
        "details": "This function will remove the NFT from the marketplace and update the market state   Requirements: - U need to have the enough amount of token in your wallet"
      },
      "GetOwner()": {
        "details": "get the owner of the contract"
      },
      "GetPowerLevel(uint256)": {
        "details": "Get the power level"
      },
      "GetRewardMultiplicator()": {
        "details": "Get the `_rewardPriceMultiplicator`"
      },
      "GetStudentIndexById(uint256)": {
        "details": "Get the student index by the id"
      },
      "GetStudentInfo(uint256)": {
        "details": "Get the `_students` (NFT) Info "
      },
      "GetStudentsByOwner(address)": {
        "details": "see all the INDEX NFT of the owner    Requirements: - the owner address cannot be 0x0..."
      },
      "GetTokenPool()": {
        "details": "Get the value of the actual token pool"
      },
      "GetTokenURI(uint256)": {
        "details": "Get the URI from the NFT Tokem   Requirements:    "
      },
      "GetTotalAttackPrice(uint256)": {
        "details": "Get the Total attack price"
      },
      "GetTotalNftInGame()": {
        "details": "Get the total Number of Nft in game"
      },
      "GetTotalNftInMarket()": {
        "details": "Get the total Number of Nft in market"
      },
      "GetTransferPrice()": {
        "details": "Get the `_transferPrice` global variable   Requirements:  - only the owner cant  do it"
      },
      "GetWearMultiplicator()": {
        "details": "Get the `_wearMultiplicator`"
      },
      "MintTokens(uint256)": {
        "details": "Increasse the token pool, this will decreasse the price of token."
      },
      "PutInMarket(uint256,uint256)": {
        "details": "Put the student in a market this gonna change the market    state of the nft struct to true, cant be transferible , playable   Requirements: - U need to be the owner of the NFT"
      },
      "Reward(uint256)": {
        "details": "Get the level reward"
      },
      "SellToken(uint256,uint256)": {
        "details": "Sell the token for the game this decrease the liquidity of the game   and increase the tokenPool, token prices are worked on ether and emit an     event with information - Requirements:   You need to have the full amount of token y your wallet"
      },
      "SetAttackPriceMultiplicator(uint256)": {
        "details": "Set the new `AttackMultiplicator`   Requirement:    - Only the contract owner can set a `AttackMultiplicator`"
      },
      "SetCoolDownTime(uint32)": {
        "details": "Change the CoolDownTime value      Requirements: - Only the owner can set a new `_coolDownTime` "
      },
      "SetNftPrice(uint256)": {
        "details": "Set the new `NftPrice`   Requirement:    - Only the contract owner can set a `NftPrice`"
      },
      "SetRewardMultiplicator(uint256)": {
        "details": "Set the new `RewardMultiplicator`   Requirement:    - Only the contract owner can set a `RewardMultiplicator`"
      },
      "SetTokenERC20Address(address)": {
        "details": "Set the token address of the contract   Requirements:    - Just the owner of the contract can doit"
      },
      "SetTokenURI(uint256,string)": {
        "details": "Get the URI from the NFT Tokem   Requirements:    "
      },
      "SetTransferPrice(uint256)": {
        "details": "set a new `_transferPrice` variable price    Requirements:  - only the owner cant  do it"
      },
      "SetWearMultiplicator(uint256)": {
        "details": "Set the new `WearMultiplicator`   Requirement:    - Only the contract owner can set a `WearMultiplicator`"
      },
      "TokenBalance(address)": {
        "details": "Check the user balance"
      },
      "TransferLiquidity()": {
        "details": "Increasse the liquidity of ther contract"
      },
      "TransferNft(address,address,uint256)": {
        "details": "Transfer the character from a wallet to another wallet...   {ERC721 - _transfer()}    Requirements: - You need to be the owner of the NFT - The nft cannot be in the marketplace"
      },
      "TransferToken(address,uint256)": {
        "details": "Transfer the tokens from one account to another, this will reduce    the account of the sender and increase the account of the receiver - Requirements:   You need to have the full amount of token y your wallet"
      },
      "Withdraw(uint256,address)": {
        "details": "Decreasse the liquidity of ther contract"
      },
      "approve(address,uint256)": {
        "details": "See {IERC721-approve}."
      },
      "balanceOf(address)": {
        "details": "See {IERC721-balanceOf}."
      },
      "baseURI()": {
        "details": "Returns the base URI set via {_setBaseURI}. This will be automatically added as a prefix in {tokenURI} to each token's URI, or to the token ID if no specific URI is set for that token ID."
      },
      "constructor": {
        "details": "This constructor start the values of StundentsNft and the dependencies      Warnings: Default Kovan networks, see the default values in docs on into Studentsnft.sol"
      },
      "getApproved(uint256)": {
        "details": "See {IERC721-getApproved}."
      },
      "isApprovedForAll(address,address)": {
        "details": "See {IERC721-isApprovedForAll}."
      },
      "name()": {
        "details": "See {IERC721Metadata-name}."
      },
      "ownerOf(uint256)": {
        "details": "See {IERC721-ownerOf}."
      },
      "safeTransferFrom(address,address,uint256)": {
        "details": "See {IERC721-safeTransferFrom}."
      },
      "safeTransferFrom(address,address,uint256,bytes)": {
        "details": "See {IERC721-safeTransferFrom}."
      },
      "setApprovalForAll(address,bool)": {
        "details": "See {IERC721-setApprovalForAll}."
      },
      "supportsInterface(bytes4)": {
        "details": "See {IERC165-supportsInterface}. Time complexity O(1), guaranteed to always use less than 30 000 gas."
      },
      "symbol()": {
        "details": "See {IERC721Metadata-symbol}."
      },
      "tokenByIndex(uint256)": {
        "details": "See {IERC721Enumerable-tokenByIndex}."
      },
      "tokenOfOwnerByIndex(address,uint256)": {
        "details": "See {IERC721Enumerable-tokenOfOwnerByIndex}."
      },
      "tokenURI(uint256)": {
        "details": "See {IERC721Metadata-tokenURI}."
      },
      "totalSupply()": {
        "details": "See {IERC721Enumerable-totalSupply}."
      },
      "transferFrom(address,address,uint256)": {
        "details": "See {IERC721-transferFrom}."
      }
    },
    "stateVariables": {
      "_liquidityPool": {
        "details": "Control variables to control the price game token"
      },
      "_market": {
        "details": "Array NFT in marketplace save struct `StudentMarket`"
      }
    },
    "title": "`Ujap students` game full solidity nft contract",
    "version": 1
  },
  "opcodes": "PUSH1 0x80 PUSH1 0x40 MSTORE PUSH1 0x4 CALLDATASIZE LT PUSH2 0x3CC JUMPI PUSH1 0x0 CALLDATALOAD PUSH1 0xE0 SHR DUP1 PUSH4 0x6C0360EB GT PUSH2 0x1FD JUMPI DUP1 PUSH4 0xA18BAF7B GT PUSH2 0x118 JUMPI DUP1 PUSH4 0xCB9A5BAB GT PUSH2 0xAB JUMPI DUP1 PUSH4 0xEC566083 GT PUSH2 0x7A JUMPI DUP1 PUSH4 0xEC566083 EQ PUSH2 0x1027 JUMPI DUP1 PUSH4 0xEE7931FB EQ PUSH2 0x1051 JUMPI DUP1 PUSH4 0xEED99C96 EQ PUSH2 0x107B JUMPI DUP1 PUSH4 0xF6D0BF2F EQ PUSH2 0x10A5 JUMPI DUP1 PUSH4 0xF7C03E5D EQ PUSH2 0x10BA JUMPI PUSH2 0x3CC JUMP JUMPDEST DUP1 PUSH4 0xCB9A5BAB EQ PUSH2 0xEF3 JUMPI DUP1 PUSH4 0xCD4D6DF0 EQ PUSH2 0xF1D JUMPI DUP1 PUSH4 0xD2D827DD EQ PUSH2 0xF32 JUMPI DUP1 PUSH4 0xE985E9C5 EQ PUSH2 0xFEC JUMPI PUSH2 0x3CC JUMP JUMPDEST DUP1 PUSH4 0xBA75999E GT PUSH2 0xE7 JUMPI DUP1 PUSH4 0xBA75999E EQ PUSH2 0xE5C JUMPI DUP1 PUSH4 0xBB0529B9 EQ PUSH2 0xE9F JUMPI DUP1 PUSH4 0xC75F40CE EQ PUSH2 0xEB4 JUMPI DUP1 PUSH4 0xC87B56DD EQ PUSH2 0xEC9 JUMPI PUSH2 0x3CC JUMP JUMPDEST DUP1 PUSH4 0xA18BAF7B EQ PUSH2 0xCF1 JUMPI DUP1 PUSH4 0xA22CB465 EQ PUSH2 0xD1B JUMPI DUP1 PUSH4 0xB6E2B395 EQ PUSH2 0xD56 JUMPI DUP1 PUSH4 0xB88D4FDE EQ PUSH2 0xD89 JUMPI PUSH2 0x3CC JUMP JUMPDEST DUP1 PUSH4 0x8353FFCA GT PUSH2 0x190 JUMPI DUP1 PUSH4 0x94985DDD GT PUSH2 0x15F JUMPI DUP1 PUSH4 0x94985DDD EQ PUSH2 0xC6B JUMPI DUP1 PUSH4 0x95D89B41 EQ PUSH2 0xC9B JUMPI DUP1 PUSH4 0x9DD3045B EQ PUSH2 0xCB0 JUMPI DUP1 PUSH4 0xA1567D6A EQ PUSH2 0xCE9 JUMPI PUSH2 0x3CC JUMP JUMPDEST DUP1 PUSH4 0x8353FFCA EQ PUSH2 0xBEB JUMPI DUP1 PUSH4 0x8CB1F139 EQ PUSH2 0xC17 JUMPI DUP1 PUSH4 0x8CDBC376 EQ PUSH2 0xC41 JUMPI DUP1 PUSH4 0x92652035 EQ PUSH2 0xC56 JUMPI PUSH2 0x3CC JUMP JUMPDEST DUP1 PUSH4 0x722BF249 GT PUSH2 0x1CC JUMPI DUP1 PUSH4 0x722BF249 EQ PUSH2 0xA94 JUMPI DUP1 PUSH4 0x74CDE958 EQ PUSH2 0xAC4 JUMPI DUP1 PUSH4 0x76C05647 EQ PUSH2 0xAE7 JUMPI DUP1 PUSH4 0x7DD3BBFB EQ PUSH2 0xB17 JUMPI PUSH2 0x3CC JUMP JUMPDEST DUP1 PUSH4 0x6C0360EB EQ PUSH2 0xA14 JUMPI DUP1 PUSH4 0x6FC3EAC5 EQ PUSH2 0xA29 JUMPI DUP1 PUSH4 0x6FFE5B06 EQ PUSH2 0xA3E JUMPI DUP1 PUSH4 0x70A08231 EQ PUSH2 0xA61 JUMPI PUSH2 0x3CC JUMP JUMPDEST DUP1 PUSH4 0x205B282F GT PUSH2 0x2ED JUMPI DUP1 PUSH4 0x42842E0E GT PUSH2 0x280 JUMPI DUP1 PUSH4 0x5482AB28 GT PUSH2 0x24F JUMPI DUP1 PUSH4 0x5482AB28 EQ PUSH2 0x98D JUMPI DUP1 PUSH4 0x5CC92DB3 EQ PUSH2 0x9A2 JUMPI DUP1 PUSH4 0x6352211E EQ PUSH2 0x9B7 JUMPI DUP1 PUSH4 0x68E7A1D9 EQ PUSH2 0x9E1 JUMPI PUSH2 0x3CC JUMP JUMPDEST DUP1 PUSH4 0x42842E0E EQ PUSH2 0x873 JUMPI DUP1 PUSH4 0x4F659CC5 EQ PUSH2 0x8B6 JUMPI DUP1 PUSH4 0x4F6CCCE7 EQ PUSH2 0x939 JUMPI DUP1 PUSH4 0x4FBCD3C6 EQ PUSH2 0x963 JUMPI PUSH2 0x3CC JUMP JUMPDEST DUP1 PUSH4 0x2CD3FD70 GT PUSH2 0x2BC JUMPI DUP1 PUSH4 0x2CD3FD70 EQ PUSH2 0x7BC JUMPI DUP1 PUSH4 0x2D6D4E86 EQ PUSH2 0x7E6 JUMPI DUP1 PUSH4 0x2F745C59 EQ PUSH2 0x810 JUMPI DUP1 PUSH4 0x3AC0594A EQ PUSH2 0x849 JUMPI PUSH2 0x3CC JUMP JUMPDEST DUP1 PUSH4 0x205B282F EQ PUSH2 0x725 JUMPI DUP1 PUSH4 0x23B872DD EQ PUSH2 0x73A JUMPI DUP1 PUSH4 0x27DD4258 EQ PUSH2 0x77D JUMPI DUP1 PUSH4 0x2AFABEEC EQ PUSH2 0x7A7 JUMPI PUSH2 0x3CC JUMP JUMPDEST DUP1 PUSH4 0x95EA7B3 GT PUSH2 0x365 JUMPI DUP1 PUSH4 0x1261D018 GT PUSH2 0x334 JUMPI DUP1 PUSH4 0x1261D018 EQ PUSH2 0x662 JUMPI DUP1 PUSH4 0x14704B96 EQ PUSH2 0x6B3 JUMPI DUP1 PUSH4 0x18160DDD EQ PUSH2 0x6E6 JUMPI DUP1 PUSH4 0x1A4AD2C1 EQ PUSH2 0x6FB JUMPI PUSH2 0x3CC JUMP JUMPDEST DUP1 PUSH4 0x95EA7B3 EQ PUSH2 0x5D5 JUMPI DUP1 PUSH4 0xAE50A39 EQ PUSH2 0x60E JUMPI DUP1 PUSH4 0xE8702B6 EQ PUSH2 0x623 JUMPI DUP1 PUSH4 0x11F25685 EQ PUSH2 0x64D JUMPI PUSH2 0x3CC JUMP JUMPDEST DUP1 PUSH4 0x588FCB0 GT PUSH2 0x3A1 JUMPI DUP1 PUSH4 0x588FCB0 EQ PUSH2 0x526 JUMPI DUP1 PUSH4 0x6370CA5 EQ PUSH2 0x550 JUMPI DUP1 PUSH4 0x6FDDE03 EQ PUSH2 0x57A JUMPI DUP1 PUSH4 0x81812FC EQ PUSH2 0x58F JUMPI PUSH2 0x3CC JUMP JUMPDEST DUP1 PUSH3 0xACFDA7 EQ PUSH2 0x3D1 JUMPI DUP1 PUSH3 0xFC964A EQ PUSH2 0x403 JUMPI DUP1 PUSH4 0x178DE50 EQ PUSH2 0x43F JUMPI DUP1 PUSH4 0x1FFC9A7 EQ PUSH2 0x4DE JUMPI JUMPDEST PUSH1 0x0 DUP1 REVERT JUMPDEST CALLVALUE DUP1 ISZERO PUSH2 0x3DD JUMPI PUSH1 0x0 DUP1 REVERT JUMPDEST POP PUSH2 0x401 PUSH1 0x4 DUP1 CALLDATASIZE SUB PUSH1 0x40 DUP2 LT ISZERO PUSH2 0x3F4 JUMPI PUSH1 0x0 DUP1 REVERT JUMPDEST POP DUP1 CALLDATALOAD SWAP1 PUSH1 0x20 ADD CALLDATALOAD PUSH2 0x10CF JUMP JUMPDEST STOP JUMPDEST CALLVALUE DUP1 ISZERO PUSH2 0x40F JUMPI PUSH1 0x0 DUP1 REVERT JUMPDEST POP PUSH2 0x42D PUSH1 0x4 DUP1 CALLDATASIZE SUB PUSH1 0x20 DUP2 LT ISZERO PUSH2 0x426 JUMPI PUSH1 0x0 DUP1 REVERT JUMPDEST POP CALLDATALOAD PUSH2 0x1370 JUMP JUMPDEST PUSH1 0x40 DUP1 MLOAD SWAP2 DUP3 MSTORE MLOAD SWAP1 DUP2 SWAP1 SUB PUSH1 0x20 ADD SWAP1 RETURN JUMPDEST CALLVALUE DUP1 ISZERO PUSH2 0x44B JUMPI PUSH1 0x0 DUP1 REVERT JUMPDEST POP PUSH2 0x469 PUSH1 0x4 DUP1 CALLDATASIZE SUB PUSH1 0x20 DUP2 LT ISZERO PUSH2 0x462 JUMPI PUSH1 0x0 DUP1 REVERT JUMPDEST POP CALLDATALOAD PUSH2 0x137A JUMP JUMPDEST PUSH1 0x40 DUP1 MLOAD PUSH1 0x20 DUP1 DUP3 MSTORE DUP4 MLOAD DUP2 DUP4 ADD MSTORE DUP4 MLOAD SWAP2 SWAP3 DUP4 SWAP3 SWAP1 DUP4 ADD SWAP2 DUP6 ADD SWAP1 DUP1 DUP4 DUP4 PUSH1 0x0 JUMPDEST DUP4 DUP2 LT ISZERO PUSH2 0x4A3 JUMPI DUP2 DUP2 ADD MLOAD DUP4 DUP3 ADD MSTORE PUSH1 0x20 ADD PUSH2 0x48B JUMP JUMPDEST POP POP POP POP SWAP1 POP SWAP1 DUP2 ADD SWAP1 PUSH1 0x1F AND DUP1 ISZERO PUSH2 0x4D0 JUMPI DUP1 DUP3 SUB DUP1 MLOAD PUSH1 0x1 DUP4 PUSH1 0x20 SUB PUSH2 0x100 EXP SUB NOT AND DUP2 MSTORE PUSH1 0x20 ADD SWAP2 POP JUMPDEST POP SWAP3 POP POP POP PUSH1 0x40 MLOAD DUP1 SWAP2 SUB SWAP1 RETURN JUMPDEST CALLVALUE DUP1 ISZERO PUSH2 0x4EA JUMPI PUSH1 0x0 DUP1 REVERT JUMPDEST POP PUSH2 0x512 PUSH1 0x4 DUP1 CALLDATASIZE SUB PUSH1 0x20 DUP2 LT ISZERO PUSH2 0x501 JUMPI PUSH1 0x0 DUP1 REVERT JUMPDEST POP CALLDATALOAD PUSH1 0x1 PUSH1 0x1 PUSH1 0xE0 SHL SUB NOT AND PUSH2 0x13DD JUMP JUMPDEST PUSH1 0x40 DUP1 MLOAD SWAP2 ISZERO ISZERO DUP3 MSTORE MLOAD SWAP1 DUP2 SWAP1 SUB PUSH1 0x20 ADD SWAP1 RETURN JUMPDEST CALLVALUE DUP1 ISZERO PUSH2 0x532 JUMPI PUSH1 0x0 DUP1 REVERT JUMPDEST POP PUSH2 0x401 PUSH1 0x4 DUP1 CALLDATASIZE SUB PUSH1 0x20 DUP2 LT ISZERO PUSH2 0x549 JUMPI PUSH1 0x0 DUP1 REVERT JUMPDEST POP CALLDATALOAD PUSH2 0x13FC JUMP JUMPDEST CALLVALUE DUP1 ISZERO PUSH2 0x55C JUMPI PUSH1 0x0 DUP1 REVERT JUMPDEST POP PUSH2 0x401 PUSH1 0x4 DUP1 CALLDATASIZE SUB PUSH1 0x20 DUP2 LT ISZERO PUSH2 0x573 JUMPI PUSH1 0x0 DUP1 REVERT JUMPDEST POP CALLDATALOAD PUSH2 0x1614 JUMP JUMPDEST CALLVALUE DUP1 ISZERO PUSH2 0x586 JUMPI PUSH1 0x0 DUP1 REVERT JUMPDEST POP PUSH2 0x469 PUSH2 0x1997 JUMP JUMPDEST CALLVALUE DUP1 ISZERO PUSH2 0x59B JUMPI PUSH1 0x0 DUP1 REVERT JUMPDEST POP PUSH2 0x5B9 PUSH1 0x4 DUP1 CALLDATASIZE SUB PUSH1 0x20 DUP2 LT ISZERO PUSH2 0x5B2 JUMPI PUSH1 0x0 DUP1 REVERT JUMPDEST POP CALLDATALOAD PUSH2 0x1A2D JUMP JUMPDEST PUSH1 0x40 DUP1 MLOAD PUSH1 0x1 PUSH1 0x1 PUSH1 0xA0 SHL SUB SWAP1 SWAP3 AND DUP3 MSTORE MLOAD SWAP1 DUP2 SWAP1 SUB PUSH1 0x20 ADD SWAP1 RETURN JUMPDEST CALLVALUE DUP1 ISZERO PUSH2 0x5E1 JUMPI PUSH1 0x0 DUP1 REVERT JUMPDEST POP PUSH2 0x401 PUSH1 0x4 DUP1 CALLDATASIZE SUB PUSH1 0x40 DUP2 LT ISZERO PUSH2 0x5F8 JUMPI PUSH1 0x0 DUP1 REVERT JUMPDEST POP PUSH1 0x1 PUSH1 0x1 PUSH1 0xA0 SHL SUB DUP2 CALLDATALOAD AND SWAP1 PUSH1 0x20 ADD CALLDATALOAD PUSH2 0x1A8F JUMP JUMPDEST CALLVALUE DUP1 ISZERO PUSH2 0x61A JUMPI PUSH1 0x0 DUP1 REVERT JUMPDEST POP PUSH2 0x5B9 PUSH2 0x1B6A JUMP JUMPDEST CALLVALUE DUP1 ISZERO PUSH2 0x62F JUMPI PUSH1 0x0 DUP1 REVERT JUMPDEST POP PUSH2 0x42D PUSH1 0x4 DUP1 CALLDATASIZE SUB PUSH1 0x20 DUP2 LT ISZERO PUSH2 0x646 JUMPI PUSH1 0x0 DUP1 REVERT JUMPDEST POP CALLDATALOAD PUSH2 0x1B79 JUMP JUMPDEST CALLVALUE DUP1 ISZERO PUSH2 0x659 JUMPI PUSH1 0x0 DUP1 REVERT JUMPDEST POP PUSH2 0x42D PUSH2 0x1BBC JUMP JUMPDEST CALLVALUE DUP1 ISZERO PUSH2 0x66E JUMPI PUSH1 0x0 DUP1 REVERT JUMPDEST POP PUSH2 0x68C PUSH1 0x4 DUP1 CALLDATASIZE SUB PUSH1 0x20 DUP2 LT ISZERO PUSH2 0x685 JUMPI PUSH1 0x0 DUP1 REVERT JUMPDEST POP CALLDATALOAD PUSH2 0x1BC2 JUMP JUMPDEST PUSH1 0x40 DUP1 MLOAD SWAP4 DUP5 MSTORE PUSH1 0x20 DUP5 ADD SWAP3 SWAP1 SWAP3 MSTORE PUSH1 0x1 PUSH1 0x1 PUSH1 0xA0 SHL SUB AND DUP3 DUP3 ADD MSTORE MLOAD SWAP1 DUP2 SWAP1 SUB PUSH1 0x60 ADD SWAP1 RETURN JUMPDEST CALLVALUE DUP1 ISZERO PUSH2 0x6BF JUMPI PUSH1 0x0 DUP1 REVERT JUMPDEST POP PUSH2 0x42D PUSH1 0x4 DUP1 CALLDATASIZE SUB PUSH1 0x20 DUP2 LT ISZERO PUSH2 0x6D6 JUMPI PUSH1 0x0 DUP1 REVERT JUMPDEST POP CALLDATALOAD PUSH1 0x1 PUSH1 0x1 PUSH1 0xA0 SHL SUB AND PUSH2 0x1C3D JUMP JUMPDEST CALLVALUE DUP1 ISZERO PUSH2 0x6F2 JUMPI PUSH1 0x0 DUP1 REVERT JUMPDEST POP PUSH2 0x42D PUSH2 0x1C58 JUMP JUMPDEST CALLVALUE DUP1 ISZERO PUSH2 0x707 JUMPI PUSH1 0x0 DUP1 REVERT JUMPDEST POP PUSH2 0x401 PUSH1 0x4 DUP1 CALLDATASIZE SUB PUSH1 0x20 DUP2 LT ISZERO PUSH2 0x71E JUMPI PUSH1 0x0 DUP1 REVERT JUMPDEST POP CALLDATALOAD PUSH2 0x1C69 JUMP JUMPDEST CALLVALUE DUP1 ISZERO PUSH2 0x731 JUMPI PUSH1 0x0 DUP1 REVERT JUMPDEST POP PUSH2 0x42D PUSH2 0x1FD7 JUMP JUMPDEST CALLVALUE DUP1 ISZERO PUSH2 0x746 JUMPI PUSH1 0x0 DUP1 REVERT JUMPDEST POP PUSH2 0x401 PUSH1 0x4 DUP1 CALLDATASIZE SUB PUSH1 0x60 DUP2 LT ISZERO PUSH2 0x75D JUMPI PUSH1 0x0 DUP1 REVERT JUMPDEST POP PUSH1 0x1 PUSH1 0x1 PUSH1 0xA0 SHL SUB DUP2 CALLDATALOAD DUP2 AND SWAP2 PUSH1 0x20 DUP2 ADD CALLDATALOAD SWAP1 SWAP2 AND SWAP1 PUSH1 0x40 ADD CALLDATALOAD PUSH2 0x1FDD JUMP JUMPDEST CALLVALUE DUP1 ISZERO PUSH2 0x789 JUMPI PUSH1 0x0 DUP1 REVERT JUMPDEST POP PUSH2 0x401 PUSH1 0x4 DUP1 CALLDATASIZE SUB PUSH1 0x20 DUP2 LT ISZERO PUSH2 0x7A0 JUMPI PUSH1 0x0 DUP1 REVERT JUMPDEST POP CALLDATALOAD PUSH2 0x2034 JUMP JUMPDEST CALLVALUE DUP1 ISZERO PUSH2 0x7B3 JUMPI PUSH1 0x0 DUP1 REVERT JUMPDEST POP PUSH2 0x42D PUSH2 0x2089 JUMP JUMPDEST CALLVALUE DUP1 ISZERO PUSH2 0x7C8 JUMPI PUSH1 0x0 DUP1 REVERT JUMPDEST POP PUSH2 0x401 PUSH1 0x4 DUP1 CALLDATASIZE SUB PUSH1 0x20 DUP2 LT ISZERO PUSH2 0x7DF JUMPI PUSH1 0x0 DUP1 REVERT JUMPDEST POP CALLDATALOAD PUSH2 0x208F JUMP JUMPDEST CALLVALUE DUP1 ISZERO PUSH2 0x7F2 JUMPI PUSH1 0x0 DUP1 REVERT JUMPDEST POP PUSH2 0x401 PUSH1 0x4 DUP1 CALLDATASIZE SUB PUSH1 0x20 DUP2 LT ISZERO PUSH2 0x809 JUMPI PUSH1 0x0 DUP1 REVERT JUMPDEST POP CALLDATALOAD PUSH2 0x2152 JUMP JUMPDEST CALLVALUE DUP1 ISZERO PUSH2 0x81C JUMPI PUSH1 0x0 DUP1 REVERT JUMPDEST POP PUSH2 0x42D PUSH1 0x4 DUP1 CALLDATASIZE SUB PUSH1 0x40 DUP2 LT ISZERO PUSH2 0x833 JUMPI PUSH1 0x0 DUP1 REVERT JUMPDEST POP PUSH1 0x1 PUSH1 0x1 PUSH1 0xA0 SHL SUB DUP2 CALLDATALOAD AND SWAP1 PUSH1 0x20 ADD CALLDATALOAD PUSH2 0x2215 JUMP JUMPDEST CALLVALUE DUP1 ISZERO PUSH2 0x855 JUMPI PUSH1 0x0 DUP1 REVERT JUMPDEST POP PUSH2 0x42D PUSH1 0x4 DUP1 CALLDATASIZE SUB PUSH1 0x20 DUP2 LT ISZERO PUSH2 0x86C JUMPI PUSH1 0x0 DUP1 REVERT JUMPDEST POP CALLDATALOAD PUSH2 0x2240 JUMP JUMPDEST CALLVALUE DUP1 ISZERO PUSH2 0x87F JUMPI PUSH1 0x0 DUP1 REVERT JUMPDEST POP PUSH2 0x401 PUSH1 0x4 DUP1 CALLDATASIZE SUB PUSH1 0x60 DUP2 LT ISZERO PUSH2 0x896 JUMPI PUSH1 0x0 DUP1 REVERT JUMPDEST POP PUSH1 0x1 PUSH1 0x1 PUSH1 0xA0 SHL SUB DUP2 CALLDATALOAD DUP2 AND SWAP2 PUSH1 0x20 DUP2 ADD CALLDATALOAD SWAP1 SWAP2 AND SWAP1 PUSH1 0x40 ADD CALLDATALOAD PUSH2 0x2252 JUMP JUMPDEST CALLVALUE DUP1 ISZERO PUSH2 0x8C2 JUMPI PUSH1 0x0 DUP1 REVERT JUMPDEST POP PUSH2 0x8E9 PUSH1 0x4 DUP1 CALLDATASIZE SUB PUSH1 0x20 DUP2 LT ISZERO PUSH2 0x8D9 JUMPI PUSH1 0x0 DUP1 REVERT JUMPDEST POP CALLDATALOAD PUSH1 0x1 PUSH1 0x1 PUSH1 0xA0 SHL SUB AND PUSH2 0x226D JUMP JUMPDEST PUSH1 0x40 DUP1 MLOAD PUSH1 0x20 DUP1 DUP3 MSTORE DUP4 MLOAD DUP2 DUP4 ADD MSTORE DUP4 MLOAD SWAP2 SWAP3 DUP4 SWAP3 SWAP1 DUP4 ADD SWAP2 DUP6 DUP2 ADD SWAP2 MUL DUP1 DUP4 DUP4 PUSH1 0x0 JUMPDEST DUP4 DUP2 LT ISZERO PUSH2 0x925 JUMPI DUP2 DUP2 ADD MLOAD DUP4 DUP3 ADD MSTORE PUSH1 0x20 ADD PUSH2 0x90D JUMP JUMPDEST POP POP POP POP SWAP1 POP ADD SWAP3 POP POP POP PUSH1 0x40 MLOAD DUP1 SWAP2 SUB SWAP1 RETURN JUMPDEST CALLVALUE DUP1 ISZERO PUSH2 0x945 JUMPI PUSH1 0x0 DUP1 REVERT JUMPDEST POP PUSH2 0x42D PUSH1 0x4 DUP1 CALLDATASIZE SUB PUSH1 0x20 DUP2 LT ISZERO PUSH2 0x95C JUMPI PUSH1 0x0 DUP1 REVERT JUMPDEST POP CALLDATALOAD PUSH2 0x2382 JUMP JUMPDEST CALLVALUE DUP1 ISZERO PUSH2 0x96F JUMPI PUSH1 0x0 DUP1 REVERT JUMPDEST POP PUSH2 0x401 PUSH1 0x4 DUP1 CALLDATASIZE SUB PUSH1 0x20 DUP2 LT ISZERO PUSH2 0x986 JUMPI PUSH1 0x0 DUP1 REVERT JUMPDEST POP CALLDATALOAD PUSH2 0x2398 JUMP JUMPDEST CALLVALUE DUP1 ISZERO PUSH2 0x999 JUMPI PUSH1 0x0 DUP1 REVERT JUMPDEST POP PUSH2 0x42D PUSH2 0x23ED JUMP JUMPDEST CALLVALUE DUP1 ISZERO PUSH2 0x9AE JUMPI PUSH1 0x0 DUP1 REVERT JUMPDEST POP PUSH2 0x42D PUSH2 0x23F3 JUMP JUMPDEST CALLVALUE DUP1 ISZERO PUSH2 0x9C3 JUMPI PUSH1 0x0 DUP1 REVERT JUMPDEST POP PUSH2 0x5B9 PUSH1 0x4 DUP1 CALLDATASIZE SUB PUSH1 0x20 DUP2 LT ISZERO PUSH2 0x9DA JUMPI PUSH1 0x0 DUP1 REVERT JUMPDEST POP CALLDATALOAD PUSH2 0x23F9 JUMP JUMPDEST CALLVALUE DUP1 ISZERO PUSH2 0x9ED JUMPI PUSH1 0x0 DUP1 REVERT JUMPDEST POP PUSH2 0x401 PUSH1 0x4 DUP1 CALLDATASIZE SUB PUSH1 0x20 DUP2 LT ISZERO PUSH2 0xA04 JUMPI PUSH1 0x0 DUP1 REVERT JUMPDEST POP CALLDATALOAD PUSH1 0x1 PUSH1 0x1 PUSH1 0xA0 SHL SUB AND PUSH2 0x2421 JUMP JUMPDEST CALLVALUE DUP1 ISZERO PUSH2 0xA20 JUMPI PUSH1 0x0 DUP1 REVERT JUMPDEST POP PUSH2 0x469 PUSH2 0x2493 JUMP JUMPDEST CALLVALUE DUP1 ISZERO PUSH2 0xA35 JUMPI PUSH1 0x0 DUP1 REVERT JUMPDEST POP PUSH2 0x42D PUSH2 0x24F4 JUMP JUMPDEST PUSH2 0x401 PUSH1 0x4 DUP1 CALLDATASIZE SUB PUSH1 0x40 DUP2 LT ISZERO PUSH2 0xA54 JUMPI PUSH1 0x0 DUP1 REVERT JUMPDEST POP DUP1 CALLDATALOAD SWAP1 PUSH1 0x20 ADD CALLDATALOAD PUSH2 0x24FA JUMP JUMPDEST CALLVALUE DUP1 ISZERO PUSH2 0xA6D JUMPI PUSH1 0x0 DUP1 REVERT JUMPDEST POP PUSH2 0x42D PUSH1 0x4 DUP1 CALLDATASIZE SUB PUSH1 0x20 DUP2 LT ISZERO PUSH2 0xA84 JUMPI PUSH1 0x0 DUP1 REVERT JUMPDEST POP CALLDATALOAD PUSH1 0x1 PUSH1 0x1 PUSH1 0xA0 SHL SUB AND PUSH2 0x25EA JUMP JUMPDEST CALLVALUE DUP1 ISZERO PUSH2 0xAA0 JUMPI PUSH1 0x0 DUP1 REVERT JUMPDEST POP PUSH2 0x401 PUSH1 0x4 DUP1 CALLDATASIZE SUB PUSH1 0x40 DUP2 LT ISZERO PUSH2 0xAB7 JUMPI PUSH1 0x0 DUP1 REVERT JUMPDEST POP DUP1 CALLDATALOAD SWAP1 PUSH1 0x20 ADD CALLDATALOAD PUSH2 0x2652 JUMP JUMPDEST PUSH2 0x401 PUSH1 0x4 DUP1 CALLDATASIZE SUB PUSH1 0x40 DUP2 LT ISZERO PUSH2 0xADA JUMPI PUSH1 0x0 DUP1 REVERT JUMPDEST POP DUP1 CALLDATALOAD SWAP1 PUSH1 0x20 ADD CALLDATALOAD PUSH2 0x2B74 JUMP JUMPDEST CALLVALUE DUP1 ISZERO PUSH2 0xAF3 JUMPI PUSH1 0x0 DUP1 REVERT JUMPDEST POP PUSH2 0x401 PUSH1 0x4 DUP1 CALLDATASIZE SUB PUSH1 0x20 DUP2 LT ISZERO PUSH2 0xB0A JUMPI PUSH1 0x0 DUP1 REVERT JUMPDEST POP CALLDATALOAD PUSH4 0xFFFFFFFF AND PUSH2 0x2CE4 JUMP JUMPDEST CALLVALUE DUP1 ISZERO PUSH2 0xB23 JUMPI PUSH1 0x0 DUP1 REVERT JUMPDEST POP PUSH2 0xB41 PUSH1 0x4 DUP1 CALLDATASIZE SUB PUSH1 0x20 DUP2 LT ISZERO PUSH2 0xB3A JUMPI PUSH1 0x0 DUP1 REVERT JUMPDEST POP CALLDATALOAD PUSH2 0x2D50 JUMP JUMPDEST PUSH1 0x40 MLOAD DUP1 DUP9 DUP2 MSTORE PUSH1 0x20 ADD DUP8 DUP2 MSTORE PUSH1 0x20 ADD DUP7 DUP2 MSTORE PUSH1 0x20 ADD DUP1 PUSH1 0x20 ADD DUP6 PUSH4 0xFFFFFFFF AND DUP2 MSTORE PUSH1 0x20 ADD DUP5 DUP2 MSTORE PUSH1 0x20 ADD DUP4 ISZERO ISZERO DUP2 MSTORE PUSH1 0x20 ADD DUP3 DUP2 SUB DUP3 MSTORE DUP7 DUP2 DUP2 MLOAD DUP2 MSTORE PUSH1 0x20 ADD SWAP2 POP DUP1 MLOAD SWAP1 PUSH1 0x20 ADD SWAP1 DUP1 DUP4 DUP4 PUSH1 0x0 JUMPDEST DUP4 DUP2 LT ISZERO PUSH2 0xBAA JUMPI DUP2 DUP2 ADD MLOAD DUP4 DUP3 ADD MSTORE PUSH1 0x20 ADD PUSH2 0xB92 JUMP JUMPDEST POP POP POP POP SWAP1 POP SWAP1 DUP2 ADD SWAP1 PUSH1 0x1F AND DUP1 ISZERO PUSH2 0xBD7 JUMPI DUP1 DUP3 SUB DUP1 MLOAD PUSH1 0x1 DUP4 PUSH1 0x20 SUB PUSH2 0x100 EXP SUB NOT AND DUP2 MSTORE PUSH1 0x20 ADD SWAP2 POP JUMPDEST POP SWAP9 POP POP POP POP POP POP POP POP POP PUSH1 0x40 MLOAD DUP1 SWAP2 SUB SWAP1 RETURN JUMPDEST PUSH2 0x401 PUSH1 0x4 DUP1 CALLDATASIZE SUB PUSH1 0x40 DUP2 LT ISZERO PUSH2 0xC01 JUMPI PUSH1 0x0 DUP1 REVERT JUMPDEST POP DUP1 CALLDATALOAD SWAP1 PUSH1 0x20 ADD CALLDATALOAD PUSH1 0x1 PUSH1 0x1 PUSH1 0xA0 SHL SUB AND PUSH2 0x2EF1 JUMP JUMPDEST CALLVALUE DUP1 ISZERO PUSH2 0xC23 JUMPI PUSH1 0x0 DUP1 REVERT JUMPDEST POP PUSH2 0x401 PUSH1 0x4 DUP1 CALLDATASIZE SUB PUSH1 0x20 DUP2 LT ISZERO PUSH2 0xC3A JUMPI PUSH1 0x0 DUP1 REVERT JUMPDEST POP CALLDATALOAD PUSH2 0x2FCB JUMP JUMPDEST CALLVALUE DUP1 ISZERO PUSH2 0xC4D JUMPI PUSH1 0x0 DUP1 REVERT JUMPDEST POP PUSH2 0x42D PUSH2 0x3020 JUMP JUMPDEST CALLVALUE DUP1 ISZERO PUSH2 0xC62 JUMPI PUSH1 0x0 DUP1 REVERT JUMPDEST POP PUSH2 0x42D PUSH2 0x3026 JUMP JUMPDEST CALLVALUE DUP1 ISZERO PUSH2 0xC77 JUMPI PUSH1 0x0 DUP1 REVERT JUMPDEST POP PUSH2 0x401 PUSH1 0x4 DUP1 CALLDATASIZE SUB PUSH1 0x40 DUP2 LT ISZERO PUSH2 0xC8E JUMPI PUSH1 0x0 DUP1 REVERT JUMPDEST POP DUP1 CALLDATALOAD SWAP1 PUSH1 0x20 ADD CALLDATALOAD PUSH2 0x3032 JUMP JUMPDEST CALLVALUE DUP1 ISZERO PUSH2 0xCA7 JUMPI PUSH1 0x0 DUP1 REVERT JUMPDEST POP PUSH2 0x469 PUSH2 0x30BD JUMP JUMPDEST CALLVALUE DUP1 ISZERO PUSH2 0xCBC JUMPI PUSH1 0x0 DUP1 REVERT JUMPDEST POP PUSH2 0x401 PUSH1 0x4 DUP1 CALLDATASIZE SUB PUSH1 0x40 DUP2 LT ISZERO PUSH2 0xCD3 JUMPI PUSH1 0x0 DUP1 REVERT JUMPDEST POP PUSH1 0x1 PUSH1 0x1 PUSH1 0xA0 SHL SUB DUP2 CALLDATALOAD AND SWAP1 PUSH1 0x20 ADD CALLDATALOAD PUSH2 0x311E JUMP JUMPDEST PUSH2 0x401 PUSH2 0x32A9 JUMP JUMPDEST CALLVALUE DUP1 ISZERO PUSH2 0xCFD JUMPI PUSH1 0x0 DUP1 REVERT JUMPDEST POP PUSH2 0x401 PUSH1 0x4 DUP1 CALLDATASIZE SUB PUSH1 0x20 DUP2 LT ISZERO PUSH2 0xD14 JUMPI PUSH1 0x0 DUP1 REVERT JUMPDEST POP CALLDATALOAD PUSH2 0x3357 JUMP JUMPDEST CALLVALUE DUP1 ISZERO PUSH2 0xD27 JUMPI PUSH1 0x0 DUP1 REVERT JUMPDEST POP PUSH2 0x401 PUSH1 0x4 DUP1 CALLDATASIZE SUB PUSH1 0x40 DUP2 LT ISZERO PUSH2 0xD3E JUMPI PUSH1 0x0 DUP1 REVERT JUMPDEST POP PUSH1 0x1 PUSH1 0x1 PUSH1 0xA0 SHL SUB DUP2 CALLDATALOAD AND SWAP1 PUSH1 0x20 ADD CALLDATALOAD ISZERO ISZERO PUSH2 0x33AC JUMP JUMPDEST CALLVALUE DUP1 ISZERO PUSH2 0xD62 JUMPI PUSH1 0x0 DUP1 REVERT JUMPDEST POP PUSH2 0x42D PUSH1 0x4 DUP1 CALLDATASIZE SUB PUSH1 0x20 DUP2 LT ISZERO PUSH2 0xD79 JUMPI PUSH1 0x0 DUP1 REVERT JUMPDEST POP CALLDATALOAD PUSH1 0x1 PUSH1 0x1 PUSH1 0xA0 SHL SUB AND PUSH2 0x34B1 JUMP JUMPDEST CALLVALUE DUP1 ISZERO PUSH2 0xD95 JUMPI PUSH1 0x0 DUP1 REVERT JUMPDEST POP PUSH2 0x401 PUSH1 0x4 DUP1 CALLDATASIZE SUB PUSH1 0x80 DUP2 LT ISZERO PUSH2 0xDAC JUMPI PUSH1 0x0 DUP1 REVERT JUMPDEST PUSH1 0x1 PUSH1 0x1 PUSH1 0xA0 SHL SUB DUP3 CALLDATALOAD DUP2 AND SWAP3 PUSH1 0x20 DUP2 ADD CALLDATALOAD SWAP1 SWAP2 AND SWAP2 PUSH1 0x40 DUP3 ADD CALLDATALOAD SWAP2 SWAP1 DUP2 ADD SWAP1 PUSH1 0x80 DUP2 ADD PUSH1 0x60 DUP3 ADD CALLDATALOAD PUSH5 0x100000000 DUP2 GT ISZERO PUSH2 0xDE7 JUMPI PUSH1 0x0 DUP1 REVERT JUMPDEST DUP3 ADD DUP4 PUSH1 0x20 DUP3 ADD GT ISZERO PUSH2 0xDF9 JUMPI PUSH1 0x0 DUP1 REVERT JUMPDEST DUP1 CALLDATALOAD SWAP1 PUSH1 0x20 ADD SWAP2 DUP5 PUSH1 0x1 DUP4 MUL DUP5 ADD GT PUSH5 0x100000000 DUP4 GT OR ISZERO PUSH2 0xE1B JUMPI PUSH1 0x0 DUP1 REVERT JUMPDEST SWAP2 SWAP1 DUP1 DUP1 PUSH1 0x1F ADD PUSH1 0x20 DUP1 SWAP2 DIV MUL PUSH1 0x20 ADD PUSH1 0x40 MLOAD SWAP1 DUP2 ADD PUSH1 0x40 MSTORE DUP1 SWAP4 SWAP3 SWAP2 SWAP1 DUP2 DUP2 MSTORE PUSH1 0x20 ADD DUP4 DUP4 DUP1 DUP3 DUP5 CALLDATACOPY PUSH1 0x0 SWAP3 ADD SWAP2 SWAP1 SWAP2 MSTORE POP SWAP3 SWAP6 POP PUSH2 0x3534 SWAP5 POP POP POP POP POP JUMP JUMPDEST CALLVALUE DUP1 ISZERO PUSH2 0xE68 JUMPI PUSH1 0x0 DUP1 REVERT JUMPDEST POP PUSH2 0x401 PUSH1 0x4 DUP1 CALLDATASIZE SUB PUSH1 0x60 DUP2 LT ISZERO PUSH2 0xE7F JUMPI PUSH1 0x0 DUP1 REVERT JUMPDEST POP PUSH1 0x1 PUSH1 0x1 PUSH1 0xA0 SHL SUB DUP2 CALLDATALOAD DUP2 AND SWAP2 PUSH1 0x20 DUP2 ADD CALLDATALOAD SWAP1 SWAP2 AND SWAP1 PUSH1 0x40 ADD CALLDATALOAD PUSH2 0x3592 JUMP JUMPDEST CALLVALUE DUP1 ISZERO PUSH2 0xEAB JUMPI PUSH1 0x0 DUP1 REVERT JUMPDEST POP PUSH2 0x42D PUSH2 0x3715 JUMP JUMPDEST CALLVALUE DUP1 ISZERO PUSH2 0xEC0 JUMPI PUSH1 0x0 DUP1 REVERT JUMPDEST POP PUSH2 0x42D PUSH2 0x371B JUMP JUMPDEST CALLVALUE DUP1 ISZERO PUSH2 0xED5 JUMPI PUSH1 0x0 DUP1 REVERT JUMPDEST POP PUSH2 0x469 PUSH1 0x4 DUP1 CALLDATASIZE SUB PUSH1 0x20 DUP2 LT ISZERO PUSH2 0xEEC JUMPI PUSH1 0x0 DUP1 REVERT JUMPDEST POP CALLDATALOAD PUSH2 0x3721 JUMP JUMPDEST CALLVALUE DUP1 ISZERO PUSH2 0xEFF JUMPI PUSH1 0x0 DUP1 REVERT JUMPDEST POP PUSH2 0x42D PUSH1 0x4 DUP1 CALLDATASIZE SUB PUSH1 0x20 DUP2 LT ISZERO PUSH2 0xF16 JUMPI PUSH1 0x0 DUP1 REVERT JUMPDEST POP CALLDATALOAD PUSH2 0x39A4 JUMP JUMPDEST CALLVALUE DUP1 ISZERO PUSH2 0xF29 JUMPI PUSH1 0x0 DUP1 REVERT JUMPDEST POP PUSH2 0x42D PUSH2 0x39B5 JUMP JUMPDEST CALLVALUE DUP1 ISZERO PUSH2 0xF3E JUMPI PUSH1 0x0 DUP1 REVERT JUMPDEST POP PUSH2 0x401 PUSH1 0x4 DUP1 CALLDATASIZE SUB PUSH1 0x40 DUP2 LT ISZERO PUSH2 0xF55 JUMPI PUSH1 0x0 DUP1 REVERT JUMPDEST DUP2 CALLDATALOAD SWAP2 SWAP1 DUP2 ADD SWAP1 PUSH1 0x40 DUP2 ADD PUSH1 0x20 DUP3 ADD CALLDATALOAD PUSH5 0x100000000 DUP2 GT ISZERO PUSH2 0xF77 JUMPI PUSH1 0x0 DUP1 REVERT JUMPDEST DUP3 ADD DUP4 PUSH1 0x20 DUP3 ADD GT ISZERO PUSH2 0xF89 JUMPI PUSH1 0x0 DUP1 REVERT JUMPDEST DUP1 CALLDATALOAD SWAP1 PUSH1 0x20 ADD SWAP2 DUP5 PUSH1 0x1 DUP4 MUL DUP5 ADD GT PUSH5 0x100000000 DUP4 GT OR ISZERO PUSH2 0xFAB JUMPI PUSH1 0x0 DUP1 REVERT JUMPDEST SWAP2 SWAP1 DUP1 DUP1 PUSH1 0x1F ADD PUSH1 0x20 DUP1 SWAP2 DIV MUL PUSH1 0x20 ADD PUSH1 0x40 MLOAD SWAP1 DUP2 ADD PUSH1 0x40 MSTORE DUP1 SWAP4 SWAP3 SWAP2 SWAP1 DUP2 DUP2 MSTORE PUSH1 0x20 ADD DUP4 DUP4 DUP1 DUP3 DUP5 CALLDATACOPY PUSH1 0x0 SWAP3 ADD SWAP2 SWAP1 SWAP2 MSTORE POP SWAP3 SWAP6 POP PUSH2 0x39BB SWAP5 POP POP POP POP POP JUMP JUMPDEST CALLVALUE DUP1 ISZERO PUSH2 0xFF8 JUMPI PUSH1 0x0 DUP1 REVERT JUMPDEST POP PUSH2 0x512 PUSH1 0x4 DUP1 CALLDATASIZE SUB PUSH1 0x40 DUP2 LT ISZERO PUSH2 0x100F JUMPI PUSH1 0x0 DUP1 REVERT JUMPDEST POP PUSH1 0x1 PUSH1 0x1 PUSH1 0xA0 SHL SUB DUP2 CALLDATALOAD DUP2 AND SWAP2 PUSH1 0x20 ADD CALLDATALOAD AND PUSH2 0x39C5 JUMP JUMPDEST CALLVALUE DUP1 ISZERO PUSH2 0x1033 JUMPI PUSH1 0x0 DUP1 REVERT JUMPDEST POP PUSH2 0x42D PUSH1 0x4 DUP1 CALLDATASIZE SUB PUSH1 0x20 DUP2 LT ISZERO PUSH2 0x104A JUMPI PUSH1 0x0 DUP1 REVERT JUMPDEST POP CALLDATALOAD PUSH2 0x39F3 JUMP JUMPDEST CALLVALUE DUP1 ISZERO PUSH2 0x105D JUMPI PUSH1 0x0 DUP1 REVERT JUMPDEST POP PUSH2 0x401 PUSH1 0x4 DUP1 CALLDATASIZE SUB PUSH1 0x20 DUP2 LT ISZERO PUSH2 0x1074 JUMPI PUSH1 0x0 DUP1 REVERT JUMPDEST POP CALLDATALOAD PUSH2 0x3A36 JUMP JUMPDEST CALLVALUE DUP1 ISZERO PUSH2 0x1087 JUMPI PUSH1 0x0 DUP1 REVERT JUMPDEST POP PUSH2 0x401 PUSH1 0x4 DUP1 CALLDATASIZE SUB PUSH1 0x20 DUP2 LT ISZERO PUSH2 0x109E JUMPI PUSH1 0x0 DUP1 REVERT JUMPDEST POP CALLDATALOAD PUSH2 0x3A8B JUMP JUMPDEST CALLVALUE DUP1 ISZERO PUSH2 0x10B1 JUMPI PUSH1 0x0 DUP1 REVERT JUMPDEST POP PUSH2 0x401 PUSH2 0x3AE0 JUMP JUMPDEST CALLVALUE DUP1 ISZERO PUSH2 0x10C6 JUMPI PUSH1 0x0 DUP1 REVERT JUMPDEST POP PUSH2 0x401 PUSH2 0x3B15 JUMP JUMPDEST DUP2 PUSH1 0x13 PUSH1 0x0 PUSH1 0x11 DUP4 DUP2 SLOAD DUP2 LT PUSH2 0x10E1 JUMPI INVALID JUMPDEST PUSH1 0x0 SWAP2 DUP3 MSTORE PUSH1 0x20 DUP1 DUP4 KECCAK256 PUSH1 0x7 SWAP3 SWAP1 SWAP3 MUL SWAP1 SWAP2 ADD PUSH1 0x5 ADD SLOAD DUP4 MSTORE DUP3 ADD SWAP3 SWAP1 SWAP3 MSTORE PUSH1 0x40 ADD SWAP1 KECCAK256 SLOAD PUSH1 0x1 PUSH1 0x1 PUSH1 0xA0 SHL SUB AND CALLER EQ PUSH2 0x115B JUMPI PUSH1 0x40 DUP1 MLOAD PUSH3 0x461BCD PUSH1 0xE5 SHL DUP2 MSTORE PUSH1 0x20 PUSH1 0x4 DUP3 ADD MSTORE PUSH1 0x16 PUSH1 0x24 DUP3 ADD MSTORE PUSH22 0x2A9030B932B713BA103A34329037333A1027BBB732B9 PUSH1 0x51 SHL PUSH1 0x44 DUP3 ADD MSTORE SWAP1 MLOAD SWAP1 DUP2 SWAP1 SUB PUSH1 0x64 ADD SWAP1 REVERT JUMPDEST PUSH1 0xC SLOAD PUSH1 0x40 DUP1 MLOAD PUSH4 0x3DB1CDBF PUSH1 0xE2 SHL DUP2 MSTORE CALLER PUSH1 0x4 DUP3 ADD DUP2 SWAP1 MSTORE SWAP2 MLOAD SWAP2 SWAP3 PUSH8 0x8AC7230489E80000 SWAP3 DUP4 SWAP3 PUSH1 0x1 PUSH1 0x1 PUSH1 0xA0 SHL SUB SWAP1 SWAP3 AND SWAP2 PUSH4 0xF6C736FC SWAP2 PUSH1 0x24 DUP1 DUP4 ADD SWAP3 PUSH1 0x20 SWAP3 SWAP2 SWAP1 DUP3 SWAP1 SUB ADD DUP2 DUP7 DUP1 EXTCODESIZE ISZERO DUP1 ISZERO PUSH2 0x11B5 JUMPI PUSH1 0x0 DUP1 REVERT JUMPDEST POP GAS STATICCALL ISZERO DUP1 ISZERO PUSH2 0x11C9 JUMPI RETURNDATASIZE PUSH1 0x0 DUP1 RETURNDATACOPY RETURNDATASIZE PUSH1 0x0 REVERT JUMPDEST POP POP POP POP PUSH1 0x40 MLOAD RETURNDATASIZE PUSH1 0x20 DUP2 LT ISZERO PUSH2 0x11DF JUMPI PUSH1 0x0 DUP1 REVERT JUMPDEST POP MLOAD LT ISZERO PUSH2 0x1225 JUMPI PUSH1 0x40 DUP1 MLOAD PUSH3 0x461BCD PUSH1 0xE5 SHL DUP2 MSTORE PUSH1 0x20 PUSH1 0x4 DUP3 ADD MSTORE PUSH1 0xE PUSH1 0x24 DUP3 ADD MSTORE PUSH14 0x4E6F7420656E6F75676820554A47 PUSH1 0x90 SHL PUSH1 0x44 DUP3 ADD MSTORE SWAP1 MLOAD SWAP1 DUP2 SWAP1 SUB PUSH1 0x64 ADD SWAP1 REVERT JUMPDEST PUSH2 0x1237 PUSH8 0x8AC7230489E80000 CALLER PUSH2 0x3D00 JUMP JUMPDEST PUSH1 0x1D PUSH1 0x40 MLOAD DUP1 PUSH1 0x60 ADD PUSH1 0x40 MSTORE DUP1 PUSH1 0x11 DUP9 DUP2 SLOAD DUP2 LT PUSH2 0x1251 JUMPI INVALID JUMPDEST PUSH1 0x0 SWAP2 DUP3 MSTORE PUSH1 0x20 DUP1 DUP4 KECCAK256 PUSH1 0x7 SWAP3 SWAP1 SWAP3 MUL SWAP1 SWAP2 ADD PUSH1 0x5 ADD SLOAD DUP4 MSTORE DUP3 DUP2 ADD DUP10 SWAP1 MSTORE CALLER PUSH1 0x40 SWAP4 DUP5 ADD MSTORE DUP5 SLOAD PUSH1 0x1 DUP1 DUP3 ADD DUP8 SSTORE SWAP6 DUP4 MSTORE SWAP2 DUP2 SWAP1 KECCAK256 DUP5 MLOAD PUSH1 0x3 SWAP1 SWAP4 MUL ADD SWAP2 DUP3 SSTORE DUP4 ADD MLOAD DUP2 DUP6 ADD SSTORE SWAP2 ADD MLOAD PUSH1 0x2 SWAP1 SWAP2 ADD DUP1 SLOAD PUSH1 0x1 PUSH1 0x1 PUSH1 0xA0 SHL SUB NOT AND PUSH1 0x1 PUSH1 0x1 PUSH1 0xA0 SHL SUB SWAP1 SWAP3 AND SWAP2 SWAP1 SWAP2 OR SWAP1 SSTORE PUSH1 0x11 DUP1 SLOAD DUP8 SWAP1 DUP2 LT PUSH2 0x12CC JUMPI INVALID JUMPDEST SWAP1 PUSH1 0x0 MSTORE PUSH1 0x20 PUSH1 0x0 KECCAK256 SWAP1 PUSH1 0x7 MUL ADD PUSH1 0x6 ADD PUSH1 0x0 PUSH2 0x100 EXP DUP2 SLOAD DUP2 PUSH1 0xFF MUL NOT AND SWAP1 DUP4 ISZERO ISZERO MUL OR SWAP1 SSTORE POP PUSH1 0x0 DUP1 MLOAD PUSH1 0x20 PUSH2 0x561C DUP4 CODECOPY DUP2 MLOAD SWAP2 MSTORE CALLER ADDRESS PUSH1 0x11 DUP9 DUP2 SLOAD DUP2 LT PUSH2 0x1312 JUMPI INVALID JUMPDEST SWAP1 PUSH1 0x0 MSTORE PUSH1 0x20 PUSH1 0x0 KECCAK256 SWAP1 PUSH1 0x7 MUL ADD PUSH1 0x5 ADD SLOAD PUSH8 0x8AC7230489E80000 PUSH1 0x40 MLOAD DUP1 DUP6 PUSH1 0x1 PUSH1 0x1 PUSH1 0xA0 SHL SUB AND DUP2 MSTORE PUSH1 0x20 ADD DUP5 PUSH1 0x1 PUSH1 0x1 PUSH1 0xA0 SHL SUB AND DUP2 MSTORE PUSH1 0x20 ADD DUP4 DUP2 MSTORE PUSH1 0x20 ADD DUP3 DUP2 MSTORE PUSH1 0x20 ADD SWAP5 POP POP POP POP POP PUSH1 0x40 MLOAD DUP1 SWAP2 SUB SWAP1 LOG1 POP POP POP POP POP JUMP JUMPDEST PUSH1 0x28 DUP2 MUL JUMPDEST SWAP2 SWAP1 POP JUMP JUMPDEST PUSH1 0x60 CALLER DUP1 PUSH2 0x1386 PUSH2 0x1B6A JUMP JUMPDEST PUSH1 0x1 PUSH1 0x1 PUSH1 0xA0 SHL SUB AND EQ PUSH2 0x13CB JUMPI PUSH1 0x40 MLOAD PUSH3 0x461BCD PUSH1 0xE5 SHL DUP2 MSTORE PUSH1 0x4 ADD DUP1 DUP1 PUSH1 0x20 ADD DUP3 DUP2 SUB DUP3 MSTORE PUSH1 0x28 DUP2 MSTORE PUSH1 0x20 ADD DUP1 PUSH2 0x53D0 PUSH1 0x28 SWAP2 CODECOPY PUSH1 0x40 ADD SWAP2 POP POP PUSH1 0x40 MLOAD DUP1 SWAP2 SUB SWAP1 REVERT JUMPDEST PUSH2 0x13D4 DUP4 PUSH2 0x3721 JUMP JUMPDEST SWAP2 POP JUMPDEST POP SWAP2 SWAP1 POP JUMP JUMPDEST PUSH1 0x1 PUSH1 0x1 PUSH1 0xE0 SHL SUB NOT AND PUSH1 0x0 SWAP1 DUP2 MSTORE PUSH1 0x1 PUSH1 0x20 MSTORE PUSH1 0x40 SWAP1 KECCAK256 SLOAD PUSH1 0xFF AND SWAP1 JUMP JUMPDEST DUP1 PUSH1 0x13 PUSH1 0x0 PUSH1 0x11 DUP4 DUP2 SLOAD DUP2 LT PUSH2 0x140E JUMPI INVALID JUMPDEST PUSH1 0x0 SWAP2 DUP3 MSTORE PUSH1 0x20 DUP1 DUP4 KECCAK256 PUSH1 0x7 SWAP3 SWAP1 SWAP3 MUL SWAP1 SWAP2 ADD PUSH1 0x5 ADD SLOAD DUP4 MSTORE DUP3 ADD SWAP3 SWAP1 SWAP3 MSTORE PUSH1 0x40 ADD SWAP1 KECCAK256 SLOAD PUSH1 0x1 PUSH1 0x1 PUSH1 0xA0 SHL SUB AND CALLER EQ PUSH2 0x1488 JUMPI PUSH1 0x40 DUP1 MLOAD PUSH3 0x461BCD PUSH1 0xE5 SHL DUP2 MSTORE PUSH1 0x20 PUSH1 0x4 DUP3 ADD MSTORE PUSH1 0x16 PUSH1 0x24 DUP3 ADD MSTORE PUSH22 0x2A9030B932B713BA103A34329037333A1027BBB732B9 PUSH1 0x51 SHL PUSH1 0x44 DUP3 ADD MSTORE SWAP1 MLOAD SWAP1 DUP2 SWAP1 SUB PUSH1 0x64 ADD SWAP1 REVERT JUMPDEST DUP2 PUSH1 0x11 DUP2 DUP2 SLOAD DUP2 LT PUSH2 0x1496 JUMPI INVALID JUMPDEST PUSH1 0x0 SWAP2 DUP3 MSTORE PUSH1 0x20 SWAP1 SWAP2 KECCAK256 PUSH1 0x6 PUSH1 0x7 SWAP1 SWAP3 MUL ADD ADD SLOAD PUSH1 0xFF AND ISZERO PUSH2 0x14FB JUMPI PUSH1 0x40 DUP1 MLOAD PUSH3 0x461BCD PUSH1 0xE5 SHL DUP2 MSTORE PUSH1 0x20 PUSH1 0x4 DUP3 ADD MSTORE PUSH1 0x19 PUSH1 0x24 DUP3 ADD MSTORE PUSH25 0x151A194814DD1D59195B9D08185C99481A5B881B585C9AD95D PUSH1 0x3A SHL PUSH1 0x44 DUP3 ADD MSTORE SWAP1 MLOAD SWAP1 DUP2 SWAP1 SUB PUSH1 0x64 ADD SWAP1 REVERT JUMPDEST PUSH1 0x0 CALLER SWAP1 POP PUSH1 0x0 PUSH1 0x11 DUP6 DUP2 SLOAD DUP2 LT PUSH2 0x150F JUMPI INVALID JUMPDEST SWAP1 PUSH1 0x0 MSTORE PUSH1 0x20 PUSH1 0x0 KECCAK256 SWAP1 PUSH1 0x7 MUL ADD PUSH1 0x5 ADD SLOAD SWAP1 POP PUSH2 0x152F DUP3 PUSH1 0x0 DUP4 PUSH2 0x1B65 JUMP JUMPDEST PUSH1 0x1 PUSH1 0x1 PUSH1 0xA0 SHL SUB DUP3 AND PUSH1 0x0 SWAP1 DUP2 MSTORE PUSH1 0x12 PUSH1 0x20 SWAP1 DUP2 MSTORE PUSH1 0x40 DUP1 DUP4 KECCAK256 DUP1 SLOAD PUSH1 0x0 NOT ADD SWAP1 SSTORE DUP4 DUP4 MSTORE PUSH1 0x13 SWAP1 SWAP2 MSTORE SWAP1 KECCAK256 DUP1 SLOAD PUSH1 0x1 PUSH1 0x1 PUSH1 0xA0 SHL SUB NOT AND SWAP1 SSTORE PUSH1 0x11 DUP1 SLOAD DUP7 SWAP1 DUP2 LT PUSH2 0x1578 JUMPI INVALID JUMPDEST PUSH1 0x0 SWAP2 DUP3 MSTORE PUSH1 0x20 DUP3 KECCAK256 PUSH1 0x7 SWAP1 SWAP2 MUL ADD DUP2 DUP2 SSTORE PUSH1 0x1 DUP2 ADD DUP3 SWAP1 SSTORE PUSH1 0x2 DUP2 ADD DUP3 SWAP1 SSTORE SWAP1 PUSH2 0x15A6 PUSH1 0x3 DUP4 ADD DUP3 PUSH2 0x522D JUMP JUMPDEST POP PUSH1 0x4 DUP2 ADD DUP1 SLOAD PUSH4 0xFFFFFFFF NOT AND SWAP1 SSTORE PUSH1 0x0 PUSH1 0x5 DUP3 ADD SSTORE PUSH1 0x6 ADD DUP1 SLOAD PUSH1 0xFF NOT AND SWAP1 SSTORE PUSH1 0x1E SLOAD PUSH2 0x15D5 SWAP1 CALLER PUSH2 0x3D80 JUMP JUMPDEST PUSH1 0x1E SLOAD PUSH1 0x40 DUP1 MLOAD CALLER DUP2 MSTORE PUSH1 0x0 PUSH1 0x20 DUP3 ADD MSTORE DUP1 DUP3 ADD DUP5 SWAP1 MSTORE PUSH1 0x60 DUP2 ADD SWAP3 SWAP1 SWAP3 MSTORE MLOAD PUSH1 0x0 DUP1 MLOAD PUSH1 0x20 PUSH2 0x561C DUP4 CODECOPY DUP2 MLOAD SWAP2 MSTORE SWAP2 DUP2 SWAP1 SUB PUSH1 0x80 ADD SWAP1 LOG1 POP POP POP POP POP JUMP JUMPDEST DUP1 PUSH1 0x13 PUSH1 0x0 PUSH1 0x11 DUP4 DUP2 SLOAD DUP2 LT PUSH2 0x1626 JUMPI INVALID JUMPDEST PUSH1 0x0 SWAP2 DUP3 MSTORE PUSH1 0x20 DUP1 DUP4 KECCAK256 PUSH1 0x7 SWAP3 SWAP1 SWAP3 MUL SWAP1 SWAP2 ADD PUSH1 0x5 ADD SLOAD DUP4 MSTORE DUP3 ADD SWAP3 SWAP1 SWAP3 MSTORE PUSH1 0x40 ADD SWAP1 KECCAK256 SLOAD PUSH1 0x1 PUSH1 0x1 PUSH1 0xA0 SHL SUB AND CALLER EQ PUSH2 0x16A0 JUMPI PUSH1 0x40 DUP1 MLOAD PUSH3 0x461BCD PUSH1 0xE5 SHL DUP2 MSTORE PUSH1 0x20 PUSH1 0x4 DUP3 ADD MSTORE PUSH1 0x16 PUSH1 0x24 DUP3 ADD MSTORE PUSH22 0x2A9030B932B713BA103A34329037333A1027BBB732B9 PUSH1 0x51 SHL PUSH1 0x44 DUP3 ADD MSTORE SWAP1 MLOAD SWAP1 DUP2 SWAP1 SUB PUSH1 0x64 ADD SWAP1 REVERT JUMPDEST PUSH1 0xC SLOAD PUSH1 0x40 DUP1 MLOAD PUSH4 0x3DB1CDBF PUSH1 0xE2 SHL DUP2 MSTORE CALLER PUSH1 0x4 DUP3 ADD DUP2 SWAP1 MSTORE SWAP2 MLOAD SWAP2 SWAP3 PUSH8 0x8AC7230489E80000 SWAP3 DUP4 SWAP3 PUSH1 0x1 PUSH1 0x1 PUSH1 0xA0 SHL SUB SWAP1 SWAP3 AND SWAP2 PUSH4 0xF6C736FC SWAP2 PUSH1 0x24 DUP1 DUP4 ADD SWAP3 PUSH1 0x20 SWAP3 SWAP2 SWAP1 DUP3 SWAP1 SUB ADD DUP2 DUP7 DUP1 EXTCODESIZE ISZERO DUP1 ISZERO PUSH2 0x16FA JUMPI PUSH1 0x0 DUP1 REVERT JUMPDEST POP GAS STATICCALL ISZERO DUP1 ISZERO PUSH2 0x170E JUMPI RETURNDATASIZE PUSH1 0x0 DUP1 RETURNDATACOPY RETURNDATASIZE PUSH1 0x0 REVERT JUMPDEST POP POP POP POP PUSH1 0x40 MLOAD RETURNDATASIZE PUSH1 0x20 DUP2 LT ISZERO PUSH2 0x1724 JUMPI PUSH1 0x0 DUP1 REVERT JUMPDEST POP MLOAD LT ISZERO PUSH2 0x176A JUMPI PUSH1 0x40 DUP1 MLOAD PUSH3 0x461BCD PUSH1 0xE5 SHL DUP2 MSTORE PUSH1 0x20 PUSH1 0x4 DUP3 ADD MSTORE PUSH1 0xE PUSH1 0x24 DUP3 ADD MSTORE PUSH14 0x4E6F7420656E6F75676820554A47 PUSH1 0x90 SHL PUSH1 0x44 DUP3 ADD MSTORE SWAP1 MLOAD SWAP1 DUP2 SWAP1 SUB PUSH1 0x64 ADD SWAP1 REVERT JUMPDEST PUSH1 0x11 DUP5 DUP2 SLOAD DUP2 LT PUSH2 0x1777 JUMPI INVALID JUMPDEST SWAP1 PUSH1 0x0 MSTORE PUSH1 0x20 PUSH1 0x0 KECCAK256 SWAP1 PUSH1 0x7 MUL ADD PUSH1 0x5 ADD SLOAD PUSH1 0x0 DUP1 JUMPDEST PUSH1 0x1D SLOAD DUP2 LT ISZERO PUSH2 0x17CA JUMPI DUP3 PUSH1 0x1D DUP3 DUP2 SLOAD DUP2 LT PUSH2 0x17A5 JUMPI INVALID JUMPDEST SWAP1 PUSH1 0x0 MSTORE PUSH1 0x20 PUSH1 0x0 KECCAK256 SWAP1 PUSH1 0x3 MUL ADD PUSH1 0x0 ADD SLOAD EQ ISZERO PUSH2 0x17C2 JUMPI PUSH1 0x1 SWAP2 POP JUMPDEST PUSH1 0x1 ADD PUSH2 0x178D JUMP JUMPDEST POP DUP1 PUSH2 0x1807 JUMPI PUSH1 0x40 MLOAD PUSH3 0x461BCD PUSH1 0xE5 SHL DUP2 MSTORE PUSH1 0x4 ADD DUP1 DUP1 PUSH1 0x20 ADD DUP3 DUP2 SUB DUP3 MSTORE PUSH1 0x30 DUP2 MSTORE PUSH1 0x20 ADD DUP1 PUSH2 0x541C PUSH1 0x30 SWAP2 CODECOPY PUSH1 0x40 ADD SWAP2 POP POP PUSH1 0x40 MLOAD DUP1 SWAP2 SUB SWAP1 REVERT JUMPDEST PUSH1 0x0 PUSH1 0x11 DUP8 DUP2 SLOAD DUP2 LT PUSH2 0x1816 JUMPI INVALID JUMPDEST SWAP1 PUSH1 0x0 MSTORE PUSH1 0x20 PUSH1 0x0 KECCAK256 SWAP1 PUSH1 0x7 MUL ADD PUSH1 0x5 ADD SLOAD SWAP1 POP PUSH1 0x0 PUSH2 0x1835 DUP3 PUSH2 0x39F3 JUMP JUMPDEST SWAP1 POP PUSH1 0x0 PUSH1 0x1D DUP3 DUP2 SLOAD DUP2 LT PUSH2 0x1846 JUMPI INVALID JUMPDEST PUSH1 0x0 SWAP2 DUP3 MSTORE PUSH1 0x20 SWAP1 SWAP2 KECCAK256 PUSH1 0x2 PUSH1 0x3 SWAP1 SWAP3 MUL ADD ADD SLOAD PUSH1 0x1 PUSH1 0x1 PUSH1 0xA0 SHL SUB AND SWAP1 POP PUSH2 0x1877 PUSH8 0x8AC7230489E80000 DUP3 PUSH2 0x3D00 JUMP JUMPDEST PUSH1 0x0 PUSH2 0x18A0 PUSH1 0x1D DUP5 DUP2 SLOAD DUP2 LT PUSH2 0x1889 JUMPI INVALID JUMPDEST SWAP1 PUSH1 0x0 MSTORE PUSH1 0x20 PUSH1 0x0 KECCAK256 SWAP1 PUSH1 0x3 MUL ADD PUSH1 0x0 ADD SLOAD PUSH2 0x1B79 JUMP JUMPDEST SWAP1 POP PUSH1 0x0 PUSH1 0x11 DUP3 DUP2 SLOAD DUP2 LT PUSH2 0x18B1 JUMPI INVALID JUMPDEST SWAP1 PUSH1 0x0 MSTORE PUSH1 0x20 PUSH1 0x0 KECCAK256 SWAP1 PUSH1 0x7 MUL ADD PUSH1 0x6 ADD PUSH1 0x0 PUSH2 0x100 EXP DUP2 SLOAD DUP2 PUSH1 0xFF MUL NOT AND SWAP1 DUP4 ISZERO ISZERO MUL OR SWAP1 SSTORE POP PUSH1 0x1D DUP4 DUP2 SLOAD DUP2 LT PUSH2 0x18E6 JUMPI INVALID JUMPDEST PUSH1 0x0 SWAP2 DUP3 MSTORE PUSH1 0x20 DUP3 KECCAK256 PUSH1 0x3 SWAP1 SWAP2 MUL ADD DUP2 DUP2 SSTORE PUSH1 0x1 DUP2 ADD SWAP2 SWAP1 SWAP2 SSTORE PUSH1 0x2 ADD DUP1 SLOAD PUSH1 0x1 PUSH1 0x1 PUSH1 0xA0 SHL SUB NOT AND SWAP1 SSTORE PUSH1 0x1D DUP1 SLOAD PUSH1 0x0 DUP1 MLOAD PUSH1 0x20 PUSH2 0x561C DUP4 CODECOPY DUP2 MLOAD SWAP2 MSTORE SWAP2 CALLER SWAP2 DUP3 SWAP2 SWAP1 DUP8 SWAP1 DUP2 LT PUSH2 0x1934 JUMPI INVALID JUMPDEST SWAP1 PUSH1 0x0 MSTORE PUSH1 0x20 PUSH1 0x0 KECCAK256 SWAP1 PUSH1 0x3 MUL ADD PUSH1 0x0 ADD SLOAD PUSH8 0x8AC7230489E80000 PUSH1 0x40 MLOAD DUP1 DUP6 PUSH1 0x1 PUSH1 0x1 PUSH1 0xA0 SHL SUB AND DUP2 MSTORE PUSH1 0x20 ADD DUP5 PUSH1 0x1 PUSH1 0x1 PUSH1 0xA0 SHL SUB AND DUP2 MSTORE PUSH1 0x20 ADD DUP4 DUP2 MSTORE PUSH1 0x20 ADD DUP3 DUP2 MSTORE PUSH1 0x20 ADD SWAP5 POP POP POP POP POP PUSH1 0x40 MLOAD DUP1 SWAP2 SUB SWAP1 LOG1 POP POP POP POP POP POP POP POP POP POP JUMP JUMPDEST PUSH1 0x7 DUP1 SLOAD PUSH1 0x40 DUP1 MLOAD PUSH1 0x20 PUSH1 0x1F PUSH1 0x2 PUSH1 0x0 NOT PUSH2 0x100 PUSH1 0x1 DUP9 AND ISZERO MUL ADD SWAP1 SWAP6 AND SWAP5 SWAP1 SWAP5 DIV SWAP4 DUP5 ADD DUP2 SWAP1 DIV DUP2 MUL DUP3 ADD DUP2 ADD SWAP1 SWAP3 MSTORE DUP3 DUP2 MSTORE PUSH1 0x60 SWAP4 SWAP1 SWAP3 SWAP1 SWAP2 DUP4 ADD DUP3 DUP3 DUP1 ISZERO PUSH2 0x1A23 JUMPI DUP1 PUSH1 0x1F LT PUSH2 0x19F8 JUMPI PUSH2 0x100 DUP1 DUP4 SLOAD DIV MUL DUP4 MSTORE SWAP2 PUSH1 0x20 ADD SWAP2 PUSH2 0x1A23 JUMP JUMPDEST DUP3 ADD SWAP2 SWAP1 PUSH1 0x0 MSTORE PUSH1 0x20 PUSH1 0x0 KECCAK256 SWAP1 JUMPDEST DUP2 SLOAD DUP2 MSTORE SWAP1 PUSH1 0x1 ADD SWAP1 PUSH1 0x20 ADD DUP1 DUP4 GT PUSH2 0x1A06 JUMPI DUP3 SWAP1 SUB PUSH1 0x1F AND DUP3 ADD SWAP2 JUMPDEST POP POP POP POP POP SWAP1 POP SWAP1 JUMP JUMPDEST PUSH1 0x0 PUSH2 0x1A38 DUP3 PUSH2 0x3E01 JUMP JUMPDEST PUSH2 0x1A73 JUMPI PUSH1 0x40 MLOAD PUSH3 0x461BCD PUSH1 0xE5 SHL DUP2 MSTORE PUSH1 0x4 ADD DUP1 DUP1 PUSH1 0x20 ADD DUP3 DUP2 SUB DUP3 MSTORE PUSH1 0x2C DUP2 MSTORE PUSH1 0x20 ADD DUP1 PUSH2 0x554B PUSH1 0x2C SWAP2 CODECOPY PUSH1 0x40 ADD SWAP2 POP POP PUSH1 0x40 MLOAD DUP1 SWAP2 SUB SWAP1 REVERT JUMPDEST POP PUSH1 0x0 SWAP1 DUP2 MSTORE PUSH1 0x5 PUSH1 0x20 MSTORE PUSH1 0x40 SWAP1 KECCAK256 SLOAD PUSH1 0x1 PUSH1 0x1 PUSH1 0xA0 SHL SUB AND SWAP1 JUMP JUMPDEST PUSH1 0x0 PUSH2 0x1A9A DUP3 PUSH2 0x23F9 JUMP JUMPDEST SWAP1 POP DUP1 PUSH1 0x1 PUSH1 0x1 PUSH1 0xA0 SHL SUB AND DUP4 PUSH1 0x1 PUSH1 0x1 PUSH1 0xA0 SHL SUB AND EQ ISZERO PUSH2 0x1AED JUMPI PUSH1 0x40 MLOAD PUSH3 0x461BCD PUSH1 0xE5 SHL DUP2 MSTORE PUSH1 0x4 ADD DUP1 DUP1 PUSH1 0x20 ADD DUP3 DUP2 SUB DUP3 MSTORE PUSH1 0x21 DUP2 MSTORE PUSH1 0x20 ADD DUP1 PUSH2 0x55FB PUSH1 0x21 SWAP2 CODECOPY PUSH1 0x40 ADD SWAP2 POP POP PUSH1 0x40 MLOAD DUP1 SWAP2 SUB SWAP1 REVERT JUMPDEST DUP1 PUSH1 0x1 PUSH1 0x1 PUSH1 0xA0 SHL SUB AND PUSH2 0x1AFF PUSH2 0x3E0E JUMP JUMPDEST PUSH1 0x1 PUSH1 0x1 PUSH1 0xA0 SHL SUB AND EQ DUP1 PUSH2 0x1B20 JUMPI POP PUSH2 0x1B20 DUP2 PUSH2 0x1B1B PUSH2 0x3E0E JUMP JUMPDEST PUSH2 0x39C5 JUMP JUMPDEST PUSH2 0x1B5B JUMPI PUSH1 0x40 MLOAD PUSH3 0x461BCD PUSH1 0xE5 SHL DUP2 MSTORE PUSH1 0x4 ADD DUP1 DUP1 PUSH1 0x20 ADD DUP3 DUP2 SUB DUP3 MSTORE PUSH1 0x38 DUP2 MSTORE PUSH1 0x20 ADD DUP1 PUSH2 0x549E PUSH1 0x38 SWAP2 CODECOPY PUSH1 0x40 ADD SWAP2 POP POP PUSH1 0x40 MLOAD DUP1 SWAP2 SUB SWAP1 REVERT JUMPDEST PUSH2 0x1B65 DUP4 DUP4 PUSH2 0x3E12 JUMP JUMPDEST POP POP POP JUMP JUMPDEST PUSH1 0x0 SLOAD PUSH1 0x1 PUSH1 0x1 PUSH1 0xA0 SHL SUB AND SWAP1 JUMP JUMPDEST PUSH1 0x0 DUP1 JUMPDEST PUSH1 0x11 SLOAD DUP2 LT ISZERO PUSH2 0x13D7 JUMPI PUSH1 0x11 DUP2 DUP2 SLOAD DUP2 LT PUSH2 0x1B94 JUMPI INVALID JUMPDEST SWAP1 PUSH1 0x0 MSTORE PUSH1 0x20 PUSH1 0x0 KECCAK256 SWAP1 PUSH1 0x7 MUL ADD PUSH1 0x5 ADD SLOAD DUP4 EQ ISZERO PUSH2 0x1BB4 JUMPI SWAP1 POP PUSH2 0x1375 JUMP JUMPDEST PUSH1 0x1 ADD PUSH2 0x1B7D JUMP JUMPDEST PUSH1 0x17 SLOAD SWAP1 JUMP JUMPDEST PUSH1 0x0 DUP1 PUSH1 0x0 PUSH1 0x1D DUP5 DUP2 SLOAD DUP2 LT PUSH2 0x1BD4 JUMPI INVALID JUMPDEST SWAP1 PUSH1 0x0 MSTORE PUSH1 0x20 PUSH1 0x0 KECCAK256 SWAP1 PUSH1 0x3 MUL ADD PUSH1 0x0 ADD SLOAD PUSH1 0x1D DUP6 DUP2 SLOAD DUP2 LT PUSH2 0x1BF3 JUMPI INVALID JUMPDEST SWAP1 PUSH1 0x0 MSTORE PUSH1 0x20 PUSH1 0x0 KECCAK256 SWAP1 PUSH1 0x3 MUL ADD PUSH1 0x1 ADD SLOAD PUSH1 0x1D DUP7 DUP2 SLOAD DUP2 LT PUSH2 0x1C12 JUMPI INVALID JUMPDEST PUSH1 0x0 SWAP2 DUP3 MSTORE PUSH1 0x20 SWAP1 SWAP2 KECCAK256 PUSH1 0x2 PUSH1 0x3 SWAP1 SWAP3 MUL ADD ADD SLOAD SWAP2 SWAP5 POP SWAP3 POP PUSH1 0x1 PUSH1 0x1 PUSH1 0xA0 SHL SUB AND SWAP1 POP SWAP2 SWAP4 SWAP1 SWAP3 POP JUMP JUMPDEST PUSH1 0x1 PUSH1 0x1 PUSH1 0xA0 SHL SUB AND PUSH1 0x0 SWAP1 DUP2 MSTORE PUSH1 0x12 PUSH1 0x20 MSTORE PUSH1 0x40 SWAP1 KECCAK256 SLOAD SWAP1 JUMP JUMPDEST PUSH1 0x0 PUSH2 0x1C64 PUSH1 0x3 PUSH2 0x3E80 JUMP JUMPDEST SWAP1 POP SWAP1 JUMP JUMPDEST CALLER PUSH1 0x1D DUP3 DUP2 SLOAD DUP2 LT PUSH2 0x1C77 JUMPI INVALID JUMPDEST PUSH1 0x0 SWAP2 DUP3 MSTORE PUSH1 0x20 SWAP2 DUP3 SWAP1 KECCAK256 PUSH1 0x1 PUSH1 0x3 SWAP1 SWAP3 MUL ADD ADD SLOAD PUSH1 0xC SLOAD PUSH1 0x40 DUP1 MLOAD PUSH4 0x3DB1CDBF PUSH1 0xE2 SHL DUP2 MSTORE PUSH1 0x1 PUSH1 0x1 PUSH1 0xA0 SHL SUB DUP7 DUP2 AND PUSH1 0x4 DUP4 ADD MSTORE SWAP2 MLOAD SWAP4 SWAP5 DUP6 SWAP5 SWAP3 SWAP1 SWAP4 AND SWAP3 PUSH4 0xF6C736FC SWAP3 PUSH1 0x24 DUP1 DUP5 ADD SWAP4 DUP3 SWAP1 SUB ADD DUP2 DUP7 DUP1 EXTCODESIZE ISZERO DUP1 ISZERO PUSH2 0x1CD8 JUMPI PUSH1 0x0 DUP1 REVERT JUMPDEST POP GAS STATICCALL ISZERO DUP1 ISZERO PUSH2 0x1CEC JUMPI RETURNDATASIZE PUSH1 0x0 DUP1 RETURNDATACOPY RETURNDATASIZE PUSH1 0x0 REVERT JUMPDEST POP POP POP POP PUSH1 0x40 MLOAD RETURNDATASIZE PUSH1 0x20 DUP2 LT ISZERO PUSH2 0x1D02 JUMPI PUSH1 0x0 DUP1 REVERT JUMPDEST POP MLOAD LT ISZERO PUSH2 0x1D48 JUMPI PUSH1 0x40 DUP1 MLOAD PUSH3 0x461BCD PUSH1 0xE5 SHL DUP2 MSTORE PUSH1 0x20 PUSH1 0x4 DUP3 ADD MSTORE PUSH1 0xE PUSH1 0x24 DUP3 ADD MSTORE PUSH14 0x4E6F7420656E6F75676820554A47 PUSH1 0x90 SHL PUSH1 0x44 DUP3 ADD MSTORE SWAP1 MLOAD SWAP1 DUP2 SWAP1 SUB PUSH1 0x64 ADD SWAP1 REVERT JUMPDEST PUSH1 0x1D DUP4 DUP2 SLOAD DUP2 LT PUSH2 0x1D55 JUMPI INVALID JUMPDEST SWAP1 PUSH1 0x0 MSTORE PUSH1 0x20 PUSH1 0x0 KECCAK256 SWAP1 PUSH1 0x3 MUL ADD PUSH1 0x0 ADD SLOAD PUSH1 0x0 DUP1 JUMPDEST PUSH1 0x1D SLOAD DUP2 LT ISZERO PUSH2 0x1DA8 JUMPI DUP3 PUSH1 0x1D DUP3 DUP2 SLOAD DUP2 LT PUSH2 0x1D83 JUMPI INVALID JUMPDEST SWAP1 PUSH1 0x0 MSTORE PUSH1 0x20 PUSH1 0x0 KECCAK256 SWAP1 PUSH1 0x3 MUL ADD PUSH1 0x0 ADD SLOAD EQ ISZERO PUSH2 0x1DA0 JUMPI PUSH1 0x1 SWAP2 POP JUMPDEST PUSH1 0x1 ADD PUSH2 0x1D6B JUMP JUMPDEST POP DUP1 PUSH2 0x1DE5 JUMPI PUSH1 0x40 MLOAD PUSH3 0x461BCD PUSH1 0xE5 SHL DUP2 MSTORE PUSH1 0x4 ADD DUP1 DUP1 PUSH1 0x20 ADD DUP3 DUP2 SUB DUP3 MSTORE PUSH1 0x30 DUP2 MSTORE PUSH1 0x20 ADD DUP1 PUSH2 0x541C PUSH1 0x30 SWAP2 CODECOPY PUSH1 0x40 ADD SWAP2 POP POP PUSH1 0x40 MLOAD DUP1 SWAP2 SUB SWAP1 REVERT JUMPDEST PUSH1 0x0 PUSH1 0x1D DUP7 DUP2 SLOAD DUP2 LT PUSH2 0x1DF4 JUMPI INVALID JUMPDEST SWAP1 PUSH1 0x0 MSTORE PUSH1 0x20 PUSH1 0x0 KECCAK256 SWAP1 PUSH1 0x3 MUL ADD PUSH1 0x1 ADD SLOAD SWAP1 POP PUSH1 0x0 PUSH1 0x1D DUP8 DUP2 SLOAD DUP2 LT PUSH2 0x1E17 JUMPI INVALID JUMPDEST PUSH1 0x0 SWAP2 DUP3 MSTORE PUSH1 0x20 DUP3 KECCAK256 PUSH1 0x2 PUSH1 0x3 SWAP1 SWAP3 MUL ADD ADD SLOAD PUSH1 0x1D DUP1 SLOAD PUSH1 0x1 PUSH1 0x1 PUSH1 0xA0 SHL SUB SWAP1 SWAP3 AND SWAP4 POP PUSH2 0x1E49 SWAP2 DUP11 SWAP1 DUP2 LT PUSH2 0x1889 JUMPI INVALID JUMPDEST PUSH1 0xC SLOAD PUSH1 0x40 DUP1 MLOAD PUSH4 0x3844B707 PUSH1 0xE0 SHL DUP2 MSTORE CALLER PUSH1 0x4 DUP3 ADD DUP2 SWAP1 MSTORE PUSH1 0x1 PUSH1 0x1 PUSH1 0xA0 SHL SUB DUP8 DUP2 AND PUSH1 0x24 DUP5 ADD MSTORE PUSH1 0x44 DUP4 ADD DUP10 SWAP1 MSTORE SWAP3 MLOAD SWAP5 SWAP6 POP SWAP4 SWAP2 SWAP1 SWAP3 AND SWAP2 PUSH4 0x3844B707 SWAP2 PUSH1 0x64 DUP1 DUP4 ADD SWAP3 PUSH1 0x0 SWAP3 SWAP2 SWAP1 DUP3 SWAP1 SUB ADD DUP2 DUP4 DUP8 DUP1 EXTCODESIZE ISZERO DUP1 ISZERO PUSH2 0x1EAA JUMPI PUSH1 0x0 DUP1 REVERT JUMPDEST POP GAS CALL ISZERO DUP1 ISZERO PUSH2 0x1EBE JUMPI RETURNDATASIZE PUSH1 0x0 DUP1 RETURNDATACOPY RETURNDATASIZE PUSH1 0x0 REVERT JUMPDEST POP POP POP POP PUSH1 0x0 PUSH1 0x11 DUP4 DUP2 SLOAD DUP2 LT PUSH2 0x1ED1 JUMPI INVALID JUMPDEST SWAP1 PUSH1 0x0 MSTORE PUSH1 0x20 PUSH1 0x0 KECCAK256 SWAP1 PUSH1 0x7 MUL ADD PUSH1 0x6 ADD PUSH1 0x0 PUSH2 0x100 EXP DUP2 SLOAD DUP2 PUSH1 0xFF MUL NOT AND SWAP1 DUP4 ISZERO ISZERO MUL OR SWAP1 SSTORE POP PUSH2 0x1F22 DUP4 DUP3 PUSH1 0x11 DUP6 DUP2 SLOAD DUP2 LT PUSH2 0x1F0B JUMPI INVALID JUMPDEST SWAP1 PUSH1 0x0 MSTORE PUSH1 0x20 PUSH1 0x0 KECCAK256 SWAP1 PUSH1 0x7 MUL ADD PUSH1 0x5 ADD SLOAD PUSH2 0x3E8B JUMP JUMPDEST PUSH1 0x1D DUP10 DUP2 SLOAD DUP2 LT PUSH2 0x1F2F JUMPI INVALID JUMPDEST PUSH1 0x0 SWAP2 DUP3 MSTORE PUSH1 0x20 DUP3 KECCAK256 PUSH1 0x3 SWAP1 SWAP2 MUL ADD DUP2 DUP2 SSTORE PUSH1 0x1 DUP2 ADD SWAP2 SWAP1 SWAP2 SSTORE PUSH1 0x2 ADD DUP1 SLOAD PUSH1 0x1 PUSH1 0x1 PUSH1 0xA0 SHL SUB NOT AND SWAP1 SSTORE PUSH1 0x11 DUP1 SLOAD PUSH1 0x0 DUP1 MLOAD PUSH1 0x20 PUSH2 0x561C DUP4 CODECOPY DUP2 MLOAD SWAP2 MSTORE SWAP2 DUP4 SWAP2 DUP7 SWAP2 SWAP1 DUP7 SWAP1 DUP2 LT PUSH2 0x1F7D JUMPI INVALID JUMPDEST SWAP1 PUSH1 0x0 MSTORE PUSH1 0x20 PUSH1 0x0 KECCAK256 SWAP1 PUSH1 0x7 MUL ADD PUSH1 0x5 ADD SLOAD DUP8 PUSH1 0x40 MLOAD DUP1 DUP6 PUSH1 0x1 PUSH1 0x1 PUSH1 0xA0 SHL SUB AND DUP2 MSTORE PUSH1 0x20 ADD DUP5 PUSH1 0x1 PUSH1 0x1 PUSH1 0xA0 SHL SUB AND DUP2 MSTORE PUSH1 0x20 ADD DUP4 DUP2 MSTORE PUSH1 0x20 ADD DUP3 DUP2 MSTORE PUSH1 0x20 ADD SWAP5 POP POP POP POP POP PUSH1 0x40 MLOAD DUP1 SWAP2 SUB SWAP1 LOG1 POP POP POP POP POP POP POP POP POP JUMP JUMPDEST PUSH1 0x1F SLOAD SWAP1 JUMP JUMPDEST PUSH2 0x1FEE PUSH2 0x1FE8 PUSH2 0x3E0E JUMP JUMPDEST DUP3 PUSH2 0x3EE8 JUMP JUMPDEST PUSH2 0x2029 JUMPI PUSH1 0x40 MLOAD PUSH3 0x461BCD PUSH1 0xE5 SHL DUP2 MSTORE PUSH1 0x4 ADD DUP1 DUP1 PUSH1 0x20 ADD DUP3 DUP2 SUB DUP3 MSTORE PUSH1 0x31 DUP2 MSTORE PUSH1 0x20 ADD DUP1 PUSH2 0x563C PUSH1 0x31 SWAP2 CODECOPY PUSH1 0x40 ADD SWAP2 POP POP PUSH1 0x40 MLOAD DUP1 SWAP2 SUB SWAP1 REVERT JUMPDEST PUSH2 0x1B65 DUP4 DUP4 DUP4 PUSH2 0x3F8C JUMP JUMPDEST CALLER DUP1 PUSH2 0x203E PUSH2 0x1B6A JUMP JUMPDEST PUSH1 0x1 PUSH1 0x1 PUSH1 0xA0 SHL SUB AND EQ PUSH2 0x2083 JUMPI PUSH1 0x40 MLOAD PUSH3 0x461BCD PUSH1 0xE5 SHL DUP2 MSTORE PUSH1 0x4 ADD DUP1 DUP1 PUSH1 0x20 ADD DUP3 DUP2 SUB DUP3 MSTORE PUSH1 0x28 DUP2 MSTORE PUSH1 0x20 ADD DUP1 PUSH2 0x53D0 PUSH1 0x28 SWAP2 CODECOPY PUSH1 0x40 ADD SWAP2 POP POP PUSH1 0x40 MLOAD DUP1 SWAP2 SUB SWAP1 REVERT JUMPDEST POP PUSH1 0x16 SSTORE JUMP JUMPDEST PUSH1 0x11 SLOAD SWAP1 JUMP JUMPDEST PUSH1 0xC SLOAD PUSH1 0x40 DUP1 MLOAD PUSH4 0xA3875CAF PUSH1 0xE0 SHL DUP2 MSTORE ADDRESS PUSH1 0x4 DUP3 ADD MSTORE PUSH1 0x24 DUP2 ADD DUP5 SWAP1 MSTORE CALLER PUSH1 0x44 DUP3 ADD MSTORE SWAP1 MLOAD PUSH1 0x1 PUSH1 0x1 PUSH1 0xA0 SHL SUB SWAP1 SWAP3 AND SWAP2 PUSH4 0xA3875CAF SWAP2 PUSH1 0x64 DUP1 DUP3 ADD SWAP3 PUSH1 0x0 SWAP3 SWAP1 SWAP2 SWAP1 DUP3 SWAP1 SUB ADD DUP2 DUP4 DUP8 DUP1 EXTCODESIZE ISZERO DUP1 ISZERO PUSH2 0x20E8 JUMPI PUSH1 0x0 DUP1 REVERT JUMPDEST POP GAS CALL ISZERO DUP1 ISZERO PUSH2 0x20FC JUMPI RETURNDATASIZE PUSH1 0x0 DUP1 RETURNDATACOPY RETURNDATASIZE PUSH1 0x0 REVERT JUMPDEST POP POP PUSH1 0xD DUP1 SLOAD DUP5 DUP2 SUB SWAP2 DUP3 SWAP1 SSTORE PUSH1 0x40 DUP1 MLOAD DUP3 DUP2 MSTORE PUSH1 0x20 DUP2 ADD SWAP4 SWAP1 SWAP4 MSTORE PUSH1 0x60 DUP4 DUP3 ADD DUP2 SWAP1 MSTORE PUSH1 0x1 SWAP1 DUP5 ADD MSTORE PUSH1 0x2D PUSH1 0xF8 SHL PUSH1 0x80 DUP5 ADD MSTORE MLOAD SWAP1 SWAP4 POP PUSH1 0x0 DUP1 MLOAD PUSH1 0x20 PUSH2 0x566D DUP4 CODECOPY DUP2 MLOAD SWAP2 MSTORE SWAP3 POP SWAP1 DUP2 SWAP1 SUB PUSH1 0xA0 ADD SWAP1 LOG1 POP POP JUMP JUMPDEST PUSH1 0xC SLOAD PUSH1 0x40 DUP1 MLOAD PUSH4 0x1639A6F1 PUSH1 0xE0 SHL DUP2 MSTORE PUSH1 0x4 DUP2 ADD DUP5 SWAP1 MSTORE ADDRESS PUSH1 0x24 DUP3 ADD MSTORE CALLER PUSH1 0x44 DUP3 ADD MSTORE SWAP1 MLOAD PUSH1 0x1 PUSH1 0x1 PUSH1 0xA0 SHL SUB SWAP1 SWAP3 AND SWAP2 PUSH4 0x1639A6F1 SWAP2 PUSH1 0x64 DUP1 DUP3 ADD SWAP3 PUSH1 0x0 SWAP3 SWAP1 SWAP2 SWAP1 DUP3 SWAP1 SUB ADD DUP2 DUP4 DUP8 DUP1 EXTCODESIZE ISZERO DUP1 ISZERO PUSH2 0x21AB JUMPI PUSH1 0x0 DUP1 REVERT JUMPDEST POP GAS CALL ISZERO DUP1 ISZERO PUSH2 0x21BF JUMPI RETURNDATASIZE PUSH1 0x0 DUP1 RETURNDATACOPY RETURNDATASIZE PUSH1 0x0 REVERT JUMPDEST POP POP PUSH1 0xD DUP1 SLOAD DUP5 DUP2 ADD SWAP2 DUP3 SWAP1 SSTORE PUSH1 0x40 DUP1 MLOAD DUP3 DUP2 MSTORE PUSH1 0x20 DUP2 ADD SWAP4 SWAP1 SWAP4 MSTORE PUSH1 0x60 DUP4 DUP3 ADD DUP2 SWAP1 MSTORE PUSH1 0x1 SWAP1 DUP5 ADD MSTORE PUSH1 0x2B PUSH1 0xF8 SHL PUSH1 0x80 DUP5 ADD MSTORE MLOAD SWAP1 SWAP4 POP PUSH1 0x0 DUP1 MLOAD PUSH1 0x20 PUSH2 0x566D DUP4 CODECOPY DUP2 MLOAD SWAP2 MSTORE SWAP3 POP SWAP1 DUP2 SWAP1 SUB PUSH1 0xA0 ADD SWAP1 LOG1 POP POP JUMP JUMPDEST PUSH1 0x1 PUSH1 0x1 PUSH1 0xA0 SHL SUB DUP3 AND PUSH1 0x0 SWAP1 DUP2 MSTORE PUSH1 0x2 PUSH1 0x20 MSTORE PUSH1 0x40 DUP2 KECCAK256 PUSH2 0x2237 SWAP1 DUP4 PUSH2 0x40D8 JUMP JUMPDEST SWAP1 POP JUMPDEST SWAP3 SWAP2 POP POP JUMP JUMPDEST PUSH1 0x19 SLOAD MUL PUSH9 0x1158E460913D00000 MUL SWAP1 JUMP JUMPDEST PUSH2 0x1B65 DUP4 DUP4 DUP4 PUSH1 0x40 MLOAD DUP1 PUSH1 0x20 ADD PUSH1 0x40 MSTORE DUP1 PUSH1 0x0 DUP2 MSTORE POP PUSH2 0x3534 JUMP JUMPDEST PUSH1 0x60 PUSH1 0x1 PUSH1 0x1 PUSH1 0xA0 SHL SUB DUP3 AND PUSH2 0x22C3 JUMPI PUSH1 0x40 DUP1 MLOAD PUSH3 0x461BCD PUSH1 0xE5 SHL DUP2 MSTORE PUSH1 0x20 PUSH1 0x4 DUP3 ADD MSTORE PUSH1 0x16 PUSH1 0x24 DUP3 ADD MSTORE PUSH22 0x1059191C995CDCC80C1E0C0B8B8B881A5B9D985B1A59 PUSH1 0x52 SHL PUSH1 0x44 DUP3 ADD MSTORE SWAP1 MLOAD SWAP1 DUP2 SWAP1 SUB PUSH1 0x64 ADD SWAP1 REVERT JUMPDEST PUSH1 0x1 PUSH1 0x1 PUSH1 0xA0 SHL SUB DUP3 AND PUSH1 0x0 SWAP1 DUP2 MSTORE PUSH1 0x12 PUSH1 0x20 MSTORE PUSH1 0x40 SWAP1 KECCAK256 SLOAD PUSH1 0x60 SWAP1 PUSH8 0xFFFFFFFFFFFFFFFF DUP2 GT DUP1 ISZERO PUSH2 0x22F5 JUMPI PUSH1 0x0 DUP1 REVERT JUMPDEST POP PUSH1 0x40 MLOAD SWAP1 DUP1 DUP3 MSTORE DUP1 PUSH1 0x20 MUL PUSH1 0x20 ADD DUP3 ADD PUSH1 0x40 MSTORE DUP1 ISZERO PUSH2 0x231F JUMPI DUP2 PUSH1 0x20 ADD PUSH1 0x20 DUP3 MUL DUP1 CALLDATASIZE DUP4 CALLDATACOPY ADD SWAP1 POP JUMPDEST POP SWAP1 POP PUSH1 0x0 DUP1 JUMPDEST PUSH1 0x11 SLOAD DUP2 LT ISZERO PUSH2 0x2379 JUMPI PUSH1 0x0 DUP2 DUP2 MSTORE PUSH1 0x13 PUSH1 0x20 MSTORE PUSH1 0x40 SWAP1 KECCAK256 SLOAD PUSH1 0x1 PUSH1 0x1 PUSH1 0xA0 SHL SUB DUP7 DUP2 AND SWAP2 AND EQ ISZERO PUSH2 0x2371 JUMPI DUP1 DUP4 DUP4 DUP2 MLOAD DUP2 LT PUSH2 0x235F JUMPI INVALID JUMPDEST PUSH1 0x20 SWAP1 DUP2 MUL SWAP2 SWAP1 SWAP2 ADD ADD MSTORE PUSH1 0x1 SWAP1 SWAP2 ADD SWAP1 JUMPDEST PUSH1 0x1 ADD PUSH2 0x2326 JUMP JUMPDEST POP SWAP1 SWAP4 SWAP3 POP POP POP JUMP JUMPDEST PUSH1 0x0 DUP1 PUSH2 0x2390 PUSH1 0x3 DUP5 PUSH2 0x40E4 JUMP JUMPDEST POP SWAP4 SWAP3 POP POP POP JUMP JUMPDEST CALLER DUP1 PUSH2 0x23A2 PUSH2 0x1B6A JUMP JUMPDEST PUSH1 0x1 PUSH1 0x1 PUSH1 0xA0 SHL SUB AND EQ PUSH2 0x23E7 JUMPI PUSH1 0x40 MLOAD PUSH3 0x461BCD PUSH1 0xE5 SHL DUP2 MSTORE PUSH1 0x4 ADD DUP1 DUP1 PUSH1 0x20 ADD DUP3 DUP2 SUB DUP3 MSTORE PUSH1 0x28 DUP2 MSTORE PUSH1 0x20 ADD DUP1 PUSH2 0x53D0 PUSH1 0x28 SWAP2 CODECOPY PUSH1 0x40 ADD SWAP2 POP POP PUSH1 0x40 MLOAD DUP1 SWAP2 SUB SWAP1 REVERT JUMPDEST POP PUSH1 0x17 SSTORE JUMP JUMPDEST PUSH1 0x18 SLOAD SWAP1 JUMP JUMPDEST PUSH1 0x16 SLOAD SWAP1 JUMP JUMPDEST PUSH1 0x0 PUSH2 0x223A DUP3 PUSH1 0x40 MLOAD DUP1 PUSH1 0x60 ADD PUSH1 0x40 MSTORE DUP1 PUSH1 0x29 DUP2 MSTORE PUSH1 0x20 ADD PUSH2 0x5500 PUSH1 0x29 SWAP2 CODECOPY PUSH1 0x3 SWAP2 SWAP1 PUSH2 0x4100 JUMP JUMPDEST CALLER DUP1 PUSH2 0x242B PUSH2 0x1B6A JUMP JUMPDEST PUSH1 0x1 PUSH1 0x1 PUSH1 0xA0 SHL SUB AND EQ PUSH2 0x2470 JUMPI PUSH1 0x40 MLOAD PUSH3 0x461BCD PUSH1 0xE5 SHL DUP2 MSTORE PUSH1 0x4 ADD DUP1 DUP1 PUSH1 0x20 ADD DUP3 DUP2 SUB DUP3 MSTORE PUSH1 0x28 DUP2 MSTORE PUSH1 0x20 ADD DUP1 PUSH2 0x53D0 PUSH1 0x28 SWAP2 CODECOPY PUSH1 0x40 ADD SWAP2 POP POP PUSH1 0x40 MLOAD DUP1 SWAP2 SUB SWAP1 REVERT JUMPDEST POP PUSH1 0xC DUP1 SLOAD PUSH1 0x1 PUSH1 0x1 PUSH1 0xA0 SHL SUB NOT AND PUSH1 0x1 PUSH1 0x1 PUSH1 0xA0 SHL SUB SWAP3 SWAP1 SWAP3 AND SWAP2 SWAP1 SWAP2 OR SWAP1 SSTORE JUMP JUMPDEST PUSH1 0xA DUP1 SLOAD PUSH1 0x40 DUP1 MLOAD PUSH1 0x20 PUSH1 0x1F PUSH1 0x2 PUSH1 0x0 NOT PUSH2 0x100 PUSH1 0x1 DUP9 AND ISZERO MUL ADD SWAP1 SWAP6 AND SWAP5 SWAP1 SWAP5 DIV SWAP4 DUP5 ADD DUP2 SWAP1 DIV DUP2 MUL DUP3 ADD DUP2 ADD SWAP1 SWAP3 MSTORE DUP3 DUP2 MSTORE PUSH1 0x60 SWAP4 SWAP1 SWAP3 SWAP1 SWAP2 DUP4 ADD DUP3 DUP3 DUP1 ISZERO PUSH2 0x1A23 JUMPI DUP1 PUSH1 0x1F LT PUSH2 0x19F8 JUMPI PUSH2 0x100 DUP1 DUP4 SLOAD DIV MUL DUP4 MSTORE SWAP2 PUSH1 0x20 ADD SWAP2 PUSH2 0x1A23 JUMP JUMPDEST PUSH1 0xD SLOAD SWAP1 JUMP JUMPDEST PUSH8 0xDE0B6B3A7640000 DUP3 DUP3 MUL DIV CALLVALUE LT ISZERO PUSH2 0x2513 JUMPI PUSH1 0x0 DUP1 REVERT JUMPDEST PUSH1 0xC SLOAD PUSH1 0x40 DUP1 MLOAD PUSH4 0x3844B707 PUSH1 0xE0 SHL DUP2 MSTORE ADDRESS PUSH1 0x4 DUP3 ADD MSTORE CALLER PUSH1 0x24 DUP3 ADD MSTORE PUSH1 0x44 DUP2 ADD DUP6 SWAP1 MSTORE SWAP1 MLOAD PUSH1 0x1 PUSH1 0x1 PUSH1 0xA0 SHL SUB SWAP1 SWAP3 AND SWAP2 PUSH4 0x3844B707 SWAP2 PUSH1 0x64 DUP1 DUP3 ADD SWAP3 PUSH1 0x0 SWAP3 SWAP1 SWAP2 SWAP1 DUP3 SWAP1 SUB ADD DUP2 DUP4 DUP8 DUP1 EXTCODESIZE ISZERO DUP1 ISZERO PUSH2 0x256C JUMPI PUSH1 0x0 DUP1 REVERT JUMPDEST POP GAS CALL ISZERO DUP1 ISZERO PUSH2 0x2580 JUMPI RETURNDATASIZE PUSH1 0x0 DUP1 RETURNDATACOPY RETURNDATASIZE PUSH1 0x0 REVERT JUMPDEST POP POP PUSH1 0x1C DUP1 SLOAD CALLVALUE ADD SWAP1 SSTORE POP POP PUSH1 0xD DUP1 SLOAD DUP4 SWAP1 SUB SWAP1 SSTORE PUSH1 0x40 DUP1 MLOAD CALLER DUP2 MSTORE ADDRESS PUSH1 0x20 DUP3 ADD MSTORE DUP1 DUP3 ADD DUP5 SWAP1 MSTORE PUSH8 0xDE0B6B3A7640000 DUP4 DUP6 MUL DIV PUSH1 0x60 DUP3 ADD MSTORE SWAP1 MLOAD PUSH32 0x14E1D5B6FD685ABD8451960A2579C435BA7A639EC0A19FA1941E72A9F6652285 SWAP2 DUP2 SWAP1 SUB PUSH1 0x80 ADD SWAP1 LOG1 POP POP JUMP JUMPDEST PUSH1 0x0 PUSH1 0x1 PUSH1 0x1 PUSH1 0xA0 SHL SUB DUP3 AND PUSH2 0x2631 JUMPI PUSH1 0x40 MLOAD PUSH3 0x461BCD PUSH1 0xE5 SHL DUP2 MSTORE PUSH1 0x4 ADD DUP1 DUP1 PUSH1 0x20 ADD DUP3 DUP2 SUB DUP3 MSTORE PUSH1 0x2A DUP2 MSTORE PUSH1 0x20 ADD DUP1 PUSH2 0x54D6 PUSH1 0x2A SWAP2 CODECOPY PUSH1 0x40 ADD SWAP2 POP POP PUSH1 0x40 MLOAD DUP1 SWAP2 SUB SWAP1 REVERT JUMPDEST PUSH1 0x1 PUSH1 0x1 PUSH1 0xA0 SHL SUB DUP3 AND PUSH1 0x0 SWAP1 DUP2 MSTORE PUSH1 0x2 PUSH1 0x20 MSTORE PUSH1 0x40 SWAP1 KECCAK256 PUSH2 0x223A SWAP1 PUSH2 0x3E80 JUMP JUMPDEST DUP2 PUSH1 0x13 PUSH1 0x0 PUSH1 0x11 DUP4 DUP2 SLOAD DUP2 LT PUSH2 0x2664 JUMPI INVALID JUMPDEST PUSH1 0x0 SWAP2 DUP3 MSTORE PUSH1 0x20 DUP1 DUP4 KECCAK256 PUSH1 0x7 SWAP3 SWAP1 SWAP3 MUL SWAP1 SWAP2 ADD PUSH1 0x5 ADD SLOAD DUP4 MSTORE DUP3 ADD SWAP3 SWAP1 SWAP3 MSTORE PUSH1 0x40 ADD SWAP1 KECCAK256 SLOAD PUSH1 0x1 PUSH1 0x1 PUSH1 0xA0 SHL SUB AND CALLER EQ PUSH2 0x26DE JUMPI PUSH1 0x40 DUP1 MLOAD PUSH3 0x461BCD PUSH1 0xE5 SHL DUP2 MSTORE PUSH1 0x20 PUSH1 0x4 DUP3 ADD MSTORE PUSH1 0x16 PUSH1 0x24 DUP3 ADD MSTORE PUSH22 0x2A9030B932B713BA103A34329037333A1027BBB732B9 PUSH1 0x51 SHL PUSH1 0x44 DUP3 ADD MSTORE SWAP1 MLOAD SWAP1 DUP2 SWAP1 SUB PUSH1 0x64 ADD SWAP1 REVERT JUMPDEST CALLER PUSH2 0x26E8 DUP4 PUSH2 0x39A4 JUMP JUMPDEST PUSH1 0xC SLOAD PUSH1 0x40 DUP1 MLOAD PUSH4 0x3DB1CDBF PUSH1 0xE2 SHL DUP2 MSTORE PUSH1 0x1 PUSH1 0x1 PUSH1 0xA0 SHL SUB DUP6 DUP2 AND PUSH1 0x4 DUP4 ADD MSTORE SWAP2 MLOAD DUP5 SWAP4 SWAP3 SWAP1 SWAP3 AND SWAP2 PUSH4 0xF6C736FC SWAP2 PUSH1 0x24 DUP1 DUP3 ADD SWAP3 PUSH1 0x20 SWAP3 SWAP1 SWAP2 SWAP1 DUP3 SWAP1 SUB ADD DUP2 DUP7 DUP1 EXTCODESIZE ISZERO DUP1 ISZERO PUSH2 0x2738 JUMPI PUSH1 0x0 DUP1 REVERT JUMPDEST POP GAS STATICCALL ISZERO DUP1 ISZERO PUSH2 0x274C JUMPI RETURNDATASIZE PUSH1 0x0 DUP1 RETURNDATACOPY RETURNDATASIZE PUSH1 0x0 REVERT JUMPDEST POP POP POP POP PUSH1 0x40 MLOAD RETURNDATASIZE PUSH1 0x20 DUP2 LT ISZERO PUSH2 0x2762 JUMPI PUSH1 0x0 DUP1 REVERT JUMPDEST POP MLOAD LT ISZERO PUSH2 0x27A8 JUMPI PUSH1 0x40 DUP1 MLOAD PUSH3 0x461BCD PUSH1 0xE5 SHL DUP2 MSTORE PUSH1 0x20 PUSH1 0x4 DUP3 ADD MSTORE PUSH1 0xE PUSH1 0x24 DUP3 ADD MSTORE PUSH14 0x4E6F7420656E6F75676820554A47 PUSH1 0x90 SHL PUSH1 0x44 DUP3 ADD MSTORE SWAP1 MLOAD SWAP1 DUP2 SWAP1 SUB PUSH1 0x64 ADD SWAP1 REVERT JUMPDEST DUP5 TIMESTAMP PUSH1 0x11 DUP3 DUP2 SLOAD DUP2 LT PUSH2 0x27B7 JUMPI INVALID JUMPDEST PUSH1 0x0 SWAP2 DUP3 MSTORE PUSH1 0x20 SWAP1 SWAP2 KECCAK256 PUSH1 0x4 PUSH1 0x7 SWAP1 SWAP3 MUL ADD ADD SLOAD PUSH4 0xFFFFFFFF AND GT ISZERO PUSH2 0x281C JUMPI PUSH1 0x40 DUP1 MLOAD PUSH3 0x461BCD PUSH1 0xE5 SHL DUP2 MSTORE PUSH1 0x20 PUSH1 0x4 DUP3 ADD MSTORE PUSH1 0x15 PUSH1 0x24 DUP3 ADD MSTORE PUSH21 0x13195D081C995CDD081E5BDD5C8814DD1D59195B9D PUSH1 0x5A SHL PUSH1 0x44 DUP3 ADD MSTORE SWAP1 MLOAD SWAP1 DUP2 SWAP1 SUB PUSH1 0x64 ADD SWAP1 REVERT JUMPDEST DUP6 PUSH1 0x11 DUP2 DUP2 SLOAD DUP2 LT PUSH2 0x282A JUMPI INVALID JUMPDEST PUSH1 0x0 SWAP2 DUP3 MSTORE PUSH1 0x20 SWAP1 SWAP2 KECCAK256 PUSH1 0x6 PUSH1 0x7 SWAP1 SWAP3 MUL ADD ADD SLOAD PUSH1 0xFF AND ISZERO PUSH2 0x288F JUMPI PUSH1 0x40 DUP1 MLOAD PUSH3 0x461BCD PUSH1 0xE5 SHL DUP2 MSTORE PUSH1 0x20 PUSH1 0x4 DUP3 ADD MSTORE PUSH1 0x19 PUSH1 0x24 DUP3 ADD MSTORE PUSH25 0x151A194814DD1D59195B9D08185C99481A5B881B585C9AD95D PUSH1 0x3A SHL PUSH1 0x44 DUP3 ADD MSTORE SWAP1 MLOAD SWAP1 DUP2 SWAP1 SUB PUSH1 0x64 ADD SWAP1 REVERT JUMPDEST PUSH1 0x1 DUP7 LT ISZERO DUP1 ISZERO PUSH2 0x28A1 JUMPI POP PUSH1 0xA DUP7 GT ISZERO JUMPDEST PUSH2 0x28E2 JUMPI PUSH1 0x40 DUP1 MLOAD PUSH3 0x461BCD PUSH1 0xE5 SHL DUP2 MSTORE PUSH1 0x20 PUSH1 0x4 DUP3 ADD MSTORE PUSH1 0xD PUSH1 0x24 DUP3 ADD MSTORE PUSH13 0x125B9D985B1A590813195D995B PUSH1 0x9A SHL PUSH1 0x44 DUP3 ADD MSTORE SWAP1 MLOAD SWAP1 DUP2 SWAP1 SUB PUSH1 0x64 ADD SWAP1 REVERT JUMPDEST PUSH2 0x28EA PUSH2 0x5274 JUMP JUMPDEST PUSH1 0x11 DUP9 DUP2 SLOAD DUP2 LT PUSH2 0x28F7 JUMPI INVALID JUMPDEST SWAP1 PUSH1 0x0 MSTORE PUSH1 0x20 PUSH1 0x0 KECCAK256 SWAP1 PUSH1 0x7 MUL ADD PUSH1 0x40 MLOAD DUP1 PUSH1 0xE0 ADD PUSH1 0x40 MSTORE SWAP1 DUP2 PUSH1 0x0 DUP3 ADD SLOAD DUP2 MSTORE PUSH1 0x20 ADD PUSH1 0x1 DUP3 ADD SLOAD DUP2 MSTORE PUSH1 0x20 ADD PUSH1 0x2 DUP3 ADD SLOAD DUP2 MSTORE PUSH1 0x20 ADD PUSH1 0x3 DUP3 ADD DUP1 SLOAD PUSH1 0x1 DUP2 PUSH1 0x1 AND ISZERO PUSH2 0x100 MUL SUB AND PUSH1 0x2 SWAP1 DIV DUP1 PUSH1 0x1F ADD PUSH1 0x20 DUP1 SWAP2 DIV MUL PUSH1 0x20 ADD PUSH1 0x40 MLOAD SWAP1 DUP2 ADD PUSH1 0x40 MSTORE DUP1 SWAP3 SWAP2 SWAP1 DUP2 DUP2 MSTORE PUSH1 0x20 ADD DUP3 DUP1 SLOAD PUSH1 0x1 DUP2 PUSH1 0x1 AND ISZERO PUSH2 0x100 MUL SUB AND PUSH1 0x2 SWAP1 DIV DUP1 ISZERO PUSH2 0x29C7 JUMPI DUP1 PUSH1 0x1F LT PUSH2 0x299C JUMPI PUSH2 0x100 DUP1 DUP4 SLOAD DIV MUL DUP4 MSTORE SWAP2 PUSH1 0x20 ADD SWAP2 PUSH2 0x29C7 JUMP JUMPDEST DUP3 ADD SWAP2 SWAP1 PUSH1 0x0 MSTORE PUSH1 0x20 PUSH1 0x0 KECCAK256 SWAP1 JUMPDEST DUP2 SLOAD DUP2 MSTORE SWAP1 PUSH1 0x1 ADD SWAP1 PUSH1 0x20 ADD DUP1 DUP4 GT PUSH2 0x29AA JUMPI DUP3 SWAP1 SUB PUSH1 0x1F AND DUP3 ADD SWAP2 JUMPDEST POP POP POP SWAP2 DUP4 MSTORE POP POP PUSH1 0x4 DUP3 ADD SLOAD PUSH4 0xFFFFFFFF AND PUSH1 0x20 DUP1 DUP4 ADD SWAP2 SWAP1 SWAP2 MSTORE PUSH1 0x5 DUP4 ADD SLOAD PUSH1 0x40 DUP4 ADD MSTORE PUSH1 0x6 SWAP1 SWAP3 ADD SLOAD PUSH1 0xFF AND ISZERO ISZERO PUSH1 0x60 SWAP1 SWAP2 ADD MSTORE DUP2 ADD MLOAD SWAP1 SWAP2 POP PUSH2 0x2A0D JUMPI PUSH1 0x0 DUP1 REVERT JUMPDEST PUSH2 0x2A15 PUSH2 0x4117 JUMP JUMPDEST POP PUSH1 0x0 PUSH2 0x2A21 DUP9 PUSH2 0x1370 JUMP JUMPDEST CALLER PUSH1 0x0 SWAP1 DUP2 MSTORE PUSH1 0x15 PUSH1 0x20 MSTORE PUSH1 0x40 DUP2 KECCAK256 SLOAD SWAP2 SWAP3 POP SWAP1 PUSH1 0x64 SWAP1 MOD PUSH1 0x1 ADD SWAP1 POP PUSH1 0x0 DUP4 PUSH1 0x20 ADD MLOAD DUP5 PUSH1 0x40 ADD MLOAD DUP4 ADD ADD SWAP1 POP PUSH2 0x2A58 DUP12 PUSH2 0x423D JUMP JUMPDEST PUSH1 0x0 PUSH2 0x2A63 DUP12 PUSH2 0x39A4 JUMP JUMPDEST SWAP1 POP PUSH2 0x2A6F DUP2 CALLER PUSH2 0x3D00 JUMP JUMPDEST DUP2 DUP5 GT PUSH2 0x2AFB JUMPI PUSH1 0x2 PUSH1 0x14 DUP6 DIV MUL PUSH2 0x2A87 DUP14 DUP3 PUSH2 0x428B JUMP JUMPDEST PUSH1 0x0 PUSH2 0x2A92 DUP14 PUSH2 0x2240 JUMP JUMPDEST SWAP1 POP PUSH2 0x2A9E DUP2 CALLER PUSH2 0x3D80 JUMP JUMPDEST PUSH1 0x40 DUP1 MLOAD PUSH1 0x1 DUP2 MSTORE PUSH1 0x20 DUP2 ADD DUP7 SWAP1 MSTORE DUP1 DUP3 ADD DUP9 SWAP1 MSTORE PUSH1 0x60 DUP2 ADD DUP5 SWAP1 MSTORE PUSH1 0x80 DUP2 ADD DUP8 SWAP1 MSTORE PUSH1 0xA0 DUP2 ADD DUP4 SWAP1 MSTORE SWAP1 MLOAD PUSH32 0xC1C89F12581EF4543F5451C1F84FF0ED0BFB24E4A0AE8F507DD335E411D5D05F SWAP2 DUP2 SWAP1 SUB PUSH1 0xC0 ADD SWAP1 LOG1 POP POP PUSH2 0x2B66 JUMP JUMPDEST PUSH1 0x2 PUSH1 0xA DUP6 DIV MUL PUSH2 0x2B0C DUP14 DUP3 PUSH2 0x428B JUMP JUMPDEST PUSH1 0x40 DUP1 MLOAD PUSH1 0x0 DUP1 DUP3 MSTORE PUSH1 0x20 DUP3 ADD DUP7 SWAP1 MSTORE DUP2 DUP4 ADD DUP9 SWAP1 MSTORE PUSH1 0x60 DUP3 ADD DUP5 SWAP1 MSTORE PUSH1 0x80 DUP3 ADD DUP8 SWAP1 MSTORE DUP5 SWAP1 SUB PUSH1 0xA0 DUP3 ADD MSTORE SWAP1 MLOAD PUSH32 0xC1C89F12581EF4543F5451C1F84FF0ED0BFB24E4A0AE8F507DD335E411D5D05F SWAP2 DUP2 SWAP1 SUB PUSH1 0xC0 ADD SWAP1 LOG1 POP JUMPDEST POP POP POP POP POP POP POP POP POP POP POP POP JUMP JUMPDEST PUSH1 0xC SLOAD PUSH1 0x40 DUP1 MLOAD PUSH4 0x3DB1CDBF PUSH1 0xE2 SHL DUP2 MSTORE CALLER PUSH1 0x4 DUP3 ADD DUP2 SWAP1 MSTORE SWAP2 MLOAD SWAP2 SWAP3 DUP6 SWAP3 DUP4 SWAP3 PUSH1 0x1 PUSH1 0x1 PUSH1 0xA0 SHL SUB SWAP1 SWAP3 AND SWAP2 PUSH4 0xF6C736FC SWAP2 PUSH1 0x24 DUP1 DUP4 ADD SWAP3 PUSH1 0x20 SWAP3 SWAP2 SWAP1 DUP3 SWAP1 SUB ADD DUP2 DUP7 DUP1 EXTCODESIZE ISZERO DUP1 ISZERO PUSH2 0x2BC6 JUMPI PUSH1 0x0 DUP1 REVERT JUMPDEST POP GAS STATICCALL ISZERO DUP1 ISZERO PUSH2 0x2BDA JUMPI RETURNDATASIZE PUSH1 0x0 DUP1 RETURNDATACOPY RETURNDATASIZE PUSH1 0x0 REVERT JUMPDEST POP POP POP POP PUSH1 0x40 MLOAD RETURNDATASIZE PUSH1 0x20 DUP2 LT ISZERO PUSH2 0x2BF0 JUMPI PUSH1 0x0 DUP1 REVERT JUMPDEST POP MLOAD LT ISZERO PUSH2 0x2C36 JUMPI PUSH1 0x40 DUP1 MLOAD PUSH3 0x461BCD PUSH1 0xE5 SHL DUP2 MSTORE PUSH1 0x20 PUSH1 0x4 DUP3 ADD MSTORE PUSH1 0xE PUSH1 0x24 DUP3 ADD MSTORE PUSH14 0x4E6F7420656E6F75676820554A47 PUSH1 0x90 SHL PUSH1 0x44 DUP3 ADD MSTORE SWAP1 MLOAD SWAP1 DUP2 SWAP1 SUB PUSH1 0x64 ADD SWAP1 REVERT JUMPDEST PUSH8 0xDE0B6B3A7640000 DUP5 DUP5 MUL DIV PUSH2 0x2C4D DUP6 CALLER PUSH2 0x3D00 JUMP JUMPDEST PUSH1 0x40 MLOAD CALLER SWAP1 DUP3 ISZERO PUSH2 0x8FC MUL SWAP1 DUP4 SWAP1 PUSH1 0x0 DUP2 DUP2 DUP2 DUP6 DUP9 DUP9 CALL SWAP4 POP POP POP POP ISZERO DUP1 ISZERO PUSH2 0x2C7A JUMPI RETURNDATASIZE PUSH1 0x0 DUP1 RETURNDATACOPY RETURNDATASIZE PUSH1 0x0 REVERT JUMPDEST POP PUSH1 0x1C DUP1 SLOAD DUP3 SWAP1 SUB SWAP1 SSTORE PUSH1 0xD DUP1 SLOAD DUP7 ADD SWAP1 SSTORE PUSH1 0x40 DUP1 MLOAD ADDRESS DUP2 MSTORE CALLER PUSH1 0x20 DUP3 ADD MSTORE DUP1 DUP3 ADD DUP8 SWAP1 MSTORE PUSH8 0xDE0B6B3A7640000 DUP7 DUP9 MUL DIV PUSH1 0x60 DUP3 ADD MSTORE SWAP1 MLOAD PUSH32 0x14E1D5B6FD685ABD8451960A2579C435BA7A639EC0A19FA1941E72A9F6652285 SWAP2 DUP2 SWAP1 SUB PUSH1 0x80 ADD SWAP1 LOG1 POP POP POP POP POP JUMP JUMPDEST CALLER DUP1 PUSH2 0x2CEE PUSH2 0x1B6A JUMP JUMPDEST PUSH1 0x1 PUSH1 0x1 PUSH1 0xA0 SHL SUB AND EQ PUSH2 0x2D33 JUMPI PUSH1 0x40 MLOAD PUSH3 0x461BCD PUSH1 0xE5 SHL DUP2 MSTORE PUSH1 0x4 ADD DUP1 DUP1 PUSH1 0x20 ADD DUP3 DUP2 SUB DUP3 MSTORE PUSH1 0x28 DUP2 MSTORE PUSH1 0x20 ADD DUP1 PUSH2 0x53D0 PUSH1 0x28 SWAP2 CODECOPY PUSH1 0x40 ADD SWAP2 POP POP PUSH1 0x40 MLOAD DUP1 SWAP2 SUB SWAP1 REVERT JUMPDEST POP PUSH1 0xE DUP1 SLOAD PUSH4 0xFFFFFFFF NOT AND PUSH4 0xFFFFFFFF SWAP3 SWAP1 SWAP3 AND SWAP2 SWAP1 SWAP2 OR SWAP1 SSTORE JUMP JUMPDEST PUSH1 0x0 DUP1 PUSH1 0x0 PUSH1 0x60 PUSH1 0x0 DUP1 PUSH1 0x0 PUSH1 0x11 DUP9 DUP2 SLOAD DUP2 LT PUSH2 0x2D69 JUMPI INVALID JUMPDEST SWAP1 PUSH1 0x0 MSTORE PUSH1 0x20 PUSH1 0x0 KECCAK256 SWAP1 PUSH1 0x7 MUL ADD PUSH1 0x0 ADD SLOAD PUSH1 0x11 DUP10 DUP2 SLOAD DUP2 LT PUSH2 0x2D88 JUMPI INVALID JUMPDEST SWAP1 PUSH1 0x0 MSTORE PUSH1 0x20 PUSH1 0x0 KECCAK256 SWAP1 PUSH1 0x7 MUL ADD PUSH1 0x1 ADD SLOAD PUSH1 0x11 DUP11 DUP2 SLOAD DUP2 LT PUSH2 0x2DA7 JUMPI INVALID JUMPDEST SWAP1 PUSH1 0x0 MSTORE PUSH1 0x20 PUSH1 0x0 KECCAK256 SWAP1 PUSH1 0x7 MUL ADD PUSH1 0x2 ADD SLOAD PUSH1 0x11 DUP12 DUP2 SLOAD DUP2 LT PUSH2 0x2DC6 JUMPI INVALID JUMPDEST SWAP1 PUSH1 0x0 MSTORE PUSH1 0x20 PUSH1 0x0 KECCAK256 SWAP1 PUSH1 0x7 MUL ADD PUSH1 0x3 ADD PUSH1 0x11 DUP13 DUP2 SLOAD DUP2 LT PUSH2 0x2DE4 JUMPI INVALID JUMPDEST SWAP1 PUSH1 0x0 MSTORE PUSH1 0x20 PUSH1 0x0 KECCAK256 SWAP1 PUSH1 0x7 MUL ADD PUSH1 0x4 ADD PUSH1 0x0 SWAP1 SLOAD SWAP1 PUSH2 0x100 EXP SWAP1 DIV PUSH4 0xFFFFFFFF AND PUSH1 0x11 DUP14 DUP2 SLOAD DUP2 LT PUSH2 0x2E13 JUMPI INVALID JUMPDEST SWAP1 PUSH1 0x0 MSTORE PUSH1 0x20 PUSH1 0x0 KECCAK256 SWAP1 PUSH1 0x7 MUL ADD PUSH1 0x5 ADD SLOAD PUSH1 0x11 DUP15 DUP2 SLOAD DUP2 LT PUSH2 0x2E32 JUMPI INVALID JUMPDEST PUSH1 0x0 SWAP2 DUP3 MSTORE PUSH1 0x20 SWAP2 DUP3 SWAP1 KECCAK256 PUSH1 0x6 PUSH1 0x7 SWAP1 SWAP3 MUL ADD ADD SLOAD DUP5 SLOAD PUSH1 0x40 DUP1 MLOAD PUSH1 0x1F PUSH1 0x2 PUSH1 0x0 NOT PUSH1 0x1 DUP7 AND ISZERO PUSH2 0x100 MUL ADD SWAP1 SWAP5 AND SWAP4 SWAP1 SWAP4 DIV SWAP3 DUP4 ADD DUP6 SWAP1 DIV DUP6 MUL DUP2 ADD DUP6 ADD SWAP1 SWAP2 MSTORE DUP2 DUP2 MSTORE PUSH1 0xFF SWAP1 SWAP3 AND SWAP3 DUP7 SWAP2 SWAP1 DUP4 ADD DUP3 DUP3 DUP1 ISZERO PUSH2 0x2ED1 JUMPI DUP1 PUSH1 0x1F LT PUSH2 0x2EA6 JUMPI PUSH2 0x100 DUP1 DUP4 SLOAD DIV MUL DUP4 MSTORE SWAP2 PUSH1 0x20 ADD SWAP2 PUSH2 0x2ED1 JUMP JUMPDEST DUP3 ADD SWAP2 SWAP1 PUSH1 0x0 MSTORE PUSH1 0x20 PUSH1 0x0 KECCAK256 SWAP1 JUMPDEST DUP2 SLOAD DUP2 MSTORE SWAP1 PUSH1 0x1 ADD SWAP1 PUSH1 0x20 ADD DUP1 DUP4 GT PUSH2 0x2EB4 JUMPI DUP3 SWAP1 SUB PUSH1 0x1F AND DUP3 ADD SWAP2 JUMPDEST POP POP POP POP POP SWAP4 POP SWAP7 POP SWAP7 POP SWAP7 POP SWAP7 POP SWAP7 POP SWAP7 POP SWAP7 POP SWAP2 SWAP4 SWAP6 SWAP8 SWAP1 SWAP3 SWAP5 SWAP7 POP JUMP JUMPDEST CALLER DUP1 PUSH2 0x2EFB PUSH2 0x1B6A JUMP JUMPDEST PUSH1 0x1 PUSH1 0x1 PUSH1 0xA0 SHL SUB AND EQ PUSH2 0x2F40 JUMPI PUSH1 0x40 MLOAD PUSH3 0x461BCD PUSH1 0xE5 SHL DUP2 MSTORE PUSH1 0x4 ADD DUP1 DUP1 PUSH1 0x20 ADD DUP3 DUP2 SUB DUP3 MSTORE PUSH1 0x28 DUP2 MSTORE PUSH1 0x20 ADD DUP1 PUSH2 0x53D0 PUSH1 0x28 SWAP2 CODECOPY PUSH1 0x40 ADD SWAP2 POP POP PUSH1 0x40 MLOAD DUP1 SWAP2 SUB SWAP1 REVERT JUMPDEST PUSH1 0x40 MLOAD PUSH1 0x1 PUSH1 0x1 PUSH1 0xA0 SHL SUB DUP4 AND SWAP1 DUP5 ISZERO PUSH2 0x8FC MUL SWAP1 DUP6 SWAP1 PUSH1 0x0 DUP2 DUP2 DUP2 DUP6 DUP9 DUP9 CALL SWAP4 POP POP POP POP ISZERO DUP1 ISZERO PUSH2 0x2F76 JUMPI RETURNDATASIZE PUSH1 0x0 DUP1 RETURNDATACOPY RETURNDATASIZE PUSH1 0x0 REVERT JUMPDEST POP PUSH1 0x1C DUP1 SLOAD DUP5 DUP2 SUB SWAP2 DUP3 SWAP1 SSTORE PUSH1 0x40 DUP1 MLOAD DUP3 DUP2 MSTORE PUSH1 0x20 DUP2 ADD SWAP4 SWAP1 SWAP4 MSTORE PUSH1 0x60 DUP4 DUP3 ADD DUP2 SWAP1 MSTORE PUSH1 0x1 SWAP1 DUP5 ADD MSTORE PUSH1 0x2D PUSH1 0xF8 SHL PUSH1 0x80 DUP5 ADD MSTORE MLOAD SWAP1 SWAP2 PUSH1 0x0 DUP1 MLOAD PUSH1 0x20 PUSH2 0x566D DUP4 CODECOPY DUP2 MLOAD SWAP2 MSTORE SWAP2 SWAP1 DUP2 SWAP1 SUB PUSH1 0xA0 ADD SWAP1 LOG1 POP POP POP POP JUMP JUMPDEST CALLER DUP1 PUSH2 0x2FD5 PUSH2 0x1B6A JUMP JUMPDEST PUSH1 0x1 PUSH1 0x1 PUSH1 0xA0 SHL SUB AND EQ PUSH2 0x301A JUMPI PUSH1 0x40 MLOAD PUSH3 0x461BCD PUSH1 0xE5 SHL DUP2 MSTORE PUSH1 0x4 ADD DUP1 DUP1 PUSH1 0x20 ADD DUP3 DUP2 SUB DUP3 MSTORE PUSH1 0x28 DUP2 MSTORE PUSH1 0x20 ADD DUP1 PUSH2 0x53D0 PUSH1 0x28 SWAP2 CODECOPY PUSH1 0x40 ADD SWAP2 POP POP PUSH1 0x40 MLOAD DUP1 SWAP2 SUB SWAP1 REVERT JUMPDEST POP PUSH1 0x1E SSTORE JUMP JUMPDEST PUSH1 0x1D SLOAD SWAP1 JUMP JUMPDEST PUSH1 0xE SLOAD PUSH4 0xFFFFFFFF AND SWAP1 JUMP JUMPDEST CALLER PUSH1 0x1 PUSH1 0x1 PUSH1 0xA0 SHL SUB PUSH32 0x0 AND EQ PUSH2 0x30AF JUMPI PUSH1 0x40 DUP1 MLOAD PUSH3 0x461BCD PUSH1 0xE5 SHL DUP2 MSTORE PUSH1 0x20 PUSH1 0x4 DUP3 ADD MSTORE PUSH1 0x1F PUSH1 0x24 DUP3 ADD MSTORE PUSH32 0x4F6E6C7920565246436F6F7264696E61746F722063616E2066756C66696C6C00 PUSH1 0x44 DUP3 ADD MSTORE SWAP1 MLOAD SWAP1 DUP2 SWAP1 SUB PUSH1 0x64 ADD SWAP1 REVERT JUMPDEST PUSH2 0x30B9 DUP3 DUP3 PUSH2 0x4311 JUMP JUMPDEST POP POP JUMP JUMPDEST PUSH1 0x8 DUP1 SLOAD PUSH1 0x40 DUP1 MLOAD PUSH1 0x20 PUSH1 0x1F PUSH1 0x2 PUSH1 0x0 NOT PUSH2 0x100 PUSH1 0x1 DUP9 AND ISZERO MUL ADD SWAP1 SWAP6 AND SWAP5 SWAP1 SWAP5 DIV SWAP4 DUP5 ADD DUP2 SWAP1 DIV DUP2 MUL DUP3 ADD DUP2 ADD SWAP1 SWAP3 MSTORE DUP3 DUP2 MSTORE PUSH1 0x60 SWAP4 SWAP1 SWAP3 SWAP1 SWAP2 DUP4 ADD DUP3 DUP3 DUP1 ISZERO PUSH2 0x1A23 JUMPI DUP1 PUSH1 0x1F LT PUSH2 0x19F8 JUMPI PUSH2 0x100 DUP1 DUP4 SLOAD DIV MUL DUP4 MSTORE SWAP2 PUSH1 0x20 ADD SWAP2 PUSH2 0x1A23 JUMP JUMPDEST PUSH1 0xC SLOAD PUSH1 0x40 DUP1 MLOAD PUSH4 0x3DB1CDBF PUSH1 0xE2 SHL DUP2 MSTORE CALLER PUSH1 0x4 DUP3 ADD DUP2 SWAP1 MSTORE SWAP2 MLOAD SWAP2 SWAP3 DUP5 SWAP3 DUP4 SWAP3 PUSH1 0x1 PUSH1 0x1 PUSH1 0xA0 SHL SUB SWAP1 SWAP3 AND SWAP2 PUSH4 0xF6C736FC SWAP2 PUSH1 0x24 DUP1 DUP4 ADD SWAP3 PUSH1 0x20 SWAP3 SWAP2 SWAP1 DUP3 SWAP1 SUB ADD DUP2 DUP7 DUP1 EXTCODESIZE ISZERO DUP1 ISZERO PUSH2 0x3170 JUMPI PUSH1 0x0 DUP1 REVERT JUMPDEST POP GAS STATICCALL ISZERO DUP1 ISZERO PUSH2 0x3184 JUMPI RETURNDATASIZE PUSH1 0x0 DUP1 RETURNDATACOPY RETURNDATASIZE PUSH1 0x0 REVERT JUMPDEST POP POP POP POP PUSH1 0x40 MLOAD RETURNDATASIZE PUSH1 0x20 DUP2 LT ISZERO PUSH2 0x319A JUMPI PUSH1 0x0 DUP1 REVERT JUMPDEST POP MLOAD LT ISZERO PUSH2 0x31E0 JUMPI PUSH1 0x40 DUP1 MLOAD PUSH3 0x461BCD PUSH1 0xE5 SHL DUP2 MSTORE PUSH1 0x20 PUSH1 0x4 DUP3 ADD MSTORE PUSH1 0xE PUSH1 0x24 DUP3 ADD MSTORE PUSH14 0x4E6F7420656E6F75676820554A47 PUSH1 0x90 SHL PUSH1 0x44 DUP3 ADD MSTORE SWAP1 MLOAD SWAP1 DUP2 SWAP1 SUB PUSH1 0x64 ADD SWAP1 REVERT JUMPDEST PUSH1 0xC SLOAD PUSH1 0x40 DUP1 MLOAD PUSH4 0x3844B707 PUSH1 0xE0 SHL DUP2 MSTORE CALLER PUSH1 0x4 DUP3 ADD MSTORE PUSH1 0x1 PUSH1 0x1 PUSH1 0xA0 SHL SUB DUP8 DUP2 AND PUSH1 0x24 DUP4 ADD MSTORE PUSH1 0x44 DUP3 ADD DUP8 SWAP1 MSTORE SWAP2 MLOAD SWAP2 SWAP1 SWAP3 AND SWAP2 PUSH4 0x3844B707 SWAP2 PUSH1 0x64 DUP1 DUP4 ADD SWAP3 PUSH1 0x0 SWAP3 SWAP2 SWAP1 DUP3 SWAP1 SUB ADD DUP2 DUP4 DUP8 DUP1 EXTCODESIZE ISZERO DUP1 ISZERO PUSH2 0x323B JUMPI PUSH1 0x0 DUP1 REVERT JUMPDEST POP GAS CALL ISZERO DUP1 ISZERO PUSH2 0x324F JUMPI RETURNDATASIZE PUSH1 0x0 DUP1 RETURNDATACOPY RETURNDATASIZE PUSH1 0x0 REVERT JUMPDEST POP POP PUSH1 0x40 DUP1 MLOAD CALLER DUP2 MSTORE PUSH1 0x1 PUSH1 0x1 PUSH1 0xA0 SHL SUB DUP9 AND PUSH1 0x20 DUP3 ADD MSTORE DUP1 DUP3 ADD DUP8 SWAP1 MSTORE PUSH1 0x0 PUSH1 0x60 DUP3 ADD MSTORE SWAP1 MLOAD PUSH32 0x14E1D5B6FD685ABD8451960A2579C435BA7A639EC0A19FA1941E72A9F6652285 SWAP4 POP SWAP1 DUP2 SWAP1 SUB PUSH1 0x80 ADD SWAP2 POP LOG1 POP POP POP POP JUMP JUMPDEST CALLER DUP1 PUSH2 0x32B3 PUSH2 0x1B6A JUMP JUMPDEST PUSH1 0x1 PUSH1 0x1 PUSH1 0xA0 SHL SUB AND EQ PUSH2 0x32F8 JUMPI PUSH1 0x40 MLOAD PUSH3 0x461BCD PUSH1 0xE5 SHL DUP2 MSTORE PUSH1 0x4 ADD DUP1 DUP1 PUSH1 0x20 ADD DUP3 DUP2 SUB DUP3 MSTORE PUSH1 0x28 DUP2 MSTORE PUSH1 0x20 ADD DUP1 PUSH2 0x53D0 PUSH1 0x28 SWAP2 CODECOPY PUSH1 0x40 ADD SWAP2 POP POP PUSH1 0x40 MLOAD DUP1 SWAP2 SUB SWAP1 REVERT JUMPDEST PUSH1 0x0 CALLVALUE GT PUSH2 0x3305 JUMPI PUSH1 0x0 DUP1 REVERT JUMPDEST PUSH1 0x1C DUP1 SLOAD CALLVALUE DUP2 ADD SWAP2 DUP3 SWAP1 SSTORE PUSH1 0x40 DUP1 MLOAD DUP3 DUP2 MSTORE PUSH1 0x20 DUP2 ADD SWAP4 SWAP1 SWAP4 MSTORE PUSH1 0x60 DUP4 DUP3 ADD DUP2 SWAP1 MSTORE PUSH1 0x1 SWAP1 DUP5 ADD MSTORE PUSH1 0x2B PUSH1 0xF8 SHL PUSH1 0x80 DUP5 ADD MSTORE MLOAD SWAP1 SWAP2 PUSH1 0x0 DUP1 MLOAD PUSH1 0x20 PUSH2 0x566D DUP4 CODECOPY DUP2 MLOAD SWAP2 MSTORE SWAP2 SWAP1 DUP2 SWAP1 SUB PUSH1 0xA0 ADD SWAP1 LOG1 POP POP JUMP JUMPDEST CALLER DUP1 PUSH2 0x3361 PUSH2 0x1B6A JUMP JUMPDEST PUSH1 0x1 PUSH1 0x1 PUSH1 0xA0 SHL SUB AND EQ PUSH2 0x33A6 JUMPI PUSH1 0x40 MLOAD PUSH3 0x461BCD PUSH1 0xE5 SHL DUP2 MSTORE PUSH1 0x4 ADD DUP1 DUP1 PUSH1 0x20 ADD DUP3 DUP2 SUB DUP3 MSTORE PUSH1 0x28 DUP2 MSTORE PUSH1 0x20 ADD DUP1 PUSH2 0x53D0 PUSH1 0x28 SWAP2 CODECOPY PUSH1 0x40 ADD SWAP2 POP POP PUSH1 0x40 MLOAD DUP1 SWAP2 SUB SWAP1 REVERT JUMPDEST POP PUSH1 0x19 SSTORE JUMP JUMPDEST PUSH2 0x33B4 PUSH2 0x3E0E JUMP JUMPDEST PUSH1 0x1 PUSH1 0x1 PUSH1 0xA0 SHL SUB AND DUP3 PUSH1 0x1 PUSH1 0x1 PUSH1 0xA0 SHL SUB AND EQ ISZERO PUSH2 0x341A JUMPI PUSH1 0x40 DUP1 MLOAD PUSH3 0x461BCD PUSH1 0xE5 SHL DUP2 MSTORE PUSH1 0x20 PUSH1 0x4 DUP3 ADD MSTORE PUSH1 0x19 PUSH1 0x24 DUP3 ADD MSTORE PUSH32 0x4552433732313A20617070726F766520746F2063616C6C657200000000000000 PUSH1 0x44 DUP3 ADD MSTORE SWAP1 MLOAD SWAP1 DUP2 SWAP1 SUB PUSH1 0x64 ADD SWAP1 REVERT JUMPDEST DUP1 PUSH1 0x6 PUSH1 0x0 PUSH2 0x3427 PUSH2 0x3E0E JUMP JUMPDEST PUSH1 0x1 PUSH1 0x1 PUSH1 0xA0 SHL SUB SWAP1 DUP2 AND DUP3 MSTORE PUSH1 0x20 DUP1 DUP4 ADD SWAP4 SWAP1 SWAP4 MSTORE PUSH1 0x40 SWAP2 DUP3 ADD PUSH1 0x0 SWAP1 DUP2 KECCAK256 SWAP2 DUP8 AND DUP1 DUP3 MSTORE SWAP2 SWAP1 SWAP4 MSTORE SWAP2 KECCAK256 DUP1 SLOAD PUSH1 0xFF NOT AND SWAP3 ISZERO ISZERO SWAP3 SWAP1 SWAP3 OR SWAP1 SWAP2 SSTORE PUSH2 0x346B PUSH2 0x3E0E JUMP JUMPDEST PUSH1 0x1 PUSH1 0x1 PUSH1 0xA0 SHL SUB AND PUSH32 0x17307EAB39AB6107E8899845AD3D59BD9653F200F220920489CA2B5937696C31 DUP4 PUSH1 0x40 MLOAD DUP1 DUP3 ISZERO ISZERO DUP2 MSTORE PUSH1 0x20 ADD SWAP2 POP POP PUSH1 0x40 MLOAD DUP1 SWAP2 SUB SWAP1 LOG3 POP POP JUMP JUMPDEST PUSH1 0xC SLOAD PUSH1 0x40 DUP1 MLOAD PUSH4 0x3DB1CDBF PUSH1 0xE2 SHL DUP2 MSTORE PUSH1 0x1 PUSH1 0x1 PUSH1 0xA0 SHL SUB DUP5 DUP2 AND PUSH1 0x4 DUP4 ADD MSTORE SWAP2 MLOAD PUSH1 0x0 SWAP4 SWAP3 SWAP1 SWAP3 AND SWAP2 PUSH4 0xF6C736FC SWAP2 PUSH1 0x24 DUP1 DUP3 ADD SWAP3 PUSH1 0x20 SWAP3 SWAP1 SWAP2 SWAP1 DUP3 SWAP1 SUB ADD DUP2 DUP7 DUP1 EXTCODESIZE ISZERO DUP1 ISZERO PUSH2 0x3502 JUMPI PUSH1 0x0 DUP1 REVERT JUMPDEST POP GAS STATICCALL ISZERO DUP1 ISZERO PUSH2 0x3516 JUMPI RETURNDATASIZE PUSH1 0x0 DUP1 RETURNDATACOPY RETURNDATASIZE PUSH1 0x0 REVERT JUMPDEST POP POP POP POP PUSH1 0x40 MLOAD RETURNDATASIZE PUSH1 0x20 DUP2 LT ISZERO PUSH2 0x352C JUMPI PUSH1 0x0 DUP1 REVERT JUMPDEST POP MLOAD SWAP3 SWAP2 POP POP JUMP JUMPDEST PUSH2 0x3545 PUSH2 0x353F PUSH2 0x3E0E JUMP JUMPDEST DUP4 PUSH2 0x3EE8 JUMP JUMPDEST PUSH2 0x3580 JUMPI PUSH1 0x40 MLOAD PUSH3 0x461BCD PUSH1 0xE5 SHL DUP2 MSTORE PUSH1 0x4 ADD DUP1 DUP1 PUSH1 0x20 ADD DUP3 DUP2 SUB DUP3 MSTORE PUSH1 0x31 DUP2 MSTORE PUSH1 0x20 ADD DUP1 PUSH2 0x563C PUSH1 0x31 SWAP2 CODECOPY PUSH1 0x40 ADD SWAP2 POP POP PUSH1 0x40 MLOAD DUP1 SWAP2 SUB SWAP1 REVERT JUMPDEST PUSH2 0x358C DUP5 DUP5 DUP5 DUP5 PUSH2 0x4339 JUMP JUMPDEST POP POP POP POP JUMP JUMPDEST DUP1 PUSH1 0x13 PUSH1 0x0 PUSH1 0x11 DUP4 DUP2 SLOAD DUP2 LT PUSH2 0x35A4 JUMPI INVALID JUMPDEST PUSH1 0x0 SWAP2 DUP3 MSTORE PUSH1 0x20 DUP1 DUP4 KECCAK256 PUSH1 0x7 SWAP3 SWAP1 SWAP3 MUL SWAP1 SWAP2 ADD PUSH1 0x5 ADD SLOAD DUP4 MSTORE DUP3 ADD SWAP3 SWAP1 SWAP3 MSTORE PUSH1 0x40 ADD SWAP1 KECCAK256 SLOAD PUSH1 0x1 PUSH1 0x1 PUSH1 0xA0 SHL SUB AND CALLER EQ PUSH2 0x361E JUMPI PUSH1 0x40 DUP1 MLOAD PUSH3 0x461BCD PUSH1 0xE5 SHL DUP2 MSTORE PUSH1 0x20 PUSH1 0x4 DUP3 ADD MSTORE PUSH1 0x16 PUSH1 0x24 DUP3 ADD MSTORE PUSH22 0x2A9030B932B713BA103A34329037333A1027BBB732B9 PUSH1 0x51 SHL PUSH1 0x44 DUP3 ADD MSTORE SWAP1 MLOAD SWAP1 DUP2 SWAP1 SUB PUSH1 0x64 ADD SWAP1 REVERT JUMPDEST DUP2 PUSH1 0x11 DUP2 DUP2 SLOAD DUP2 LT PUSH2 0x362C JUMPI INVALID JUMPDEST PUSH1 0x0 SWAP2 DUP3 MSTORE PUSH1 0x20 SWAP1 SWAP2 KECCAK256 PUSH1 0x6 PUSH1 0x7 SWAP1 SWAP3 MUL ADD ADD SLOAD PUSH1 0xFF AND ISZERO PUSH2 0x3691 JUMPI PUSH1 0x40 DUP1 MLOAD PUSH3 0x461BCD PUSH1 0xE5 SHL DUP2 MSTORE PUSH1 0x20 PUSH1 0x4 DUP3 ADD MSTORE PUSH1 0x19 PUSH1 0x24 DUP3 ADD MSTORE PUSH25 0x151A194814DD1D59195B9D08185C99481A5B881B585C9AD95D PUSH1 0x3A SHL PUSH1 0x44 DUP3 ADD MSTORE SWAP1 MLOAD SWAP1 DUP2 SWAP1 SUB PUSH1 0x64 ADD SWAP1 REVERT JUMPDEST PUSH1 0x0 PUSH1 0x11 DUP5 DUP2 SLOAD DUP2 LT PUSH2 0x36A0 JUMPI INVALID JUMPDEST SWAP1 PUSH1 0x0 MSTORE PUSH1 0x20 PUSH1 0x0 KECCAK256 SWAP1 PUSH1 0x7 MUL ADD PUSH1 0x5 ADD SLOAD SWAP1 POP PUSH2 0x36C0 PUSH1 0x1F SLOAD CALLER PUSH2 0x3D00 JUMP JUMPDEST PUSH2 0x36CB DUP7 DUP7 DUP4 PUSH2 0x3E8B JUMP JUMPDEST PUSH1 0x1F SLOAD PUSH1 0x40 DUP1 MLOAD PUSH1 0x1 PUSH1 0x1 PUSH1 0xA0 SHL SUB DUP1 DUP11 AND DUP3 MSTORE DUP9 AND PUSH1 0x20 DUP3 ADD MSTORE DUP1 DUP3 ADD DUP5 SWAP1 MSTORE PUSH1 0x60 DUP2 ADD SWAP3 SWAP1 SWAP3 MSTORE MLOAD PUSH1 0x0 DUP1 MLOAD PUSH1 0x20 PUSH2 0x561C DUP4 CODECOPY DUP2 MLOAD SWAP2 MSTORE SWAP2 DUP2 SWAP1 SUB PUSH1 0x80 ADD SWAP1 LOG1 POP POP POP POP POP POP JUMP JUMPDEST PUSH1 0x1E SLOAD SWAP1 JUMP JUMPDEST PUSH1 0x19 SLOAD SWAP1 JUMP JUMPDEST PUSH1 0x60 PUSH2 0x372C DUP3 PUSH2 0x3E01 JUMP JUMPDEST PUSH2 0x3767 JUMPI PUSH1 0x40 MLOAD PUSH3 0x461BCD PUSH1 0xE5 SHL DUP2 MSTORE PUSH1 0x4 ADD DUP1 DUP1 PUSH1 0x20 ADD DUP3 DUP2 SUB DUP3 MSTORE PUSH1 0x2F DUP2 MSTORE PUSH1 0x20 ADD DUP1 PUSH2 0x55CC PUSH1 0x2F SWAP2 CODECOPY PUSH1 0x40 ADD SWAP2 POP POP PUSH1 0x40 MLOAD DUP1 SWAP2 SUB SWAP1 REVERT JUMPDEST PUSH1 0x0 DUP3 DUP2 MSTORE PUSH1 0x9 PUSH1 0x20 SWAP1 DUP2 MSTORE PUSH1 0x40 SWAP2 DUP3 SWAP1 KECCAK256 DUP1 SLOAD DUP4 MLOAD PUSH1 0x1F PUSH1 0x2 PUSH1 0x0 NOT PUSH2 0x100 PUSH1 0x1 DUP7 AND ISZERO MUL ADD SWAP1 SWAP4 AND SWAP3 SWAP1 SWAP3 DIV SWAP2 DUP3 ADD DUP5 SWAP1 DIV DUP5 MUL DUP2 ADD DUP5 ADD SWAP1 SWAP5 MSTORE DUP1 DUP5 MSTORE PUSH1 0x60 SWAP4 SWAP3 DUP4 ADD DUP3 DUP3 DUP1 ISZERO PUSH2 0x37FC JUMPI DUP1 PUSH1 0x1F LT PUSH2 0x37D1 JUMPI PUSH2 0x100 DUP1 DUP4 SLOAD DIV MUL DUP4 MSTORE SWAP2 PUSH1 0x20 ADD SWAP2 PUSH2 0x37FC JUMP JUMPDEST DUP3 ADD SWAP2 SWAP1 PUSH1 0x0 MSTORE PUSH1 0x20 PUSH1 0x0 KECCAK256 SWAP1 JUMPDEST DUP2 SLOAD DUP2 MSTORE SWAP1 PUSH1 0x1 ADD SWAP1 PUSH1 0x20 ADD DUP1 DUP4 GT PUSH2 0x37DF JUMPI DUP3 SWAP1 SUB PUSH1 0x1F AND DUP3 ADD SWAP2 JUMPDEST POP POP POP POP POP SWAP1 POP PUSH1 0x60 PUSH2 0x380D PUSH2 0x2493 JUMP JUMPDEST SWAP1 POP DUP1 MLOAD PUSH1 0x0 EQ ISZERO PUSH2 0x3821 JUMPI POP SWAP1 POP PUSH2 0x1375 JUMP JUMPDEST DUP2 MLOAD ISZERO PUSH2 0x38E2 JUMPI DUP1 DUP3 PUSH1 0x40 MLOAD PUSH1 0x20 ADD DUP1 DUP4 DUP1 MLOAD SWAP1 PUSH1 0x20 ADD SWAP1 DUP1 DUP4 DUP4 JUMPDEST PUSH1 0x20 DUP4 LT PUSH2 0x385C JUMPI DUP1 MLOAD DUP3 MSTORE PUSH1 0x1F NOT SWAP1 SWAP3 ADD SWAP2 PUSH1 0x20 SWAP2 DUP3 ADD SWAP2 ADD PUSH2 0x383D JUMP JUMPDEST MLOAD DUP2 MLOAD PUSH1 0x20 SWAP4 DUP5 SUB PUSH2 0x100 EXP PUSH1 0x0 NOT ADD DUP1 NOT SWAP1 SWAP3 AND SWAP2 AND OR SWAP1 MSTORE DUP6 MLOAD SWAP2 SWAP1 SWAP4 ADD SWAP3 DUP6 ADD SWAP2 POP DUP1 DUP4 DUP4 JUMPDEST PUSH1 0x20 DUP4 LT PUSH2 0x38A4 JUMPI DUP1 MLOAD DUP3 MSTORE PUSH1 0x1F NOT SWAP1 SWAP3 ADD SWAP2 PUSH1 0x20 SWAP2 DUP3 ADD SWAP2 ADD PUSH2 0x3885 JUMP JUMPDEST PUSH1 0x1 DUP4 PUSH1 0x20 SUB PUSH2 0x100 EXP SUB DUP1 NOT DUP3 MLOAD AND DUP2 DUP5 MLOAD AND DUP1 DUP3 OR DUP6 MSTORE POP POP POP POP POP POP SWAP1 POP ADD SWAP3 POP POP POP PUSH1 0x40 MLOAD PUSH1 0x20 DUP2 DUP4 SUB SUB DUP2 MSTORE SWAP1 PUSH1 0x40 MSTORE SWAP3 POP POP POP PUSH2 0x1375 JUMP JUMPDEST DUP1 PUSH2 0x38EC DUP6 PUSH2 0x438B JUMP JUMPDEST PUSH1 0x40 MLOAD PUSH1 0x20 ADD DUP1 DUP4 DUP1 MLOAD SWAP1 PUSH1 0x20 ADD SWAP1 DUP1 DUP4 DUP4 JUMPDEST PUSH1 0x20 DUP4 LT PUSH2 0x391E JUMPI DUP1 MLOAD DUP3 MSTORE PUSH1 0x1F NOT SWAP1 SWAP3 ADD SWAP2 PUSH1 0x20 SWAP2 DUP3 ADD SWAP2 ADD PUSH2 0x38FF JUMP JUMPDEST MLOAD DUP2 MLOAD PUSH1 0x20 SWAP4 DUP5 SUB PUSH2 0x100 EXP PUSH1 0x0 NOT ADD DUP1 NOT SWAP1 SWAP3 AND SWAP2 AND OR SWAP1 MSTORE DUP6 MLOAD SWAP2 SWAP1 SWAP4 ADD SWAP3 DUP6 ADD SWAP2 POP DUP1 DUP4 DUP4 JUMPDEST PUSH1 0x20 DUP4 LT PUSH2 0x3966 JUMPI DUP1 MLOAD DUP3 MSTORE PUSH1 0x1F NOT SWAP1 SWAP3 ADD SWAP2 PUSH1 0x20 SWAP2 DUP3 ADD SWAP2 ADD PUSH2 0x3947 JUMP JUMPDEST PUSH1 0x1 DUP4 PUSH1 0x20 SUB PUSH2 0x100 EXP SUB DUP1 NOT DUP3 MLOAD AND DUP2 DUP5 MLOAD AND DUP1 DUP3 OR DUP6 MSTORE POP POP POP POP POP POP SWAP1 POP ADD SWAP3 POP POP POP PUSH1 0x40 MLOAD PUSH1 0x20 DUP2 DUP4 SUB SUB DUP2 MSTORE SWAP1 PUSH1 0x40 MSTORE SWAP3 POP POP POP SWAP2 SWAP1 POP JUMP JUMPDEST PUSH1 0x18 SLOAD MUL PUSH8 0x8AC7230489E80000 MUL SWAP1 JUMP JUMPDEST PUSH1 0x1C SLOAD SWAP1 JUMP JUMPDEST PUSH2 0x30B9 DUP3 DUP3 PUSH2 0x4466 JUMP JUMPDEST PUSH1 0x1 PUSH1 0x1 PUSH1 0xA0 SHL SUB SWAP2 DUP3 AND PUSH1 0x0 SWAP1 DUP2 MSTORE PUSH1 0x6 PUSH1 0x20 SWAP1 DUP2 MSTORE PUSH1 0x40 DUP1 DUP4 KECCAK256 SWAP4 SWAP1 SWAP5 AND DUP3 MSTORE SWAP2 SWAP1 SWAP2 MSTORE KECCAK256 SLOAD PUSH1 0xFF AND SWAP1 JUMP JUMPDEST PUSH1 0x0 DUP1 JUMPDEST PUSH1 0x1D SLOAD DUP2 LT ISZERO PUSH2 0x13D7 JUMPI PUSH1 0x1D DUP2 DUP2 SLOAD DUP2 LT PUSH2 0x3A0E JUMPI INVALID JUMPDEST SWAP1 PUSH1 0x0 MSTORE PUSH1 0x20 PUSH1 0x0 KECCAK256 SWAP1 PUSH1 0x3 MUL ADD PUSH1 0x0 ADD SLOAD DUP4 EQ ISZERO PUSH2 0x3A2E JUMPI SWAP1 POP PUSH2 0x1375 JUMP JUMPDEST PUSH1 0x1 ADD PUSH2 0x39F7 JUMP JUMPDEST CALLER DUP1 PUSH2 0x3A40 PUSH2 0x1B6A JUMP JUMPDEST PUSH1 0x1 PUSH1 0x1 PUSH1 0xA0 SHL SUB AND EQ PUSH2 0x3A85 JUMPI PUSH1 0x40 MLOAD PUSH3 0x461BCD PUSH1 0xE5 SHL DUP2 MSTORE PUSH1 0x4 ADD DUP1 DUP1 PUSH1 0x20 ADD DUP3 DUP2 SUB DUP3 MSTORE PUSH1 0x28 DUP2 MSTORE PUSH1 0x20 ADD DUP1 PUSH2 0x53D0 PUSH1 0x28 SWAP2 CODECOPY PUSH1 0x40 ADD SWAP2 POP POP PUSH1 0x40 MLOAD DUP1 SWAP2 SUB SWAP1 REVERT JUMPDEST POP PUSH1 0x18 SSTORE JUMP JUMPDEST CALLER DUP1 PUSH2 0x3A95 PUSH2 0x1B6A JUMP JUMPDEST PUSH1 0x1 PUSH1 0x1 PUSH1 0xA0 SHL SUB AND EQ PUSH2 0x3ADA JUMPI PUSH1 0x40 MLOAD PUSH3 0x461BCD PUSH1 0xE5 SHL DUP2 MSTORE PUSH1 0x4 ADD DUP1 DUP1 PUSH1 0x20 ADD DUP3 DUP2 SUB DUP3 MSTORE PUSH1 0x28 DUP2 MSTORE PUSH1 0x20 ADD DUP1 PUSH2 0x53D0 PUSH1 0x28 SWAP2 CODECOPY PUSH1 0x40 ADD SWAP2 POP POP PUSH1 0x40 MLOAD DUP1 SWAP2 SUB SWAP1 REVERT JUMPDEST POP PUSH1 0x1F SSTORE JUMP JUMPDEST PUSH1 0x40 DUP1 MLOAD SELFBALANCE DUP2 MSTORE SWAP1 MLOAD PUSH32 0x9EDA563474DCF999B0332C34DEDB9066A385693682EA01C43234FA4E95668A0E SWAP2 DUP2 SWAP1 SUB PUSH1 0x20 ADD SWAP1 LOG1 JUMP JUMPDEST PUSH1 0x16 SLOAD PUSH1 0xC SLOAD PUSH1 0x40 DUP1 MLOAD PUSH4 0x3DB1CDBF PUSH1 0xE2 SHL DUP2 MSTORE CALLER PUSH1 0x4 DUP3 ADD DUP2 SWAP1 MSTORE SWAP2 MLOAD SWAP2 SWAP4 SWAP3 DUP4 SWAP3 PUSH1 0x1 PUSH1 0x1 PUSH1 0xA0 SHL SUB SWAP1 SWAP2 AND SWAP2 PUSH4 0xF6C736FC SWAP2 PUSH1 0x24 DUP1 DUP4 ADD SWAP3 PUSH1 0x20 SWAP3 SWAP2 SWAP1 DUP3 SWAP1 SUB ADD DUP2 DUP7 DUP1 EXTCODESIZE ISZERO DUP1 ISZERO PUSH2 0x3B69 JUMPI PUSH1 0x0 DUP1 REVERT JUMPDEST POP GAS STATICCALL ISZERO DUP1 ISZERO PUSH2 0x3B7D JUMPI RETURNDATASIZE PUSH1 0x0 DUP1 RETURNDATACOPY RETURNDATASIZE PUSH1 0x0 REVERT JUMPDEST POP POP POP POP PUSH1 0x40 MLOAD RETURNDATASIZE PUSH1 0x20 DUP2 LT ISZERO PUSH2 0x3B93 JUMPI PUSH1 0x0 DUP1 REVERT JUMPDEST POP MLOAD LT ISZERO PUSH2 0x3BD9 JUMPI PUSH1 0x40 DUP1 MLOAD PUSH3 0x461BCD PUSH1 0xE5 SHL DUP2 MSTORE PUSH1 0x20 PUSH1 0x4 DUP3 ADD MSTORE PUSH1 0xE PUSH1 0x24 DUP3 ADD MSTORE PUSH14 0x4E6F7420656E6F75676820554A47 PUSH1 0x90 SHL PUSH1 0x44 DUP3 ADD MSTORE SWAP1 MLOAD SWAP1 DUP2 SWAP1 SUB PUSH1 0x64 ADD SWAP1 REVERT JUMPDEST PUSH2 0x3BE5 PUSH1 0x16 SLOAD CALLER PUSH2 0x3D00 JUMP JUMPDEST PUSH1 0xF SLOAD PUSH2 0x3BF0 PUSH2 0x5274 JUMP JUMPDEST PUSH2 0x3BF9 DUP3 PUSH2 0x44C9 JUMP JUMPDEST CALLER PUSH1 0x0 DUP2 DUP2 MSTORE PUSH1 0x12 PUSH1 0x20 SWAP1 DUP2 MSTORE PUSH1 0x40 DUP1 DUP4 KECCAK256 DUP1 SLOAD PUSH1 0x1 ADD SWAP1 SSTORE DUP7 DUP4 MSTORE PUSH1 0x13 SWAP1 SWAP2 MSTORE SWAP1 KECCAK256 DUP1 SLOAD PUSH1 0x1 PUSH1 0x1 PUSH1 0xA0 SHL SUB NOT AND DUP3 OR SWAP1 SSTORE SWAP1 SWAP2 POP PUSH2 0x3C39 SWAP1 DUP4 PUSH2 0x4736 JUMP JUMPDEST PUSH32 0x319EC0C4F5923A08E9D5FB646DDF9C5EE3D502E7A45118F7EA3BA28312BB55D7 DUP2 PUSH1 0x60 ADD MLOAD DUP3 PUSH1 0x0 ADD MLOAD DUP4 PUSH1 0x20 ADD MLOAD DUP5 PUSH1 0x40 ADD MLOAD PUSH1 0x40 MLOAD DUP1 DUP1 PUSH1 0x20 ADD DUP6 DUP2 MSTORE PUSH1 0x20 ADD DUP5 DUP2 MSTORE PUSH1 0x20 ADD DUP4 DUP2 MSTORE PUSH1 0x20 ADD DUP3 DUP2 SUB DUP3 MSTORE DUP7 DUP2 DUP2 MLOAD DUP2 MSTORE PUSH1 0x20 ADD SWAP2 POP DUP1 MLOAD SWAP1 PUSH1 0x20 ADD SWAP1 DUP1 DUP4 DUP4 PUSH1 0x0 JUMPDEST DUP4 DUP2 LT ISZERO PUSH2 0x3CBD JUMPI DUP2 DUP2 ADD MLOAD DUP4 DUP3 ADD MSTORE PUSH1 0x20 ADD PUSH2 0x3CA5 JUMP JUMPDEST POP POP POP POP SWAP1 POP SWAP1 DUP2 ADD SWAP1 PUSH1 0x1F AND DUP1 ISZERO PUSH2 0x3CEA JUMPI DUP1 DUP3 SUB DUP1 MLOAD PUSH1 0x1 DUP4 PUSH1 0x20 SUB PUSH2 0x100 EXP SUB NOT AND DUP2 MSTORE PUSH1 0x20 ADD SWAP2 POP JUMPDEST POP SWAP6 POP POP POP POP POP POP PUSH1 0x40 MLOAD DUP1 SWAP2 SUB SWAP1 LOG1 POP POP POP POP JUMP JUMPDEST PUSH1 0xC SLOAD PUSH1 0x40 DUP1 MLOAD PUSH4 0x3844B707 PUSH1 0xE0 SHL DUP2 MSTORE PUSH1 0x1 PUSH1 0x1 PUSH1 0xA0 SHL SUB DUP5 DUP2 AND PUSH1 0x4 DUP4 ADD MSTORE ADDRESS PUSH1 0x24 DUP4 ADD MSTORE PUSH1 0x44 DUP3 ADD DUP7 SWAP1 MSTORE SWAP2 MLOAD SWAP2 SWAP1 SWAP3 AND SWAP2 PUSH4 0x3844B707 SWAP2 PUSH1 0x64 DUP1 DUP4 ADD SWAP3 PUSH1 0x0 SWAP3 SWAP2 SWAP1 DUP3 SWAP1 SUB ADD DUP2 DUP4 DUP8 DUP1 EXTCODESIZE ISZERO DUP1 ISZERO PUSH2 0x3D5B JUMPI PUSH1 0x0 DUP1 REVERT JUMPDEST POP GAS CALL ISZERO DUP1 ISZERO PUSH2 0x3D6F JUMPI RETURNDATASIZE PUSH1 0x0 DUP1 RETURNDATACOPY RETURNDATASIZE PUSH1 0x0 REVERT JUMPDEST POP POP PUSH1 0xD DUP1 SLOAD SWAP1 SWAP5 ADD SWAP1 SWAP4 SSTORE POP POP POP JUMP JUMPDEST PUSH1 0xC SLOAD PUSH1 0x40 DUP1 MLOAD PUSH4 0x3844B707 PUSH1 0xE0 SHL DUP2 MSTORE ADDRESS PUSH1 0x4 DUP3 ADD MSTORE PUSH1 0x1 PUSH1 0x1 PUSH1 0xA0 SHL SUB DUP5 DUP2 AND PUSH1 0x24 DUP4 ADD MSTORE PUSH1 0x44 DUP3 ADD DUP7 SWAP1 MSTORE SWAP2 MLOAD SWAP2 SWAP1 SWAP3 AND SWAP2 PUSH4 0x3844B707 SWAP2 PUSH1 0x64 DUP1 DUP4 ADD SWAP3 PUSH1 0x0 SWAP3 SWAP2 SWAP1 DUP3 SWAP1 SUB ADD DUP2 DUP4 DUP8 DUP1 EXTCODESIZE ISZERO DUP1 ISZERO PUSH2 0x3DDB JUMPI PUSH1 0x0 DUP1 REVERT JUMPDEST POP GAS CALL ISZERO DUP1 ISZERO PUSH2 0x3DEF JUMPI RETURNDATASIZE PUSH1 0x0 DUP1 RETURNDATACOPY RETURNDATASIZE PUSH1 0x0 REVERT JUMPDEST POP POP PUSH1 0xD DUP1 SLOAD SWAP5 SWAP1 SWAP5 SUB SWAP1 SWAP4 SSTORE POP POP POP JUMP JUMPDEST PUSH1 0x0 PUSH2 0x223A PUSH1 0x3 DUP4 PUSH2 0x4750 JUMP JUMPDEST CALLER SWAP1 JUMP JUMPDEST PUSH1 0x0 DUP2 DUP2 MSTORE PUSH1 0x5 PUSH1 0x20 MSTORE PUSH1 0x40 SWAP1 KECCAK256 DUP1 SLOAD PUSH1 0x1 PUSH1 0x1 PUSH1 0xA0 SHL SUB NOT AND PUSH1 0x1 PUSH1 0x1 PUSH1 0xA0 SHL SUB DUP5 AND SWAP1 DUP2 OR SWAP1 SWAP2 SSTORE DUP2 SWAP1 PUSH2 0x3E47 DUP3 PUSH2 0x23F9 JUMP JUMPDEST PUSH1 0x1 PUSH1 0x1 PUSH1 0xA0 SHL SUB AND PUSH32 0x8C5BE1E5EBEC7D5BD14F71427D1E84F3DD0314C0F7B2291E5B200AC8C7C3B925 PUSH1 0x40 MLOAD PUSH1 0x40 MLOAD DUP1 SWAP2 SUB SWAP1 LOG4 POP POP JUMP JUMPDEST PUSH1 0x0 PUSH2 0x223A DUP3 PUSH2 0x475C JUMP JUMPDEST PUSH2 0x3E96 DUP4 DUP4 DUP4 PUSH2 0x3F8C JUMP JUMPDEST PUSH1 0x1 PUSH1 0x1 PUSH1 0xA0 SHL SUB SWAP3 DUP4 AND PUSH1 0x0 SWAP1 DUP2 MSTORE PUSH1 0x12 PUSH1 0x20 SWAP1 DUP2 MSTORE PUSH1 0x40 DUP1 DUP4 KECCAK256 DUP1 SLOAD PUSH1 0x0 NOT ADD SWAP1 SSTORE SWAP4 SWAP1 SWAP5 AND DUP1 DUP3 MSTORE DUP4 DUP3 KECCAK256 DUP1 SLOAD PUSH1 0x1 ADD SWAP1 SSTORE SWAP2 DUP2 MSTORE PUSH1 0x13 SWAP1 SWAP4 MSTORE SWAP2 KECCAK256 DUP1 SLOAD PUSH1 0x1 PUSH1 0x1 PUSH1 0xA0 SHL SUB NOT AND SWAP1 SWAP2 OR SWAP1 SSTORE JUMP JUMPDEST PUSH1 0x0 PUSH2 0x3EF3 DUP3 PUSH2 0x3E01 JUMP JUMPDEST PUSH2 0x3F2E JUMPI PUSH1 0x40 MLOAD PUSH3 0x461BCD PUSH1 0xE5 SHL DUP2 MSTORE PUSH1 0x4 ADD DUP1 DUP1 PUSH1 0x20 ADD DUP3 DUP2 SUB DUP3 MSTORE PUSH1 0x2C DUP2 MSTORE PUSH1 0x20 ADD DUP1 PUSH2 0x5472 PUSH1 0x2C SWAP2 CODECOPY PUSH1 0x40 ADD SWAP2 POP POP PUSH1 0x40 MLOAD DUP1 SWAP2 SUB SWAP1 REVERT JUMPDEST PUSH1 0x0 PUSH2 0x3F39 DUP4 PUSH2 0x23F9 JUMP JUMPDEST SWAP1 POP DUP1 PUSH1 0x1 PUSH1 0x1 PUSH1 0xA0 SHL SUB AND DUP5 PUSH1 0x1 PUSH1 0x1 PUSH1 0xA0 SHL SUB AND EQ DUP1 PUSH2 0x3F74 JUMPI POP DUP4 PUSH1 0x1 PUSH1 0x1 PUSH1 0xA0 SHL SUB AND PUSH2 0x3F69 DUP5 PUSH2 0x1A2D JUMP JUMPDEST PUSH1 0x1 PUSH1 0x1 PUSH1 0xA0 SHL SUB AND EQ JUMPDEST DUP1 PUSH2 0x3F84 JUMPI POP PUSH2 0x3F84 DUP2 DUP6 PUSH2 0x39C5 JUMP JUMPDEST SWAP5 SWAP4 POP POP POP POP JUMP JUMPDEST DUP3 PUSH1 0x1 PUSH1 0x1 PUSH1 0xA0 SHL SUB AND PUSH2 0x3F9F DUP3 PUSH2 0x23F9 JUMP JUMPDEST PUSH1 0x1 PUSH1 0x1 PUSH1 0xA0 SHL SUB AND EQ PUSH2 0x3FE4 JUMPI PUSH1 0x40 MLOAD PUSH3 0x461BCD PUSH1 0xE5 SHL DUP2 MSTORE PUSH1 0x4 ADD DUP1 DUP1 PUSH1 0x20 ADD DUP3 DUP2 SUB DUP3 MSTORE PUSH1 0x29 DUP2 MSTORE PUSH1 0x20 ADD DUP1 PUSH2 0x55A3 PUSH1 0x29 SWAP2 CODECOPY PUSH1 0x40 ADD SWAP2 POP POP PUSH1 0x40 MLOAD DUP1 SWAP2 SUB SWAP1 REVERT JUMPDEST PUSH1 0x1 PUSH1 0x1 PUSH1 0xA0 SHL SUB DUP3 AND PUSH2 0x4029 JUMPI PUSH1 0x40 MLOAD PUSH3 0x461BCD PUSH1 0xE5 SHL DUP2 MSTORE PUSH1 0x4 ADD DUP1 DUP1 PUSH1 0x20 ADD DUP3 DUP2 SUB DUP3 MSTORE PUSH1 0x24 DUP2 MSTORE PUSH1 0x20 ADD DUP1 PUSH2 0x53F8 PUSH1 0x24 SWAP2 CODECOPY PUSH1 0x40 ADD SWAP2 POP POP PUSH1 0x40 MLOAD DUP1 SWAP2 SUB SWAP1 REVERT JUMPDEST PUSH2 0x4034 DUP4 DUP4 DUP4 PUSH2 0x1B65 JUMP JUMPDEST PUSH2 0x403F PUSH1 0x0 DUP3 PUSH2 0x3E12 JUMP JUMPDEST PUSH1 0x1 PUSH1 0x1 PUSH1 0xA0 SHL SUB DUP4 AND PUSH1 0x0 SWAP1 DUP2 MSTORE PUSH1 0x2 PUSH1 0x20 MSTORE PUSH1 0x40 SWAP1 KECCAK256 PUSH2 0x4061 SWAP1 DUP3 PUSH2 0x4760 JUMP JUMPDEST POP PUSH1 0x1 PUSH1 0x1 PUSH1 0xA0 SHL SUB DUP3 AND PUSH1 0x0 SWAP1 DUP2 MSTORE PUSH1 0x2 PUSH1 0x20 MSTORE PUSH1 0x40 SWAP1 KECCAK256 PUSH2 0x4084 SWAP1 DUP3 PUSH2 0x476C JUMP JUMPDEST POP PUSH2 0x4091 PUSH1 0x3 DUP3 DUP5 PUSH2 0x4778 JUMP JUMPDEST POP DUP1 DUP3 PUSH1 0x1 PUSH1 0x1 PUSH1 0xA0 SHL SUB AND DUP5 PUSH1 0x1 PUSH1 0x1 PUSH1 0xA0 SHL SUB AND PUSH32 0xDDF252AD1BE2C89B69C2B068FC378DAA952BA7F163C4A11628F55A4DF523B3EF PUSH1 0x40 MLOAD PUSH1 0x40 MLOAD DUP1 SWAP2 SUB SWAP1 LOG4 POP POP POP JUMP JUMPDEST PUSH1 0x0 PUSH2 0x2237 DUP4 DUP4 PUSH2 0x478E JUMP JUMPDEST PUSH1 0x0 DUP1 DUP1 DUP1 PUSH2 0x40F3 DUP7 DUP7 PUSH2 0x47F2 JUMP JUMPDEST SWAP1 SWAP8 SWAP1 SWAP7 POP SWAP5 POP POP POP POP POP JUMP JUMPDEST PUSH1 0x0 PUSH2 0x410D DUP5 DUP5 DUP5 PUSH2 0x486D JUMP JUMPDEST SWAP1 POP JUMPDEST SWAP4 SWAP3 POP POP POP JUMP JUMPDEST PUSH1 0x0 PUSH1 0x1B SLOAD PUSH32 0x0 PUSH1 0x1 PUSH1 0x1 PUSH1 0xA0 SHL SUB AND PUSH4 0x70A08231 ADDRESS PUSH1 0x40 MLOAD DUP3 PUSH4 0xFFFFFFFF AND PUSH1 0xE0 SHL DUP2 MSTORE PUSH1 0x4 ADD DUP1 DUP3 PUSH1 0x1 PUSH1 0x1 PUSH1 0xA0 SHL SUB AND DUP2 MSTORE PUSH1 0x20 ADD SWAP2 POP POP PUSH1 0x20 PUSH1 0x40 MLOAD DUP1 DUP4 SUB DUP2 DUP7 DUP1 EXTCODESIZE ISZERO DUP1 ISZERO PUSH2 0x4189 JUMPI PUSH1 0x0 DUP1 REVERT JUMPDEST POP GAS STATICCALL ISZERO DUP1 ISZERO PUSH2 0x419D JUMPI RETURNDATASIZE PUSH1 0x0 DUP1 RETURNDATACOPY RETURNDATASIZE PUSH1 0x0 REVERT JUMPDEST POP POP POP POP PUSH1 0x40 MLOAD RETURNDATASIZE PUSH1 0x20 DUP2 LT ISZERO PUSH2 0x41B3 JUMPI PUSH1 0x0 DUP1 REVERT JUMPDEST POP MLOAD LT ISZERO PUSH2 0x41F2 JUMPI PUSH1 0x40 MLOAD PUSH3 0x461BCD PUSH1 0xE5 SHL DUP2 MSTORE PUSH1 0x4 ADD DUP1 DUP1 PUSH1 0x20 ADD DUP3 DUP2 SUB DUP3 MSTORE PUSH1 0x2F DUP2 MSTORE PUSH1 0x20 ADD DUP1 PUSH2 0x53A1 PUSH1 0x2F SWAP2 CODECOPY PUSH1 0x40 ADD SWAP2 POP POP PUSH1 0x40 MLOAD DUP1 SWAP2 SUB SWAP1 REVERT JUMPDEST PUSH1 0x0 PUSH2 0x4202 PUSH1 0x1A SLOAD PUSH1 0x1B SLOAD PUSH2 0x4937 JUMP JUMPDEST PUSH1 0x0 DUP2 DUP2 MSTORE PUSH1 0x14 PUSH1 0x20 SWAP1 DUP2 MSTORE PUSH1 0x40 DUP1 DUP4 KECCAK256 DUP1 SLOAD PUSH1 0x1 PUSH1 0x1 PUSH1 0xA0 SHL SUB NOT AND CALLER SWAP1 DUP2 OR SWAP1 SWAP2 SSTORE DUP4 MSTORE PUSH1 0x15 SWAP1 SWAP2 MSTORE SWAP1 KECCAK256 PUSH5 0x64AE71F0F0 SWAP1 SSTORE SWAP2 POP POP SWAP1 JUMP JUMPDEST PUSH1 0xE SLOAD PUSH1 0x11 DUP1 SLOAD PUSH4 0xFFFFFFFF SWAP1 SWAP3 AND TIMESTAMP ADD SWAP2 DUP4 SWAP1 DUP2 LT PUSH2 0x4259 JUMPI INVALID JUMPDEST SWAP1 PUSH1 0x0 MSTORE PUSH1 0x20 PUSH1 0x0 KECCAK256 SWAP1 PUSH1 0x7 MUL ADD PUSH1 0x4 ADD PUSH1 0x0 PUSH2 0x100 EXP DUP2 SLOAD DUP2 PUSH4 0xFFFFFFFF MUL NOT AND SWAP1 DUP4 PUSH4 0xFFFFFFFF AND MUL OR SWAP1 SSTORE POP POP JUMP JUMPDEST PUSH1 0x17 SLOAD DUP2 MUL SWAP1 POP PUSH1 0x0 DUP2 PUSH1 0x11 DUP5 DUP2 SLOAD DUP2 LT PUSH2 0x42A2 JUMPI INVALID JUMPDEST SWAP1 PUSH1 0x0 MSTORE PUSH1 0x20 PUSH1 0x0 KECCAK256 SWAP1 PUSH1 0x7 MUL ADD PUSH1 0x1 ADD SLOAD SUB LT ISZERO PUSH2 0x42E4 JUMPI PUSH1 0x0 PUSH1 0x11 DUP4 DUP2 SLOAD DUP2 LT PUSH2 0x42CA JUMPI INVALID JUMPDEST SWAP1 PUSH1 0x0 MSTORE PUSH1 0x20 PUSH1 0x0 KECCAK256 SWAP1 PUSH1 0x7 MUL ADD PUSH1 0x1 ADD DUP2 SWAP1 SSTORE POP PUSH2 0x30B9 JUMP JUMPDEST DUP1 PUSH1 0x11 DUP4 DUP2 SLOAD DUP2 LT PUSH2 0x42F2 JUMPI INVALID JUMPDEST PUSH1 0x0 SWAP2 DUP3 MSTORE PUSH1 0x20 SWAP1 SWAP2 KECCAK256 PUSH1 0x1 PUSH1 0x7 SWAP1 SWAP3 MUL ADD ADD DUP1 SLOAD SWAP2 SWAP1 SWAP2 SUB SWAP1 SSTORE POP POP JUMP JUMPDEST PUSH1 0x0 SWAP2 DUP3 MSTORE PUSH1 0x14 PUSH1 0x20 SWAP1 DUP2 MSTORE PUSH1 0x40 DUP1 DUP5 KECCAK256 SLOAD PUSH1 0x1 PUSH1 0x1 PUSH1 0xA0 SHL SUB AND DUP5 MSTORE PUSH1 0x15 SWAP1 SWAP2 MSTORE SWAP1 SWAP2 KECCAK256 SSTORE JUMP JUMPDEST PUSH2 0x4344 DUP5 DUP5 DUP5 PUSH2 0x3F8C JUMP JUMPDEST PUSH2 0x4350 DUP5 DUP5 DUP5 DUP5 PUSH2 0x4AE2 JUMP JUMPDEST PUSH2 0x358C JUMPI PUSH1 0x40 MLOAD PUSH3 0x461BCD PUSH1 0xE5 SHL DUP2 MSTORE PUSH1 0x4 ADD DUP1 DUP1 PUSH1 0x20 ADD DUP3 DUP2 SUB DUP3 MSTORE PUSH1 0x32 DUP2 MSTORE PUSH1 0x20 ADD DUP1 PUSH2 0x536F PUSH1 0x32 SWAP2 CODECOPY PUSH1 0x40 ADD SWAP2 POP POP PUSH1 0x40 MLOAD DUP1 SWAP2 SUB SWAP1 REVERT JUMPDEST PUSH1 0x60 DUP2 PUSH2 0x43B0 JUMPI POP PUSH1 0x40 DUP1 MLOAD DUP1 DUP3 ADD SWAP1 SWAP2 MSTORE PUSH1 0x1 DUP2 MSTORE PUSH1 0x3 PUSH1 0xFC SHL PUSH1 0x20 DUP3 ADD MSTORE PUSH2 0x1375 JUMP JUMPDEST DUP2 PUSH1 0x0 JUMPDEST DUP2 ISZERO PUSH2 0x43C8 JUMPI PUSH1 0x1 ADD PUSH1 0xA DUP3 DIV SWAP2 POP PUSH2 0x43B4 JUMP JUMPDEST PUSH1 0x60 DUP2 PUSH8 0xFFFFFFFFFFFFFFFF DUP2 GT DUP1 ISZERO PUSH2 0x43E1 JUMPI PUSH1 0x0 DUP1 REVERT JUMPDEST POP PUSH1 0x40 MLOAD SWAP1 DUP1 DUP3 MSTORE DUP1 PUSH1 0x1F ADD PUSH1 0x1F NOT AND PUSH1 0x20 ADD DUP3 ADD PUSH1 0x40 MSTORE DUP1 ISZERO PUSH2 0x440C JUMPI PUSH1 0x20 DUP3 ADD DUP2 DUP1 CALLDATASIZE DUP4 CALLDATACOPY ADD SWAP1 POP JUMPDEST POP DUP6 SWAP4 POP SWAP1 POP PUSH1 0x0 NOT DUP3 ADD JUMPDEST DUP4 ISZERO PUSH2 0x445D JUMPI PUSH1 0xA DUP5 MOD PUSH1 0x30 ADD PUSH1 0xF8 SHL DUP3 DUP3 DUP1 PUSH1 0x1 SWAP1 SUB SWAP4 POP DUP2 MLOAD DUP2 LT PUSH2 0x443B JUMPI INVALID JUMPDEST PUSH1 0x20 ADD ADD SWAP1 PUSH1 0x1 PUSH1 0x1 PUSH1 0xF8 SHL SUB NOT AND SWAP1 DUP2 PUSH1 0x0 BYTE SWAP1 MSTORE8 POP PUSH1 0xA DUP5 DIV SWAP4 POP PUSH2 0x4418 JUMP JUMPDEST POP SWAP5 SWAP4 POP POP POP POP JUMP JUMPDEST PUSH2 0x446F DUP3 PUSH2 0x3E01 JUMP JUMPDEST PUSH2 0x44AA JUMPI PUSH1 0x40 MLOAD PUSH3 0x461BCD PUSH1 0xE5 SHL DUP2 MSTORE PUSH1 0x4 ADD DUP1 DUP1 PUSH1 0x20 ADD DUP3 DUP2 SUB DUP3 MSTORE PUSH1 0x2C DUP2 MSTORE PUSH1 0x20 ADD DUP1 PUSH2 0x5577 PUSH1 0x2C SWAP2 CODECOPY PUSH1 0x40 ADD SWAP2 POP POP PUSH1 0x40 MLOAD DUP1 SWAP2 SUB SWAP1 REVERT JUMPDEST PUSH1 0x0 DUP3 DUP2 MSTORE PUSH1 0x9 PUSH1 0x20 SWAP1 DUP2 MSTORE PUSH1 0x40 SWAP1 SWAP2 KECCAK256 DUP3 MLOAD PUSH2 0x1B65 SWAP3 DUP5 ADD SWAP1 PUSH2 0x52B9 JUMP JUMPDEST PUSH2 0x44D1 PUSH2 0x5274 JUMP JUMPDEST PUSH2 0x44D9 PUSH2 0x4117 JUMP JUMPDEST POP CALLER PUSH1 0x0 SWAP1 DUP2 MSTORE PUSH1 0x15 PUSH1 0x20 MSTORE PUSH1 0x40 DUP2 KECCAK256 SLOAD SWAP1 PUSH1 0x1 PUSH1 0x3 DUP4 MOD DUP2 ADD SWAP2 SWAP1 DUP3 EQ ISZERO PUSH2 0x4509 JUMPI POP PUSH1 0x1 PUSH1 0x64 DUP4 MOD ADD PUSH2 0x4528 JUMP JUMPDEST DUP2 PUSH1 0x2 EQ ISZERO PUSH2 0x451F JUMPI POP PUSH1 0x65 PUSH1 0x64 DUP4 MOD ADD PUSH2 0x4528 JUMP JUMPDEST POP PUSH1 0xC9 PUSH1 0x64 DUP4 MOD ADD JUMPDEST PUSH1 0x1 PUSH1 0x64 PUSH1 0x32 DUP6 MUL MOD ADD PUSH1 0x60 PUSH1 0x10 PUSH1 0x19 DUP7 MOD DUP2 SLOAD DUP2 LT PUSH2 0x4544 JUMPI INVALID JUMPDEST PUSH1 0x0 SWAP2 DUP3 MSTORE PUSH1 0x20 SWAP2 DUP3 SWAP1 KECCAK256 ADD DUP1 SLOAD PUSH1 0x40 DUP1 MLOAD PUSH1 0x1F PUSH1 0x2 PUSH1 0x0 NOT PUSH2 0x100 PUSH1 0x1 DUP8 AND ISZERO MUL ADD SWAP1 SWAP5 AND SWAP4 SWAP1 SWAP4 DIV SWAP3 DUP4 ADD DUP6 SWAP1 DIV DUP6 MUL DUP2 ADD DUP6 ADD SWAP1 SWAP2 MSTORE DUP2 DUP2 MSTORE SWAP3 DUP4 ADD DUP3 DUP3 DUP1 ISZERO PUSH2 0x45D2 JUMPI DUP1 PUSH1 0x1F LT PUSH2 0x45A7 JUMPI PUSH2 0x100 DUP1 DUP4 SLOAD DIV MUL DUP4 MSTORE SWAP2 PUSH1 0x20 ADD SWAP2 PUSH2 0x45D2 JUMP JUMPDEST DUP3 ADD SWAP2 SWAP1 PUSH1 0x0 MSTORE PUSH1 0x20 PUSH1 0x0 KECCAK256 SWAP1 JUMPDEST DUP2 SLOAD DUP2 MSTORE SWAP1 PUSH1 0x1 ADD SWAP1 PUSH1 0x20 ADD DUP1 DUP4 GT PUSH2 0x45B5 JUMPI DUP3 SWAP1 SUB PUSH1 0x1F AND DUP3 ADD SWAP2 JUMPDEST POP POP POP POP POP SWAP1 POP PUSH2 0x45E1 PUSH2 0x5274 JUMP JUMPDEST POP PUSH1 0x40 DUP1 MLOAD PUSH1 0xE0 DUP2 ADD DUP3 MSTORE DUP6 DUP2 MSTORE PUSH1 0x20 DUP1 DUP3 ADD DUP7 DUP2 MSTORE SWAP3 DUP3 ADD DUP6 DUP2 MSTORE PUSH1 0x60 DUP4 ADD DUP6 DUP2 MSTORE TIMESTAMP PUSH4 0xFFFFFFFF AND PUSH1 0x80 DUP6 ADD MSTORE PUSH1 0xA0 DUP5 ADD DUP13 SWAP1 MSTORE PUSH1 0x0 PUSH1 0xC0 DUP6 ADD DUP2 SWAP1 MSTORE PUSH1 0x11 DUP1 SLOAD PUSH1 0x1 DUP2 ADD DUP3 SSTORE SWAP2 MSTORE DUP5 MLOAD PUSH32 0x31ECC21A745E3968A04E9570E4425BC18FA8019C68028196B546D1669C200C68 PUSH1 0x7 SWAP1 SWAP3 MUL SWAP2 DUP3 ADD SWAP1 DUP2 SSTORE SWAP6 MLOAD PUSH32 0x31ECC21A745E3968A04E9570E4425BC18FA8019C68028196B546D1669C200C69 DUP3 ADD SSTORE SWAP2 MLOAD PUSH32 0x31ECC21A745E3968A04E9570E4425BC18FA8019C68028196B546D1669C200C6A DUP4 ADD SSTORE MLOAD DUP1 MLOAD SWAP4 SWAP5 DUP6 SWAP5 SWAP1 SWAP4 PUSH2 0x46DD SWAP4 PUSH32 0x31ECC21A745E3968A04E9570E4425BC18FA8019C68028196B546D1669C200C6B ADD SWAP3 ADD SWAP1 PUSH2 0x52B9 JUMP JUMPDEST POP PUSH1 0x80 DUP3 ADD MLOAD PUSH1 0x4 DUP3 ADD DUP1 SLOAD PUSH4 0xFFFFFFFF NOT AND PUSH4 0xFFFFFFFF SWAP1 SWAP3 AND SWAP2 SWAP1 SWAP2 OR SWAP1 SSTORE PUSH1 0xA0 DUP3 ADD MLOAD PUSH1 0x5 DUP3 ADD SSTORE PUSH1 0xC0 SWAP1 SWAP2 ADD MLOAD PUSH1 0x6 SWAP1 SWAP2 ADD DUP1 SLOAD PUSH1 0xFF NOT AND SWAP2 ISZERO ISZERO SWAP2 SWAP1 SWAP2 OR SWAP1 SSTORE PUSH1 0xF DUP1 SLOAD PUSH1 0x1 ADD SWAP1 SSTORE SWAP8 SWAP7 POP POP POP POP POP POP POP JUMP JUMPDEST PUSH2 0x30B9 DUP3 DUP3 PUSH1 0x40 MLOAD DUP1 PUSH1 0x20 ADD PUSH1 0x40 MSTORE DUP1 PUSH1 0x0 DUP2 MSTORE POP PUSH2 0x4C4A JUMP JUMPDEST PUSH1 0x0 PUSH2 0x2237 DUP4 DUP4 PUSH2 0x4C9C JUMP JUMPDEST SLOAD SWAP1 JUMP JUMPDEST PUSH1 0x0 PUSH2 0x2237 DUP4 DUP4 PUSH2 0x4CB4 JUMP JUMPDEST PUSH1 0x0 PUSH2 0x2237 DUP4 DUP4 PUSH2 0x4D7A JUMP JUMPDEST PUSH1 0x0 PUSH2 0x410D DUP5 DUP5 PUSH1 0x1 PUSH1 0x1 PUSH1 0xA0 SHL SUB DUP6 AND PUSH2 0x4DC4 JUMP JUMPDEST DUP2 SLOAD PUSH1 0x0 SWAP1 DUP3 LT PUSH2 0x47D0 JUMPI PUSH1 0x40 MLOAD PUSH3 0x461BCD PUSH1 0xE5 SHL DUP2 MSTORE PUSH1 0x4 ADD DUP1 DUP1 PUSH1 0x20 ADD DUP3 DUP2 SUB DUP3 MSTORE PUSH1 0x22 DUP2 MSTORE PUSH1 0x20 ADD DUP1 PUSH2 0x534D PUSH1 0x22 SWAP2 CODECOPY PUSH1 0x40 ADD SWAP2 POP POP PUSH1 0x40 MLOAD DUP1 SWAP2 SUB SWAP1 REVERT JUMPDEST DUP3 PUSH1 0x0 ADD DUP3 DUP2 SLOAD DUP2 LT PUSH2 0x47DF JUMPI INVALID JUMPDEST SWAP1 PUSH1 0x0 MSTORE PUSH1 0x20 PUSH1 0x0 KECCAK256 ADD SLOAD SWAP1 POP SWAP3 SWAP2 POP POP JUMP JUMPDEST DUP2 SLOAD PUSH1 0x0 SWAP1 DUP2 SWAP1 DUP4 LT PUSH2 0x4836 JUMPI PUSH1 0x40 MLOAD PUSH3 0x461BCD PUSH1 0xE5 SHL DUP2 MSTORE PUSH1 0x4 ADD DUP1 DUP1 PUSH1 0x20 ADD DUP3 DUP2 SUB DUP3 MSTORE PUSH1 0x22 DUP2 MSTORE PUSH1 0x20 ADD DUP1 PUSH2 0x5529 PUSH1 0x22 SWAP2 CODECOPY PUSH1 0x40 ADD SWAP2 POP POP PUSH1 0x40 MLOAD DUP1 SWAP2 SUB SWAP1 REVERT JUMPDEST PUSH1 0x0 DUP5 PUSH1 0x0 ADD DUP5 DUP2 SLOAD DUP2 LT PUSH2 0x4847 JUMPI INVALID JUMPDEST SWAP1 PUSH1 0x0 MSTORE PUSH1 0x20 PUSH1 0x0 KECCAK256 SWAP1 PUSH1 0x2 MUL ADD SWAP1 POP DUP1 PUSH1 0x0 ADD SLOAD DUP2 PUSH1 0x1 ADD SLOAD SWAP3 POP SWAP3 POP POP SWAP3 POP SWAP3 SWAP1 POP JUMP JUMPDEST PUSH1 0x0 DUP3 DUP2 MSTORE PUSH1 0x1 DUP5 ADD PUSH1 0x20 MSTORE PUSH1 0x40 DUP2 KECCAK256 SLOAD DUP3 DUP2 PUSH2 0x4908 JUMPI PUSH1 0x40 MLOAD PUSH3 0x461BCD PUSH1 0xE5 SHL DUP2 MSTORE PUSH1 0x4 ADD DUP1 DUP1 PUSH1 0x20 ADD DUP3 DUP2 SUB DUP3 MSTORE DUP4 DUP2 DUP2 MLOAD DUP2 MSTORE PUSH1 0x20 ADD SWAP2 POP DUP1 MLOAD SWAP1 PUSH1 0x20 ADD SWAP1 DUP1 DUP4 DUP4 PUSH1 0x0 JUMPDEST DUP4 DUP2 LT ISZERO PUSH2 0x48CD JUMPI DUP2 DUP2 ADD MLOAD DUP4 DUP3 ADD MSTORE PUSH1 0x20 ADD PUSH2 0x48B5 JUMP JUMPDEST POP POP POP POP SWAP1 POP SWAP1 DUP2 ADD SWAP1 PUSH1 0x1F AND DUP1 ISZERO PUSH2 0x48FA JUMPI DUP1 DUP3 SUB DUP1 MLOAD PUSH1 0x1 DUP4 PUSH1 0x20 SUB PUSH2 0x100 EXP SUB NOT AND DUP2 MSTORE PUSH1 0x20 ADD SWAP2 POP JUMPDEST POP SWAP3 POP POP POP PUSH1 0x40 MLOAD DUP1 SWAP2 SUB SWAP1 REVERT JUMPDEST POP DUP5 PUSH1 0x0 ADD PUSH1 0x1 DUP3 SUB DUP2 SLOAD DUP2 LT PUSH2 0x491B JUMPI INVALID JUMPDEST SWAP1 PUSH1 0x0 MSTORE PUSH1 0x20 PUSH1 0x0 KECCAK256 SWAP1 PUSH1 0x2 MUL ADD PUSH1 0x1 ADD SLOAD SWAP2 POP POP SWAP4 SWAP3 POP POP POP JUMP JUMPDEST PUSH1 0x0 PUSH32 0x0 PUSH1 0x1 PUSH1 0x1 PUSH1 0xA0 SHL SUB AND PUSH4 0x4000AEA0 PUSH32 0x0 DUP5 DUP7 PUSH1 0x0 PUSH1 0x40 MLOAD PUSH1 0x20 ADD DUP1 DUP4 DUP2 MSTORE PUSH1 0x20 ADD DUP3 DUP2 MSTORE PUSH1 0x20 ADD SWAP3 POP POP POP PUSH1 0x40 MLOAD PUSH1 0x20 DUP2 DUP4 SUB SUB DUP2 MSTORE SWAP1 PUSH1 0x40 MSTORE PUSH1 0x40 MLOAD DUP5 PUSH4 0xFFFFFFFF AND PUSH1 0xE0 SHL DUP2 MSTORE PUSH1 0x4 ADD DUP1 DUP5 PUSH1 0x1 PUSH1 0x1 PUSH1 0xA0 SHL SUB AND DUP2 MSTORE PUSH1 0x20 ADD DUP4 DUP2 MSTORE PUSH1 0x20 ADD DUP1 PUSH1 0x20 ADD DUP3 DUP2 SUB DUP3 MSTORE DUP4 DUP2 DUP2 MLOAD DUP2 MSTORE PUSH1 0x20 ADD SWAP2 POP DUP1 MLOAD SWAP1 PUSH1 0x20 ADD SWAP1 DUP1 DUP4 DUP4 PUSH1 0x0 JUMPDEST DUP4 DUP2 LT ISZERO PUSH2 0x4A14 JUMPI DUP2 DUP2 ADD MLOAD DUP4 DUP3 ADD MSTORE PUSH1 0x20 ADD PUSH2 0x49FC JUMP JUMPDEST POP POP POP POP SWAP1 POP SWAP1 DUP2 ADD SWAP1 PUSH1 0x1F AND DUP1 ISZERO PUSH2 0x4A41 JUMPI DUP1 DUP3 SUB DUP1 MLOAD PUSH1 0x1 DUP4 PUSH1 0x20 SUB PUSH2 0x100 EXP SUB NOT AND DUP2 MSTORE PUSH1 0x20 ADD SWAP2 POP JUMPDEST POP SWAP5 POP POP POP POP POP PUSH1 0x20 PUSH1 0x40 MLOAD DUP1 DUP4 SUB DUP2 PUSH1 0x0 DUP8 DUP1 EXTCODESIZE ISZERO DUP1 ISZERO PUSH2 0x4A62 JUMPI PUSH1 0x0 DUP1 REVERT JUMPDEST POP GAS CALL ISZERO DUP1 ISZERO PUSH2 0x4A76 JUMPI RETURNDATASIZE PUSH1 0x0 DUP1 RETURNDATACOPY RETURNDATASIZE PUSH1 0x0 REVERT JUMPDEST POP POP POP POP PUSH1 0x40 MLOAD RETURNDATASIZE PUSH1 0x20 DUP2 LT ISZERO PUSH2 0x4A8C JUMPI PUSH1 0x0 DUP1 REVERT JUMPDEST POP POP PUSH1 0x0 DUP4 DUP2 MSTORE PUSH1 0xB PUSH1 0x20 MSTORE PUSH1 0x40 DUP2 KECCAK256 SLOAD PUSH2 0x4AAC SWAP1 DUP6 SWAP1 DUP4 SWAP1 ADDRESS SWAP1 PUSH2 0x4E5B JUMP JUMPDEST PUSH1 0x0 DUP6 DUP2 MSTORE PUSH1 0xB PUSH1 0x20 MSTORE PUSH1 0x40 SWAP1 KECCAK256 SLOAD SWAP1 SWAP2 POP PUSH2 0x4AC9 SWAP1 PUSH1 0x1 PUSH2 0x4EA2 JUMP JUMPDEST PUSH1 0x0 DUP6 DUP2 MSTORE PUSH1 0xB PUSH1 0x20 MSTORE PUSH1 0x40 SWAP1 KECCAK256 SSTORE PUSH2 0x3F84 DUP5 DUP3 PUSH2 0x4EFC JUMP JUMPDEST PUSH1 0x0 PUSH2 0x4AF6 DUP5 PUSH1 0x1 PUSH1 0x1 PUSH1 0xA0 SHL SUB AND PUSH2 0x4F28 JUMP JUMPDEST PUSH2 0x4B02 JUMPI POP PUSH1 0x1 PUSH2 0x3F84 JUMP JUMPDEST PUSH1 0x60 PUSH2 0x4C10 PUSH4 0xA85BD01 PUSH1 0xE1 SHL PUSH2 0x4B17 PUSH2 0x3E0E JUMP JUMPDEST DUP9 DUP8 DUP8 PUSH1 0x40 MLOAD PUSH1 0x24 ADD DUP1 DUP6 PUSH1 0x1 PUSH1 0x1 PUSH1 0xA0 SHL SUB AND DUP2 MSTORE PUSH1 0x20 ADD DUP5 PUSH1 0x1 PUSH1 0x1 PUSH1 0xA0 SHL SUB AND DUP2 MSTORE PUSH1 0x20 ADD DUP4 DUP2 MSTORE PUSH1 0x20 ADD DUP1 PUSH1 0x20 ADD DUP3 DUP2 SUB DUP3 MSTORE DUP4 DUP2 DUP2 MLOAD DUP2 MSTORE PUSH1 0x20 ADD SWAP2 POP DUP1 MLOAD SWAP1 PUSH1 0x20 ADD SWAP1 DUP1 DUP4 DUP4 PUSH1 0x0 JUMPDEST DUP4 DUP2 LT ISZERO PUSH2 0x4B7E JUMPI DUP2 DUP2 ADD MLOAD DUP4 DUP3 ADD MSTORE PUSH1 0x20 ADD PUSH2 0x4B66 JUMP JUMPDEST POP POP POP POP SWAP1 POP SWAP1 DUP2 ADD SWAP1 PUSH1 0x1F AND DUP1 ISZERO PUSH2 0x4BAB JUMPI DUP1 DUP3 SUB DUP1 MLOAD PUSH1 0x1 DUP4 PUSH1 0x20 SUB PUSH2 0x100 EXP SUB NOT AND DUP2 MSTORE PUSH1 0x20 ADD SWAP2 POP JUMPDEST POP SWAP6 POP POP POP POP POP POP PUSH1 0x40 MLOAD PUSH1 0x20 DUP2 DUP4 SUB SUB DUP2 MSTORE SWAP1 PUSH1 0x40 MSTORE SWAP1 PUSH1 0x1 PUSH1 0x1 PUSH1 0xE0 SHL SUB NOT AND PUSH1 0x20 DUP3 ADD DUP1 MLOAD PUSH1 0x1 PUSH1 0x1 PUSH1 0xE0 SHL SUB DUP4 DUP2 DUP4 AND OR DUP4 MSTORE POP POP POP POP PUSH1 0x40 MLOAD DUP1 PUSH1 0x60 ADD PUSH1 0x40 MSTORE DUP1 PUSH1 0x32 DUP2 MSTORE PUSH1 0x20 ADD PUSH2 0x536F PUSH1 0x32 SWAP2 CODECOPY PUSH1 0x1 PUSH1 0x1 PUSH1 0xA0 SHL SUB DUP9 AND SWAP2 SWAP1 PUSH2 0x4F2E JUMP JUMPDEST SWAP1 POP PUSH1 0x0 DUP2 DUP1 PUSH1 0x20 ADD SWAP1 MLOAD PUSH1 0x20 DUP2 LT ISZERO PUSH2 0x4C29 JUMPI PUSH1 0x0 DUP1 REVERT JUMPDEST POP MLOAD PUSH1 0x1 PUSH1 0x1 PUSH1 0xE0 SHL SUB NOT AND PUSH4 0xA85BD01 PUSH1 0xE1 SHL EQ SWAP3 POP POP POP SWAP5 SWAP4 POP POP POP POP JUMP JUMPDEST PUSH2 0x4C54 DUP4 DUP4 PUSH2 0x4F3D JUMP JUMPDEST PUSH2 0x4C61 PUSH1 0x0 DUP5 DUP5 DUP5 PUSH2 0x4AE2 JUMP JUMPDEST PUSH2 0x1B65 JUMPI PUSH1 0x40 MLOAD PUSH3 0x461BCD PUSH1 0xE5 SHL DUP2 MSTORE PUSH1 0x4 ADD DUP1 DUP1 PUSH1 0x20 ADD DUP3 DUP2 SUB DUP3 MSTORE PUSH1 0x32 DUP2 MSTORE PUSH1 0x20 ADD DUP1 PUSH2 0x536F PUSH1 0x32 SWAP2 CODECOPY PUSH1 0x40 ADD SWAP2 POP POP PUSH1 0x40 MLOAD DUP1 SWAP2 SUB SWAP1 REVERT JUMPDEST PUSH1 0x0 SWAP1 DUP2 MSTORE PUSH1 0x1 SWAP2 SWAP1 SWAP2 ADD PUSH1 0x20 MSTORE PUSH1 0x40 SWAP1 KECCAK256 SLOAD ISZERO ISZERO SWAP1 JUMP JUMPDEST PUSH1 0x0 DUP2 DUP2 MSTORE PUSH1 0x1 DUP4 ADD PUSH1 0x20 MSTORE PUSH1 0x40 DUP2 KECCAK256 SLOAD DUP1 ISZERO PUSH2 0x4D70 JUMPI DUP4 SLOAD PUSH1 0x0 NOT DUP1 DUP4 ADD SWAP2 SWAP1 DUP2 ADD SWAP1 PUSH1 0x0 SWAP1 DUP8 SWAP1 DUP4 SWAP1 DUP2 LT PUSH2 0x4CE7 JUMPI INVALID JUMPDEST SWAP1 PUSH1 0x0 MSTORE PUSH1 0x20 PUSH1 0x0 KECCAK256 ADD SLOAD SWAP1 POP DUP1 DUP8 PUSH1 0x0 ADD DUP5 DUP2 SLOAD DUP2 LT PUSH2 0x4D04 JUMPI INVALID JUMPDEST PUSH1 0x0 SWAP2 DUP3 MSTORE PUSH1 0x20 DUP1 DUP4 KECCAK256 SWAP1 SWAP2 ADD SWAP3 SWAP1 SWAP3 SSTORE DUP3 DUP2 MSTORE PUSH1 0x1 DUP10 DUP2 ADD SWAP1 SWAP3 MSTORE PUSH1 0x40 SWAP1 KECCAK256 SWAP1 DUP5 ADD SWAP1 SSTORE DUP7 SLOAD DUP8 SWAP1 DUP1 PUSH2 0x4D34 JUMPI INVALID JUMPDEST PUSH1 0x1 SWAP1 SUB DUP2 DUP2 SWAP1 PUSH1 0x0 MSTORE PUSH1 0x20 PUSH1 0x0 KECCAK256 ADD PUSH1 0x0 SWAP1 SSTORE SWAP1 SSTORE DUP7 PUSH1 0x1 ADD PUSH1 0x0 DUP8 DUP2 MSTORE PUSH1 0x20 ADD SWAP1 DUP2 MSTORE PUSH1 0x20 ADD PUSH1 0x0 KECCAK256 PUSH1 0x0 SWAP1 SSTORE PUSH1 0x1 SWAP5 POP POP POP POP POP PUSH2 0x223A JUMP JUMPDEST PUSH1 0x0 SWAP2 POP POP PUSH2 0x223A JUMP JUMPDEST PUSH1 0x0 PUSH2 0x4D86 DUP4 DUP4 PUSH2 0x4C9C JUMP JUMPDEST PUSH2 0x4DBC JUMPI POP DUP2 SLOAD PUSH1 0x1 DUP2 DUP2 ADD DUP5 SSTORE PUSH1 0x0 DUP5 DUP2 MSTORE PUSH1 0x20 DUP1 DUP3 KECCAK256 SWAP1 SWAP4 ADD DUP5 SWAP1 SSTORE DUP5 SLOAD DUP5 DUP3 MSTORE DUP3 DUP7 ADD SWAP1 SWAP4 MSTORE PUSH1 0x40 SWAP1 KECCAK256 SWAP2 SWAP1 SWAP2 SSTORE PUSH2 0x223A JUMP JUMPDEST POP PUSH1 0x0 PUSH2 0x223A JUMP JUMPDEST PUSH1 0x0 DUP3 DUP2 MSTORE PUSH1 0x1 DUP5 ADD PUSH1 0x20 MSTORE PUSH1 0x40 DUP2 KECCAK256 SLOAD DUP1 PUSH2 0x4E29 JUMPI POP POP PUSH1 0x40 DUP1 MLOAD DUP1 DUP3 ADD DUP3 MSTORE DUP4 DUP2 MSTORE PUSH1 0x20 DUP1 DUP3 ADD DUP5 DUP2 MSTORE DUP7 SLOAD PUSH1 0x1 DUP2 DUP2 ADD DUP10 SSTORE PUSH1 0x0 DUP10 DUP2 MSTORE DUP5 DUP2 KECCAK256 SWAP6 MLOAD PUSH1 0x2 SWAP1 SWAP4 MUL SWAP1 SWAP6 ADD SWAP2 DUP3 SSTORE SWAP2 MLOAD SWAP1 DUP3 ADD SSTORE DUP7 SLOAD DUP7 DUP5 MSTORE DUP2 DUP9 ADD SWAP1 SWAP3 MSTORE SWAP3 SWAP1 SWAP2 KECCAK256 SSTORE PUSH2 0x4110 JUMP JUMPDEST DUP3 DUP6 PUSH1 0x0 ADD PUSH1 0x1 DUP4 SUB DUP2 SLOAD DUP2 LT PUSH2 0x4E3C JUMPI INVALID JUMPDEST SWAP1 PUSH1 0x0 MSTORE PUSH1 0x20 PUSH1 0x0 KECCAK256 SWAP1 PUSH1 0x2 MUL ADD PUSH1 0x1 ADD DUP2 SWAP1 SSTORE POP PUSH1 0x0 SWAP2 POP POP PUSH2 0x4110 JUMP JUMPDEST PUSH1 0x40 DUP1 MLOAD PUSH1 0x20 DUP1 DUP3 ADD SWAP7 SWAP1 SWAP7 MSTORE DUP1 DUP3 ADD SWAP5 SWAP1 SWAP5 MSTORE PUSH1 0x1 PUSH1 0x1 PUSH1 0xA0 SHL SUB SWAP3 SWAP1 SWAP3 AND PUSH1 0x60 DUP5 ADD MSTORE PUSH1 0x80 DUP1 DUP5 ADD SWAP2 SWAP1 SWAP2 MSTORE DUP2 MLOAD DUP1 DUP5 SUB SWAP1 SWAP2 ADD DUP2 MSTORE PUSH1 0xA0 SWAP1 SWAP3 ADD SWAP1 MSTORE DUP1 MLOAD SWAP2 ADD KECCAK256 SWAP1 JUMP JUMPDEST PUSH1 0x0 DUP3 DUP3 ADD DUP4 DUP2 LT ISZERO PUSH2 0x2237 JUMPI PUSH1 0x40 DUP1 MLOAD PUSH3 0x461BCD PUSH1 0xE5 SHL DUP2 MSTORE PUSH1 0x20 PUSH1 0x4 DUP3 ADD MSTORE PUSH1 0x1B PUSH1 0x24 DUP3 ADD MSTORE PUSH32 0x536166654D6174683A206164646974696F6E206F766572666C6F770000000000 PUSH1 0x44 DUP3 ADD MSTORE SWAP1 MLOAD SWAP1 DUP2 SWAP1 SUB PUSH1 0x64 ADD SWAP1 REVERT JUMPDEST PUSH1 0x40 DUP1 MLOAD PUSH1 0x20 DUP1 DUP3 ADD SWAP5 SWAP1 SWAP5 MSTORE DUP1 DUP3 ADD SWAP3 SWAP1 SWAP3 MSTORE DUP1 MLOAD DUP1 DUP4 SUB DUP3 ADD DUP2 MSTORE PUSH1 0x60 SWAP1 SWAP3 ADD SWAP1 MSTORE DUP1 MLOAD SWAP2 ADD KECCAK256 SWAP1 JUMP JUMPDEST EXTCODESIZE ISZERO ISZERO SWAP1 JUMP JUMPDEST PUSH1 0x60 PUSH2 0x410D DUP5 DUP5 PUSH1 0x0 DUP6 PUSH2 0x506B JUMP JUMPDEST PUSH1 0x1 PUSH1 0x1 PUSH1 0xA0 SHL SUB DUP3 AND PUSH2 0x4F98 JUMPI PUSH1 0x40 DUP1 MLOAD PUSH3 0x461BCD PUSH1 0xE5 SHL DUP2 MSTORE PUSH1 0x20 PUSH1 0x4 DUP3 ADD DUP2 SWAP1 MSTORE PUSH1 0x24 DUP3 ADD MSTORE PUSH32 0x4552433732313A206D696E7420746F20746865207A65726F2061646472657373 PUSH1 0x44 DUP3 ADD MSTORE SWAP1 MLOAD SWAP1 DUP2 SWAP1 SUB PUSH1 0x64 ADD SWAP1 REVERT JUMPDEST PUSH2 0x4FA1 DUP2 PUSH2 0x3E01 JUMP JUMPDEST ISZERO PUSH2 0x4FF3 JUMPI PUSH1 0x40 DUP1 MLOAD PUSH3 0x461BCD PUSH1 0xE5 SHL DUP2 MSTORE PUSH1 0x20 PUSH1 0x4 DUP3 ADD MSTORE PUSH1 0x1C PUSH1 0x24 DUP3 ADD MSTORE PUSH32 0x4552433732313A20746F6B656E20616C7265616479206D696E74656400000000 PUSH1 0x44 DUP3 ADD MSTORE SWAP1 MLOAD SWAP1 DUP2 SWAP1 SUB PUSH1 0x64 ADD SWAP1 REVERT JUMPDEST PUSH2 0x4FFF PUSH1 0x0 DUP4 DUP4 PUSH2 0x1B65 JUMP JUMPDEST PUSH1 0x1 PUSH1 0x1 PUSH1 0xA0 SHL SUB DUP3 AND PUSH1 0x0 SWAP1 DUP2 MSTORE PUSH1 0x2 PUSH1 0x20 MSTORE PUSH1 0x40 SWAP1 KECCAK256 PUSH2 0x5021 SWAP1 DUP3 PUSH2 0x476C JUMP JUMPDEST POP PUSH2 0x502E PUSH1 0x3 DUP3 DUP5 PUSH2 0x4778 JUMP JUMPDEST POP PUSH1 0x40 MLOAD DUP2 SWAP1 PUSH1 0x1 PUSH1 0x1 PUSH1 0xA0 SHL SUB DUP5 AND SWAP1 PUSH1 0x0 SWAP1 PUSH32 0xDDF252AD1BE2C89B69C2B068FC378DAA952BA7F163C4A11628F55A4DF523B3EF SWAP1 DUP3 SWAP1 LOG4 POP POP JUMP JUMPDEST PUSH1 0x60 DUP3 SELFBALANCE LT ISZERO PUSH2 0x50AC JUMPI PUSH1 0x40 MLOAD PUSH3 0x461BCD PUSH1 0xE5 SHL DUP2 MSTORE PUSH1 0x4 ADD DUP1 DUP1 PUSH1 0x20 ADD DUP3 DUP2 SUB DUP3 MSTORE PUSH1 0x26 DUP2 MSTORE PUSH1 0x20 ADD DUP1 PUSH2 0x544C PUSH1 0x26 SWAP2 CODECOPY PUSH1 0x40 ADD SWAP2 POP POP PUSH1 0x40 MLOAD DUP1 SWAP2 SUB SWAP1 REVERT JUMPDEST PUSH2 0x50B5 DUP6 PUSH2 0x4F28 JUMP JUMPDEST PUSH2 0x5106 JUMPI PUSH1 0x40 DUP1 MLOAD PUSH3 0x461BCD PUSH1 0xE5 SHL DUP2 MSTORE PUSH1 0x20 PUSH1 0x4 DUP3 ADD MSTORE PUSH1 0x1D PUSH1 0x24 DUP3 ADD MSTORE PUSH32 0x416464726573733A2063616C6C20746F206E6F6E2D636F6E7472616374000000 PUSH1 0x44 DUP3 ADD MSTORE SWAP1 MLOAD SWAP1 DUP2 SWAP1 SUB PUSH1 0x64 ADD SWAP1 REVERT JUMPDEST PUSH1 0x0 PUSH1 0x60 DUP7 PUSH1 0x1 PUSH1 0x1 PUSH1 0xA0 SHL SUB AND DUP6 DUP8 PUSH1 0x40 MLOAD DUP1 DUP3 DUP1 MLOAD SWAP1 PUSH1 0x20 ADD SWAP1 DUP1 DUP4 DUP4 JUMPDEST PUSH1 0x20 DUP4 LT PUSH2 0x5145 JUMPI DUP1 MLOAD DUP3 MSTORE PUSH1 0x1F NOT SWAP1 SWAP3 ADD SWAP2 PUSH1 0x20 SWAP2 DUP3 ADD SWAP2 ADD PUSH2 0x5126 JUMP JUMPDEST PUSH1 0x1 DUP4 PUSH1 0x20 SUB PUSH2 0x100 EXP SUB DUP1 NOT DUP3 MLOAD AND DUP2 DUP5 MLOAD AND DUP1 DUP3 OR DUP6 MSTORE POP POP POP POP POP POP SWAP1 POP ADD SWAP2 POP POP PUSH1 0x0 PUSH1 0x40 MLOAD DUP1 DUP4 SUB DUP2 DUP6 DUP8 GAS CALL SWAP3 POP POP POP RETURNDATASIZE DUP1 PUSH1 0x0 DUP2 EQ PUSH2 0x51A7 JUMPI PUSH1 0x40 MLOAD SWAP2 POP PUSH1 0x1F NOT PUSH1 0x3F RETURNDATASIZE ADD AND DUP3 ADD PUSH1 0x40 MSTORE RETURNDATASIZE DUP3 MSTORE RETURNDATASIZE PUSH1 0x0 PUSH1 0x20 DUP5 ADD RETURNDATACOPY PUSH2 0x51AC JUMP JUMPDEST PUSH1 0x60 SWAP2 POP JUMPDEST POP SWAP2 POP SWAP2 POP PUSH2 0x51BC DUP3 DUP3 DUP7 PUSH2 0x51C7 JUMP JUMPDEST SWAP8 SWAP7 POP POP POP POP POP POP POP JUMP JUMPDEST PUSH1 0x60 DUP4 ISZERO PUSH2 0x51D6 JUMPI POP DUP2 PUSH2 0x4110 JUMP JUMPDEST DUP3 MLOAD ISZERO PUSH2 0x51E6 JUMPI DUP3 MLOAD DUP1 DUP5 PUSH1 0x20 ADD REVERT JUMPDEST PUSH1 0x40 MLOAD PUSH3 0x461BCD PUSH1 0xE5 SHL DUP2 MSTORE PUSH1 0x20 PUSH1 0x4 DUP3 ADD DUP2 DUP2 MSTORE DUP5 MLOAD PUSH1 0x24 DUP5 ADD MSTORE DUP5 MLOAD DUP6 SWAP4 SWAP2 SWAP3 DUP4 SWAP3 PUSH1 0x44 ADD SWAP2 SWAP1 DUP6 ADD SWAP1 DUP1 DUP4 DUP4 PUSH1 0x0 DUP4 ISZERO PUSH2 0x48CD JUMPI DUP2 DUP2 ADD MLOAD DUP4 DUP3 ADD MSTORE PUSH1 0x20 ADD PUSH2 0x48B5 JUMP JUMPDEST POP DUP1 SLOAD PUSH1 0x1 DUP2 PUSH1 0x1 AND ISZERO PUSH2 0x100 MUL SUB AND PUSH1 0x2 SWAP1 DIV PUSH1 0x0 DUP3 SSTORE DUP1 PUSH1 0x1F LT PUSH2 0x5253 JUMPI POP PUSH2 0x5271 JUMP JUMPDEST PUSH1 0x1F ADD PUSH1 0x20 SWAP1 DIV SWAP1 PUSH1 0x0 MSTORE PUSH1 0x20 PUSH1 0x0 KECCAK256 SWAP1 DUP2 ADD SWAP1 PUSH2 0x5271 SWAP2 SWAP1 PUSH2 0x5337 JUMP JUMPDEST POP JUMP JUMPDEST PUSH1 0x40 MLOAD DUP1 PUSH1 0xE0 ADD PUSH1 0x40 MSTORE DUP1 PUSH1 0x0 DUP2 MSTORE PUSH1 0x20 ADD PUSH1 0x0 DUP2 MSTORE PUSH1 0x20 ADD PUSH1 0x0 DUP2 MSTORE PUSH1 0x20 ADD PUSH1 0x60 DUP2 MSTORE PUSH1 0x20 ADD PUSH1 0x0 PUSH4 0xFFFFFFFF AND DUP2 MSTORE PUSH1 0x20 ADD PUSH1 0x0 DUP2 MSTORE PUSH1 0x20 ADD PUSH1 0x0 ISZERO ISZERO DUP2 MSTORE POP SWAP1 JUMP JUMPDEST DUP3 DUP1 SLOAD PUSH1 0x1 DUP2 PUSH1 0x1 AND ISZERO PUSH2 0x100 MUL SUB AND PUSH1 0x2 SWAP1 DIV SWAP1 PUSH1 0x0 MSTORE PUSH1 0x20 PUSH1 0x0 KECCAK256 SWAP1 PUSH1 0x1F ADD PUSH1 0x20 SWAP1 DIV DUP2 ADD SWAP3 DUP3 PUSH1 0x1F LT PUSH2 0x52FA JUMPI DUP1 MLOAD PUSH1 0xFF NOT AND DUP4 DUP1 ADD OR DUP6 SSTORE PUSH2 0x5327 JUMP JUMPDEST DUP3 DUP1 ADD PUSH1 0x1 ADD DUP6 SSTORE DUP3 ISZERO PUSH2 0x5327 JUMPI SWAP2 DUP3 ADD JUMPDEST DUP3 DUP2 GT ISZERO PUSH2 0x5327 JUMPI DUP3 MLOAD DUP3 SSTORE SWAP2 PUSH1 0x20 ADD SWAP2 SWAP1 PUSH1 0x1 ADD SWAP1 PUSH2 0x530C JUMP JUMPDEST POP PUSH2 0x5333 SWAP3 SWAP2 POP PUSH2 0x5337 JUMP JUMPDEST POP SWAP1 JUMP JUMPDEST JUMPDEST DUP1 DUP3 GT ISZERO PUSH2 0x5333 JUMPI PUSH1 0x0 DUP2 SSTORE PUSH1 0x1 ADD PUSH2 0x5338 JUMP INVALID GASLIMIT PUSH15 0x756D657261626C655365743A20696E PUSH5 0x6578206F75 PUSH21 0x206F6620626F756E64734552433732313A20747261 PUSH15 0x7366657220746F206E6F6E20455243 CALLDATACOPY ORIGIN BALANCE MSTORE PUSH6 0x636569766572 KECCAK256 PUSH10 0x6D706C656D656E746572 0x4E PUSH16 0x7420656E6F756768204C494E4B202D20 PUSH7 0x696C6C20746865 KECCAK256 PUSH4 0x6F6E7472 PUSH2 0x6374 KECCAK256 PUSH24 0x697468206661756365744F574E45523A2043616C6C657220 PUSH2 0x7265 PUSH15 0x60742074686520436F6E7472616374 KECCAK256 0x4F PUSH24 0x6E6572214552433732313A207472616E7366657220746F20 PUSH21 0x6865207A65726F2061646472657373546865206E66 PUSH21 0x2063616E20626520666F756E64206F72206E6F7420 PUSH6 0x786973742C20 PUSH21 0x7279206C61747465722E2E2E416464726573733A20 PUSH10 0x6E73756666696369656E PUSH21 0x2062616C616E636520666F722063616C6C45524337 ORIGIN BALANCE GASPRICE KECCAK256 PUSH16 0x70657261746F7220717565727920666F PUSH19 0x206E6F6E6578697374656E7420746F6B656E45 MSTORE NUMBER CALLDATACOPY ORIGIN BALANCE GASPRICE KECCAK256 PUSH2 0x7070 PUSH19 0x6F76652063616C6C6572206973206E6F74206F PUSH24 0x6E6572206E6F7220617070726F76656420666F7220616C6C GASLIMIT MSTORE NUMBER CALLDATACOPY ORIGIN BALANCE GASPRICE KECCAK256 PUSH3 0x616C61 PUSH15 0x636520717565727920666F72207468 PUSH6 0x207A65726F20 PUSH2 0x6464 PUSH19 0x6573734552433732313A206F776E6572207175 PUSH6 0x727920666F72 KECCAK256 PUSH15 0x6F6E6578697374656E7420746F6B65 PUSH15 0x456E756D657261626C654D61703A20 PUSH10 0x6E646578206F7574206F PUSH7 0x20626F756E6473 GASLIMIT MSTORE NUMBER CALLDATACOPY ORIGIN BALANCE GASPRICE KECCAK256 PUSH2 0x7070 PUSH19 0x6F76656420717565727920666F72206E6F6E65 PUSH25 0x697374656E7420746F6B656E4552433732314D657461646174 PUSH2 0x3A20 SSTORE MSTORE 0x49 KECCAK256 PUSH20 0x6574206F66206E6F6E6578697374656E7420746F PUSH12 0x656E4552433732313A207472 PUSH2 0x6E73 PUSH7 0x6572206F662074 PUSH16 0x6B656E2074686174206973206E6F7420 PUSH16 0x776E4552433732314D65746164617461 GASPRICE KECCAK256 SSTORE MSTORE 0x49 KECCAK256 PUSH18 0x7565727920666F72206E6F6E657869737465 PUSH15 0x7420746F6B656E4552433732313A20 PUSH2 0x7070 PUSH19 0x6F76616C20746F2063757272656E74206F776E PUSH6 0x72CECF7E435A ADDMOD 0xB4 MLOAD CREATE 0xCE MUL 0xC4 ADDRESS PUSH10 0xCC2FFE387EC6BEA07D3B 0xD3 0xE4 RETURNDATACOPY 0xBE SWAP13 0xB9 ISZERO 0xBD GASLIMIT MSTORE NUMBER CALLDATACOPY ORIGIN BALANCE GASPRICE KECCAK256 PUSH21 0x72616E736665722063616C6C6572206973206E6F74 KECCAK256 PUSH16 0x776E6572206E6F7220617070726F7665 PUSH5 0x7A46268AEF MUL SELFDESTRUCT SGT 0xD6 LOG0 0x4B DUP4 0x21 DUP6 0xB8 SSTORE 0xAD EQ PUSH32 0x2D24759ACA7F8723A60EECF72CA26469706673582212209C2E035430A45966FD 0xE9 0xB3 ADD SWAP7 DUP3 0x5C SWAP9 MUL 0xBB DIV 0xED 0x5D 0xDD GAS 0xAC 0xC8 DUP13 DUP9 OR SWAP8 CALLDATALOAD PUSH5 0x7F64736F6C PUSH4 0x4300060C STOP CALLER ",
  "sha1": "9bd34bc6960ecafbb5df4749956f4e58029a9d39",
  "source": "// contracts/StudentsNft.sol\n// SPDX-License-Identifier: MIT\npragma solidity ^0.6.6;\n\nimport \"./StudentsNft.sol\";\nimport \"./Ownable.sol\";\n\n/**\n*   @title `Ujap students` game full solidity nft contract\n*   @dev Full implementation of an ERC721, VRFConsumerBase, Ownable, Strings contracts\n*   \n*   Description:\n*\n*   Project made for the presentation of a university thesis, based on the studies \n*   and databases of the blockchain to create a game, made to be run on Kovan Test \n*   Blockchain, Local Blockchain and Main Ethereum Blockchain.\n*\n*   This contract (StudentsMain) contains all the elements for the admin of the NFT and the Token\n*   \n*   Author: https://github.com/simetb\n*   \n*   \n*/\ncontract StudentsMain is StudentsNft{\n\n    /** \n    *   @dev Events of the contract to js\n    */\n    event TokenOperation(address from,address to, uint256 amount, uint256 etherPrice);\n\n    event MarketTokenOwnerContract(uint256 bef, uint256 aft, string operation);\n\n    event NftOperation(address from, address to, uint256 nftId, uint256 amount);\n\n    event ContractBalance(uint256 balance);\n    /** \n    *   @dev Control variables to control the price game token\n    */\n    // Amount of money(ether) in the contract\n    uint256 private _liquidityPool;\n\n    struct StudentMarket{\n        uint256 id;\n        uint256 price;\n        address owner;\n    }\n\n    /**\n    *   @dev Array NFT in marketplace save struct `StudentMarket`\n    */    \n    StudentMarket[] internal _market;\n\n    // The reward token amount that you get for burn ur nft\n    uint256 private _burnReward;\n    // The price token amount that you use it in a transfer \n    uint256 private _transferPrice;\n\n    /**\n    *   @dev This constructor start the values of StundentsNft and the dependencies\n    *   \n    *   Warnings: Default Kovan networks, see the default values in docs on into Studentsnft.sol\n    */\n    constructor (\n        address _VRFCoordinator, \n        address _linkToken, \n        bytes32 _keyhash, \n        address _tokenAddress,\n        uint256 _nftPrice,\n        uint256 _wearMultiplicator,\n        uint256 _attackMultiplicator,\n        uint256 _rewardPriceMultiplicator,\n        uint256 tokenPool,\n        uint256 burnReward,\n        uint256 transferPrice\n        ) public\n    StudentsNft(_VRFCoordinator, _linkToken,_keyhash,_tokenAddress,_nftPrice,\n    _wearMultiplicator,_attackMultiplicator,_rewardPriceMultiplicator)\n    {\n\n        // TokenPool Initialization   \n        _tokenPool = tokenPool;\n        _tokenUJG.MintToken(tokenPool, address(this),msg.sender);\n\n        //  Price variables initialization\n        _burnReward = burnReward;\n        _transferPrice = transferPrice;\n    }\n\n    /** \n    *   Check if the actual nft exist in market\n    */\n    modifier MarketExist(uint256 id){\n        bool exist = false;\n        for (uint256 index = 0; index < _market.length; index++) {\n            if(_market[index].id == id){\n                exist = true;\n            } \n        }\n        require(exist,\"The nft can be found or not exist, try latter...\");\n        _;\n    }\n\n    /** \n    *   @dev Set the token address of the contract\n    *\n    *   Requirements:\n    *   \n    * - Just the owner of the contract can doit\n    */\n    function SetTokenERC20Address(address newAddress) external OnlyOwner(msg.sender){\n        _tokenUJG = TokenUJG(newAddress);\n    }\n\n    /**\n    *  @dev Burn the character, transfer to 0x0...address\n    *   and remove it from the arrays \n    *  {ERC721 - _beforeTokenTransfer}\n    *\n    *   Requirements:\n    *\n    * - You need to be the owner of the NFT\n    * - The nft cannot be in the marketplace\n    *\n    *   Warning:\n    * \n    * - THIS WILL DELETE THE NFT\n    */\n    function BurnNft(uint256 studentIndex) \n    external \n    OnlyOwnerOf(studentIndex)\n    InMarket(studentIndex){\n        address owner = msg.sender;\n\n        uint256 studentId = _students[studentIndex].id;\n\n        _beforeTokenTransfer(owner, address(0), studentId);\n\n        _nftOwnerCount[owner] -= 1;\n        delete _nftToOwner[studentId];\n        delete _students[studentIndex];\n\n        _transferContractToUser(_burnReward, msg.sender);\n        emit NftOperation(msg.sender, address(0), studentId, _burnReward);\n    }\n\n    function GetBurnReward() public view returns(uint256){\n        return(_burnReward);\n    }\n\n    function SetBurnReward(uint256 newBurnReward) public OnlyOwner(msg.sender){\n        _burnReward = newBurnReward;\n    }\n\n    /**\n    *   @dev Transfer the character from a wallet to another wallet...\n    *   {ERC721 - _transfer()} \n    *\n    *   Requirements:\n    *\n    * - You need to be the owner of the NFT\n    * - The nft cannot be in the marketplace\n    */\n    function TransferNft(address from, address to, uint256 studentIndex) public \n    OnlyOwnerOf(studentIndex)\n    InMarket(studentIndex)\n    {\n        uint256 studentId =  _students[studentIndex].id;\n        _transferUserToContract(_transferPrice, msg.sender);\n        _transferLogic(from, to, studentId);\n        emit NftOperation(from, to, studentId, _transferPrice);\n    }\n    \n    /** \n    *   @dev Get the `_transferPrice` global variable\n    *\n    *   Requirements: \n    *\n    * - only the owner cant  do it\n    */\n    function GetTransferPrice() \n    public\n    view \n    returns(uint256){return(_transferPrice);}\n\n    /** \n    *   @dev set a new `_transferPrice` variable price \n    *\n    *   Requirements: \n    *\n    * - only the owner cant  do it\n    */\n    function SetTransferPrice(uint256 newTransferPrice) \n    public \n    OnlyOwner(msg.sender){_transferPrice = newTransferPrice;}\n\n    /** \n    *   @dev got all the logic of {ERC721 - _transfer()} to simplify the code\n    */\n    function _transferLogic(address from, address to, uint256 studentId) internal{\n        _transfer(from,to,studentId);\n\n        _nftOwnerCount[from] -=1;\n\n        _nftOwnerCount[to] +=1;\n\n        _nftToOwner[studentId] = to;\n    }\n\n    /**\n    *   @dev see all the INDEX NFT of the owner \n    *\n    *   Requirements:\n    * - the owner address cannot be 0x0...\n    */\n    function GetStudentsByOwner(address owner) public view returns(uint256[] memory){\n        require(owner != address(0),\"Address 0x0... invalid\");\n\n        uint256[] memory result = new uint256[](_nftOwnerCount[owner]);\n\n        uint256 counter = 0;\n\n        for (uint i = 0; i < _students.length; i++){\n\n            if(_nftToOwner[i] == owner){\n                result[counter] = i;\n                counter++;\n            }\n\n        }\n        return result;\n    }\n\n    /** \n    *   @dev Get the `_students` (NFT) Info \n    *\n    */\n    function GetStudentInfo(uint256 studentIndex) \n    public \n    view \n    returns(\n        uint256,\n        uint256,\n        uint256,\n        string memory,\n        uint32,\n        uint256,\n        bool\n        ){\n        return(\n            _students[studentIndex].level,\n            _students[studentIndex].intelligenceLevel,\n            _students[studentIndex].cheatLevel,\n            _students[studentIndex].name,\n            _students[studentIndex].attackTime,\n            _students[studentIndex].id,\n            _students[studentIndex].market\n        );\n    }\n\n    /** \n    *   @dev Get the URI from the NFT Tokem\n    *\n    *   Requirements: \n    *   \n    */\n    function GetTokenURI(uint256 studentId) \n    public view OnlyOwner(msg.sender) \n    returns(string memory)\n    {return tokenURI(studentId);}\n\n    /** \n    *   @dev Get the URI from the NFT Tokem\n    *\n    *   Requirements: \n    *   \n    */\n    function SetTokenURI(uint256 studentId, string memory tokenURI) \n    public \n   {_setTokenURI(studentId, tokenURI);}\n\n    /** \n    *   @dev Get the total Number of Nft from an account\n    */\n    function GetNumbersNft(address account) \n    public \n    view \n    returns(uint256){return(_nftOwnerCount[account]);}\n\n    /** \n    *   @dev Get the total Number of Nft in game\n    */\n    function GetTotalNftInGame() \n    public \n    view \n    returns(uint256){return(_students.length);}\n\n    /** \n    *   @dev Get the total Number of Nft in market\n    */\n    function GetTotalNftInMarket() \n    public \n    view \n    returns(uint256){return(_market.length);}\n\n    function GetNftInMarket(uint256 marketIndex)\n    public\n    view\n    returns(\n        uint256,\n        uint256,\n        address){return(\n            _market[marketIndex].id,\n            _market[marketIndex].price,\n            _market[marketIndex].owner);\n        }\n\n    /** \n    *   @dev Get the student index by the id\n    */\n    function GetStudentIndexById(uint256 id)\n    public \n    view \n    returns(uint256){\n        for (uint256 i = 0; i < _students.length; i++) {\n            if(id == _students[i].id){\n                return(i);\n            }\n        }\n    }\n\n    /** \n    *   @dev Get the student market index by the id\n    */\n    function GetMarketIndexById(uint256 id)\n    public\n    view\n    returns(uint256){\n        for (uint256 i = 0; i < _market.length; i++) {\n            if(id == _market[i].id){\n                return(i);\n            }\n        }\n    }\n\n    /**\n    *   @dev Put the student in a market this gonna change the market \n    *   state of the nft struct to true, cant be transferible , playable\n    *\n    *   Requirements:\n    *\n    * - U need to be the owner of the NFT\n    */\n    function PutInMarket(uint256 studentIndex, uint256 price) \n    public \n    OnlyOwnerOf(studentIndex)\n    EnoughToken(msg.sender, 10 * 1 ether){\n        _transferUserToContract(10 * 1 ether, msg.sender);\n        \n        _market.push(\n            StudentMarket(\n                _students[studentIndex].id,\n                price,\n                msg.sender\n            )\n        );\n        _students[studentIndex].market = true;\n        \n        emit NftOperation(msg.sender, address(this), _students[studentIndex].id, 10 * 1 ether);\n    }\n\n    /** \n    *   @dev Buy the nft from the market and transfer it to buyer wallet, change the nft market state\n    *   and delete it from the market array\n    *\n    *   Requirements:\n    *\n    * - U need to have the enough amount of token in your wallet\n    */\n    function BuyMarket(uint256 marketIndex) \n    public \n    EnoughToken(msg.sender,_market[marketIndex].price)\n    MarketExist(_market[marketIndex].id){\n        uint256 amount = _market[marketIndex].price;\n\n        address owner = _market[marketIndex].owner;\n    \n        uint256 indexNft = GetStudentIndexById(_market[marketIndex].id);\n\n        address buyer = msg.sender;\n        \n        _tokenUJG.TransferToken(buyer, owner, amount);\n\n        _students[indexNft].market = false;\n\n        _transferLogic(owner,buyer,_students[indexNft].id);\n\n        delete _market[marketIndex];\n\n        emit NftOperation(buyer, owner, _students[indexNft].id, amount);\n    }\n\n    /** \n    *   @dev This function will remove the NFT from the marketplace and update the market state\n    *\n    *   Requirements:\n    *\n    * - U need to have the enough amount of token in your wallet\n    */\n    function GetOutMarket(uint256 studentIndex) \n    public \n    OnlyOwnerOf(studentIndex)\n    EnoughToken(msg.sender, 10 * 1 ether)\n    MarketExist(_students[studentIndex].id){\n\n        uint256 nftId = _students[studentIndex].id;\n\n        uint256 marketIndex = GetMarketIndexById(nftId);\n\n        address owner = _market[marketIndex].owner;\n        \n        _transferUserToContract(10 * 1 ether, owner);\n        \n        uint256 indexNft = GetStudentIndexById(_market[marketIndex].id); \n\n        _students[indexNft].market = false;\n\n        delete _market[marketIndex];\n\n        emit NftOperation(msg.sender, msg.sender, _market[marketIndex].id, 10 * 1 ether);\n    }\n\n    /**\n    *   @dev Buy the token for the game this increases the liquidity of the game\n    *   and reduce the tokenPool, these token prices are worked on ether and emit\n    *   an event with information\n    *\n    * - Requirements:\n    *\n    *   You need to have the full price in ether in the transfer\n    */\n    function BuyToken(uint256 amount, uint256 price) external payable{\n        require(msg.value >= ((amount * price)/1 ether));\n        \n        _tokenUJG.TransferToken(address(this), msg.sender, amount);\n       \n        _liquidityPool += msg.value;\n        \n        _tokenPool -= amount;\n        \n        emit TokenOperation(msg.sender,address(this), amount, (amount * price)/ 1 ether);\n    }\n\n    /**\n    *   @dev Sell the token for the game this decrease the liquidity of the game\n    *   and increase the tokenPool, token prices are worked on ether and emit an\n    *     event with information\n    *\n    * - Requirements:\n    *\n    *   You need to have the full amount of token y your wallet\n    */\n    function SellToken(uint256 amount,uint256 price) external payable EnoughToken(msg.sender, amount){\n        uint256 total = ((price * amount)/1 ether);\n        \n        _transferUserToContract(amount, msg.sender);\n        \n        msg.sender.transfer(total);\n        \n        _liquidityPool -= total;\n\n        _tokenPool +=amount;\n        \n        emit TokenOperation(address(this),msg.sender, amount,  (amount * price)/ 1 ether);\n    }\n\n    /**\n    *   @dev Transfer the tokens from one account to another, this will reduce \n    *   the account of the sender and increase the account of the receiver\n    *\n    * - Requirements:\n    *\n    *   You need to have the full amount of token y your wallet\n    */\n    function TransferToken(address to,uint256 amount) public EnoughToken(msg.sender, amount){\n        _tokenUJG.TransferToken(msg.sender,to,amount);\n        emit TokenOperation(msg.sender,to,amount,0);\n    }\n\n    /** \n    *   @dev Get the value of the actual liquidity pool\n    */\n    function GetLiquidityPool() \n    public \n    view\n    returns(uint256){return(_liquidityPool);}\n\n    /** \n    *   @dev Get the value of the actual token pool\n    */\n    function GetTokenPool() \n    public\n    view \n    returns(uint256){return(_tokenPool);}\n\n    /** \n    *   @dev Increasse the liquidity of ther contract\n    */\n    function TransferLiquidity() public payable OnlyOwner(msg.sender){\n        require(msg.value > 0);\n        \n        uint256 bef = _liquidityPool;\n        \n        _liquidityPool += msg.value;\n        \n        emit MarketTokenOwnerContract(bef,_liquidityPool,\"+\");\n    }\n\n    /** \n    *   @dev Decreasse the liquidity of ther contract\n    */\n    function Withdraw(uint256 amount, address payable owner) public payable OnlyOwner(msg.sender){\n        \n        owner.transfer(amount);\n        \n        uint256 bef = _liquidityPool;\n        \n        _liquidityPool -= amount;\n        \n        emit MarketTokenOwnerContract(bef,_liquidityPool,\"-\");\n    }\n\n    /** \n    *   @dev Get the contrac balance in eth\n    */\n    function GetContractBalance() \n    public {emit ContractBalance(address(this).balance);}\n\n    /** \n    *   @dev Increasse the token pool, this will decreasse the price of token.\n    */\n    function MintTokens(uint256 amount) public{\n        \n        _tokenUJG.MintToken(amount,address(this),msg.sender);\n        \n        uint256 bef = _tokenPool;\n        \n        _tokenPool += amount;\n        \n        emit MarketTokenOwnerContract(bef,_tokenPool,\"+\");\n    }\n\n    /** \n    *   @dev Decreasse the token pool, this will increasse the price of token.\n    */\n    function BurnTokens(uint256 amount) public{\n        _tokenUJG.BurnToken(address(this), amount, msg.sender);\n        uint256 bef = _tokenPool;\n        _tokenPool -= amount;\n        emit MarketTokenOwnerContract(bef,_tokenPool,\"-\");\n    }\n\n    /** \n    *   @dev Check the user balance\n    */\n    function TokenBalance(address account)\n    public\n    view\n    returns(uint256){return(_tokenUJG.GetTokenBalance(account));}\n}",
  "sourcePath": "contracts/StudentsMain.sol",
  "type": "contract"
}